{
	"AlienPresale.sol": {
		"AlienPresale": {
			"abi": [
				{
					"inputs": [
						{
							"internalType": "address",
							"name": "_alienToken",
							"type": "address"
						},
						{
							"internalType": "uint256",
							"name": "_tokenPrice",
							"type": "uint256"
						},
						{
							"internalType": "uint256",
							"name": "_startTime",
							"type": "uint256"
						},
						{
							"internalType": "uint256",
							"name": "_endTime",
							"type": "uint256"
						},
						{
							"internalType": "uint256",
							"name": "_hardCap",
							"type": "uint256"
						},
						{
							"internalType": "address",
							"name": "initialOwner",
							"type": "address"
						}
					],
					"stateMutability": "nonpayable",
					"type": "constructor"
				},
				{
					"inputs": [
						{
							"internalType": "address",
							"name": "owner",
							"type": "address"
						}
					],
					"name": "OwnableInvalidOwner",
					"type": "error"
				},
				{
					"inputs": [
						{
							"internalType": "address",
							"name": "account",
							"type": "address"
						}
					],
					"name": "OwnableUnauthorizedAccount",
					"type": "error"
				},
				{
					"inputs": [
						{
							"internalType": "address",
							"name": "token",
							"type": "address"
						}
					],
					"name": "SafeERC20FailedOperation",
					"type": "error"
				},
				{
					"anonymous": false,
					"inputs": [
						{
							"indexed": true,
							"internalType": "address",
							"name": "user",
							"type": "address"
						},
						{
							"indexed": false,
							"internalType": "uint256",
							"name": "amountRefunded",
							"type": "uint256"
						}
					],
					"name": "EmergencyWithdraw",
					"type": "event"
				},
				{
					"anonymous": false,
					"inputs": [
						{
							"indexed": true,
							"internalType": "address",
							"name": "previousOwner",
							"type": "address"
						},
						{
							"indexed": true,
							"internalType": "address",
							"name": "newOwner",
							"type": "address"
						}
					],
					"name": "OwnershipTransferred",
					"type": "event"
				},
				{
					"anonymous": false,
					"inputs": [
						{
							"indexed": false,
							"internalType": "bool",
							"name": "status",
							"type": "bool"
						}
					],
					"name": "PresalePaused",
					"type": "event"
				},
				{
					"anonymous": false,
					"inputs": [
						{
							"indexed": true,
							"internalType": "address",
							"name": "user",
							"type": "address"
						},
						{
							"indexed": false,
							"internalType": "uint256",
							"name": "tokensClaimed",
							"type": "uint256"
						}
					],
					"name": "TokensClaimed",
					"type": "event"
				},
				{
					"anonymous": false,
					"inputs": [
						{
							"indexed": true,
							"internalType": "address",
							"name": "buyer",
							"type": "address"
						},
						{
							"indexed": false,
							"internalType": "uint256",
							"name": "amountPaid",
							"type": "uint256"
						},
						{
							"indexed": false,
							"internalType": "uint256",
							"name": "tokensAllocated",
							"type": "uint256"
						}
					],
					"name": "TokensPurchased",
					"type": "event"
				},
				{
					"inputs": [],
					"name": "MAX_PRESALE_DURATION",
					"outputs": [
						{
							"internalType": "uint256",
							"name": "",
							"type": "uint256"
						}
					],
					"stateMutability": "view",
					"type": "function"
				},
				{
					"inputs": [],
					"name": "alienToken",
					"outputs": [
						{
							"internalType": "contract IERC20",
							"name": "",
							"type": "address"
						}
					],
					"stateMutability": "view",
					"type": "function"
				},
				{
					"inputs": [],
					"name": "buyTokens",
					"outputs": [],
					"stateMutability": "payable",
					"type": "function"
				},
				{
					"inputs": [],
					"name": "claimTokens",
					"outputs": [],
					"stateMutability": "nonpayable",
					"type": "function"
				},
				{
					"inputs": [
						{
							"internalType": "address",
							"name": "",
							"type": "address"
						}
					],
					"name": "claimableTokens",
					"outputs": [
						{
							"internalType": "uint256",
							"name": "",
							"type": "uint256"
						}
					],
					"stateMutability": "view",
					"type": "function"
				},
				{
					"inputs": [
						{
							"internalType": "address",
							"name": "",
							"type": "address"
						}
					],
					"name": "contributions",
					"outputs": [
						{
							"internalType": "uint256",
							"name": "",
							"type": "uint256"
						}
					],
					"stateMutability": "view",
					"type": "function"
				},
				{
					"inputs": [],
					"name": "emergencyWithdraw",
					"outputs": [],
					"stateMutability": "nonpayable",
					"type": "function"
				},
				{
					"inputs": [],
					"name": "endTime",
					"outputs": [
						{
							"internalType": "uint256",
							"name": "",
							"type": "uint256"
						}
					],
					"stateMutability": "view",
					"type": "function"
				},
				{
					"inputs": [],
					"name": "hardCap",
					"outputs": [
						{
							"internalType": "uint256",
							"name": "",
							"type": "uint256"
						}
					],
					"stateMutability": "view",
					"type": "function"
				},
				{
					"inputs": [],
					"name": "owner",
					"outputs": [
						{
							"internalType": "address",
							"name": "",
							"type": "address"
						}
					],
					"stateMutability": "view",
					"type": "function"
				},
				{
					"inputs": [
						{
							"internalType": "bool",
							"name": "_status",
							"type": "bool"
						}
					],
					"name": "pausePresale",
					"outputs": [],
					"stateMutability": "nonpayable",
					"type": "function"
				},
				{
					"inputs": [],
					"name": "paused",
					"outputs": [
						{
							"internalType": "bool",
							"name": "",
							"type": "bool"
						}
					],
					"stateMutability": "view",
					"type": "function"
				},
				{
					"inputs": [],
					"name": "renounceOwnership",
					"outputs": [],
					"stateMutability": "nonpayable",
					"type": "function"
				},
				{
					"inputs": [],
					"name": "startTime",
					"outputs": [
						{
							"internalType": "uint256",
							"name": "",
							"type": "uint256"
						}
					],
					"stateMutability": "view",
					"type": "function"
				},
				{
					"inputs": [],
					"name": "tokenPrice",
					"outputs": [
						{
							"internalType": "uint256",
							"name": "",
							"type": "uint256"
						}
					],
					"stateMutability": "view",
					"type": "function"
				},
				{
					"inputs": [],
					"name": "totalRaised",
					"outputs": [
						{
							"internalType": "uint256",
							"name": "",
							"type": "uint256"
						}
					],
					"stateMutability": "view",
					"type": "function"
				},
				{
					"inputs": [
						{
							"internalType": "address",
							"name": "newOwner",
							"type": "address"
						}
					],
					"name": "transferOwnership",
					"outputs": [],
					"stateMutability": "nonpayable",
					"type": "function"
				},
				{
					"inputs": [],
					"name": "withdrawFunds",
					"outputs": [],
					"stateMutability": "nonpayable",
					"type": "function"
				},
				{
					"inputs": [],
					"name": "withdrawUnsoldTokens",
					"outputs": [],
					"stateMutability": "nonpayable",
					"type": "function"
				}
			],
			"devdoc": {
				"errors": {
					"OwnableInvalidOwner(address)": [
						{
							"details": "The owner is not a valid owner account. (eg. `address(0)`)"
						}
					],
					"OwnableUnauthorizedAccount(address)": [
						{
							"details": "The caller account is not authorized to perform an operation."
						}
					],
					"SafeERC20FailedOperation(address)": [
						{
							"details": "An operation with an ERC-20 token failed."
						}
					]
				},
				"kind": "dev",
				"methods": {
					"owner()": {
						"details": "Returns the address of the current owner."
					},
					"renounceOwnership()": {
						"details": "Leaves the contract without owner. It will not be possible to call `onlyOwner` functions. Can only be called by the current owner. NOTE: Renouncing ownership will leave the contract without an owner, thereby disabling any functionality that is only available to the owner."
					},
					"transferOwnership(address)": {
						"details": "Transfers ownership of the contract to a new account (`newOwner`). Can only be called by the current owner."
					}
				},
				"version": 1
			},
			"evm": {
				"assembly": "    /* \"AlienPresale.sol\":298:3723  contract AlienPresale is Ownable, ReentrancyGuard {... */\n  mstore(0x40, 0x80)\n    /* \"AlienPresale.sol\":1204:1898  constructor(... */\n  callvalue\n  dup1\n  iszero\n  tag_1\n  jumpi\n  0x00\n  dup1\n  revert\ntag_1:\n  pop\n  mload(0x40)\n  sub(codesize, bytecodeSize)\n  dup1\n  bytecodeSize\n  dup4\n  codecopy\n  dup2\n  dup2\n  add\n  0x40\n  mstore\n  dup2\n  add\n  swap1\n  tag_2\n  swap2\n  swap1\n  tag_3\n  jump\t// in\ntag_2:\n    /* \"AlienPresale.sol\":1398:1410  initialOwner */\n  dup1\n    /* \"@openzeppelin/contracts/access/Ownable.sol\":1297:1298  0 */\n  0x00\n    /* \"@openzeppelin/contracts/access/Ownable.sol\":1273:1299  initialOwner == address(0) */\n  0xffffffffffffffffffffffffffffffffffffffff\n  and\n    /* \"@openzeppelin/contracts/access/Ownable.sol\":1273:1285  initialOwner */\n  dup2\n    /* \"@openzeppelin/contracts/access/Ownable.sol\":1273:1299  initialOwner == address(0) */\n  0xffffffffffffffffffffffffffffffffffffffff\n  and\n  sub\n    /* \"@openzeppelin/contracts/access/Ownable.sol\":1269:1364  if (initialOwner == address(0)) {... */\n  tag_8\n  jumpi\n    /* \"@openzeppelin/contracts/access/Ownable.sol\":1350:1351  0 */\n  0x00\n    /* \"@openzeppelin/contracts/access/Ownable.sol\":1322:1353  OwnableInvalidOwner(address(0)) */\n  mload(0x40)\n  0x1e4fbdf700000000000000000000000000000000000000000000000000000000\n  dup2\n  mstore\n  0x04\n  add\n  tag_9\n  swap2\n  swap1\n  tag_10\n  jump\t// in\ntag_9:\n  mload(0x40)\n  dup1\n  swap2\n  sub\n  swap1\n  revert\n    /* \"@openzeppelin/contracts/access/Ownable.sol\":1269:1364  if (initialOwner == address(0)) {... */\ntag_8:\n    /* \"@openzeppelin/contracts/access/Ownable.sol\":1373:1405  _transferOwnership(initialOwner) */\n  tag_11\n    /* \"@openzeppelin/contracts/access/Ownable.sol\":1392:1404  initialOwner */\n  dup2\n    /* \"@openzeppelin/contracts/access/Ownable.sol\":1373:1391  _transferOwnership */\n  shl(0x20, tag_12)\n    /* \"@openzeppelin/contracts/access/Ownable.sol\":1373:1405  _transferOwnership(initialOwner) */\n  0x20\n  shr\n  jump\t// in\ntag_11:\n    /* \"@openzeppelin/contracts/access/Ownable.sol\":1225:1412  constructor(address initialOwner) {... */\n  pop\n    /* \"@openzeppelin/contracts/security/ReentrancyGuard.sol\":1716:1717  1 */\n  0x01\n    /* \"@openzeppelin/contracts/security/ReentrancyGuard.sol\":1821:1828  _status */\n  dup1\n    /* \"@openzeppelin/contracts/security/ReentrancyGuard.sol\":1821:1843  _status = _NOT_ENTERED */\n  dup2\n  swap1\n  sstore\n  pop\n    /* \"AlienPresale.sol\":1453:1454  0 */\n  0x00\n    /* \"AlienPresale.sol\":1430:1455  _alienToken != address(0) */\n  0xffffffffffffffffffffffffffffffffffffffff\n  and\n    /* \"AlienPresale.sol\":1430:1441  _alienToken */\n  dup7\n    /* \"AlienPresale.sol\":1430:1455  _alienToken != address(0) */\n  0xffffffffffffffffffffffffffffffffffffffff\n  and\n  sub\n    /* \"AlienPresale.sol\":1422:1473  require(_alienToken != address(0), \"Invalid token\") */\n  tag_15\n  jumpi\n  mload(0x40)\n  0x08c379a000000000000000000000000000000000000000000000000000000000\n  dup2\n  mstore\n  0x04\n  add\n  tag_16\n  swap1\n  tag_17\n  jump\t// in\ntag_16:\n  mload(0x40)\n  dup1\n  swap2\n  sub\n  swap1\n  revert\ntag_15:\n    /* \"AlienPresale.sol\":1504:1512  _endTime */\n  dup3\n    /* \"AlienPresale.sol\":1491:1501  _startTime */\n  dup5\n    /* \"AlienPresale.sol\":1491:1512  _startTime < _endTime */\n  lt\n    /* \"AlienPresale.sol\":1483:1541  require(_startTime < _endTime, \"Start must be before end\") */\n  tag_18\n  jumpi\n  mload(0x40)\n  0x08c379a000000000000000000000000000000000000000000000000000000000\n  dup2\n  mstore\n  0x04\n  add\n  tag_19\n  swap1\n  tag_20\n  jump\t// in\ntag_19:\n  mload(0x40)\n  dup1\n  swap2\n  sub\n  swap1\n  revert\ntag_18:\n    /* \"AlienPresale.sol\":768:775  30 days */\n  0x278d00\n    /* \"AlienPresale.sol\":1570:1580  _startTime */\n  dup5\n    /* \"AlienPresale.sol\":1559:1567  _endTime */\n  dup5\n    /* \"AlienPresale.sol\":1559:1580  _endTime - _startTime */\n  tag_21\n  swap2\n  swap1\n  tag_22\n  jump\t// in\ntag_21:\n    /* \"AlienPresale.sol\":1559:1604  _endTime - _startTime <= MAX_PRESALE_DURATION */\n  gt\n  iszero\n    /* \"AlienPresale.sol\":1551:1625  require(_endTime - _startTime <= MAX_PRESALE_DURATION, \"Presale too long\") */\n  tag_23\n  jumpi\n  mload(0x40)\n  0x08c379a000000000000000000000000000000000000000000000000000000000\n  dup2\n  mstore\n  0x04\n  add\n  tag_24\n  swap1\n  tag_25\n  jump\t// in\ntag_24:\n  mload(0x40)\n  dup1\n  swap2\n  sub\n  swap1\n  revert\ntag_23:\n    /* \"AlienPresale.sol\":1657:1658  0 */\n  0x00\n    /* \"AlienPresale.sol\":1643:1654  _tokenPrice */\n  dup6\n    /* \"AlienPresale.sol\":1643:1658  _tokenPrice > 0 */\n  gt\n    /* \"AlienPresale.sol\":1635:1676  require(_tokenPrice > 0, \"Invalid price\") */\n  tag_26\n  jumpi\n  mload(0x40)\n  0x08c379a000000000000000000000000000000000000000000000000000000000\n  dup2\n  mstore\n  0x04\n  add\n  tag_27\n  swap1\n  tag_28\n  jump\t// in\ntag_27:\n  mload(0x40)\n  dup1\n  swap2\n  sub\n  swap1\n  revert\ntag_26:\n    /* \"AlienPresale.sol\":1705:1706  0 */\n  0x00\n    /* \"AlienPresale.sol\":1694:1702  _hardCap */\n  dup3\n    /* \"AlienPresale.sol\":1694:1706  _hardCap > 0 */\n  gt\n    /* \"AlienPresale.sol\":1686:1726  require(_hardCap > 0, \"Invalid hardcap\") */\n  tag_29\n  jumpi\n  mload(0x40)\n  0x08c379a000000000000000000000000000000000000000000000000000000000\n  dup2\n  mstore\n  0x04\n  add\n  tag_30\n  swap1\n  tag_31\n  jump\t// in\ntag_30:\n  mload(0x40)\n  dup1\n  swap2\n  sub\n  swap1\n  revert\ntag_29:\n    /* \"AlienPresale.sol\":1757:1768  _alienToken */\n  dup6\n    /* \"AlienPresale.sol\":1737:1747  alienToken */\n  0x02\n  0x00\n    /* \"AlienPresale.sol\":1737:1769  alienToken = IERC20(_alienToken) */\n  0x0100\n  exp\n  dup2\n  sload\n  dup2\n  0xffffffffffffffffffffffffffffffffffffffff\n  mul\n  not\n  and\n  swap1\n  dup4\n  0xffffffffffffffffffffffffffffffffffffffff\n  and\n  mul\n  or\n  swap1\n  sstore\n  pop\n    /* \"AlienPresale.sol\":1792:1803  _tokenPrice */\n  dup5\n    /* \"AlienPresale.sol\":1779:1789  tokenPrice */\n  0x03\n    /* \"AlienPresale.sol\":1779:1803  tokenPrice = _tokenPrice */\n  dup2\n  swap1\n  sstore\n  pop\n    /* \"AlienPresale.sol\":1825:1835  _startTime */\n  dup4\n    /* \"AlienPresale.sol\":1813:1822  startTime */\n  0x04\n    /* \"AlienPresale.sol\":1813:1835  startTime = _startTime */\n  dup2\n  swap1\n  sstore\n  pop\n    /* \"AlienPresale.sol\":1855:1863  _endTime */\n  dup3\n    /* \"AlienPresale.sol\":1845:1852  endTime */\n  0x05\n    /* \"AlienPresale.sol\":1845:1863  endTime = _endTime */\n  dup2\n  swap1\n  sstore\n  pop\n    /* \"AlienPresale.sol\":1883:1891  _hardCap */\n  dup2\n    /* \"AlienPresale.sol\":1873:1880  hardCap */\n  0x06\n    /* \"AlienPresale.sol\":1873:1891  hardCap = _hardCap */\n  dup2\n  swap1\n  sstore\n  pop\n    /* \"AlienPresale.sol\":1204:1898  constructor(... */\n  pop\n  pop\n  pop\n  pop\n  pop\n  pop\n    /* \"AlienPresale.sol\":298:3723  contract AlienPresale is Ownable, ReentrancyGuard {... */\n  jump(tag_32)\n    /* \"@openzeppelin/contracts/access/Ownable.sol\":2912:3099  function _transferOwnership(address newOwner) internal virtual {... */\ntag_12:\n    /* \"@openzeppelin/contracts/access/Ownable.sol\":2985:3001  address oldOwner */\n  0x00\n    /* \"@openzeppelin/contracts/access/Ownable.sol\":3004:3010  _owner */\n  dup1\n  0x00\n  swap1\n  sload\n  swap1\n  0x0100\n  exp\n  swap1\n  div\n  0xffffffffffffffffffffffffffffffffffffffff\n  and\n    /* \"@openzeppelin/contracts/access/Ownable.sol\":2985:3010  address oldOwner = _owner */\n  swap1\n  pop\n    /* \"@openzeppelin/contracts/access/Ownable.sol\":3029:3037  newOwner */\n  dup2\n    /* \"@openzeppelin/contracts/access/Ownable.sol\":3020:3026  _owner */\n  0x00\n  dup1\n    /* \"@openzeppelin/contracts/access/Ownable.sol\":3020:3037  _owner = newOwner */\n  0x0100\n  exp\n  dup2\n  sload\n  dup2\n  0xffffffffffffffffffffffffffffffffffffffff\n  mul\n  not\n  and\n  swap1\n  dup4\n  0xffffffffffffffffffffffffffffffffffffffff\n  and\n  mul\n  or\n  swap1\n  sstore\n  pop\n    /* \"@openzeppelin/contracts/access/Ownable.sol\":3083:3091  newOwner */\n  dup2\n    /* \"@openzeppelin/contracts/access/Ownable.sol\":3052:3092  OwnershipTransferred(oldOwner, newOwner) */\n  0xffffffffffffffffffffffffffffffffffffffff\n  and\n    /* \"@openzeppelin/contracts/access/Ownable.sol\":3073:3081  oldOwner */\n  dup2\n    /* \"@openzeppelin/contracts/access/Ownable.sol\":3052:3092  OwnershipTransferred(oldOwner, newOwner) */\n  0xffffffffffffffffffffffffffffffffffffffff\n  and\n  0x8be0079c531659141344cd1fd0a4f28419497f9722a3daafe3b4186f6b6457e0\n  mload(0x40)\n  mload(0x40)\n  dup1\n  swap2\n  sub\n  swap1\n  log3\n    /* \"@openzeppelin/contracts/access/Ownable.sol\":2975:3099  {... */\n  pop\n    /* \"@openzeppelin/contracts/access/Ownable.sol\":2912:3099  function _transferOwnership(address newOwner) internal virtual {... */\n  pop\n  jump\t// out\n    /* \"#utility.yul\":88:205   */\ntag_35:\n    /* \"#utility.yul\":197:198   */\n  0x00\n    /* \"#utility.yul\":194:195   */\n  dup1\n    /* \"#utility.yul\":187:199   */\n  revert\n    /* \"#utility.yul\":334:460   */\ntag_37:\n    /* \"#utility.yul\":371:378   */\n  0x00\n    /* \"#utility.yul\":411:453   */\n  0xffffffffffffffffffffffffffffffffffffffff\n    /* \"#utility.yul\":404:409   */\n  dup3\n    /* \"#utility.yul\":400:454   */\n  and\n    /* \"#utility.yul\":389:454   */\n  swap1\n  pop\n    /* \"#utility.yul\":334:460   */\n  swap2\n  swap1\n  pop\n  jump\t// out\n    /* \"#utility.yul\":466:562   */\ntag_38:\n    /* \"#utility.yul\":503:510   */\n  0x00\n    /* \"#utility.yul\":532:556   */\n  tag_63\n    /* \"#utility.yul\":550:555   */\n  dup3\n    /* \"#utility.yul\":532:556   */\n  tag_37\n  jump\t// in\ntag_63:\n    /* \"#utility.yul\":521:556   */\n  swap1\n  pop\n    /* \"#utility.yul\":466:562   */\n  swap2\n  swap1\n  pop\n  jump\t// out\n    /* \"#utility.yul\":568:690   */\ntag_39:\n    /* \"#utility.yul\":641:665   */\n  tag_65\n    /* \"#utility.yul\":659:664   */\n  dup2\n    /* \"#utility.yul\":641:665   */\n  tag_38\n  jump\t// in\ntag_65:\n    /* \"#utility.yul\":634:639   */\n  dup2\n    /* \"#utility.yul\":631:666   */\n  eq\n    /* \"#utility.yul\":621:684   */\n  tag_66\n  jumpi\n    /* \"#utility.yul\":680:681   */\n  0x00\n    /* \"#utility.yul\":677:678   */\n  dup1\n    /* \"#utility.yul\":670:682   */\n  revert\n    /* \"#utility.yul\":621:684   */\ntag_66:\n    /* \"#utility.yul\":568:690   */\n  pop\n  jump\t// out\n    /* \"#utility.yul\":696:839   */\ntag_40:\n    /* \"#utility.yul\":753:758   */\n  0x00\n    /* \"#utility.yul\":784:790   */\n  dup2\n    /* \"#utility.yul\":778:791   */\n  mload\n    /* \"#utility.yul\":769:791   */\n  swap1\n  pop\n    /* \"#utility.yul\":800:833   */\n  tag_68\n    /* \"#utility.yul\":827:832   */\n  dup2\n    /* \"#utility.yul\":800:833   */\n  tag_39\n  jump\t// in\ntag_68:\n    /* \"#utility.yul\":696:839   */\n  swap3\n  swap2\n  pop\n  pop\n  jump\t// out\n    /* \"#utility.yul\":845:922   */\ntag_41:\n    /* \"#utility.yul\":882:889   */\n  0x00\n    /* \"#utility.yul\":911:916   */\n  dup2\n    /* \"#utility.yul\":900:916   */\n  swap1\n  pop\n    /* \"#utility.yul\":845:922   */\n  swap2\n  swap1\n  pop\n  jump\t// out\n    /* \"#utility.yul\":928:1050   */\ntag_42:\n    /* \"#utility.yul\":1001:1025   */\n  tag_71\n    /* \"#utility.yul\":1019:1024   */\n  dup2\n    /* \"#utility.yul\":1001:1025   */\n  tag_41\n  jump\t// in\ntag_71:\n    /* \"#utility.yul\":994:999   */\n  dup2\n    /* \"#utility.yul\":991:1026   */\n  eq\n    /* \"#utility.yul\":981:1044   */\n  tag_72\n  jumpi\n    /* \"#utility.yul\":1040:1041   */\n  0x00\n    /* \"#utility.yul\":1037:1038   */\n  dup1\n    /* \"#utility.yul\":1030:1042   */\n  revert\n    /* \"#utility.yul\":981:1044   */\ntag_72:\n    /* \"#utility.yul\":928:1050   */\n  pop\n  jump\t// out\n    /* \"#utility.yul\":1056:1199   */\ntag_43:\n    /* \"#utility.yul\":1113:1118   */\n  0x00\n    /* \"#utility.yul\":1144:1150   */\n  dup2\n    /* \"#utility.yul\":1138:1151   */\n  mload\n    /* \"#utility.yul\":1129:1151   */\n  swap1\n  pop\n    /* \"#utility.yul\":1160:1193   */\n  tag_74\n    /* \"#utility.yul\":1187:1192   */\n  dup2\n    /* \"#utility.yul\":1160:1193   */\n  tag_42\n  jump\t// in\ntag_74:\n    /* \"#utility.yul\":1056:1199   */\n  swap3\n  swap2\n  pop\n  pop\n  jump\t// out\n    /* \"#utility.yul\":1205:2339   */\ntag_3:\n    /* \"#utility.yul\":1320:1326   */\n  0x00\n    /* \"#utility.yul\":1328:1334   */\n  dup1\n    /* \"#utility.yul\":1336:1342   */\n  0x00\n    /* \"#utility.yul\":1344:1350   */\n  dup1\n    /* \"#utility.yul\":1352:1358   */\n  0x00\n    /* \"#utility.yul\":1360:1366   */\n  dup1\n    /* \"#utility.yul\":1409:1412   */\n  0xc0\n    /* \"#utility.yul\":1397:1406   */\n  dup8\n    /* \"#utility.yul\":1388:1395   */\n  dup10\n    /* \"#utility.yul\":1384:1407   */\n  sub\n    /* \"#utility.yul\":1380:1413   */\n  slt\n    /* \"#utility.yul\":1377:1497   */\n  iszero\n  tag_76\n  jumpi\n    /* \"#utility.yul\":1416:1495   */\n  tag_77\n  tag_35\n  jump\t// in\ntag_77:\n    /* \"#utility.yul\":1377:1497   */\ntag_76:\n    /* \"#utility.yul\":1536:1537   */\n  0x00\n    /* \"#utility.yul\":1561:1625   */\n  tag_78\n    /* \"#utility.yul\":1617:1624   */\n  dup10\n    /* \"#utility.yul\":1608:1614   */\n  dup3\n    /* \"#utility.yul\":1597:1606   */\n  dup11\n    /* \"#utility.yul\":1593:1615   */\n  add\n    /* \"#utility.yul\":1561:1625   */\n  tag_40\n  jump\t// in\ntag_78:\n    /* \"#utility.yul\":1551:1625   */\n  swap7\n  pop\n    /* \"#utility.yul\":1507:1635   */\n  pop\n    /* \"#utility.yul\":1674:1676   */\n  0x20\n    /* \"#utility.yul\":1700:1764   */\n  tag_79\n    /* \"#utility.yul\":1756:1763   */\n  dup10\n    /* \"#utility.yul\":1747:1753   */\n  dup3\n    /* \"#utility.yul\":1736:1745   */\n  dup11\n    /* \"#utility.yul\":1732:1754   */\n  add\n    /* \"#utility.yul\":1700:1764   */\n  tag_43\n  jump\t// in\ntag_79:\n    /* \"#utility.yul\":1690:1764   */\n  swap6\n  pop\n    /* \"#utility.yul\":1645:1774   */\n  pop\n    /* \"#utility.yul\":1813:1815   */\n  0x40\n    /* \"#utility.yul\":1839:1903   */\n  tag_80\n    /* \"#utility.yul\":1895:1902   */\n  dup10\n    /* \"#utility.yul\":1886:1892   */\n  dup3\n    /* \"#utility.yul\":1875:1884   */\n  dup11\n    /* \"#utility.yul\":1871:1893   */\n  add\n    /* \"#utility.yul\":1839:1903   */\n  tag_43\n  jump\t// in\ntag_80:\n    /* \"#utility.yul\":1829:1903   */\n  swap5\n  pop\n    /* \"#utility.yul\":1784:1913   */\n  pop\n    /* \"#utility.yul\":1952:1954   */\n  0x60\n    /* \"#utility.yul\":1978:2042   */\n  tag_81\n    /* \"#utility.yul\":2034:2041   */\n  dup10\n    /* \"#utility.yul\":2025:2031   */\n  dup3\n    /* \"#utility.yul\":2014:2023   */\n  dup11\n    /* \"#utility.yul\":2010:2032   */\n  add\n    /* \"#utility.yul\":1978:2042   */\n  tag_43\n  jump\t// in\ntag_81:\n    /* \"#utility.yul\":1968:2042   */\n  swap4\n  pop\n    /* \"#utility.yul\":1923:2052   */\n  pop\n    /* \"#utility.yul\":2091:2094   */\n  0x80\n    /* \"#utility.yul\":2118:2182   */\n  tag_82\n    /* \"#utility.yul\":2174:2181   */\n  dup10\n    /* \"#utility.yul\":2165:2171   */\n  dup3\n    /* \"#utility.yul\":2154:2163   */\n  dup11\n    /* \"#utility.yul\":2150:2172   */\n  add\n    /* \"#utility.yul\":2118:2182   */\n  tag_43\n  jump\t// in\ntag_82:\n    /* \"#utility.yul\":2108:2182   */\n  swap3\n  pop\n    /* \"#utility.yul\":2062:2192   */\n  pop\n    /* \"#utility.yul\":2231:2234   */\n  0xa0\n    /* \"#utility.yul\":2258:2322   */\n  tag_83\n    /* \"#utility.yul\":2314:2321   */\n  dup10\n    /* \"#utility.yul\":2305:2311   */\n  dup3\n    /* \"#utility.yul\":2294:2303   */\n  dup11\n    /* \"#utility.yul\":2290:2312   */\n  add\n    /* \"#utility.yul\":2258:2322   */\n  tag_40\n  jump\t// in\ntag_83:\n    /* \"#utility.yul\":2248:2322   */\n  swap2\n  pop\n    /* \"#utility.yul\":2202:2332   */\n  pop\n    /* \"#utility.yul\":1205:2339   */\n  swap3\n  swap6\n  pop\n  swap3\n  swap6\n  pop\n  swap3\n  swap6\n  jump\t// out\n    /* \"#utility.yul\":2345:2463   */\ntag_44:\n    /* \"#utility.yul\":2432:2456   */\n  tag_85\n    /* \"#utility.yul\":2450:2455   */\n  dup2\n    /* \"#utility.yul\":2432:2456   */\n  tag_38\n  jump\t// in\ntag_85:\n    /* \"#utility.yul\":2427:2430   */\n  dup3\n    /* \"#utility.yul\":2420:2457   */\n  mstore\n    /* \"#utility.yul\":2345:2463   */\n  pop\n  pop\n  jump\t// out\n    /* \"#utility.yul\":2469:2691   */\ntag_10:\n    /* \"#utility.yul\":2562:2566   */\n  0x00\n    /* \"#utility.yul\":2600:2602   */\n  0x20\n    /* \"#utility.yul\":2589:2598   */\n  dup3\n    /* \"#utility.yul\":2585:2603   */\n  add\n    /* \"#utility.yul\":2577:2603   */\n  swap1\n  pop\n    /* \"#utility.yul\":2613:2684   */\n  tag_87\n    /* \"#utility.yul\":2681:2682   */\n  0x00\n    /* \"#utility.yul\":2670:2679   */\n  dup4\n    /* \"#utility.yul\":2666:2683   */\n  add\n    /* \"#utility.yul\":2657:2663   */\n  dup5\n    /* \"#utility.yul\":2613:2684   */\n  tag_44\n  jump\t// in\ntag_87:\n    /* \"#utility.yul\":2469:2691   */\n  swap3\n  swap2\n  pop\n  pop\n  jump\t// out\n    /* \"#utility.yul\":2697:2866   */\ntag_45:\n    /* \"#utility.yul\":2781:2792   */\n  0x00\n    /* \"#utility.yul\":2815:2821   */\n  dup3\n    /* \"#utility.yul\":2810:2813   */\n  dup3\n    /* \"#utility.yul\":2803:2822   */\n  mstore\n    /* \"#utility.yul\":2855:2859   */\n  0x20\n    /* \"#utility.yul\":2850:2853   */\n  dup3\n    /* \"#utility.yul\":2846:2860   */\n  add\n    /* \"#utility.yul\":2831:2860   */\n  swap1\n  pop\n    /* \"#utility.yul\":2697:2866   */\n  swap3\n  swap2\n  pop\n  pop\n  jump\t// out\n    /* \"#utility.yul\":2872:3035   */\ntag_46:\n    /* \"#utility.yul\":3012:3027   */\n  0x496e76616c696420746f6b656e00000000000000000000000000000000000000\n    /* \"#utility.yul\":3008:3009   */\n  0x00\n    /* \"#utility.yul\":3000:3006   */\n  dup3\n    /* \"#utility.yul\":2996:3010   */\n  add\n    /* \"#utility.yul\":2989:3028   */\n  mstore\n    /* \"#utility.yul\":2872:3035   */\n  pop\n  jump\t// out\n    /* \"#utility.yul\":3041:3407   */\ntag_47:\n    /* \"#utility.yul\":3183:3186   */\n  0x00\n    /* \"#utility.yul\":3204:3271   */\n  tag_91\n    /* \"#utility.yul\":3268:3270   */\n  0x0d\n    /* \"#utility.yul\":3263:3266   */\n  dup4\n    /* \"#utility.yul\":3204:3271   */\n  tag_45\n  jump\t// in\ntag_91:\n    /* \"#utility.yul\":3197:3271   */\n  swap2\n  pop\n    /* \"#utility.yul\":3280:3373   */\n  tag_92\n    /* \"#utility.yul\":3369:3372   */\n  dup3\n    /* \"#utility.yul\":3280:3373   */\n  tag_46\n  jump\t// in\ntag_92:\n    /* \"#utility.yul\":3398:3400   */\n  0x20\n    /* \"#utility.yul\":3393:3396   */\n  dup3\n    /* \"#utility.yul\":3389:3401   */\n  add\n    /* \"#utility.yul\":3382:3401   */\n  swap1\n  pop\n    /* \"#utility.yul\":3041:3407   */\n  swap2\n  swap1\n  pop\n  jump\t// out\n    /* \"#utility.yul\":3413:3832   */\ntag_17:\n    /* \"#utility.yul\":3579:3583   */\n  0x00\n    /* \"#utility.yul\":3617:3619   */\n  0x20\n    /* \"#utility.yul\":3606:3615   */\n  dup3\n    /* \"#utility.yul\":3602:3620   */\n  add\n    /* \"#utility.yul\":3594:3620   */\n  swap1\n  pop\n    /* \"#utility.yul\":3666:3675   */\n  dup2\n    /* \"#utility.yul\":3660:3664   */\n  dup2\n    /* \"#utility.yul\":3656:3676   */\n  sub\n    /* \"#utility.yul\":3652:3653   */\n  0x00\n    /* \"#utility.yul\":3641:3650   */\n  dup4\n    /* \"#utility.yul\":3637:3654   */\n  add\n    /* \"#utility.yul\":3630:3677   */\n  mstore\n    /* \"#utility.yul\":3694:3825   */\n  tag_94\n    /* \"#utility.yul\":3820:3824   */\n  dup2\n    /* \"#utility.yul\":3694:3825   */\n  tag_47\n  jump\t// in\ntag_94:\n    /* \"#utility.yul\":3686:3825   */\n  swap1\n  pop\n    /* \"#utility.yul\":3413:3832   */\n  swap2\n  swap1\n  pop\n  jump\t// out\n    /* \"#utility.yul\":3838:4012   */\ntag_48:\n    /* \"#utility.yul\":3978:4004   */\n  0x5374617274206d757374206265206265666f726520656e640000000000000000\n    /* \"#utility.yul\":3974:3975   */\n  0x00\n    /* \"#utility.yul\":3966:3972   */\n  dup3\n    /* \"#utility.yul\":3962:3976   */\n  add\n    /* \"#utility.yul\":3955:4005   */\n  mstore\n    /* \"#utility.yul\":3838:4012   */\n  pop\n  jump\t// out\n    /* \"#utility.yul\":4018:4384   */\ntag_49:\n    /* \"#utility.yul\":4160:4163   */\n  0x00\n    /* \"#utility.yul\":4181:4248   */\n  tag_97\n    /* \"#utility.yul\":4245:4247   */\n  0x18\n    /* \"#utility.yul\":4240:4243   */\n  dup4\n    /* \"#utility.yul\":4181:4248   */\n  tag_45\n  jump\t// in\ntag_97:\n    /* \"#utility.yul\":4174:4248   */\n  swap2\n  pop\n    /* \"#utility.yul\":4257:4350   */\n  tag_98\n    /* \"#utility.yul\":4346:4349   */\n  dup3\n    /* \"#utility.yul\":4257:4350   */\n  tag_48\n  jump\t// in\ntag_98:\n    /* \"#utility.yul\":4375:4377   */\n  0x20\n    /* \"#utility.yul\":4370:4373   */\n  dup3\n    /* \"#utility.yul\":4366:4378   */\n  add\n    /* \"#utility.yul\":4359:4378   */\n  swap1\n  pop\n    /* \"#utility.yul\":4018:4384   */\n  swap2\n  swap1\n  pop\n  jump\t// out\n    /* \"#utility.yul\":4390:4809   */\ntag_20:\n    /* \"#utility.yul\":4556:4560   */\n  0x00\n    /* \"#utility.yul\":4594:4596   */\n  0x20\n    /* \"#utility.yul\":4583:4592   */\n  dup3\n    /* \"#utility.yul\":4579:4597   */\n  add\n    /* \"#utility.yul\":4571:4597   */\n  swap1\n  pop\n    /* \"#utility.yul\":4643:4652   */\n  dup2\n    /* \"#utility.yul\":4637:4641   */\n  dup2\n    /* \"#utility.yul\":4633:4653   */\n  sub\n    /* \"#utility.yul\":4629:4630   */\n  0x00\n    /* \"#utility.yul\":4618:4627   */\n  dup4\n    /* \"#utility.yul\":4614:4631   */\n  add\n    /* \"#utility.yul\":4607:4654   */\n  mstore\n    /* \"#utility.yul\":4671:4802   */\n  tag_100\n    /* \"#utility.yul\":4797:4801   */\n  dup2\n    /* \"#utility.yul\":4671:4802   */\n  tag_49\n  jump\t// in\ntag_100:\n    /* \"#utility.yul\":4663:4802   */\n  swap1\n  pop\n    /* \"#utility.yul\":4390:4809   */\n  swap2\n  swap1\n  pop\n  jump\t// out\n    /* \"#utility.yul\":4815:4995   */\ntag_50:\n    /* \"#utility.yul\":4863:4940   */\n  0x4e487b7100000000000000000000000000000000000000000000000000000000\n    /* \"#utility.yul\":4860:4861   */\n  0x00\n    /* \"#utility.yul\":4853:4941   */\n  mstore\n    /* \"#utility.yul\":4960:4964   */\n  0x11\n    /* \"#utility.yul\":4957:4958   */\n  0x04\n    /* \"#utility.yul\":4950:4965   */\n  mstore\n    /* \"#utility.yul\":4984:4988   */\n  0x24\n    /* \"#utility.yul\":4981:4982   */\n  0x00\n    /* \"#utility.yul\":4974:4989   */\n  revert\n    /* \"#utility.yul\":5001:5195   */\ntag_22:\n    /* \"#utility.yul\":5041:5045   */\n  0x00\n    /* \"#utility.yul\":5061:5081   */\n  tag_103\n    /* \"#utility.yul\":5079:5080   */\n  dup3\n    /* \"#utility.yul\":5061:5081   */\n  tag_41\n  jump\t// in\ntag_103:\n    /* \"#utility.yul\":5056:5081   */\n  swap2\n  pop\n    /* \"#utility.yul\":5095:5115   */\n  tag_104\n    /* \"#utility.yul\":5113:5114   */\n  dup4\n    /* \"#utility.yul\":5095:5115   */\n  tag_41\n  jump\t// in\ntag_104:\n    /* \"#utility.yul\":5090:5115   */\n  swap3\n  pop\n    /* \"#utility.yul\":5139:5140   */\n  dup3\n    /* \"#utility.yul\":5136:5137   */\n  dup3\n    /* \"#utility.yul\":5132:5141   */\n  sub\n    /* \"#utility.yul\":5124:5141   */\n  swap1\n  pop\n    /* \"#utility.yul\":5163:5164   */\n  dup2\n    /* \"#utility.yul\":5157:5161   */\n  dup2\n    /* \"#utility.yul\":5154:5165   */\n  gt\n    /* \"#utility.yul\":5151:5188   */\n  iszero\n  tag_105\n  jumpi\n    /* \"#utility.yul\":5168:5186   */\n  tag_106\n  tag_50\n  jump\t// in\ntag_106:\n    /* \"#utility.yul\":5151:5188   */\ntag_105:\n    /* \"#utility.yul\":5001:5195   */\n  swap3\n  swap2\n  pop\n  pop\n  jump\t// out\n    /* \"#utility.yul\":5201:5367   */\ntag_51:\n    /* \"#utility.yul\":5341:5359   */\n  0x50726573616c6520746f6f206c6f6e6700000000000000000000000000000000\n    /* \"#utility.yul\":5337:5338   */\n  0x00\n    /* \"#utility.yul\":5329:5335   */\n  dup3\n    /* \"#utility.yul\":5325:5339   */\n  add\n    /* \"#utility.yul\":5318:5360   */\n  mstore\n    /* \"#utility.yul\":5201:5367   */\n  pop\n  jump\t// out\n    /* \"#utility.yul\":5373:5739   */\ntag_52:\n    /* \"#utility.yul\":5515:5518   */\n  0x00\n    /* \"#utility.yul\":5536:5603   */\n  tag_109\n    /* \"#utility.yul\":5600:5602   */\n  0x10\n    /* \"#utility.yul\":5595:5598   */\n  dup4\n    /* \"#utility.yul\":5536:5603   */\n  tag_45\n  jump\t// in\ntag_109:\n    /* \"#utility.yul\":5529:5603   */\n  swap2\n  pop\n    /* \"#utility.yul\":5612:5705   */\n  tag_110\n    /* \"#utility.yul\":5701:5704   */\n  dup3\n    /* \"#utility.yul\":5612:5705   */\n  tag_51\n  jump\t// in\ntag_110:\n    /* \"#utility.yul\":5730:5732   */\n  0x20\n    /* \"#utility.yul\":5725:5728   */\n  dup3\n    /* \"#utility.yul\":5721:5733   */\n  add\n    /* \"#utility.yul\":5714:5733   */\n  swap1\n  pop\n    /* \"#utility.yul\":5373:5739   */\n  swap2\n  swap1\n  pop\n  jump\t// out\n    /* \"#utility.yul\":5745:6164   */\ntag_25:\n    /* \"#utility.yul\":5911:5915   */\n  0x00\n    /* \"#utility.yul\":5949:5951   */\n  0x20\n    /* \"#utility.yul\":5938:5947   */\n  dup3\n    /* \"#utility.yul\":5934:5952   */\n  add\n    /* \"#utility.yul\":5926:5952   */\n  swap1\n  pop\n    /* \"#utility.yul\":5998:6007   */\n  dup2\n    /* \"#utility.yul\":5992:5996   */\n  dup2\n    /* \"#utility.yul\":5988:6008   */\n  sub\n    /* \"#utility.yul\":5984:5985   */\n  0x00\n    /* \"#utility.yul\":5973:5982   */\n  dup4\n    /* \"#utility.yul\":5969:5986   */\n  add\n    /* \"#utility.yul\":5962:6009   */\n  mstore\n    /* \"#utility.yul\":6026:6157   */\n  tag_112\n    /* \"#utility.yul\":6152:6156   */\n  dup2\n    /* \"#utility.yul\":6026:6157   */\n  tag_52\n  jump\t// in\ntag_112:\n    /* \"#utility.yul\":6018:6157   */\n  swap1\n  pop\n    /* \"#utility.yul\":5745:6164   */\n  swap2\n  swap1\n  pop\n  jump\t// out\n    /* \"#utility.yul\":6170:6333   */\ntag_53:\n    /* \"#utility.yul\":6310:6325   */\n  0x496e76616c696420707269636500000000000000000000000000000000000000\n    /* \"#utility.yul\":6306:6307   */\n  0x00\n    /* \"#utility.yul\":6298:6304   */\n  dup3\n    /* \"#utility.yul\":6294:6308   */\n  add\n    /* \"#utility.yul\":6287:6326   */\n  mstore\n    /* \"#utility.yul\":6170:6333   */\n  pop\n  jump\t// out\n    /* \"#utility.yul\":6339:6705   */\ntag_54:\n    /* \"#utility.yul\":6481:6484   */\n  0x00\n    /* \"#utility.yul\":6502:6569   */\n  tag_115\n    /* \"#utility.yul\":6566:6568   */\n  0x0d\n    /* \"#utility.yul\":6561:6564   */\n  dup4\n    /* \"#utility.yul\":6502:6569   */\n  tag_45\n  jump\t// in\ntag_115:\n    /* \"#utility.yul\":6495:6569   */\n  swap2\n  pop\n    /* \"#utility.yul\":6578:6671   */\n  tag_116\n    /* \"#utility.yul\":6667:6670   */\n  dup3\n    /* \"#utility.yul\":6578:6671   */\n  tag_53\n  jump\t// in\ntag_116:\n    /* \"#utility.yul\":6696:6698   */\n  0x20\n    /* \"#utility.yul\":6691:6694   */\n  dup3\n    /* \"#utility.yul\":6687:6699   */\n  add\n    /* \"#utility.yul\":6680:6699   */\n  swap1\n  pop\n    /* \"#utility.yul\":6339:6705   */\n  swap2\n  swap1\n  pop\n  jump\t// out\n    /* \"#utility.yul\":6711:7130   */\ntag_28:\n    /* \"#utility.yul\":6877:6881   */\n  0x00\n    /* \"#utility.yul\":6915:6917   */\n  0x20\n    /* \"#utility.yul\":6904:6913   */\n  dup3\n    /* \"#utility.yul\":6900:6918   */\n  add\n    /* \"#utility.yul\":6892:6918   */\n  swap1\n  pop\n    /* \"#utility.yul\":6964:6973   */\n  dup2\n    /* \"#utility.yul\":6958:6962   */\n  dup2\n    /* \"#utility.yul\":6954:6974   */\n  sub\n    /* \"#utility.yul\":6950:6951   */\n  0x00\n    /* \"#utility.yul\":6939:6948   */\n  dup4\n    /* \"#utility.yul\":6935:6952   */\n  add\n    /* \"#utility.yul\":6928:6975   */\n  mstore\n    /* \"#utility.yul\":6992:7123   */\n  tag_118\n    /* \"#utility.yul\":7118:7122   */\n  dup2\n    /* \"#utility.yul\":6992:7123   */\n  tag_54\n  jump\t// in\ntag_118:\n    /* \"#utility.yul\":6984:7123   */\n  swap1\n  pop\n    /* \"#utility.yul\":6711:7130   */\n  swap2\n  swap1\n  pop\n  jump\t// out\n    /* \"#utility.yul\":7136:7301   */\ntag_55:\n    /* \"#utility.yul\":7276:7293   */\n  0x496e76616c696420686172646361700000000000000000000000000000000000\n    /* \"#utility.yul\":7272:7273   */\n  0x00\n    /* \"#utility.yul\":7264:7270   */\n  dup3\n    /* \"#utility.yul\":7260:7274   */\n  add\n    /* \"#utility.yul\":7253:7294   */\n  mstore\n    /* \"#utility.yul\":7136:7301   */\n  pop\n  jump\t// out\n    /* \"#utility.yul\":7307:7673   */\ntag_56:\n    /* \"#utility.yul\":7449:7452   */\n  0x00\n    /* \"#utility.yul\":7470:7537   */\n  tag_121\n    /* \"#utility.yul\":7534:7536   */\n  0x0f\n    /* \"#utility.yul\":7529:7532   */\n  dup4\n    /* \"#utility.yul\":7470:7537   */\n  tag_45\n  jump\t// in\ntag_121:\n    /* \"#utility.yul\":7463:7537   */\n  swap2\n  pop\n    /* \"#utility.yul\":7546:7639   */\n  tag_122\n    /* \"#utility.yul\":7635:7638   */\n  dup3\n    /* \"#utility.yul\":7546:7639   */\n  tag_55\n  jump\t// in\ntag_122:\n    /* \"#utility.yul\":7664:7666   */\n  0x20\n    /* \"#utility.yul\":7659:7662   */\n  dup3\n    /* \"#utility.yul\":7655:7667   */\n  add\n    /* \"#utility.yul\":7648:7667   */\n  swap1\n  pop\n    /* \"#utility.yul\":7307:7673   */\n  swap2\n  swap1\n  pop\n  jump\t// out\n    /* \"#utility.yul\":7679:8098   */\ntag_31:\n    /* \"#utility.yul\":7845:7849   */\n  0x00\n    /* \"#utility.yul\":7883:7885   */\n  0x20\n    /* \"#utility.yul\":7872:7881   */\n  dup3\n    /* \"#utility.yul\":7868:7886   */\n  add\n    /* \"#utility.yul\":7860:7886   */\n  swap1\n  pop\n    /* \"#utility.yul\":7932:7941   */\n  dup2\n    /* \"#utility.yul\":7926:7930   */\n  dup2\n    /* \"#utility.yul\":7922:7942   */\n  sub\n    /* \"#utility.yul\":7918:7919   */\n  0x00\n    /* \"#utility.yul\":7907:7916   */\n  dup4\n    /* \"#utility.yul\":7903:7920   */\n  add\n    /* \"#utility.yul\":7896:7943   */\n  mstore\n    /* \"#utility.yul\":7960:8091   */\n  tag_124\n    /* \"#utility.yul\":8086:8090   */\n  dup2\n    /* \"#utility.yul\":7960:8091   */\n  tag_56\n  jump\t// in\ntag_124:\n    /* \"#utility.yul\":7952:8091   */\n  swap1\n  pop\n    /* \"#utility.yul\":7679:8098   */\n  swap2\n  swap1\n  pop\n  jump\t// out\n    /* \"AlienPresale.sol\":298:3723  contract AlienPresale is Ownable, ReentrancyGuard {... */\ntag_32:\n  dataSize(sub_0)\n  dup1\n  dataOffset(sub_0)\n  0x00\n  codecopy\n  0x00\n  return\nstop\n\nsub_0: assembly {\n        /* \"AlienPresale.sol\":298:3723  contract AlienPresale is Ownable, ReentrancyGuard {... */\n      mstore(0x40, 0x80)\n      jumpi(tag_1, lt(calldatasize, 0x04))\n      shr(0xe0, calldataload(0x00))\n      dup1\n      0x84d24226\n      gt\n      tag_21\n      jumpi\n      dup1\n      0xd7299ef7\n      gt\n      tag_22\n      jumpi\n      dup1\n      0xd7299ef7\n      eq\n      tag_16\n      jumpi\n      dup1\n      0xd744b702\n      eq\n      tag_17\n      jumpi\n      dup1\n      0xdb2e21bc\n      eq\n      tag_18\n      jumpi\n      dup1\n      0xf2fde38b\n      eq\n      tag_19\n      jumpi\n      dup1\n      0xfb86a404\n      eq\n      tag_20\n      jumpi\n      jump(tag_1)\n    tag_22:\n      dup1\n      0x84d24226\n      eq\n      tag_11\n      jumpi\n      dup1\n      0x8da5cb5b\n      eq\n      tag_12\n      jumpi\n      dup1\n      0xc5c4744c\n      eq\n      tag_13\n      jumpi\n      dup1\n      0xc8bdbfb6\n      eq\n      tag_14\n      jumpi\n      dup1\n      0xd0febe4c\n      eq\n      tag_15\n      jumpi\n      jump(tag_1)\n    tag_21:\n      dup1\n      0x48c54b9d\n      gt\n      tag_23\n      jumpi\n      dup1\n      0x48c54b9d\n      eq\n      tag_6\n      jumpi\n      dup1\n      0x5c975abb\n      eq\n      tag_7\n      jumpi\n      dup1\n      0x715018a6\n      eq\n      tag_8\n      jumpi\n      dup1\n      0x78e97925\n      eq\n      tag_9\n      jumpi\n      dup1\n      0x7ff9b596\n      eq\n      tag_10\n      jumpi\n      jump(tag_1)\n    tag_23:\n      dup1\n      0x1958e58a\n      eq\n      tag_2\n      jumpi\n      dup1\n      0x24600fc3\n      eq\n      tag_3\n      jumpi\n      dup1\n      0x3197cbb6\n      eq\n      tag_4\n      jumpi\n      dup1\n      0x42e94c90\n      eq\n      tag_5\n      jumpi\n    tag_1:\n      0x00\n      dup1\n      revert\n        /* \"AlienPresale.sol\":387:411  IERC20 public alienToken */\n    tag_2:\n      callvalue\n      dup1\n      iszero\n      tag_24\n      jumpi\n      0x00\n      dup1\n      revert\n    tag_24:\n      pop\n      tag_25\n      tag_26\n      jump\t// in\n    tag_25:\n      mload(0x40)\n      tag_27\n      swap2\n      swap1\n      tag_28\n      jump\t// in\n    tag_27:\n      mload(0x40)\n      dup1\n      swap2\n      sub\n      swap1\n      return\n        /* \"AlienPresale.sol\":2842:2984  function withdrawFunds() external onlyOwner {... */\n    tag_3:\n      callvalue\n      dup1\n      iszero\n      tag_29\n      jumpi\n      0x00\n      dup1\n      revert\n    tag_29:\n      pop\n      tag_30\n      tag_31\n      jump\t// in\n    tag_30:\n      stop\n        /* \"AlienPresale.sol\":551:573  uint256 public endTime */\n    tag_4:\n      callvalue\n      dup1\n      iszero\n      tag_32\n      jumpi\n      0x00\n      dup1\n      revert\n    tag_32:\n      pop\n      tag_33\n      tag_34\n      jump\t// in\n    tag_33:\n      mload(0x40)\n      tag_35\n      swap2\n      swap1\n      tag_36\n      jump\t// in\n    tag_35:\n      mload(0x40)\n      dup1\n      swap2\n      sub\n      swap1\n      return\n        /* \"AlienPresale.sol\":814:862  mapping(address => uint256) public contributions */\n    tag_5:\n      callvalue\n      dup1\n      iszero\n      tag_37\n      jumpi\n      0x00\n      dup1\n      revert\n    tag_37:\n      pop\n      tag_38\n      0x04\n      dup1\n      calldatasize\n      sub\n      dup2\n      add\n      swap1\n      tag_39\n      swap2\n      swap1\n      tag_40\n      jump\t// in\n    tag_39:\n      tag_41\n      jump\t// in\n    tag_38:\n      mload(0x40)\n      tag_42\n      swap2\n      swap1\n      tag_36\n      jump\t// in\n    tag_42:\n      mload(0x40)\n      dup1\n      swap2\n      sub\n      swap1\n      return\n        /* \"AlienPresale.sol\":2537:2836  function claimTokens() external nonReentrant {... */\n    tag_6:\n      callvalue\n      dup1\n      iszero\n      tag_43\n      jumpi\n      0x00\n      dup1\n      revert\n    tag_43:\n      pop\n      tag_44\n      tag_45\n      jump\t// in\n    tag_44:\n      stop\n        /* \"AlienPresale.sol\":697:715  bool public paused */\n    tag_7:\n      callvalue\n      dup1\n      iszero\n      tag_46\n      jumpi\n      0x00\n      dup1\n      revert\n    tag_46:\n      pop\n      tag_47\n      tag_48\n      jump\t// in\n    tag_47:\n      mload(0x40)\n      tag_49\n      swap2\n      swap1\n      tag_50\n      jump\t// in\n    tag_49:\n      mload(0x40)\n      dup1\n      swap2\n      sub\n      swap1\n      return\n        /* \"@openzeppelin/contracts/access/Ownable.sol\":2293:2394  function renounceOwnership() public virtual onlyOwner {... */\n    tag_8:\n      callvalue\n      dup1\n      iszero\n      tag_51\n      jumpi\n      0x00\n      dup1\n      revert\n    tag_51:\n      pop\n      tag_52\n      tag_53\n      jump\t// in\n    tag_52:\n      stop\n        /* \"AlienPresale.sol\":521:545  uint256 public startTime */\n    tag_9:\n      callvalue\n      dup1\n      iszero\n      tag_54\n      jumpi\n      0x00\n      dup1\n      revert\n    tag_54:\n      pop\n      tag_55\n      tag_56\n      jump\t// in\n    tag_55:\n      mload(0x40)\n      tag_57\n      swap2\n      swap1\n      tag_36\n      jump\t// in\n    tag_57:\n      mload(0x40)\n      dup1\n      swap2\n      sub\n      swap1\n      return\n        /* \"AlienPresale.sol\":417:442  uint256 public tokenPrice */\n    tag_10:\n      callvalue\n      dup1\n      iszero\n      tag_58\n      jumpi\n      0x00\n      dup1\n      revert\n    tag_58:\n      pop\n      tag_59\n      tag_60\n      jump\t// in\n    tag_59:\n      mload(0x40)\n      tag_61\n      swap2\n      swap1\n      tag_36\n      jump\t// in\n    tag_61:\n      mload(0x40)\n      dup1\n      swap2\n      sub\n      swap1\n      return\n        /* \"AlienPresale.sol\":868:918  mapping(address => uint256) public claimableTokens */\n    tag_11:\n      callvalue\n      dup1\n      iszero\n      tag_62\n      jumpi\n      0x00\n      dup1\n      revert\n    tag_62:\n      pop\n      tag_63\n      0x04\n      dup1\n      calldatasize\n      sub\n      dup2\n      add\n      swap1\n      tag_64\n      swap2\n      swap1\n      tag_40\n      jump\t// in\n    tag_64:\n      tag_65\n      jump\t// in\n    tag_63:\n      mload(0x40)\n      tag_66\n      swap2\n      swap1\n      tag_36\n      jump\t// in\n    tag_66:\n      mload(0x40)\n      dup1\n      swap2\n      sub\n      swap1\n      return\n        /* \"@openzeppelin/contracts/access/Ownable.sol\":1638:1723  function owner() public view virtual returns (address) {... */\n    tag_12:\n      callvalue\n      dup1\n      iszero\n      tag_67\n      jumpi\n      0x00\n      dup1\n      revert\n    tag_67:\n      pop\n      tag_68\n      tag_69\n      jump\t// in\n    tag_68:\n      mload(0x40)\n      tag_70\n      swap2\n      swap1\n      tag_71\n      jump\t// in\n    tag_70:\n      mload(0x40)\n      dup1\n      swap2\n      sub\n      swap1\n      return\n        /* \"AlienPresale.sol\":664:690  uint256 public totalRaised */\n    tag_13:\n      callvalue\n      dup1\n      iszero\n      tag_72\n      jumpi\n      0x00\n      dup1\n      revert\n    tag_72:\n      pop\n      tag_73\n      tag_74\n      jump\t// in\n    tag_73:\n      mload(0x40)\n      tag_75\n      swap2\n      swap1\n      tag_36\n      jump\t// in\n    tag_75:\n      mload(0x40)\n      dup1\n      swap2\n      sub\n      swap1\n      return\n        /* \"AlienPresale.sol\":2990:3205  function withdrawUnsoldTokens() external onlyOwner {... */\n    tag_14:\n      callvalue\n      dup1\n      iszero\n      tag_76\n      jumpi\n      0x00\n      dup1\n      revert\n    tag_76:\n      pop\n      tag_77\n      tag_78\n      jump\t// in\n    tag_77:\n      stop\n        /* \"AlienPresale.sol\":2093:2531  function buyTokens() external payable nonReentrant saleActive {... */\n    tag_15:\n      tag_79\n      tag_80\n      jump\t// in\n    tag_79:\n      stop\n        /* \"AlienPresale.sol\":3211:3336  function pausePresale(bool _status) external onlyOwner {... */\n    tag_16:\n      callvalue\n      dup1\n      iszero\n      tag_81\n      jumpi\n      0x00\n      dup1\n      revert\n    tag_81:\n      pop\n      tag_82\n      0x04\n      dup1\n      calldatasize\n      sub\n      dup2\n      add\n      swap1\n      tag_83\n      swap2\n      swap1\n      tag_84\n      jump\t// in\n    tag_83:\n      tag_85\n      jump\t// in\n    tag_82:\n      stop\n        /* \"AlienPresale.sol\":721:775  uint256 public constant MAX_PRESALE_DURATION = 30 days */\n    tag_17:\n      callvalue\n      dup1\n      iszero\n      tag_86\n      jumpi\n      0x00\n      dup1\n      revert\n    tag_86:\n      pop\n      tag_87\n      tag_88\n      jump\t// in\n    tag_87:\n      mload(0x40)\n      tag_89\n      swap2\n      swap1\n      tag_36\n      jump\t// in\n    tag_89:\n      mload(0x40)\n      dup1\n      swap2\n      sub\n      swap1\n      return\n        /* \"AlienPresale.sol\":3342:3721  function emergencyWithdraw() external nonReentrant {... */\n    tag_18:\n      callvalue\n      dup1\n      iszero\n      tag_90\n      jumpi\n      0x00\n      dup1\n      revert\n    tag_90:\n      pop\n      tag_91\n      tag_92\n      jump\t// in\n    tag_91:\n      stop\n        /* \"@openzeppelin/contracts/access/Ownable.sol\":2543:2758  function transferOwnership(address newOwner) public virtual onlyOwner {... */\n    tag_19:\n      callvalue\n      dup1\n      iszero\n      tag_93\n      jumpi\n      0x00\n      dup1\n      revert\n    tag_93:\n      pop\n      tag_94\n      0x04\n      dup1\n      calldatasize\n      sub\n      dup2\n      add\n      swap1\n      tag_95\n      swap2\n      swap1\n      tag_40\n      jump\t// in\n    tag_95:\n      tag_96\n      jump\t// in\n    tag_94:\n      stop\n        /* \"AlienPresale.sol\":579:601  uint256 public hardCap */\n    tag_20:\n      callvalue\n      dup1\n      iszero\n      tag_97\n      jumpi\n      0x00\n      dup1\n      revert\n    tag_97:\n      pop\n      tag_98\n      tag_99\n      jump\t// in\n    tag_98:\n      mload(0x40)\n      tag_100\n      swap2\n      swap1\n      tag_36\n      jump\t// in\n    tag_100:\n      mload(0x40)\n      dup1\n      swap2\n      sub\n      swap1\n      return\n        /* \"AlienPresale.sol\":387:411  IERC20 public alienToken */\n    tag_26:\n      0x02\n      0x00\n      swap1\n      sload\n      swap1\n      0x0100\n      exp\n      swap1\n      div\n      0xffffffffffffffffffffffffffffffffffffffff\n      and\n      dup2\n      jump\t// out\n        /* \"AlienPresale.sol\":2842:2984  function withdrawFunds() external onlyOwner {... */\n    tag_31:\n        /* \"@openzeppelin/contracts/access/Ownable.sol\":1531:1544  _checkOwner() */\n      tag_102\n        /* \"@openzeppelin/contracts/access/Ownable.sol\":1531:1542  _checkOwner */\n      tag_103\n        /* \"@openzeppelin/contracts/access/Ownable.sol\":1531:1544  _checkOwner() */\n      jump\t// in\n    tag_102:\n        /* \"AlienPresale.sol\":2896:2910  uint256 amount */\n      0x00\n        /* \"AlienPresale.sol\":2913:2934  address(this).balance */\n      selfbalance\n        /* \"AlienPresale.sol\":2896:2934  uint256 amount = address(this).balance */\n      swap1\n      pop\n        /* \"AlienPresale.sol\":2952:2959  owner() */\n      tag_105\n        /* \"AlienPresale.sol\":2952:2957  owner */\n      tag_69\n        /* \"AlienPresale.sol\":2952:2959  owner() */\n      jump\t// in\n    tag_105:\n        /* \"AlienPresale.sol\":2944:2969  payable(owner()).transfer */\n      0xffffffffffffffffffffffffffffffffffffffff\n      and\n        /* \"AlienPresale.sol\":2944:2977  payable(owner()).transfer(amount) */\n      0x08fc\n        /* \"AlienPresale.sol\":2970:2976  amount */\n      dup3\n        /* \"AlienPresale.sol\":2944:2977  payable(owner()).transfer(amount) */\n      swap1\n      dup2\n      iszero\n      mul\n      swap1\n      mload(0x40)\n      0x00\n      mload(0x40)\n      dup1\n      dup4\n      sub\n      dup2\n      dup6\n      dup9\n      dup9\n      call\n      swap4\n      pop\n      pop\n      pop\n      pop\n      iszero\n      dup1\n      iszero\n      tag_107\n      jumpi\n      returndatasize\n      0x00\n      dup1\n      returndatacopy\n      revert(0x00, returndatasize)\n    tag_107:\n      pop\n        /* \"AlienPresale.sol\":2886:2984  {... */\n      pop\n        /* \"AlienPresale.sol\":2842:2984  function withdrawFunds() external onlyOwner {... */\n      jump\t// out\n        /* \"AlienPresale.sol\":551:573  uint256 public endTime */\n    tag_34:\n      sload(0x05)\n      dup2\n      jump\t// out\n        /* \"AlienPresale.sol\":814:862  mapping(address => uint256) public contributions */\n    tag_41:\n      mstore(0x20, 0x09)\n      dup1\n      0x00\n      mstore\n      keccak256(0x00, 0x40)\n      0x00\n      swap2\n      pop\n      swap1\n      pop\n      sload\n      dup2\n      jump\t// out\n        /* \"AlienPresale.sol\":2537:2836  function claimTokens() external nonReentrant {... */\n    tag_45:\n        /* \"@openzeppelin/contracts/security/ReentrancyGuard.sol\":2261:2282  _nonReentrantBefore() */\n      tag_109\n        /* \"@openzeppelin/contracts/security/ReentrancyGuard.sol\":2261:2280  _nonReentrantBefore */\n      tag_110\n        /* \"@openzeppelin/contracts/security/ReentrancyGuard.sol\":2261:2282  _nonReentrantBefore() */\n      jump\t// in\n    tag_109:\n        /* \"AlienPresale.sol\":2592:2606  uint256 tokens */\n      0x00\n        /* \"AlienPresale.sol\":2609:2624  claimableTokens */\n      0x0a\n        /* \"AlienPresale.sol\":2609:2636  claimableTokens[msg.sender] */\n      0x00\n        /* \"AlienPresale.sol\":2625:2635  msg.sender */\n      caller\n        /* \"AlienPresale.sol\":2609:2636  claimableTokens[msg.sender] */\n      0xffffffffffffffffffffffffffffffffffffffff\n      and\n      0xffffffffffffffffffffffffffffffffffffffff\n      and\n      dup2\n      mstore\n      0x20\n      add\n      swap1\n      dup2\n      mstore\n      0x20\n      add\n      0x00\n      keccak256\n      sload\n        /* \"AlienPresale.sol\":2592:2636  uint256 tokens = claimableTokens[msg.sender] */\n      swap1\n      pop\n        /* \"AlienPresale.sol\":2663:2664  0 */\n      0x00\n        /* \"AlienPresale.sol\":2654:2660  tokens */\n      dup2\n        /* \"AlienPresale.sol\":2654:2664  tokens > 0 */\n      gt\n        /* \"AlienPresale.sol\":2646:2685  require(tokens > 0, \"Nothing to claim\") */\n      tag_112\n      jumpi\n      mload(0x40)\n      0x08c379a000000000000000000000000000000000000000000000000000000000\n      dup2\n      mstore\n      0x04\n      add\n      tag_113\n      swap1\n      tag_114\n      jump\t// in\n    tag_113:\n      mload(0x40)\n      dup1\n      swap2\n      sub\n      swap1\n      revert\n    tag_112:\n        /* \"AlienPresale.sol\":2726:2727  0 */\n      0x00\n        /* \"AlienPresale.sol\":2696:2711  claimableTokens */\n      0x0a\n        /* \"AlienPresale.sol\":2696:2723  claimableTokens[msg.sender] */\n      0x00\n        /* \"AlienPresale.sol\":2712:2722  msg.sender */\n      caller\n        /* \"AlienPresale.sol\":2696:2723  claimableTokens[msg.sender] */\n      0xffffffffffffffffffffffffffffffffffffffff\n      and\n      0xffffffffffffffffffffffffffffffffffffffff\n      and\n      dup2\n      mstore\n      0x20\n      add\n      swap1\n      dup2\n      mstore\n      0x20\n      add\n      0x00\n      keccak256\n        /* \"AlienPresale.sol\":2696:2727  claimableTokens[msg.sender] = 0 */\n      dup2\n      swap1\n      sstore\n      pop\n        /* \"AlienPresale.sol\":2737:2780  alienToken.safeTransfer(msg.sender, tokens) */\n      tag_115\n        /* \"AlienPresale.sol\":2761:2771  msg.sender */\n      caller\n        /* \"AlienPresale.sol\":2773:2779  tokens */\n      dup3\n        /* \"AlienPresale.sol\":2737:2747  alienToken */\n      0x02\n      0x00\n      swap1\n      sload\n      swap1\n      0x0100\n      exp\n      swap1\n      div\n      0xffffffffffffffffffffffffffffffffffffffff\n      and\n        /* \"AlienPresale.sol\":2737:2760  alienToken.safeTransfer */\n      0xffffffffffffffffffffffffffffffffffffffff\n      and\n      tag_116\n      swap1\n        /* \"AlienPresale.sol\":2737:2780  alienToken.safeTransfer(msg.sender, tokens) */\n      swap3\n      swap2\n      swap1\n      0xffffffff\n      and\n      jump\t// in\n    tag_115:\n        /* \"AlienPresale.sol\":2810:2820  msg.sender */\n      caller\n        /* \"AlienPresale.sol\":2796:2829  TokensClaimed(msg.sender, tokens) */\n      0xffffffffffffffffffffffffffffffffffffffff\n      and\n      0x896e034966eaaf1adc54acc0f257056febbd300c9e47182cf761982cf1f5e430\n        /* \"AlienPresale.sol\":2822:2828  tokens */\n      dup3\n        /* \"AlienPresale.sol\":2796:2829  TokensClaimed(msg.sender, tokens) */\n      mload(0x40)\n      tag_117\n      swap2\n      swap1\n      tag_36\n      jump\t// in\n    tag_117:\n      mload(0x40)\n      dup1\n      swap2\n      sub\n      swap1\n      log2\n        /* \"AlienPresale.sol\":2582:2836  {... */\n      pop\n        /* \"@openzeppelin/contracts/security/ReentrancyGuard.sol\":2303:2323  _nonReentrantAfter() */\n      tag_118\n        /* \"@openzeppelin/contracts/security/ReentrancyGuard.sol\":2303:2321  _nonReentrantAfter */\n      tag_119\n        /* \"@openzeppelin/contracts/security/ReentrancyGuard.sol\":2303:2323  _nonReentrantAfter() */\n      jump\t// in\n    tag_118:\n        /* \"AlienPresale.sol\":2537:2836  function claimTokens() external nonReentrant {... */\n      jump\t// out\n        /* \"AlienPresale.sol\":697:715  bool public paused */\n    tag_48:\n      0x08\n      0x00\n      swap1\n      sload\n      swap1\n      0x0100\n      exp\n      swap1\n      div\n      0xff\n      and\n      dup2\n      jump\t// out\n        /* \"@openzeppelin/contracts/access/Ownable.sol\":2293:2394  function renounceOwnership() public virtual onlyOwner {... */\n    tag_53:\n        /* \"@openzeppelin/contracts/access/Ownable.sol\":1531:1544  _checkOwner() */\n      tag_121\n        /* \"@openzeppelin/contracts/access/Ownable.sol\":1531:1542  _checkOwner */\n      tag_103\n        /* \"@openzeppelin/contracts/access/Ownable.sol\":1531:1544  _checkOwner() */\n      jump\t// in\n    tag_121:\n        /* \"@openzeppelin/contracts/access/Ownable.sol\":2357:2387  _transferOwnership(address(0)) */\n      tag_123\n        /* \"@openzeppelin/contracts/access/Ownable.sol\":2384:2385  0 */\n      0x00\n        /* \"@openzeppelin/contracts/access/Ownable.sol\":2357:2375  _transferOwnership */\n      tag_124\n        /* \"@openzeppelin/contracts/access/Ownable.sol\":2357:2387  _transferOwnership(address(0)) */\n      jump\t// in\n    tag_123:\n        /* \"@openzeppelin/contracts/access/Ownable.sol\":2293:2394  function renounceOwnership() public virtual onlyOwner {... */\n      jump\t// out\n        /* \"AlienPresale.sol\":521:545  uint256 public startTime */\n    tag_56:\n      sload(0x04)\n      dup2\n      jump\t// out\n        /* \"AlienPresale.sol\":417:442  uint256 public tokenPrice */\n    tag_60:\n      sload(0x03)\n      dup2\n      jump\t// out\n        /* \"AlienPresale.sol\":868:918  mapping(address => uint256) public claimableTokens */\n    tag_65:\n      mstore(0x20, 0x0a)\n      dup1\n      0x00\n      mstore\n      keccak256(0x00, 0x40)\n      0x00\n      swap2\n      pop\n      swap1\n      pop\n      sload\n      dup2\n      jump\t// out\n        /* \"@openzeppelin/contracts/access/Ownable.sol\":1638:1723  function owner() public view virtual returns (address) {... */\n    tag_69:\n        /* \"@openzeppelin/contracts/access/Ownable.sol\":1684:1691  address */\n      0x00\n        /* \"@openzeppelin/contracts/access/Ownable.sol\":1710:1716  _owner */\n      dup1\n      0x00\n      swap1\n      sload\n      swap1\n      0x0100\n      exp\n      swap1\n      div\n      0xffffffffffffffffffffffffffffffffffffffff\n      and\n        /* \"@openzeppelin/contracts/access/Ownable.sol\":1703:1716  return _owner */\n      swap1\n      pop\n        /* \"@openzeppelin/contracts/access/Ownable.sol\":1638:1723  function owner() public view virtual returns (address) {... */\n      swap1\n      jump\t// out\n        /* \"AlienPresale.sol\":664:690  uint256 public totalRaised */\n    tag_74:\n      sload(0x07)\n      dup2\n      jump\t// out\n        /* \"AlienPresale.sol\":2990:3205  function withdrawUnsoldTokens() external onlyOwner {... */\n    tag_78:\n        /* \"@openzeppelin/contracts/access/Ownable.sol\":1531:1544  _checkOwner() */\n      tag_127\n        /* \"@openzeppelin/contracts/access/Ownable.sol\":1531:1542  _checkOwner */\n      tag_103\n        /* \"@openzeppelin/contracts/access/Ownable.sol\":1531:1544  _checkOwner() */\n      jump\t// in\n    tag_127:\n        /* \"AlienPresale.sol\":3051:3066  uint256 balance */\n      0x00\n        /* \"AlienPresale.sol\":3069:3079  alienToken */\n      0x02\n      0x00\n      swap1\n      sload\n      swap1\n      0x0100\n      exp\n      swap1\n      div\n      0xffffffffffffffffffffffffffffffffffffffff\n      and\n        /* \"AlienPresale.sol\":3069:3089  alienToken.balanceOf */\n      0xffffffffffffffffffffffffffffffffffffffff\n      and\n      0x70a08231\n        /* \"AlienPresale.sol\":3098:3102  this */\n      address\n        /* \"AlienPresale.sol\":3069:3104  alienToken.balanceOf(address(this)) */\n      mload(0x40)\n      dup3\n      0xffffffff\n      and\n      0xe0\n      shl\n      dup2\n      mstore\n      0x04\n      add\n      tag_129\n      swap2\n      swap1\n      tag_71\n      jump\t// in\n    tag_129:\n      0x20\n      mload(0x40)\n      dup1\n      dup4\n      sub\n      dup2\n      dup7\n      gas\n      staticcall\n      iszero\n      dup1\n      iszero\n      tag_131\n      jumpi\n      returndatasize\n      0x00\n      dup1\n      returndatacopy\n      revert(0x00, returndatasize)\n    tag_131:\n      pop\n      pop\n      pop\n      pop\n      mload(0x40)\n      returndatasize\n      not(0x1f)\n      0x1f\n      dup3\n      add\n      and\n      dup3\n      add\n      dup1\n      0x40\n      mstore\n      pop\n      dup2\n      add\n      swap1\n      tag_132\n      swap2\n      swap1\n      tag_133\n      jump\t// in\n    tag_132:\n        /* \"AlienPresale.sol\":3051:3104  uint256 balance = alienToken.balanceOf(address(this)) */\n      swap1\n      pop\n        /* \"AlienPresale.sol\":3132:3133  0 */\n      0x00\n        /* \"AlienPresale.sol\":3122:3129  balance */\n      dup2\n        /* \"AlienPresale.sol\":3122:3133  balance > 0 */\n      gt\n        /* \"AlienPresale.sol\":3114:3147  require(balance > 0, \"No tokens\") */\n      tag_134\n      jumpi\n      mload(0x40)\n      0x08c379a000000000000000000000000000000000000000000000000000000000\n      dup2\n      mstore\n      0x04\n      add\n      tag_135\n      swap1\n      tag_136\n      jump\t// in\n    tag_135:\n      mload(0x40)\n      dup1\n      swap2\n      sub\n      swap1\n      revert\n    tag_134:\n        /* \"AlienPresale.sol\":3157:3198  alienToken.safeTransfer(owner(), balance) */\n      tag_137\n        /* \"AlienPresale.sol\":3181:3188  owner() */\n      tag_138\n        /* \"AlienPresale.sol\":3181:3186  owner */\n      tag_69\n        /* \"AlienPresale.sol\":3181:3188  owner() */\n      jump\t// in\n    tag_138:\n        /* \"AlienPresale.sol\":3190:3197  balance */\n      dup3\n        /* \"AlienPresale.sol\":3157:3167  alienToken */\n      0x02\n      0x00\n      swap1\n      sload\n      swap1\n      0x0100\n      exp\n      swap1\n      div\n      0xffffffffffffffffffffffffffffffffffffffff\n      and\n        /* \"AlienPresale.sol\":3157:3180  alienToken.safeTransfer */\n      0xffffffffffffffffffffffffffffffffffffffff\n      and\n      tag_116\n      swap1\n        /* \"AlienPresale.sol\":3157:3198  alienToken.safeTransfer(owner(), balance) */\n      swap3\n      swap2\n      swap1\n      0xffffffff\n      and\n      jump\t// in\n    tag_137:\n        /* \"AlienPresale.sol\":3041:3205  {... */\n      pop\n        /* \"AlienPresale.sol\":2990:3205  function withdrawUnsoldTokens() external onlyOwner {... */\n      jump\t// out\n        /* \"AlienPresale.sol\":2093:2531  function buyTokens() external payable nonReentrant saleActive {... */\n    tag_80:\n        /* \"@openzeppelin/contracts/security/ReentrancyGuard.sol\":2261:2282  _nonReentrantBefore() */\n      tag_140\n        /* \"@openzeppelin/contracts/security/ReentrancyGuard.sol\":2261:2280  _nonReentrantBefore */\n      tag_110\n        /* \"@openzeppelin/contracts/security/ReentrancyGuard.sol\":2261:2282  _nonReentrantBefore() */\n      jump\t// in\n    tag_140:\n        /* \"AlienPresale.sol\":1963:1972  startTime */\n      sload(0x04)\n        /* \"AlienPresale.sol\":1944:1959  block.timestamp */\n      timestamp\n        /* \"AlienPresale.sol\":1944:1972  block.timestamp >= startTime */\n      lt\n      iszero\n        /* \"AlienPresale.sol\":1944:2002  block.timestamp >= startTime && block.timestamp <= endTime */\n      dup1\n      iszero\n      tag_142\n      jumpi\n      pop\n        /* \"AlienPresale.sol\":1995:2002  endTime */\n      sload(0x05)\n        /* \"AlienPresale.sol\":1976:1991  block.timestamp */\n      timestamp\n        /* \"AlienPresale.sol\":1976:2002  block.timestamp <= endTime */\n      gt\n      iszero\n        /* \"AlienPresale.sol\":1944:2002  block.timestamp >= startTime && block.timestamp <= endTime */\n    tag_142:\n        /* \"AlienPresale.sol\":1936:2025  require(block.timestamp >= startTime && block.timestamp <= endTime, \"Presale not active\") */\n      tag_143\n      jumpi\n      mload(0x40)\n      0x08c379a000000000000000000000000000000000000000000000000000000000\n      dup2\n      mstore\n      0x04\n      add\n      tag_144\n      swap1\n      tag_145\n      jump\t// in\n    tag_144:\n      mload(0x40)\n      dup1\n      swap2\n      sub\n      swap1\n      revert\n    tag_143:\n        /* \"AlienPresale.sol\":2044:2050  paused */\n      0x08\n      0x00\n      swap1\n      sload\n      swap1\n      0x0100\n      exp\n      swap1\n      div\n      0xff\n      and\n        /* \"AlienPresale.sol\":2043:2050  !paused */\n      iszero\n        /* \"AlienPresale.sol\":2035:2069  require(!paused, \"Presale paused\") */\n      tag_146\n      jumpi\n      mload(0x40)\n      0x08c379a000000000000000000000000000000000000000000000000000000000\n      dup2\n      mstore\n      0x04\n      add\n      tag_147\n      swap1\n      tag_148\n      jump\t// in\n    tag_147:\n      mload(0x40)\n      dup1\n      swap2\n      sub\n      swap1\n      revert\n    tag_146:\n        /* \"AlienPresale.sol\":2185:2186  0 */\n      0x00\n        /* \"AlienPresale.sol\":2173:2182  msg.value */\n      callvalue\n        /* \"AlienPresale.sol\":2173:2186  msg.value > 0 */\n      gt\n        /* \"AlienPresale.sol\":2165:2201  require(msg.value > 0, \"Send MATIC\") */\n      tag_150\n      jumpi\n      mload(0x40)\n      0x08c379a000000000000000000000000000000000000000000000000000000000\n      dup2\n      mstore\n      0x04\n      add\n      tag_151\n      swap1\n      tag_152\n      jump\t// in\n    tag_151:\n      mload(0x40)\n      dup1\n      swap2\n      sub\n      swap1\n      revert\n    tag_150:\n        /* \"AlienPresale.sol\":2246:2253  hardCap */\n      sload(0x06)\n        /* \"AlienPresale.sol\":2233:2242  msg.value */\n      callvalue\n        /* \"AlienPresale.sol\":2219:2230  totalRaised */\n      sload(0x07)\n        /* \"AlienPresale.sol\":2219:2242  totalRaised + msg.value */\n      tag_153\n      swap2\n      swap1\n      tag_154\n      jump\t// in\n    tag_153:\n        /* \"AlienPresale.sol\":2219:2253  totalRaised + msg.value <= hardCap */\n      gt\n      iszero\n        /* \"AlienPresale.sol\":2211:2273  require(totalRaised + msg.value <= hardCap, \"Exceeds hardcap\") */\n      tag_155\n      jumpi\n      mload(0x40)\n      0x08c379a000000000000000000000000000000000000000000000000000000000\n      dup2\n      mstore\n      0x04\n      add\n      tag_156\n      swap1\n      tag_157\n      jump\t// in\n    tag_156:\n      mload(0x40)\n      dup1\n      swap2\n      sub\n      swap1\n      revert\n    tag_155:\n        /* \"AlienPresale.sol\":2284:2298  uint256 tokens */\n      0x00\n        /* \"AlienPresale.sol\":2322:2332  tokenPrice */\n      sload(0x03)\n        /* \"AlienPresale.sol\":2314:2318  1e18 */\n      0x0de0b6b3a7640000\n        /* \"AlienPresale.sol\":2302:2311  msg.value */\n      callvalue\n        /* \"AlienPresale.sol\":2302:2318  msg.value * 1e18 */\n      tag_158\n      swap2\n      swap1\n      tag_159\n      jump\t// in\n    tag_158:\n        /* \"AlienPresale.sol\":2301:2332  (msg.value * 1e18) / tokenPrice */\n      tag_160\n      swap2\n      swap1\n      tag_161\n      jump\t// in\n    tag_160:\n        /* \"AlienPresale.sol\":2284:2332  uint256 tokens = (msg.value * 1e18) / tokenPrice */\n      swap1\n      pop\n        /* \"AlienPresale.sol\":2374:2380  tokens */\n      dup1\n        /* \"AlienPresale.sol\":2343:2358  claimableTokens */\n      0x0a\n        /* \"AlienPresale.sol\":2343:2370  claimableTokens[msg.sender] */\n      0x00\n        /* \"AlienPresale.sol\":2359:2369  msg.sender */\n      caller\n        /* \"AlienPresale.sol\":2343:2370  claimableTokens[msg.sender] */\n      0xffffffffffffffffffffffffffffffffffffffff\n      and\n      0xffffffffffffffffffffffffffffffffffffffff\n      and\n      dup2\n      mstore\n      0x20\n      add\n      swap1\n      dup2\n      mstore\n      0x20\n      add\n      0x00\n      keccak256\n      0x00\n        /* \"AlienPresale.sol\":2343:2380  claimableTokens[msg.sender] += tokens */\n      dup3\n      dup3\n      sload\n      tag_162\n      swap2\n      swap1\n      tag_154\n      jump\t// in\n    tag_162:\n      swap3\n      pop\n      pop\n      dup2\n      swap1\n      sstore\n      pop\n        /* \"AlienPresale.sol\":2419:2428  msg.value */\n      callvalue\n        /* \"AlienPresale.sol\":2390:2403  contributions */\n      0x09\n        /* \"AlienPresale.sol\":2390:2415  contributions[msg.sender] */\n      0x00\n        /* \"AlienPresale.sol\":2404:2414  msg.sender */\n      caller\n        /* \"AlienPresale.sol\":2390:2415  contributions[msg.sender] */\n      0xffffffffffffffffffffffffffffffffffffffff\n      and\n      0xffffffffffffffffffffffffffffffffffffffff\n      and\n      dup2\n      mstore\n      0x20\n      add\n      swap1\n      dup2\n      mstore\n      0x20\n      add\n      0x00\n      keccak256\n      0x00\n        /* \"AlienPresale.sol\":2390:2428  contributions[msg.sender] += msg.value */\n      dup3\n      dup3\n      sload\n      tag_163\n      swap2\n      swap1\n      tag_154\n      jump\t// in\n    tag_163:\n      swap3\n      pop\n      pop\n      dup2\n      swap1\n      sstore\n      pop\n        /* \"AlienPresale.sol\":2453:2462  msg.value */\n      callvalue\n        /* \"AlienPresale.sol\":2438:2449  totalRaised */\n      0x07\n      0x00\n        /* \"AlienPresale.sol\":2438:2462  totalRaised += msg.value */\n      dup3\n      dup3\n      sload\n      tag_164\n      swap2\n      swap1\n      tag_154\n      jump\t// in\n    tag_164:\n      swap3\n      pop\n      pop\n      dup2\n      swap1\n      sstore\n      pop\n        /* \"AlienPresale.sol\":2494:2504  msg.sender */\n      caller\n        /* \"AlienPresale.sol\":2478:2524  TokensPurchased(msg.sender, msg.value, tokens) */\n      0xffffffffffffffffffffffffffffffffffffffff\n      and\n      0x8fafebcaf9d154343dad25669bfa277f4fbacd7ac6b0c4fed522580e040a0f33\n        /* \"AlienPresale.sol\":2506:2515  msg.value */\n      callvalue\n        /* \"AlienPresale.sol\":2517:2523  tokens */\n      dup4\n        /* \"AlienPresale.sol\":2478:2524  TokensPurchased(msg.sender, msg.value, tokens) */\n      mload(0x40)\n      tag_165\n      swap3\n      swap2\n      swap1\n      tag_166\n      jump\t// in\n    tag_165:\n      mload(0x40)\n      dup1\n      swap2\n      sub\n      swap1\n      log2\n        /* \"AlienPresale.sol\":2155:2531  {... */\n      pop\n        /* \"@openzeppelin/contracts/security/ReentrancyGuard.sol\":2303:2323  _nonReentrantAfter() */\n      tag_167\n        /* \"@openzeppelin/contracts/security/ReentrancyGuard.sol\":2303:2321  _nonReentrantAfter */\n      tag_119\n        /* \"@openzeppelin/contracts/security/ReentrancyGuard.sol\":2303:2323  _nonReentrantAfter() */\n      jump\t// in\n    tag_167:\n        /* \"AlienPresale.sol\":2093:2531  function buyTokens() external payable nonReentrant saleActive {... */\n      jump\t// out\n        /* \"AlienPresale.sol\":3211:3336  function pausePresale(bool _status) external onlyOwner {... */\n    tag_85:\n        /* \"@openzeppelin/contracts/access/Ownable.sol\":1531:1544  _checkOwner() */\n      tag_169\n        /* \"@openzeppelin/contracts/access/Ownable.sol\":1531:1542  _checkOwner */\n      tag_103\n        /* \"@openzeppelin/contracts/access/Ownable.sol\":1531:1544  _checkOwner() */\n      jump\t// in\n    tag_169:\n        /* \"AlienPresale.sol\":3285:3292  _status */\n      dup1\n        /* \"AlienPresale.sol\":3276:3282  paused */\n      0x08\n      0x00\n        /* \"AlienPresale.sol\":3276:3292  paused = _status */\n      0x0100\n      exp\n      dup2\n      sload\n      dup2\n      0xff\n      mul\n      not\n      and\n      swap1\n      dup4\n      iszero\n      iszero\n      mul\n      or\n      swap1\n      sstore\n      pop\n        /* \"AlienPresale.sol\":3307:3329  PresalePaused(_status) */\n      0x66006354ac6a35f0f9b001e7cd8a73623bab487be4239f71fb1428656e7de6a6\n        /* \"AlienPresale.sol\":3321:3328  _status */\n      dup2\n        /* \"AlienPresale.sol\":3307:3329  PresalePaused(_status) */\n      mload(0x40)\n      tag_171\n      swap2\n      swap1\n      tag_50\n      jump\t// in\n    tag_171:\n      mload(0x40)\n      dup1\n      swap2\n      sub\n      swap1\n      log1\n        /* \"AlienPresale.sol\":3211:3336  function pausePresale(bool _status) external onlyOwner {... */\n      pop\n      jump\t// out\n        /* \"AlienPresale.sol\":721:775  uint256 public constant MAX_PRESALE_DURATION = 30 days */\n    tag_88:\n        /* \"AlienPresale.sol\":768:775  30 days */\n      0x278d00\n        /* \"AlienPresale.sol\":721:775  uint256 public constant MAX_PRESALE_DURATION = 30 days */\n      dup2\n      jump\t// out\n        /* \"AlienPresale.sol\":3342:3721  function emergencyWithdraw() external nonReentrant {... */\n    tag_92:\n        /* \"@openzeppelin/contracts/security/ReentrancyGuard.sol\":2261:2282  _nonReentrantBefore() */\n      tag_173\n        /* \"@openzeppelin/contracts/security/ReentrancyGuard.sol\":2261:2280  _nonReentrantBefore */\n      tag_110\n        /* \"@openzeppelin/contracts/security/ReentrancyGuard.sol\":2261:2282  _nonReentrantBefore() */\n      jump\t// in\n    tag_173:\n        /* \"AlienPresale.sol\":3411:3417  paused */\n      0x08\n      0x00\n      swap1\n      sload\n      swap1\n      0x0100\n      exp\n      swap1\n      div\n      0xff\n      and\n        /* \"AlienPresale.sol\":3403:3432  require(paused, \"Not paused\") */\n      tag_175\n      jumpi\n      mload(0x40)\n      0x08c379a000000000000000000000000000000000000000000000000000000000\n      dup2\n      mstore\n      0x04\n      add\n      tag_176\n      swap1\n      tag_177\n      jump\t// in\n    tag_176:\n      mload(0x40)\n      dup1\n      swap2\n      sub\n      swap1\n      revert\n    tag_175:\n        /* \"AlienPresale.sol\":3442:3456  uint256 amount */\n      0x00\n        /* \"AlienPresale.sol\":3459:3472  contributions */\n      0x09\n        /* \"AlienPresale.sol\":3459:3484  contributions[msg.sender] */\n      0x00\n        /* \"AlienPresale.sol\":3473:3483  msg.sender */\n      caller\n        /* \"AlienPresale.sol\":3459:3484  contributions[msg.sender] */\n      0xffffffffffffffffffffffffffffffffffffffff\n      and\n      0xffffffffffffffffffffffffffffffffffffffff\n      and\n      dup2\n      mstore\n      0x20\n      add\n      swap1\n      dup2\n      mstore\n      0x20\n      add\n      0x00\n      keccak256\n      sload\n        /* \"AlienPresale.sol\":3442:3484  uint256 amount = contributions[msg.sender] */\n      swap1\n      pop\n        /* \"AlienPresale.sol\":3511:3512  0 */\n      0x00\n        /* \"AlienPresale.sol\":3502:3508  amount */\n      dup2\n        /* \"AlienPresale.sol\":3502:3512  amount > 0 */\n      gt\n        /* \"AlienPresale.sol\":3494:3534  require(amount > 0, \"Nothing to refund\") */\n      tag_178\n      jumpi\n      mload(0x40)\n      0x08c379a000000000000000000000000000000000000000000000000000000000\n      dup2\n      mstore\n      0x04\n      add\n      tag_179\n      swap1\n      tag_180\n      jump\t// in\n    tag_179:\n      mload(0x40)\n      dup1\n      swap2\n      sub\n      swap1\n      revert\n    tag_178:\n        /* \"AlienPresale.sol\":3573:3574  0 */\n      0x00\n        /* \"AlienPresale.sol\":3545:3558  contributions */\n      0x09\n        /* \"AlienPresale.sol\":3545:3570  contributions[msg.sender] */\n      0x00\n        /* \"AlienPresale.sol\":3559:3569  msg.sender */\n      caller\n        /* \"AlienPresale.sol\":3545:3570  contributions[msg.sender] */\n      0xffffffffffffffffffffffffffffffffffffffff\n      and\n      0xffffffffffffffffffffffffffffffffffffffff\n      and\n      dup2\n      mstore\n      0x20\n      add\n      swap1\n      dup2\n      mstore\n      0x20\n      add\n      0x00\n      keccak256\n        /* \"AlienPresale.sol\":3545:3574  contributions[msg.sender] = 0 */\n      dup2\n      swap1\n      sstore\n      pop\n        /* \"AlienPresale.sol\":3614:3615  0 */\n      0x00\n        /* \"AlienPresale.sol\":3584:3599  claimableTokens */\n      0x0a\n        /* \"AlienPresale.sol\":3584:3611  claimableTokens[msg.sender] */\n      0x00\n        /* \"AlienPresale.sol\":3600:3610  msg.sender */\n      caller\n        /* \"AlienPresale.sol\":3584:3611  claimableTokens[msg.sender] */\n      0xffffffffffffffffffffffffffffffffffffffff\n      and\n      0xffffffffffffffffffffffffffffffffffffffff\n      and\n      dup2\n      mstore\n      0x20\n      add\n      swap1\n      dup2\n      mstore\n      0x20\n      add\n      0x00\n      keccak256\n        /* \"AlienPresale.sol\":3584:3615  claimableTokens[msg.sender] = 0 */\n      dup2\n      swap1\n      sstore\n      pop\n        /* \"AlienPresale.sol\":3633:3643  msg.sender */\n      caller\n        /* \"AlienPresale.sol\":3625:3653  payable(msg.sender).transfer */\n      0xffffffffffffffffffffffffffffffffffffffff\n      and\n        /* \"AlienPresale.sol\":3625:3661  payable(msg.sender).transfer(amount) */\n      0x08fc\n        /* \"AlienPresale.sol\":3654:3660  amount */\n      dup3\n        /* \"AlienPresale.sol\":3625:3661  payable(msg.sender).transfer(amount) */\n      swap1\n      dup2\n      iszero\n      mul\n      swap1\n      mload(0x40)\n      0x00\n      mload(0x40)\n      dup1\n      dup4\n      sub\n      dup2\n      dup6\n      dup9\n      dup9\n      call\n      swap4\n      pop\n      pop\n      pop\n      pop\n      iszero\n      dup1\n      iszero\n      tag_182\n      jumpi\n      returndatasize\n      0x00\n      dup1\n      returndatacopy\n      revert(0x00, returndatasize)\n    tag_182:\n      pop\n        /* \"AlienPresale.sol\":3695:3705  msg.sender */\n      caller\n        /* \"AlienPresale.sol\":3677:3714  EmergencyWithdraw(msg.sender, amount) */\n      0xffffffffffffffffffffffffffffffffffffffff\n      and\n      0x5fafa99d0643513820be26656b45130b01e1c03062e1266bf36f88cbd3bd9695\n        /* \"AlienPresale.sol\":3707:3713  amount */\n      dup3\n        /* \"AlienPresale.sol\":3677:3714  EmergencyWithdraw(msg.sender, amount) */\n      mload(0x40)\n      tag_183\n      swap2\n      swap1\n      tag_36\n      jump\t// in\n    tag_183:\n      mload(0x40)\n      dup1\n      swap2\n      sub\n      swap1\n      log2\n        /* \"AlienPresale.sol\":3393:3721  {... */\n      pop\n        /* \"@openzeppelin/contracts/security/ReentrancyGuard.sol\":2303:2323  _nonReentrantAfter() */\n      tag_184\n        /* \"@openzeppelin/contracts/security/ReentrancyGuard.sol\":2303:2321  _nonReentrantAfter */\n      tag_119\n        /* \"@openzeppelin/contracts/security/ReentrancyGuard.sol\":2303:2323  _nonReentrantAfter() */\n      jump\t// in\n    tag_184:\n        /* \"AlienPresale.sol\":3342:3721  function emergencyWithdraw() external nonReentrant {... */\n      jump\t// out\n        /* \"@openzeppelin/contracts/access/Ownable.sol\":2543:2758  function transferOwnership(address newOwner) public virtual onlyOwner {... */\n    tag_96:\n        /* \"@openzeppelin/contracts/access/Ownable.sol\":1531:1544  _checkOwner() */\n      tag_186\n        /* \"@openzeppelin/contracts/access/Ownable.sol\":1531:1542  _checkOwner */\n      tag_103\n        /* \"@openzeppelin/contracts/access/Ownable.sol\":1531:1544  _checkOwner() */\n      jump\t// in\n    tag_186:\n        /* \"@openzeppelin/contracts/access/Ownable.sol\":2647:2648  0 */\n      0x00\n        /* \"@openzeppelin/contracts/access/Ownable.sol\":2627:2649  newOwner == address(0) */\n      0xffffffffffffffffffffffffffffffffffffffff\n      and\n        /* \"@openzeppelin/contracts/access/Ownable.sol\":2627:2635  newOwner */\n      dup2\n        /* \"@openzeppelin/contracts/access/Ownable.sol\":2627:2649  newOwner == address(0) */\n      0xffffffffffffffffffffffffffffffffffffffff\n      and\n      sub\n        /* \"@openzeppelin/contracts/access/Ownable.sol\":2623:2714  if (newOwner == address(0)) {... */\n      tag_188\n      jumpi\n        /* \"@openzeppelin/contracts/access/Ownable.sol\":2700:2701  0 */\n      0x00\n        /* \"@openzeppelin/contracts/access/Ownable.sol\":2672:2703  OwnableInvalidOwner(address(0)) */\n      mload(0x40)\n      0x1e4fbdf700000000000000000000000000000000000000000000000000000000\n      dup2\n      mstore\n      0x04\n      add\n      tag_189\n      swap2\n      swap1\n      tag_71\n      jump\t// in\n    tag_189:\n      mload(0x40)\n      dup1\n      swap2\n      sub\n      swap1\n      revert\n        /* \"@openzeppelin/contracts/access/Ownable.sol\":2623:2714  if (newOwner == address(0)) {... */\n    tag_188:\n        /* \"@openzeppelin/contracts/access/Ownable.sol\":2723:2751  _transferOwnership(newOwner) */\n      tag_190\n        /* \"@openzeppelin/contracts/access/Ownable.sol\":2742:2750  newOwner */\n      dup2\n        /* \"@openzeppelin/contracts/access/Ownable.sol\":2723:2741  _transferOwnership */\n      tag_124\n        /* \"@openzeppelin/contracts/access/Ownable.sol\":2723:2751  _transferOwnership(newOwner) */\n      jump\t// in\n    tag_190:\n        /* \"@openzeppelin/contracts/access/Ownable.sol\":2543:2758  function transferOwnership(address newOwner) public virtual onlyOwner {... */\n      pop\n      jump\t// out\n        /* \"AlienPresale.sol\":579:601  uint256 public hardCap */\n    tag_99:\n      sload(0x06)\n      dup2\n      jump\t// out\n        /* \"@openzeppelin/contracts/access/Ownable.sol\":1796:1958  function _checkOwner() internal view virtual {... */\n    tag_103:\n        /* \"@openzeppelin/contracts/access/Ownable.sol\":1866:1878  _msgSender() */\n      tag_192\n        /* \"@openzeppelin/contracts/access/Ownable.sol\":1866:1876  _msgSender */\n      tag_193\n        /* \"@openzeppelin/contracts/access/Ownable.sol\":1866:1878  _msgSender() */\n      jump\t// in\n    tag_192:\n        /* \"@openzeppelin/contracts/access/Ownable.sol\":1855:1878  owner() != _msgSender() */\n      0xffffffffffffffffffffffffffffffffffffffff\n      and\n        /* \"@openzeppelin/contracts/access/Ownable.sol\":1855:1862  owner() */\n      tag_194\n        /* \"@openzeppelin/contracts/access/Ownable.sol\":1855:1860  owner */\n      tag_69\n        /* \"@openzeppelin/contracts/access/Ownable.sol\":1855:1862  owner() */\n      jump\t// in\n    tag_194:\n        /* \"@openzeppelin/contracts/access/Ownable.sol\":1855:1878  owner() != _msgSender() */\n      0xffffffffffffffffffffffffffffffffffffffff\n      and\n      eq\n        /* \"@openzeppelin/contracts/access/Ownable.sol\":1851:1952  if (owner() != _msgSender()) {... */\n      tag_195\n      jumpi\n        /* \"@openzeppelin/contracts/access/Ownable.sol\":1928:1940  _msgSender() */\n      tag_196\n        /* \"@openzeppelin/contracts/access/Ownable.sol\":1928:1938  _msgSender */\n      tag_193\n        /* \"@openzeppelin/contracts/access/Ownable.sol\":1928:1940  _msgSender() */\n      jump\t// in\n    tag_196:\n        /* \"@openzeppelin/contracts/access/Ownable.sol\":1901:1941  OwnableUnauthorizedAccount(_msgSender()) */\n      mload(0x40)\n      0x118cdaa700000000000000000000000000000000000000000000000000000000\n      dup2\n      mstore\n      0x04\n      add\n      tag_197\n      swap2\n      swap1\n      tag_71\n      jump\t// in\n    tag_197:\n      mload(0x40)\n      dup1\n      swap2\n      sub\n      swap1\n      revert\n        /* \"@openzeppelin/contracts/access/Ownable.sol\":1851:1952  if (owner() != _msgSender()) {... */\n    tag_195:\n        /* \"@openzeppelin/contracts/access/Ownable.sol\":1796:1958  function _checkOwner() internal view virtual {... */\n      jump\t// out\n        /* \"@openzeppelin/contracts/security/ReentrancyGuard.sol\":2336:2623  function _nonReentrantBefore() private {... */\n    tag_110:\n        /* \"@openzeppelin/contracts/security/ReentrancyGuard.sol\":1759:1760  2 */\n      0x02\n        /* \"@openzeppelin/contracts/security/ReentrancyGuard.sol\":2468:2475  _status */\n      sload(0x01)\n        /* \"@openzeppelin/contracts/security/ReentrancyGuard.sol\":2468:2487  _status != _ENTERED */\n      sub\n        /* \"@openzeppelin/contracts/security/ReentrancyGuard.sol\":2460:2523  require(_status != _ENTERED, \"ReentrancyGuard: reentrant call\") */\n      tag_199\n      jumpi\n      mload(0x40)\n      0x08c379a000000000000000000000000000000000000000000000000000000000\n      dup2\n      mstore\n      0x04\n      add\n      tag_200\n      swap1\n      tag_201\n      jump\t// in\n    tag_200:\n      mload(0x40)\n      dup1\n      swap2\n      sub\n      swap1\n      revert\n    tag_199:\n        /* \"@openzeppelin/contracts/security/ReentrancyGuard.sol\":1759:1760  2 */\n      0x02\n        /* \"@openzeppelin/contracts/security/ReentrancyGuard.sol\":2598:2605  _status */\n      0x01\n        /* \"@openzeppelin/contracts/security/ReentrancyGuard.sol\":2598:2616  _status = _ENTERED */\n      dup2\n      swap1\n      sstore\n      pop\n        /* \"@openzeppelin/contracts/security/ReentrancyGuard.sol\":2336:2623  function _nonReentrantBefore() private {... */\n      jump\t// out\n        /* \"@openzeppelin/contracts/token/ERC20/utils/SafeERC20.sol\":1219:1379  function safeTransfer(IERC20 token, address to, uint256 value) internal {... */\n    tag_116:\n        /* \"@openzeppelin/contracts/token/ERC20/utils/SafeERC20.sol\":1301:1372  _callOptionalReturn(token, abi.encodeCall(token.transfer, (to, value))) */\n      tag_203\n        /* \"@openzeppelin/contracts/token/ERC20/utils/SafeERC20.sol\":1321:1326  token */\n      dup4\n        /* \"@openzeppelin/contracts/token/ERC20/utils/SafeERC20.sol\":1343:1348  token */\n      dup5\n        /* \"@openzeppelin/contracts/token/ERC20/utils/SafeERC20.sol\":1343:1357  token.transfer */\n      0xffffffffffffffffffffffffffffffffffffffff\n      and\n      0xa9059cbb\n        /* \"@openzeppelin/contracts/token/ERC20/utils/SafeERC20.sol\":1360:1362  to */\n      dup6\n        /* \"@openzeppelin/contracts/token/ERC20/utils/SafeERC20.sol\":1364:1369  value */\n      dup6\n        /* \"@openzeppelin/contracts/token/ERC20/utils/SafeERC20.sol\":1328:1371  abi.encodeCall(token.transfer, (to, value)) */\n      add(0x24, mload(0x40))\n      tag_204\n      swap3\n      swap2\n      swap1\n      tag_205\n      jump\t// in\n    tag_204:\n      mload(0x40)\n      0x20\n      dup2\n      dup4\n      sub\n      sub\n      dup2\n      mstore\n      swap1\n      0x40\n      mstore\n      swap2\n      pop\n      0xe0\n      shl\n      0x20\n      dup3\n      add\n      dup1\n      mload\n      0xffffffffffffffffffffffffffffffffffffffffffffffffffffffff\n      dup4\n      dup2\n      dup4\n      and\n      or\n      dup4\n      mstore\n      pop\n      pop\n      pop\n      pop\n        /* \"@openzeppelin/contracts/token/ERC20/utils/SafeERC20.sol\":1301:1320  _callOptionalReturn */\n      tag_206\n        /* \"@openzeppelin/contracts/token/ERC20/utils/SafeERC20.sol\":1301:1372  _callOptionalReturn(token, abi.encodeCall(token.transfer, (to, value))) */\n      jump\t// in\n    tag_203:\n        /* \"@openzeppelin/contracts/token/ERC20/utils/SafeERC20.sol\":1219:1379  function safeTransfer(IERC20 token, address to, uint256 value) internal {... */\n      pop\n      pop\n      pop\n      jump\t// out\n        /* \"@openzeppelin/contracts/security/ReentrancyGuard.sol\":2629:2838  function _nonReentrantAfter() private {... */\n    tag_119:\n        /* \"@openzeppelin/contracts/security/ReentrancyGuard.sol\":1716:1717  1 */\n      0x01\n        /* \"@openzeppelin/contracts/security/ReentrancyGuard.sol\":2809:2816  _status */\n      dup1\n        /* \"@openzeppelin/contracts/security/ReentrancyGuard.sol\":2809:2831  _status = _NOT_ENTERED */\n      dup2\n      swap1\n      sstore\n      pop\n        /* \"@openzeppelin/contracts/security/ReentrancyGuard.sol\":2629:2838  function _nonReentrantAfter() private {... */\n      jump\t// out\n        /* \"@openzeppelin/contracts/access/Ownable.sol\":2912:3099  function _transferOwnership(address newOwner) internal virtual {... */\n    tag_124:\n        /* \"@openzeppelin/contracts/access/Ownable.sol\":2985:3001  address oldOwner */\n      0x00\n        /* \"@openzeppelin/contracts/access/Ownable.sol\":3004:3010  _owner */\n      dup1\n      0x00\n      swap1\n      sload\n      swap1\n      0x0100\n      exp\n      swap1\n      div\n      0xffffffffffffffffffffffffffffffffffffffff\n      and\n        /* \"@openzeppelin/contracts/access/Ownable.sol\":2985:3010  address oldOwner = _owner */\n      swap1\n      pop\n        /* \"@openzeppelin/contracts/access/Ownable.sol\":3029:3037  newOwner */\n      dup2\n        /* \"@openzeppelin/contracts/access/Ownable.sol\":3020:3026  _owner */\n      0x00\n      dup1\n        /* \"@openzeppelin/contracts/access/Ownable.sol\":3020:3037  _owner = newOwner */\n      0x0100\n      exp\n      dup2\n      sload\n      dup2\n      0xffffffffffffffffffffffffffffffffffffffff\n      mul\n      not\n      and\n      swap1\n      dup4\n      0xffffffffffffffffffffffffffffffffffffffff\n      and\n      mul\n      or\n      swap1\n      sstore\n      pop\n        /* \"@openzeppelin/contracts/access/Ownable.sol\":3083:3091  newOwner */\n      dup2\n        /* \"@openzeppelin/contracts/access/Ownable.sol\":3052:3092  OwnershipTransferred(oldOwner, newOwner) */\n      0xffffffffffffffffffffffffffffffffffffffff\n      and\n        /* \"@openzeppelin/contracts/access/Ownable.sol\":3073:3081  oldOwner */\n      dup2\n        /* \"@openzeppelin/contracts/access/Ownable.sol\":3052:3092  OwnershipTransferred(oldOwner, newOwner) */\n      0xffffffffffffffffffffffffffffffffffffffff\n      and\n      0x8be0079c531659141344cd1fd0a4f28419497f9722a3daafe3b4186f6b6457e0\n      mload(0x40)\n      mload(0x40)\n      dup1\n      swap2\n      sub\n      swap1\n      log3\n        /* \"@openzeppelin/contracts/access/Ownable.sol\":2975:3099  {... */\n      pop\n        /* \"@openzeppelin/contracts/access/Ownable.sol\":2912:3099  function _transferOwnership(address newOwner) internal virtual {... */\n      pop\n      jump\t// out\n        /* \"@openzeppelin/contracts/utils/Context.sol\":656:752  function _msgSender() internal view virtual returns (address) {... */\n    tag_193:\n        /* \"@openzeppelin/contracts/utils/Context.sol\":709:716  address */\n      0x00\n        /* \"@openzeppelin/contracts/utils/Context.sol\":735:745  msg.sender */\n      caller\n        /* \"@openzeppelin/contracts/utils/Context.sol\":728:745  return msg.sender */\n      swap1\n      pop\n        /* \"@openzeppelin/contracts/utils/Context.sol\":656:752  function _msgSender() internal view virtual returns (address) {... */\n      swap1\n      jump\t// out\n        /* \"@openzeppelin/contracts/token/ERC20/utils/SafeERC20.sol\":8370:9090  function _callOptionalReturn(IERC20 token, bytes memory data) private {... */\n    tag_206:\n        /* \"@openzeppelin/contracts/token/ERC20/utils/SafeERC20.sol\":8450:8468  uint256 returnSize */\n      0x00\n        /* \"@openzeppelin/contracts/token/ERC20/utils/SafeERC20.sol\":8478:8497  uint256 returnValue */\n      dup1\n        /* \"@openzeppelin/contracts/token/ERC20/utils/SafeERC20.sol\":8616:8620  0x20 */\n      0x20\n        /* \"@openzeppelin/contracts/token/ERC20/utils/SafeERC20.sol\":8613:8614  0 */\n      0x00\n        /* \"@openzeppelin/contracts/token/ERC20/utils/SafeERC20.sol\":8606:8610  data */\n      dup5\n        /* \"@openzeppelin/contracts/token/ERC20/utils/SafeERC20.sol\":8600:8611  mload(data) */\n      mload\n        /* \"@openzeppelin/contracts/token/ERC20/utils/SafeERC20.sol\":8593:8597  0x20 */\n      0x20\n        /* \"@openzeppelin/contracts/token/ERC20/utils/SafeERC20.sol\":8587:8591  data */\n      dup7\n        /* \"@openzeppelin/contracts/token/ERC20/utils/SafeERC20.sol\":8583:8598  add(data, 0x20) */\n      add\n        /* \"@openzeppelin/contracts/token/ERC20/utils/SafeERC20.sol\":8580:8581  0 */\n      0x00\n        /* \"@openzeppelin/contracts/token/ERC20/utils/SafeERC20.sol\":8573:8578  token */\n      dup9\n        /* \"@openzeppelin/contracts/token/ERC20/utils/SafeERC20.sol\":8566:8571  gas() */\n      gas\n        /* \"@openzeppelin/contracts/token/ERC20/utils/SafeERC20.sol\":8561:8621  call(gas(), token, 0, add(data, 0x20), mload(data), 0, 0x20) */\n      call\n        /* \"@openzeppelin/contracts/token/ERC20/utils/SafeERC20.sol\":8673:8680  success */\n      dup1\n        /* \"@openzeppelin/contracts/token/ERC20/utils/SafeERC20.sol\":8663:8839  if iszero(success) {... */\n      tag_211\n      jumpi\n        /* \"@openzeppelin/contracts/token/ERC20/utils/SafeERC20.sol\":8717:8721  0x40 */\n      0x40\n        /* \"@openzeppelin/contracts/token/ERC20/utils/SafeERC20.sol\":8711:8722  mload(0x40) */\n      mload\n        /* \"@openzeppelin/contracts/token/ERC20/utils/SafeERC20.sol\":8762:8778  returndatasize() */\n      returndatasize\n        /* \"@openzeppelin/contracts/token/ERC20/utils/SafeERC20.sol\":8759:8760  0 */\n      0x00\n        /* \"@openzeppelin/contracts/token/ERC20/utils/SafeERC20.sol\":8754:8757  ptr */\n      dup3\n        /* \"@openzeppelin/contracts/token/ERC20/utils/SafeERC20.sol\":8739:8779  returndatacopy(ptr, 0, returndatasize()) */\n      returndatacopy\n        /* \"@openzeppelin/contracts/token/ERC20/utils/SafeERC20.sol\":8808:8824  returndatasize() */\n      returndatasize\n        /* \"@openzeppelin/contracts/token/ERC20/utils/SafeERC20.sol\":8803:8806  ptr */\n      dup2\n        /* \"@openzeppelin/contracts/token/ERC20/utils/SafeERC20.sol\":8796:8825  revert(ptr, returndatasize()) */\n      revert\n        /* \"@openzeppelin/contracts/token/ERC20/utils/SafeERC20.sol\":8663:8839  if iszero(success) {... */\n    tag_211:\n        /* \"@openzeppelin/contracts/token/ERC20/utils/SafeERC20.sol\":8866:8882  returndatasize() */\n      returndatasize\n        /* \"@openzeppelin/contracts/token/ERC20/utils/SafeERC20.sol\":8852:8882  returnSize := returndatasize() */\n      swap3\n      pop\n        /* \"@openzeppelin/contracts/token/ERC20/utils/SafeERC20.sol\":8916:8917  0 */\n      0x00\n        /* \"@openzeppelin/contracts/token/ERC20/utils/SafeERC20.sol\":8910:8918  mload(0) */\n      mload\n        /* \"@openzeppelin/contracts/token/ERC20/utils/SafeERC20.sol\":8895:8918  returnValue := mload(0) */\n      swap2\n      pop\n        /* \"@openzeppelin/contracts/token/ERC20/utils/SafeERC20.sol\":8532:8928  {... */\n      pop\n        /* \"@openzeppelin/contracts/token/ERC20/utils/SafeERC20.sol\":8956:8957  0 */\n      0x00\n        /* \"@openzeppelin/contracts/token/ERC20/utils/SafeERC20.sol\":8942:8952  returnSize */\n      dup3\n        /* \"@openzeppelin/contracts/token/ERC20/utils/SafeERC20.sol\":8942:8957  returnSize == 0 */\n      eq\n        /* \"@openzeppelin/contracts/token/ERC20/utils/SafeERC20.sol\":8942:9010  returnSize == 0 ? address(token).code.length == 0 : returnValue != 1 */\n      tag_212\n      jumpi\n        /* \"@openzeppelin/contracts/token/ERC20/utils/SafeERC20.sol\":9009:9010  1 */\n      0x01\n        /* \"@openzeppelin/contracts/token/ERC20/utils/SafeERC20.sol\":8994:9005  returnValue */\n      dup2\n        /* \"@openzeppelin/contracts/token/ERC20/utils/SafeERC20.sol\":8994:9010  returnValue != 1 */\n      eq\n      iszero\n        /* \"@openzeppelin/contracts/token/ERC20/utils/SafeERC20.sol\":8942:9010  returnSize == 0 ? address(token).code.length == 0 : returnValue != 1 */\n      jump(tag_213)\n    tag_212:\n        /* \"@openzeppelin/contracts/token/ERC20/utils/SafeERC20.sol\":8990:8991  0 */\n      0x00\n        /* \"@openzeppelin/contracts/token/ERC20/utils/SafeERC20.sol\":8968:8973  token */\n      dup5\n        /* \"@openzeppelin/contracts/token/ERC20/utils/SafeERC20.sol\":8960:8986  address(token).code.length */\n      0xffffffffffffffffffffffffffffffffffffffff\n      and\n      extcodesize\n        /* \"@openzeppelin/contracts/token/ERC20/utils/SafeERC20.sol\":8960:8991  address(token).code.length == 0 */\n      eq\n        /* \"@openzeppelin/contracts/token/ERC20/utils/SafeERC20.sol\":8942:9010  returnSize == 0 ? address(token).code.length == 0 : returnValue != 1 */\n    tag_213:\n        /* \"@openzeppelin/contracts/token/ERC20/utils/SafeERC20.sol\":8938:9084  if (returnSize == 0 ? address(token).code.length == 0 : returnValue != 1) {... */\n      iszero\n      tag_214\n      jumpi\n        /* \"@openzeppelin/contracts/token/ERC20/utils/SafeERC20.sol\":9066:9071  token */\n      dup4\n        /* \"@openzeppelin/contracts/token/ERC20/utils/SafeERC20.sol\":9033:9073  SafeERC20FailedOperation(address(token)) */\n      mload(0x40)\n      0x5274afe700000000000000000000000000000000000000000000000000000000\n      dup2\n      mstore\n      0x04\n      add\n      tag_215\n      swap2\n      swap1\n      tag_71\n      jump\t// in\n    tag_215:\n      mload(0x40)\n      dup1\n      swap2\n      sub\n      swap1\n      revert\n        /* \"@openzeppelin/contracts/token/ERC20/utils/SafeERC20.sol\":8938:9084  if (returnSize == 0 ? address(token).code.length == 0 : returnValue != 1) {... */\n    tag_214:\n        /* \"@openzeppelin/contracts/token/ERC20/utils/SafeERC20.sol\":8440:9090  {... */\n      pop\n      pop\n        /* \"@openzeppelin/contracts/token/ERC20/utils/SafeERC20.sol\":8370:9090  function _callOptionalReturn(IERC20 token, bytes memory data) private {... */\n      pop\n      pop\n      jump\t// out\n        /* \"#utility.yul\":7:133   */\n    tag_216:\n        /* \"#utility.yul\":44:51   */\n      0x00\n        /* \"#utility.yul\":84:126   */\n      0xffffffffffffffffffffffffffffffffffffffff\n        /* \"#utility.yul\":77:82   */\n      dup3\n        /* \"#utility.yul\":73:127   */\n      and\n        /* \"#utility.yul\":62:127   */\n      swap1\n      pop\n        /* \"#utility.yul\":7:133   */\n      swap2\n      swap1\n      pop\n      jump\t// out\n        /* \"#utility.yul\":139:199   */\n    tag_217:\n        /* \"#utility.yul\":167:170   */\n      0x00\n        /* \"#utility.yul\":188:193   */\n      dup2\n        /* \"#utility.yul\":181:193   */\n      swap1\n      pop\n        /* \"#utility.yul\":139:199   */\n      swap2\n      swap1\n      pop\n      jump\t// out\n        /* \"#utility.yul\":205:347   */\n    tag_218:\n        /* \"#utility.yul\":255:264   */\n      0x00\n        /* \"#utility.yul\":288:341   */\n      tag_262\n        /* \"#utility.yul\":306:340   */\n      tag_263\n        /* \"#utility.yul\":315:339   */\n      tag_264\n        /* \"#utility.yul\":333:338   */\n      dup5\n        /* \"#utility.yul\":315:339   */\n      tag_216\n      jump\t// in\n    tag_264:\n        /* \"#utility.yul\":306:340   */\n      tag_217\n      jump\t// in\n    tag_263:\n        /* \"#utility.yul\":288:341   */\n      tag_216\n      jump\t// in\n    tag_262:\n        /* \"#utility.yul\":275:341   */\n      swap1\n      pop\n        /* \"#utility.yul\":205:347   */\n      swap2\n      swap1\n      pop\n      jump\t// out\n        /* \"#utility.yul\":353:479   */\n    tag_219:\n        /* \"#utility.yul\":403:412   */\n      0x00\n        /* \"#utility.yul\":436:473   */\n      tag_266\n        /* \"#utility.yul\":467:472   */\n      dup3\n        /* \"#utility.yul\":436:473   */\n      tag_218\n      jump\t// in\n    tag_266:\n        /* \"#utility.yul\":423:473   */\n      swap1\n      pop\n        /* \"#utility.yul\":353:479   */\n      swap2\n      swap1\n      pop\n      jump\t// out\n        /* \"#utility.yul\":485:625   */\n    tag_220:\n        /* \"#utility.yul\":549:558   */\n      0x00\n        /* \"#utility.yul\":582:619   */\n      tag_268\n        /* \"#utility.yul\":613:618   */\n      dup3\n        /* \"#utility.yul\":582:619   */\n      tag_219\n      jump\t// in\n    tag_268:\n        /* \"#utility.yul\":569:619   */\n      swap1\n      pop\n        /* \"#utility.yul\":485:625   */\n      swap2\n      swap1\n      pop\n      jump\t// out\n        /* \"#utility.yul\":631:790   */\n    tag_221:\n        /* \"#utility.yul\":732:783   */\n      tag_270\n        /* \"#utility.yul\":777:782   */\n      dup2\n        /* \"#utility.yul\":732:783   */\n      tag_220\n      jump\t// in\n    tag_270:\n        /* \"#utility.yul\":727:730   */\n      dup3\n        /* \"#utility.yul\":720:784   */\n      mstore\n        /* \"#utility.yul\":631:790   */\n      pop\n      pop\n      jump\t// out\n        /* \"#utility.yul\":796:1046   */\n    tag_28:\n        /* \"#utility.yul\":903:907   */\n      0x00\n        /* \"#utility.yul\":941:943   */\n      0x20\n        /* \"#utility.yul\":930:939   */\n      dup3\n        /* \"#utility.yul\":926:944   */\n      add\n        /* \"#utility.yul\":918:944   */\n      swap1\n      pop\n        /* \"#utility.yul\":954:1039   */\n      tag_272\n        /* \"#utility.yul\":1036:1037   */\n      0x00\n        /* \"#utility.yul\":1025:1034   */\n      dup4\n        /* \"#utility.yul\":1021:1038   */\n      add\n        /* \"#utility.yul\":1012:1018   */\n      dup5\n        /* \"#utility.yul\":954:1039   */\n      tag_221\n      jump\t// in\n    tag_272:\n        /* \"#utility.yul\":796:1046   */\n      swap3\n      swap2\n      pop\n      pop\n      jump\t// out\n        /* \"#utility.yul\":1052:1129   */\n    tag_222:\n        /* \"#utility.yul\":1089:1096   */\n      0x00\n        /* \"#utility.yul\":1118:1123   */\n      dup2\n        /* \"#utility.yul\":1107:1123   */\n      swap1\n      pop\n        /* \"#utility.yul\":1052:1129   */\n      swap2\n      swap1\n      pop\n      jump\t// out\n        /* \"#utility.yul\":1135:1253   */\n    tag_223:\n        /* \"#utility.yul\":1222:1246   */\n      tag_275\n        /* \"#utility.yul\":1240:1245   */\n      dup2\n        /* \"#utility.yul\":1222:1246   */\n      tag_222\n      jump\t// in\n    tag_275:\n        /* \"#utility.yul\":1217:1220   */\n      dup3\n        /* \"#utility.yul\":1210:1247   */\n      mstore\n        /* \"#utility.yul\":1135:1253   */\n      pop\n      pop\n      jump\t// out\n        /* \"#utility.yul\":1259:1481   */\n    tag_36:\n        /* \"#utility.yul\":1352:1356   */\n      0x00\n        /* \"#utility.yul\":1390:1392   */\n      0x20\n        /* \"#utility.yul\":1379:1388   */\n      dup3\n        /* \"#utility.yul\":1375:1393   */\n      add\n        /* \"#utility.yul\":1367:1393   */\n      swap1\n      pop\n        /* \"#utility.yul\":1403:1474   */\n      tag_277\n        /* \"#utility.yul\":1471:1472   */\n      0x00\n        /* \"#utility.yul\":1460:1469   */\n      dup4\n        /* \"#utility.yul\":1456:1473   */\n      add\n        /* \"#utility.yul\":1447:1453   */\n      dup5\n        /* \"#utility.yul\":1403:1474   */\n      tag_223\n      jump\t// in\n    tag_277:\n        /* \"#utility.yul\":1259:1481   */\n      swap3\n      swap2\n      pop\n      pop\n      jump\t// out\n        /* \"#utility.yul\":1568:1685   */\n    tag_225:\n        /* \"#utility.yul\":1677:1678   */\n      0x00\n        /* \"#utility.yul\":1674:1675   */\n      dup1\n        /* \"#utility.yul\":1667:1679   */\n      revert\n        /* \"#utility.yul\":1814:1910   */\n    tag_227:\n        /* \"#utility.yul\":1851:1858   */\n      0x00\n        /* \"#utility.yul\":1880:1904   */\n      tag_282\n        /* \"#utility.yul\":1898:1903   */\n      dup3\n        /* \"#utility.yul\":1880:1904   */\n      tag_216\n      jump\t// in\n    tag_282:\n        /* \"#utility.yul\":1869:1904   */\n      swap1\n      pop\n        /* \"#utility.yul\":1814:1910   */\n      swap2\n      swap1\n      pop\n      jump\t// out\n        /* \"#utility.yul\":1916:2038   */\n    tag_228:\n        /* \"#utility.yul\":1989:2013   */\n      tag_284\n        /* \"#utility.yul\":2007:2012   */\n      dup2\n        /* \"#utility.yul\":1989:2013   */\n      tag_227\n      jump\t// in\n    tag_284:\n        /* \"#utility.yul\":1982:1987   */\n      dup2\n        /* \"#utility.yul\":1979:2014   */\n      eq\n        /* \"#utility.yul\":1969:2032   */\n      tag_285\n      jumpi\n        /* \"#utility.yul\":2028:2029   */\n      0x00\n        /* \"#utility.yul\":2025:2026   */\n      dup1\n        /* \"#utility.yul\":2018:2030   */\n      revert\n        /* \"#utility.yul\":1969:2032   */\n    tag_285:\n        /* \"#utility.yul\":1916:2038   */\n      pop\n      jump\t// out\n        /* \"#utility.yul\":2044:2183   */\n    tag_229:\n        /* \"#utility.yul\":2090:2095   */\n      0x00\n        /* \"#utility.yul\":2128:2134   */\n      dup2\n        /* \"#utility.yul\":2115:2135   */\n      calldataload\n        /* \"#utility.yul\":2106:2135   */\n      swap1\n      pop\n        /* \"#utility.yul\":2144:2177   */\n      tag_287\n        /* \"#utility.yul\":2171:2176   */\n      dup2\n        /* \"#utility.yul\":2144:2177   */\n      tag_228\n      jump\t// in\n    tag_287:\n        /* \"#utility.yul\":2044:2183   */\n      swap3\n      swap2\n      pop\n      pop\n      jump\t// out\n        /* \"#utility.yul\":2189:2518   */\n    tag_40:\n        /* \"#utility.yul\":2248:2254   */\n      0x00\n        /* \"#utility.yul\":2297:2299   */\n      0x20\n        /* \"#utility.yul\":2285:2294   */\n      dup3\n        /* \"#utility.yul\":2276:2283   */\n      dup5\n        /* \"#utility.yul\":2272:2295   */\n      sub\n        /* \"#utility.yul\":2268:2300   */\n      slt\n        /* \"#utility.yul\":2265:2384   */\n      iszero\n      tag_289\n      jumpi\n        /* \"#utility.yul\":2303:2382   */\n      tag_290\n      tag_225\n      jump\t// in\n    tag_290:\n        /* \"#utility.yul\":2265:2384   */\n    tag_289:\n        /* \"#utility.yul\":2423:2424   */\n      0x00\n        /* \"#utility.yul\":2448:2501   */\n      tag_291\n        /* \"#utility.yul\":2493:2500   */\n      dup5\n        /* \"#utility.yul\":2484:2490   */\n      dup3\n        /* \"#utility.yul\":2473:2482   */\n      dup6\n        /* \"#utility.yul\":2469:2491   */\n      add\n        /* \"#utility.yul\":2448:2501   */\n      tag_229\n      jump\t// in\n    tag_291:\n        /* \"#utility.yul\":2438:2501   */\n      swap2\n      pop\n        /* \"#utility.yul\":2394:2511   */\n      pop\n        /* \"#utility.yul\":2189:2518   */\n      swap3\n      swap2\n      pop\n      pop\n      jump\t// out\n        /* \"#utility.yul\":2524:2614   */\n    tag_230:\n        /* \"#utility.yul\":2558:2565   */\n      0x00\n        /* \"#utility.yul\":2601:2606   */\n      dup2\n        /* \"#utility.yul\":2594:2607   */\n      iszero\n        /* \"#utility.yul\":2587:2608   */\n      iszero\n        /* \"#utility.yul\":2576:2608   */\n      swap1\n      pop\n        /* \"#utility.yul\":2524:2614   */\n      swap2\n      swap1\n      pop\n      jump\t// out\n        /* \"#utility.yul\":2620:2729   */\n    tag_231:\n        /* \"#utility.yul\":2701:2722   */\n      tag_294\n        /* \"#utility.yul\":2716:2721   */\n      dup2\n        /* \"#utility.yul\":2701:2722   */\n      tag_230\n      jump\t// in\n    tag_294:\n        /* \"#utility.yul\":2696:2699   */\n      dup3\n        /* \"#utility.yul\":2689:2723   */\n      mstore\n        /* \"#utility.yul\":2620:2729   */\n      pop\n      pop\n      jump\t// out\n        /* \"#utility.yul\":2735:2945   */\n    tag_50:\n        /* \"#utility.yul\":2822:2826   */\n      0x00\n        /* \"#utility.yul\":2860:2862   */\n      0x20\n        /* \"#utility.yul\":2849:2858   */\n      dup3\n        /* \"#utility.yul\":2845:2863   */\n      add\n        /* \"#utility.yul\":2837:2863   */\n      swap1\n      pop\n        /* \"#utility.yul\":2873:2938   */\n      tag_296\n        /* \"#utility.yul\":2935:2936   */\n      0x00\n        /* \"#utility.yul\":2924:2933   */\n      dup4\n        /* \"#utility.yul\":2920:2937   */\n      add\n        /* \"#utility.yul\":2911:2917   */\n      dup5\n        /* \"#utility.yul\":2873:2938   */\n      tag_231\n      jump\t// in\n    tag_296:\n        /* \"#utility.yul\":2735:2945   */\n      swap3\n      swap2\n      pop\n      pop\n      jump\t// out\n        /* \"#utility.yul\":2951:3069   */\n    tag_232:\n        /* \"#utility.yul\":3038:3062   */\n      tag_298\n        /* \"#utility.yul\":3056:3061   */\n      dup2\n        /* \"#utility.yul\":3038:3062   */\n      tag_227\n      jump\t// in\n    tag_298:\n        /* \"#utility.yul\":3033:3036   */\n      dup3\n        /* \"#utility.yul\":3026:3063   */\n      mstore\n        /* \"#utility.yul\":2951:3069   */\n      pop\n      pop\n      jump\t// out\n        /* \"#utility.yul\":3075:3297   */\n    tag_71:\n        /* \"#utility.yul\":3168:3172   */\n      0x00\n        /* \"#utility.yul\":3206:3208   */\n      0x20\n        /* \"#utility.yul\":3195:3204   */\n      dup3\n        /* \"#utility.yul\":3191:3209   */\n      add\n        /* \"#utility.yul\":3183:3209   */\n      swap1\n      pop\n        /* \"#utility.yul\":3219:3290   */\n      tag_300\n        /* \"#utility.yul\":3287:3288   */\n      0x00\n        /* \"#utility.yul\":3276:3285   */\n      dup4\n        /* \"#utility.yul\":3272:3289   */\n      add\n        /* \"#utility.yul\":3263:3269   */\n      dup5\n        /* \"#utility.yul\":3219:3290   */\n      tag_232\n      jump\t// in\n    tag_300:\n        /* \"#utility.yul\":3075:3297   */\n      swap3\n      swap2\n      pop\n      pop\n      jump\t// out\n        /* \"#utility.yul\":3303:3419   */\n    tag_233:\n        /* \"#utility.yul\":3373:3394   */\n      tag_302\n        /* \"#utility.yul\":3388:3393   */\n      dup2\n        /* \"#utility.yul\":3373:3394   */\n      tag_230\n      jump\t// in\n    tag_302:\n        /* \"#utility.yul\":3366:3371   */\n      dup2\n        /* \"#utility.yul\":3363:3395   */\n      eq\n        /* \"#utility.yul\":3353:3413   */\n      tag_303\n      jumpi\n        /* \"#utility.yul\":3409:3410   */\n      0x00\n        /* \"#utility.yul\":3406:3407   */\n      dup1\n        /* \"#utility.yul\":3399:3411   */\n      revert\n        /* \"#utility.yul\":3353:3413   */\n    tag_303:\n        /* \"#utility.yul\":3303:3419   */\n      pop\n      jump\t// out\n        /* \"#utility.yul\":3425:3558   */\n    tag_234:\n        /* \"#utility.yul\":3468:3473   */\n      0x00\n        /* \"#utility.yul\":3506:3512   */\n      dup2\n        /* \"#utility.yul\":3493:3513   */\n      calldataload\n        /* \"#utility.yul\":3484:3513   */\n      swap1\n      pop\n        /* \"#utility.yul\":3522:3552   */\n      tag_305\n        /* \"#utility.yul\":3546:3551   */\n      dup2\n        /* \"#utility.yul\":3522:3552   */\n      tag_233\n      jump\t// in\n    tag_305:\n        /* \"#utility.yul\":3425:3558   */\n      swap3\n      swap2\n      pop\n      pop\n      jump\t// out\n        /* \"#utility.yul\":3564:3887   */\n    tag_84:\n        /* \"#utility.yul\":3620:3626   */\n      0x00\n        /* \"#utility.yul\":3669:3671   */\n      0x20\n        /* \"#utility.yul\":3657:3666   */\n      dup3\n        /* \"#utility.yul\":3648:3655   */\n      dup5\n        /* \"#utility.yul\":3644:3667   */\n      sub\n        /* \"#utility.yul\":3640:3672   */\n      slt\n        /* \"#utility.yul\":3637:3756   */\n      iszero\n      tag_307\n      jumpi\n        /* \"#utility.yul\":3675:3754   */\n      tag_308\n      tag_225\n      jump\t// in\n    tag_308:\n        /* \"#utility.yul\":3637:3756   */\n    tag_307:\n        /* \"#utility.yul\":3795:3796   */\n      0x00\n        /* \"#utility.yul\":3820:3870   */\n      tag_309\n        /* \"#utility.yul\":3862:3869   */\n      dup5\n        /* \"#utility.yul\":3853:3859   */\n      dup3\n        /* \"#utility.yul\":3842:3851   */\n      dup6\n        /* \"#utility.yul\":3838:3860   */\n      add\n        /* \"#utility.yul\":3820:3870   */\n      tag_234\n      jump\t// in\n    tag_309:\n        /* \"#utility.yul\":3810:3870   */\n      swap2\n      pop\n        /* \"#utility.yul\":3766:3880   */\n      pop\n        /* \"#utility.yul\":3564:3887   */\n      swap3\n      swap2\n      pop\n      pop\n      jump\t// out\n        /* \"#utility.yul\":3893:4062   */\n    tag_235:\n        /* \"#utility.yul\":3977:3988   */\n      0x00\n        /* \"#utility.yul\":4011:4017   */\n      dup3\n        /* \"#utility.yul\":4006:4009   */\n      dup3\n        /* \"#utility.yul\":3999:4018   */\n      mstore\n        /* \"#utility.yul\":4051:4055   */\n      0x20\n        /* \"#utility.yul\":4046:4049   */\n      dup3\n        /* \"#utility.yul\":4042:4056   */\n      add\n        /* \"#utility.yul\":4027:4056   */\n      swap1\n      pop\n        /* \"#utility.yul\":3893:4062   */\n      swap3\n      swap2\n      pop\n      pop\n      jump\t// out\n        /* \"#utility.yul\":4068:4234   */\n    tag_236:\n        /* \"#utility.yul\":4208:4226   */\n      0x4e6f7468696e6720746f20636c61696d00000000000000000000000000000000\n        /* \"#utility.yul\":4204:4205   */\n      0x00\n        /* \"#utility.yul\":4196:4202   */\n      dup3\n        /* \"#utility.yul\":4192:4206   */\n      add\n        /* \"#utility.yul\":4185:4227   */\n      mstore\n        /* \"#utility.yul\":4068:4234   */\n      pop\n      jump\t// out\n        /* \"#utility.yul\":4240:4606   */\n    tag_237:\n        /* \"#utility.yul\":4382:4385   */\n      0x00\n        /* \"#utility.yul\":4403:4470   */\n      tag_313\n        /* \"#utility.yul\":4467:4469   */\n      0x10\n        /* \"#utility.yul\":4462:4465   */\n      dup4\n        /* \"#utility.yul\":4403:4470   */\n      tag_235\n      jump\t// in\n    tag_313:\n        /* \"#utility.yul\":4396:4470   */\n      swap2\n      pop\n        /* \"#utility.yul\":4479:4572   */\n      tag_314\n        /* \"#utility.yul\":4568:4571   */\n      dup3\n        /* \"#utility.yul\":4479:4572   */\n      tag_236\n      jump\t// in\n    tag_314:\n        /* \"#utility.yul\":4597:4599   */\n      0x20\n        /* \"#utility.yul\":4592:4595   */\n      dup3\n        /* \"#utility.yul\":4588:4600   */\n      add\n        /* \"#utility.yul\":4581:4600   */\n      swap1\n      pop\n        /* \"#utility.yul\":4240:4606   */\n      swap2\n      swap1\n      pop\n      jump\t// out\n        /* \"#utility.yul\":4612:5031   */\n    tag_114:\n        /* \"#utility.yul\":4778:4782   */\n      0x00\n        /* \"#utility.yul\":4816:4818   */\n      0x20\n        /* \"#utility.yul\":4805:4814   */\n      dup3\n        /* \"#utility.yul\":4801:4819   */\n      add\n        /* \"#utility.yul\":4793:4819   */\n      swap1\n      pop\n        /* \"#utility.yul\":4865:4874   */\n      dup2\n        /* \"#utility.yul\":4859:4863   */\n      dup2\n        /* \"#utility.yul\":4855:4875   */\n      sub\n        /* \"#utility.yul\":4851:4852   */\n      0x00\n        /* \"#utility.yul\":4840:4849   */\n      dup4\n        /* \"#utility.yul\":4836:4853   */\n      add\n        /* \"#utility.yul\":4829:4876   */\n      mstore\n        /* \"#utility.yul\":4893:5024   */\n      tag_316\n        /* \"#utility.yul\":5019:5023   */\n      dup2\n        /* \"#utility.yul\":4893:5024   */\n      tag_237\n      jump\t// in\n    tag_316:\n        /* \"#utility.yul\":4885:5024   */\n      swap1\n      pop\n        /* \"#utility.yul\":4612:5031   */\n      swap2\n      swap1\n      pop\n      jump\t// out\n        /* \"#utility.yul\":5037:5159   */\n    tag_238:\n        /* \"#utility.yul\":5110:5134   */\n      tag_318\n        /* \"#utility.yul\":5128:5133   */\n      dup2\n        /* \"#utility.yul\":5110:5134   */\n      tag_222\n      jump\t// in\n    tag_318:\n        /* \"#utility.yul\":5103:5108   */\n      dup2\n        /* \"#utility.yul\":5100:5135   */\n      eq\n        /* \"#utility.yul\":5090:5153   */\n      tag_319\n      jumpi\n        /* \"#utility.yul\":5149:5150   */\n      0x00\n        /* \"#utility.yul\":5146:5147   */\n      dup1\n        /* \"#utility.yul\":5139:5151   */\n      revert\n        /* \"#utility.yul\":5090:5153   */\n    tag_319:\n        /* \"#utility.yul\":5037:5159   */\n      pop\n      jump\t// out\n        /* \"#utility.yul\":5165:5308   */\n    tag_239:\n        /* \"#utility.yul\":5222:5227   */\n      0x00\n        /* \"#utility.yul\":5253:5259   */\n      dup2\n        /* \"#utility.yul\":5247:5260   */\n      mload\n        /* \"#utility.yul\":5238:5260   */\n      swap1\n      pop\n        /* \"#utility.yul\":5269:5302   */\n      tag_321\n        /* \"#utility.yul\":5296:5301   */\n      dup2\n        /* \"#utility.yul\":5269:5302   */\n      tag_238\n      jump\t// in\n    tag_321:\n        /* \"#utility.yul\":5165:5308   */\n      swap3\n      swap2\n      pop\n      pop\n      jump\t// out\n        /* \"#utility.yul\":5314:5665   */\n    tag_133:\n        /* \"#utility.yul\":5384:5390   */\n      0x00\n        /* \"#utility.yul\":5433:5435   */\n      0x20\n        /* \"#utility.yul\":5421:5430   */\n      dup3\n        /* \"#utility.yul\":5412:5419   */\n      dup5\n        /* \"#utility.yul\":5408:5431   */\n      sub\n        /* \"#utility.yul\":5404:5436   */\n      slt\n        /* \"#utility.yul\":5401:5520   */\n      iszero\n      tag_323\n      jumpi\n        /* \"#utility.yul\":5439:5518   */\n      tag_324\n      tag_225\n      jump\t// in\n    tag_324:\n        /* \"#utility.yul\":5401:5520   */\n    tag_323:\n        /* \"#utility.yul\":5559:5560   */\n      0x00\n        /* \"#utility.yul\":5584:5648   */\n      tag_325\n        /* \"#utility.yul\":5640:5647   */\n      dup5\n        /* \"#utility.yul\":5631:5637   */\n      dup3\n        /* \"#utility.yul\":5620:5629   */\n      dup6\n        /* \"#utility.yul\":5616:5638   */\n      add\n        /* \"#utility.yul\":5584:5648   */\n      tag_239\n      jump\t// in\n    tag_325:\n        /* \"#utility.yul\":5574:5648   */\n      swap2\n      pop\n        /* \"#utility.yul\":5530:5658   */\n      pop\n        /* \"#utility.yul\":5314:5665   */\n      swap3\n      swap2\n      pop\n      pop\n      jump\t// out\n        /* \"#utility.yul\":5671:5830   */\n    tag_240:\n        /* \"#utility.yul\":5811:5822   */\n      0x4e6f20746f6b656e730000000000000000000000000000000000000000000000\n        /* \"#utility.yul\":5807:5808   */\n      0x00\n        /* \"#utility.yul\":5799:5805   */\n      dup3\n        /* \"#utility.yul\":5795:5809   */\n      add\n        /* \"#utility.yul\":5788:5823   */\n      mstore\n        /* \"#utility.yul\":5671:5830   */\n      pop\n      jump\t// out\n        /* \"#utility.yul\":5836:6201   */\n    tag_241:\n        /* \"#utility.yul\":5978:5981   */\n      0x00\n        /* \"#utility.yul\":5999:6065   */\n      tag_328\n        /* \"#utility.yul\":6063:6064   */\n      0x09\n        /* \"#utility.yul\":6058:6061   */\n      dup4\n        /* \"#utility.yul\":5999:6065   */\n      tag_235\n      jump\t// in\n    tag_328:\n        /* \"#utility.yul\":5992:6065   */\n      swap2\n      pop\n        /* \"#utility.yul\":6074:6167   */\n      tag_329\n        /* \"#utility.yul\":6163:6166   */\n      dup3\n        /* \"#utility.yul\":6074:6167   */\n      tag_240\n      jump\t// in\n    tag_329:\n        /* \"#utility.yul\":6192:6194   */\n      0x20\n        /* \"#utility.yul\":6187:6190   */\n      dup3\n        /* \"#utility.yul\":6183:6195   */\n      add\n        /* \"#utility.yul\":6176:6195   */\n      swap1\n      pop\n        /* \"#utility.yul\":5836:6201   */\n      swap2\n      swap1\n      pop\n      jump\t// out\n        /* \"#utility.yul\":6207:6626   */\n    tag_136:\n        /* \"#utility.yul\":6373:6377   */\n      0x00\n        /* \"#utility.yul\":6411:6413   */\n      0x20\n        /* \"#utility.yul\":6400:6409   */\n      dup3\n        /* \"#utility.yul\":6396:6414   */\n      add\n        /* \"#utility.yul\":6388:6414   */\n      swap1\n      pop\n        /* \"#utility.yul\":6460:6469   */\n      dup2\n        /* \"#utility.yul\":6454:6458   */\n      dup2\n        /* \"#utility.yul\":6450:6470   */\n      sub\n        /* \"#utility.yul\":6446:6447   */\n      0x00\n        /* \"#utility.yul\":6435:6444   */\n      dup4\n        /* \"#utility.yul\":6431:6448   */\n      add\n        /* \"#utility.yul\":6424:6471   */\n      mstore\n        /* \"#utility.yul\":6488:6619   */\n      tag_331\n        /* \"#utility.yul\":6614:6618   */\n      dup2\n        /* \"#utility.yul\":6488:6619   */\n      tag_241\n      jump\t// in\n    tag_331:\n        /* \"#utility.yul\":6480:6619   */\n      swap1\n      pop\n        /* \"#utility.yul\":6207:6626   */\n      swap2\n      swap1\n      pop\n      jump\t// out\n        /* \"#utility.yul\":6632:6800   */\n    tag_242:\n        /* \"#utility.yul\":6772:6792   */\n      0x50726573616c65206e6f74206163746976650000000000000000000000000000\n        /* \"#utility.yul\":6768:6769   */\n      0x00\n        /* \"#utility.yul\":6760:6766   */\n      dup3\n        /* \"#utility.yul\":6756:6770   */\n      add\n        /* \"#utility.yul\":6749:6793   */\n      mstore\n        /* \"#utility.yul\":6632:6800   */\n      pop\n      jump\t// out\n        /* \"#utility.yul\":6806:7172   */\n    tag_243:\n        /* \"#utility.yul\":6948:6951   */\n      0x00\n        /* \"#utility.yul\":6969:7036   */\n      tag_334\n        /* \"#utility.yul\":7033:7035   */\n      0x12\n        /* \"#utility.yul\":7028:7031   */\n      dup4\n        /* \"#utility.yul\":6969:7036   */\n      tag_235\n      jump\t// in\n    tag_334:\n        /* \"#utility.yul\":6962:7036   */\n      swap2\n      pop\n        /* \"#utility.yul\":7045:7138   */\n      tag_335\n        /* \"#utility.yul\":7134:7137   */\n      dup3\n        /* \"#utility.yul\":7045:7138   */\n      tag_242\n      jump\t// in\n    tag_335:\n        /* \"#utility.yul\":7163:7165   */\n      0x20\n        /* \"#utility.yul\":7158:7161   */\n      dup3\n        /* \"#utility.yul\":7154:7166   */\n      add\n        /* \"#utility.yul\":7147:7166   */\n      swap1\n      pop\n        /* \"#utility.yul\":6806:7172   */\n      swap2\n      swap1\n      pop\n      jump\t// out\n        /* \"#utility.yul\":7178:7597   */\n    tag_145:\n        /* \"#utility.yul\":7344:7348   */\n      0x00\n        /* \"#utility.yul\":7382:7384   */\n      0x20\n        /* \"#utility.yul\":7371:7380   */\n      dup3\n        /* \"#utility.yul\":7367:7385   */\n      add\n        /* \"#utility.yul\":7359:7385   */\n      swap1\n      pop\n        /* \"#utility.yul\":7431:7440   */\n      dup2\n        /* \"#utility.yul\":7425:7429   */\n      dup2\n        /* \"#utility.yul\":7421:7441   */\n      sub\n        /* \"#utility.yul\":7417:7418   */\n      0x00\n        /* \"#utility.yul\":7406:7415   */\n      dup4\n        /* \"#utility.yul\":7402:7419   */\n      add\n        /* \"#utility.yul\":7395:7442   */\n      mstore\n        /* \"#utility.yul\":7459:7590   */\n      tag_337\n        /* \"#utility.yul\":7585:7589   */\n      dup2\n        /* \"#utility.yul\":7459:7590   */\n      tag_243\n      jump\t// in\n    tag_337:\n        /* \"#utility.yul\":7451:7590   */\n      swap1\n      pop\n        /* \"#utility.yul\":7178:7597   */\n      swap2\n      swap1\n      pop\n      jump\t// out\n        /* \"#utility.yul\":7603:7767   */\n    tag_244:\n        /* \"#utility.yul\":7743:7759   */\n      0x50726573616c6520706175736564000000000000000000000000000000000000\n        /* \"#utility.yul\":7739:7740   */\n      0x00\n        /* \"#utility.yul\":7731:7737   */\n      dup3\n        /* \"#utility.yul\":7727:7741   */\n      add\n        /* \"#utility.yul\":7720:7760   */\n      mstore\n        /* \"#utility.yul\":7603:7767   */\n      pop\n      jump\t// out\n        /* \"#utility.yul\":7773:8139   */\n    tag_245:\n        /* \"#utility.yul\":7915:7918   */\n      0x00\n        /* \"#utility.yul\":7936:8003   */\n      tag_340\n        /* \"#utility.yul\":8000:8002   */\n      0x0e\n        /* \"#utility.yul\":7995:7998   */\n      dup4\n        /* \"#utility.yul\":7936:8003   */\n      tag_235\n      jump\t// in\n    tag_340:\n        /* \"#utility.yul\":7929:8003   */\n      swap2\n      pop\n        /* \"#utility.yul\":8012:8105   */\n      tag_341\n        /* \"#utility.yul\":8101:8104   */\n      dup3\n        /* \"#utility.yul\":8012:8105   */\n      tag_244\n      jump\t// in\n    tag_341:\n        /* \"#utility.yul\":8130:8132   */\n      0x20\n        /* \"#utility.yul\":8125:8128   */\n      dup3\n        /* \"#utility.yul\":8121:8133   */\n      add\n        /* \"#utility.yul\":8114:8133   */\n      swap1\n      pop\n        /* \"#utility.yul\":7773:8139   */\n      swap2\n      swap1\n      pop\n      jump\t// out\n        /* \"#utility.yul\":8145:8564   */\n    tag_148:\n        /* \"#utility.yul\":8311:8315   */\n      0x00\n        /* \"#utility.yul\":8349:8351   */\n      0x20\n        /* \"#utility.yul\":8338:8347   */\n      dup3\n        /* \"#utility.yul\":8334:8352   */\n      add\n        /* \"#utility.yul\":8326:8352   */\n      swap1\n      pop\n        /* \"#utility.yul\":8398:8407   */\n      dup2\n        /* \"#utility.yul\":8392:8396   */\n      dup2\n        /* \"#utility.yul\":8388:8408   */\n      sub\n        /* \"#utility.yul\":8384:8385   */\n      0x00\n        /* \"#utility.yul\":8373:8382   */\n      dup4\n        /* \"#utility.yul\":8369:8386   */\n      add\n        /* \"#utility.yul\":8362:8409   */\n      mstore\n        /* \"#utility.yul\":8426:8557   */\n      tag_343\n        /* \"#utility.yul\":8552:8556   */\n      dup2\n        /* \"#utility.yul\":8426:8557   */\n      tag_245\n      jump\t// in\n    tag_343:\n        /* \"#utility.yul\":8418:8557   */\n      swap1\n      pop\n        /* \"#utility.yul\":8145:8564   */\n      swap2\n      swap1\n      pop\n      jump\t// out\n        /* \"#utility.yul\":8570:8730   */\n    tag_246:\n        /* \"#utility.yul\":8710:8722   */\n      0x53656e64204d4154494300000000000000000000000000000000000000000000\n        /* \"#utility.yul\":8706:8707   */\n      0x00\n        /* \"#utility.yul\":8698:8704   */\n      dup3\n        /* \"#utility.yul\":8694:8708   */\n      add\n        /* \"#utility.yul\":8687:8723   */\n      mstore\n        /* \"#utility.yul\":8570:8730   */\n      pop\n      jump\t// out\n        /* \"#utility.yul\":8736:9102   */\n    tag_247:\n        /* \"#utility.yul\":8878:8881   */\n      0x00\n        /* \"#utility.yul\":8899:8966   */\n      tag_346\n        /* \"#utility.yul\":8963:8965   */\n      0x0a\n        /* \"#utility.yul\":8958:8961   */\n      dup4\n        /* \"#utility.yul\":8899:8966   */\n      tag_235\n      jump\t// in\n    tag_346:\n        /* \"#utility.yul\":8892:8966   */\n      swap2\n      pop\n        /* \"#utility.yul\":8975:9068   */\n      tag_347\n        /* \"#utility.yul\":9064:9067   */\n      dup3\n        /* \"#utility.yul\":8975:9068   */\n      tag_246\n      jump\t// in\n    tag_347:\n        /* \"#utility.yul\":9093:9095   */\n      0x20\n        /* \"#utility.yul\":9088:9091   */\n      dup3\n        /* \"#utility.yul\":9084:9096   */\n      add\n        /* \"#utility.yul\":9077:9096   */\n      swap1\n      pop\n        /* \"#utility.yul\":8736:9102   */\n      swap2\n      swap1\n      pop\n      jump\t// out\n        /* \"#utility.yul\":9108:9527   */\n    tag_152:\n        /* \"#utility.yul\":9274:9278   */\n      0x00\n        /* \"#utility.yul\":9312:9314   */\n      0x20\n        /* \"#utility.yul\":9301:9310   */\n      dup3\n        /* \"#utility.yul\":9297:9315   */\n      add\n        /* \"#utility.yul\":9289:9315   */\n      swap1\n      pop\n        /* \"#utility.yul\":9361:9370   */\n      dup2\n        /* \"#utility.yul\":9355:9359   */\n      dup2\n        /* \"#utility.yul\":9351:9371   */\n      sub\n        /* \"#utility.yul\":9347:9348   */\n      0x00\n        /* \"#utility.yul\":9336:9345   */\n      dup4\n        /* \"#utility.yul\":9332:9349   */\n      add\n        /* \"#utility.yul\":9325:9372   */\n      mstore\n        /* \"#utility.yul\":9389:9520   */\n      tag_349\n        /* \"#utility.yul\":9515:9519   */\n      dup2\n        /* \"#utility.yul\":9389:9520   */\n      tag_247\n      jump\t// in\n    tag_349:\n        /* \"#utility.yul\":9381:9520   */\n      swap1\n      pop\n        /* \"#utility.yul\":9108:9527   */\n      swap2\n      swap1\n      pop\n      jump\t// out\n        /* \"#utility.yul\":9533:9713   */\n    tag_248:\n        /* \"#utility.yul\":9581:9658   */\n      0x4e487b7100000000000000000000000000000000000000000000000000000000\n        /* \"#utility.yul\":9578:9579   */\n      0x00\n        /* \"#utility.yul\":9571:9659   */\n      mstore\n        /* \"#utility.yul\":9678:9682   */\n      0x11\n        /* \"#utility.yul\":9675:9676   */\n      0x04\n        /* \"#utility.yul\":9668:9683   */\n      mstore\n        /* \"#utility.yul\":9702:9706   */\n      0x24\n        /* \"#utility.yul\":9699:9700   */\n      0x00\n        /* \"#utility.yul\":9692:9707   */\n      revert\n        /* \"#utility.yul\":9719:9910   */\n    tag_154:\n        /* \"#utility.yul\":9759:9762   */\n      0x00\n        /* \"#utility.yul\":9778:9798   */\n      tag_352\n        /* \"#utility.yul\":9796:9797   */\n      dup3\n        /* \"#utility.yul\":9778:9798   */\n      tag_222\n      jump\t// in\n    tag_352:\n        /* \"#utility.yul\":9773:9798   */\n      swap2\n      pop\n        /* \"#utility.yul\":9812:9832   */\n      tag_353\n        /* \"#utility.yul\":9830:9831   */\n      dup4\n        /* \"#utility.yul\":9812:9832   */\n      tag_222\n      jump\t// in\n    tag_353:\n        /* \"#utility.yul\":9807:9832   */\n      swap3\n      pop\n        /* \"#utility.yul\":9855:9856   */\n      dup3\n        /* \"#utility.yul\":9852:9853   */\n      dup3\n        /* \"#utility.yul\":9848:9857   */\n      add\n        /* \"#utility.yul\":9841:9857   */\n      swap1\n      pop\n        /* \"#utility.yul\":9876:9879   */\n      dup1\n        /* \"#utility.yul\":9873:9874   */\n      dup3\n        /* \"#utility.yul\":9870:9880   */\n      gt\n        /* \"#utility.yul\":9867:9903   */\n      iszero\n      tag_354\n      jumpi\n        /* \"#utility.yul\":9883:9901   */\n      tag_355\n      tag_248\n      jump\t// in\n    tag_355:\n        /* \"#utility.yul\":9867:9903   */\n    tag_354:\n        /* \"#utility.yul\":9719:9910   */\n      swap3\n      swap2\n      pop\n      pop\n      jump\t// out\n        /* \"#utility.yul\":9916:10081   */\n    tag_249:\n        /* \"#utility.yul\":10056:10073   */\n      0x4578636565647320686172646361700000000000000000000000000000000000\n        /* \"#utility.yul\":10052:10053   */\n      0x00\n        /* \"#utility.yul\":10044:10050   */\n      dup3\n        /* \"#utility.yul\":10040:10054   */\n      add\n        /* \"#utility.yul\":10033:10074   */\n      mstore\n        /* \"#utility.yul\":9916:10081   */\n      pop\n      jump\t// out\n        /* \"#utility.yul\":10087:10453   */\n    tag_250:\n        /* \"#utility.yul\":10229:10232   */\n      0x00\n        /* \"#utility.yul\":10250:10317   */\n      tag_358\n        /* \"#utility.yul\":10314:10316   */\n      0x0f\n        /* \"#utility.yul\":10309:10312   */\n      dup4\n        /* \"#utility.yul\":10250:10317   */\n      tag_235\n      jump\t// in\n    tag_358:\n        /* \"#utility.yul\":10243:10317   */\n      swap2\n      pop\n        /* \"#utility.yul\":10326:10419   */\n      tag_359\n        /* \"#utility.yul\":10415:10418   */\n      dup3\n        /* \"#utility.yul\":10326:10419   */\n      tag_249\n      jump\t// in\n    tag_359:\n        /* \"#utility.yul\":10444:10446   */\n      0x20\n        /* \"#utility.yul\":10439:10442   */\n      dup3\n        /* \"#utility.yul\":10435:10447   */\n      add\n        /* \"#utility.yul\":10428:10447   */\n      swap1\n      pop\n        /* \"#utility.yul\":10087:10453   */\n      swap2\n      swap1\n      pop\n      jump\t// out\n        /* \"#utility.yul\":10459:10878   */\n    tag_157:\n        /* \"#utility.yul\":10625:10629   */\n      0x00\n        /* \"#utility.yul\":10663:10665   */\n      0x20\n        /* \"#utility.yul\":10652:10661   */\n      dup3\n        /* \"#utility.yul\":10648:10666   */\n      add\n        /* \"#utility.yul\":10640:10666   */\n      swap1\n      pop\n        /* \"#utility.yul\":10712:10721   */\n      dup2\n        /* \"#utility.yul\":10706:10710   */\n      dup2\n        /* \"#utility.yul\":10702:10722   */\n      sub\n        /* \"#utility.yul\":10698:10699   */\n      0x00\n        /* \"#utility.yul\":10687:10696   */\n      dup4\n        /* \"#utility.yul\":10683:10700   */\n      add\n        /* \"#utility.yul\":10676:10723   */\n      mstore\n        /* \"#utility.yul\":10740:10871   */\n      tag_361\n        /* \"#utility.yul\":10866:10870   */\n      dup2\n        /* \"#utility.yul\":10740:10871   */\n      tag_250\n      jump\t// in\n    tag_361:\n        /* \"#utility.yul\":10732:10871   */\n      swap1\n      pop\n        /* \"#utility.yul\":10459:10878   */\n      swap2\n      swap1\n      pop\n      jump\t// out\n        /* \"#utility.yul\":10884:11294   */\n    tag_159:\n        /* \"#utility.yul\":10924:10931   */\n      0x00\n        /* \"#utility.yul\":10947:10967   */\n      tag_363\n        /* \"#utility.yul\":10965:10966   */\n      dup3\n        /* \"#utility.yul\":10947:10967   */\n      tag_222\n      jump\t// in\n    tag_363:\n        /* \"#utility.yul\":10942:10967   */\n      swap2\n      pop\n        /* \"#utility.yul\":10981:11001   */\n      tag_364\n        /* \"#utility.yul\":10999:11000   */\n      dup4\n        /* \"#utility.yul\":10981:11001   */\n      tag_222\n      jump\t// in\n    tag_364:\n        /* \"#utility.yul\":10976:11001   */\n      swap3\n      pop\n        /* \"#utility.yul\":11036:11037   */\n      dup3\n        /* \"#utility.yul\":11033:11034   */\n      dup3\n        /* \"#utility.yul\":11029:11038   */\n      mul\n        /* \"#utility.yul\":11058:11088   */\n      tag_365\n        /* \"#utility.yul\":11076:11087   */\n      dup2\n        /* \"#utility.yul\":11058:11088   */\n      tag_222\n      jump\t// in\n    tag_365:\n        /* \"#utility.yul\":11047:11088   */\n      swap2\n      pop\n        /* \"#utility.yul\":11237:11238   */\n      dup3\n        /* \"#utility.yul\":11228:11235   */\n      dup3\n        /* \"#utility.yul\":11224:11239   */\n      div\n        /* \"#utility.yul\":11221:11222   */\n      dup5\n        /* \"#utility.yul\":11218:11240   */\n      eq\n        /* \"#utility.yul\":11198:11199   */\n      dup4\n        /* \"#utility.yul\":11191:11200   */\n      iszero\n        /* \"#utility.yul\":11171:11254   */\n      or\n        /* \"#utility.yul\":11148:11287   */\n      tag_366\n      jumpi\n        /* \"#utility.yul\":11267:11285   */\n      tag_367\n      tag_248\n      jump\t// in\n    tag_367:\n        /* \"#utility.yul\":11148:11287   */\n    tag_366:\n        /* \"#utility.yul\":10932:11294   */\n      pop\n        /* \"#utility.yul\":10884:11294   */\n      swap3\n      swap2\n      pop\n      pop\n      jump\t// out\n        /* \"#utility.yul\":11300:11480   */\n    tag_251:\n        /* \"#utility.yul\":11348:11425   */\n      0x4e487b7100000000000000000000000000000000000000000000000000000000\n        /* \"#utility.yul\":11345:11346   */\n      0x00\n        /* \"#utility.yul\":11338:11426   */\n      mstore\n        /* \"#utility.yul\":11445:11449   */\n      0x12\n        /* \"#utility.yul\":11442:11443   */\n      0x04\n        /* \"#utility.yul\":11435:11450   */\n      mstore\n        /* \"#utility.yul\":11469:11473   */\n      0x24\n        /* \"#utility.yul\":11466:11467   */\n      0x00\n        /* \"#utility.yul\":11459:11474   */\n      revert\n        /* \"#utility.yul\":11486:11671   */\n    tag_161:\n        /* \"#utility.yul\":11526:11527   */\n      0x00\n        /* \"#utility.yul\":11543:11563   */\n      tag_370\n        /* \"#utility.yul\":11561:11562   */\n      dup3\n        /* \"#utility.yul\":11543:11563   */\n      tag_222\n      jump\t// in\n    tag_370:\n        /* \"#utility.yul\":11538:11563   */\n      swap2\n      pop\n        /* \"#utility.yul\":11577:11597   */\n      tag_371\n        /* \"#utility.yul\":11595:11596   */\n      dup4\n        /* \"#utility.yul\":11577:11597   */\n      tag_222\n      jump\t// in\n    tag_371:\n        /* \"#utility.yul\":11572:11597   */\n      swap3\n      pop\n        /* \"#utility.yul\":11616:11617   */\n      dup3\n        /* \"#utility.yul\":11606:11641   */\n      tag_372\n      jumpi\n        /* \"#utility.yul\":11621:11639   */\n      tag_373\n      tag_251\n      jump\t// in\n    tag_373:\n        /* \"#utility.yul\":11606:11641   */\n    tag_372:\n        /* \"#utility.yul\":11663:11664   */\n      dup3\n        /* \"#utility.yul\":11660:11661   */\n      dup3\n        /* \"#utility.yul\":11656:11665   */\n      div\n        /* \"#utility.yul\":11651:11665   */\n      swap1\n      pop\n        /* \"#utility.yul\":11486:11671   */\n      swap3\n      swap2\n      pop\n      pop\n      jump\t// out\n        /* \"#utility.yul\":11677:12009   */\n    tag_166:\n        /* \"#utility.yul\":11798:11802   */\n      0x00\n        /* \"#utility.yul\":11836:11838   */\n      0x40\n        /* \"#utility.yul\":11825:11834   */\n      dup3\n        /* \"#utility.yul\":11821:11839   */\n      add\n        /* \"#utility.yul\":11813:11839   */\n      swap1\n      pop\n        /* \"#utility.yul\":11849:11920   */\n      tag_375\n        /* \"#utility.yul\":11917:11918   */\n      0x00\n        /* \"#utility.yul\":11906:11915   */\n      dup4\n        /* \"#utility.yul\":11902:11919   */\n      add\n        /* \"#utility.yul\":11893:11899   */\n      dup6\n        /* \"#utility.yul\":11849:11920   */\n      tag_223\n      jump\t// in\n    tag_375:\n        /* \"#utility.yul\":11930:12002   */\n      tag_376\n        /* \"#utility.yul\":11998:12000   */\n      0x20\n        /* \"#utility.yul\":11987:11996   */\n      dup4\n        /* \"#utility.yul\":11983:12001   */\n      add\n        /* \"#utility.yul\":11974:11980   */\n      dup5\n        /* \"#utility.yul\":11930:12002   */\n      tag_223\n      jump\t// in\n    tag_376:\n        /* \"#utility.yul\":11677:12009   */\n      swap4\n      swap3\n      pop\n      pop\n      pop\n      jump\t// out\n        /* \"#utility.yul\":12015:12175   */\n    tag_252:\n        /* \"#utility.yul\":12155:12167   */\n      0x4e6f742070617573656400000000000000000000000000000000000000000000\n        /* \"#utility.yul\":12151:12152   */\n      0x00\n        /* \"#utility.yul\":12143:12149   */\n      dup3\n        /* \"#utility.yul\":12139:12153   */\n      add\n        /* \"#utility.yul\":12132:12168   */\n      mstore\n        /* \"#utility.yul\":12015:12175   */\n      pop\n      jump\t// out\n        /* \"#utility.yul\":12181:12547   */\n    tag_253:\n        /* \"#utility.yul\":12323:12326   */\n      0x00\n        /* \"#utility.yul\":12344:12411   */\n      tag_379\n        /* \"#utility.yul\":12408:12410   */\n      0x0a\n        /* \"#utility.yul\":12403:12406   */\n      dup4\n        /* \"#utility.yul\":12344:12411   */\n      tag_235\n      jump\t// in\n    tag_379:\n        /* \"#utility.yul\":12337:12411   */\n      swap2\n      pop\n        /* \"#utility.yul\":12420:12513   */\n      tag_380\n        /* \"#utility.yul\":12509:12512   */\n      dup3\n        /* \"#utility.yul\":12420:12513   */\n      tag_252\n      jump\t// in\n    tag_380:\n        /* \"#utility.yul\":12538:12540   */\n      0x20\n        /* \"#utility.yul\":12533:12536   */\n      dup3\n        /* \"#utility.yul\":12529:12541   */\n      add\n        /* \"#utility.yul\":12522:12541   */\n      swap1\n      pop\n        /* \"#utility.yul\":12181:12547   */\n      swap2\n      swap1\n      pop\n      jump\t// out\n        /* \"#utility.yul\":12553:12972   */\n    tag_177:\n        /* \"#utility.yul\":12719:12723   */\n      0x00\n        /* \"#utility.yul\":12757:12759   */\n      0x20\n        /* \"#utility.yul\":12746:12755   */\n      dup3\n        /* \"#utility.yul\":12742:12760   */\n      add\n        /* \"#utility.yul\":12734:12760   */\n      swap1\n      pop\n        /* \"#utility.yul\":12806:12815   */\n      dup2\n        /* \"#utility.yul\":12800:12804   */\n      dup2\n        /* \"#utility.yul\":12796:12816   */\n      sub\n        /* \"#utility.yul\":12792:12793   */\n      0x00\n        /* \"#utility.yul\":12781:12790   */\n      dup4\n        /* \"#utility.yul\":12777:12794   */\n      add\n        /* \"#utility.yul\":12770:12817   */\n      mstore\n        /* \"#utility.yul\":12834:12965   */\n      tag_382\n        /* \"#utility.yul\":12960:12964   */\n      dup2\n        /* \"#utility.yul\":12834:12965   */\n      tag_253\n      jump\t// in\n    tag_382:\n        /* \"#utility.yul\":12826:12965   */\n      swap1\n      pop\n        /* \"#utility.yul\":12553:12972   */\n      swap2\n      swap1\n      pop\n      jump\t// out\n        /* \"#utility.yul\":12978:13145   */\n    tag_254:\n        /* \"#utility.yul\":13118:13137   */\n      0x4e6f7468696e6720746f20726566756e64000000000000000000000000000000\n        /* \"#utility.yul\":13114:13115   */\n      0x00\n        /* \"#utility.yul\":13106:13112   */\n      dup3\n        /* \"#utility.yul\":13102:13116   */\n      add\n        /* \"#utility.yul\":13095:13138   */\n      mstore\n        /* \"#utility.yul\":12978:13145   */\n      pop\n      jump\t// out\n        /* \"#utility.yul\":13151:13517   */\n    tag_255:\n        /* \"#utility.yul\":13293:13296   */\n      0x00\n        /* \"#utility.yul\":13314:13381   */\n      tag_385\n        /* \"#utility.yul\":13378:13380   */\n      0x11\n        /* \"#utility.yul\":13373:13376   */\n      dup4\n        /* \"#utility.yul\":13314:13381   */\n      tag_235\n      jump\t// in\n    tag_385:\n        /* \"#utility.yul\":13307:13381   */\n      swap2\n      pop\n        /* \"#utility.yul\":13390:13483   */\n      tag_386\n        /* \"#utility.yul\":13479:13482   */\n      dup3\n        /* \"#utility.yul\":13390:13483   */\n      tag_254\n      jump\t// in\n    tag_386:\n        /* \"#utility.yul\":13508:13510   */\n      0x20\n        /* \"#utility.yul\":13503:13506   */\n      dup3\n        /* \"#utility.yul\":13499:13511   */\n      add\n        /* \"#utility.yul\":13492:13511   */\n      swap1\n      pop\n        /* \"#utility.yul\":13151:13517   */\n      swap2\n      swap1\n      pop\n      jump\t// out\n        /* \"#utility.yul\":13523:13942   */\n    tag_180:\n        /* \"#utility.yul\":13689:13693   */\n      0x00\n        /* \"#utility.yul\":13727:13729   */\n      0x20\n        /* \"#utility.yul\":13716:13725   */\n      dup3\n        /* \"#utility.yul\":13712:13730   */\n      add\n        /* \"#utility.yul\":13704:13730   */\n      swap1\n      pop\n        /* \"#utility.yul\":13776:13785   */\n      dup2\n        /* \"#utility.yul\":13770:13774   */\n      dup2\n        /* \"#utility.yul\":13766:13786   */\n      sub\n        /* \"#utility.yul\":13762:13763   */\n      0x00\n        /* \"#utility.yul\":13751:13760   */\n      dup4\n        /* \"#utility.yul\":13747:13764   */\n      add\n        /* \"#utility.yul\":13740:13787   */\n      mstore\n        /* \"#utility.yul\":13804:13935   */\n      tag_388\n        /* \"#utility.yul\":13930:13934   */\n      dup2\n        /* \"#utility.yul\":13804:13935   */\n      tag_255\n      jump\t// in\n    tag_388:\n        /* \"#utility.yul\":13796:13935   */\n      swap1\n      pop\n        /* \"#utility.yul\":13523:13942   */\n      swap2\n      swap1\n      pop\n      jump\t// out\n        /* \"#utility.yul\":13948:14129   */\n    tag_256:\n        /* \"#utility.yul\":14088:14121   */\n      0x5265656e7472616e637947756172643a207265656e7472616e742063616c6c00\n        /* \"#utility.yul\":14084:14085   */\n      0x00\n        /* \"#utility.yul\":14076:14082   */\n      dup3\n        /* \"#utility.yul\":14072:14086   */\n      add\n        /* \"#utility.yul\":14065:14122   */\n      mstore\n        /* \"#utility.yul\":13948:14129   */\n      pop\n      jump\t// out\n        /* \"#utility.yul\":14135:14501   */\n    tag_257:\n        /* \"#utility.yul\":14277:14280   */\n      0x00\n        /* \"#utility.yul\":14298:14365   */\n      tag_391\n        /* \"#utility.yul\":14362:14364   */\n      0x1f\n        /* \"#utility.yul\":14357:14360   */\n      dup4\n        /* \"#utility.yul\":14298:14365   */\n      tag_235\n      jump\t// in\n    tag_391:\n        /* \"#utility.yul\":14291:14365   */\n      swap2\n      pop\n        /* \"#utility.yul\":14374:14467   */\n      tag_392\n        /* \"#utility.yul\":14463:14466   */\n      dup3\n        /* \"#utility.yul\":14374:14467   */\n      tag_256\n      jump\t// in\n    tag_392:\n        /* \"#utility.yul\":14492:14494   */\n      0x20\n        /* \"#utility.yul\":14487:14490   */\n      dup3\n        /* \"#utility.yul\":14483:14495   */\n      add\n        /* \"#utility.yul\":14476:14495   */\n      swap1\n      pop\n        /* \"#utility.yul\":14135:14501   */\n      swap2\n      swap1\n      pop\n      jump\t// out\n        /* \"#utility.yul\":14507:14926   */\n    tag_201:\n        /* \"#utility.yul\":14673:14677   */\n      0x00\n        /* \"#utility.yul\":14711:14713   */\n      0x20\n        /* \"#utility.yul\":14700:14709   */\n      dup3\n        /* \"#utility.yul\":14696:14714   */\n      add\n        /* \"#utility.yul\":14688:14714   */\n      swap1\n      pop\n        /* \"#utility.yul\":14760:14769   */\n      dup2\n        /* \"#utility.yul\":14754:14758   */\n      dup2\n        /* \"#utility.yul\":14750:14770   */\n      sub\n        /* \"#utility.yul\":14746:14747   */\n      0x00\n        /* \"#utility.yul\":14735:14744   */\n      dup4\n        /* \"#utility.yul\":14731:14748   */\n      add\n        /* \"#utility.yul\":14724:14771   */\n      mstore\n        /* \"#utility.yul\":14788:14919   */\n      tag_394\n        /* \"#utility.yul\":14914:14918   */\n      dup2\n        /* \"#utility.yul\":14788:14919   */\n      tag_257\n      jump\t// in\n    tag_394:\n        /* \"#utility.yul\":14780:14919   */\n      swap1\n      pop\n        /* \"#utility.yul\":14507:14926   */\n      swap2\n      swap1\n      pop\n      jump\t// out\n        /* \"#utility.yul\":14932:15264   */\n    tag_205:\n        /* \"#utility.yul\":15053:15057   */\n      0x00\n        /* \"#utility.yul\":15091:15093   */\n      0x40\n        /* \"#utility.yul\":15080:15089   */\n      dup3\n        /* \"#utility.yul\":15076:15094   */\n      add\n        /* \"#utility.yul\":15068:15094   */\n      swap1\n      pop\n        /* \"#utility.yul\":15104:15175   */\n      tag_396\n        /* \"#utility.yul\":15172:15173   */\n      0x00\n        /* \"#utility.yul\":15161:15170   */\n      dup4\n        /* \"#utility.yul\":15157:15174   */\n      add\n        /* \"#utility.yul\":15148:15154   */\n      dup6\n        /* \"#utility.yul\":15104:15175   */\n      tag_232\n      jump\t// in\n    tag_396:\n        /* \"#utility.yul\":15185:15257   */\n      tag_397\n        /* \"#utility.yul\":15253:15255   */\n      0x20\n        /* \"#utility.yul\":15242:15251   */\n      dup4\n        /* \"#utility.yul\":15238:15256   */\n      add\n        /* \"#utility.yul\":15229:15235   */\n      dup5\n        /* \"#utility.yul\":15185:15257   */\n      tag_223\n      jump\t// in\n    tag_397:\n        /* \"#utility.yul\":14932:15264   */\n      swap4\n      swap3\n      pop\n      pop\n      pop\n      jump\t// out\n\n    auxdata: 0xa2646970667358221220bbc51c86d0b54d19665b02248b040d251bdb9df51e9b1baa2c9e1a936260606264736f6c63430008180033\n}\n",
				"bytecode": {
					"linkReferences": {},
					"object": "608060405234801562000010575f80fd5b5060405162001ea938038062001ea983398181016040528101906200003691906200041f565b805f73ffffffffffffffffffffffffffffffffffffffff168173ffffffffffffffffffffffffffffffffffffffff1603620000aa575f6040517f1e4fbdf7000000000000000000000000000000000000000000000000000000008152600401620000a19190620004c8565b60405180910390fd5b620000bb81620002c160201b60201c565b50600180819055505f73ffffffffffffffffffffffffffffffffffffffff168673ffffffffffffffffffffffffffffffffffffffff160362000134576040517f08c379a00000000000000000000000000000000000000000000000000000000081526004016200012b9062000541565b60405180910390fd5b82841062000179576040517f08c379a00000000000000000000000000000000000000000000000000000000081526004016200017090620005af565b60405180910390fd5b62278d0084846200018b9190620005fc565b1115620001cf576040517f08c379a0000000000000000000000000000000000000000000000000000000008152600401620001c69062000684565b60405180910390fd5b5f851162000214576040517f08c379a00000000000000000000000000000000000000000000000000000000081526004016200020b90620006f2565b60405180910390fd5b5f821162000259576040517f08c379a0000000000000000000000000000000000000000000000000000000008152600401620002509062000760565b60405180910390fd5b8560025f6101000a81548173ffffffffffffffffffffffffffffffffffffffff021916908373ffffffffffffffffffffffffffffffffffffffff1602179055508460038190555083600481905550826005819055508160068190555050505050505062000780565b5f805f9054906101000a900473ffffffffffffffffffffffffffffffffffffffff169050815f806101000a81548173ffffffffffffffffffffffffffffffffffffffff021916908373ffffffffffffffffffffffffffffffffffffffff1602179055508173ffffffffffffffffffffffffffffffffffffffff168173ffffffffffffffffffffffffffffffffffffffff167f8be0079c531659141344cd1fd0a4f28419497f9722a3daafe3b4186f6b6457e060405160405180910390a35050565b5f80fd5b5f73ffffffffffffffffffffffffffffffffffffffff82169050919050565b5f620003b18262000386565b9050919050565b620003c381620003a5565b8114620003ce575f80fd5b50565b5f81519050620003e181620003b8565b92915050565b5f819050919050565b620003fb81620003e7565b811462000406575f80fd5b50565b5f815190506200041981620003f0565b92915050565b5f805f805f8060c087890312156200043c576200043b62000382565b5b5f6200044b89828a01620003d1565b96505060206200045e89828a0162000409565b95505060406200047189828a0162000409565b94505060606200048489828a0162000409565b93505060806200049789828a0162000409565b92505060a0620004aa89828a01620003d1565b9150509295509295509295565b620004c281620003a5565b82525050565b5f602082019050620004dd5f830184620004b7565b92915050565b5f82825260208201905092915050565b7f496e76616c696420746f6b656e000000000000000000000000000000000000005f82015250565b5f62000529600d83620004e3565b91506200053682620004f3565b602082019050919050565b5f6020820190508181035f8301526200055a816200051b565b9050919050565b7f5374617274206d757374206265206265666f726520656e6400000000000000005f82015250565b5f62000597601883620004e3565b9150620005a48262000561565b602082019050919050565b5f6020820190508181035f830152620005c88162000589565b9050919050565b7f4e487b71000000000000000000000000000000000000000000000000000000005f52601160045260245ffd5b5f6200060882620003e7565b91506200061583620003e7565b925082820390508181111562000630576200062f620005cf565b5b92915050565b7f50726573616c6520746f6f206c6f6e67000000000000000000000000000000005f82015250565b5f6200066c601083620004e3565b9150620006798262000636565b602082019050919050565b5f6020820190508181035f8301526200069d816200065e565b9050919050565b7f496e76616c6964207072696365000000000000000000000000000000000000005f82015250565b5f620006da600d83620004e3565b9150620006e782620006a4565b602082019050919050565b5f6020820190508181035f8301526200070b81620006cc565b9050919050565b7f496e76616c6964206861726463617000000000000000000000000000000000005f82015250565b5f62000748600f83620004e3565b9150620007558262000712565b602082019050919050565b5f6020820190508181035f83015262000779816200073a565b9050919050565b61171b806200078e5f395ff3fe608060405260043610610113575f3560e01c806384d242261161009f578063d7299ef711610063578063d7299ef714610317578063d744b7021461033f578063db2e21bc14610369578063f2fde38b1461037f578063fb86a404146103a757610113565b806384d24226146102675780638da5cb5b146102a3578063c5c4744c146102cd578063c8bdbfb6146102f7578063d0febe4c1461030d57610113565b806348c54b9d116100e657806348c54b9d146101bd5780635c975abb146101d3578063715018a6146101fd57806378e97925146102135780637ff9b5961461023d57610113565b80631958e58a1461011757806324600fc3146101415780633197cbb61461015757806342e94c9014610181575b5f80fd5b348015610122575f80fd5b5061012b6103d1565b6040516101389190611028565b60405180910390f35b34801561014c575f80fd5b506101556103f6565b005b348015610162575f80fd5b5061016b610450565b6040516101789190611059565b60405180910390f35b34801561018c575f80fd5b506101a760048036038101906101a291906110b1565b610456565b6040516101b49190611059565b60405180910390f35b3480156101c8575f80fd5b506101d161046b565b005b3480156101de575f80fd5b506101e76105dd565b6040516101f491906110f6565b60405180910390f35b348015610208575f80fd5b506102116105ef565b005b34801561021e575f80fd5b50610227610602565b6040516102349190611059565b60405180910390f35b348015610248575f80fd5b50610251610608565b60405161025e9190611059565b60405180910390f35b348015610272575f80fd5b5061028d600480360381019061028891906110b1565b61060e565b60405161029a9190611059565b60405180910390f35b3480156102ae575f80fd5b506102b7610623565b6040516102c4919061111e565b60405180910390f35b3480156102d8575f80fd5b506102e161064a565b6040516102ee9190611059565b60405180910390f35b348015610302575f80fd5b5061030b610650565b005b61031561078c565b005b348015610322575f80fd5b5061033d60048036038101906103389190611161565b610a07565b005b34801561034a575f80fd5b50610353610a62565b6040516103609190611059565b60405180910390f35b348015610374575f80fd5b5061037d610a69565b005b34801561038a575f80fd5b506103a560048036038101906103a091906110b1565b610c63565b005b3480156103b2575f80fd5b506103bb610ce7565b6040516103c89190611059565b60405180910390f35b60025f9054906101000a900473ffffffffffffffffffffffffffffffffffffffff1681565b6103fe610ced565b5f47905061040a610623565b73ffffffffffffffffffffffffffffffffffffffff166108fc8290811502906040515f60405180830381858888f1935050505015801561044c573d5f803e3d5ffd5b5050565b60055481565b6009602052805f5260405f205f915090505481565b610473610d74565b5f600a5f3373ffffffffffffffffffffffffffffffffffffffff1673ffffffffffffffffffffffffffffffffffffffff1681526020019081526020015f205490505f81116104f6576040517f08c379a00000000000000000000000000000000000000000000000000000000081526004016104ed906111e6565b60405180910390fd5b5f600a5f3373ffffffffffffffffffffffffffffffffffffffff1673ffffffffffffffffffffffffffffffffffffffff1681526020019081526020015f2081905550610584338260025f9054906101000a900473ffffffffffffffffffffffffffffffffffffffff1673ffffffffffffffffffffffffffffffffffffffff16610dc39092919063ffffffff16565b3373ffffffffffffffffffffffffffffffffffffffff167f896e034966eaaf1adc54acc0f257056febbd300c9e47182cf761982cf1f5e430826040516105ca9190611059565b60405180910390a2506105db610e42565b565b60085f9054906101000a900460ff1681565b6105f7610ced565b6106005f610e4b565b565b60045481565b60035481565b600a602052805f5260405f205f915090505481565b5f805f9054906101000a900473ffffffffffffffffffffffffffffffffffffffff16905090565b60075481565b610658610ced565b5f60025f9054906101000a900473ffffffffffffffffffffffffffffffffffffffff1673ffffffffffffffffffffffffffffffffffffffff166370a08231306040518263ffffffff1660e01b81526004016106b3919061111e565b602060405180830381865afa1580156106ce573d5f803e3d5ffd5b505050506040513d601f19601f820116820180604052508101906106f2919061122e565b90505f8111610736576040517f08c379a000000000000000000000000000000000000000000000000000000000815260040161072d906112a3565b60405180910390fd5b610789610741610623565b8260025f9054906101000a900473ffffffffffffffffffffffffffffffffffffffff1673ffffffffffffffffffffffffffffffffffffffff16610dc39092919063ffffffff16565b50565b610794610d74565b60045442101580156107a857506005544211155b6107e7576040517f08c379a00000000000000000000000000000000000000000000000000000000081526004016107de9061130b565b60405180910390fd5b60085f9054906101000a900460ff1615610836576040517f08c379a000000000000000000000000000000000000000000000000000000000815260040161082d90611373565b60405180910390fd5b5f3411610878576040517f08c379a000000000000000000000000000000000000000000000000000000000815260040161086f906113db565b60405180910390fd5b600654346007546108899190611426565b11156108ca576040517f08c379a00000000000000000000000000000000000000000000000000000000081526004016108c1906114a3565b60405180910390fd5b5f600354670de0b6b3a7640000346108e291906114c1565b6108ec919061152f565b905080600a5f3373ffffffffffffffffffffffffffffffffffffffff1673ffffffffffffffffffffffffffffffffffffffff1681526020019081526020015f205f82825461093a9190611426565b925050819055503460095f3373ffffffffffffffffffffffffffffffffffffffff1673ffffffffffffffffffffffffffffffffffffffff1681526020019081526020015f205f82825461098d9190611426565b925050819055503460075f8282546109a59190611426565b925050819055503373ffffffffffffffffffffffffffffffffffffffff167f8fafebcaf9d154343dad25669bfa277f4fbacd7ac6b0c4fed522580e040a0f3334836040516109f492919061155f565b60405180910390a250610a05610e42565b565b610a0f610ced565b8060085f6101000a81548160ff0219169083151502179055507f66006354ac6a35f0f9b001e7cd8a73623bab487be4239f71fb1428656e7de6a681604051610a5791906110f6565b60405180910390a150565b62278d0081565b610a71610d74565b60085f9054906101000a900460ff16610abf576040517f08c379a0000000000000000000000000000000000000000000000000000000008152600401610ab6906115d0565b60405180910390fd5b5f60095f3373ffffffffffffffffffffffffffffffffffffffff1673ffffffffffffffffffffffffffffffffffffffff1681526020019081526020015f205490505f8111610b42576040517f08c379a0000000000000000000000000000000000000000000000000000000008152600401610b3990611638565b60405180910390fd5b5f60095f3373ffffffffffffffffffffffffffffffffffffffff1673ffffffffffffffffffffffffffffffffffffffff1681526020019081526020015f20819055505f600a5f3373ffffffffffffffffffffffffffffffffffffffff1673ffffffffffffffffffffffffffffffffffffffff1681526020019081526020015f20819055503373ffffffffffffffffffffffffffffffffffffffff166108fc8290811502906040515f60405180830381858888f19350505050158015610c09573d5f803e3d5ffd5b503373ffffffffffffffffffffffffffffffffffffffff167f5fafa99d0643513820be26656b45130b01e1c03062e1266bf36f88cbd3bd969582604051610c509190611059565b60405180910390a250610c61610e42565b565b610c6b610ced565b5f73ffffffffffffffffffffffffffffffffffffffff168173ffffffffffffffffffffffffffffffffffffffff1603610cdb575f6040517f1e4fbdf7000000000000000000000000000000000000000000000000000000008152600401610cd2919061111e565b60405180910390fd5b610ce481610e4b565b50565b60065481565b610cf5610f0c565b73ffffffffffffffffffffffffffffffffffffffff16610d13610623565b73ffffffffffffffffffffffffffffffffffffffff1614610d7257610d36610f0c565b6040517f118cdaa7000000000000000000000000000000000000000000000000000000008152600401610d69919061111e565b60405180910390fd5b565b600260015403610db9576040517f08c379a0000000000000000000000000000000000000000000000000000000008152600401610db0906116a0565b60405180910390fd5b6002600181905550565b610e3d838473ffffffffffffffffffffffffffffffffffffffff1663a9059cbb8585604051602401610df69291906116be565b604051602081830303815290604052915060e01b6020820180517bffffffffffffffffffffffffffffffffffffffffffffffffffffffff8381831617835250505050610f13565b505050565b60018081905550565b5f805f9054906101000a900473ffffffffffffffffffffffffffffffffffffffff169050815f806101000a81548173ffffffffffffffffffffffffffffffffffffffff021916908373ffffffffffffffffffffffffffffffffffffffff1602179055508173ffffffffffffffffffffffffffffffffffffffff168173ffffffffffffffffffffffffffffffffffffffff167f8be0079c531659141344cd1fd0a4f28419497f9722a3daafe3b4186f6b6457e060405160405180910390a35050565b5f33905090565b5f8060205f8451602086015f885af180610f32576040513d5f823e3d81fd5b3d92505f519150505f8214610f4b576001811415610f66565b5f8473ffffffffffffffffffffffffffffffffffffffff163b145b15610fa857836040517f5274afe7000000000000000000000000000000000000000000000000000000008152600401610f9f919061111e565b60405180910390fd5b50505050565b5f73ffffffffffffffffffffffffffffffffffffffff82169050919050565b5f819050919050565b5f610ff0610feb610fe684610fae565b610fcd565b610fae565b9050919050565b5f61100182610fd6565b9050919050565b5f61101282610ff7565b9050919050565b61102281611008565b82525050565b5f60208201905061103b5f830184611019565b92915050565b5f819050919050565b61105381611041565b82525050565b5f60208201905061106c5f83018461104a565b92915050565b5f80fd5b5f61108082610fae565b9050919050565b61109081611076565b811461109a575f80fd5b50565b5f813590506110ab81611087565b92915050565b5f602082840312156110c6576110c5611072565b5b5f6110d38482850161109d565b91505092915050565b5f8115159050919050565b6110f0816110dc565b82525050565b5f6020820190506111095f8301846110e7565b92915050565b61111881611076565b82525050565b5f6020820190506111315f83018461110f565b92915050565b611140816110dc565b811461114a575f80fd5b50565b5f8135905061115b81611137565b92915050565b5f6020828403121561117657611175611072565b5b5f6111838482850161114d565b91505092915050565b5f82825260208201905092915050565b7f4e6f7468696e6720746f20636c61696d000000000000000000000000000000005f82015250565b5f6111d060108361118c565b91506111db8261119c565b602082019050919050565b5f6020820190508181035f8301526111fd816111c4565b9050919050565b61120d81611041565b8114611217575f80fd5b50565b5f8151905061122881611204565b92915050565b5f6020828403121561124357611242611072565b5b5f6112508482850161121a565b91505092915050565b7f4e6f20746f6b656e7300000000000000000000000000000000000000000000005f82015250565b5f61128d60098361118c565b915061129882611259565b602082019050919050565b5f6020820190508181035f8301526112ba81611281565b9050919050565b7f50726573616c65206e6f742061637469766500000000000000000000000000005f82015250565b5f6112f560128361118c565b9150611300826112c1565b602082019050919050565b5f6020820190508181035f830152611322816112e9565b9050919050565b7f50726573616c65207061757365640000000000000000000000000000000000005f82015250565b5f61135d600e8361118c565b915061136882611329565b602082019050919050565b5f6020820190508181035f83015261138a81611351565b9050919050565b7f53656e64204d41544943000000000000000000000000000000000000000000005f82015250565b5f6113c5600a8361118c565b91506113d082611391565b602082019050919050565b5f6020820190508181035f8301526113f2816113b9565b9050919050565b7f4e487b71000000000000000000000000000000000000000000000000000000005f52601160045260245ffd5b5f61143082611041565b915061143b83611041565b9250828201905080821115611453576114526113f9565b5b92915050565b7f45786365656473206861726463617000000000000000000000000000000000005f82015250565b5f61148d600f8361118c565b915061149882611459565b602082019050919050565b5f6020820190508181035f8301526114ba81611481565b9050919050565b5f6114cb82611041565b91506114d683611041565b92508282026114e481611041565b915082820484148315176114fb576114fa6113f9565b5b5092915050565b7f4e487b71000000000000000000000000000000000000000000000000000000005f52601260045260245ffd5b5f61153982611041565b915061154483611041565b92508261155457611553611502565b5b828204905092915050565b5f6040820190506115725f83018561104a565b61157f602083018461104a565b9392505050565b7f4e6f7420706175736564000000000000000000000000000000000000000000005f82015250565b5f6115ba600a8361118c565b91506115c582611586565b602082019050919050565b5f6020820190508181035f8301526115e7816115ae565b9050919050565b7f4e6f7468696e6720746f20726566756e640000000000000000000000000000005f82015250565b5f61162260118361118c565b915061162d826115ee565b602082019050919050565b5f6020820190508181035f83015261164f81611616565b9050919050565b7f5265656e7472616e637947756172643a207265656e7472616e742063616c6c005f82015250565b5f61168a601f8361118c565b915061169582611656565b602082019050919050565b5f6020820190508181035f8301526116b78161167e565b9050919050565b5f6040820190506116d15f83018561110f565b6116de602083018461104a565b939250505056fea2646970667358221220bbc51c86d0b54d19665b02248b040d251bdb9df51e9b1baa2c9e1a936260606264736f6c63430008180033",
					"opcodes": "PUSH1 0x80 PUSH1 0x40 MSTORE CALLVALUE DUP1 ISZERO PUSH3 0x10 JUMPI PUSH0 DUP1 REVERT JUMPDEST POP PUSH1 0x40 MLOAD PUSH3 0x1EA9 CODESIZE SUB DUP1 PUSH3 0x1EA9 DUP4 CODECOPY DUP2 DUP2 ADD PUSH1 0x40 MSTORE DUP2 ADD SWAP1 PUSH3 0x36 SWAP2 SWAP1 PUSH3 0x41F JUMP JUMPDEST DUP1 PUSH0 PUSH20 0xFFFFFFFFFFFFFFFFFFFFFFFFFFFFFFFFFFFFFFFF AND DUP2 PUSH20 0xFFFFFFFFFFFFFFFFFFFFFFFFFFFFFFFFFFFFFFFF AND SUB PUSH3 0xAA JUMPI PUSH0 PUSH1 0x40 MLOAD PUSH32 0x1E4FBDF700000000000000000000000000000000000000000000000000000000 DUP2 MSTORE PUSH1 0x4 ADD PUSH3 0xA1 SWAP2 SWAP1 PUSH3 0x4C8 JUMP JUMPDEST PUSH1 0x40 MLOAD DUP1 SWAP2 SUB SWAP1 REVERT JUMPDEST PUSH3 0xBB DUP2 PUSH3 0x2C1 PUSH1 0x20 SHL PUSH1 0x20 SHR JUMP JUMPDEST POP PUSH1 0x1 DUP1 DUP2 SWAP1 SSTORE POP PUSH0 PUSH20 0xFFFFFFFFFFFFFFFFFFFFFFFFFFFFFFFFFFFFFFFF AND DUP7 PUSH20 0xFFFFFFFFFFFFFFFFFFFFFFFFFFFFFFFFFFFFFFFF AND SUB PUSH3 0x134 JUMPI PUSH1 0x40 MLOAD PUSH32 0x8C379A000000000000000000000000000000000000000000000000000000000 DUP2 MSTORE PUSH1 0x4 ADD PUSH3 0x12B SWAP1 PUSH3 0x541 JUMP JUMPDEST PUSH1 0x40 MLOAD DUP1 SWAP2 SUB SWAP1 REVERT JUMPDEST DUP3 DUP5 LT PUSH3 0x179 JUMPI PUSH1 0x40 MLOAD PUSH32 0x8C379A000000000000000000000000000000000000000000000000000000000 DUP2 MSTORE PUSH1 0x4 ADD PUSH3 0x170 SWAP1 PUSH3 0x5AF JUMP JUMPDEST PUSH1 0x40 MLOAD DUP1 SWAP2 SUB SWAP1 REVERT JUMPDEST PUSH3 0x278D00 DUP5 DUP5 PUSH3 0x18B SWAP2 SWAP1 PUSH3 0x5FC JUMP JUMPDEST GT ISZERO PUSH3 0x1CF JUMPI PUSH1 0x40 MLOAD PUSH32 0x8C379A000000000000000000000000000000000000000000000000000000000 DUP2 MSTORE PUSH1 0x4 ADD PUSH3 0x1C6 SWAP1 PUSH3 0x684 JUMP JUMPDEST PUSH1 0x40 MLOAD DUP1 SWAP2 SUB SWAP1 REVERT JUMPDEST PUSH0 DUP6 GT PUSH3 0x214 JUMPI PUSH1 0x40 MLOAD PUSH32 0x8C379A000000000000000000000000000000000000000000000000000000000 DUP2 MSTORE PUSH1 0x4 ADD PUSH3 0x20B SWAP1 PUSH3 0x6F2 JUMP JUMPDEST PUSH1 0x40 MLOAD DUP1 SWAP2 SUB SWAP1 REVERT JUMPDEST PUSH0 DUP3 GT PUSH3 0x259 JUMPI PUSH1 0x40 MLOAD PUSH32 0x8C379A000000000000000000000000000000000000000000000000000000000 DUP2 MSTORE PUSH1 0x4 ADD PUSH3 0x250 SWAP1 PUSH3 0x760 JUMP JUMPDEST PUSH1 0x40 MLOAD DUP1 SWAP2 SUB SWAP1 REVERT JUMPDEST DUP6 PUSH1 0x2 PUSH0 PUSH2 0x100 EXP DUP2 SLOAD DUP2 PUSH20 0xFFFFFFFFFFFFFFFFFFFFFFFFFFFFFFFFFFFFFFFF MUL NOT AND SWAP1 DUP4 PUSH20 0xFFFFFFFFFFFFFFFFFFFFFFFFFFFFFFFFFFFFFFFF AND MUL OR SWAP1 SSTORE POP DUP5 PUSH1 0x3 DUP2 SWAP1 SSTORE POP DUP4 PUSH1 0x4 DUP2 SWAP1 SSTORE POP DUP3 PUSH1 0x5 DUP2 SWAP1 SSTORE POP DUP2 PUSH1 0x6 DUP2 SWAP1 SSTORE POP POP POP POP POP POP POP PUSH3 0x780 JUMP JUMPDEST PUSH0 DUP1 PUSH0 SWAP1 SLOAD SWAP1 PUSH2 0x100 EXP SWAP1 DIV PUSH20 0xFFFFFFFFFFFFFFFFFFFFFFFFFFFFFFFFFFFFFFFF AND SWAP1 POP DUP2 PUSH0 DUP1 PUSH2 0x100 EXP DUP2 SLOAD DUP2 PUSH20 0xFFFFFFFFFFFFFFFFFFFFFFFFFFFFFFFFFFFFFFFF MUL NOT AND SWAP1 DUP4 PUSH20 0xFFFFFFFFFFFFFFFFFFFFFFFFFFFFFFFFFFFFFFFF AND MUL OR SWAP1 SSTORE POP DUP2 PUSH20 0xFFFFFFFFFFFFFFFFFFFFFFFFFFFFFFFFFFFFFFFF AND DUP2 PUSH20 0xFFFFFFFFFFFFFFFFFFFFFFFFFFFFFFFFFFFFFFFF AND PUSH32 0x8BE0079C531659141344CD1FD0A4F28419497F9722A3DAAFE3B4186F6B6457E0 PUSH1 0x40 MLOAD PUSH1 0x40 MLOAD DUP1 SWAP2 SUB SWAP1 LOG3 POP POP JUMP JUMPDEST PUSH0 DUP1 REVERT JUMPDEST PUSH0 PUSH20 0xFFFFFFFFFFFFFFFFFFFFFFFFFFFFFFFFFFFFFFFF DUP3 AND SWAP1 POP SWAP2 SWAP1 POP JUMP JUMPDEST PUSH0 PUSH3 0x3B1 DUP3 PUSH3 0x386 JUMP JUMPDEST SWAP1 POP SWAP2 SWAP1 POP JUMP JUMPDEST PUSH3 0x3C3 DUP2 PUSH3 0x3A5 JUMP JUMPDEST DUP2 EQ PUSH3 0x3CE JUMPI PUSH0 DUP1 REVERT JUMPDEST POP JUMP JUMPDEST PUSH0 DUP2 MLOAD SWAP1 POP PUSH3 0x3E1 DUP2 PUSH3 0x3B8 JUMP JUMPDEST SWAP3 SWAP2 POP POP JUMP JUMPDEST PUSH0 DUP2 SWAP1 POP SWAP2 SWAP1 POP JUMP JUMPDEST PUSH3 0x3FB DUP2 PUSH3 0x3E7 JUMP JUMPDEST DUP2 EQ PUSH3 0x406 JUMPI PUSH0 DUP1 REVERT JUMPDEST POP JUMP JUMPDEST PUSH0 DUP2 MLOAD SWAP1 POP PUSH3 0x419 DUP2 PUSH3 0x3F0 JUMP JUMPDEST SWAP3 SWAP2 POP POP JUMP JUMPDEST PUSH0 DUP1 PUSH0 DUP1 PUSH0 DUP1 PUSH1 0xC0 DUP8 DUP10 SUB SLT ISZERO PUSH3 0x43C JUMPI PUSH3 0x43B PUSH3 0x382 JUMP JUMPDEST JUMPDEST PUSH0 PUSH3 0x44B DUP10 DUP3 DUP11 ADD PUSH3 0x3D1 JUMP JUMPDEST SWAP7 POP POP PUSH1 0x20 PUSH3 0x45E DUP10 DUP3 DUP11 ADD PUSH3 0x409 JUMP JUMPDEST SWAP6 POP POP PUSH1 0x40 PUSH3 0x471 DUP10 DUP3 DUP11 ADD PUSH3 0x409 JUMP JUMPDEST SWAP5 POP POP PUSH1 0x60 PUSH3 0x484 DUP10 DUP3 DUP11 ADD PUSH3 0x409 JUMP JUMPDEST SWAP4 POP POP PUSH1 0x80 PUSH3 0x497 DUP10 DUP3 DUP11 ADD PUSH3 0x409 JUMP JUMPDEST SWAP3 POP POP PUSH1 0xA0 PUSH3 0x4AA DUP10 DUP3 DUP11 ADD PUSH3 0x3D1 JUMP JUMPDEST SWAP2 POP POP SWAP3 SWAP6 POP SWAP3 SWAP6 POP SWAP3 SWAP6 JUMP JUMPDEST PUSH3 0x4C2 DUP2 PUSH3 0x3A5 JUMP JUMPDEST DUP3 MSTORE POP POP JUMP JUMPDEST PUSH0 PUSH1 0x20 DUP3 ADD SWAP1 POP PUSH3 0x4DD PUSH0 DUP4 ADD DUP5 PUSH3 0x4B7 JUMP JUMPDEST SWAP3 SWAP2 POP POP JUMP JUMPDEST PUSH0 DUP3 DUP3 MSTORE PUSH1 0x20 DUP3 ADD SWAP1 POP SWAP3 SWAP2 POP POP JUMP JUMPDEST PUSH32 0x496E76616C696420746F6B656E00000000000000000000000000000000000000 PUSH0 DUP3 ADD MSTORE POP JUMP JUMPDEST PUSH0 PUSH3 0x529 PUSH1 0xD DUP4 PUSH3 0x4E3 JUMP JUMPDEST SWAP2 POP PUSH3 0x536 DUP3 PUSH3 0x4F3 JUMP JUMPDEST PUSH1 0x20 DUP3 ADD SWAP1 POP SWAP2 SWAP1 POP JUMP JUMPDEST PUSH0 PUSH1 0x20 DUP3 ADD SWAP1 POP DUP2 DUP2 SUB PUSH0 DUP4 ADD MSTORE PUSH3 0x55A DUP2 PUSH3 0x51B JUMP JUMPDEST SWAP1 POP SWAP2 SWAP1 POP JUMP JUMPDEST PUSH32 0x5374617274206D757374206265206265666F726520656E640000000000000000 PUSH0 DUP3 ADD MSTORE POP JUMP JUMPDEST PUSH0 PUSH3 0x597 PUSH1 0x18 DUP4 PUSH3 0x4E3 JUMP JUMPDEST SWAP2 POP PUSH3 0x5A4 DUP3 PUSH3 0x561 JUMP JUMPDEST PUSH1 0x20 DUP3 ADD SWAP1 POP SWAP2 SWAP1 POP JUMP JUMPDEST PUSH0 PUSH1 0x20 DUP3 ADD SWAP1 POP DUP2 DUP2 SUB PUSH0 DUP4 ADD MSTORE PUSH3 0x5C8 DUP2 PUSH3 0x589 JUMP JUMPDEST SWAP1 POP SWAP2 SWAP1 POP JUMP JUMPDEST PUSH32 0x4E487B7100000000000000000000000000000000000000000000000000000000 PUSH0 MSTORE PUSH1 0x11 PUSH1 0x4 MSTORE PUSH1 0x24 PUSH0 REVERT JUMPDEST PUSH0 PUSH3 0x608 DUP3 PUSH3 0x3E7 JUMP JUMPDEST SWAP2 POP PUSH3 0x615 DUP4 PUSH3 0x3E7 JUMP JUMPDEST SWAP3 POP DUP3 DUP3 SUB SWAP1 POP DUP2 DUP2 GT ISZERO PUSH3 0x630 JUMPI PUSH3 0x62F PUSH3 0x5CF JUMP JUMPDEST JUMPDEST SWAP3 SWAP2 POP POP JUMP JUMPDEST PUSH32 0x50726573616C6520746F6F206C6F6E6700000000000000000000000000000000 PUSH0 DUP3 ADD MSTORE POP JUMP JUMPDEST PUSH0 PUSH3 0x66C PUSH1 0x10 DUP4 PUSH3 0x4E3 JUMP JUMPDEST SWAP2 POP PUSH3 0x679 DUP3 PUSH3 0x636 JUMP JUMPDEST PUSH1 0x20 DUP3 ADD SWAP1 POP SWAP2 SWAP1 POP JUMP JUMPDEST PUSH0 PUSH1 0x20 DUP3 ADD SWAP1 POP DUP2 DUP2 SUB PUSH0 DUP4 ADD MSTORE PUSH3 0x69D DUP2 PUSH3 0x65E JUMP JUMPDEST SWAP1 POP SWAP2 SWAP1 POP JUMP JUMPDEST PUSH32 0x496E76616C696420707269636500000000000000000000000000000000000000 PUSH0 DUP3 ADD MSTORE POP JUMP JUMPDEST PUSH0 PUSH3 0x6DA PUSH1 0xD DUP4 PUSH3 0x4E3 JUMP JUMPDEST SWAP2 POP PUSH3 0x6E7 DUP3 PUSH3 0x6A4 JUMP JUMPDEST PUSH1 0x20 DUP3 ADD SWAP1 POP SWAP2 SWAP1 POP JUMP JUMPDEST PUSH0 PUSH1 0x20 DUP3 ADD SWAP1 POP DUP2 DUP2 SUB PUSH0 DUP4 ADD MSTORE PUSH3 0x70B DUP2 PUSH3 0x6CC JUMP JUMPDEST SWAP1 POP SWAP2 SWAP1 POP JUMP JUMPDEST PUSH32 0x496E76616C696420686172646361700000000000000000000000000000000000 PUSH0 DUP3 ADD MSTORE POP JUMP JUMPDEST PUSH0 PUSH3 0x748 PUSH1 0xF DUP4 PUSH3 0x4E3 JUMP JUMPDEST SWAP2 POP PUSH3 0x755 DUP3 PUSH3 0x712 JUMP JUMPDEST PUSH1 0x20 DUP3 ADD SWAP1 POP SWAP2 SWAP1 POP JUMP JUMPDEST PUSH0 PUSH1 0x20 DUP3 ADD SWAP1 POP DUP2 DUP2 SUB PUSH0 DUP4 ADD MSTORE PUSH3 0x779 DUP2 PUSH3 0x73A JUMP JUMPDEST SWAP1 POP SWAP2 SWAP1 POP JUMP JUMPDEST PUSH2 0x171B DUP1 PUSH3 0x78E PUSH0 CODECOPY PUSH0 RETURN INVALID PUSH1 0x80 PUSH1 0x40 MSTORE PUSH1 0x4 CALLDATASIZE LT PUSH2 0x113 JUMPI PUSH0 CALLDATALOAD PUSH1 0xE0 SHR DUP1 PUSH4 0x84D24226 GT PUSH2 0x9F JUMPI DUP1 PUSH4 0xD7299EF7 GT PUSH2 0x63 JUMPI DUP1 PUSH4 0xD7299EF7 EQ PUSH2 0x317 JUMPI DUP1 PUSH4 0xD744B702 EQ PUSH2 0x33F JUMPI DUP1 PUSH4 0xDB2E21BC EQ PUSH2 0x369 JUMPI DUP1 PUSH4 0xF2FDE38B EQ PUSH2 0x37F JUMPI DUP1 PUSH4 0xFB86A404 EQ PUSH2 0x3A7 JUMPI PUSH2 0x113 JUMP JUMPDEST DUP1 PUSH4 0x84D24226 EQ PUSH2 0x267 JUMPI DUP1 PUSH4 0x8DA5CB5B EQ PUSH2 0x2A3 JUMPI DUP1 PUSH4 0xC5C4744C EQ PUSH2 0x2CD JUMPI DUP1 PUSH4 0xC8BDBFB6 EQ PUSH2 0x2F7 JUMPI DUP1 PUSH4 0xD0FEBE4C EQ PUSH2 0x30D JUMPI PUSH2 0x113 JUMP JUMPDEST DUP1 PUSH4 0x48C54B9D GT PUSH2 0xE6 JUMPI DUP1 PUSH4 0x48C54B9D EQ PUSH2 0x1BD JUMPI DUP1 PUSH4 0x5C975ABB EQ PUSH2 0x1D3 JUMPI DUP1 PUSH4 0x715018A6 EQ PUSH2 0x1FD JUMPI DUP1 PUSH4 0x78E97925 EQ PUSH2 0x213 JUMPI DUP1 PUSH4 0x7FF9B596 EQ PUSH2 0x23D JUMPI PUSH2 0x113 JUMP JUMPDEST DUP1 PUSH4 0x1958E58A EQ PUSH2 0x117 JUMPI DUP1 PUSH4 0x24600FC3 EQ PUSH2 0x141 JUMPI DUP1 PUSH4 0x3197CBB6 EQ PUSH2 0x157 JUMPI DUP1 PUSH4 0x42E94C90 EQ PUSH2 0x181 JUMPI JUMPDEST PUSH0 DUP1 REVERT JUMPDEST CALLVALUE DUP1 ISZERO PUSH2 0x122 JUMPI PUSH0 DUP1 REVERT JUMPDEST POP PUSH2 0x12B PUSH2 0x3D1 JUMP JUMPDEST PUSH1 0x40 MLOAD PUSH2 0x138 SWAP2 SWAP1 PUSH2 0x1028 JUMP JUMPDEST PUSH1 0x40 MLOAD DUP1 SWAP2 SUB SWAP1 RETURN JUMPDEST CALLVALUE DUP1 ISZERO PUSH2 0x14C JUMPI PUSH0 DUP1 REVERT JUMPDEST POP PUSH2 0x155 PUSH2 0x3F6 JUMP JUMPDEST STOP JUMPDEST CALLVALUE DUP1 ISZERO PUSH2 0x162 JUMPI PUSH0 DUP1 REVERT JUMPDEST POP PUSH2 0x16B PUSH2 0x450 JUMP JUMPDEST PUSH1 0x40 MLOAD PUSH2 0x178 SWAP2 SWAP1 PUSH2 0x1059 JUMP JUMPDEST PUSH1 0x40 MLOAD DUP1 SWAP2 SUB SWAP1 RETURN JUMPDEST CALLVALUE DUP1 ISZERO PUSH2 0x18C JUMPI PUSH0 DUP1 REVERT JUMPDEST POP PUSH2 0x1A7 PUSH1 0x4 DUP1 CALLDATASIZE SUB DUP2 ADD SWAP1 PUSH2 0x1A2 SWAP2 SWAP1 PUSH2 0x10B1 JUMP JUMPDEST PUSH2 0x456 JUMP JUMPDEST PUSH1 0x40 MLOAD PUSH2 0x1B4 SWAP2 SWAP1 PUSH2 0x1059 JUMP JUMPDEST PUSH1 0x40 MLOAD DUP1 SWAP2 SUB SWAP1 RETURN JUMPDEST CALLVALUE DUP1 ISZERO PUSH2 0x1C8 JUMPI PUSH0 DUP1 REVERT JUMPDEST POP PUSH2 0x1D1 PUSH2 0x46B JUMP JUMPDEST STOP JUMPDEST CALLVALUE DUP1 ISZERO PUSH2 0x1DE JUMPI PUSH0 DUP1 REVERT JUMPDEST POP PUSH2 0x1E7 PUSH2 0x5DD JUMP JUMPDEST PUSH1 0x40 MLOAD PUSH2 0x1F4 SWAP2 SWAP1 PUSH2 0x10F6 JUMP JUMPDEST PUSH1 0x40 MLOAD DUP1 SWAP2 SUB SWAP1 RETURN JUMPDEST CALLVALUE DUP1 ISZERO PUSH2 0x208 JUMPI PUSH0 DUP1 REVERT JUMPDEST POP PUSH2 0x211 PUSH2 0x5EF JUMP JUMPDEST STOP JUMPDEST CALLVALUE DUP1 ISZERO PUSH2 0x21E JUMPI PUSH0 DUP1 REVERT JUMPDEST POP PUSH2 0x227 PUSH2 0x602 JUMP JUMPDEST PUSH1 0x40 MLOAD PUSH2 0x234 SWAP2 SWAP1 PUSH2 0x1059 JUMP JUMPDEST PUSH1 0x40 MLOAD DUP1 SWAP2 SUB SWAP1 RETURN JUMPDEST CALLVALUE DUP1 ISZERO PUSH2 0x248 JUMPI PUSH0 DUP1 REVERT JUMPDEST POP PUSH2 0x251 PUSH2 0x608 JUMP JUMPDEST PUSH1 0x40 MLOAD PUSH2 0x25E SWAP2 SWAP1 PUSH2 0x1059 JUMP JUMPDEST PUSH1 0x40 MLOAD DUP1 SWAP2 SUB SWAP1 RETURN JUMPDEST CALLVALUE DUP1 ISZERO PUSH2 0x272 JUMPI PUSH0 DUP1 REVERT JUMPDEST POP PUSH2 0x28D PUSH1 0x4 DUP1 CALLDATASIZE SUB DUP2 ADD SWAP1 PUSH2 0x288 SWAP2 SWAP1 PUSH2 0x10B1 JUMP JUMPDEST PUSH2 0x60E JUMP JUMPDEST PUSH1 0x40 MLOAD PUSH2 0x29A SWAP2 SWAP1 PUSH2 0x1059 JUMP JUMPDEST PUSH1 0x40 MLOAD DUP1 SWAP2 SUB SWAP1 RETURN JUMPDEST CALLVALUE DUP1 ISZERO PUSH2 0x2AE JUMPI PUSH0 DUP1 REVERT JUMPDEST POP PUSH2 0x2B7 PUSH2 0x623 JUMP JUMPDEST PUSH1 0x40 MLOAD PUSH2 0x2C4 SWAP2 SWAP1 PUSH2 0x111E JUMP JUMPDEST PUSH1 0x40 MLOAD DUP1 SWAP2 SUB SWAP1 RETURN JUMPDEST CALLVALUE DUP1 ISZERO PUSH2 0x2D8 JUMPI PUSH0 DUP1 REVERT JUMPDEST POP PUSH2 0x2E1 PUSH2 0x64A JUMP JUMPDEST PUSH1 0x40 MLOAD PUSH2 0x2EE SWAP2 SWAP1 PUSH2 0x1059 JUMP JUMPDEST PUSH1 0x40 MLOAD DUP1 SWAP2 SUB SWAP1 RETURN JUMPDEST CALLVALUE DUP1 ISZERO PUSH2 0x302 JUMPI PUSH0 DUP1 REVERT JUMPDEST POP PUSH2 0x30B PUSH2 0x650 JUMP JUMPDEST STOP JUMPDEST PUSH2 0x315 PUSH2 0x78C JUMP JUMPDEST STOP JUMPDEST CALLVALUE DUP1 ISZERO PUSH2 0x322 JUMPI PUSH0 DUP1 REVERT JUMPDEST POP PUSH2 0x33D PUSH1 0x4 DUP1 CALLDATASIZE SUB DUP2 ADD SWAP1 PUSH2 0x338 SWAP2 SWAP1 PUSH2 0x1161 JUMP JUMPDEST PUSH2 0xA07 JUMP JUMPDEST STOP JUMPDEST CALLVALUE DUP1 ISZERO PUSH2 0x34A JUMPI PUSH0 DUP1 REVERT JUMPDEST POP PUSH2 0x353 PUSH2 0xA62 JUMP JUMPDEST PUSH1 0x40 MLOAD PUSH2 0x360 SWAP2 SWAP1 PUSH2 0x1059 JUMP JUMPDEST PUSH1 0x40 MLOAD DUP1 SWAP2 SUB SWAP1 RETURN JUMPDEST CALLVALUE DUP1 ISZERO PUSH2 0x374 JUMPI PUSH0 DUP1 REVERT JUMPDEST POP PUSH2 0x37D PUSH2 0xA69 JUMP JUMPDEST STOP JUMPDEST CALLVALUE DUP1 ISZERO PUSH2 0x38A JUMPI PUSH0 DUP1 REVERT JUMPDEST POP PUSH2 0x3A5 PUSH1 0x4 DUP1 CALLDATASIZE SUB DUP2 ADD SWAP1 PUSH2 0x3A0 SWAP2 SWAP1 PUSH2 0x10B1 JUMP JUMPDEST PUSH2 0xC63 JUMP JUMPDEST STOP JUMPDEST CALLVALUE DUP1 ISZERO PUSH2 0x3B2 JUMPI PUSH0 DUP1 REVERT JUMPDEST POP PUSH2 0x3BB PUSH2 0xCE7 JUMP JUMPDEST PUSH1 0x40 MLOAD PUSH2 0x3C8 SWAP2 SWAP1 PUSH2 0x1059 JUMP JUMPDEST PUSH1 0x40 MLOAD DUP1 SWAP2 SUB SWAP1 RETURN JUMPDEST PUSH1 0x2 PUSH0 SWAP1 SLOAD SWAP1 PUSH2 0x100 EXP SWAP1 DIV PUSH20 0xFFFFFFFFFFFFFFFFFFFFFFFFFFFFFFFFFFFFFFFF AND DUP2 JUMP JUMPDEST PUSH2 0x3FE PUSH2 0xCED JUMP JUMPDEST PUSH0 SELFBALANCE SWAP1 POP PUSH2 0x40A PUSH2 0x623 JUMP JUMPDEST PUSH20 0xFFFFFFFFFFFFFFFFFFFFFFFFFFFFFFFFFFFFFFFF AND PUSH2 0x8FC DUP3 SWAP1 DUP2 ISZERO MUL SWAP1 PUSH1 0x40 MLOAD PUSH0 PUSH1 0x40 MLOAD DUP1 DUP4 SUB DUP2 DUP6 DUP9 DUP9 CALL SWAP4 POP POP POP POP ISZERO DUP1 ISZERO PUSH2 0x44C JUMPI RETURNDATASIZE PUSH0 DUP1 RETURNDATACOPY RETURNDATASIZE PUSH0 REVERT JUMPDEST POP POP JUMP JUMPDEST PUSH1 0x5 SLOAD DUP2 JUMP JUMPDEST PUSH1 0x9 PUSH1 0x20 MSTORE DUP1 PUSH0 MSTORE PUSH1 0x40 PUSH0 KECCAK256 PUSH0 SWAP2 POP SWAP1 POP SLOAD DUP2 JUMP JUMPDEST PUSH2 0x473 PUSH2 0xD74 JUMP JUMPDEST PUSH0 PUSH1 0xA PUSH0 CALLER PUSH20 0xFFFFFFFFFFFFFFFFFFFFFFFFFFFFFFFFFFFFFFFF AND PUSH20 0xFFFFFFFFFFFFFFFFFFFFFFFFFFFFFFFFFFFFFFFF AND DUP2 MSTORE PUSH1 0x20 ADD SWAP1 DUP2 MSTORE PUSH1 0x20 ADD PUSH0 KECCAK256 SLOAD SWAP1 POP PUSH0 DUP2 GT PUSH2 0x4F6 JUMPI PUSH1 0x40 MLOAD PUSH32 0x8C379A000000000000000000000000000000000000000000000000000000000 DUP2 MSTORE PUSH1 0x4 ADD PUSH2 0x4ED SWAP1 PUSH2 0x11E6 JUMP JUMPDEST PUSH1 0x40 MLOAD DUP1 SWAP2 SUB SWAP1 REVERT JUMPDEST PUSH0 PUSH1 0xA PUSH0 CALLER PUSH20 0xFFFFFFFFFFFFFFFFFFFFFFFFFFFFFFFFFFFFFFFF AND PUSH20 0xFFFFFFFFFFFFFFFFFFFFFFFFFFFFFFFFFFFFFFFF AND DUP2 MSTORE PUSH1 0x20 ADD SWAP1 DUP2 MSTORE PUSH1 0x20 ADD PUSH0 KECCAK256 DUP2 SWAP1 SSTORE POP PUSH2 0x584 CALLER DUP3 PUSH1 0x2 PUSH0 SWAP1 SLOAD SWAP1 PUSH2 0x100 EXP SWAP1 DIV PUSH20 0xFFFFFFFFFFFFFFFFFFFFFFFFFFFFFFFFFFFFFFFF AND PUSH20 0xFFFFFFFFFFFFFFFFFFFFFFFFFFFFFFFFFFFFFFFF AND PUSH2 0xDC3 SWAP1 SWAP3 SWAP2 SWAP1 PUSH4 0xFFFFFFFF AND JUMP JUMPDEST CALLER PUSH20 0xFFFFFFFFFFFFFFFFFFFFFFFFFFFFFFFFFFFFFFFF AND PUSH32 0x896E034966EAAF1ADC54ACC0F257056FEBBD300C9E47182CF761982CF1F5E430 DUP3 PUSH1 0x40 MLOAD PUSH2 0x5CA SWAP2 SWAP1 PUSH2 0x1059 JUMP JUMPDEST PUSH1 0x40 MLOAD DUP1 SWAP2 SUB SWAP1 LOG2 POP PUSH2 0x5DB PUSH2 0xE42 JUMP JUMPDEST JUMP JUMPDEST PUSH1 0x8 PUSH0 SWAP1 SLOAD SWAP1 PUSH2 0x100 EXP SWAP1 DIV PUSH1 0xFF AND DUP2 JUMP JUMPDEST PUSH2 0x5F7 PUSH2 0xCED JUMP JUMPDEST PUSH2 0x600 PUSH0 PUSH2 0xE4B JUMP JUMPDEST JUMP JUMPDEST PUSH1 0x4 SLOAD DUP2 JUMP JUMPDEST PUSH1 0x3 SLOAD DUP2 JUMP JUMPDEST PUSH1 0xA PUSH1 0x20 MSTORE DUP1 PUSH0 MSTORE PUSH1 0x40 PUSH0 KECCAK256 PUSH0 SWAP2 POP SWAP1 POP SLOAD DUP2 JUMP JUMPDEST PUSH0 DUP1 PUSH0 SWAP1 SLOAD SWAP1 PUSH2 0x100 EXP SWAP1 DIV PUSH20 0xFFFFFFFFFFFFFFFFFFFFFFFFFFFFFFFFFFFFFFFF AND SWAP1 POP SWAP1 JUMP JUMPDEST PUSH1 0x7 SLOAD DUP2 JUMP JUMPDEST PUSH2 0x658 PUSH2 0xCED JUMP JUMPDEST PUSH0 PUSH1 0x2 PUSH0 SWAP1 SLOAD SWAP1 PUSH2 0x100 EXP SWAP1 DIV PUSH20 0xFFFFFFFFFFFFFFFFFFFFFFFFFFFFFFFFFFFFFFFF AND PUSH20 0xFFFFFFFFFFFFFFFFFFFFFFFFFFFFFFFFFFFFFFFF AND PUSH4 0x70A08231 ADDRESS PUSH1 0x40 MLOAD DUP3 PUSH4 0xFFFFFFFF AND PUSH1 0xE0 SHL DUP2 MSTORE PUSH1 0x4 ADD PUSH2 0x6B3 SWAP2 SWAP1 PUSH2 0x111E JUMP JUMPDEST PUSH1 0x20 PUSH1 0x40 MLOAD DUP1 DUP4 SUB DUP2 DUP7 GAS STATICCALL ISZERO DUP1 ISZERO PUSH2 0x6CE JUMPI RETURNDATASIZE PUSH0 DUP1 RETURNDATACOPY RETURNDATASIZE PUSH0 REVERT JUMPDEST POP POP POP POP PUSH1 0x40 MLOAD RETURNDATASIZE PUSH1 0x1F NOT PUSH1 0x1F DUP3 ADD AND DUP3 ADD DUP1 PUSH1 0x40 MSTORE POP DUP2 ADD SWAP1 PUSH2 0x6F2 SWAP2 SWAP1 PUSH2 0x122E JUMP JUMPDEST SWAP1 POP PUSH0 DUP2 GT PUSH2 0x736 JUMPI PUSH1 0x40 MLOAD PUSH32 0x8C379A000000000000000000000000000000000000000000000000000000000 DUP2 MSTORE PUSH1 0x4 ADD PUSH2 0x72D SWAP1 PUSH2 0x12A3 JUMP JUMPDEST PUSH1 0x40 MLOAD DUP1 SWAP2 SUB SWAP1 REVERT JUMPDEST PUSH2 0x789 PUSH2 0x741 PUSH2 0x623 JUMP JUMPDEST DUP3 PUSH1 0x2 PUSH0 SWAP1 SLOAD SWAP1 PUSH2 0x100 EXP SWAP1 DIV PUSH20 0xFFFFFFFFFFFFFFFFFFFFFFFFFFFFFFFFFFFFFFFF AND PUSH20 0xFFFFFFFFFFFFFFFFFFFFFFFFFFFFFFFFFFFFFFFF AND PUSH2 0xDC3 SWAP1 SWAP3 SWAP2 SWAP1 PUSH4 0xFFFFFFFF AND JUMP JUMPDEST POP JUMP JUMPDEST PUSH2 0x794 PUSH2 0xD74 JUMP JUMPDEST PUSH1 0x4 SLOAD TIMESTAMP LT ISZERO DUP1 ISZERO PUSH2 0x7A8 JUMPI POP PUSH1 0x5 SLOAD TIMESTAMP GT ISZERO JUMPDEST PUSH2 0x7E7 JUMPI PUSH1 0x40 MLOAD PUSH32 0x8C379A000000000000000000000000000000000000000000000000000000000 DUP2 MSTORE PUSH1 0x4 ADD PUSH2 0x7DE SWAP1 PUSH2 0x130B JUMP JUMPDEST PUSH1 0x40 MLOAD DUP1 SWAP2 SUB SWAP1 REVERT JUMPDEST PUSH1 0x8 PUSH0 SWAP1 SLOAD SWAP1 PUSH2 0x100 EXP SWAP1 DIV PUSH1 0xFF AND ISZERO PUSH2 0x836 JUMPI PUSH1 0x40 MLOAD PUSH32 0x8C379A000000000000000000000000000000000000000000000000000000000 DUP2 MSTORE PUSH1 0x4 ADD PUSH2 0x82D SWAP1 PUSH2 0x1373 JUMP JUMPDEST PUSH1 0x40 MLOAD DUP1 SWAP2 SUB SWAP1 REVERT JUMPDEST PUSH0 CALLVALUE GT PUSH2 0x878 JUMPI PUSH1 0x40 MLOAD PUSH32 0x8C379A000000000000000000000000000000000000000000000000000000000 DUP2 MSTORE PUSH1 0x4 ADD PUSH2 0x86F SWAP1 PUSH2 0x13DB JUMP JUMPDEST PUSH1 0x40 MLOAD DUP1 SWAP2 SUB SWAP1 REVERT JUMPDEST PUSH1 0x6 SLOAD CALLVALUE PUSH1 0x7 SLOAD PUSH2 0x889 SWAP2 SWAP1 PUSH2 0x1426 JUMP JUMPDEST GT ISZERO PUSH2 0x8CA JUMPI PUSH1 0x40 MLOAD PUSH32 0x8C379A000000000000000000000000000000000000000000000000000000000 DUP2 MSTORE PUSH1 0x4 ADD PUSH2 0x8C1 SWAP1 PUSH2 0x14A3 JUMP JUMPDEST PUSH1 0x40 MLOAD DUP1 SWAP2 SUB SWAP1 REVERT JUMPDEST PUSH0 PUSH1 0x3 SLOAD PUSH8 0xDE0B6B3A7640000 CALLVALUE PUSH2 0x8E2 SWAP2 SWAP1 PUSH2 0x14C1 JUMP JUMPDEST PUSH2 0x8EC SWAP2 SWAP1 PUSH2 0x152F JUMP JUMPDEST SWAP1 POP DUP1 PUSH1 0xA PUSH0 CALLER PUSH20 0xFFFFFFFFFFFFFFFFFFFFFFFFFFFFFFFFFFFFFFFF AND PUSH20 0xFFFFFFFFFFFFFFFFFFFFFFFFFFFFFFFFFFFFFFFF AND DUP2 MSTORE PUSH1 0x20 ADD SWAP1 DUP2 MSTORE PUSH1 0x20 ADD PUSH0 KECCAK256 PUSH0 DUP3 DUP3 SLOAD PUSH2 0x93A SWAP2 SWAP1 PUSH2 0x1426 JUMP JUMPDEST SWAP3 POP POP DUP2 SWAP1 SSTORE POP CALLVALUE PUSH1 0x9 PUSH0 CALLER PUSH20 0xFFFFFFFFFFFFFFFFFFFFFFFFFFFFFFFFFFFFFFFF AND PUSH20 0xFFFFFFFFFFFFFFFFFFFFFFFFFFFFFFFFFFFFFFFF AND DUP2 MSTORE PUSH1 0x20 ADD SWAP1 DUP2 MSTORE PUSH1 0x20 ADD PUSH0 KECCAK256 PUSH0 DUP3 DUP3 SLOAD PUSH2 0x98D SWAP2 SWAP1 PUSH2 0x1426 JUMP JUMPDEST SWAP3 POP POP DUP2 SWAP1 SSTORE POP CALLVALUE PUSH1 0x7 PUSH0 DUP3 DUP3 SLOAD PUSH2 0x9A5 SWAP2 SWAP1 PUSH2 0x1426 JUMP JUMPDEST SWAP3 POP POP DUP2 SWAP1 SSTORE POP CALLER PUSH20 0xFFFFFFFFFFFFFFFFFFFFFFFFFFFFFFFFFFFFFFFF AND PUSH32 0x8FAFEBCAF9D154343DAD25669BFA277F4FBACD7AC6B0C4FED522580E040A0F33 CALLVALUE DUP4 PUSH1 0x40 MLOAD PUSH2 0x9F4 SWAP3 SWAP2 SWAP1 PUSH2 0x155F JUMP JUMPDEST PUSH1 0x40 MLOAD DUP1 SWAP2 SUB SWAP1 LOG2 POP PUSH2 0xA05 PUSH2 0xE42 JUMP JUMPDEST JUMP JUMPDEST PUSH2 0xA0F PUSH2 0xCED JUMP JUMPDEST DUP1 PUSH1 0x8 PUSH0 PUSH2 0x100 EXP DUP2 SLOAD DUP2 PUSH1 0xFF MUL NOT AND SWAP1 DUP4 ISZERO ISZERO MUL OR SWAP1 SSTORE POP PUSH32 0x66006354AC6A35F0F9B001E7CD8A73623BAB487BE4239F71FB1428656E7DE6A6 DUP2 PUSH1 0x40 MLOAD PUSH2 0xA57 SWAP2 SWAP1 PUSH2 0x10F6 JUMP JUMPDEST PUSH1 0x40 MLOAD DUP1 SWAP2 SUB SWAP1 LOG1 POP JUMP JUMPDEST PUSH3 0x278D00 DUP2 JUMP JUMPDEST PUSH2 0xA71 PUSH2 0xD74 JUMP JUMPDEST PUSH1 0x8 PUSH0 SWAP1 SLOAD SWAP1 PUSH2 0x100 EXP SWAP1 DIV PUSH1 0xFF AND PUSH2 0xABF JUMPI PUSH1 0x40 MLOAD PUSH32 0x8C379A000000000000000000000000000000000000000000000000000000000 DUP2 MSTORE PUSH1 0x4 ADD PUSH2 0xAB6 SWAP1 PUSH2 0x15D0 JUMP JUMPDEST PUSH1 0x40 MLOAD DUP1 SWAP2 SUB SWAP1 REVERT JUMPDEST PUSH0 PUSH1 0x9 PUSH0 CALLER PUSH20 0xFFFFFFFFFFFFFFFFFFFFFFFFFFFFFFFFFFFFFFFF AND PUSH20 0xFFFFFFFFFFFFFFFFFFFFFFFFFFFFFFFFFFFFFFFF AND DUP2 MSTORE PUSH1 0x20 ADD SWAP1 DUP2 MSTORE PUSH1 0x20 ADD PUSH0 KECCAK256 SLOAD SWAP1 POP PUSH0 DUP2 GT PUSH2 0xB42 JUMPI PUSH1 0x40 MLOAD PUSH32 0x8C379A000000000000000000000000000000000000000000000000000000000 DUP2 MSTORE PUSH1 0x4 ADD PUSH2 0xB39 SWAP1 PUSH2 0x1638 JUMP JUMPDEST PUSH1 0x40 MLOAD DUP1 SWAP2 SUB SWAP1 REVERT JUMPDEST PUSH0 PUSH1 0x9 PUSH0 CALLER PUSH20 0xFFFFFFFFFFFFFFFFFFFFFFFFFFFFFFFFFFFFFFFF AND PUSH20 0xFFFFFFFFFFFFFFFFFFFFFFFFFFFFFFFFFFFFFFFF AND DUP2 MSTORE PUSH1 0x20 ADD SWAP1 DUP2 MSTORE PUSH1 0x20 ADD PUSH0 KECCAK256 DUP2 SWAP1 SSTORE POP PUSH0 PUSH1 0xA PUSH0 CALLER PUSH20 0xFFFFFFFFFFFFFFFFFFFFFFFFFFFFFFFFFFFFFFFF AND PUSH20 0xFFFFFFFFFFFFFFFFFFFFFFFFFFFFFFFFFFFFFFFF AND DUP2 MSTORE PUSH1 0x20 ADD SWAP1 DUP2 MSTORE PUSH1 0x20 ADD PUSH0 KECCAK256 DUP2 SWAP1 SSTORE POP CALLER PUSH20 0xFFFFFFFFFFFFFFFFFFFFFFFFFFFFFFFFFFFFFFFF AND PUSH2 0x8FC DUP3 SWAP1 DUP2 ISZERO MUL SWAP1 PUSH1 0x40 MLOAD PUSH0 PUSH1 0x40 MLOAD DUP1 DUP4 SUB DUP2 DUP6 DUP9 DUP9 CALL SWAP4 POP POP POP POP ISZERO DUP1 ISZERO PUSH2 0xC09 JUMPI RETURNDATASIZE PUSH0 DUP1 RETURNDATACOPY RETURNDATASIZE PUSH0 REVERT JUMPDEST POP CALLER PUSH20 0xFFFFFFFFFFFFFFFFFFFFFFFFFFFFFFFFFFFFFFFF AND PUSH32 0x5FAFA99D0643513820BE26656B45130B01E1C03062E1266BF36F88CBD3BD9695 DUP3 PUSH1 0x40 MLOAD PUSH2 0xC50 SWAP2 SWAP1 PUSH2 0x1059 JUMP JUMPDEST PUSH1 0x40 MLOAD DUP1 SWAP2 SUB SWAP1 LOG2 POP PUSH2 0xC61 PUSH2 0xE42 JUMP JUMPDEST JUMP JUMPDEST PUSH2 0xC6B PUSH2 0xCED JUMP JUMPDEST PUSH0 PUSH20 0xFFFFFFFFFFFFFFFFFFFFFFFFFFFFFFFFFFFFFFFF AND DUP2 PUSH20 0xFFFFFFFFFFFFFFFFFFFFFFFFFFFFFFFFFFFFFFFF AND SUB PUSH2 0xCDB JUMPI PUSH0 PUSH1 0x40 MLOAD PUSH32 0x1E4FBDF700000000000000000000000000000000000000000000000000000000 DUP2 MSTORE PUSH1 0x4 ADD PUSH2 0xCD2 SWAP2 SWAP1 PUSH2 0x111E JUMP JUMPDEST PUSH1 0x40 MLOAD DUP1 SWAP2 SUB SWAP1 REVERT JUMPDEST PUSH2 0xCE4 DUP2 PUSH2 0xE4B JUMP JUMPDEST POP JUMP JUMPDEST PUSH1 0x6 SLOAD DUP2 JUMP JUMPDEST PUSH2 0xCF5 PUSH2 0xF0C JUMP JUMPDEST PUSH20 0xFFFFFFFFFFFFFFFFFFFFFFFFFFFFFFFFFFFFFFFF AND PUSH2 0xD13 PUSH2 0x623 JUMP JUMPDEST PUSH20 0xFFFFFFFFFFFFFFFFFFFFFFFFFFFFFFFFFFFFFFFF AND EQ PUSH2 0xD72 JUMPI PUSH2 0xD36 PUSH2 0xF0C JUMP JUMPDEST PUSH1 0x40 MLOAD PUSH32 0x118CDAA700000000000000000000000000000000000000000000000000000000 DUP2 MSTORE PUSH1 0x4 ADD PUSH2 0xD69 SWAP2 SWAP1 PUSH2 0x111E JUMP JUMPDEST PUSH1 0x40 MLOAD DUP1 SWAP2 SUB SWAP1 REVERT JUMPDEST JUMP JUMPDEST PUSH1 0x2 PUSH1 0x1 SLOAD SUB PUSH2 0xDB9 JUMPI PUSH1 0x40 MLOAD PUSH32 0x8C379A000000000000000000000000000000000000000000000000000000000 DUP2 MSTORE PUSH1 0x4 ADD PUSH2 0xDB0 SWAP1 PUSH2 0x16A0 JUMP JUMPDEST PUSH1 0x40 MLOAD DUP1 SWAP2 SUB SWAP1 REVERT JUMPDEST PUSH1 0x2 PUSH1 0x1 DUP2 SWAP1 SSTORE POP JUMP JUMPDEST PUSH2 0xE3D DUP4 DUP5 PUSH20 0xFFFFFFFFFFFFFFFFFFFFFFFFFFFFFFFFFFFFFFFF AND PUSH4 0xA9059CBB DUP6 DUP6 PUSH1 0x40 MLOAD PUSH1 0x24 ADD PUSH2 0xDF6 SWAP3 SWAP2 SWAP1 PUSH2 0x16BE JUMP JUMPDEST PUSH1 0x40 MLOAD PUSH1 0x20 DUP2 DUP4 SUB SUB DUP2 MSTORE SWAP1 PUSH1 0x40 MSTORE SWAP2 POP PUSH1 0xE0 SHL PUSH1 0x20 DUP3 ADD DUP1 MLOAD PUSH28 0xFFFFFFFFFFFFFFFFFFFFFFFFFFFFFFFFFFFFFFFFFFFFFFFFFFFFFFFF DUP4 DUP2 DUP4 AND OR DUP4 MSTORE POP POP POP POP PUSH2 0xF13 JUMP JUMPDEST POP POP POP JUMP JUMPDEST PUSH1 0x1 DUP1 DUP2 SWAP1 SSTORE POP JUMP JUMPDEST PUSH0 DUP1 PUSH0 SWAP1 SLOAD SWAP1 PUSH2 0x100 EXP SWAP1 DIV PUSH20 0xFFFFFFFFFFFFFFFFFFFFFFFFFFFFFFFFFFFFFFFF AND SWAP1 POP DUP2 PUSH0 DUP1 PUSH2 0x100 EXP DUP2 SLOAD DUP2 PUSH20 0xFFFFFFFFFFFFFFFFFFFFFFFFFFFFFFFFFFFFFFFF MUL NOT AND SWAP1 DUP4 PUSH20 0xFFFFFFFFFFFFFFFFFFFFFFFFFFFFFFFFFFFFFFFF AND MUL OR SWAP1 SSTORE POP DUP2 PUSH20 0xFFFFFFFFFFFFFFFFFFFFFFFFFFFFFFFFFFFFFFFF AND DUP2 PUSH20 0xFFFFFFFFFFFFFFFFFFFFFFFFFFFFFFFFFFFFFFFF AND PUSH32 0x8BE0079C531659141344CD1FD0A4F28419497F9722A3DAAFE3B4186F6B6457E0 PUSH1 0x40 MLOAD PUSH1 0x40 MLOAD DUP1 SWAP2 SUB SWAP1 LOG3 POP POP JUMP JUMPDEST PUSH0 CALLER SWAP1 POP SWAP1 JUMP JUMPDEST PUSH0 DUP1 PUSH1 0x20 PUSH0 DUP5 MLOAD PUSH1 0x20 DUP7 ADD PUSH0 DUP9 GAS CALL DUP1 PUSH2 0xF32 JUMPI PUSH1 0x40 MLOAD RETURNDATASIZE PUSH0 DUP3 RETURNDATACOPY RETURNDATASIZE DUP2 REVERT JUMPDEST RETURNDATASIZE SWAP3 POP PUSH0 MLOAD SWAP2 POP POP PUSH0 DUP3 EQ PUSH2 0xF4B JUMPI PUSH1 0x1 DUP2 EQ ISZERO PUSH2 0xF66 JUMP JUMPDEST PUSH0 DUP5 PUSH20 0xFFFFFFFFFFFFFFFFFFFFFFFFFFFFFFFFFFFFFFFF AND EXTCODESIZE EQ JUMPDEST ISZERO PUSH2 0xFA8 JUMPI DUP4 PUSH1 0x40 MLOAD PUSH32 0x5274AFE700000000000000000000000000000000000000000000000000000000 DUP2 MSTORE PUSH1 0x4 ADD PUSH2 0xF9F SWAP2 SWAP1 PUSH2 0x111E JUMP JUMPDEST PUSH1 0x40 MLOAD DUP1 SWAP2 SUB SWAP1 REVERT JUMPDEST POP POP POP POP JUMP JUMPDEST PUSH0 PUSH20 0xFFFFFFFFFFFFFFFFFFFFFFFFFFFFFFFFFFFFFFFF DUP3 AND SWAP1 POP SWAP2 SWAP1 POP JUMP JUMPDEST PUSH0 DUP2 SWAP1 POP SWAP2 SWAP1 POP JUMP JUMPDEST PUSH0 PUSH2 0xFF0 PUSH2 0xFEB PUSH2 0xFE6 DUP5 PUSH2 0xFAE JUMP JUMPDEST PUSH2 0xFCD JUMP JUMPDEST PUSH2 0xFAE JUMP JUMPDEST SWAP1 POP SWAP2 SWAP1 POP JUMP JUMPDEST PUSH0 PUSH2 0x1001 DUP3 PUSH2 0xFD6 JUMP JUMPDEST SWAP1 POP SWAP2 SWAP1 POP JUMP JUMPDEST PUSH0 PUSH2 0x1012 DUP3 PUSH2 0xFF7 JUMP JUMPDEST SWAP1 POP SWAP2 SWAP1 POP JUMP JUMPDEST PUSH2 0x1022 DUP2 PUSH2 0x1008 JUMP JUMPDEST DUP3 MSTORE POP POP JUMP JUMPDEST PUSH0 PUSH1 0x20 DUP3 ADD SWAP1 POP PUSH2 0x103B PUSH0 DUP4 ADD DUP5 PUSH2 0x1019 JUMP JUMPDEST SWAP3 SWAP2 POP POP JUMP JUMPDEST PUSH0 DUP2 SWAP1 POP SWAP2 SWAP1 POP JUMP JUMPDEST PUSH2 0x1053 DUP2 PUSH2 0x1041 JUMP JUMPDEST DUP3 MSTORE POP POP JUMP JUMPDEST PUSH0 PUSH1 0x20 DUP3 ADD SWAP1 POP PUSH2 0x106C PUSH0 DUP4 ADD DUP5 PUSH2 0x104A JUMP JUMPDEST SWAP3 SWAP2 POP POP JUMP JUMPDEST PUSH0 DUP1 REVERT JUMPDEST PUSH0 PUSH2 0x1080 DUP3 PUSH2 0xFAE JUMP JUMPDEST SWAP1 POP SWAP2 SWAP1 POP JUMP JUMPDEST PUSH2 0x1090 DUP2 PUSH2 0x1076 JUMP JUMPDEST DUP2 EQ PUSH2 0x109A JUMPI PUSH0 DUP1 REVERT JUMPDEST POP JUMP JUMPDEST PUSH0 DUP2 CALLDATALOAD SWAP1 POP PUSH2 0x10AB DUP2 PUSH2 0x1087 JUMP JUMPDEST SWAP3 SWAP2 POP POP JUMP JUMPDEST PUSH0 PUSH1 0x20 DUP3 DUP5 SUB SLT ISZERO PUSH2 0x10C6 JUMPI PUSH2 0x10C5 PUSH2 0x1072 JUMP JUMPDEST JUMPDEST PUSH0 PUSH2 0x10D3 DUP5 DUP3 DUP6 ADD PUSH2 0x109D JUMP JUMPDEST SWAP2 POP POP SWAP3 SWAP2 POP POP JUMP JUMPDEST PUSH0 DUP2 ISZERO ISZERO SWAP1 POP SWAP2 SWAP1 POP JUMP JUMPDEST PUSH2 0x10F0 DUP2 PUSH2 0x10DC JUMP JUMPDEST DUP3 MSTORE POP POP JUMP JUMPDEST PUSH0 PUSH1 0x20 DUP3 ADD SWAP1 POP PUSH2 0x1109 PUSH0 DUP4 ADD DUP5 PUSH2 0x10E7 JUMP JUMPDEST SWAP3 SWAP2 POP POP JUMP JUMPDEST PUSH2 0x1118 DUP2 PUSH2 0x1076 JUMP JUMPDEST DUP3 MSTORE POP POP JUMP JUMPDEST PUSH0 PUSH1 0x20 DUP3 ADD SWAP1 POP PUSH2 0x1131 PUSH0 DUP4 ADD DUP5 PUSH2 0x110F JUMP JUMPDEST SWAP3 SWAP2 POP POP JUMP JUMPDEST PUSH2 0x1140 DUP2 PUSH2 0x10DC JUMP JUMPDEST DUP2 EQ PUSH2 0x114A JUMPI PUSH0 DUP1 REVERT JUMPDEST POP JUMP JUMPDEST PUSH0 DUP2 CALLDATALOAD SWAP1 POP PUSH2 0x115B DUP2 PUSH2 0x1137 JUMP JUMPDEST SWAP3 SWAP2 POP POP JUMP JUMPDEST PUSH0 PUSH1 0x20 DUP3 DUP5 SUB SLT ISZERO PUSH2 0x1176 JUMPI PUSH2 0x1175 PUSH2 0x1072 JUMP JUMPDEST JUMPDEST PUSH0 PUSH2 0x1183 DUP5 DUP3 DUP6 ADD PUSH2 0x114D JUMP JUMPDEST SWAP2 POP POP SWAP3 SWAP2 POP POP JUMP JUMPDEST PUSH0 DUP3 DUP3 MSTORE PUSH1 0x20 DUP3 ADD SWAP1 POP SWAP3 SWAP2 POP POP JUMP JUMPDEST PUSH32 0x4E6F7468696E6720746F20636C61696D00000000000000000000000000000000 PUSH0 DUP3 ADD MSTORE POP JUMP JUMPDEST PUSH0 PUSH2 0x11D0 PUSH1 0x10 DUP4 PUSH2 0x118C JUMP JUMPDEST SWAP2 POP PUSH2 0x11DB DUP3 PUSH2 0x119C JUMP JUMPDEST PUSH1 0x20 DUP3 ADD SWAP1 POP SWAP2 SWAP1 POP JUMP JUMPDEST PUSH0 PUSH1 0x20 DUP3 ADD SWAP1 POP DUP2 DUP2 SUB PUSH0 DUP4 ADD MSTORE PUSH2 0x11FD DUP2 PUSH2 0x11C4 JUMP JUMPDEST SWAP1 POP SWAP2 SWAP1 POP JUMP JUMPDEST PUSH2 0x120D DUP2 PUSH2 0x1041 JUMP JUMPDEST DUP2 EQ PUSH2 0x1217 JUMPI PUSH0 DUP1 REVERT JUMPDEST POP JUMP JUMPDEST PUSH0 DUP2 MLOAD SWAP1 POP PUSH2 0x1228 DUP2 PUSH2 0x1204 JUMP JUMPDEST SWAP3 SWAP2 POP POP JUMP JUMPDEST PUSH0 PUSH1 0x20 DUP3 DUP5 SUB SLT ISZERO PUSH2 0x1243 JUMPI PUSH2 0x1242 PUSH2 0x1072 JUMP JUMPDEST JUMPDEST PUSH0 PUSH2 0x1250 DUP5 DUP3 DUP6 ADD PUSH2 0x121A JUMP JUMPDEST SWAP2 POP POP SWAP3 SWAP2 POP POP JUMP JUMPDEST PUSH32 0x4E6F20746F6B656E730000000000000000000000000000000000000000000000 PUSH0 DUP3 ADD MSTORE POP JUMP JUMPDEST PUSH0 PUSH2 0x128D PUSH1 0x9 DUP4 PUSH2 0x118C JUMP JUMPDEST SWAP2 POP PUSH2 0x1298 DUP3 PUSH2 0x1259 JUMP JUMPDEST PUSH1 0x20 DUP3 ADD SWAP1 POP SWAP2 SWAP1 POP JUMP JUMPDEST PUSH0 PUSH1 0x20 DUP3 ADD SWAP1 POP DUP2 DUP2 SUB PUSH0 DUP4 ADD MSTORE PUSH2 0x12BA DUP2 PUSH2 0x1281 JUMP JUMPDEST SWAP1 POP SWAP2 SWAP1 POP JUMP JUMPDEST PUSH32 0x50726573616C65206E6F74206163746976650000000000000000000000000000 PUSH0 DUP3 ADD MSTORE POP JUMP JUMPDEST PUSH0 PUSH2 0x12F5 PUSH1 0x12 DUP4 PUSH2 0x118C JUMP JUMPDEST SWAP2 POP PUSH2 0x1300 DUP3 PUSH2 0x12C1 JUMP JUMPDEST PUSH1 0x20 DUP3 ADD SWAP1 POP SWAP2 SWAP1 POP JUMP JUMPDEST PUSH0 PUSH1 0x20 DUP3 ADD SWAP1 POP DUP2 DUP2 SUB PUSH0 DUP4 ADD MSTORE PUSH2 0x1322 DUP2 PUSH2 0x12E9 JUMP JUMPDEST SWAP1 POP SWAP2 SWAP1 POP JUMP JUMPDEST PUSH32 0x50726573616C6520706175736564000000000000000000000000000000000000 PUSH0 DUP3 ADD MSTORE POP JUMP JUMPDEST PUSH0 PUSH2 0x135D PUSH1 0xE DUP4 PUSH2 0x118C JUMP JUMPDEST SWAP2 POP PUSH2 0x1368 DUP3 PUSH2 0x1329 JUMP JUMPDEST PUSH1 0x20 DUP3 ADD SWAP1 POP SWAP2 SWAP1 POP JUMP JUMPDEST PUSH0 PUSH1 0x20 DUP3 ADD SWAP1 POP DUP2 DUP2 SUB PUSH0 DUP4 ADD MSTORE PUSH2 0x138A DUP2 PUSH2 0x1351 JUMP JUMPDEST SWAP1 POP SWAP2 SWAP1 POP JUMP JUMPDEST PUSH32 0x53656E64204D4154494300000000000000000000000000000000000000000000 PUSH0 DUP3 ADD MSTORE POP JUMP JUMPDEST PUSH0 PUSH2 0x13C5 PUSH1 0xA DUP4 PUSH2 0x118C JUMP JUMPDEST SWAP2 POP PUSH2 0x13D0 DUP3 PUSH2 0x1391 JUMP JUMPDEST PUSH1 0x20 DUP3 ADD SWAP1 POP SWAP2 SWAP1 POP JUMP JUMPDEST PUSH0 PUSH1 0x20 DUP3 ADD SWAP1 POP DUP2 DUP2 SUB PUSH0 DUP4 ADD MSTORE PUSH2 0x13F2 DUP2 PUSH2 0x13B9 JUMP JUMPDEST SWAP1 POP SWAP2 SWAP1 POP JUMP JUMPDEST PUSH32 0x4E487B7100000000000000000000000000000000000000000000000000000000 PUSH0 MSTORE PUSH1 0x11 PUSH1 0x4 MSTORE PUSH1 0x24 PUSH0 REVERT JUMPDEST PUSH0 PUSH2 0x1430 DUP3 PUSH2 0x1041 JUMP JUMPDEST SWAP2 POP PUSH2 0x143B DUP4 PUSH2 0x1041 JUMP JUMPDEST SWAP3 POP DUP3 DUP3 ADD SWAP1 POP DUP1 DUP3 GT ISZERO PUSH2 0x1453 JUMPI PUSH2 0x1452 PUSH2 0x13F9 JUMP JUMPDEST JUMPDEST SWAP3 SWAP2 POP POP JUMP JUMPDEST PUSH32 0x4578636565647320686172646361700000000000000000000000000000000000 PUSH0 DUP3 ADD MSTORE POP JUMP JUMPDEST PUSH0 PUSH2 0x148D PUSH1 0xF DUP4 PUSH2 0x118C JUMP JUMPDEST SWAP2 POP PUSH2 0x1498 DUP3 PUSH2 0x1459 JUMP JUMPDEST PUSH1 0x20 DUP3 ADD SWAP1 POP SWAP2 SWAP1 POP JUMP JUMPDEST PUSH0 PUSH1 0x20 DUP3 ADD SWAP1 POP DUP2 DUP2 SUB PUSH0 DUP4 ADD MSTORE PUSH2 0x14BA DUP2 PUSH2 0x1481 JUMP JUMPDEST SWAP1 POP SWAP2 SWAP1 POP JUMP JUMPDEST PUSH0 PUSH2 0x14CB DUP3 PUSH2 0x1041 JUMP JUMPDEST SWAP2 POP PUSH2 0x14D6 DUP4 PUSH2 0x1041 JUMP JUMPDEST SWAP3 POP DUP3 DUP3 MUL PUSH2 0x14E4 DUP2 PUSH2 0x1041 JUMP JUMPDEST SWAP2 POP DUP3 DUP3 DIV DUP5 EQ DUP4 ISZERO OR PUSH2 0x14FB JUMPI PUSH2 0x14FA PUSH2 0x13F9 JUMP JUMPDEST JUMPDEST POP SWAP3 SWAP2 POP POP JUMP JUMPDEST PUSH32 0x4E487B7100000000000000000000000000000000000000000000000000000000 PUSH0 MSTORE PUSH1 0x12 PUSH1 0x4 MSTORE PUSH1 0x24 PUSH0 REVERT JUMPDEST PUSH0 PUSH2 0x1539 DUP3 PUSH2 0x1041 JUMP JUMPDEST SWAP2 POP PUSH2 0x1544 DUP4 PUSH2 0x1041 JUMP JUMPDEST SWAP3 POP DUP3 PUSH2 0x1554 JUMPI PUSH2 0x1553 PUSH2 0x1502 JUMP JUMPDEST JUMPDEST DUP3 DUP3 DIV SWAP1 POP SWAP3 SWAP2 POP POP JUMP JUMPDEST PUSH0 PUSH1 0x40 DUP3 ADD SWAP1 POP PUSH2 0x1572 PUSH0 DUP4 ADD DUP6 PUSH2 0x104A JUMP JUMPDEST PUSH2 0x157F PUSH1 0x20 DUP4 ADD DUP5 PUSH2 0x104A JUMP JUMPDEST SWAP4 SWAP3 POP POP POP JUMP JUMPDEST PUSH32 0x4E6F742070617573656400000000000000000000000000000000000000000000 PUSH0 DUP3 ADD MSTORE POP JUMP JUMPDEST PUSH0 PUSH2 0x15BA PUSH1 0xA DUP4 PUSH2 0x118C JUMP JUMPDEST SWAP2 POP PUSH2 0x15C5 DUP3 PUSH2 0x1586 JUMP JUMPDEST PUSH1 0x20 DUP3 ADD SWAP1 POP SWAP2 SWAP1 POP JUMP JUMPDEST PUSH0 PUSH1 0x20 DUP3 ADD SWAP1 POP DUP2 DUP2 SUB PUSH0 DUP4 ADD MSTORE PUSH2 0x15E7 DUP2 PUSH2 0x15AE JUMP JUMPDEST SWAP1 POP SWAP2 SWAP1 POP JUMP JUMPDEST PUSH32 0x4E6F7468696E6720746F20726566756E64000000000000000000000000000000 PUSH0 DUP3 ADD MSTORE POP JUMP JUMPDEST PUSH0 PUSH2 0x1622 PUSH1 0x11 DUP4 PUSH2 0x118C JUMP JUMPDEST SWAP2 POP PUSH2 0x162D DUP3 PUSH2 0x15EE JUMP JUMPDEST PUSH1 0x20 DUP3 ADD SWAP1 POP SWAP2 SWAP1 POP JUMP JUMPDEST PUSH0 PUSH1 0x20 DUP3 ADD SWAP1 POP DUP2 DUP2 SUB PUSH0 DUP4 ADD MSTORE PUSH2 0x164F DUP2 PUSH2 0x1616 JUMP JUMPDEST SWAP1 POP SWAP2 SWAP1 POP JUMP JUMPDEST PUSH32 0x5265656E7472616E637947756172643A207265656E7472616E742063616C6C00 PUSH0 DUP3 ADD MSTORE POP JUMP JUMPDEST PUSH0 PUSH2 0x168A PUSH1 0x1F DUP4 PUSH2 0x118C JUMP JUMPDEST SWAP2 POP PUSH2 0x1695 DUP3 PUSH2 0x1656 JUMP JUMPDEST PUSH1 0x20 DUP3 ADD SWAP1 POP SWAP2 SWAP1 POP JUMP JUMPDEST PUSH0 PUSH1 0x20 DUP3 ADD SWAP1 POP DUP2 DUP2 SUB PUSH0 DUP4 ADD MSTORE PUSH2 0x16B7 DUP2 PUSH2 0x167E JUMP JUMPDEST SWAP1 POP SWAP2 SWAP1 POP JUMP JUMPDEST PUSH0 PUSH1 0x40 DUP3 ADD SWAP1 POP PUSH2 0x16D1 PUSH0 DUP4 ADD DUP6 PUSH2 0x110F JUMP JUMPDEST PUSH2 0x16DE PUSH1 0x20 DUP4 ADD DUP5 PUSH2 0x104A JUMP JUMPDEST SWAP4 SWAP3 POP POP POP JUMP INVALID LOG2 PUSH5 0x6970667358 0x22 SLT KECCAK256 0xBB 0xC5 SHR DUP7 0xD0 0xB5 0x4D NOT PUSH7 0x5B02248B040D25 SHL 0xDB SWAP14 CREATE2 0x1E SWAP12 SHL 0xAA 0x2C SWAP15 BYTE SWAP4 PUSH3 0x606062 PUSH5 0x736F6C6343 STOP ADDMOD XOR STOP CALLER "
				},
				"gasEstimates": {
					"creation": {
						"codeDepositCost": "1183000",
						"executionCost": "infinite",
						"totalCost": "infinite"
					},
					"external": {
						"MAX_PRESALE_DURATION()": "369",
						"alienToken()": "infinite",
						"buyTokens()": "infinite",
						"claimTokens()": "infinite",
						"claimableTokens(address)": "2825",
						"contributions(address)": "2892",
						"emergencyWithdraw()": "infinite",
						"endTime()": "2493",
						"hardCap()": "2535",
						"owner()": "2560",
						"pausePresale(bool)": "infinite",
						"paused()": "2511",
						"renounceOwnership()": "infinite",
						"startTime()": "2514",
						"tokenPrice()": "2536",
						"totalRaised()": "2492",
						"transferOwnership(address)": "infinite",
						"withdrawFunds()": "infinite",
						"withdrawUnsoldTokens()": "infinite"
					}
				},
				"methodIdentifiers": {
					"MAX_PRESALE_DURATION()": "d744b702",
					"alienToken()": "1958e58a",
					"buyTokens()": "d0febe4c",
					"claimTokens()": "48c54b9d",
					"claimableTokens(address)": "84d24226",
					"contributions(address)": "42e94c90",
					"emergencyWithdraw()": "db2e21bc",
					"endTime()": "3197cbb6",
					"hardCap()": "fb86a404",
					"owner()": "8da5cb5b",
					"pausePresale(bool)": "d7299ef7",
					"paused()": "5c975abb",
					"renounceOwnership()": "715018a6",
					"startTime()": "78e97925",
					"tokenPrice()": "7ff9b596",
					"totalRaised()": "c5c4744c",
					"transferOwnership(address)": "f2fde38b",
					"withdrawFunds()": "24600fc3",
					"withdrawUnsoldTokens()": "c8bdbfb6"
				}
			},
			"storageLayout": {
				"storage": [
					{
						"astId": 8,
						"contract": "AlienPresale.sol:AlienPresale",
						"label": "_owner",
						"offset": 0,
						"slot": "0",
						"type": "t_address"
					},
					{
						"astId": 248,
						"contract": "AlienPresale.sol:AlienPresale",
						"label": "_status",
						"offset": 0,
						"slot": "1",
						"type": "t_uint256"
					},
					{
						"astId": 903,
						"contract": "AlienPresale.sol:AlienPresale",
						"label": "alienToken",
						"offset": 0,
						"slot": "2",
						"type": "t_contract(IERC20)380"
					},
					{
						"astId": 905,
						"contract": "AlienPresale.sol:AlienPresale",
						"label": "tokenPrice",
						"offset": 0,
						"slot": "3",
						"type": "t_uint256"
					},
					{
						"astId": 907,
						"contract": "AlienPresale.sol:AlienPresale",
						"label": "startTime",
						"offset": 0,
						"slot": "4",
						"type": "t_uint256"
					},
					{
						"astId": 909,
						"contract": "AlienPresale.sol:AlienPresale",
						"label": "endTime",
						"offset": 0,
						"slot": "5",
						"type": "t_uint256"
					},
					{
						"astId": 911,
						"contract": "AlienPresale.sol:AlienPresale",
						"label": "hardCap",
						"offset": 0,
						"slot": "6",
						"type": "t_uint256"
					},
					{
						"astId": 913,
						"contract": "AlienPresale.sol:AlienPresale",
						"label": "totalRaised",
						"offset": 0,
						"slot": "7",
						"type": "t_uint256"
					},
					{
						"astId": 915,
						"contract": "AlienPresale.sol:AlienPresale",
						"label": "paused",
						"offset": 0,
						"slot": "8",
						"type": "t_bool"
					},
					{
						"astId": 922,
						"contract": "AlienPresale.sol:AlienPresale",
						"label": "contributions",
						"offset": 0,
						"slot": "9",
						"type": "t_mapping(t_address,t_uint256)"
					},
					{
						"astId": 926,
						"contract": "AlienPresale.sol:AlienPresale",
						"label": "claimableTokens",
						"offset": 0,
						"slot": "10",
						"type": "t_mapping(t_address,t_uint256)"
					}
				],
				"types": {
					"t_address": {
						"encoding": "inplace",
						"label": "address",
						"numberOfBytes": "20"
					},
					"t_bool": {
						"encoding": "inplace",
						"label": "bool",
						"numberOfBytes": "1"
					},
					"t_contract(IERC20)380": {
						"encoding": "inplace",
						"label": "contract IERC20",
						"numberOfBytes": "20"
					},
					"t_mapping(t_address,t_uint256)": {
						"encoding": "mapping",
						"key": "t_address",
						"label": "mapping(address => uint256)",
						"numberOfBytes": "32",
						"value": "t_uint256"
					},
					"t_uint256": {
						"encoding": "inplace",
						"label": "uint256",
						"numberOfBytes": "32"
					}
				}
			},
			"userdoc": {
				"kind": "user",
				"methods": {},
				"version": 1
			}
		}
	}
}