{
	"ComplaintDAO.sol": {
		"ComplaintDAO": {
			"abi": [
				{
					"inputs": [],
					"stateMutability": "nonpayable",
					"type": "constructor"
				},
				{
					"inputs": [
						{
							"internalType": "uint256",
							"name": "",
							"type": "uint256"
						}
					],
					"name": "complaints",
					"outputs": [
						{
							"internalType": "string",
							"name": "cid",
							"type": "string"
						},
						{
							"internalType": "uint256",
							"name": "upVotes",
							"type": "uint256"
						},
						{
							"internalType": "uint256",
							"name": "downVotes",
							"type": "uint256"
						}
					],
					"stateMutability": "view",
					"type": "function"
				},
				{
					"inputs": [
						{
							"internalType": "uint256",
							"name": "index",
							"type": "uint256"
						}
					],
					"name": "getComplaint",
					"outputs": [
						{
							"internalType": "string",
							"name": "cid",
							"type": "string"
						},
						{
							"internalType": "uint256",
							"name": "upVotes",
							"type": "uint256"
						},
						{
							"internalType": "uint256",
							"name": "downVotes",
							"type": "uint256"
						}
					],
					"stateMutability": "view",
					"type": "function"
				},
				{
					"inputs": [],
					"name": "getTotalComplaints",
					"outputs": [
						{
							"internalType": "uint256",
							"name": "",
							"type": "uint256"
						}
					],
					"stateMutability": "view",
					"type": "function"
				},
				{
					"inputs": [],
					"name": "owner",
					"outputs": [
						{
							"internalType": "address",
							"name": "",
							"type": "address"
						}
					],
					"stateMutability": "view",
					"type": "function"
				},
				{
					"inputs": [
						{
							"internalType": "string",
							"name": "cid",
							"type": "string"
						}
					],
					"name": "submitComplaint",
					"outputs": [],
					"stateMutability": "nonpayable",
					"type": "function"
				},
				{
					"inputs": [
						{
							"internalType": "uint256",
							"name": "index",
							"type": "uint256"
						},
						{
							"internalType": "bool",
							"name": "approve",
							"type": "bool"
						}
					],
					"name": "vote",
					"outputs": [],
					"stateMutability": "nonpayable",
					"type": "function"
				}
			],
			"devdoc": {
				"kind": "dev",
				"methods": {},
				"version": 1
			},
			"evm": {
				"assembly": "    /* \"ComplaintDAO.sol\":58:1291  contract ComplaintDAO {... */\n  mstore(0x40, 0x80)\n    /* \"ComplaintDAO.sol\":291:340  constructor() {... */\n  callvalue\n  dup1\n  iszero\n  tag_1\n  jumpi\n  revert(0x00, 0x00)\ntag_1:\n  pop\n    /* \"ComplaintDAO.sol\":323:333  msg.sender */\n  caller\n    /* \"ComplaintDAO.sol\":315:320  owner */\n  0x00\n  0x00\n    /* \"ComplaintDAO.sol\":315:333  owner = msg.sender */\n  0x0100\n  exp\n  dup2\n  sload\n  dup2\n  0xffffffffffffffffffffffffffffffffffffffff\n  mul\n  not\n  and\n  swap1\n  dup4\n  0xffffffffffffffffffffffffffffffffffffffff\n  and\n  mul\n  or\n  swap1\n  sstore\n  pop\n    /* \"ComplaintDAO.sol\":58:1291  contract ComplaintDAO {... */\n  dataSize(sub_0)\n  dup1\n  dataOffset(sub_0)\n  0x00\n  codecopy\n  0x00\n  return\nstop\n\nsub_0: assembly {\n        /* \"ComplaintDAO.sol\":58:1291  contract ComplaintDAO {... */\n      mstore(0x40, 0x80)\n      callvalue\n      dup1\n      iszero\n      tag_1\n      jumpi\n      revert(0x00, 0x00)\n    tag_1:\n      pop\n      jumpi(tag_2, lt(calldatasize, 0x04))\n      shr(0xe0, calldataload(0x00))\n      dup1\n      0x59f97801\n      eq\n      tag_3\n      jumpi\n      dup1\n      0x60d06892\n      eq\n      tag_4\n      jumpi\n      dup1\n      0x7e69e912\n      eq\n      tag_5\n      jumpi\n      dup1\n      0x8da5cb5b\n      eq\n      tag_6\n      jumpi\n      dup1\n      0xc9d27afe\n      eq\n      tag_7\n      jumpi\n      dup1\n      0xdee8ae43\n      eq\n      tag_8\n      jumpi\n    tag_2:\n      revert(0x00, 0x00)\n        /* \"ComplaintDAO.sol\":1186:1289  function getTotalComplaints() external view returns (uint256) {... */\n    tag_3:\n      tag_9\n      tag_10\n      jump\t// in\n    tag_9:\n      mload(0x40)\n      tag_11\n      swap2\n      swap1\n      tag_12\n      jump\t// in\n    tag_11:\n      mload(0x40)\n      dup1\n      swap2\n      sub\n      swap1\n      return\n        /* \"ComplaintDAO.sol\":346:500  function submitComplaint(string calldata cid) external {... */\n    tag_4:\n      tag_13\n      0x04\n      dup1\n      calldatasize\n      sub\n      dup2\n      add\n      swap1\n      tag_14\n      swap2\n      swap1\n      tag_15\n      jump\t// in\n    tag_14:\n      tag_16\n      jump\t// in\n    tag_13:\n      stop\n        /* \"ComplaintDAO.sol\":255:284  Complaint[] public complaints */\n    tag_5:\n      tag_17\n      0x04\n      dup1\n      calldatasize\n      sub\n      dup2\n      add\n      swap1\n      tag_18\n      swap2\n      swap1\n      tag_19\n      jump\t// in\n    tag_18:\n      tag_20\n      jump\t// in\n    tag_17:\n      mload(0x40)\n      tag_21\n      swap4\n      swap3\n      swap2\n      swap1\n      tag_22\n      jump\t// in\n    tag_21:\n      mload(0x40)\n      dup1\n      swap2\n      sub\n      swap1\n      return\n        /* \"ComplaintDAO.sol\":86:106  address public owner */\n    tag_6:\n      tag_23\n      tag_24\n      jump\t// in\n    tag_23:\n      mload(0x40)\n      tag_25\n      swap2\n      swap1\n      tag_26\n      jump\t// in\n    tag_25:\n      mload(0x40)\n      dup1\n      swap2\n      sub\n      swap1\n      return\n        /* \"ComplaintDAO.sol\":506:880  function vote(uint256 index, bool approve) external {... */\n    tag_7:\n      tag_27\n      0x04\n      dup1\n      calldatasize\n      sub\n      dup2\n      add\n      swap1\n      tag_28\n      swap2\n      swap1\n      tag_29\n      jump\t// in\n    tag_28:\n      tag_30\n      jump\t// in\n    tag_27:\n      stop\n        /* \"ComplaintDAO.sol\":886:1180  function getComplaint(uint256 index) external view returns (... */\n    tag_8:\n      tag_31\n      0x04\n      dup1\n      calldatasize\n      sub\n      dup2\n      add\n      swap1\n      tag_32\n      swap2\n      swap1\n      tag_19\n      jump\t// in\n    tag_32:\n      tag_33\n      jump\t// in\n    tag_31:\n      mload(0x40)\n      tag_34\n      swap4\n      swap3\n      swap2\n      swap1\n      tag_22\n      jump\t// in\n    tag_34:\n      mload(0x40)\n      dup1\n      swap2\n      sub\n      swap1\n      return\n        /* \"ComplaintDAO.sol\":1186:1289  function getTotalComplaints() external view returns (uint256) {... */\n    tag_10:\n        /* \"ComplaintDAO.sol\":1239:1246  uint256 */\n      0x00\n        /* \"ComplaintDAO.sol\":1265:1275  complaints */\n      0x01\n        /* \"ComplaintDAO.sol\":1265:1282  complaints.length */\n      dup1\n      sload\n      swap1\n      pop\n        /* \"ComplaintDAO.sol\":1258:1282  return complaints.length */\n      swap1\n      pop\n        /* \"ComplaintDAO.sol\":1186:1289  function getTotalComplaints() external view returns (uint256) {... */\n      swap1\n      jump\t// out\n        /* \"ComplaintDAO.sol\":346:500  function submitComplaint(string calldata cid) external {... */\n    tag_16:\n        /* \"ComplaintDAO.sol\":411:441  Complaint storage newComplaint */\n      0x00\n        /* \"ComplaintDAO.sol\":444:454  complaints */\n      0x01\n        /* \"ComplaintDAO.sol\":444:461  complaints.push() */\n      dup1\n      dup2\n      0x01\n      dup2\n      sload\n      add\n      dup1\n      dup3\n      sstore\n      dup1\n      swap2\n      pop\n      pop\n      sub\n      swap1\n      0x00\n      mstore\n      keccak256(0x00, 0x20)\n      swap1\n      0x04\n      mul\n      add\n        /* \"ComplaintDAO.sol\":411:461  Complaint storage newComplaint = complaints.push() */\n      swap1\n      pop\n        /* \"ComplaintDAO.sol\":490:493  cid */\n      dup3\n      dup3\n        /* \"ComplaintDAO.sol\":471:483  newComplaint */\n      dup3\n        /* \"ComplaintDAO.sol\":471:487  newComplaint.cid */\n      0x00\n      add\n        /* \"ComplaintDAO.sol\":471:493  newComplaint.cid = cid */\n      swap2\n      dup3\n      tag_38\n      swap3\n      swap2\n      swap1\n      tag_39\n      jump\t// in\n    tag_38:\n      pop\n        /* \"ComplaintDAO.sol\":401:500  {... */\n      pop\n        /* \"ComplaintDAO.sol\":346:500  function submitComplaint(string calldata cid) external {... */\n      pop\n      pop\n      jump\t// out\n        /* \"ComplaintDAO.sol\":255:284  Complaint[] public complaints */\n    tag_20:\n      0x01\n      dup2\n      dup2\n      sload\n      dup2\n      lt\n      tag_40\n      jumpi\n      0x00\n      dup1\n      revert\n    tag_40:\n      swap1\n      0x00\n      mstore\n      keccak256(0x00, 0x20)\n      swap1\n      0x04\n      mul\n      add\n      0x00\n      swap2\n      pop\n      swap1\n      pop\n      dup1\n      0x00\n      add\n      dup1\n      sload\n      tag_42\n      swap1\n      tag_43\n      jump\t// in\n    tag_42:\n      dup1\n      0x1f\n      add\n      0x20\n      dup1\n      swap2\n      div\n      mul\n      0x20\n      add\n      mload(0x40)\n      swap1\n      dup2\n      add\n      0x40\n      mstore\n      dup1\n      swap3\n      swap2\n      swap1\n      dup2\n      dup2\n      mstore\n      0x20\n      add\n      dup3\n      dup1\n      sload\n      tag_44\n      swap1\n      tag_43\n      jump\t// in\n    tag_44:\n      dup1\n      iszero\n      tag_45\n      jumpi\n      dup1\n      0x1f\n      lt\n      tag_46\n      jumpi\n      0x0100\n      dup1\n      dup4\n      sload\n      div\n      mul\n      dup4\n      mstore\n      swap2\n      0x20\n      add\n      swap2\n      jump(tag_45)\n    tag_46:\n      dup3\n      add\n      swap2\n      swap1\n      0x00\n      mstore\n      keccak256(0x00, 0x20)\n      swap1\n    tag_47:\n      dup2\n      sload\n      dup2\n      mstore\n      swap1\n      0x01\n      add\n      swap1\n      0x20\n      add\n      dup1\n      dup4\n      gt\n      tag_47\n      jumpi\n      dup3\n      swap1\n      sub\n      0x1f\n      and\n      dup3\n      add\n      swap2\n    tag_45:\n      pop\n      pop\n      pop\n      pop\n      pop\n      swap1\n      dup1\n      0x01\n      add\n      sload\n      swap1\n      dup1\n      0x02\n      add\n      sload\n      swap1\n      pop\n      dup4\n      jump\t// out\n        /* \"ComplaintDAO.sol\":86:106  address public owner */\n    tag_24:\n      0x00\n      0x00\n      swap1\n      sload\n      swap1\n      0x0100\n      exp\n      swap1\n      div\n      0xffffffffffffffffffffffffffffffffffffffff\n      and\n      dup2\n      jump\t// out\n        /* \"ComplaintDAO.sol\":506:880  function vote(uint256 index, bool approve) external {... */\n    tag_30:\n        /* \"ComplaintDAO.sol\":584:594  complaints */\n      0x01\n        /* \"ComplaintDAO.sol\":584:601  complaints.length */\n      dup1\n      sload\n      swap1\n      pop\n        /* \"ComplaintDAO.sol\":576:581  index */\n      dup3\n        /* \"ComplaintDAO.sol\":576:601  index < complaints.length */\n      lt\n        /* \"ComplaintDAO.sol\":568:629  require(index < complaints.length, \"Invalid complaint index\") */\n      tag_49\n      jumpi\n      mload(0x40)\n      0x08c379a000000000000000000000000000000000000000000000000000000000\n      dup2\n      mstore\n      0x04\n      add\n      tag_50\n      swap1\n      tag_51\n      jump\t// in\n    tag_50:\n      mload(0x40)\n      dup1\n      swap2\n      sub\n      swap1\n      revert\n    tag_49:\n        /* \"ComplaintDAO.sol\":639:658  Complaint storage c */\n      0x00\n        /* \"ComplaintDAO.sol\":661:671  complaints */\n      0x01\n        /* \"ComplaintDAO.sol\":672:677  index */\n      dup4\n        /* \"ComplaintDAO.sol\":661:678  complaints[index] */\n      dup2\n      sload\n      dup2\n      lt\n      tag_52\n      jumpi\n      tag_53\n      tag_54\n      jump\t// in\n    tag_53:\n    tag_52:\n      swap1\n      0x00\n      mstore\n      keccak256(0x00, 0x20)\n      swap1\n      0x04\n      mul\n      add\n        /* \"ComplaintDAO.sol\":639:678  Complaint storage c = complaints[index] */\n      swap1\n      pop\n        /* \"ComplaintDAO.sol\":697:698  c */\n      dup1\n        /* \"ComplaintDAO.sol\":697:704  c.voted */\n      0x03\n      add\n        /* \"ComplaintDAO.sol\":697:716  c.voted[msg.sender] */\n      0x00\n        /* \"ComplaintDAO.sol\":705:715  msg.sender */\n      caller\n        /* \"ComplaintDAO.sol\":697:716  c.voted[msg.sender] */\n      0xffffffffffffffffffffffffffffffffffffffff\n      and\n      0xffffffffffffffffffffffffffffffffffffffff\n      and\n      dup2\n      mstore\n      0x20\n      add\n      swap1\n      dup2\n      mstore\n      0x20\n      add\n      0x00\n      keccak256\n      0x00\n      swap1\n      sload\n      swap1\n      0x0100\n      exp\n      swap1\n      div\n      0xff\n      and\n        /* \"ComplaintDAO.sol\":696:716  !c.voted[msg.sender] */\n      iszero\n        /* \"ComplaintDAO.sol\":688:734  require(!c.voted[msg.sender], \"Already voted\") */\n      tag_56\n      jumpi\n      mload(0x40)\n      0x08c379a000000000000000000000000000000000000000000000000000000000\n      dup2\n      mstore\n      0x04\n      add\n      tag_57\n      swap1\n      tag_58\n      jump\t// in\n    tag_57:\n      mload(0x40)\n      dup1\n      swap2\n      sub\n      swap1\n      revert\n    tag_56:\n        /* \"ComplaintDAO.sol\":749:756  approve */\n      dup2\n        /* \"ComplaintDAO.sol\":745:838  if (approve) {... */\n      iszero\n      tag_59\n      jumpi\n        /* \"ComplaintDAO.sol\":772:773  c */\n      dup1\n        /* \"ComplaintDAO.sol\":772:781  c.upVotes */\n      0x01\n      add\n      0x00\n        /* \"ComplaintDAO.sol\":772:783  c.upVotes++ */\n      dup2\n      sload\n      dup1\n      swap3\n      swap2\n      swap1\n      tag_60\n      swap1\n      tag_61\n      jump\t// in\n    tag_60:\n      swap2\n      swap1\n      pop\n      sstore\n      pop\n        /* \"ComplaintDAO.sol\":745:838  if (approve) {... */\n      jump(tag_62)\n    tag_59:\n        /* \"ComplaintDAO.sol\":814:815  c */\n      dup1\n        /* \"ComplaintDAO.sol\":814:825  c.downVotes */\n      0x02\n      add\n      0x00\n        /* \"ComplaintDAO.sol\":814:827  c.downVotes++ */\n      dup2\n      sload\n      dup1\n      swap3\n      swap2\n      swap1\n      tag_63\n      swap1\n      tag_61\n      jump\t// in\n    tag_63:\n      swap2\n      swap1\n      pop\n      sstore\n      pop\n        /* \"ComplaintDAO.sol\":745:838  if (approve) {... */\n    tag_62:\n        /* \"ComplaintDAO.sol\":869:873  true */\n      0x01\n        /* \"ComplaintDAO.sol\":847:848  c */\n      dup2\n        /* \"ComplaintDAO.sol\":847:854  c.voted */\n      0x03\n      add\n        /* \"ComplaintDAO.sol\":847:866  c.voted[msg.sender] */\n      0x00\n        /* \"ComplaintDAO.sol\":855:865  msg.sender */\n      caller\n        /* \"ComplaintDAO.sol\":847:866  c.voted[msg.sender] */\n      0xffffffffffffffffffffffffffffffffffffffff\n      and\n      0xffffffffffffffffffffffffffffffffffffffff\n      and\n      dup2\n      mstore\n      0x20\n      add\n      swap1\n      dup2\n      mstore\n      0x20\n      add\n      0x00\n      keccak256\n      0x00\n        /* \"ComplaintDAO.sol\":847:873  c.voted[msg.sender] = true */\n      0x0100\n      exp\n      dup2\n      sload\n      dup2\n      0xff\n      mul\n      not\n      and\n      swap1\n      dup4\n      iszero\n      iszero\n      mul\n      or\n      swap1\n      sstore\n      pop\n        /* \"ComplaintDAO.sol\":558:880  {... */\n      pop\n        /* \"ComplaintDAO.sol\":506:880  function vote(uint256 index, bool approve) external {... */\n      pop\n      pop\n      jump\t// out\n        /* \"ComplaintDAO.sol\":886:1180  function getComplaint(uint256 index) external view returns (... */\n    tag_33:\n        /* \"ComplaintDAO.sol\":955:972  string memory cid */\n      0x60\n        /* \"ComplaintDAO.sol\":974:989  uint256 upVotes */\n      0x00\n        /* \"ComplaintDAO.sol\":991:1008  uint256 downVotes */\n      0x00\n        /* \"ComplaintDAO.sol\":1041:1051  complaints */\n      0x01\n        /* \"ComplaintDAO.sol\":1041:1058  complaints.length */\n      dup1\n      sload\n      swap1\n      pop\n        /* \"ComplaintDAO.sol\":1033:1038  index */\n      dup5\n        /* \"ComplaintDAO.sol\":1033:1058  index < complaints.length */\n      lt\n        /* \"ComplaintDAO.sol\":1025:1076  require(index < complaints.length, \"Invalid index\") */\n      tag_65\n      jumpi\n      mload(0x40)\n      0x08c379a000000000000000000000000000000000000000000000000000000000\n      dup2\n      mstore\n      0x04\n      add\n      tag_66\n      swap1\n      tag_67\n      jump\t// in\n    tag_66:\n      mload(0x40)\n      dup1\n      swap2\n      sub\n      swap1\n      revert\n    tag_65:\n        /* \"ComplaintDAO.sol\":1086:1105  Complaint storage c */\n      0x00\n        /* \"ComplaintDAO.sol\":1108:1118  complaints */\n      0x01\n        /* \"ComplaintDAO.sol\":1119:1124  index */\n      dup6\n        /* \"ComplaintDAO.sol\":1108:1125  complaints[index] */\n      dup2\n      sload\n      dup2\n      lt\n      tag_68\n      jumpi\n      tag_69\n      tag_54\n      jump\t// in\n    tag_69:\n    tag_68:\n      swap1\n      0x00\n      mstore\n      keccak256(0x00, 0x20)\n      swap1\n      0x04\n      mul\n      add\n        /* \"ComplaintDAO.sol\":1086:1125  Complaint storage c = complaints[index] */\n      swap1\n      pop\n        /* \"ComplaintDAO.sol\":1143:1144  c */\n      dup1\n        /* \"ComplaintDAO.sol\":1143:1148  c.cid */\n      0x00\n      add\n        /* \"ComplaintDAO.sol\":1150:1151  c */\n      dup2\n        /* \"ComplaintDAO.sol\":1150:1159  c.upVotes */\n      0x01\n      add\n      sload\n        /* \"ComplaintDAO.sol\":1161:1162  c */\n      dup3\n        /* \"ComplaintDAO.sol\":1161:1172  c.downVotes */\n      0x02\n      add\n      sload\n        /* \"ComplaintDAO.sol\":1135:1173  return (c.cid, c.upVotes, c.downVotes) */\n      dup3\n      dup1\n      sload\n      tag_71\n      swap1\n      tag_43\n      jump\t// in\n    tag_71:\n      dup1\n      0x1f\n      add\n      0x20\n      dup1\n      swap2\n      div\n      mul\n      0x20\n      add\n      mload(0x40)\n      swap1\n      dup2\n      add\n      0x40\n      mstore\n      dup1\n      swap3\n      swap2\n      swap1\n      dup2\n      dup2\n      mstore\n      0x20\n      add\n      dup3\n      dup1\n      sload\n      tag_72\n      swap1\n      tag_43\n      jump\t// in\n    tag_72:\n      dup1\n      iszero\n      tag_73\n      jumpi\n      dup1\n      0x1f\n      lt\n      tag_74\n      jumpi\n      0x0100\n      dup1\n      dup4\n      sload\n      div\n      mul\n      dup4\n      mstore\n      swap2\n      0x20\n      add\n      swap2\n      jump(tag_73)\n    tag_74:\n      dup3\n      add\n      swap2\n      swap1\n      0x00\n      mstore\n      keccak256(0x00, 0x20)\n      swap1\n    tag_75:\n      dup2\n      sload\n      dup2\n      mstore\n      swap1\n      0x01\n      add\n      swap1\n      0x20\n      add\n      dup1\n      dup4\n      gt\n      tag_75\n      jumpi\n      dup3\n      swap1\n      sub\n      0x1f\n      and\n      dup3\n      add\n      swap2\n    tag_73:\n      pop\n      pop\n      pop\n      pop\n      pop\n      swap3\n      pop\n      swap4\n      pop\n      swap4\n      pop\n      swap4\n      pop\n      pop\n        /* \"ComplaintDAO.sol\":886:1180  function getComplaint(uint256 index) external view returns (... */\n      swap2\n      swap4\n      swap1\n      swap3\n      pop\n      jump\t// out\n        /* \"#utility.yul\":7:84   */\n    tag_76:\n        /* \"#utility.yul\":44:51   */\n      0x00\n        /* \"#utility.yul\":73:78   */\n      dup2\n        /* \"#utility.yul\":62:78   */\n      swap1\n      pop\n        /* \"#utility.yul\":7:84   */\n      swap2\n      swap1\n      pop\n      jump\t// out\n        /* \"#utility.yul\":90:208   */\n    tag_77:\n        /* \"#utility.yul\":177:201   */\n      tag_126\n        /* \"#utility.yul\":195:200   */\n      dup2\n        /* \"#utility.yul\":177:201   */\n      tag_76\n      jump\t// in\n    tag_126:\n        /* \"#utility.yul\":172:175   */\n      dup3\n        /* \"#utility.yul\":165:202   */\n      mstore\n        /* \"#utility.yul\":90:208   */\n      pop\n      pop\n      jump\t// out\n        /* \"#utility.yul\":214:436   */\n    tag_12:\n        /* \"#utility.yul\":307:311   */\n      0x00\n        /* \"#utility.yul\":345:347   */\n      0x20\n        /* \"#utility.yul\":334:343   */\n      dup3\n        /* \"#utility.yul\":330:348   */\n      add\n        /* \"#utility.yul\":322:348   */\n      swap1\n      pop\n        /* \"#utility.yul\":358:429   */\n      tag_128\n        /* \"#utility.yul\":426:427   */\n      0x00\n        /* \"#utility.yul\":415:424   */\n      dup4\n        /* \"#utility.yul\":411:428   */\n      add\n        /* \"#utility.yul\":402:408   */\n      dup5\n        /* \"#utility.yul\":358:429   */\n      tag_77\n      jump\t// in\n    tag_128:\n        /* \"#utility.yul\":214:436   */\n      swap3\n      swap2\n      pop\n      pop\n      jump\t// out\n        /* \"#utility.yul\":523:640   */\n    tag_79:\n        /* \"#utility.yul\":632:633   */\n      0x00\n        /* \"#utility.yul\":629:630   */\n      0x00\n        /* \"#utility.yul\":622:634   */\n      revert\n        /* \"#utility.yul\":646:763   */\n    tag_80:\n        /* \"#utility.yul\":755:756   */\n      0x00\n        /* \"#utility.yul\":752:753   */\n      0x00\n        /* \"#utility.yul\":745:757   */\n      revert\n        /* \"#utility.yul\":769:886   */\n    tag_81:\n        /* \"#utility.yul\":878:879   */\n      0x00\n        /* \"#utility.yul\":875:876   */\n      0x00\n        /* \"#utility.yul\":868:880   */\n      revert\n        /* \"#utility.yul\":892:1009   */\n    tag_82:\n        /* \"#utility.yul\":1001:1002   */\n      0x00\n        /* \"#utility.yul\":998:999   */\n      0x00\n        /* \"#utility.yul\":991:1003   */\n      revert\n        /* \"#utility.yul\":1015:1132   */\n    tag_83:\n        /* \"#utility.yul\":1124:1125   */\n      0x00\n        /* \"#utility.yul\":1121:1122   */\n      0x00\n        /* \"#utility.yul\":1114:1126   */\n      revert\n        /* \"#utility.yul\":1152:1705   */\n    tag_84:\n        /* \"#utility.yul\":1210:1218   */\n      0x00\n        /* \"#utility.yul\":1220:1226   */\n      0x00\n        /* \"#utility.yul\":1270:1273   */\n      dup4\n        /* \"#utility.yul\":1263:1267   */\n      0x1f\n        /* \"#utility.yul\":1255:1261   */\n      dup5\n        /* \"#utility.yul\":1251:1268   */\n      add\n        /* \"#utility.yul\":1247:1274   */\n      slt\n        /* \"#utility.yul\":1237:1359   */\n      tag_136\n      jumpi\n        /* \"#utility.yul\":1278:1357   */\n      tag_137\n      tag_81\n      jump\t// in\n    tag_137:\n        /* \"#utility.yul\":1237:1359   */\n    tag_136:\n        /* \"#utility.yul\":1391:1397   */\n      dup3\n        /* \"#utility.yul\":1378:1398   */\n      calldataload\n        /* \"#utility.yul\":1368:1398   */\n      swap1\n      pop\n        /* \"#utility.yul\":1421:1439   */\n      0xffffffffffffffff\n        /* \"#utility.yul\":1413:1419   */\n      dup2\n        /* \"#utility.yul\":1410:1440   */\n      gt\n        /* \"#utility.yul\":1407:1524   */\n      iszero\n      tag_138\n      jumpi\n        /* \"#utility.yul\":1443:1522   */\n      tag_139\n      tag_82\n      jump\t// in\n    tag_139:\n        /* \"#utility.yul\":1407:1524   */\n    tag_138:\n        /* \"#utility.yul\":1557:1561   */\n      0x20\n        /* \"#utility.yul\":1549:1555   */\n      dup4\n        /* \"#utility.yul\":1545:1562   */\n      add\n        /* \"#utility.yul\":1533:1562   */\n      swap2\n      pop\n        /* \"#utility.yul\":1611:1614   */\n      dup4\n        /* \"#utility.yul\":1603:1607   */\n      0x01\n        /* \"#utility.yul\":1595:1601   */\n      dup3\n        /* \"#utility.yul\":1591:1608   */\n      mul\n        /* \"#utility.yul\":1581:1589   */\n      dup4\n        /* \"#utility.yul\":1577:1609   */\n      add\n        /* \"#utility.yul\":1574:1615   */\n      gt\n        /* \"#utility.yul\":1571:1699   */\n      iszero\n      tag_140\n      jumpi\n        /* \"#utility.yul\":1618:1697   */\n      tag_141\n      tag_83\n      jump\t// in\n    tag_141:\n        /* \"#utility.yul\":1571:1699   */\n    tag_140:\n        /* \"#utility.yul\":1152:1705   */\n      swap3\n      pop\n      swap3\n      swap1\n      pop\n      jump\t// out\n        /* \"#utility.yul\":1711:2240   */\n    tag_15:\n        /* \"#utility.yul\":1782:1788   */\n      0x00\n        /* \"#utility.yul\":1790:1796   */\n      0x00\n        /* \"#utility.yul\":1839:1841   */\n      0x20\n        /* \"#utility.yul\":1827:1836   */\n      dup4\n        /* \"#utility.yul\":1818:1825   */\n      dup6\n        /* \"#utility.yul\":1814:1837   */\n      sub\n        /* \"#utility.yul\":1810:1842   */\n      slt\n        /* \"#utility.yul\":1807:1926   */\n      iszero\n      tag_143\n      jumpi\n        /* \"#utility.yul\":1845:1924   */\n      tag_144\n      tag_79\n      jump\t// in\n    tag_144:\n        /* \"#utility.yul\":1807:1926   */\n    tag_143:\n        /* \"#utility.yul\":1993:1994   */\n      0x00\n        /* \"#utility.yul\":1982:1991   */\n      dup4\n        /* \"#utility.yul\":1978:1995   */\n      add\n        /* \"#utility.yul\":1965:1996   */\n      calldataload\n        /* \"#utility.yul\":2023:2041   */\n      0xffffffffffffffff\n        /* \"#utility.yul\":2015:2021   */\n      dup2\n        /* \"#utility.yul\":2012:2042   */\n      gt\n        /* \"#utility.yul\":2009:2126   */\n      iszero\n      tag_145\n      jumpi\n        /* \"#utility.yul\":2045:2124   */\n      tag_146\n      tag_80\n      jump\t// in\n    tag_146:\n        /* \"#utility.yul\":2009:2126   */\n    tag_145:\n        /* \"#utility.yul\":2158:2223   */\n      tag_147\n        /* \"#utility.yul\":2215:2222   */\n      dup6\n        /* \"#utility.yul\":2206:2212   */\n      dup3\n        /* \"#utility.yul\":2195:2204   */\n      dup7\n        /* \"#utility.yul\":2191:2213   */\n      add\n        /* \"#utility.yul\":2158:2223   */\n      tag_84\n      jump\t// in\n    tag_147:\n        /* \"#utility.yul\":2140:2223   */\n      swap3\n      pop\n      swap3\n      pop\n        /* \"#utility.yul\":1936:2233   */\n      pop\n        /* \"#utility.yul\":1711:2240   */\n      swap3\n      pop\n      swap3\n      swap1\n      pop\n      jump\t// out\n        /* \"#utility.yul\":2246:2368   */\n    tag_85:\n        /* \"#utility.yul\":2319:2343   */\n      tag_149\n        /* \"#utility.yul\":2337:2342   */\n      dup2\n        /* \"#utility.yul\":2319:2343   */\n      tag_76\n      jump\t// in\n    tag_149:\n        /* \"#utility.yul\":2312:2317   */\n      dup2\n        /* \"#utility.yul\":2309:2344   */\n      eq\n        /* \"#utility.yul\":2299:2362   */\n      tag_150\n      jumpi\n        /* \"#utility.yul\":2358:2359   */\n      0x00\n        /* \"#utility.yul\":2355:2356   */\n      0x00\n        /* \"#utility.yul\":2348:2360   */\n      revert\n        /* \"#utility.yul\":2299:2362   */\n    tag_150:\n        /* \"#utility.yul\":2246:2368   */\n      pop\n      jump\t// out\n        /* \"#utility.yul\":2374:2513   */\n    tag_86:\n        /* \"#utility.yul\":2420:2425   */\n      0x00\n        /* \"#utility.yul\":2458:2464   */\n      dup2\n        /* \"#utility.yul\":2445:2465   */\n      calldataload\n        /* \"#utility.yul\":2436:2465   */\n      swap1\n      pop\n        /* \"#utility.yul\":2474:2507   */\n      tag_152\n        /* \"#utility.yul\":2501:2506   */\n      dup2\n        /* \"#utility.yul\":2474:2507   */\n      tag_85\n      jump\t// in\n    tag_152:\n        /* \"#utility.yul\":2374:2513   */\n      swap3\n      swap2\n      pop\n      pop\n      jump\t// out\n        /* \"#utility.yul\":2519:2848   */\n    tag_19:\n        /* \"#utility.yul\":2578:2584   */\n      0x00\n        /* \"#utility.yul\":2627:2629   */\n      0x20\n        /* \"#utility.yul\":2615:2624   */\n      dup3\n        /* \"#utility.yul\":2606:2613   */\n      dup5\n        /* \"#utility.yul\":2602:2625   */\n      sub\n        /* \"#utility.yul\":2598:2630   */\n      slt\n        /* \"#utility.yul\":2595:2714   */\n      iszero\n      tag_154\n      jumpi\n        /* \"#utility.yul\":2633:2712   */\n      tag_155\n      tag_79\n      jump\t// in\n    tag_155:\n        /* \"#utility.yul\":2595:2714   */\n    tag_154:\n        /* \"#utility.yul\":2753:2754   */\n      0x00\n        /* \"#utility.yul\":2778:2831   */\n      tag_156\n        /* \"#utility.yul\":2823:2830   */\n      dup5\n        /* \"#utility.yul\":2814:2820   */\n      dup3\n        /* \"#utility.yul\":2803:2812   */\n      dup6\n        /* \"#utility.yul\":2799:2821   */\n      add\n        /* \"#utility.yul\":2778:2831   */\n      tag_86\n      jump\t// in\n    tag_156:\n        /* \"#utility.yul\":2768:2831   */\n      swap2\n      pop\n        /* \"#utility.yul\":2724:2841   */\n      pop\n        /* \"#utility.yul\":2519:2848   */\n      swap3\n      swap2\n      pop\n      pop\n      jump\t// out\n        /* \"#utility.yul\":2854:2953   */\n    tag_87:\n        /* \"#utility.yul\":2906:2912   */\n      0x00\n        /* \"#utility.yul\":2940:2945   */\n      dup2\n        /* \"#utility.yul\":2934:2946   */\n      mload\n        /* \"#utility.yul\":2924:2946   */\n      swap1\n      pop\n        /* \"#utility.yul\":2854:2953   */\n      swap2\n      swap1\n      pop\n      jump\t// out\n        /* \"#utility.yul\":2959:3128   */\n    tag_88:\n        /* \"#utility.yul\":3043:3054   */\n      0x00\n        /* \"#utility.yul\":3077:3083   */\n      dup3\n        /* \"#utility.yul\":3072:3075   */\n      dup3\n        /* \"#utility.yul\":3065:3084   */\n      mstore\n        /* \"#utility.yul\":3117:3121   */\n      0x20\n        /* \"#utility.yul\":3112:3115   */\n      dup3\n        /* \"#utility.yul\":3108:3122   */\n      add\n        /* \"#utility.yul\":3093:3122   */\n      swap1\n      pop\n        /* \"#utility.yul\":2959:3128   */\n      swap3\n      swap2\n      pop\n      pop\n      jump\t// out\n        /* \"#utility.yul\":3134:3273   */\n    tag_89:\n        /* \"#utility.yul\":3223:3229   */\n      dup3\n        /* \"#utility.yul\":3218:3221   */\n      dup2\n        /* \"#utility.yul\":3213:3216   */\n      dup4\n        /* \"#utility.yul\":3207:3230   */\n      mcopy\n        /* \"#utility.yul\":3264:3265   */\n      0x00\n        /* \"#utility.yul\":3255:3261   */\n      dup4\n        /* \"#utility.yul\":3250:3253   */\n      dup4\n        /* \"#utility.yul\":3246:3262   */\n      add\n        /* \"#utility.yul\":3239:3266   */\n      mstore\n        /* \"#utility.yul\":3134:3273   */\n      pop\n      pop\n      pop\n      jump\t// out\n        /* \"#utility.yul\":3279:3381   */\n    tag_90:\n        /* \"#utility.yul\":3320:3326   */\n      0x00\n        /* \"#utility.yul\":3371:3373   */\n      0x1f\n        /* \"#utility.yul\":3367:3374   */\n      not\n        /* \"#utility.yul\":3362:3364   */\n      0x1f\n        /* \"#utility.yul\":3355:3360   */\n      dup4\n        /* \"#utility.yul\":3351:3365   */\n      add\n        /* \"#utility.yul\":3347:3375   */\n      and\n        /* \"#utility.yul\":3337:3375   */\n      swap1\n      pop\n        /* \"#utility.yul\":3279:3381   */\n      swap2\n      swap1\n      pop\n      jump\t// out\n        /* \"#utility.yul\":3387:3764   */\n    tag_91:\n        /* \"#utility.yul\":3475:3478   */\n      0x00\n        /* \"#utility.yul\":3503:3542   */\n      tag_162\n        /* \"#utility.yul\":3536:3541   */\n      dup3\n        /* \"#utility.yul\":3503:3542   */\n      tag_87\n      jump\t// in\n    tag_162:\n        /* \"#utility.yul\":3558:3629   */\n      tag_163\n        /* \"#utility.yul\":3622:3628   */\n      dup2\n        /* \"#utility.yul\":3617:3620   */\n      dup6\n        /* \"#utility.yul\":3558:3629   */\n      tag_88\n      jump\t// in\n    tag_163:\n        /* \"#utility.yul\":3551:3629   */\n      swap4\n      pop\n        /* \"#utility.yul\":3638:3703   */\n      tag_164\n        /* \"#utility.yul\":3696:3702   */\n      dup2\n        /* \"#utility.yul\":3691:3694   */\n      dup6\n        /* \"#utility.yul\":3684:3688   */\n      0x20\n        /* \"#utility.yul\":3677:3682   */\n      dup7\n        /* \"#utility.yul\":3673:3689   */\n      add\n        /* \"#utility.yul\":3638:3703   */\n      tag_89\n      jump\t// in\n    tag_164:\n        /* \"#utility.yul\":3728:3757   */\n      tag_165\n        /* \"#utility.yul\":3750:3756   */\n      dup2\n        /* \"#utility.yul\":3728:3757   */\n      tag_90\n      jump\t// in\n    tag_165:\n        /* \"#utility.yul\":3723:3726   */\n      dup5\n        /* \"#utility.yul\":3719:3758   */\n      add\n        /* \"#utility.yul\":3712:3758   */\n      swap2\n      pop\n        /* \"#utility.yul\":3479:3764   */\n      pop\n        /* \"#utility.yul\":3387:3764   */\n      swap3\n      swap2\n      pop\n      pop\n      jump\t// out\n        /* \"#utility.yul\":3770:4303   */\n    tag_22:\n        /* \"#utility.yul\":3939:3943   */\n      0x00\n        /* \"#utility.yul\":3977:3979   */\n      0x60\n        /* \"#utility.yul\":3966:3975   */\n      dup3\n        /* \"#utility.yul\":3962:3980   */\n      add\n        /* \"#utility.yul\":3954:3980   */\n      swap1\n      pop\n        /* \"#utility.yul\":4026:4035   */\n      dup2\n        /* \"#utility.yul\":4020:4024   */\n      dup2\n        /* \"#utility.yul\":4016:4036   */\n      sub\n        /* \"#utility.yul\":4012:4013   */\n      0x00\n        /* \"#utility.yul\":4001:4010   */\n      dup4\n        /* \"#utility.yul\":3997:4014   */\n      add\n        /* \"#utility.yul\":3990:4037   */\n      mstore\n        /* \"#utility.yul\":4054:4132   */\n      tag_167\n        /* \"#utility.yul\":4127:4131   */\n      dup2\n        /* \"#utility.yul\":4118:4124   */\n      dup7\n        /* \"#utility.yul\":4054:4132   */\n      tag_91\n      jump\t// in\n    tag_167:\n        /* \"#utility.yul\":4046:4132   */\n      swap1\n      pop\n        /* \"#utility.yul\":4142:4214   */\n      tag_168\n        /* \"#utility.yul\":4210:4212   */\n      0x20\n        /* \"#utility.yul\":4199:4208   */\n      dup4\n        /* \"#utility.yul\":4195:4213   */\n      add\n        /* \"#utility.yul\":4186:4192   */\n      dup6\n        /* \"#utility.yul\":4142:4214   */\n      tag_77\n      jump\t// in\n    tag_168:\n        /* \"#utility.yul\":4224:4296   */\n      tag_169\n        /* \"#utility.yul\":4292:4294   */\n      0x40\n        /* \"#utility.yul\":4281:4290   */\n      dup4\n        /* \"#utility.yul\":4277:4295   */\n      add\n        /* \"#utility.yul\":4268:4274   */\n      dup5\n        /* \"#utility.yul\":4224:4296   */\n      tag_77\n      jump\t// in\n    tag_169:\n        /* \"#utility.yul\":3770:4303   */\n      swap5\n      swap4\n      pop\n      pop\n      pop\n      pop\n      jump\t// out\n        /* \"#utility.yul\":4309:4435   */\n    tag_92:\n        /* \"#utility.yul\":4346:4353   */\n      0x00\n        /* \"#utility.yul\":4386:4428   */\n      0xffffffffffffffffffffffffffffffffffffffff\n        /* \"#utility.yul\":4379:4384   */\n      dup3\n        /* \"#utility.yul\":4375:4429   */\n      and\n        /* \"#utility.yul\":4364:4429   */\n      swap1\n      pop\n        /* \"#utility.yul\":4309:4435   */\n      swap2\n      swap1\n      pop\n      jump\t// out\n        /* \"#utility.yul\":4441:4537   */\n    tag_93:\n        /* \"#utility.yul\":4478:4485   */\n      0x00\n        /* \"#utility.yul\":4507:4531   */\n      tag_172\n        /* \"#utility.yul\":4525:4530   */\n      dup3\n        /* \"#utility.yul\":4507:4531   */\n      tag_92\n      jump\t// in\n    tag_172:\n        /* \"#utility.yul\":4496:4531   */\n      swap1\n      pop\n        /* \"#utility.yul\":4441:4537   */\n      swap2\n      swap1\n      pop\n      jump\t// out\n        /* \"#utility.yul\":4543:4661   */\n    tag_94:\n        /* \"#utility.yul\":4630:4654   */\n      tag_174\n        /* \"#utility.yul\":4648:4653   */\n      dup2\n        /* \"#utility.yul\":4630:4654   */\n      tag_93\n      jump\t// in\n    tag_174:\n        /* \"#utility.yul\":4625:4628   */\n      dup3\n        /* \"#utility.yul\":4618:4655   */\n      mstore\n        /* \"#utility.yul\":4543:4661   */\n      pop\n      pop\n      jump\t// out\n        /* \"#utility.yul\":4667:4889   */\n    tag_26:\n        /* \"#utility.yul\":4760:4764   */\n      0x00\n        /* \"#utility.yul\":4798:4800   */\n      0x20\n        /* \"#utility.yul\":4787:4796   */\n      dup3\n        /* \"#utility.yul\":4783:4801   */\n      add\n        /* \"#utility.yul\":4775:4801   */\n      swap1\n      pop\n        /* \"#utility.yul\":4811:4882   */\n      tag_176\n        /* \"#utility.yul\":4879:4880   */\n      0x00\n        /* \"#utility.yul\":4868:4877   */\n      dup4\n        /* \"#utility.yul\":4864:4881   */\n      add\n        /* \"#utility.yul\":4855:4861   */\n      dup5\n        /* \"#utility.yul\":4811:4882   */\n      tag_94\n      jump\t// in\n    tag_176:\n        /* \"#utility.yul\":4667:4889   */\n      swap3\n      swap2\n      pop\n      pop\n      jump\t// out\n        /* \"#utility.yul\":4895:4985   */\n    tag_95:\n        /* \"#utility.yul\":4929:4936   */\n      0x00\n        /* \"#utility.yul\":4972:4977   */\n      dup2\n        /* \"#utility.yul\":4965:4978   */\n      iszero\n        /* \"#utility.yul\":4958:4979   */\n      iszero\n        /* \"#utility.yul\":4947:4979   */\n      swap1\n      pop\n        /* \"#utility.yul\":4895:4985   */\n      swap2\n      swap1\n      pop\n      jump\t// out\n        /* \"#utility.yul\":4991:5107   */\n    tag_96:\n        /* \"#utility.yul\":5061:5082   */\n      tag_179\n        /* \"#utility.yul\":5076:5081   */\n      dup2\n        /* \"#utility.yul\":5061:5082   */\n      tag_95\n      jump\t// in\n    tag_179:\n        /* \"#utility.yul\":5054:5059   */\n      dup2\n        /* \"#utility.yul\":5051:5083   */\n      eq\n        /* \"#utility.yul\":5041:5101   */\n      tag_180\n      jumpi\n        /* \"#utility.yul\":5097:5098   */\n      0x00\n        /* \"#utility.yul\":5094:5095   */\n      0x00\n        /* \"#utility.yul\":5087:5099   */\n      revert\n        /* \"#utility.yul\":5041:5101   */\n    tag_180:\n        /* \"#utility.yul\":4991:5107   */\n      pop\n      jump\t// out\n        /* \"#utility.yul\":5113:5246   */\n    tag_97:\n        /* \"#utility.yul\":5156:5161   */\n      0x00\n        /* \"#utility.yul\":5194:5200   */\n      dup2\n        /* \"#utility.yul\":5181:5201   */\n      calldataload\n        /* \"#utility.yul\":5172:5201   */\n      swap1\n      pop\n        /* \"#utility.yul\":5210:5240   */\n      tag_182\n        /* \"#utility.yul\":5234:5239   */\n      dup2\n        /* \"#utility.yul\":5210:5240   */\n      tag_96\n      jump\t// in\n    tag_182:\n        /* \"#utility.yul\":5113:5246   */\n      swap3\n      swap2\n      pop\n      pop\n      jump\t// out\n        /* \"#utility.yul\":5252:5720   */\n    tag_29:\n        /* \"#utility.yul\":5317:5323   */\n      0x00\n        /* \"#utility.yul\":5325:5331   */\n      0x00\n        /* \"#utility.yul\":5374:5376   */\n      0x40\n        /* \"#utility.yul\":5362:5371   */\n      dup4\n        /* \"#utility.yul\":5353:5360   */\n      dup6\n        /* \"#utility.yul\":5349:5372   */\n      sub\n        /* \"#utility.yul\":5345:5377   */\n      slt\n        /* \"#utility.yul\":5342:5461   */\n      iszero\n      tag_184\n      jumpi\n        /* \"#utility.yul\":5380:5459   */\n      tag_185\n      tag_79\n      jump\t// in\n    tag_185:\n        /* \"#utility.yul\":5342:5461   */\n    tag_184:\n        /* \"#utility.yul\":5500:5501   */\n      0x00\n        /* \"#utility.yul\":5525:5578   */\n      tag_186\n        /* \"#utility.yul\":5570:5577   */\n      dup6\n        /* \"#utility.yul\":5561:5567   */\n      dup3\n        /* \"#utility.yul\":5550:5559   */\n      dup7\n        /* \"#utility.yul\":5546:5568   */\n      add\n        /* \"#utility.yul\":5525:5578   */\n      tag_86\n      jump\t// in\n    tag_186:\n        /* \"#utility.yul\":5515:5578   */\n      swap3\n      pop\n        /* \"#utility.yul\":5471:5588   */\n      pop\n        /* \"#utility.yul\":5627:5629   */\n      0x20\n        /* \"#utility.yul\":5653:5703   */\n      tag_187\n        /* \"#utility.yul\":5695:5702   */\n      dup6\n        /* \"#utility.yul\":5686:5692   */\n      dup3\n        /* \"#utility.yul\":5675:5684   */\n      dup7\n        /* \"#utility.yul\":5671:5693   */\n      add\n        /* \"#utility.yul\":5653:5703   */\n      tag_97\n      jump\t// in\n    tag_187:\n        /* \"#utility.yul\":5643:5703   */\n      swap2\n      pop\n        /* \"#utility.yul\":5598:5713   */\n      pop\n        /* \"#utility.yul\":5252:5720   */\n      swap3\n      pop\n      swap3\n      swap1\n      pop\n      jump\t// out\n        /* \"#utility.yul\":5726:5823   */\n    tag_98:\n        /* \"#utility.yul\":5785:5791   */\n      0x00\n        /* \"#utility.yul\":5813:5816   */\n      dup3\n        /* \"#utility.yul\":5803:5816   */\n      swap1\n      pop\n        /* \"#utility.yul\":5726:5823   */\n      swap3\n      swap2\n      pop\n      pop\n      jump\t// out\n        /* \"#utility.yul\":5829:6009   */\n    tag_99:\n        /* \"#utility.yul\":5877:5954   */\n      0x4e487b7100000000000000000000000000000000000000000000000000000000\n        /* \"#utility.yul\":5874:5875   */\n      0x00\n        /* \"#utility.yul\":5867:5955   */\n      mstore\n        /* \"#utility.yul\":5974:5978   */\n      0x41\n        /* \"#utility.yul\":5971:5972   */\n      0x04\n        /* \"#utility.yul\":5964:5979   */\n      mstore\n        /* \"#utility.yul\":5998:6002   */\n      0x24\n        /* \"#utility.yul\":5995:5996   */\n      0x00\n        /* \"#utility.yul\":5988:6003   */\n      revert\n        /* \"#utility.yul\":6015:6195   */\n    tag_100:\n        /* \"#utility.yul\":6063:6140   */\n      0x4e487b7100000000000000000000000000000000000000000000000000000000\n        /* \"#utility.yul\":6060:6061   */\n      0x00\n        /* \"#utility.yul\":6053:6141   */\n      mstore\n        /* \"#utility.yul\":6160:6164   */\n      0x22\n        /* \"#utility.yul\":6157:6158   */\n      0x04\n        /* \"#utility.yul\":6150:6165   */\n      mstore\n        /* \"#utility.yul\":6184:6188   */\n      0x24\n        /* \"#utility.yul\":6181:6182   */\n      0x00\n        /* \"#utility.yul\":6174:6189   */\n      revert\n        /* \"#utility.yul\":6201:6521   */\n    tag_43:\n        /* \"#utility.yul\":6245:6251   */\n      0x00\n        /* \"#utility.yul\":6282:6283   */\n      0x02\n        /* \"#utility.yul\":6276:6280   */\n      dup3\n        /* \"#utility.yul\":6272:6284   */\n      div\n        /* \"#utility.yul\":6262:6284   */\n      swap1\n      pop\n        /* \"#utility.yul\":6329:6330   */\n      0x01\n        /* \"#utility.yul\":6323:6327   */\n      dup3\n        /* \"#utility.yul\":6319:6331   */\n      and\n        /* \"#utility.yul\":6350:6368   */\n      dup1\n        /* \"#utility.yul\":6340:6421   */\n      tag_192\n      jumpi\n        /* \"#utility.yul\":6406:6410   */\n      0x7f\n        /* \"#utility.yul\":6398:6404   */\n      dup3\n        /* \"#utility.yul\":6394:6411   */\n      and\n        /* \"#utility.yul\":6384:6411   */\n      swap2\n      pop\n        /* \"#utility.yul\":6340:6421   */\n    tag_192:\n        /* \"#utility.yul\":6468:6470   */\n      0x20\n        /* \"#utility.yul\":6460:6466   */\n      dup3\n        /* \"#utility.yul\":6457:6471   */\n      lt\n        /* \"#utility.yul\":6437:6455   */\n      dup2\n        /* \"#utility.yul\":6434:6472   */\n      sub\n        /* \"#utility.yul\":6431:6515   */\n      tag_193\n      jumpi\n        /* \"#utility.yul\":6487:6505   */\n      tag_194\n      tag_100\n      jump\t// in\n    tag_194:\n        /* \"#utility.yul\":6431:6515   */\n    tag_193:\n        /* \"#utility.yul\":6252:6521   */\n      pop\n        /* \"#utility.yul\":6201:6521   */\n      swap2\n      swap1\n      pop\n      jump\t// out\n        /* \"#utility.yul\":6527:6668   */\n    tag_101:\n        /* \"#utility.yul\":6576:6580   */\n      0x00\n        /* \"#utility.yul\":6599:6602   */\n      dup2\n        /* \"#utility.yul\":6591:6602   */\n      swap1\n      pop\n        /* \"#utility.yul\":6622:6625   */\n      dup2\n        /* \"#utility.yul\":6619:6620   */\n      0x00\n        /* \"#utility.yul\":6612:6626   */\n      mstore\n        /* \"#utility.yul\":6656:6660   */\n      0x20\n        /* \"#utility.yul\":6653:6654   */\n      0x00\n        /* \"#utility.yul\":6643:6661   */\n      keccak256\n        /* \"#utility.yul\":6635:6661   */\n      swap1\n      pop\n        /* \"#utility.yul\":6527:6668   */\n      swap2\n      swap1\n      pop\n      jump\t// out\n        /* \"#utility.yul\":6674:6767   */\n    tag_102:\n        /* \"#utility.yul\":6711:6717   */\n      0x00\n        /* \"#utility.yul\":6758:6760   */\n      0x20\n        /* \"#utility.yul\":6753:6755   */\n      0x1f\n        /* \"#utility.yul\":6746:6751   */\n      dup4\n        /* \"#utility.yul\":6742:6756   */\n      add\n        /* \"#utility.yul\":6738:6761   */\n      div\n        /* \"#utility.yul\":6728:6761   */\n      swap1\n      pop\n        /* \"#utility.yul\":6674:6767   */\n      swap2\n      swap1\n      pop\n      jump\t// out\n        /* \"#utility.yul\":6773:6880   */\n    tag_103:\n        /* \"#utility.yul\":6817:6825   */\n      0x00\n        /* \"#utility.yul\":6867:6872   */\n      dup3\n        /* \"#utility.yul\":6861:6865   */\n      dup3\n        /* \"#utility.yul\":6857:6873   */\n      shl\n        /* \"#utility.yul\":6836:6873   */\n      swap1\n      pop\n        /* \"#utility.yul\":6773:6880   */\n      swap3\n      swap2\n      pop\n      pop\n      jump\t// out\n        /* \"#utility.yul\":6886:7279   */\n    tag_104:\n        /* \"#utility.yul\":6955:6961   */\n      0x00\n        /* \"#utility.yul\":7005:7006   */\n      0x08\n        /* \"#utility.yul\":6993:7003   */\n      dup4\n        /* \"#utility.yul\":6989:7007   */\n      mul\n        /* \"#utility.yul\":7028:7125   */\n      tag_199\n        /* \"#utility.yul\":7058:7124   */\n      0xffffffffffffffffffffffffffffffffffffffffffffffffffffffffffffffff\n        /* \"#utility.yul\":7047:7056   */\n      dup3\n        /* \"#utility.yul\":7028:7125   */\n      tag_103\n      jump\t// in\n    tag_199:\n        /* \"#utility.yul\":7146:7185   */\n      tag_200\n        /* \"#utility.yul\":7176:7184   */\n      dup7\n        /* \"#utility.yul\":7165:7174   */\n      dup4\n        /* \"#utility.yul\":7146:7185   */\n      tag_103\n      jump\t// in\n    tag_200:\n        /* \"#utility.yul\":7134:7185   */\n      swap6\n      pop\n        /* \"#utility.yul\":7218:7222   */\n      dup1\n        /* \"#utility.yul\":7214:7223   */\n      not\n        /* \"#utility.yul\":7207:7212   */\n      dup5\n        /* \"#utility.yul\":7203:7224   */\n      and\n        /* \"#utility.yul\":7194:7224   */\n      swap4\n      pop\n        /* \"#utility.yul\":7267:7271   */\n      dup1\n        /* \"#utility.yul\":7257:7265   */\n      dup7\n        /* \"#utility.yul\":7253:7272   */\n      and\n        /* \"#utility.yul\":7246:7251   */\n      dup5\n        /* \"#utility.yul\":7243:7273   */\n      or\n        /* \"#utility.yul\":7233:7273   */\n      swap3\n      pop\n        /* \"#utility.yul\":6962:7279   */\n      pop\n      pop\n        /* \"#utility.yul\":6886:7279   */\n      swap4\n      swap3\n      pop\n      pop\n      pop\n      jump\t// out\n        /* \"#utility.yul\":7285:7345   */\n    tag_105:\n        /* \"#utility.yul\":7313:7316   */\n      0x00\n        /* \"#utility.yul\":7334:7339   */\n      dup2\n        /* \"#utility.yul\":7327:7339   */\n      swap1\n      pop\n        /* \"#utility.yul\":7285:7345   */\n      swap2\n      swap1\n      pop\n      jump\t// out\n        /* \"#utility.yul\":7351:7493   */\n    tag_106:\n        /* \"#utility.yul\":7401:7410   */\n      0x00\n        /* \"#utility.yul\":7434:7487   */\n      tag_203\n        /* \"#utility.yul\":7452:7486   */\n      tag_204\n        /* \"#utility.yul\":7461:7485   */\n      tag_205\n        /* \"#utility.yul\":7479:7484   */\n      dup5\n        /* \"#utility.yul\":7461:7485   */\n      tag_76\n      jump\t// in\n    tag_205:\n        /* \"#utility.yul\":7452:7486   */\n      tag_105\n      jump\t// in\n    tag_204:\n        /* \"#utility.yul\":7434:7487   */\n      tag_76\n      jump\t// in\n    tag_203:\n        /* \"#utility.yul\":7421:7487   */\n      swap1\n      pop\n        /* \"#utility.yul\":7351:7493   */\n      swap2\n      swap1\n      pop\n      jump\t// out\n        /* \"#utility.yul\":7499:7574   */\n    tag_107:\n        /* \"#utility.yul\":7542:7545   */\n      0x00\n        /* \"#utility.yul\":7563:7568   */\n      dup2\n        /* \"#utility.yul\":7556:7568   */\n      swap1\n      pop\n        /* \"#utility.yul\":7499:7574   */\n      swap2\n      swap1\n      pop\n      jump\t// out\n        /* \"#utility.yul\":7580:7849   */\n    tag_108:\n        /* \"#utility.yul\":7690:7729   */\n      tag_208\n        /* \"#utility.yul\":7721:7728   */\n      dup4\n        /* \"#utility.yul\":7690:7729   */\n      tag_106\n      jump\t// in\n    tag_208:\n        /* \"#utility.yul\":7751:7842   */\n      tag_209\n        /* \"#utility.yul\":7800:7841   */\n      tag_210\n        /* \"#utility.yul\":7824:7840   */\n      dup3\n        /* \"#utility.yul\":7800:7841   */\n      tag_107\n      jump\t// in\n    tag_210:\n        /* \"#utility.yul\":7792:7798   */\n      dup5\n        /* \"#utility.yul\":7785:7789   */\n      dup5\n        /* \"#utility.yul\":7779:7790   */\n      sload\n        /* \"#utility.yul\":7751:7842   */\n      tag_104\n      jump\t// in\n    tag_209:\n        /* \"#utility.yul\":7745:7749   */\n      dup3\n        /* \"#utility.yul\":7738:7843   */\n      sstore\n        /* \"#utility.yul\":7656:7849   */\n      pop\n        /* \"#utility.yul\":7580:7849   */\n      pop\n      pop\n      pop\n      jump\t// out\n        /* \"#utility.yul\":7855:7928   */\n    tag_109:\n        /* \"#utility.yul\":7900:7903   */\n      0x00\n        /* \"#utility.yul\":7921:7922   */\n      0x00\n        /* \"#utility.yul\":7914:7922   */\n      swap1\n      pop\n        /* \"#utility.yul\":7855:7928   */\n      swap1\n      jump\t// out\n        /* \"#utility.yul\":7934:8123   */\n    tag_110:\n        /* \"#utility.yul\":8011:8043   */\n      tag_213\n      tag_109\n      jump\t// in\n    tag_213:\n        /* \"#utility.yul\":8052:8117   */\n      tag_214\n        /* \"#utility.yul\":8110:8116   */\n      dup2\n        /* \"#utility.yul\":8102:8108   */\n      dup5\n        /* \"#utility.yul\":8096:8100   */\n      dup5\n        /* \"#utility.yul\":8052:8117   */\n      tag_108\n      jump\t// in\n    tag_214:\n        /* \"#utility.yul\":7987:8123   */\n      pop\n        /* \"#utility.yul\":7934:8123   */\n      pop\n      pop\n      jump\t// out\n        /* \"#utility.yul\":8129:8315   */\n    tag_111:\n        /* \"#utility.yul\":8189:8309   */\n    tag_216:\n        /* \"#utility.yul\":8206:8209   */\n      dup2\n        /* \"#utility.yul\":8199:8204   */\n      dup2\n        /* \"#utility.yul\":8196:8210   */\n      lt\n        /* \"#utility.yul\":8189:8309   */\n      iszero\n      tag_218\n      jumpi\n        /* \"#utility.yul\":8260:8299   */\n      tag_219\n        /* \"#utility.yul\":8297:8298   */\n      0x00\n        /* \"#utility.yul\":8290:8295   */\n      dup3\n        /* \"#utility.yul\":8260:8299   */\n      tag_110\n      jump\t// in\n    tag_219:\n        /* \"#utility.yul\":8233:8234   */\n      0x01\n        /* \"#utility.yul\":8226:8231   */\n      dup2\n        /* \"#utility.yul\":8222:8235   */\n      add\n        /* \"#utility.yul\":8213:8235   */\n      swap1\n      pop\n        /* \"#utility.yul\":8189:8309   */\n      jump(tag_216)\n    tag_218:\n        /* \"#utility.yul\":8129:8315   */\n      pop\n      pop\n      jump\t// out\n        /* \"#utility.yul\":8321:8864   */\n    tag_112:\n        /* \"#utility.yul\":8422:8424   */\n      0x1f\n        /* \"#utility.yul\":8417:8420   */\n      dup3\n        /* \"#utility.yul\":8414:8425   */\n      gt\n        /* \"#utility.yul\":8411:8857   */\n      iszero\n      tag_221\n      jumpi\n        /* \"#utility.yul\":8456:8494   */\n      tag_222\n        /* \"#utility.yul\":8488:8493   */\n      dup2\n        /* \"#utility.yul\":8456:8494   */\n      tag_101\n      jump\t// in\n    tag_222:\n        /* \"#utility.yul\":8540:8569   */\n      tag_223\n        /* \"#utility.yul\":8558:8568   */\n      dup5\n        /* \"#utility.yul\":8540:8569   */\n      tag_102\n      jump\t// in\n    tag_223:\n        /* \"#utility.yul\":8530:8538   */\n      dup2\n        /* \"#utility.yul\":8526:8570   */\n      add\n        /* \"#utility.yul\":8723:8725   */\n      0x20\n        /* \"#utility.yul\":8711:8721   */\n      dup6\n        /* \"#utility.yul\":8708:8726   */\n      lt\n        /* \"#utility.yul\":8705:8754   */\n      iszero\n      tag_224\n      jumpi\n        /* \"#utility.yul\":8744:8752   */\n      dup2\n        /* \"#utility.yul\":8729:8752   */\n      swap1\n      pop\n        /* \"#utility.yul\":8705:8754   */\n    tag_224:\n        /* \"#utility.yul\":8767:8847   */\n      tag_225\n        /* \"#utility.yul\":8823:8845   */\n      tag_226\n        /* \"#utility.yul\":8841:8844   */\n      dup6\n        /* \"#utility.yul\":8823:8845   */\n      tag_102\n      jump\t// in\n    tag_226:\n        /* \"#utility.yul\":8813:8821   */\n      dup4\n        /* \"#utility.yul\":8809:8846   */\n      add\n        /* \"#utility.yul\":8796:8807   */\n      dup3\n        /* \"#utility.yul\":8767:8847   */\n      tag_111\n      jump\t// in\n    tag_225:\n        /* \"#utility.yul\":8426:8857   */\n      pop\n      pop\n        /* \"#utility.yul\":8411:8857   */\n    tag_221:\n        /* \"#utility.yul\":8321:8864   */\n      pop\n      pop\n      pop\n      jump\t// out\n        /* \"#utility.yul\":8870:8987   */\n    tag_113:\n        /* \"#utility.yul\":8924:8932   */\n      0x00\n        /* \"#utility.yul\":8974:8979   */\n      dup3\n        /* \"#utility.yul\":8968:8972   */\n      dup3\n        /* \"#utility.yul\":8964:8980   */\n      shr\n        /* \"#utility.yul\":8943:8980   */\n      swap1\n      pop\n        /* \"#utility.yul\":8870:8987   */\n      swap3\n      swap2\n      pop\n      pop\n      jump\t// out\n        /* \"#utility.yul\":8993:9162   */\n    tag_114:\n        /* \"#utility.yul\":9037:9043   */\n      0x00\n        /* \"#utility.yul\":9070:9121   */\n      tag_229\n        /* \"#utility.yul\":9118:9119   */\n      0x00\n        /* \"#utility.yul\":9114:9120   */\n      not\n        /* \"#utility.yul\":9106:9111   */\n      dup5\n        /* \"#utility.yul\":9103:9104   */\n      0x08\n        /* \"#utility.yul\":9099:9112   */\n      mul\n        /* \"#utility.yul\":9070:9121   */\n      tag_113\n      jump\t// in\n    tag_229:\n        /* \"#utility.yul\":9066:9122   */\n      not\n        /* \"#utility.yul\":9151:9155   */\n      dup1\n        /* \"#utility.yul\":9145:9149   */\n      dup4\n        /* \"#utility.yul\":9141:9156   */\n      and\n        /* \"#utility.yul\":9131:9156   */\n      swap2\n      pop\n        /* \"#utility.yul\":9044:9162   */\n      pop\n        /* \"#utility.yul\":8993:9162   */\n      swap3\n      swap2\n      pop\n      pop\n      jump\t// out\n        /* \"#utility.yul\":9167:9462   */\n    tag_115:\n        /* \"#utility.yul\":9243:9247   */\n      0x00\n        /* \"#utility.yul\":9389:9418   */\n      tag_231\n        /* \"#utility.yul\":9414:9417   */\n      dup4\n        /* \"#utility.yul\":9408:9412   */\n      dup4\n        /* \"#utility.yul\":9389:9418   */\n      tag_114\n      jump\t// in\n    tag_231:\n        /* \"#utility.yul\":9381:9418   */\n      swap2\n      pop\n        /* \"#utility.yul\":9451:9454   */\n      dup3\n        /* \"#utility.yul\":9448:9449   */\n      0x02\n        /* \"#utility.yul\":9444:9455   */\n      mul\n        /* \"#utility.yul\":9438:9442   */\n      dup3\n        /* \"#utility.yul\":9435:9456   */\n      or\n        /* \"#utility.yul\":9427:9456   */\n      swap1\n      pop\n        /* \"#utility.yul\":9167:9462   */\n      swap3\n      swap2\n      pop\n      pop\n      jump\t// out\n        /* \"#utility.yul\":9467:10870   */\n    tag_39:\n        /* \"#utility.yul\":9591:9635   */\n      tag_233\n        /* \"#utility.yul\":9631:9634   */\n      dup4\n        /* \"#utility.yul\":9626:9629   */\n      dup4\n        /* \"#utility.yul\":9591:9635   */\n      tag_98\n      jump\t// in\n    tag_233:\n        /* \"#utility.yul\":9700:9718   */\n      0xffffffffffffffff\n        /* \"#utility.yul\":9692:9698   */\n      dup2\n        /* \"#utility.yul\":9689:9719   */\n      gt\n        /* \"#utility.yul\":9686:9742   */\n      iszero\n      tag_234\n      jumpi\n        /* \"#utility.yul\":9722:9740   */\n      tag_235\n      tag_99\n      jump\t// in\n    tag_235:\n        /* \"#utility.yul\":9686:9742   */\n    tag_234:\n        /* \"#utility.yul\":9766:9804   */\n      tag_236\n        /* \"#utility.yul\":9798:9802   */\n      dup3\n        /* \"#utility.yul\":9792:9803   */\n      sload\n        /* \"#utility.yul\":9766:9804   */\n      tag_43\n      jump\t// in\n    tag_236:\n        /* \"#utility.yul\":9851:9918   */\n      tag_237\n        /* \"#utility.yul\":9911:9917   */\n      dup3\n        /* \"#utility.yul\":9903:9909   */\n      dup3\n        /* \"#utility.yul\":9897:9901   */\n      dup6\n        /* \"#utility.yul\":9851:9918   */\n      tag_112\n      jump\t// in\n    tag_237:\n        /* \"#utility.yul\":9945:9946   */\n      0x00\n        /* \"#utility.yul\":9974:9976   */\n      0x1f\n        /* \"#utility.yul\":9966:9972   */\n      dup4\n        /* \"#utility.yul\":9963:9977   */\n      gt\n        /* \"#utility.yul\":9991:9992   */\n      0x01\n        /* \"#utility.yul\":9986:10618   */\n      dup2\n      eq\n      tag_239\n      jumpi\n        /* \"#utility.yul\":10662:10663   */\n      0x00\n        /* \"#utility.yul\":10679:10685   */\n      dup5\n        /* \"#utility.yul\":10676:10760   */\n      iszero\n      tag_240\n      jumpi\n        /* \"#utility.yul\":10735:10744   */\n      dup3\n        /* \"#utility.yul\":10730:10733   */\n      dup8\n        /* \"#utility.yul\":10726:10745   */\n      add\n        /* \"#utility.yul\":10713:10746   */\n      calldataload\n        /* \"#utility.yul\":10704:10746   */\n      swap1\n      pop\n        /* \"#utility.yul\":10676:10760   */\n    tag_240:\n        /* \"#utility.yul\":10786:10853   */\n      tag_241\n        /* \"#utility.yul\":10846:10852   */\n      dup6\n        /* \"#utility.yul\":10839:10844   */\n      dup3\n        /* \"#utility.yul\":10786:10853   */\n      tag_115\n      jump\t// in\n    tag_241:\n        /* \"#utility.yul\":10780:10784   */\n      dup7\n        /* \"#utility.yul\":10773:10854   */\n      sstore\n        /* \"#utility.yul\":10635:10864   */\n      pop\n        /* \"#utility.yul\":9956:10864   */\n      jump(tag_238)\n        /* \"#utility.yul\":9986:10618   */\n    tag_239:\n        /* \"#utility.yul\":10038:10042   */\n      0x1f\n        /* \"#utility.yul\":10034:10043   */\n      not\n        /* \"#utility.yul\":10026:10032   */\n      dup5\n        /* \"#utility.yul\":10022:10044   */\n      and\n        /* \"#utility.yul\":10072:10109   */\n      tag_242\n        /* \"#utility.yul\":10104:10108   */\n      dup7\n        /* \"#utility.yul\":10072:10109   */\n      tag_101\n      jump\t// in\n    tag_242:\n        /* \"#utility.yul\":10131:10132   */\n      0x00\n        /* \"#utility.yul\":10145:10360   */\n    tag_243:\n        /* \"#utility.yul\":10159:10166   */\n      dup3\n        /* \"#utility.yul\":10156:10157   */\n      dup2\n        /* \"#utility.yul\":10153:10167   */\n      lt\n        /* \"#utility.yul\":10145:10360   */\n      iszero\n      tag_245\n      jumpi\n        /* \"#utility.yul\":10245:10254   */\n      dup5\n        /* \"#utility.yul\":10240:10243   */\n      dup10\n        /* \"#utility.yul\":10236:10255   */\n      add\n        /* \"#utility.yul\":10223:10256   */\n      calldataload\n        /* \"#utility.yul\":10215:10221   */\n      dup3\n        /* \"#utility.yul\":10208:10257   */\n      sstore\n        /* \"#utility.yul\":10296:10297   */\n      0x01\n        /* \"#utility.yul\":10288:10294   */\n      dup3\n        /* \"#utility.yul\":10284:10298   */\n      add\n        /* \"#utility.yul\":10274:10298   */\n      swap2\n      pop\n        /* \"#utility.yul\":10343:10345   */\n      0x20\n        /* \"#utility.yul\":10332:10341   */\n      dup6\n        /* \"#utility.yul\":10328:10346   */\n      add\n        /* \"#utility.yul\":10315:10346   */\n      swap5\n      pop\n        /* \"#utility.yul\":10182:10186   */\n      0x20\n        /* \"#utility.yul\":10179:10180   */\n      dup2\n        /* \"#utility.yul\":10175:10187   */\n      add\n        /* \"#utility.yul\":10170:10187   */\n      swap1\n      pop\n        /* \"#utility.yul\":10145:10360   */\n      jump(tag_243)\n    tag_245:\n        /* \"#utility.yul\":10388:10394   */\n      dup7\n        /* \"#utility.yul\":10379:10386   */\n      dup4\n        /* \"#utility.yul\":10376:10395   */\n      lt\n        /* \"#utility.yul\":10373:10559   */\n      iszero\n      tag_246\n      jumpi\n        /* \"#utility.yul\":10453:10462   */\n      dup5\n        /* \"#utility.yul\":10448:10451   */\n      dup10\n        /* \"#utility.yul\":10444:10463   */\n      add\n        /* \"#utility.yul\":10431:10464   */\n      calldataload\n        /* \"#utility.yul\":10496:10544   */\n      tag_247\n        /* \"#utility.yul\":10538:10542   */\n      0x1f\n        /* \"#utility.yul\":10530:10536   */\n      dup10\n        /* \"#utility.yul\":10526:10543   */\n      and\n        /* \"#utility.yul\":10515:10524   */\n      dup3\n        /* \"#utility.yul\":10496:10544   */\n      tag_114\n      jump\t// in\n    tag_247:\n        /* \"#utility.yul\":10488:10494   */\n      dup4\n        /* \"#utility.yul\":10481:10545   */\n      sstore\n        /* \"#utility.yul\":10396:10559   */\n      pop\n        /* \"#utility.yul\":10373:10559   */\n    tag_246:\n        /* \"#utility.yul\":10605:10606   */\n      0x01\n        /* \"#utility.yul\":10601:10602   */\n      0x02\n        /* \"#utility.yul\":10593:10599   */\n      dup9\n        /* \"#utility.yul\":10589:10603   */\n      mul\n        /* \"#utility.yul\":10585:10607   */\n      add\n        /* \"#utility.yul\":10579:10583   */\n      dup9\n        /* \"#utility.yul\":10572:10608   */\n      sstore\n        /* \"#utility.yul\":9993:10618   */\n      pop\n      pop\n      pop\n        /* \"#utility.yul\":9956:10864   */\n    tag_238:\n      pop\n        /* \"#utility.yul\":9566:10870   */\n      pop\n      pop\n      pop\n        /* \"#utility.yul\":9467:10870   */\n      pop\n      pop\n      pop\n      jump\t// out\n        /* \"#utility.yul\":10876:11049   */\n    tag_116:\n        /* \"#utility.yul\":11016:11041   */\n      0x496e76616c696420636f6d706c61696e7420696e646578000000000000000000\n        /* \"#utility.yul\":11012:11013   */\n      0x00\n        /* \"#utility.yul\":11004:11010   */\n      dup3\n        /* \"#utility.yul\":11000:11014   */\n      add\n        /* \"#utility.yul\":10993:11042   */\n      mstore\n        /* \"#utility.yul\":10876:11049   */\n      pop\n      jump\t// out\n        /* \"#utility.yul\":11055:11421   */\n    tag_117:\n        /* \"#utility.yul\":11197:11200   */\n      0x00\n        /* \"#utility.yul\":11218:11285   */\n      tag_250\n        /* \"#utility.yul\":11282:11284   */\n      0x17\n        /* \"#utility.yul\":11277:11280   */\n      dup4\n        /* \"#utility.yul\":11218:11285   */\n      tag_88\n      jump\t// in\n    tag_250:\n        /* \"#utility.yul\":11211:11285   */\n      swap2\n      pop\n        /* \"#utility.yul\":11294:11387   */\n      tag_251\n        /* \"#utility.yul\":11383:11386   */\n      dup3\n        /* \"#utility.yul\":11294:11387   */\n      tag_116\n      jump\t// in\n    tag_251:\n        /* \"#utility.yul\":11412:11414   */\n      0x20\n        /* \"#utility.yul\":11407:11410   */\n      dup3\n        /* \"#utility.yul\":11403:11415   */\n      add\n        /* \"#utility.yul\":11396:11415   */\n      swap1\n      pop\n        /* \"#utility.yul\":11055:11421   */\n      swap2\n      swap1\n      pop\n      jump\t// out\n        /* \"#utility.yul\":11427:11846   */\n    tag_51:\n        /* \"#utility.yul\":11593:11597   */\n      0x00\n        /* \"#utility.yul\":11631:11633   */\n      0x20\n        /* \"#utility.yul\":11620:11629   */\n      dup3\n        /* \"#utility.yul\":11616:11634   */\n      add\n        /* \"#utility.yul\":11608:11634   */\n      swap1\n      pop\n        /* \"#utility.yul\":11680:11689   */\n      dup2\n        /* \"#utility.yul\":11674:11678   */\n      dup2\n        /* \"#utility.yul\":11670:11690   */\n      sub\n        /* \"#utility.yul\":11666:11667   */\n      0x00\n        /* \"#utility.yul\":11655:11664   */\n      dup4\n        /* \"#utility.yul\":11651:11668   */\n      add\n        /* \"#utility.yul\":11644:11691   */\n      mstore\n        /* \"#utility.yul\":11708:11839   */\n      tag_253\n        /* \"#utility.yul\":11834:11838   */\n      dup2\n        /* \"#utility.yul\":11708:11839   */\n      tag_117\n      jump\t// in\n    tag_253:\n        /* \"#utility.yul\":11700:11839   */\n      swap1\n      pop\n        /* \"#utility.yul\":11427:11846   */\n      swap2\n      swap1\n      pop\n      jump\t// out\n        /* \"#utility.yul\":11852:12032   */\n    tag_54:\n        /* \"#utility.yul\":11900:11977   */\n      0x4e487b7100000000000000000000000000000000000000000000000000000000\n        /* \"#utility.yul\":11897:11898   */\n      0x00\n        /* \"#utility.yul\":11890:11978   */\n      mstore\n        /* \"#utility.yul\":11997:12001   */\n      0x32\n        /* \"#utility.yul\":11994:11995   */\n      0x04\n        /* \"#utility.yul\":11987:12002   */\n      mstore\n        /* \"#utility.yul\":12021:12025   */\n      0x24\n        /* \"#utility.yul\":12018:12019   */\n      0x00\n        /* \"#utility.yul\":12011:12026   */\n      revert\n        /* \"#utility.yul\":12038:12201   */\n    tag_118:\n        /* \"#utility.yul\":12178:12193   */\n      0x416c726561647920766f74656400000000000000000000000000000000000000\n        /* \"#utility.yul\":12174:12175   */\n      0x00\n        /* \"#utility.yul\":12166:12172   */\n      dup3\n        /* \"#utility.yul\":12162:12176   */\n      add\n        /* \"#utility.yul\":12155:12194   */\n      mstore\n        /* \"#utility.yul\":12038:12201   */\n      pop\n      jump\t// out\n        /* \"#utility.yul\":12207:12573   */\n    tag_119:\n        /* \"#utility.yul\":12349:12352   */\n      0x00\n        /* \"#utility.yul\":12370:12437   */\n      tag_257\n        /* \"#utility.yul\":12434:12436   */\n      0x0d\n        /* \"#utility.yul\":12429:12432   */\n      dup4\n        /* \"#utility.yul\":12370:12437   */\n      tag_88\n      jump\t// in\n    tag_257:\n        /* \"#utility.yul\":12363:12437   */\n      swap2\n      pop\n        /* \"#utility.yul\":12446:12539   */\n      tag_258\n        /* \"#utility.yul\":12535:12538   */\n      dup3\n        /* \"#utility.yul\":12446:12539   */\n      tag_118\n      jump\t// in\n    tag_258:\n        /* \"#utility.yul\":12564:12566   */\n      0x20\n        /* \"#utility.yul\":12559:12562   */\n      dup3\n        /* \"#utility.yul\":12555:12567   */\n      add\n        /* \"#utility.yul\":12548:12567   */\n      swap1\n      pop\n        /* \"#utility.yul\":12207:12573   */\n      swap2\n      swap1\n      pop\n      jump\t// out\n        /* \"#utility.yul\":12579:12998   */\n    tag_58:\n        /* \"#utility.yul\":12745:12749   */\n      0x00\n        /* \"#utility.yul\":12783:12785   */\n      0x20\n        /* \"#utility.yul\":12772:12781   */\n      dup3\n        /* \"#utility.yul\":12768:12786   */\n      add\n        /* \"#utility.yul\":12760:12786   */\n      swap1\n      pop\n        /* \"#utility.yul\":12832:12841   */\n      dup2\n        /* \"#utility.yul\":12826:12830   */\n      dup2\n        /* \"#utility.yul\":12822:12842   */\n      sub\n        /* \"#utility.yul\":12818:12819   */\n      0x00\n        /* \"#utility.yul\":12807:12816   */\n      dup4\n        /* \"#utility.yul\":12803:12820   */\n      add\n        /* \"#utility.yul\":12796:12843   */\n      mstore\n        /* \"#utility.yul\":12860:12991   */\n      tag_260\n        /* \"#utility.yul\":12986:12990   */\n      dup2\n        /* \"#utility.yul\":12860:12991   */\n      tag_119\n      jump\t// in\n    tag_260:\n        /* \"#utility.yul\":12852:12991   */\n      swap1\n      pop\n        /* \"#utility.yul\":12579:12998   */\n      swap2\n      swap1\n      pop\n      jump\t// out\n        /* \"#utility.yul\":13004:13184   */\n    tag_120:\n        /* \"#utility.yul\":13052:13129   */\n      0x4e487b7100000000000000000000000000000000000000000000000000000000\n        /* \"#utility.yul\":13049:13050   */\n      0x00\n        /* \"#utility.yul\":13042:13130   */\n      mstore\n        /* \"#utility.yul\":13149:13153   */\n      0x11\n        /* \"#utility.yul\":13146:13147   */\n      0x04\n        /* \"#utility.yul\":13139:13154   */\n      mstore\n        /* \"#utility.yul\":13173:13177   */\n      0x24\n        /* \"#utility.yul\":13170:13171   */\n      0x00\n        /* \"#utility.yul\":13163:13178   */\n      revert\n        /* \"#utility.yul\":13190:13423   */\n    tag_61:\n        /* \"#utility.yul\":13229:13232   */\n      0x00\n        /* \"#utility.yul\":13252:13276   */\n      tag_263\n        /* \"#utility.yul\":13270:13275   */\n      dup3\n        /* \"#utility.yul\":13252:13276   */\n      tag_76\n      jump\t// in\n    tag_263:\n        /* \"#utility.yul\":13243:13276   */\n      swap2\n      pop\n        /* \"#utility.yul\":13298:13364   */\n      0xffffffffffffffffffffffffffffffffffffffffffffffffffffffffffffffff\n        /* \"#utility.yul\":13291:13296   */\n      dup3\n        /* \"#utility.yul\":13288:13365   */\n      sub\n        /* \"#utility.yul\":13285:13388   */\n      tag_264\n      jumpi\n        /* \"#utility.yul\":13368:13386   */\n      tag_265\n      tag_120\n      jump\t// in\n    tag_265:\n        /* \"#utility.yul\":13285:13388   */\n    tag_264:\n        /* \"#utility.yul\":13415:13416   */\n      0x01\n        /* \"#utility.yul\":13408:13413   */\n      dup3\n        /* \"#utility.yul\":13404:13417   */\n      add\n        /* \"#utility.yul\":13397:13417   */\n      swap1\n      pop\n        /* \"#utility.yul\":13190:13423   */\n      swap2\n      swap1\n      pop\n      jump\t// out\n        /* \"#utility.yul\":13429:13592   */\n    tag_121:\n        /* \"#utility.yul\":13569:13584   */\n      0x496e76616c696420696e64657800000000000000000000000000000000000000\n        /* \"#utility.yul\":13565:13566   */\n      0x00\n        /* \"#utility.yul\":13557:13563   */\n      dup3\n        /* \"#utility.yul\":13553:13567   */\n      add\n        /* \"#utility.yul\":13546:13585   */\n      mstore\n        /* \"#utility.yul\":13429:13592   */\n      pop\n      jump\t// out\n        /* \"#utility.yul\":13598:13964   */\n    tag_122:\n        /* \"#utility.yul\":13740:13743   */\n      0x00\n        /* \"#utility.yul\":13761:13828   */\n      tag_268\n        /* \"#utility.yul\":13825:13827   */\n      0x0d\n        /* \"#utility.yul\":13820:13823   */\n      dup4\n        /* \"#utility.yul\":13761:13828   */\n      tag_88\n      jump\t// in\n    tag_268:\n        /* \"#utility.yul\":13754:13828   */\n      swap2\n      pop\n        /* \"#utility.yul\":13837:13930   */\n      tag_269\n        /* \"#utility.yul\":13926:13929   */\n      dup3\n        /* \"#utility.yul\":13837:13930   */\n      tag_121\n      jump\t// in\n    tag_269:\n        /* \"#utility.yul\":13955:13957   */\n      0x20\n        /* \"#utility.yul\":13950:13953   */\n      dup3\n        /* \"#utility.yul\":13946:13958   */\n      add\n        /* \"#utility.yul\":13939:13958   */\n      swap1\n      pop\n        /* \"#utility.yul\":13598:13964   */\n      swap2\n      swap1\n      pop\n      jump\t// out\n        /* \"#utility.yul\":13970:14389   */\n    tag_67:\n        /* \"#utility.yul\":14136:14140   */\n      0x00\n        /* \"#utility.yul\":14174:14176   */\n      0x20\n        /* \"#utility.yul\":14163:14172   */\n      dup3\n        /* \"#utility.yul\":14159:14177   */\n      add\n        /* \"#utility.yul\":14151:14177   */\n      swap1\n      pop\n        /* \"#utility.yul\":14223:14232   */\n      dup2\n        /* \"#utility.yul\":14217:14221   */\n      dup2\n        /* \"#utility.yul\":14213:14233   */\n      sub\n        /* \"#utility.yul\":14209:14210   */\n      0x00\n        /* \"#utility.yul\":14198:14207   */\n      dup4\n        /* \"#utility.yul\":14194:14211   */\n      add\n        /* \"#utility.yul\":14187:14234   */\n      mstore\n        /* \"#utility.yul\":14251:14382   */\n      tag_271\n        /* \"#utility.yul\":14377:14381   */\n      dup2\n        /* \"#utility.yul\":14251:14382   */\n      tag_122\n      jump\t// in\n    tag_271:\n        /* \"#utility.yul\":14243:14382   */\n      swap1\n      pop\n        /* \"#utility.yul\":13970:14389   */\n      swap2\n      swap1\n      pop\n      jump\t// out\n\n    auxdata: 0xa26469706673582212207a75161872fc2f096669dd8b82edd21ca76e7d28eae10ce9bb116447922ba25c64736f6c634300081e0033\n}\n",
				"bytecode": {
					"linkReferences": {},
					"object": "6080604052348015600e575f5ffd5b50335f5f6101000a81548173ffffffffffffffffffffffffffffffffffffffff021916908373ffffffffffffffffffffffffffffffffffffffff160217905550610cc38061005b5f395ff3fe608060405234801561000f575f5ffd5b5060043610610060575f3560e01c806359f978011461006457806360d06892146100825780637e69e9121461009e5780638da5cb5b146100d0578063c9d27afe146100ee578063dee8ae431461010a575b5f5ffd5b61006c61013c565b604051610079919061051a565b60405180910390f35b61009c6004803603810190610097919061059c565b610148565b005b6100b860048036038101906100b39190610611565b610180565b6040516100c7939291906106ac565b60405180910390f35b6100d861023b565b6040516100e59190610727565b60405180910390f35b61010860048036038101906101039190610775565b61025f565b005b610124600480360381019061011f9190610611565b6103ef565b604051610133939291906106ac565b60405180910390f35b5f600180549050905090565b5f6001808160018154018082558091505003905f5260205f20906004020190508282825f01918261017a9291906109e7565b50505050565b6001818154811061018f575f80fd5b905f5260205f2090600402015f91509050805f0180546101ae90610817565b80601f01602080910402602001604051908101604052809291908181526020018280546101da90610817565b80156102255780601f106101fc57610100808354040283529160200191610225565b820191905f5260205f20905b81548152906001019060200180831161020857829003601f168201915b5050505050908060010154908060020154905083565b5f5f9054906101000a900473ffffffffffffffffffffffffffffffffffffffff1681565b60018054905082106102a6576040517f08c379a000000000000000000000000000000000000000000000000000000000815260040161029d90610afe565b60405180910390fd5b5f600183815481106102bb576102ba610b1c565b5b905f5260205f2090600402019050806003015f3373ffffffffffffffffffffffffffffffffffffffff1673ffffffffffffffffffffffffffffffffffffffff1681526020019081526020015f205f9054906101000a900460ff1615610355576040517f08c379a000000000000000000000000000000000000000000000000000000000815260040161034c90610b93565b60405180910390fd5b811561037957806001015f81548092919061036f90610bde565b9190505550610393565b806002015f81548092919061038d90610bde565b91905055505b6001816003015f3373ffffffffffffffffffffffffffffffffffffffff1673ffffffffffffffffffffffffffffffffffffffff1681526020019081526020015f205f6101000a81548160ff021916908315150217905550505050565b60605f5f600180549050841061043a576040517f08c379a000000000000000000000000000000000000000000000000000000000815260040161043190610c6f565b60405180910390fd5b5f6001858154811061044f5761044e610b1c565b5b905f5260205f2090600402019050805f018160010154826002015482805461047690610817565b80601f01602080910402602001604051908101604052809291908181526020018280546104a290610817565b80156104ed5780601f106104c4576101008083540402835291602001916104ed565b820191905f5260205f20905b8154815290600101906020018083116104d057829003601f168201915b50505050509250935093509350509193909250565b5f819050919050565b61051481610502565b82525050565b5f60208201905061052d5f83018461050b565b92915050565b5f5ffd5b5f5ffd5b5f5ffd5b5f5ffd5b5f5ffd5b5f5f83601f84011261055c5761055b61053b565b5b8235905067ffffffffffffffff8111156105795761057861053f565b5b60208301915083600182028301111561059557610594610543565b5b9250929050565b5f5f602083850312156105b2576105b1610533565b5b5f83013567ffffffffffffffff8111156105cf576105ce610537565b5b6105db85828601610547565b92509250509250929050565b6105f081610502565b81146105fa575f5ffd5b50565b5f8135905061060b816105e7565b92915050565b5f6020828403121561062657610625610533565b5b5f610633848285016105fd565b91505092915050565b5f81519050919050565b5f82825260208201905092915050565b8281835e5f83830152505050565b5f601f19601f8301169050919050565b5f61067e8261063c565b6106888185610646565b9350610698818560208601610656565b6106a181610664565b840191505092915050565b5f6060820190508181035f8301526106c48186610674565b90506106d3602083018561050b565b6106e0604083018461050b565b949350505050565b5f73ffffffffffffffffffffffffffffffffffffffff82169050919050565b5f610711826106e8565b9050919050565b61072181610707565b82525050565b5f60208201905061073a5f830184610718565b92915050565b5f8115159050919050565b61075481610740565b811461075e575f5ffd5b50565b5f8135905061076f8161074b565b92915050565b5f5f6040838503121561078b5761078a610533565b5b5f610798858286016105fd565b92505060206107a985828601610761565b9150509250929050565b5f82905092915050565b7f4e487b71000000000000000000000000000000000000000000000000000000005f52604160045260245ffd5b7f4e487b71000000000000000000000000000000000000000000000000000000005f52602260045260245ffd5b5f600282049050600182168061082e57607f821691505b602082108103610841576108406107ea565b5b50919050565b5f819050815f5260205f209050919050565b5f6020601f8301049050919050565b5f82821b905092915050565b5f600883026108a37fffffffffffffffffffffffffffffffffffffffffffffffffffffffffffffffff82610868565b6108ad8683610868565b95508019841693508086168417925050509392505050565b5f819050919050565b5f6108e86108e36108de84610502565b6108c5565b610502565b9050919050565b5f819050919050565b610901836108ce565b61091561090d826108ef565b848454610874565b825550505050565b5f5f905090565b61092c61091d565b6109378184846108f8565b505050565b5b8181101561095a5761094f5f82610924565b60018101905061093d565b5050565b601f82111561099f5761097081610847565b61097984610859565b81016020851015610988578190505b61099c61099485610859565b83018261093c565b50505b505050565b5f82821c905092915050565b5f6109bf5f19846008026109a4565b1980831691505092915050565b5f6109d783836109b0565b9150826002028217905092915050565b6109f183836107b3565b67ffffffffffffffff811115610a0a57610a096107bd565b5b610a148254610817565b610a1f82828561095e565b5f601f831160018114610a4c575f8415610a3a578287013590505b610a4485826109cc565b865550610aab565b601f198416610a5a86610847565b5f5b82811015610a8157848901358255600182019150602085019450602081019050610a5c565b86831015610a9e5784890135610a9a601f8916826109b0565b8355505b6001600288020188555050505b50505050505050565b7f496e76616c696420636f6d706c61696e7420696e6465780000000000000000005f82015250565b5f610ae8601783610646565b9150610af382610ab4565b602082019050919050565b5f6020820190508181035f830152610b1581610adc565b9050919050565b7f4e487b71000000000000000000000000000000000000000000000000000000005f52603260045260245ffd5b7f416c726561647920766f746564000000000000000000000000000000000000005f82015250565b5f610b7d600d83610646565b9150610b8882610b49565b602082019050919050565b5f6020820190508181035f830152610baa81610b71565b9050919050565b7f4e487b71000000000000000000000000000000000000000000000000000000005f52601160045260245ffd5b5f610be882610502565b91507fffffffffffffffffffffffffffffffffffffffffffffffffffffffffffffffff8203610c1a57610c19610bb1565b5b600182019050919050565b7f496e76616c696420696e646578000000000000000000000000000000000000005f82015250565b5f610c59600d83610646565b9150610c6482610c25565b602082019050919050565b5f6020820190508181035f830152610c8681610c4d565b905091905056fea26469706673582212207a75161872fc2f096669dd8b82edd21ca76e7d28eae10ce9bb116447922ba25c64736f6c634300081e0033",
					"opcodes": "PUSH1 0x80 PUSH1 0x40 MSTORE CALLVALUE DUP1 ISZERO PUSH1 0xE JUMPI PUSH0 PUSH0 REVERT JUMPDEST POP CALLER PUSH0 PUSH0 PUSH2 0x100 EXP DUP2 SLOAD DUP2 PUSH20 0xFFFFFFFFFFFFFFFFFFFFFFFFFFFFFFFFFFFFFFFF MUL NOT AND SWAP1 DUP4 PUSH20 0xFFFFFFFFFFFFFFFFFFFFFFFFFFFFFFFFFFFFFFFF AND MUL OR SWAP1 SSTORE POP PUSH2 0xCC3 DUP1 PUSH2 0x5B PUSH0 CODECOPY PUSH0 RETURN INVALID PUSH1 0x80 PUSH1 0x40 MSTORE CALLVALUE DUP1 ISZERO PUSH2 0xF JUMPI PUSH0 PUSH0 REVERT JUMPDEST POP PUSH1 0x4 CALLDATASIZE LT PUSH2 0x60 JUMPI PUSH0 CALLDATALOAD PUSH1 0xE0 SHR DUP1 PUSH4 0x59F97801 EQ PUSH2 0x64 JUMPI DUP1 PUSH4 0x60D06892 EQ PUSH2 0x82 JUMPI DUP1 PUSH4 0x7E69E912 EQ PUSH2 0x9E JUMPI DUP1 PUSH4 0x8DA5CB5B EQ PUSH2 0xD0 JUMPI DUP1 PUSH4 0xC9D27AFE EQ PUSH2 0xEE JUMPI DUP1 PUSH4 0xDEE8AE43 EQ PUSH2 0x10A JUMPI JUMPDEST PUSH0 PUSH0 REVERT JUMPDEST PUSH2 0x6C PUSH2 0x13C JUMP JUMPDEST PUSH1 0x40 MLOAD PUSH2 0x79 SWAP2 SWAP1 PUSH2 0x51A JUMP JUMPDEST PUSH1 0x40 MLOAD DUP1 SWAP2 SUB SWAP1 RETURN JUMPDEST PUSH2 0x9C PUSH1 0x4 DUP1 CALLDATASIZE SUB DUP2 ADD SWAP1 PUSH2 0x97 SWAP2 SWAP1 PUSH2 0x59C JUMP JUMPDEST PUSH2 0x148 JUMP JUMPDEST STOP JUMPDEST PUSH2 0xB8 PUSH1 0x4 DUP1 CALLDATASIZE SUB DUP2 ADD SWAP1 PUSH2 0xB3 SWAP2 SWAP1 PUSH2 0x611 JUMP JUMPDEST PUSH2 0x180 JUMP JUMPDEST PUSH1 0x40 MLOAD PUSH2 0xC7 SWAP4 SWAP3 SWAP2 SWAP1 PUSH2 0x6AC JUMP JUMPDEST PUSH1 0x40 MLOAD DUP1 SWAP2 SUB SWAP1 RETURN JUMPDEST PUSH2 0xD8 PUSH2 0x23B JUMP JUMPDEST PUSH1 0x40 MLOAD PUSH2 0xE5 SWAP2 SWAP1 PUSH2 0x727 JUMP JUMPDEST PUSH1 0x40 MLOAD DUP1 SWAP2 SUB SWAP1 RETURN JUMPDEST PUSH2 0x108 PUSH1 0x4 DUP1 CALLDATASIZE SUB DUP2 ADD SWAP1 PUSH2 0x103 SWAP2 SWAP1 PUSH2 0x775 JUMP JUMPDEST PUSH2 0x25F JUMP JUMPDEST STOP JUMPDEST PUSH2 0x124 PUSH1 0x4 DUP1 CALLDATASIZE SUB DUP2 ADD SWAP1 PUSH2 0x11F SWAP2 SWAP1 PUSH2 0x611 JUMP JUMPDEST PUSH2 0x3EF JUMP JUMPDEST PUSH1 0x40 MLOAD PUSH2 0x133 SWAP4 SWAP3 SWAP2 SWAP1 PUSH2 0x6AC JUMP JUMPDEST PUSH1 0x40 MLOAD DUP1 SWAP2 SUB SWAP1 RETURN JUMPDEST PUSH0 PUSH1 0x1 DUP1 SLOAD SWAP1 POP SWAP1 POP SWAP1 JUMP JUMPDEST PUSH0 PUSH1 0x1 DUP1 DUP2 PUSH1 0x1 DUP2 SLOAD ADD DUP1 DUP3 SSTORE DUP1 SWAP2 POP POP SUB SWAP1 PUSH0 MSTORE PUSH1 0x20 PUSH0 KECCAK256 SWAP1 PUSH1 0x4 MUL ADD SWAP1 POP DUP3 DUP3 DUP3 PUSH0 ADD SWAP2 DUP3 PUSH2 0x17A SWAP3 SWAP2 SWAP1 PUSH2 0x9E7 JUMP JUMPDEST POP POP POP POP JUMP JUMPDEST PUSH1 0x1 DUP2 DUP2 SLOAD DUP2 LT PUSH2 0x18F JUMPI PUSH0 DUP1 REVERT JUMPDEST SWAP1 PUSH0 MSTORE PUSH1 0x20 PUSH0 KECCAK256 SWAP1 PUSH1 0x4 MUL ADD PUSH0 SWAP2 POP SWAP1 POP DUP1 PUSH0 ADD DUP1 SLOAD PUSH2 0x1AE SWAP1 PUSH2 0x817 JUMP JUMPDEST DUP1 PUSH1 0x1F ADD PUSH1 0x20 DUP1 SWAP2 DIV MUL PUSH1 0x20 ADD PUSH1 0x40 MLOAD SWAP1 DUP2 ADD PUSH1 0x40 MSTORE DUP1 SWAP3 SWAP2 SWAP1 DUP2 DUP2 MSTORE PUSH1 0x20 ADD DUP3 DUP1 SLOAD PUSH2 0x1DA SWAP1 PUSH2 0x817 JUMP JUMPDEST DUP1 ISZERO PUSH2 0x225 JUMPI DUP1 PUSH1 0x1F LT PUSH2 0x1FC JUMPI PUSH2 0x100 DUP1 DUP4 SLOAD DIV MUL DUP4 MSTORE SWAP2 PUSH1 0x20 ADD SWAP2 PUSH2 0x225 JUMP JUMPDEST DUP3 ADD SWAP2 SWAP1 PUSH0 MSTORE PUSH1 0x20 PUSH0 KECCAK256 SWAP1 JUMPDEST DUP2 SLOAD DUP2 MSTORE SWAP1 PUSH1 0x1 ADD SWAP1 PUSH1 0x20 ADD DUP1 DUP4 GT PUSH2 0x208 JUMPI DUP3 SWAP1 SUB PUSH1 0x1F AND DUP3 ADD SWAP2 JUMPDEST POP POP POP POP POP SWAP1 DUP1 PUSH1 0x1 ADD SLOAD SWAP1 DUP1 PUSH1 0x2 ADD SLOAD SWAP1 POP DUP4 JUMP JUMPDEST PUSH0 PUSH0 SWAP1 SLOAD SWAP1 PUSH2 0x100 EXP SWAP1 DIV PUSH20 0xFFFFFFFFFFFFFFFFFFFFFFFFFFFFFFFFFFFFFFFF AND DUP2 JUMP JUMPDEST PUSH1 0x1 DUP1 SLOAD SWAP1 POP DUP3 LT PUSH2 0x2A6 JUMPI PUSH1 0x40 MLOAD PUSH32 0x8C379A000000000000000000000000000000000000000000000000000000000 DUP2 MSTORE PUSH1 0x4 ADD PUSH2 0x29D SWAP1 PUSH2 0xAFE JUMP JUMPDEST PUSH1 0x40 MLOAD DUP1 SWAP2 SUB SWAP1 REVERT JUMPDEST PUSH0 PUSH1 0x1 DUP4 DUP2 SLOAD DUP2 LT PUSH2 0x2BB JUMPI PUSH2 0x2BA PUSH2 0xB1C JUMP JUMPDEST JUMPDEST SWAP1 PUSH0 MSTORE PUSH1 0x20 PUSH0 KECCAK256 SWAP1 PUSH1 0x4 MUL ADD SWAP1 POP DUP1 PUSH1 0x3 ADD PUSH0 CALLER PUSH20 0xFFFFFFFFFFFFFFFFFFFFFFFFFFFFFFFFFFFFFFFF AND PUSH20 0xFFFFFFFFFFFFFFFFFFFFFFFFFFFFFFFFFFFFFFFF AND DUP2 MSTORE PUSH1 0x20 ADD SWAP1 DUP2 MSTORE PUSH1 0x20 ADD PUSH0 KECCAK256 PUSH0 SWAP1 SLOAD SWAP1 PUSH2 0x100 EXP SWAP1 DIV PUSH1 0xFF AND ISZERO PUSH2 0x355 JUMPI PUSH1 0x40 MLOAD PUSH32 0x8C379A000000000000000000000000000000000000000000000000000000000 DUP2 MSTORE PUSH1 0x4 ADD PUSH2 0x34C SWAP1 PUSH2 0xB93 JUMP JUMPDEST PUSH1 0x40 MLOAD DUP1 SWAP2 SUB SWAP1 REVERT JUMPDEST DUP2 ISZERO PUSH2 0x379 JUMPI DUP1 PUSH1 0x1 ADD PUSH0 DUP2 SLOAD DUP1 SWAP3 SWAP2 SWAP1 PUSH2 0x36F SWAP1 PUSH2 0xBDE JUMP JUMPDEST SWAP2 SWAP1 POP SSTORE POP PUSH2 0x393 JUMP JUMPDEST DUP1 PUSH1 0x2 ADD PUSH0 DUP2 SLOAD DUP1 SWAP3 SWAP2 SWAP1 PUSH2 0x38D SWAP1 PUSH2 0xBDE JUMP JUMPDEST SWAP2 SWAP1 POP SSTORE POP JUMPDEST PUSH1 0x1 DUP2 PUSH1 0x3 ADD PUSH0 CALLER PUSH20 0xFFFFFFFFFFFFFFFFFFFFFFFFFFFFFFFFFFFFFFFF AND PUSH20 0xFFFFFFFFFFFFFFFFFFFFFFFFFFFFFFFFFFFFFFFF AND DUP2 MSTORE PUSH1 0x20 ADD SWAP1 DUP2 MSTORE PUSH1 0x20 ADD PUSH0 KECCAK256 PUSH0 PUSH2 0x100 EXP DUP2 SLOAD DUP2 PUSH1 0xFF MUL NOT AND SWAP1 DUP4 ISZERO ISZERO MUL OR SWAP1 SSTORE POP POP POP POP JUMP JUMPDEST PUSH1 0x60 PUSH0 PUSH0 PUSH1 0x1 DUP1 SLOAD SWAP1 POP DUP5 LT PUSH2 0x43A JUMPI PUSH1 0x40 MLOAD PUSH32 0x8C379A000000000000000000000000000000000000000000000000000000000 DUP2 MSTORE PUSH1 0x4 ADD PUSH2 0x431 SWAP1 PUSH2 0xC6F JUMP JUMPDEST PUSH1 0x40 MLOAD DUP1 SWAP2 SUB SWAP1 REVERT JUMPDEST PUSH0 PUSH1 0x1 DUP6 DUP2 SLOAD DUP2 LT PUSH2 0x44F JUMPI PUSH2 0x44E PUSH2 0xB1C JUMP JUMPDEST JUMPDEST SWAP1 PUSH0 MSTORE PUSH1 0x20 PUSH0 KECCAK256 SWAP1 PUSH1 0x4 MUL ADD SWAP1 POP DUP1 PUSH0 ADD DUP2 PUSH1 0x1 ADD SLOAD DUP3 PUSH1 0x2 ADD SLOAD DUP3 DUP1 SLOAD PUSH2 0x476 SWAP1 PUSH2 0x817 JUMP JUMPDEST DUP1 PUSH1 0x1F ADD PUSH1 0x20 DUP1 SWAP2 DIV MUL PUSH1 0x20 ADD PUSH1 0x40 MLOAD SWAP1 DUP2 ADD PUSH1 0x40 MSTORE DUP1 SWAP3 SWAP2 SWAP1 DUP2 DUP2 MSTORE PUSH1 0x20 ADD DUP3 DUP1 SLOAD PUSH2 0x4A2 SWAP1 PUSH2 0x817 JUMP JUMPDEST DUP1 ISZERO PUSH2 0x4ED JUMPI DUP1 PUSH1 0x1F LT PUSH2 0x4C4 JUMPI PUSH2 0x100 DUP1 DUP4 SLOAD DIV MUL DUP4 MSTORE SWAP2 PUSH1 0x20 ADD SWAP2 PUSH2 0x4ED JUMP JUMPDEST DUP3 ADD SWAP2 SWAP1 PUSH0 MSTORE PUSH1 0x20 PUSH0 KECCAK256 SWAP1 JUMPDEST DUP2 SLOAD DUP2 MSTORE SWAP1 PUSH1 0x1 ADD SWAP1 PUSH1 0x20 ADD DUP1 DUP4 GT PUSH2 0x4D0 JUMPI DUP3 SWAP1 SUB PUSH1 0x1F AND DUP3 ADD SWAP2 JUMPDEST POP POP POP POP POP SWAP3 POP SWAP4 POP SWAP4 POP SWAP4 POP POP SWAP2 SWAP4 SWAP1 SWAP3 POP JUMP JUMPDEST PUSH0 DUP2 SWAP1 POP SWAP2 SWAP1 POP JUMP JUMPDEST PUSH2 0x514 DUP2 PUSH2 0x502 JUMP JUMPDEST DUP3 MSTORE POP POP JUMP JUMPDEST PUSH0 PUSH1 0x20 DUP3 ADD SWAP1 POP PUSH2 0x52D PUSH0 DUP4 ADD DUP5 PUSH2 0x50B JUMP JUMPDEST SWAP3 SWAP2 POP POP JUMP JUMPDEST PUSH0 PUSH0 REVERT JUMPDEST PUSH0 PUSH0 REVERT JUMPDEST PUSH0 PUSH0 REVERT JUMPDEST PUSH0 PUSH0 REVERT JUMPDEST PUSH0 PUSH0 REVERT JUMPDEST PUSH0 PUSH0 DUP4 PUSH1 0x1F DUP5 ADD SLT PUSH2 0x55C JUMPI PUSH2 0x55B PUSH2 0x53B JUMP JUMPDEST JUMPDEST DUP3 CALLDATALOAD SWAP1 POP PUSH8 0xFFFFFFFFFFFFFFFF DUP2 GT ISZERO PUSH2 0x579 JUMPI PUSH2 0x578 PUSH2 0x53F JUMP JUMPDEST JUMPDEST PUSH1 0x20 DUP4 ADD SWAP2 POP DUP4 PUSH1 0x1 DUP3 MUL DUP4 ADD GT ISZERO PUSH2 0x595 JUMPI PUSH2 0x594 PUSH2 0x543 JUMP JUMPDEST JUMPDEST SWAP3 POP SWAP3 SWAP1 POP JUMP JUMPDEST PUSH0 PUSH0 PUSH1 0x20 DUP4 DUP6 SUB SLT ISZERO PUSH2 0x5B2 JUMPI PUSH2 0x5B1 PUSH2 0x533 JUMP JUMPDEST JUMPDEST PUSH0 DUP4 ADD CALLDATALOAD PUSH8 0xFFFFFFFFFFFFFFFF DUP2 GT ISZERO PUSH2 0x5CF JUMPI PUSH2 0x5CE PUSH2 0x537 JUMP JUMPDEST JUMPDEST PUSH2 0x5DB DUP6 DUP3 DUP7 ADD PUSH2 0x547 JUMP JUMPDEST SWAP3 POP SWAP3 POP POP SWAP3 POP SWAP3 SWAP1 POP JUMP JUMPDEST PUSH2 0x5F0 DUP2 PUSH2 0x502 JUMP JUMPDEST DUP2 EQ PUSH2 0x5FA JUMPI PUSH0 PUSH0 REVERT JUMPDEST POP JUMP JUMPDEST PUSH0 DUP2 CALLDATALOAD SWAP1 POP PUSH2 0x60B DUP2 PUSH2 0x5E7 JUMP JUMPDEST SWAP3 SWAP2 POP POP JUMP JUMPDEST PUSH0 PUSH1 0x20 DUP3 DUP5 SUB SLT ISZERO PUSH2 0x626 JUMPI PUSH2 0x625 PUSH2 0x533 JUMP JUMPDEST JUMPDEST PUSH0 PUSH2 0x633 DUP5 DUP3 DUP6 ADD PUSH2 0x5FD JUMP JUMPDEST SWAP2 POP POP SWAP3 SWAP2 POP POP JUMP JUMPDEST PUSH0 DUP2 MLOAD SWAP1 POP SWAP2 SWAP1 POP JUMP JUMPDEST PUSH0 DUP3 DUP3 MSTORE PUSH1 0x20 DUP3 ADD SWAP1 POP SWAP3 SWAP2 POP POP JUMP JUMPDEST DUP3 DUP2 DUP4 MCOPY PUSH0 DUP4 DUP4 ADD MSTORE POP POP POP JUMP JUMPDEST PUSH0 PUSH1 0x1F NOT PUSH1 0x1F DUP4 ADD AND SWAP1 POP SWAP2 SWAP1 POP JUMP JUMPDEST PUSH0 PUSH2 0x67E DUP3 PUSH2 0x63C JUMP JUMPDEST PUSH2 0x688 DUP2 DUP6 PUSH2 0x646 JUMP JUMPDEST SWAP4 POP PUSH2 0x698 DUP2 DUP6 PUSH1 0x20 DUP7 ADD PUSH2 0x656 JUMP JUMPDEST PUSH2 0x6A1 DUP2 PUSH2 0x664 JUMP JUMPDEST DUP5 ADD SWAP2 POP POP SWAP3 SWAP2 POP POP JUMP JUMPDEST PUSH0 PUSH1 0x60 DUP3 ADD SWAP1 POP DUP2 DUP2 SUB PUSH0 DUP4 ADD MSTORE PUSH2 0x6C4 DUP2 DUP7 PUSH2 0x674 JUMP JUMPDEST SWAP1 POP PUSH2 0x6D3 PUSH1 0x20 DUP4 ADD DUP6 PUSH2 0x50B JUMP JUMPDEST PUSH2 0x6E0 PUSH1 0x40 DUP4 ADD DUP5 PUSH2 0x50B JUMP JUMPDEST SWAP5 SWAP4 POP POP POP POP JUMP JUMPDEST PUSH0 PUSH20 0xFFFFFFFFFFFFFFFFFFFFFFFFFFFFFFFFFFFFFFFF DUP3 AND SWAP1 POP SWAP2 SWAP1 POP JUMP JUMPDEST PUSH0 PUSH2 0x711 DUP3 PUSH2 0x6E8 JUMP JUMPDEST SWAP1 POP SWAP2 SWAP1 POP JUMP JUMPDEST PUSH2 0x721 DUP2 PUSH2 0x707 JUMP JUMPDEST DUP3 MSTORE POP POP JUMP JUMPDEST PUSH0 PUSH1 0x20 DUP3 ADD SWAP1 POP PUSH2 0x73A PUSH0 DUP4 ADD DUP5 PUSH2 0x718 JUMP JUMPDEST SWAP3 SWAP2 POP POP JUMP JUMPDEST PUSH0 DUP2 ISZERO ISZERO SWAP1 POP SWAP2 SWAP1 POP JUMP JUMPDEST PUSH2 0x754 DUP2 PUSH2 0x740 JUMP JUMPDEST DUP2 EQ PUSH2 0x75E JUMPI PUSH0 PUSH0 REVERT JUMPDEST POP JUMP JUMPDEST PUSH0 DUP2 CALLDATALOAD SWAP1 POP PUSH2 0x76F DUP2 PUSH2 0x74B JUMP JUMPDEST SWAP3 SWAP2 POP POP JUMP JUMPDEST PUSH0 PUSH0 PUSH1 0x40 DUP4 DUP6 SUB SLT ISZERO PUSH2 0x78B JUMPI PUSH2 0x78A PUSH2 0x533 JUMP JUMPDEST JUMPDEST PUSH0 PUSH2 0x798 DUP6 DUP3 DUP7 ADD PUSH2 0x5FD JUMP JUMPDEST SWAP3 POP POP PUSH1 0x20 PUSH2 0x7A9 DUP6 DUP3 DUP7 ADD PUSH2 0x761 JUMP JUMPDEST SWAP2 POP POP SWAP3 POP SWAP3 SWAP1 POP JUMP JUMPDEST PUSH0 DUP3 SWAP1 POP SWAP3 SWAP2 POP POP JUMP JUMPDEST PUSH32 0x4E487B7100000000000000000000000000000000000000000000000000000000 PUSH0 MSTORE PUSH1 0x41 PUSH1 0x4 MSTORE PUSH1 0x24 PUSH0 REVERT JUMPDEST PUSH32 0x4E487B7100000000000000000000000000000000000000000000000000000000 PUSH0 MSTORE PUSH1 0x22 PUSH1 0x4 MSTORE PUSH1 0x24 PUSH0 REVERT JUMPDEST PUSH0 PUSH1 0x2 DUP3 DIV SWAP1 POP PUSH1 0x1 DUP3 AND DUP1 PUSH2 0x82E JUMPI PUSH1 0x7F DUP3 AND SWAP2 POP JUMPDEST PUSH1 0x20 DUP3 LT DUP2 SUB PUSH2 0x841 JUMPI PUSH2 0x840 PUSH2 0x7EA JUMP JUMPDEST JUMPDEST POP SWAP2 SWAP1 POP JUMP JUMPDEST PUSH0 DUP2 SWAP1 POP DUP2 PUSH0 MSTORE PUSH1 0x20 PUSH0 KECCAK256 SWAP1 POP SWAP2 SWAP1 POP JUMP JUMPDEST PUSH0 PUSH1 0x20 PUSH1 0x1F DUP4 ADD DIV SWAP1 POP SWAP2 SWAP1 POP JUMP JUMPDEST PUSH0 DUP3 DUP3 SHL SWAP1 POP SWAP3 SWAP2 POP POP JUMP JUMPDEST PUSH0 PUSH1 0x8 DUP4 MUL PUSH2 0x8A3 PUSH32 0xFFFFFFFFFFFFFFFFFFFFFFFFFFFFFFFFFFFFFFFFFFFFFFFFFFFFFFFFFFFFFFFF DUP3 PUSH2 0x868 JUMP JUMPDEST PUSH2 0x8AD DUP7 DUP4 PUSH2 0x868 JUMP JUMPDEST SWAP6 POP DUP1 NOT DUP5 AND SWAP4 POP DUP1 DUP7 AND DUP5 OR SWAP3 POP POP POP SWAP4 SWAP3 POP POP POP JUMP JUMPDEST PUSH0 DUP2 SWAP1 POP SWAP2 SWAP1 POP JUMP JUMPDEST PUSH0 PUSH2 0x8E8 PUSH2 0x8E3 PUSH2 0x8DE DUP5 PUSH2 0x502 JUMP JUMPDEST PUSH2 0x8C5 JUMP JUMPDEST PUSH2 0x502 JUMP JUMPDEST SWAP1 POP SWAP2 SWAP1 POP JUMP JUMPDEST PUSH0 DUP2 SWAP1 POP SWAP2 SWAP1 POP JUMP JUMPDEST PUSH2 0x901 DUP4 PUSH2 0x8CE JUMP JUMPDEST PUSH2 0x915 PUSH2 0x90D DUP3 PUSH2 0x8EF JUMP JUMPDEST DUP5 DUP5 SLOAD PUSH2 0x874 JUMP JUMPDEST DUP3 SSTORE POP POP POP POP JUMP JUMPDEST PUSH0 PUSH0 SWAP1 POP SWAP1 JUMP JUMPDEST PUSH2 0x92C PUSH2 0x91D JUMP JUMPDEST PUSH2 0x937 DUP2 DUP5 DUP5 PUSH2 0x8F8 JUMP JUMPDEST POP POP POP JUMP JUMPDEST JUMPDEST DUP2 DUP2 LT ISZERO PUSH2 0x95A JUMPI PUSH2 0x94F PUSH0 DUP3 PUSH2 0x924 JUMP JUMPDEST PUSH1 0x1 DUP2 ADD SWAP1 POP PUSH2 0x93D JUMP JUMPDEST POP POP JUMP JUMPDEST PUSH1 0x1F DUP3 GT ISZERO PUSH2 0x99F JUMPI PUSH2 0x970 DUP2 PUSH2 0x847 JUMP JUMPDEST PUSH2 0x979 DUP5 PUSH2 0x859 JUMP JUMPDEST DUP2 ADD PUSH1 0x20 DUP6 LT ISZERO PUSH2 0x988 JUMPI DUP2 SWAP1 POP JUMPDEST PUSH2 0x99C PUSH2 0x994 DUP6 PUSH2 0x859 JUMP JUMPDEST DUP4 ADD DUP3 PUSH2 0x93C JUMP JUMPDEST POP POP JUMPDEST POP POP POP JUMP JUMPDEST PUSH0 DUP3 DUP3 SHR SWAP1 POP SWAP3 SWAP2 POP POP JUMP JUMPDEST PUSH0 PUSH2 0x9BF PUSH0 NOT DUP5 PUSH1 0x8 MUL PUSH2 0x9A4 JUMP JUMPDEST NOT DUP1 DUP4 AND SWAP2 POP POP SWAP3 SWAP2 POP POP JUMP JUMPDEST PUSH0 PUSH2 0x9D7 DUP4 DUP4 PUSH2 0x9B0 JUMP JUMPDEST SWAP2 POP DUP3 PUSH1 0x2 MUL DUP3 OR SWAP1 POP SWAP3 SWAP2 POP POP JUMP JUMPDEST PUSH2 0x9F1 DUP4 DUP4 PUSH2 0x7B3 JUMP JUMPDEST PUSH8 0xFFFFFFFFFFFFFFFF DUP2 GT ISZERO PUSH2 0xA0A JUMPI PUSH2 0xA09 PUSH2 0x7BD JUMP JUMPDEST JUMPDEST PUSH2 0xA14 DUP3 SLOAD PUSH2 0x817 JUMP JUMPDEST PUSH2 0xA1F DUP3 DUP3 DUP6 PUSH2 0x95E JUMP JUMPDEST PUSH0 PUSH1 0x1F DUP4 GT PUSH1 0x1 DUP2 EQ PUSH2 0xA4C JUMPI PUSH0 DUP5 ISZERO PUSH2 0xA3A JUMPI DUP3 DUP8 ADD CALLDATALOAD SWAP1 POP JUMPDEST PUSH2 0xA44 DUP6 DUP3 PUSH2 0x9CC JUMP JUMPDEST DUP7 SSTORE POP PUSH2 0xAAB JUMP JUMPDEST PUSH1 0x1F NOT DUP5 AND PUSH2 0xA5A DUP7 PUSH2 0x847 JUMP JUMPDEST PUSH0 JUMPDEST DUP3 DUP2 LT ISZERO PUSH2 0xA81 JUMPI DUP5 DUP10 ADD CALLDATALOAD DUP3 SSTORE PUSH1 0x1 DUP3 ADD SWAP2 POP PUSH1 0x20 DUP6 ADD SWAP5 POP PUSH1 0x20 DUP2 ADD SWAP1 POP PUSH2 0xA5C JUMP JUMPDEST DUP7 DUP4 LT ISZERO PUSH2 0xA9E JUMPI DUP5 DUP10 ADD CALLDATALOAD PUSH2 0xA9A PUSH1 0x1F DUP10 AND DUP3 PUSH2 0x9B0 JUMP JUMPDEST DUP4 SSTORE POP JUMPDEST PUSH1 0x1 PUSH1 0x2 DUP9 MUL ADD DUP9 SSTORE POP POP POP JUMPDEST POP POP POP POP POP POP POP JUMP JUMPDEST PUSH32 0x496E76616C696420636F6D706C61696E7420696E646578000000000000000000 PUSH0 DUP3 ADD MSTORE POP JUMP JUMPDEST PUSH0 PUSH2 0xAE8 PUSH1 0x17 DUP4 PUSH2 0x646 JUMP JUMPDEST SWAP2 POP PUSH2 0xAF3 DUP3 PUSH2 0xAB4 JUMP JUMPDEST PUSH1 0x20 DUP3 ADD SWAP1 POP SWAP2 SWAP1 POP JUMP JUMPDEST PUSH0 PUSH1 0x20 DUP3 ADD SWAP1 POP DUP2 DUP2 SUB PUSH0 DUP4 ADD MSTORE PUSH2 0xB15 DUP2 PUSH2 0xADC JUMP JUMPDEST SWAP1 POP SWAP2 SWAP1 POP JUMP JUMPDEST PUSH32 0x4E487B7100000000000000000000000000000000000000000000000000000000 PUSH0 MSTORE PUSH1 0x32 PUSH1 0x4 MSTORE PUSH1 0x24 PUSH0 REVERT JUMPDEST PUSH32 0x416C726561647920766F74656400000000000000000000000000000000000000 PUSH0 DUP3 ADD MSTORE POP JUMP JUMPDEST PUSH0 PUSH2 0xB7D PUSH1 0xD DUP4 PUSH2 0x646 JUMP JUMPDEST SWAP2 POP PUSH2 0xB88 DUP3 PUSH2 0xB49 JUMP JUMPDEST PUSH1 0x20 DUP3 ADD SWAP1 POP SWAP2 SWAP1 POP JUMP JUMPDEST PUSH0 PUSH1 0x20 DUP3 ADD SWAP1 POP DUP2 DUP2 SUB PUSH0 DUP4 ADD MSTORE PUSH2 0xBAA DUP2 PUSH2 0xB71 JUMP JUMPDEST SWAP1 POP SWAP2 SWAP1 POP JUMP JUMPDEST PUSH32 0x4E487B7100000000000000000000000000000000000000000000000000000000 PUSH0 MSTORE PUSH1 0x11 PUSH1 0x4 MSTORE PUSH1 0x24 PUSH0 REVERT JUMPDEST PUSH0 PUSH2 0xBE8 DUP3 PUSH2 0x502 JUMP JUMPDEST SWAP2 POP PUSH32 0xFFFFFFFFFFFFFFFFFFFFFFFFFFFFFFFFFFFFFFFFFFFFFFFFFFFFFFFFFFFFFFFF DUP3 SUB PUSH2 0xC1A JUMPI PUSH2 0xC19 PUSH2 0xBB1 JUMP JUMPDEST JUMPDEST PUSH1 0x1 DUP3 ADD SWAP1 POP SWAP2 SWAP1 POP JUMP JUMPDEST PUSH32 0x496E76616C696420696E64657800000000000000000000000000000000000000 PUSH0 DUP3 ADD MSTORE POP JUMP JUMPDEST PUSH0 PUSH2 0xC59 PUSH1 0xD DUP4 PUSH2 0x646 JUMP JUMPDEST SWAP2 POP PUSH2 0xC64 DUP3 PUSH2 0xC25 JUMP JUMPDEST PUSH1 0x20 DUP3 ADD SWAP1 POP SWAP2 SWAP1 POP JUMP JUMPDEST PUSH0 PUSH1 0x20 DUP3 ADD SWAP1 POP DUP2 DUP2 SUB PUSH0 DUP4 ADD MSTORE PUSH2 0xC86 DUP2 PUSH2 0xC4D JUMP JUMPDEST SWAP1 POP SWAP2 SWAP1 POP JUMP INVALID LOG2 PUSH5 0x6970667358 0x22 SLT KECCAK256 PUSH27 0x75161872FC2F096669DD8B82EDD21CA76E7D28EAE10CE9BB116447 SWAP3 0x2B LOG2 TLOAD PUSH5 0x736F6C6343 STOP ADDMOD 0x1E STOP CALLER "
				},
				"gasEstimates": {
					"creation": {
						"codeDepositCost": "653400",
						"executionCost": "24951",
						"totalCost": "678351"
					},
					"external": {
						"complaints(uint256)": "infinite",
						"getComplaint(uint256)": "infinite",
						"getTotalComplaints()": "2418",
						"owner()": "2551",
						"submitComplaint(string)": "infinite",
						"vote(uint256,bool)": "infinite"
					}
				},
				"methodIdentifiers": {
					"complaints(uint256)": "7e69e912",
					"getComplaint(uint256)": "dee8ae43",
					"getTotalComplaints()": "59f97801",
					"owner()": "8da5cb5b",
					"submitComplaint(string)": "60d06892",
					"vote(uint256,bool)": "c9d27afe"
				}
			},
			"storageLayout": {
				"storage": [
					{
						"astId": 3,
						"contract": "ComplaintDAO.sol:ComplaintDAO",
						"label": "owner",
						"offset": 0,
						"slot": "0",
						"type": "t_address"
					},
					{
						"astId": 18,
						"contract": "ComplaintDAO.sol:ComplaintDAO",
						"label": "complaints",
						"offset": 0,
						"slot": "1",
						"type": "t_array(t_struct(Complaint)14_storage)dyn_storage"
					}
				],
				"types": {
					"t_address": {
						"encoding": "inplace",
						"label": "address",
						"numberOfBytes": "20"
					},
					"t_array(t_struct(Complaint)14_storage)dyn_storage": {
						"base": "t_struct(Complaint)14_storage",
						"encoding": "dynamic_array",
						"label": "struct ComplaintDAO.Complaint[]",
						"numberOfBytes": "32"
					},
					"t_bool": {
						"encoding": "inplace",
						"label": "bool",
						"numberOfBytes": "1"
					},
					"t_mapping(t_address,t_bool)": {
						"encoding": "mapping",
						"key": "t_address",
						"label": "mapping(address => bool)",
						"numberOfBytes": "32",
						"value": "t_bool"
					},
					"t_string_storage": {
						"encoding": "bytes",
						"label": "string",
						"numberOfBytes": "32"
					},
					"t_struct(Complaint)14_storage": {
						"encoding": "inplace",
						"label": "struct ComplaintDAO.Complaint",
						"members": [
							{
								"astId": 5,
								"contract": "ComplaintDAO.sol:ComplaintDAO",
								"label": "cid",
								"offset": 0,
								"slot": "0",
								"type": "t_string_storage"
							},
							{
								"astId": 7,
								"contract": "ComplaintDAO.sol:ComplaintDAO",
								"label": "upVotes",
								"offset": 0,
								"slot": "1",
								"type": "t_uint256"
							},
							{
								"astId": 9,
								"contract": "ComplaintDAO.sol:ComplaintDAO",
								"label": "downVotes",
								"offset": 0,
								"slot": "2",
								"type": "t_uint256"
							},
							{
								"astId": 13,
								"contract": "ComplaintDAO.sol:ComplaintDAO",
								"label": "voted",
								"offset": 0,
								"slot": "3",
								"type": "t_mapping(t_address,t_bool)"
							}
						],
						"numberOfBytes": "128"
					},
					"t_uint256": {
						"encoding": "inplace",
						"label": "uint256",
						"numberOfBytes": "32"
					}
				}
			},
			"userdoc": {
				"kind": "user",
				"methods": {},
				"version": 1
			}
		}
	}
}