{
	"AlienPresale.sol": {
		"AlienPresale": {
			"abi": [
				{
					"inputs": [
						{
							"internalType": "address",
							"name": "_alienToken",
							"type": "address"
						},
						{
							"internalType": "uint256",
							"name": "_rate",
							"type": "uint256"
						},
						{
							"internalType": "uint256",
							"name": "_minPurchase",
							"type": "uint256"
						},
						{
							"internalType": "uint256",
							"name": "_maxPurchase",
							"type": "uint256"
						},
						{
							"internalType": "uint256",
							"name": "_presaleCap",
							"type": "uint256"
						}
					],
					"stateMutability": "nonpayable",
					"type": "constructor"
				},
				{
					"anonymous": false,
					"inputs": [
						{
							"indexed": false,
							"internalType": "bool",
							"name": "status",
							"type": "bool"
						}
					],
					"name": "Paused",
					"type": "event"
				},
				{
					"anonymous": false,
					"inputs": [
						{
							"indexed": false,
							"internalType": "uint256",
							"name": "newRate",
							"type": "uint256"
						}
					],
					"name": "RateChanged",
					"type": "event"
				},
				{
					"anonymous": false,
					"inputs": [
						{
							"indexed": true,
							"internalType": "address",
							"name": "buyer",
							"type": "address"
						},
						{
							"indexed": false,
							"internalType": "uint256",
							"name": "maticAmount",
							"type": "uint256"
						},
						{
							"indexed": false,
							"internalType": "uint256",
							"name": "alienAmount",
							"type": "uint256"
						}
					],
					"name": "TokensPurchased",
					"type": "event"
				},
				{
					"inputs": [],
					"name": "alienToken",
					"outputs": [
						{
							"internalType": "contract IERC20",
							"name": "",
							"type": "address"
						}
					],
					"stateMutability": "view",
					"type": "function"
				},
				{
					"inputs": [],
					"name": "buyTokens",
					"outputs": [],
					"stateMutability": "payable",
					"type": "function"
				},
				{
					"inputs": [
						{
							"internalType": "uint256",
							"name": "newRate",
							"type": "uint256"
						}
					],
					"name": "changeRate",
					"outputs": [],
					"stateMutability": "nonpayable",
					"type": "function"
				},
				{
					"inputs": [],
					"name": "isPaused",
					"outputs": [
						{
							"internalType": "bool",
							"name": "",
							"type": "bool"
						}
					],
					"stateMutability": "view",
					"type": "function"
				},
				{
					"inputs": [],
					"name": "maxPurchase",
					"outputs": [
						{
							"internalType": "uint256",
							"name": "",
							"type": "uint256"
						}
					],
					"stateMutability": "view",
					"type": "function"
				},
				{
					"inputs": [],
					"name": "minPurchase",
					"outputs": [
						{
							"internalType": "uint256",
							"name": "",
							"type": "uint256"
						}
					],
					"stateMutability": "view",
					"type": "function"
				},
				{
					"inputs": [],
					"name": "owner",
					"outputs": [
						{
							"internalType": "address",
							"name": "",
							"type": "address"
						}
					],
					"stateMutability": "view",
					"type": "function"
				},
				{
					"inputs": [],
					"name": "pausePresale",
					"outputs": [],
					"stateMutability": "nonpayable",
					"type": "function"
				},
				{
					"inputs": [],
					"name": "presaleCap",
					"outputs": [
						{
							"internalType": "uint256",
							"name": "",
							"type": "uint256"
						}
					],
					"stateMutability": "view",
					"type": "function"
				},
				{
					"inputs": [],
					"name": "rate",
					"outputs": [
						{
							"internalType": "uint256",
							"name": "",
							"type": "uint256"
						}
					],
					"stateMutability": "view",
					"type": "function"
				},
				{
					"inputs": [],
					"name": "soldTokens",
					"outputs": [
						{
							"internalType": "uint256",
							"name": "",
							"type": "uint256"
						}
					],
					"stateMutability": "view",
					"type": "function"
				},
				{
					"inputs": [],
					"name": "unpausePresale",
					"outputs": [],
					"stateMutability": "nonpayable",
					"type": "function"
				},
				{
					"inputs": [
						{
							"internalType": "uint256",
							"name": "amount",
							"type": "uint256"
						}
					],
					"name": "withdrawTokens",
					"outputs": [],
					"stateMutability": "nonpayable",
					"type": "function"
				},
				{
					"stateMutability": "payable",
					"type": "receive"
				}
			],
			"devdoc": {
				"kind": "dev",
				"methods": {},
				"version": 1
			},
			"evm": {
				"assembly": "    /* \"AlienPresale.sol\":228:2612  contract AlienPresale {... */\n  mstore(0x40, 0x80)\n    /* \"AlienPresale.sol\":1071:1389  constructor(address _alienToken, uint256 _rate, uint256 _minPurchase, uint256 _maxPurchase, uint256 _presaleCap) {... */\n  callvalue\n  dup1\n  iszero\n  tag_1\n  jumpi\n  0x00\n  dup1\n  revert\ntag_1:\n  pop\n  mload(0x40)\n  sub(codesize, bytecodeSize)\n  dup1\n  bytecodeSize\n  dup4\n  codecopy\n  dup2\n  dup2\n  add\n  0x40\n  mstore\n  dup2\n  add\n  swap1\n  tag_2\n  swap2\n  swap1\n  tag_3\n  jump\t// in\ntag_2:\n    /* \"AlienPresale.sol\":1202:1212  msg.sender */\n  caller\n    /* \"AlienPresale.sol\":1194:1199  owner */\n  0x00\n  dup1\n    /* \"AlienPresale.sol\":1194:1212  owner = msg.sender */\n  0x0100\n  exp\n  dup2\n  sload\n  dup2\n  0xffffffffffffffffffffffffffffffffffffffff\n  mul\n  not\n  and\n  swap1\n  dup4\n  0xffffffffffffffffffffffffffffffffffffffff\n  and\n  mul\n  or\n  swap1\n  sstore\n  pop\n    /* \"AlienPresale.sol\":1242:1253  _alienToken */\n  dup5\n    /* \"AlienPresale.sol\":1222:1232  alienToken */\n  0x01\n  0x00\n    /* \"AlienPresale.sol\":1222:1254  alienToken = IERC20(_alienToken) */\n  0x0100\n  exp\n  dup2\n  sload\n  dup2\n  0xffffffffffffffffffffffffffffffffffffffff\n  mul\n  not\n  and\n  swap1\n  dup4\n  0xffffffffffffffffffffffffffffffffffffffff\n  and\n  mul\n  or\n  swap1\n  sstore\n  pop\n    /* \"AlienPresale.sol\":1271:1276  _rate */\n  dup4\n    /* \"AlienPresale.sol\":1264:1268  rate */\n  0x02\n    /* \"AlienPresale.sol\":1264:1276  rate = _rate */\n  dup2\n  swap1\n  sstore\n  pop\n    /* \"AlienPresale.sol\":1300:1312  _minPurchase */\n  dup3\n    /* \"AlienPresale.sol\":1286:1297  minPurchase */\n  0x03\n    /* \"AlienPresale.sol\":1286:1312  minPurchase = _minPurchase */\n  dup2\n  swap1\n  sstore\n  pop\n    /* \"AlienPresale.sol\":1336:1348  _maxPurchase */\n  dup2\n    /* \"AlienPresale.sol\":1322:1333  maxPurchase */\n  0x04\n    /* \"AlienPresale.sol\":1322:1348  maxPurchase = _maxPurchase */\n  dup2\n  swap1\n  sstore\n  pop\n    /* \"AlienPresale.sol\":1371:1382  _presaleCap */\n  dup1\n    /* \"AlienPresale.sol\":1358:1368  presaleCap */\n  0x05\n    /* \"AlienPresale.sol\":1358:1382  presaleCap = _presaleCap */\n  dup2\n  swap1\n  sstore\n  pop\n    /* \"AlienPresale.sol\":1071:1389  constructor(address _alienToken, uint256 _rate, uint256 _minPurchase, uint256 _maxPurchase, uint256 _presaleCap) {... */\n  pop\n  pop\n  pop\n  pop\n  pop\n    /* \"AlienPresale.sol\":228:2612  contract AlienPresale {... */\n  jump(tag_6)\n    /* \"#utility.yul\":88:205   */\ntag_8:\n    /* \"#utility.yul\":197:198   */\n  0x00\n    /* \"#utility.yul\":194:195   */\n  dup1\n    /* \"#utility.yul\":187:199   */\n  revert\n    /* \"#utility.yul\":334:460   */\ntag_10:\n    /* \"#utility.yul\":371:378   */\n  0x00\n    /* \"#utility.yul\":411:453   */\n  0xffffffffffffffffffffffffffffffffffffffff\n    /* \"#utility.yul\":404:409   */\n  dup3\n    /* \"#utility.yul\":400:454   */\n  and\n    /* \"#utility.yul\":389:454   */\n  swap1\n  pop\n    /* \"#utility.yul\":334:460   */\n  swap2\n  swap1\n  pop\n  jump\t// out\n    /* \"#utility.yul\":466:562   */\ntag_11:\n    /* \"#utility.yul\":503:510   */\n  0x00\n    /* \"#utility.yul\":532:556   */\n  tag_23\n    /* \"#utility.yul\":550:555   */\n  dup3\n    /* \"#utility.yul\":532:556   */\n  tag_10\n  jump\t// in\ntag_23:\n    /* \"#utility.yul\":521:556   */\n  swap1\n  pop\n    /* \"#utility.yul\":466:562   */\n  swap2\n  swap1\n  pop\n  jump\t// out\n    /* \"#utility.yul\":568:690   */\ntag_12:\n    /* \"#utility.yul\":641:665   */\n  tag_25\n    /* \"#utility.yul\":659:664   */\n  dup2\n    /* \"#utility.yul\":641:665   */\n  tag_11\n  jump\t// in\ntag_25:\n    /* \"#utility.yul\":634:639   */\n  dup2\n    /* \"#utility.yul\":631:666   */\n  eq\n    /* \"#utility.yul\":621:684   */\n  tag_26\n  jumpi\n    /* \"#utility.yul\":680:681   */\n  0x00\n    /* \"#utility.yul\":677:678   */\n  dup1\n    /* \"#utility.yul\":670:682   */\n  revert\n    /* \"#utility.yul\":621:684   */\ntag_26:\n    /* \"#utility.yul\":568:690   */\n  pop\n  jump\t// out\n    /* \"#utility.yul\":696:839   */\ntag_13:\n    /* \"#utility.yul\":753:758   */\n  0x00\n    /* \"#utility.yul\":784:790   */\n  dup2\n    /* \"#utility.yul\":778:791   */\n  mload\n    /* \"#utility.yul\":769:791   */\n  swap1\n  pop\n    /* \"#utility.yul\":800:833   */\n  tag_28\n    /* \"#utility.yul\":827:832   */\n  dup2\n    /* \"#utility.yul\":800:833   */\n  tag_12\n  jump\t// in\ntag_28:\n    /* \"#utility.yul\":696:839   */\n  swap3\n  swap2\n  pop\n  pop\n  jump\t// out\n    /* \"#utility.yul\":845:922   */\ntag_14:\n    /* \"#utility.yul\":882:889   */\n  0x00\n    /* \"#utility.yul\":911:916   */\n  dup2\n    /* \"#utility.yul\":900:916   */\n  swap1\n  pop\n    /* \"#utility.yul\":845:922   */\n  swap2\n  swap1\n  pop\n  jump\t// out\n    /* \"#utility.yul\":928:1050   */\ntag_15:\n    /* \"#utility.yul\":1001:1025   */\n  tag_31\n    /* \"#utility.yul\":1019:1024   */\n  dup2\n    /* \"#utility.yul\":1001:1025   */\n  tag_14\n  jump\t// in\ntag_31:\n    /* \"#utility.yul\":994:999   */\n  dup2\n    /* \"#utility.yul\":991:1026   */\n  eq\n    /* \"#utility.yul\":981:1044   */\n  tag_32\n  jumpi\n    /* \"#utility.yul\":1040:1041   */\n  0x00\n    /* \"#utility.yul\":1037:1038   */\n  dup1\n    /* \"#utility.yul\":1030:1042   */\n  revert\n    /* \"#utility.yul\":981:1044   */\ntag_32:\n    /* \"#utility.yul\":928:1050   */\n  pop\n  jump\t// out\n    /* \"#utility.yul\":1056:1199   */\ntag_16:\n    /* \"#utility.yul\":1113:1118   */\n  0x00\n    /* \"#utility.yul\":1144:1150   */\n  dup2\n    /* \"#utility.yul\":1138:1151   */\n  mload\n    /* \"#utility.yul\":1129:1151   */\n  swap1\n  pop\n    /* \"#utility.yul\":1160:1193   */\n  tag_34\n    /* \"#utility.yul\":1187:1192   */\n  dup2\n    /* \"#utility.yul\":1160:1193   */\n  tag_15\n  jump\t// in\ntag_34:\n    /* \"#utility.yul\":1056:1199   */\n  swap3\n  swap2\n  pop\n  pop\n  jump\t// out\n    /* \"#utility.yul\":1205:2182   */\ntag_3:\n    /* \"#utility.yul\":1311:1317   */\n  0x00\n    /* \"#utility.yul\":1319:1325   */\n  dup1\n    /* \"#utility.yul\":1327:1333   */\n  0x00\n    /* \"#utility.yul\":1335:1341   */\n  dup1\n    /* \"#utility.yul\":1343:1349   */\n  0x00\n    /* \"#utility.yul\":1392:1395   */\n  0xa0\n    /* \"#utility.yul\":1380:1389   */\n  dup7\n    /* \"#utility.yul\":1371:1378   */\n  dup9\n    /* \"#utility.yul\":1367:1390   */\n  sub\n    /* \"#utility.yul\":1363:1396   */\n  slt\n    /* \"#utility.yul\":1360:1480   */\n  iszero\n  tag_36\n  jumpi\n    /* \"#utility.yul\":1399:1478   */\n  tag_37\n  tag_8\n  jump\t// in\ntag_37:\n    /* \"#utility.yul\":1360:1480   */\ntag_36:\n    /* \"#utility.yul\":1519:1520   */\n  0x00\n    /* \"#utility.yul\":1544:1608   */\n  tag_38\n    /* \"#utility.yul\":1600:1607   */\n  dup9\n    /* \"#utility.yul\":1591:1597   */\n  dup3\n    /* \"#utility.yul\":1580:1589   */\n  dup10\n    /* \"#utility.yul\":1576:1598   */\n  add\n    /* \"#utility.yul\":1544:1608   */\n  tag_13\n  jump\t// in\ntag_38:\n    /* \"#utility.yul\":1534:1608   */\n  swap6\n  pop\n    /* \"#utility.yul\":1490:1618   */\n  pop\n    /* \"#utility.yul\":1657:1659   */\n  0x20\n    /* \"#utility.yul\":1683:1747   */\n  tag_39\n    /* \"#utility.yul\":1739:1746   */\n  dup9\n    /* \"#utility.yul\":1730:1736   */\n  dup3\n    /* \"#utility.yul\":1719:1728   */\n  dup10\n    /* \"#utility.yul\":1715:1737   */\n  add\n    /* \"#utility.yul\":1683:1747   */\n  tag_16\n  jump\t// in\ntag_39:\n    /* \"#utility.yul\":1673:1747   */\n  swap5\n  pop\n    /* \"#utility.yul\":1628:1757   */\n  pop\n    /* \"#utility.yul\":1796:1798   */\n  0x40\n    /* \"#utility.yul\":1822:1886   */\n  tag_40\n    /* \"#utility.yul\":1878:1885   */\n  dup9\n    /* \"#utility.yul\":1869:1875   */\n  dup3\n    /* \"#utility.yul\":1858:1867   */\n  dup10\n    /* \"#utility.yul\":1854:1876   */\n  add\n    /* \"#utility.yul\":1822:1886   */\n  tag_16\n  jump\t// in\ntag_40:\n    /* \"#utility.yul\":1812:1886   */\n  swap4\n  pop\n    /* \"#utility.yul\":1767:1896   */\n  pop\n    /* \"#utility.yul\":1935:1937   */\n  0x60\n    /* \"#utility.yul\":1961:2025   */\n  tag_41\n    /* \"#utility.yul\":2017:2024   */\n  dup9\n    /* \"#utility.yul\":2008:2014   */\n  dup3\n    /* \"#utility.yul\":1997:2006   */\n  dup10\n    /* \"#utility.yul\":1993:2015   */\n  add\n    /* \"#utility.yul\":1961:2025   */\n  tag_16\n  jump\t// in\ntag_41:\n    /* \"#utility.yul\":1951:2025   */\n  swap3\n  pop\n    /* \"#utility.yul\":1906:2035   */\n  pop\n    /* \"#utility.yul\":2074:2077   */\n  0x80\n    /* \"#utility.yul\":2101:2165   */\n  tag_42\n    /* \"#utility.yul\":2157:2164   */\n  dup9\n    /* \"#utility.yul\":2148:2154   */\n  dup3\n    /* \"#utility.yul\":2137:2146   */\n  dup10\n    /* \"#utility.yul\":2133:2155   */\n  add\n    /* \"#utility.yul\":2101:2165   */\n  tag_16\n  jump\t// in\ntag_42:\n    /* \"#utility.yul\":2091:2165   */\n  swap2\n  pop\n    /* \"#utility.yul\":2045:2175   */\n  pop\n    /* \"#utility.yul\":1205:2182   */\n  swap3\n  swap6\n  pop\n  swap3\n  swap6\n  swap1\n  swap4\n  pop\n  jump\t// out\n    /* \"AlienPresale.sol\":228:2612  contract AlienPresale {... */\ntag_6:\n  dataSize(sub_0)\n  dup1\n  dataOffset(sub_0)\n  0x00\n  codecopy\n  0x00\n  return\nstop\n\nsub_0: assembly {\n        /* \"AlienPresale.sol\":228:2612  contract AlienPresale {... */\n      mstore(0x40, 0x80)\n      jumpi(tag_1, lt(calldatasize, 0x04))\n      shr(0xe0, calldataload(0x00))\n      dup1\n      0x63d5502f\n      gt\n      tag_16\n      jumpi\n      dup1\n      0x977b055b\n      gt\n      tag_17\n      jumpi\n      dup1\n      0x977b055b\n      eq\n      tag_12\n      jumpi\n      dup1\n      0xb187bd26\n      eq\n      tag_13\n      jumpi\n      dup1\n      0xd0febe4c\n      eq\n      tag_14\n      jumpi\n      dup1\n      0xeee5592f\n      eq\n      tag_15\n      jumpi\n      jump(tag_2)\n    tag_17:\n      dup1\n      0x63d5502f\n      eq\n      tag_9\n      jumpi\n      dup1\n      0x74e7493b\n      eq\n      tag_10\n      jumpi\n      dup1\n      0x8da5cb5b\n      eq\n      tag_11\n      jumpi\n      jump(tag_2)\n    tag_16:\n      dup1\n      0x070f5c09\n      eq\n      tag_3\n      jumpi\n      dup1\n      0x1958e58a\n      eq\n      tag_4\n      jumpi\n      dup1\n      0x2c4e722e\n      eq\n      tag_5\n      jumpi\n      dup1\n      0x315a095d\n      eq\n      tag_6\n      jumpi\n      dup1\n      0x33b5b62e\n      eq\n      tag_7\n      jumpi\n      dup1\n      0x5ed9ebfc\n      eq\n      tag_8\n      jumpi\n      jump(tag_2)\n    tag_1:\n      jumpi(tag_2, calldatasize)\n        /* \"AlienPresale.sol\":1432:1443  buyTokens() */\n      tag_20\n        /* \"AlienPresale.sol\":1432:1441  buyTokens */\n      tag_21\n        /* \"AlienPresale.sol\":1432:1443  buyTokens() */\n      jump\t// in\n    tag_20:\n        /* \"AlienPresale.sol\":228:2612  contract AlienPresale {... */\n      stop\n    tag_2:\n      0x00\n      dup1\n      revert\n        /* \"AlienPresale.sol\":2152:2254  function pausePresale() external onlyOwner {... */\n    tag_3:\n      callvalue\n      dup1\n      iszero\n      tag_22\n      jumpi\n      0x00\n      dup1\n      revert\n    tag_22:\n      pop\n      tag_23\n      tag_24\n      jump\t// in\n    tag_23:\n      stop\n        /* \"AlienPresale.sol\":282:306  IERC20 public alienToken */\n    tag_4:\n      callvalue\n      dup1\n      iszero\n      tag_25\n      jumpi\n      0x00\n      dup1\n      revert\n    tag_25:\n      pop\n      tag_26\n      tag_27\n      jump\t// in\n    tag_26:\n      mload(0x40)\n      tag_28\n      swap2\n      swap1\n      tag_29\n      jump\t// in\n    tag_28:\n      mload(0x40)\n      dup1\n      swap2\n      sub\n      swap1\n      return\n        /* \"AlienPresale.sol\":312:331  uint256 public rate */\n    tag_5:\n      callvalue\n      dup1\n      iszero\n      tag_30\n      jumpi\n      0x00\n      dup1\n      revert\n    tag_30:\n      pop\n      tag_31\n      tag_32\n      jump\t// in\n    tag_31:\n      mload(0x40)\n      tag_33\n      swap2\n      swap1\n      tag_34\n      jump\t// in\n    tag_33:\n      mload(0x40)\n      dup1\n      swap2\n      sub\n      swap1\n      return\n        /* \"AlienPresale.sol\":2500:2610  function withdrawTokens(uint256 amount) external onlyOwner {... */\n    tag_6:\n      callvalue\n      dup1\n      iszero\n      tag_35\n      jumpi\n      0x00\n      dup1\n      revert\n    tag_35:\n      pop\n      tag_36\n      0x04\n      dup1\n      calldatasize\n      sub\n      dup2\n      add\n      swap1\n      tag_37\n      swap2\n      swap1\n      tag_38\n      jump\t// in\n    tag_37:\n      tag_39\n      jump\t// in\n    tag_36:\n      stop\n        /* \"AlienPresale.sol\":371:397  uint256 public minPurchase */\n    tag_7:\n      callvalue\n      dup1\n      iszero\n      tag_40\n      jumpi\n      0x00\n      dup1\n      revert\n    tag_40:\n      pop\n      tag_41\n      tag_42\n      jump\t// in\n    tag_41:\n      mload(0x40)\n      tag_43\n      swap2\n      swap1\n      tag_34\n      jump\t// in\n    tag_43:\n      mload(0x40)\n      dup1\n      swap2\n      sub\n      swap1\n      return\n        /* \"AlienPresale.sol\":612:637  uint256 public soldTokens */\n    tag_8:\n      callvalue\n      dup1\n      iszero\n      tag_44\n      jumpi\n      0x00\n      dup1\n      revert\n    tag_44:\n      pop\n      tag_45\n      tag_46\n      jump\t// in\n    tag_45:\n      mload(0x40)\n      tag_47\n      swap2\n      swap1\n      tag_34\n      jump\t// in\n    tag_47:\n      mload(0x40)\n      dup1\n      swap2\n      sub\n      swap1\n      return\n        /* \"AlienPresale.sol\":533:558  uint256 public presaleCap */\n    tag_9:\n      callvalue\n      dup1\n      iszero\n      tag_48\n      jumpi\n      0x00\n      dup1\n      revert\n    tag_48:\n      pop\n      tag_49\n      tag_50\n      jump\t// in\n    tag_49:\n      mload(0x40)\n      tag_51\n      swap2\n      swap1\n      tag_34\n      jump\t// in\n    tag_51:\n      mload(0x40)\n      dup1\n      swap2\n      sub\n      swap1\n      return\n        /* \"AlienPresale.sol\":2372:2494  function changeRate(uint256 newRate) external onlyOwner {... */\n    tag_10:\n      callvalue\n      dup1\n      iszero\n      tag_52\n      jumpi\n      0x00\n      dup1\n      revert\n    tag_52:\n      pop\n      tag_53\n      0x04\n      dup1\n      calldatasize\n      sub\n      dup2\n      add\n      swap1\n      tag_54\n      swap2\n      swap1\n      tag_38\n      jump\t// in\n    tag_54:\n      tag_55\n      jump\t// in\n    tag_53:\n      stop\n        /* \"AlienPresale.sol\":256:276  address public owner */\n    tag_11:\n      callvalue\n      dup1\n      iszero\n      tag_56\n      jumpi\n      0x00\n      dup1\n      revert\n    tag_56:\n      pop\n      tag_57\n      tag_58\n      jump\t// in\n    tag_57:\n      mload(0x40)\n      tag_59\n      swap2\n      swap1\n      tag_60\n      jump\t// in\n    tag_59:\n      mload(0x40)\n      dup1\n      swap2\n      sub\n      swap1\n      return\n        /* \"AlienPresale.sol\":451:477  uint256 public maxPurchase */\n    tag_12:\n      callvalue\n      dup1\n      iszero\n      tag_61\n      jumpi\n      0x00\n      dup1\n      revert\n    tag_61:\n      pop\n      tag_62\n      tag_63\n      jump\t// in\n    tag_62:\n      mload(0x40)\n      tag_64\n      swap2\n      swap1\n      tag_34\n      jump\t// in\n    tag_64:\n      mload(0x40)\n      dup1\n      swap2\n      sub\n      swap1\n      return\n        /* \"AlienPresale.sol\":689:709  bool public isPaused */\n    tag_13:\n      callvalue\n      dup1\n      iszero\n      tag_65\n      jumpi\n      0x00\n      dup1\n      revert\n    tag_65:\n      pop\n      tag_66\n      tag_67\n      jump\t// in\n    tag_66:\n      mload(0x40)\n      tag_68\n      swap2\n      swap1\n      tag_69\n      jump\t// in\n    tag_68:\n      mload(0x40)\n      dup1\n      swap2\n      sub\n      swap1\n      return\n        /* \"AlienPresale.sol\":1456:2146  function buyTokens() public payable whenNotPaused {... */\n    tag_14:\n      tag_70\n      tag_21\n      jump\t// in\n    tag_70:\n      stop\n        /* \"AlienPresale.sol\":2260:2366  function unpausePresale() external onlyOwner {... */\n    tag_15:\n      callvalue\n      dup1\n      iszero\n      tag_71\n      jumpi\n      0x00\n      dup1\n      revert\n    tag_71:\n      pop\n      tag_72\n      tag_73\n      jump\t// in\n    tag_72:\n      stop\n        /* \"AlienPresale.sol\":1456:2146  function buyTokens() public payable whenNotPaused {... */\n    tag_21:\n        /* \"AlienPresale.sol\":1020:1028  isPaused */\n      0x07\n      0x00\n      swap1\n      sload\n      swap1\n      0x0100\n      exp\n      swap1\n      div\n      0xff\n      and\n        /* \"AlienPresale.sol\":1019:1028  !isPaused */\n      iszero\n        /* \"AlienPresale.sol\":1011:1047  require(!isPaused, \"Presale paused\") */\n      tag_75\n      jumpi\n      mload(0x40)\n      0x08c379a000000000000000000000000000000000000000000000000000000000\n      dup2\n      mstore\n      0x04\n      add\n      tag_76\n      swap1\n      tag_77\n      jump\t// in\n    tag_76:\n      mload(0x40)\n      dup1\n      swap2\n      sub\n      swap1\n      revert\n    tag_75:\n        /* \"AlienPresale.sol\":1537:1548  minPurchase */\n      sload(0x03)\n        /* \"AlienPresale.sol\":1524:1533  msg.value */\n      callvalue\n        /* \"AlienPresale.sol\":1524:1548  msg.value >= minPurchase */\n      lt\n      iszero\n        /* \"AlienPresale.sol\":1516:1575  require(msg.value >= minPurchase, \"Below minimum purchase\") */\n      tag_79\n      jumpi\n      mload(0x40)\n      0x08c379a000000000000000000000000000000000000000000000000000000000\n      dup2\n      mstore\n      0x04\n      add\n      tag_80\n      swap1\n      tag_81\n      jump\t// in\n    tag_80:\n      mload(0x40)\n      dup1\n      swap2\n      sub\n      swap1\n      revert\n    tag_79:\n        /* \"AlienPresale.sol\":1606:1617  maxPurchase */\n      sload(0x04)\n        /* \"AlienPresale.sol\":1593:1602  msg.value */\n      callvalue\n        /* \"AlienPresale.sol\":1593:1617  msg.value <= maxPurchase */\n      gt\n      iszero\n        /* \"AlienPresale.sol\":1585:1644  require(msg.value <= maxPurchase, \"Above maximum purchase\") */\n      tag_82\n      jumpi\n      mload(0x40)\n      0x08c379a000000000000000000000000000000000000000000000000000000000\n      dup2\n      mstore\n      0x04\n      add\n      tag_83\n      swap1\n      tag_84\n      jump\t// in\n    tag_83:\n      mload(0x40)\n      dup1\n      swap2\n      sub\n      swap1\n      revert\n    tag_82:\n        /* \"AlienPresale.sol\":1655:1674  uint256 tokenAmount */\n      0x00\n        /* \"AlienPresale.sol\":1689:1693  rate */\n      sload(0x02)\n        /* \"AlienPresale.sol\":1677:1686  msg.value */\n      callvalue\n        /* \"AlienPresale.sol\":1677:1693  msg.value * rate */\n      tag_85\n      swap2\n      swap1\n      tag_86\n      jump\t// in\n    tag_85:\n        /* \"AlienPresale.sol\":1655:1693  uint256 tokenAmount = msg.value * rate */\n      swap1\n      pop\n        /* \"AlienPresale.sol\":1739:1749  presaleCap */\n      sload(0x05)\n        /* \"AlienPresale.sol\":1724:1735  tokenAmount */\n      dup2\n        /* \"AlienPresale.sol\":1711:1721  soldTokens */\n      sload(0x06)\n        /* \"AlienPresale.sol\":1711:1735  soldTokens + tokenAmount */\n      tag_87\n      swap2\n      swap1\n      tag_88\n      jump\t// in\n    tag_87:\n        /* \"AlienPresale.sol\":1711:1749  soldTokens + tokenAmount <= presaleCap */\n      gt\n      iszero\n        /* \"AlienPresale.sol\":1703:1773  require(soldTokens + tokenAmount <= presaleCap, \"Presale cap reached\") */\n      tag_89\n      jumpi\n      mload(0x40)\n      0x08c379a000000000000000000000000000000000000000000000000000000000\n      dup2\n      mstore\n      0x04\n      add\n      tag_90\n      swap1\n      tag_91\n      jump\t// in\n    tag_90:\n      mload(0x40)\n      dup1\n      swap2\n      sub\n      swap1\n      revert\n    tag_89:\n        /* \"AlienPresale.sol\":1830:1841  tokenAmount */\n      dup1\n        /* \"AlienPresale.sol\":1791:1801  alienToken */\n      0x01\n      0x00\n      swap1\n      sload\n      swap1\n      0x0100\n      exp\n      swap1\n      div\n      0xffffffffffffffffffffffffffffffffffffffff\n      and\n        /* \"AlienPresale.sol\":1791:1811  alienToken.balanceOf */\n      0xffffffffffffffffffffffffffffffffffffffff\n      and\n      0x70a08231\n        /* \"AlienPresale.sol\":1820:1824  this */\n      address\n        /* \"AlienPresale.sol\":1791:1826  alienToken.balanceOf(address(this)) */\n      mload(0x40)\n      dup3\n      0xffffffff\n      and\n      0xe0\n      shl\n      dup2\n      mstore\n      0x04\n      add\n      tag_92\n      swap2\n      swap1\n      tag_60\n      jump\t// in\n    tag_92:\n      0x20\n      mload(0x40)\n      dup1\n      dup4\n      sub\n      dup2\n      dup7\n      gas\n      staticcall\n      iszero\n      dup1\n      iszero\n      tag_94\n      jumpi\n      returndatasize\n      0x00\n      dup1\n      returndatacopy\n      revert(0x00, returndatasize)\n    tag_94:\n      pop\n      pop\n      pop\n      pop\n      mload(0x40)\n      returndatasize\n      not(0x1f)\n      0x1f\n      dup3\n      add\n      and\n      dup3\n      add\n      dup1\n      0x40\n      mstore\n      pop\n      dup2\n      add\n      swap1\n      tag_95\n      swap2\n      swap1\n      tag_96\n      jump\t// in\n    tag_95:\n        /* \"AlienPresale.sol\":1791:1841  alienToken.balanceOf(address(this)) >= tokenAmount */\n      lt\n      iszero\n        /* \"AlienPresale.sol\":1783:1875  require(alienToken.balanceOf(address(this)) >= tokenAmount, \"Not enough tokens in contract\") */\n      tag_97\n      jumpi\n      mload(0x40)\n      0x08c379a000000000000000000000000000000000000000000000000000000000\n      dup2\n      mstore\n      0x04\n      add\n      tag_98\n      swap1\n      tag_99\n      jump\t// in\n    tag_98:\n      mload(0x40)\n      dup1\n      swap2\n      sub\n      swap1\n      revert\n    tag_97:\n        /* \"AlienPresale.sol\":1900:1911  tokenAmount */\n      dup1\n        /* \"AlienPresale.sol\":1886:1896  soldTokens */\n      0x06\n      0x00\n        /* \"AlienPresale.sol\":1886:1911  soldTokens += tokenAmount */\n      dup3\n      dup3\n      sload\n      tag_100\n      swap2\n      swap1\n      tag_88\n      jump\t// in\n    tag_100:\n      swap3\n      pop\n      pop\n      dup2\n      swap1\n      sstore\n      pop\n        /* \"AlienPresale.sol\":1923:1932  bool sent */\n      0x00\n        /* \"AlienPresale.sol\":1938:1943  owner */\n      dup1\n      0x00\n      swap1\n      sload\n      swap1\n      0x0100\n      exp\n      swap1\n      div\n      0xffffffffffffffffffffffffffffffffffffffff\n      and\n        /* \"AlienPresale.sol\":1938:1948  owner.call */\n      0xffffffffffffffffffffffffffffffffffffffff\n      and\n        /* \"AlienPresale.sol\":1956:1965  msg.value */\n      callvalue\n        /* \"AlienPresale.sol\":1938:1970  owner.call{value: msg.value}(\"\") */\n      mload(0x40)\n      tag_101\n      swap1\n      tag_102\n      jump\t// in\n    tag_101:\n      0x00\n      mload(0x40)\n      dup1\n      dup4\n      sub\n      dup2\n      dup6\n      dup8\n      gas\n      call\n      swap3\n      pop\n      pop\n      pop\n      returndatasize\n      dup1\n      0x00\n      dup2\n      eq\n      tag_105\n      jumpi\n      mload(0x40)\n      swap2\n      pop\n      and(add(returndatasize, 0x3f), not(0x1f))\n      dup3\n      add\n      0x40\n      mstore\n      returndatasize\n      dup3\n      mstore\n      returndatasize\n      0x00\n      0x20\n      dup5\n      add\n      returndatacopy\n      jump(tag_104)\n    tag_105:\n      0x60\n      swap2\n      pop\n    tag_104:\n      pop\n        /* \"AlienPresale.sol\":1922:1970  (bool sent, ) = owner.call{value: msg.value}(\"\") */\n      pop\n      swap1\n      pop\n        /* \"AlienPresale.sol\":1988:1992  sent */\n      dup1\n        /* \"AlienPresale.sol\":1980:2017  require(sent, \"Failed to send MATIC\") */\n      tag_106\n      jumpi\n      mload(0x40)\n      0x08c379a000000000000000000000000000000000000000000000000000000000\n      dup2\n      mstore\n      0x04\n      add\n      tag_107\n      swap1\n      tag_108\n      jump\t// in\n    tag_107:\n      mload(0x40)\n      dup1\n      swap2\n      sub\n      swap1\n      revert\n    tag_106:\n        /* \"AlienPresale.sol\":2028:2038  alienToken */\n      0x01\n      0x00\n      swap1\n      sload\n      swap1\n      0x0100\n      exp\n      swap1\n      div\n      0xffffffffffffffffffffffffffffffffffffffff\n      and\n        /* \"AlienPresale.sol\":2028:2047  alienToken.transfer */\n      0xffffffffffffffffffffffffffffffffffffffff\n      and\n      0xa9059cbb\n        /* \"AlienPresale.sol\":2048:2058  msg.sender */\n      caller\n        /* \"AlienPresale.sol\":2060:2071  tokenAmount */\n      dup5\n        /* \"AlienPresale.sol\":2028:2072  alienToken.transfer(msg.sender, tokenAmount) */\n      mload(0x40)\n      dup4\n      0xffffffff\n      and\n      0xe0\n      shl\n      dup2\n      mstore\n      0x04\n      add\n      tag_109\n      swap3\n      swap2\n      swap1\n      tag_110\n      jump\t// in\n    tag_109:\n      0x20\n      mload(0x40)\n      dup1\n      dup4\n      sub\n      dup2\n      0x00\n      dup8\n      gas\n      call\n      iszero\n      dup1\n      iszero\n      tag_112\n      jumpi\n      returndatasize\n      0x00\n      dup1\n      returndatacopy\n      revert(0x00, returndatasize)\n    tag_112:\n      pop\n      pop\n      pop\n      pop\n      mload(0x40)\n      returndatasize\n      not(0x1f)\n      0x1f\n      dup3\n      add\n      and\n      dup3\n      add\n      dup1\n      0x40\n      mstore\n      pop\n      dup2\n      add\n      swap1\n      tag_113\n      swap2\n      swap1\n      tag_114\n      jump\t// in\n    tag_113:\n      pop\n        /* \"AlienPresale.sol\":2104:2114  msg.sender */\n      caller\n        /* \"AlienPresale.sol\":2088:2139  TokensPurchased(msg.sender, msg.value, tokenAmount) */\n      0xffffffffffffffffffffffffffffffffffffffff\n      and\n      0x8fafebcaf9d154343dad25669bfa277f4fbacd7ac6b0c4fed522580e040a0f33\n        /* \"AlienPresale.sol\":2116:2125  msg.value */\n      callvalue\n        /* \"AlienPresale.sol\":2127:2138  tokenAmount */\n      dup5\n        /* \"AlienPresale.sol\":2088:2139  TokensPurchased(msg.sender, msg.value, tokenAmount) */\n      mload(0x40)\n      tag_115\n      swap3\n      swap2\n      swap1\n      tag_116\n      jump\t// in\n    tag_115:\n      mload(0x40)\n      dup1\n      swap2\n      sub\n      swap1\n      log2\n        /* \"AlienPresale.sol\":1506:2146  {... */\n      pop\n      pop\n        /* \"AlienPresale.sol\":1456:2146  function buyTokens() public payable whenNotPaused {... */\n      jump\t// out\n        /* \"AlienPresale.sol\":2152:2254  function pausePresale() external onlyOwner {... */\n    tag_24:\n        /* \"AlienPresale.sol\":933:938  owner */\n      0x00\n      dup1\n      sload\n      swap1\n      0x0100\n      exp\n      swap1\n      div\n      0xffffffffffffffffffffffffffffffffffffffff\n      and\n        /* \"AlienPresale.sol\":919:938  msg.sender == owner */\n      0xffffffffffffffffffffffffffffffffffffffff\n      and\n        /* \"AlienPresale.sol\":919:929  msg.sender */\n      caller\n        /* \"AlienPresale.sol\":919:938  msg.sender == owner */\n      0xffffffffffffffffffffffffffffffffffffffff\n      and\n      eq\n        /* \"AlienPresale.sol\":911:952  require(msg.sender == owner, \"Not owner\") */\n      tag_118\n      jumpi\n      mload(0x40)\n      0x08c379a000000000000000000000000000000000000000000000000000000000\n      dup2\n      mstore\n      0x04\n      add\n      tag_119\n      swap1\n      tag_120\n      jump\t// in\n    tag_119:\n      mload(0x40)\n      dup1\n      swap2\n      sub\n      swap1\n      revert\n    tag_118:\n        /* \"AlienPresale.sol\":2216:2220  true */\n      0x01\n        /* \"AlienPresale.sol\":2205:2213  isPaused */\n      0x07\n      0x00\n        /* \"AlienPresale.sol\":2205:2220  isPaused = true */\n      0x0100\n      exp\n      dup2\n      sload\n      dup2\n      0xff\n      mul\n      not\n      and\n      swap1\n      dup4\n      iszero\n      iszero\n      mul\n      or\n      swap1\n      sstore\n      pop\n        /* \"AlienPresale.sol\":2235:2247  Paused(true) */\n      0x0e2fb031ee032dc02d8011dc50b816eb450cf856abd8261680dac74f72165bd2\n        /* \"AlienPresale.sol\":2242:2246  true */\n      0x01\n        /* \"AlienPresale.sol\":2235:2247  Paused(true) */\n      mload(0x40)\n      tag_122\n      swap2\n      swap1\n      tag_69\n      jump\t// in\n    tag_122:\n      mload(0x40)\n      dup1\n      swap2\n      sub\n      swap1\n      log1\n        /* \"AlienPresale.sol\":2152:2254  function pausePresale() external onlyOwner {... */\n      jump\t// out\n        /* \"AlienPresale.sol\":282:306  IERC20 public alienToken */\n    tag_27:\n      0x01\n      0x00\n      swap1\n      sload\n      swap1\n      0x0100\n      exp\n      swap1\n      div\n      0xffffffffffffffffffffffffffffffffffffffff\n      and\n      dup2\n      jump\t// out\n        /* \"AlienPresale.sol\":312:331  uint256 public rate */\n    tag_32:\n      sload(0x02)\n      dup2\n      jump\t// out\n        /* \"AlienPresale.sol\":2500:2610  function withdrawTokens(uint256 amount) external onlyOwner {... */\n    tag_39:\n        /* \"AlienPresale.sol\":933:938  owner */\n      0x00\n      dup1\n      sload\n      swap1\n      0x0100\n      exp\n      swap1\n      div\n      0xffffffffffffffffffffffffffffffffffffffff\n      and\n        /* \"AlienPresale.sol\":919:938  msg.sender == owner */\n      0xffffffffffffffffffffffffffffffffffffffff\n      and\n        /* \"AlienPresale.sol\":919:929  msg.sender */\n      caller\n        /* \"AlienPresale.sol\":919:938  msg.sender == owner */\n      0xffffffffffffffffffffffffffffffffffffffff\n      and\n      eq\n        /* \"AlienPresale.sol\":911:952  require(msg.sender == owner, \"Not owner\") */\n      tag_124\n      jumpi\n      mload(0x40)\n      0x08c379a000000000000000000000000000000000000000000000000000000000\n      dup2\n      mstore\n      0x04\n      add\n      tag_125\n      swap1\n      tag_120\n      jump\t// in\n    tag_125:\n      mload(0x40)\n      dup1\n      swap2\n      sub\n      swap1\n      revert\n    tag_124:\n        /* \"AlienPresale.sol\":2569:2579  alienToken */\n      0x01\n      0x00\n      swap1\n      sload\n      swap1\n      0x0100\n      exp\n      swap1\n      div\n      0xffffffffffffffffffffffffffffffffffffffff\n      and\n        /* \"AlienPresale.sol\":2569:2588  alienToken.transfer */\n      0xffffffffffffffffffffffffffffffffffffffff\n      and\n      0xa9059cbb\n        /* \"AlienPresale.sol\":2589:2594  owner */\n      0x00\n      dup1\n      sload\n      swap1\n      0x0100\n      exp\n      swap1\n      div\n      0xffffffffffffffffffffffffffffffffffffffff\n      and\n        /* \"AlienPresale.sol\":2596:2602  amount */\n      dup4\n        /* \"AlienPresale.sol\":2569:2603  alienToken.transfer(owner, amount) */\n      mload(0x40)\n      dup4\n      0xffffffff\n      and\n      0xe0\n      shl\n      dup2\n      mstore\n      0x04\n      add\n      tag_127\n      swap3\n      swap2\n      swap1\n      tag_110\n      jump\t// in\n    tag_127:\n      0x20\n      mload(0x40)\n      dup1\n      dup4\n      sub\n      dup2\n      0x00\n      dup8\n      gas\n      call\n      iszero\n      dup1\n      iszero\n      tag_129\n      jumpi\n      returndatasize\n      0x00\n      dup1\n      returndatacopy\n      revert(0x00, returndatasize)\n    tag_129:\n      pop\n      pop\n      pop\n      pop\n      mload(0x40)\n      returndatasize\n      not(0x1f)\n      0x1f\n      dup3\n      add\n      and\n      dup3\n      add\n      dup1\n      0x40\n      mstore\n      pop\n      dup2\n      add\n      swap1\n      tag_130\n      swap2\n      swap1\n      tag_114\n      jump\t// in\n    tag_130:\n      pop\n        /* \"AlienPresale.sol\":2500:2610  function withdrawTokens(uint256 amount) external onlyOwner {... */\n      pop\n      jump\t// out\n        /* \"AlienPresale.sol\":371:397  uint256 public minPurchase */\n    tag_42:\n      sload(0x03)\n      dup2\n      jump\t// out\n        /* \"AlienPresale.sol\":612:637  uint256 public soldTokens */\n    tag_46:\n      sload(0x06)\n      dup2\n      jump\t// out\n        /* \"AlienPresale.sol\":533:558  uint256 public presaleCap */\n    tag_50:\n      sload(0x05)\n      dup2\n      jump\t// out\n        /* \"AlienPresale.sol\":2372:2494  function changeRate(uint256 newRate) external onlyOwner {... */\n    tag_55:\n        /* \"AlienPresale.sol\":933:938  owner */\n      0x00\n      dup1\n      sload\n      swap1\n      0x0100\n      exp\n      swap1\n      div\n      0xffffffffffffffffffffffffffffffffffffffff\n      and\n        /* \"AlienPresale.sol\":919:938  msg.sender == owner */\n      0xffffffffffffffffffffffffffffffffffffffff\n      and\n        /* \"AlienPresale.sol\":919:929  msg.sender */\n      caller\n        /* \"AlienPresale.sol\":919:938  msg.sender == owner */\n      0xffffffffffffffffffffffffffffffffffffffff\n      and\n      eq\n        /* \"AlienPresale.sol\":911:952  require(msg.sender == owner, \"Not owner\") */\n      tag_132\n      jumpi\n      mload(0x40)\n      0x08c379a000000000000000000000000000000000000000000000000000000000\n      dup2\n      mstore\n      0x04\n      add\n      tag_133\n      swap1\n      tag_120\n      jump\t// in\n    tag_133:\n      mload(0x40)\n      dup1\n      swap2\n      sub\n      swap1\n      revert\n    tag_132:\n        /* \"AlienPresale.sol\":2445:2452  newRate */\n      dup1\n        /* \"AlienPresale.sol\":2438:2442  rate */\n      0x02\n        /* \"AlienPresale.sol\":2438:2452  rate = newRate */\n      dup2\n      swap1\n      sstore\n      pop\n        /* \"AlienPresale.sol\":2467:2487  RateChanged(newRate) */\n      0x595a30f13a69b616c4d568e2a2b7875fdfe86e4300a049953c76ee278f8f3f10\n        /* \"AlienPresale.sol\":2479:2486  newRate */\n      dup2\n        /* \"AlienPresale.sol\":2467:2487  RateChanged(newRate) */\n      mload(0x40)\n      tag_135\n      swap2\n      swap1\n      tag_34\n      jump\t// in\n    tag_135:\n      mload(0x40)\n      dup1\n      swap2\n      sub\n      swap1\n      log1\n        /* \"AlienPresale.sol\":2372:2494  function changeRate(uint256 newRate) external onlyOwner {... */\n      pop\n      jump\t// out\n        /* \"AlienPresale.sol\":256:276  address public owner */\n    tag_58:\n      0x00\n      dup1\n      sload\n      swap1\n      0x0100\n      exp\n      swap1\n      div\n      0xffffffffffffffffffffffffffffffffffffffff\n      and\n      dup2\n      jump\t// out\n        /* \"AlienPresale.sol\":451:477  uint256 public maxPurchase */\n    tag_63:\n      sload(0x04)\n      dup2\n      jump\t// out\n        /* \"AlienPresale.sol\":689:709  bool public isPaused */\n    tag_67:\n      0x07\n      0x00\n      swap1\n      sload\n      swap1\n      0x0100\n      exp\n      swap1\n      div\n      0xff\n      and\n      dup2\n      jump\t// out\n        /* \"AlienPresale.sol\":2260:2366  function unpausePresale() external onlyOwner {... */\n    tag_73:\n        /* \"AlienPresale.sol\":933:938  owner */\n      0x00\n      dup1\n      sload\n      swap1\n      0x0100\n      exp\n      swap1\n      div\n      0xffffffffffffffffffffffffffffffffffffffff\n      and\n        /* \"AlienPresale.sol\":919:938  msg.sender == owner */\n      0xffffffffffffffffffffffffffffffffffffffff\n      and\n        /* \"AlienPresale.sol\":919:929  msg.sender */\n      caller\n        /* \"AlienPresale.sol\":919:938  msg.sender == owner */\n      0xffffffffffffffffffffffffffffffffffffffff\n      and\n      eq\n        /* \"AlienPresale.sol\":911:952  require(msg.sender == owner, \"Not owner\") */\n      tag_137\n      jumpi\n      mload(0x40)\n      0x08c379a000000000000000000000000000000000000000000000000000000000\n      dup2\n      mstore\n      0x04\n      add\n      tag_138\n      swap1\n      tag_120\n      jump\t// in\n    tag_138:\n      mload(0x40)\n      dup1\n      swap2\n      sub\n      swap1\n      revert\n    tag_137:\n        /* \"AlienPresale.sol\":2326:2331  false */\n      0x00\n        /* \"AlienPresale.sol\":2315:2323  isPaused */\n      0x07\n      0x00\n        /* \"AlienPresale.sol\":2315:2331  isPaused = false */\n      0x0100\n      exp\n      dup2\n      sload\n      dup2\n      0xff\n      mul\n      not\n      and\n      swap1\n      dup4\n      iszero\n      iszero\n      mul\n      or\n      swap1\n      sstore\n      pop\n        /* \"AlienPresale.sol\":2346:2359  Paused(false) */\n      0x0e2fb031ee032dc02d8011dc50b816eb450cf856abd8261680dac74f72165bd2\n        /* \"AlienPresale.sol\":2353:2358  false */\n      0x00\n        /* \"AlienPresale.sol\":2346:2359  Paused(false) */\n      mload(0x40)\n      tag_140\n      swap2\n      swap1\n      tag_69\n      jump\t// in\n    tag_140:\n      mload(0x40)\n      dup1\n      swap2\n      sub\n      swap1\n      log1\n        /* \"AlienPresale.sol\":2260:2366  function unpausePresale() external onlyOwner {... */\n      jump\t// out\n        /* \"#utility.yul\":7:133   */\n    tag_141:\n        /* \"#utility.yul\":44:51   */\n      0x00\n        /* \"#utility.yul\":84:126   */\n      0xffffffffffffffffffffffffffffffffffffffff\n        /* \"#utility.yul\":77:82   */\n      dup3\n        /* \"#utility.yul\":73:127   */\n      and\n        /* \"#utility.yul\":62:127   */\n      swap1\n      pop\n        /* \"#utility.yul\":7:133   */\n      swap2\n      swap1\n      pop\n      jump\t// out\n        /* \"#utility.yul\":139:199   */\n    tag_142:\n        /* \"#utility.yul\":167:170   */\n      0x00\n        /* \"#utility.yul\":188:193   */\n      dup2\n        /* \"#utility.yul\":181:193   */\n      swap1\n      pop\n        /* \"#utility.yul\":139:199   */\n      swap2\n      swap1\n      pop\n      jump\t// out\n        /* \"#utility.yul\":205:347   */\n    tag_143:\n        /* \"#utility.yul\":255:264   */\n      0x00\n        /* \"#utility.yul\":288:341   */\n      tag_184\n        /* \"#utility.yul\":306:340   */\n      tag_185\n        /* \"#utility.yul\":315:339   */\n      tag_186\n        /* \"#utility.yul\":333:338   */\n      dup5\n        /* \"#utility.yul\":315:339   */\n      tag_141\n      jump\t// in\n    tag_186:\n        /* \"#utility.yul\":306:340   */\n      tag_142\n      jump\t// in\n    tag_185:\n        /* \"#utility.yul\":288:341   */\n      tag_141\n      jump\t// in\n    tag_184:\n        /* \"#utility.yul\":275:341   */\n      swap1\n      pop\n        /* \"#utility.yul\":205:347   */\n      swap2\n      swap1\n      pop\n      jump\t// out\n        /* \"#utility.yul\":353:479   */\n    tag_144:\n        /* \"#utility.yul\":403:412   */\n      0x00\n        /* \"#utility.yul\":436:473   */\n      tag_188\n        /* \"#utility.yul\":467:472   */\n      dup3\n        /* \"#utility.yul\":436:473   */\n      tag_143\n      jump\t// in\n    tag_188:\n        /* \"#utility.yul\":423:473   */\n      swap1\n      pop\n        /* \"#utility.yul\":353:479   */\n      swap2\n      swap1\n      pop\n      jump\t// out\n        /* \"#utility.yul\":485:624   */\n    tag_145:\n        /* \"#utility.yul\":548:557   */\n      0x00\n        /* \"#utility.yul\":581:618   */\n      tag_190\n        /* \"#utility.yul\":612:617   */\n      dup3\n        /* \"#utility.yul\":581:618   */\n      tag_144\n      jump\t// in\n    tag_190:\n        /* \"#utility.yul\":568:618   */\n      swap1\n      pop\n        /* \"#utility.yul\":485:624   */\n      swap2\n      swap1\n      pop\n      jump\t// out\n        /* \"#utility.yul\":630:787   */\n    tag_146:\n        /* \"#utility.yul\":730:780   */\n      tag_192\n        /* \"#utility.yul\":774:779   */\n      dup2\n        /* \"#utility.yul\":730:780   */\n      tag_145\n      jump\t// in\n    tag_192:\n        /* \"#utility.yul\":725:728   */\n      dup3\n        /* \"#utility.yul\":718:781   */\n      mstore\n        /* \"#utility.yul\":630:787   */\n      pop\n      pop\n      jump\t// out\n        /* \"#utility.yul\":793:1041   */\n    tag_29:\n        /* \"#utility.yul\":899:903   */\n      0x00\n        /* \"#utility.yul\":937:939   */\n      0x20\n        /* \"#utility.yul\":926:935   */\n      dup3\n        /* \"#utility.yul\":922:940   */\n      add\n        /* \"#utility.yul\":914:940   */\n      swap1\n      pop\n        /* \"#utility.yul\":950:1034   */\n      tag_194\n        /* \"#utility.yul\":1031:1032   */\n      0x00\n        /* \"#utility.yul\":1020:1029   */\n      dup4\n        /* \"#utility.yul\":1016:1033   */\n      add\n        /* \"#utility.yul\":1007:1013   */\n      dup5\n        /* \"#utility.yul\":950:1034   */\n      tag_146\n      jump\t// in\n    tag_194:\n        /* \"#utility.yul\":793:1041   */\n      swap3\n      swap2\n      pop\n      pop\n      jump\t// out\n        /* \"#utility.yul\":1047:1124   */\n    tag_147:\n        /* \"#utility.yul\":1084:1091   */\n      0x00\n        /* \"#utility.yul\":1113:1118   */\n      dup2\n        /* \"#utility.yul\":1102:1118   */\n      swap1\n      pop\n        /* \"#utility.yul\":1047:1124   */\n      swap2\n      swap1\n      pop\n      jump\t// out\n        /* \"#utility.yul\":1130:1248   */\n    tag_148:\n        /* \"#utility.yul\":1217:1241   */\n      tag_197\n        /* \"#utility.yul\":1235:1240   */\n      dup2\n        /* \"#utility.yul\":1217:1241   */\n      tag_147\n      jump\t// in\n    tag_197:\n        /* \"#utility.yul\":1212:1215   */\n      dup3\n        /* \"#utility.yul\":1205:1242   */\n      mstore\n        /* \"#utility.yul\":1130:1248   */\n      pop\n      pop\n      jump\t// out\n        /* \"#utility.yul\":1254:1476   */\n    tag_34:\n        /* \"#utility.yul\":1347:1351   */\n      0x00\n        /* \"#utility.yul\":1385:1387   */\n      0x20\n        /* \"#utility.yul\":1374:1383   */\n      dup3\n        /* \"#utility.yul\":1370:1388   */\n      add\n        /* \"#utility.yul\":1362:1388   */\n      swap1\n      pop\n        /* \"#utility.yul\":1398:1469   */\n      tag_199\n        /* \"#utility.yul\":1466:1467   */\n      0x00\n        /* \"#utility.yul\":1455:1464   */\n      dup4\n        /* \"#utility.yul\":1451:1468   */\n      add\n        /* \"#utility.yul\":1442:1448   */\n      dup5\n        /* \"#utility.yul\":1398:1469   */\n      tag_148\n      jump\t// in\n    tag_199:\n        /* \"#utility.yul\":1254:1476   */\n      swap3\n      swap2\n      pop\n      pop\n      jump\t// out\n        /* \"#utility.yul\":1563:1680   */\n    tag_150:\n        /* \"#utility.yul\":1672:1673   */\n      0x00\n        /* \"#utility.yul\":1669:1670   */\n      dup1\n        /* \"#utility.yul\":1662:1674   */\n      revert\n        /* \"#utility.yul\":1809:1931   */\n    tag_152:\n        /* \"#utility.yul\":1882:1906   */\n      tag_204\n        /* \"#utility.yul\":1900:1905   */\n      dup2\n        /* \"#utility.yul\":1882:1906   */\n      tag_147\n      jump\t// in\n    tag_204:\n        /* \"#utility.yul\":1875:1880   */\n      dup2\n        /* \"#utility.yul\":1872:1907   */\n      eq\n        /* \"#utility.yul\":1862:1925   */\n      tag_205\n      jumpi\n        /* \"#utility.yul\":1921:1922   */\n      0x00\n        /* \"#utility.yul\":1918:1919   */\n      dup1\n        /* \"#utility.yul\":1911:1923   */\n      revert\n        /* \"#utility.yul\":1862:1925   */\n    tag_205:\n        /* \"#utility.yul\":1809:1931   */\n      pop\n      jump\t// out\n        /* \"#utility.yul\":1937:2076   */\n    tag_153:\n        /* \"#utility.yul\":1983:1988   */\n      0x00\n        /* \"#utility.yul\":2021:2027   */\n      dup2\n        /* \"#utility.yul\":2008:2028   */\n      calldataload\n        /* \"#utility.yul\":1999:2028   */\n      swap1\n      pop\n        /* \"#utility.yul\":2037:2070   */\n      tag_207\n        /* \"#utility.yul\":2064:2069   */\n      dup2\n        /* \"#utility.yul\":2037:2070   */\n      tag_152\n      jump\t// in\n    tag_207:\n        /* \"#utility.yul\":1937:2076   */\n      swap3\n      swap2\n      pop\n      pop\n      jump\t// out\n        /* \"#utility.yul\":2082:2411   */\n    tag_38:\n        /* \"#utility.yul\":2141:2147   */\n      0x00\n        /* \"#utility.yul\":2190:2192   */\n      0x20\n        /* \"#utility.yul\":2178:2187   */\n      dup3\n        /* \"#utility.yul\":2169:2176   */\n      dup5\n        /* \"#utility.yul\":2165:2188   */\n      sub\n        /* \"#utility.yul\":2161:2193   */\n      slt\n        /* \"#utility.yul\":2158:2277   */\n      iszero\n      tag_209\n      jumpi\n        /* \"#utility.yul\":2196:2275   */\n      tag_210\n      tag_150\n      jump\t// in\n    tag_210:\n        /* \"#utility.yul\":2158:2277   */\n    tag_209:\n        /* \"#utility.yul\":2316:2317   */\n      0x00\n        /* \"#utility.yul\":2341:2394   */\n      tag_211\n        /* \"#utility.yul\":2386:2393   */\n      dup5\n        /* \"#utility.yul\":2377:2383   */\n      dup3\n        /* \"#utility.yul\":2366:2375   */\n      dup6\n        /* \"#utility.yul\":2362:2384   */\n      add\n        /* \"#utility.yul\":2341:2394   */\n      tag_153\n      jump\t// in\n    tag_211:\n        /* \"#utility.yul\":2331:2394   */\n      swap2\n      pop\n        /* \"#utility.yul\":2287:2404   */\n      pop\n        /* \"#utility.yul\":2082:2411   */\n      swap3\n      swap2\n      pop\n      pop\n      jump\t// out\n        /* \"#utility.yul\":2417:2513   */\n    tag_154:\n        /* \"#utility.yul\":2454:2461   */\n      0x00\n        /* \"#utility.yul\":2483:2507   */\n      tag_213\n        /* \"#utility.yul\":2501:2506   */\n      dup3\n        /* \"#utility.yul\":2483:2507   */\n      tag_141\n      jump\t// in\n    tag_213:\n        /* \"#utility.yul\":2472:2507   */\n      swap1\n      pop\n        /* \"#utility.yul\":2417:2513   */\n      swap2\n      swap1\n      pop\n      jump\t// out\n        /* \"#utility.yul\":2519:2637   */\n    tag_155:\n        /* \"#utility.yul\":2606:2630   */\n      tag_215\n        /* \"#utility.yul\":2624:2629   */\n      dup2\n        /* \"#utility.yul\":2606:2630   */\n      tag_154\n      jump\t// in\n    tag_215:\n        /* \"#utility.yul\":2601:2604   */\n      dup3\n        /* \"#utility.yul\":2594:2631   */\n      mstore\n        /* \"#utility.yul\":2519:2637   */\n      pop\n      pop\n      jump\t// out\n        /* \"#utility.yul\":2643:2865   */\n    tag_60:\n        /* \"#utility.yul\":2736:2740   */\n      0x00\n        /* \"#utility.yul\":2774:2776   */\n      0x20\n        /* \"#utility.yul\":2763:2772   */\n      dup3\n        /* \"#utility.yul\":2759:2777   */\n      add\n        /* \"#utility.yul\":2751:2777   */\n      swap1\n      pop\n        /* \"#utility.yul\":2787:2858   */\n      tag_217\n        /* \"#utility.yul\":2855:2856   */\n      0x00\n        /* \"#utility.yul\":2844:2853   */\n      dup4\n        /* \"#utility.yul\":2840:2857   */\n      add\n        /* \"#utility.yul\":2831:2837   */\n      dup5\n        /* \"#utility.yul\":2787:2858   */\n      tag_155\n      jump\t// in\n    tag_217:\n        /* \"#utility.yul\":2643:2865   */\n      swap3\n      swap2\n      pop\n      pop\n      jump\t// out\n        /* \"#utility.yul\":2871:2961   */\n    tag_156:\n        /* \"#utility.yul\":2905:2912   */\n      0x00\n        /* \"#utility.yul\":2948:2953   */\n      dup2\n        /* \"#utility.yul\":2941:2954   */\n      iszero\n        /* \"#utility.yul\":2934:2955   */\n      iszero\n        /* \"#utility.yul\":2923:2955   */\n      swap1\n      pop\n        /* \"#utility.yul\":2871:2961   */\n      swap2\n      swap1\n      pop\n      jump\t// out\n        /* \"#utility.yul\":2967:3076   */\n    tag_157:\n        /* \"#utility.yul\":3048:3069   */\n      tag_220\n        /* \"#utility.yul\":3063:3068   */\n      dup2\n        /* \"#utility.yul\":3048:3069   */\n      tag_156\n      jump\t// in\n    tag_220:\n        /* \"#utility.yul\":3043:3046   */\n      dup3\n        /* \"#utility.yul\":3036:3070   */\n      mstore\n        /* \"#utility.yul\":2967:3076   */\n      pop\n      pop\n      jump\t// out\n        /* \"#utility.yul\":3082:3292   */\n    tag_69:\n        /* \"#utility.yul\":3169:3173   */\n      0x00\n        /* \"#utility.yul\":3207:3209   */\n      0x20\n        /* \"#utility.yul\":3196:3205   */\n      dup3\n        /* \"#utility.yul\":3192:3210   */\n      add\n        /* \"#utility.yul\":3184:3210   */\n      swap1\n      pop\n        /* \"#utility.yul\":3220:3285   */\n      tag_222\n        /* \"#utility.yul\":3282:3283   */\n      0x00\n        /* \"#utility.yul\":3271:3280   */\n      dup4\n        /* \"#utility.yul\":3267:3284   */\n      add\n        /* \"#utility.yul\":3258:3264   */\n      dup5\n        /* \"#utility.yul\":3220:3285   */\n      tag_157\n      jump\t// in\n    tag_222:\n        /* \"#utility.yul\":3082:3292   */\n      swap3\n      swap2\n      pop\n      pop\n      jump\t// out\n        /* \"#utility.yul\":3298:3467   */\n    tag_158:\n        /* \"#utility.yul\":3382:3393   */\n      0x00\n        /* \"#utility.yul\":3416:3422   */\n      dup3\n        /* \"#utility.yul\":3411:3414   */\n      dup3\n        /* \"#utility.yul\":3404:3423   */\n      mstore\n        /* \"#utility.yul\":3456:3460   */\n      0x20\n        /* \"#utility.yul\":3451:3454   */\n      dup3\n        /* \"#utility.yul\":3447:3461   */\n      add\n        /* \"#utility.yul\":3432:3461   */\n      swap1\n      pop\n        /* \"#utility.yul\":3298:3467   */\n      swap3\n      swap2\n      pop\n      pop\n      jump\t// out\n        /* \"#utility.yul\":3473:3637   */\n    tag_159:\n        /* \"#utility.yul\":3613:3629   */\n      0x50726573616c6520706175736564000000000000000000000000000000000000\n        /* \"#utility.yul\":3609:3610   */\n      0x00\n        /* \"#utility.yul\":3601:3607   */\n      dup3\n        /* \"#utility.yul\":3597:3611   */\n      add\n        /* \"#utility.yul\":3590:3630   */\n      mstore\n        /* \"#utility.yul\":3473:3637   */\n      pop\n      jump\t// out\n        /* \"#utility.yul\":3643:4009   */\n    tag_160:\n        /* \"#utility.yul\":3785:3788   */\n      0x00\n        /* \"#utility.yul\":3806:3873   */\n      tag_226\n        /* \"#utility.yul\":3870:3872   */\n      0x0e\n        /* \"#utility.yul\":3865:3868   */\n      dup4\n        /* \"#utility.yul\":3806:3873   */\n      tag_158\n      jump\t// in\n    tag_226:\n        /* \"#utility.yul\":3799:3873   */\n      swap2\n      pop\n        /* \"#utility.yul\":3882:3975   */\n      tag_227\n        /* \"#utility.yul\":3971:3974   */\n      dup3\n        /* \"#utility.yul\":3882:3975   */\n      tag_159\n      jump\t// in\n    tag_227:\n        /* \"#utility.yul\":4000:4002   */\n      0x20\n        /* \"#utility.yul\":3995:3998   */\n      dup3\n        /* \"#utility.yul\":3991:4003   */\n      add\n        /* \"#utility.yul\":3984:4003   */\n      swap1\n      pop\n        /* \"#utility.yul\":3643:4009   */\n      swap2\n      swap1\n      pop\n      jump\t// out\n        /* \"#utility.yul\":4015:4434   */\n    tag_77:\n        /* \"#utility.yul\":4181:4185   */\n      0x00\n        /* \"#utility.yul\":4219:4221   */\n      0x20\n        /* \"#utility.yul\":4208:4217   */\n      dup3\n        /* \"#utility.yul\":4204:4222   */\n      add\n        /* \"#utility.yul\":4196:4222   */\n      swap1\n      pop\n        /* \"#utility.yul\":4268:4277   */\n      dup2\n        /* \"#utility.yul\":4262:4266   */\n      dup2\n        /* \"#utility.yul\":4258:4278   */\n      sub\n        /* \"#utility.yul\":4254:4255   */\n      0x00\n        /* \"#utility.yul\":4243:4252   */\n      dup4\n        /* \"#utility.yul\":4239:4256   */\n      add\n        /* \"#utility.yul\":4232:4279   */\n      mstore\n        /* \"#utility.yul\":4296:4427   */\n      tag_229\n        /* \"#utility.yul\":4422:4426   */\n      dup2\n        /* \"#utility.yul\":4296:4427   */\n      tag_160\n      jump\t// in\n    tag_229:\n        /* \"#utility.yul\":4288:4427   */\n      swap1\n      pop\n        /* \"#utility.yul\":4015:4434   */\n      swap2\n      swap1\n      pop\n      jump\t// out\n        /* \"#utility.yul\":4440:4612   */\n    tag_161:\n        /* \"#utility.yul\":4580:4604   */\n      0x42656c6f77206d696e696d756d20707572636861736500000000000000000000\n        /* \"#utility.yul\":4576:4577   */\n      0x00\n        /* \"#utility.yul\":4568:4574   */\n      dup3\n        /* \"#utility.yul\":4564:4578   */\n      add\n        /* \"#utility.yul\":4557:4605   */\n      mstore\n        /* \"#utility.yul\":4440:4612   */\n      pop\n      jump\t// out\n        /* \"#utility.yul\":4618:4984   */\n    tag_162:\n        /* \"#utility.yul\":4760:4763   */\n      0x00\n        /* \"#utility.yul\":4781:4848   */\n      tag_232\n        /* \"#utility.yul\":4845:4847   */\n      0x16\n        /* \"#utility.yul\":4840:4843   */\n      dup4\n        /* \"#utility.yul\":4781:4848   */\n      tag_158\n      jump\t// in\n    tag_232:\n        /* \"#utility.yul\":4774:4848   */\n      swap2\n      pop\n        /* \"#utility.yul\":4857:4950   */\n      tag_233\n        /* \"#utility.yul\":4946:4949   */\n      dup3\n        /* \"#utility.yul\":4857:4950   */\n      tag_161\n      jump\t// in\n    tag_233:\n        /* \"#utility.yul\":4975:4977   */\n      0x20\n        /* \"#utility.yul\":4970:4973   */\n      dup3\n        /* \"#utility.yul\":4966:4978   */\n      add\n        /* \"#utility.yul\":4959:4978   */\n      swap1\n      pop\n        /* \"#utility.yul\":4618:4984   */\n      swap2\n      swap1\n      pop\n      jump\t// out\n        /* \"#utility.yul\":4990:5409   */\n    tag_81:\n        /* \"#utility.yul\":5156:5160   */\n      0x00\n        /* \"#utility.yul\":5194:5196   */\n      0x20\n        /* \"#utility.yul\":5183:5192   */\n      dup3\n        /* \"#utility.yul\":5179:5197   */\n      add\n        /* \"#utility.yul\":5171:5197   */\n      swap1\n      pop\n        /* \"#utility.yul\":5243:5252   */\n      dup2\n        /* \"#utility.yul\":5237:5241   */\n      dup2\n        /* \"#utility.yul\":5233:5253   */\n      sub\n        /* \"#utility.yul\":5229:5230   */\n      0x00\n        /* \"#utility.yul\":5218:5227   */\n      dup4\n        /* \"#utility.yul\":5214:5231   */\n      add\n        /* \"#utility.yul\":5207:5254   */\n      mstore\n        /* \"#utility.yul\":5271:5402   */\n      tag_235\n        /* \"#utility.yul\":5397:5401   */\n      dup2\n        /* \"#utility.yul\":5271:5402   */\n      tag_162\n      jump\t// in\n    tag_235:\n        /* \"#utility.yul\":5263:5402   */\n      swap1\n      pop\n        /* \"#utility.yul\":4990:5409   */\n      swap2\n      swap1\n      pop\n      jump\t// out\n        /* \"#utility.yul\":5415:5587   */\n    tag_163:\n        /* \"#utility.yul\":5555:5579   */\n      0x41626f7665206d6178696d756d20707572636861736500000000000000000000\n        /* \"#utility.yul\":5551:5552   */\n      0x00\n        /* \"#utility.yul\":5543:5549   */\n      dup3\n        /* \"#utility.yul\":5539:5553   */\n      add\n        /* \"#utility.yul\":5532:5580   */\n      mstore\n        /* \"#utility.yul\":5415:5587   */\n      pop\n      jump\t// out\n        /* \"#utility.yul\":5593:5959   */\n    tag_164:\n        /* \"#utility.yul\":5735:5738   */\n      0x00\n        /* \"#utility.yul\":5756:5823   */\n      tag_238\n        /* \"#utility.yul\":5820:5822   */\n      0x16\n        /* \"#utility.yul\":5815:5818   */\n      dup4\n        /* \"#utility.yul\":5756:5823   */\n      tag_158\n      jump\t// in\n    tag_238:\n        /* \"#utility.yul\":5749:5823   */\n      swap2\n      pop\n        /* \"#utility.yul\":5832:5925   */\n      tag_239\n        /* \"#utility.yul\":5921:5924   */\n      dup3\n        /* \"#utility.yul\":5832:5925   */\n      tag_163\n      jump\t// in\n    tag_239:\n        /* \"#utility.yul\":5950:5952   */\n      0x20\n        /* \"#utility.yul\":5945:5948   */\n      dup3\n        /* \"#utility.yul\":5941:5953   */\n      add\n        /* \"#utility.yul\":5934:5953   */\n      swap1\n      pop\n        /* \"#utility.yul\":5593:5959   */\n      swap2\n      swap1\n      pop\n      jump\t// out\n        /* \"#utility.yul\":5965:6384   */\n    tag_84:\n        /* \"#utility.yul\":6131:6135   */\n      0x00\n        /* \"#utility.yul\":6169:6171   */\n      0x20\n        /* \"#utility.yul\":6158:6167   */\n      dup3\n        /* \"#utility.yul\":6154:6172   */\n      add\n        /* \"#utility.yul\":6146:6172   */\n      swap1\n      pop\n        /* \"#utility.yul\":6218:6227   */\n      dup2\n        /* \"#utility.yul\":6212:6216   */\n      dup2\n        /* \"#utility.yul\":6208:6228   */\n      sub\n        /* \"#utility.yul\":6204:6205   */\n      0x00\n        /* \"#utility.yul\":6193:6202   */\n      dup4\n        /* \"#utility.yul\":6189:6206   */\n      add\n        /* \"#utility.yul\":6182:6229   */\n      mstore\n        /* \"#utility.yul\":6246:6377   */\n      tag_241\n        /* \"#utility.yul\":6372:6376   */\n      dup2\n        /* \"#utility.yul\":6246:6377   */\n      tag_164\n      jump\t// in\n    tag_241:\n        /* \"#utility.yul\":6238:6377   */\n      swap1\n      pop\n        /* \"#utility.yul\":5965:6384   */\n      swap2\n      swap1\n      pop\n      jump\t// out\n        /* \"#utility.yul\":6390:6570   */\n    tag_165:\n        /* \"#utility.yul\":6438:6515   */\n      0x4e487b7100000000000000000000000000000000000000000000000000000000\n        /* \"#utility.yul\":6435:6436   */\n      0x00\n        /* \"#utility.yul\":6428:6516   */\n      mstore\n        /* \"#utility.yul\":6535:6539   */\n      0x11\n        /* \"#utility.yul\":6532:6533   */\n      0x04\n        /* \"#utility.yul\":6525:6540   */\n      mstore\n        /* \"#utility.yul\":6559:6563   */\n      0x24\n        /* \"#utility.yul\":6556:6557   */\n      0x00\n        /* \"#utility.yul\":6549:6564   */\n      revert\n        /* \"#utility.yul\":6576:6986   */\n    tag_86:\n        /* \"#utility.yul\":6616:6623   */\n      0x00\n        /* \"#utility.yul\":6639:6659   */\n      tag_244\n        /* \"#utility.yul\":6657:6658   */\n      dup3\n        /* \"#utility.yul\":6639:6659   */\n      tag_147\n      jump\t// in\n    tag_244:\n        /* \"#utility.yul\":6634:6659   */\n      swap2\n      pop\n        /* \"#utility.yul\":6673:6693   */\n      tag_245\n        /* \"#utility.yul\":6691:6692   */\n      dup4\n        /* \"#utility.yul\":6673:6693   */\n      tag_147\n      jump\t// in\n    tag_245:\n        /* \"#utility.yul\":6668:6693   */\n      swap3\n      pop\n        /* \"#utility.yul\":6728:6729   */\n      dup3\n        /* \"#utility.yul\":6725:6726   */\n      dup3\n        /* \"#utility.yul\":6721:6730   */\n      mul\n        /* \"#utility.yul\":6750:6780   */\n      tag_246\n        /* \"#utility.yul\":6768:6779   */\n      dup2\n        /* \"#utility.yul\":6750:6780   */\n      tag_147\n      jump\t// in\n    tag_246:\n        /* \"#utility.yul\":6739:6780   */\n      swap2\n      pop\n        /* \"#utility.yul\":6929:6930   */\n      dup3\n        /* \"#utility.yul\":6920:6927   */\n      dup3\n        /* \"#utility.yul\":6916:6931   */\n      div\n        /* \"#utility.yul\":6913:6914   */\n      dup5\n        /* \"#utility.yul\":6910:6932   */\n      eq\n        /* \"#utility.yul\":6890:6891   */\n      dup4\n        /* \"#utility.yul\":6883:6892   */\n      iszero\n        /* \"#utility.yul\":6863:6946   */\n      or\n        /* \"#utility.yul\":6840:6979   */\n      tag_247\n      jumpi\n        /* \"#utility.yul\":6959:6977   */\n      tag_248\n      tag_165\n      jump\t// in\n    tag_248:\n        /* \"#utility.yul\":6840:6979   */\n    tag_247:\n        /* \"#utility.yul\":6624:6986   */\n      pop\n        /* \"#utility.yul\":6576:6986   */\n      swap3\n      swap2\n      pop\n      pop\n      jump\t// out\n        /* \"#utility.yul\":6992:7183   */\n    tag_88:\n        /* \"#utility.yul\":7032:7035   */\n      0x00\n        /* \"#utility.yul\":7051:7071   */\n      tag_250\n        /* \"#utility.yul\":7069:7070   */\n      dup3\n        /* \"#utility.yul\":7051:7071   */\n      tag_147\n      jump\t// in\n    tag_250:\n        /* \"#utility.yul\":7046:7071   */\n      swap2\n      pop\n        /* \"#utility.yul\":7085:7105   */\n      tag_251\n        /* \"#utility.yul\":7103:7104   */\n      dup4\n        /* \"#utility.yul\":7085:7105   */\n      tag_147\n      jump\t// in\n    tag_251:\n        /* \"#utility.yul\":7080:7105   */\n      swap3\n      pop\n        /* \"#utility.yul\":7128:7129   */\n      dup3\n        /* \"#utility.yul\":7125:7126   */\n      dup3\n        /* \"#utility.yul\":7121:7130   */\n      add\n        /* \"#utility.yul\":7114:7130   */\n      swap1\n      pop\n        /* \"#utility.yul\":7149:7152   */\n      dup1\n        /* \"#utility.yul\":7146:7147   */\n      dup3\n        /* \"#utility.yul\":7143:7153   */\n      gt\n        /* \"#utility.yul\":7140:7176   */\n      iszero\n      tag_252\n      jumpi\n        /* \"#utility.yul\":7156:7174   */\n      tag_253\n      tag_165\n      jump\t// in\n    tag_253:\n        /* \"#utility.yul\":7140:7176   */\n    tag_252:\n        /* \"#utility.yul\":6992:7183   */\n      swap3\n      swap2\n      pop\n      pop\n      jump\t// out\n        /* \"#utility.yul\":7189:7358   */\n    tag_166:\n        /* \"#utility.yul\":7329:7350   */\n      0x50726573616c6520636170207265616368656400000000000000000000000000\n        /* \"#utility.yul\":7325:7326   */\n      0x00\n        /* \"#utility.yul\":7317:7323   */\n      dup3\n        /* \"#utility.yul\":7313:7327   */\n      add\n        /* \"#utility.yul\":7306:7351   */\n      mstore\n        /* \"#utility.yul\":7189:7358   */\n      pop\n      jump\t// out\n        /* \"#utility.yul\":7364:7730   */\n    tag_167:\n        /* \"#utility.yul\":7506:7509   */\n      0x00\n        /* \"#utility.yul\":7527:7594   */\n      tag_256\n        /* \"#utility.yul\":7591:7593   */\n      0x13\n        /* \"#utility.yul\":7586:7589   */\n      dup4\n        /* \"#utility.yul\":7527:7594   */\n      tag_158\n      jump\t// in\n    tag_256:\n        /* \"#utility.yul\":7520:7594   */\n      swap2\n      pop\n        /* \"#utility.yul\":7603:7696   */\n      tag_257\n        /* \"#utility.yul\":7692:7695   */\n      dup3\n        /* \"#utility.yul\":7603:7696   */\n      tag_166\n      jump\t// in\n    tag_257:\n        /* \"#utility.yul\":7721:7723   */\n      0x20\n        /* \"#utility.yul\":7716:7719   */\n      dup3\n        /* \"#utility.yul\":7712:7724   */\n      add\n        /* \"#utility.yul\":7705:7724   */\n      swap1\n      pop\n        /* \"#utility.yul\":7364:7730   */\n      swap2\n      swap1\n      pop\n      jump\t// out\n        /* \"#utility.yul\":7736:8155   */\n    tag_91:\n        /* \"#utility.yul\":7902:7906   */\n      0x00\n        /* \"#utility.yul\":7940:7942   */\n      0x20\n        /* \"#utility.yul\":7929:7938   */\n      dup3\n        /* \"#utility.yul\":7925:7943   */\n      add\n        /* \"#utility.yul\":7917:7943   */\n      swap1\n      pop\n        /* \"#utility.yul\":7989:7998   */\n      dup2\n        /* \"#utility.yul\":7983:7987   */\n      dup2\n        /* \"#utility.yul\":7979:7999   */\n      sub\n        /* \"#utility.yul\":7975:7976   */\n      0x00\n        /* \"#utility.yul\":7964:7973   */\n      dup4\n        /* \"#utility.yul\":7960:7977   */\n      add\n        /* \"#utility.yul\":7953:8000   */\n      mstore\n        /* \"#utility.yul\":8017:8148   */\n      tag_259\n        /* \"#utility.yul\":8143:8147   */\n      dup2\n        /* \"#utility.yul\":8017:8148   */\n      tag_167\n      jump\t// in\n    tag_259:\n        /* \"#utility.yul\":8009:8148   */\n      swap1\n      pop\n        /* \"#utility.yul\":7736:8155   */\n      swap2\n      swap1\n      pop\n      jump\t// out\n        /* \"#utility.yul\":8161:8304   */\n    tag_168:\n        /* \"#utility.yul\":8218:8223   */\n      0x00\n        /* \"#utility.yul\":8249:8255   */\n      dup2\n        /* \"#utility.yul\":8243:8256   */\n      mload\n        /* \"#utility.yul\":8234:8256   */\n      swap1\n      pop\n        /* \"#utility.yul\":8265:8298   */\n      tag_261\n        /* \"#utility.yul\":8292:8297   */\n      dup2\n        /* \"#utility.yul\":8265:8298   */\n      tag_152\n      jump\t// in\n    tag_261:\n        /* \"#utility.yul\":8161:8304   */\n      swap3\n      swap2\n      pop\n      pop\n      jump\t// out\n        /* \"#utility.yul\":8310:8661   */\n    tag_96:\n        /* \"#utility.yul\":8380:8386   */\n      0x00\n        /* \"#utility.yul\":8429:8431   */\n      0x20\n        /* \"#utility.yul\":8417:8426   */\n      dup3\n        /* \"#utility.yul\":8408:8415   */\n      dup5\n        /* \"#utility.yul\":8404:8427   */\n      sub\n        /* \"#utility.yul\":8400:8432   */\n      slt\n        /* \"#utility.yul\":8397:8516   */\n      iszero\n      tag_263\n      jumpi\n        /* \"#utility.yul\":8435:8514   */\n      tag_264\n      tag_150\n      jump\t// in\n    tag_264:\n        /* \"#utility.yul\":8397:8516   */\n    tag_263:\n        /* \"#utility.yul\":8555:8556   */\n      0x00\n        /* \"#utility.yul\":8580:8644   */\n      tag_265\n        /* \"#utility.yul\":8636:8643   */\n      dup5\n        /* \"#utility.yul\":8627:8633   */\n      dup3\n        /* \"#utility.yul\":8616:8625   */\n      dup6\n        /* \"#utility.yul\":8612:8634   */\n      add\n        /* \"#utility.yul\":8580:8644   */\n      tag_168\n      jump\t// in\n    tag_265:\n        /* \"#utility.yul\":8570:8644   */\n      swap2\n      pop\n        /* \"#utility.yul\":8526:8654   */\n      pop\n        /* \"#utility.yul\":8310:8661   */\n      swap3\n      swap2\n      pop\n      pop\n      jump\t// out\n        /* \"#utility.yul\":8667:8846   */\n    tag_169:\n        /* \"#utility.yul\":8807:8838   */\n      0x4e6f7420656e6f75676820746f6b656e7320696e20636f6e7472616374000000\n        /* \"#utility.yul\":8803:8804   */\n      0x00\n        /* \"#utility.yul\":8795:8801   */\n      dup3\n        /* \"#utility.yul\":8791:8805   */\n      add\n        /* \"#utility.yul\":8784:8839   */\n      mstore\n        /* \"#utility.yul\":8667:8846   */\n      pop\n      jump\t// out\n        /* \"#utility.yul\":8852:9218   */\n    tag_170:\n        /* \"#utility.yul\":8994:8997   */\n      0x00\n        /* \"#utility.yul\":9015:9082   */\n      tag_268\n        /* \"#utility.yul\":9079:9081   */\n      0x1d\n        /* \"#utility.yul\":9074:9077   */\n      dup4\n        /* \"#utility.yul\":9015:9082   */\n      tag_158\n      jump\t// in\n    tag_268:\n        /* \"#utility.yul\":9008:9082   */\n      swap2\n      pop\n        /* \"#utility.yul\":9091:9184   */\n      tag_269\n        /* \"#utility.yul\":9180:9183   */\n      dup3\n        /* \"#utility.yul\":9091:9184   */\n      tag_169\n      jump\t// in\n    tag_269:\n        /* \"#utility.yul\":9209:9211   */\n      0x20\n        /* \"#utility.yul\":9204:9207   */\n      dup3\n        /* \"#utility.yul\":9200:9212   */\n      add\n        /* \"#utility.yul\":9193:9212   */\n      swap1\n      pop\n        /* \"#utility.yul\":8852:9218   */\n      swap2\n      swap1\n      pop\n      jump\t// out\n        /* \"#utility.yul\":9224:9643   */\n    tag_99:\n        /* \"#utility.yul\":9390:9394   */\n      0x00\n        /* \"#utility.yul\":9428:9430   */\n      0x20\n        /* \"#utility.yul\":9417:9426   */\n      dup3\n        /* \"#utility.yul\":9413:9431   */\n      add\n        /* \"#utility.yul\":9405:9431   */\n      swap1\n      pop\n        /* \"#utility.yul\":9477:9486   */\n      dup2\n        /* \"#utility.yul\":9471:9475   */\n      dup2\n        /* \"#utility.yul\":9467:9487   */\n      sub\n        /* \"#utility.yul\":9463:9464   */\n      0x00\n        /* \"#utility.yul\":9452:9461   */\n      dup4\n        /* \"#utility.yul\":9448:9465   */\n      add\n        /* \"#utility.yul\":9441:9488   */\n      mstore\n        /* \"#utility.yul\":9505:9636   */\n      tag_271\n        /* \"#utility.yul\":9631:9635   */\n      dup2\n        /* \"#utility.yul\":9505:9636   */\n      tag_170\n      jump\t// in\n    tag_271:\n        /* \"#utility.yul\":9497:9636   */\n      swap1\n      pop\n        /* \"#utility.yul\":9224:9643   */\n      swap2\n      swap1\n      pop\n      jump\t// out\n        /* \"#utility.yul\":9649:9796   */\n    tag_171:\n        /* \"#utility.yul\":9750:9761   */\n      0x00\n        /* \"#utility.yul\":9787:9790   */\n      dup2\n        /* \"#utility.yul\":9772:9790   */\n      swap1\n      pop\n        /* \"#utility.yul\":9649:9796   */\n      swap3\n      swap2\n      pop\n      pop\n      jump\t// out\n        /* \"#utility.yul\":9802:9916   */\n    tag_172:\n      pop\n      jump\t// out\n        /* \"#utility.yul\":9922:10320   */\n    tag_173:\n        /* \"#utility.yul\":10081:10084   */\n      0x00\n        /* \"#utility.yul\":10102:10185   */\n      tag_275\n        /* \"#utility.yul\":10183:10184   */\n      0x00\n        /* \"#utility.yul\":10178:10181   */\n      dup4\n        /* \"#utility.yul\":10102:10185   */\n      tag_171\n      jump\t// in\n    tag_275:\n        /* \"#utility.yul\":10095:10185   */\n      swap2\n      pop\n        /* \"#utility.yul\":10194:10287   */\n      tag_276\n        /* \"#utility.yul\":10283:10286   */\n      dup3\n        /* \"#utility.yul\":10194:10287   */\n      tag_172\n      jump\t// in\n    tag_276:\n        /* \"#utility.yul\":10312:10313   */\n      0x00\n        /* \"#utility.yul\":10307:10310   */\n      dup3\n        /* \"#utility.yul\":10303:10314   */\n      add\n        /* \"#utility.yul\":10296:10314   */\n      swap1\n      pop\n        /* \"#utility.yul\":9922:10320   */\n      swap2\n      swap1\n      pop\n      jump\t// out\n        /* \"#utility.yul\":10326:10705   */\n    tag_102:\n        /* \"#utility.yul\":10510:10513   */\n      0x00\n        /* \"#utility.yul\":10532:10679   */\n      tag_278\n        /* \"#utility.yul\":10675:10678   */\n      dup3\n        /* \"#utility.yul\":10532:10679   */\n      tag_173\n      jump\t// in\n    tag_278:\n        /* \"#utility.yul\":10525:10679   */\n      swap2\n      pop\n        /* \"#utility.yul\":10696:10699   */\n      dup2\n        /* \"#utility.yul\":10689:10699   */\n      swap1\n      pop\n        /* \"#utility.yul\":10326:10705   */\n      swap2\n      swap1\n      pop\n      jump\t// out\n        /* \"#utility.yul\":10711:10881   */\n    tag_174:\n        /* \"#utility.yul\":10851:10873   */\n      0x4661696c656420746f2073656e64204d41544943000000000000000000000000\n        /* \"#utility.yul\":10847:10848   */\n      0x00\n        /* \"#utility.yul\":10839:10845   */\n      dup3\n        /* \"#utility.yul\":10835:10849   */\n      add\n        /* \"#utility.yul\":10828:10874   */\n      mstore\n        /* \"#utility.yul\":10711:10881   */\n      pop\n      jump\t// out\n        /* \"#utility.yul\":10887:11253   */\n    tag_175:\n        /* \"#utility.yul\":11029:11032   */\n      0x00\n        /* \"#utility.yul\":11050:11117   */\n      tag_281\n        /* \"#utility.yul\":11114:11116   */\n      0x14\n        /* \"#utility.yul\":11109:11112   */\n      dup4\n        /* \"#utility.yul\":11050:11117   */\n      tag_158\n      jump\t// in\n    tag_281:\n        /* \"#utility.yul\":11043:11117   */\n      swap2\n      pop\n        /* \"#utility.yul\":11126:11219   */\n      tag_282\n        /* \"#utility.yul\":11215:11218   */\n      dup3\n        /* \"#utility.yul\":11126:11219   */\n      tag_174\n      jump\t// in\n    tag_282:\n        /* \"#utility.yul\":11244:11246   */\n      0x20\n        /* \"#utility.yul\":11239:11242   */\n      dup3\n        /* \"#utility.yul\":11235:11247   */\n      add\n        /* \"#utility.yul\":11228:11247   */\n      swap1\n      pop\n        /* \"#utility.yul\":10887:11253   */\n      swap2\n      swap1\n      pop\n      jump\t// out\n        /* \"#utility.yul\":11259:11678   */\n    tag_108:\n        /* \"#utility.yul\":11425:11429   */\n      0x00\n        /* \"#utility.yul\":11463:11465   */\n      0x20\n        /* \"#utility.yul\":11452:11461   */\n      dup3\n        /* \"#utility.yul\":11448:11466   */\n      add\n        /* \"#utility.yul\":11440:11466   */\n      swap1\n      pop\n        /* \"#utility.yul\":11512:11521   */\n      dup2\n        /* \"#utility.yul\":11506:11510   */\n      dup2\n        /* \"#utility.yul\":11502:11522   */\n      sub\n        /* \"#utility.yul\":11498:11499   */\n      0x00\n        /* \"#utility.yul\":11487:11496   */\n      dup4\n        /* \"#utility.yul\":11483:11500   */\n      add\n        /* \"#utility.yul\":11476:11523   */\n      mstore\n        /* \"#utility.yul\":11540:11671   */\n      tag_284\n        /* \"#utility.yul\":11666:11670   */\n      dup2\n        /* \"#utility.yul\":11540:11671   */\n      tag_175\n      jump\t// in\n    tag_284:\n        /* \"#utility.yul\":11532:11671   */\n      swap1\n      pop\n        /* \"#utility.yul\":11259:11678   */\n      swap2\n      swap1\n      pop\n      jump\t// out\n        /* \"#utility.yul\":11684:12016   */\n    tag_110:\n        /* \"#utility.yul\":11805:11809   */\n      0x00\n        /* \"#utility.yul\":11843:11845   */\n      0x40\n        /* \"#utility.yul\":11832:11841   */\n      dup3\n        /* \"#utility.yul\":11828:11846   */\n      add\n        /* \"#utility.yul\":11820:11846   */\n      swap1\n      pop\n        /* \"#utility.yul\":11856:11927   */\n      tag_286\n        /* \"#utility.yul\":11924:11925   */\n      0x00\n        /* \"#utility.yul\":11913:11922   */\n      dup4\n        /* \"#utility.yul\":11909:11926   */\n      add\n        /* \"#utility.yul\":11900:11906   */\n      dup6\n        /* \"#utility.yul\":11856:11927   */\n      tag_155\n      jump\t// in\n    tag_286:\n        /* \"#utility.yul\":11937:12009   */\n      tag_287\n        /* \"#utility.yul\":12005:12007   */\n      0x20\n        /* \"#utility.yul\":11994:12003   */\n      dup4\n        /* \"#utility.yul\":11990:12008   */\n      add\n        /* \"#utility.yul\":11981:11987   */\n      dup5\n        /* \"#utility.yul\":11937:12009   */\n      tag_148\n      jump\t// in\n    tag_287:\n        /* \"#utility.yul\":11684:12016   */\n      swap4\n      swap3\n      pop\n      pop\n      pop\n      jump\t// out\n        /* \"#utility.yul\":12022:12138   */\n    tag_176:\n        /* \"#utility.yul\":12092:12113   */\n      tag_289\n        /* \"#utility.yul\":12107:12112   */\n      dup2\n        /* \"#utility.yul\":12092:12113   */\n      tag_156\n      jump\t// in\n    tag_289:\n        /* \"#utility.yul\":12085:12090   */\n      dup2\n        /* \"#utility.yul\":12082:12114   */\n      eq\n        /* \"#utility.yul\":12072:12132   */\n      tag_290\n      jumpi\n        /* \"#utility.yul\":12128:12129   */\n      0x00\n        /* \"#utility.yul\":12125:12126   */\n      dup1\n        /* \"#utility.yul\":12118:12130   */\n      revert\n        /* \"#utility.yul\":12072:12132   */\n    tag_290:\n        /* \"#utility.yul\":12022:12138   */\n      pop\n      jump\t// out\n        /* \"#utility.yul\":12144:12281   */\n    tag_177:\n        /* \"#utility.yul\":12198:12203   */\n      0x00\n        /* \"#utility.yul\":12229:12235   */\n      dup2\n        /* \"#utility.yul\":12223:12236   */\n      mload\n        /* \"#utility.yul\":12214:12236   */\n      swap1\n      pop\n        /* \"#utility.yul\":12245:12275   */\n      tag_292\n        /* \"#utility.yul\":12269:12274   */\n      dup2\n        /* \"#utility.yul\":12245:12275   */\n      tag_176\n      jump\t// in\n    tag_292:\n        /* \"#utility.yul\":12144:12281   */\n      swap3\n      swap2\n      pop\n      pop\n      jump\t// out\n        /* \"#utility.yul\":12287:12632   */\n    tag_114:\n        /* \"#utility.yul\":12354:12360   */\n      0x00\n        /* \"#utility.yul\":12403:12405   */\n      0x20\n        /* \"#utility.yul\":12391:12400   */\n      dup3\n        /* \"#utility.yul\":12382:12389   */\n      dup5\n        /* \"#utility.yul\":12378:12401   */\n      sub\n        /* \"#utility.yul\":12374:12406   */\n      slt\n        /* \"#utility.yul\":12371:12490   */\n      iszero\n      tag_294\n      jumpi\n        /* \"#utility.yul\":12409:12488   */\n      tag_295\n      tag_150\n      jump\t// in\n    tag_295:\n        /* \"#utility.yul\":12371:12490   */\n    tag_294:\n        /* \"#utility.yul\":12529:12530   */\n      0x00\n        /* \"#utility.yul\":12554:12615   */\n      tag_296\n        /* \"#utility.yul\":12607:12614   */\n      dup5\n        /* \"#utility.yul\":12598:12604   */\n      dup3\n        /* \"#utility.yul\":12587:12596   */\n      dup6\n        /* \"#utility.yul\":12583:12605   */\n      add\n        /* \"#utility.yul\":12554:12615   */\n      tag_177\n      jump\t// in\n    tag_296:\n        /* \"#utility.yul\":12544:12615   */\n      swap2\n      pop\n        /* \"#utility.yul\":12500:12625   */\n      pop\n        /* \"#utility.yul\":12287:12632   */\n      swap3\n      swap2\n      pop\n      pop\n      jump\t// out\n        /* \"#utility.yul\":12638:12970   */\n    tag_116:\n        /* \"#utility.yul\":12759:12763   */\n      0x00\n        /* \"#utility.yul\":12797:12799   */\n      0x40\n        /* \"#utility.yul\":12786:12795   */\n      dup3\n        /* \"#utility.yul\":12782:12800   */\n      add\n        /* \"#utility.yul\":12774:12800   */\n      swap1\n      pop\n        /* \"#utility.yul\":12810:12881   */\n      tag_298\n        /* \"#utility.yul\":12878:12879   */\n      0x00\n        /* \"#utility.yul\":12867:12876   */\n      dup4\n        /* \"#utility.yul\":12863:12880   */\n      add\n        /* \"#utility.yul\":12854:12860   */\n      dup6\n        /* \"#utility.yul\":12810:12881   */\n      tag_148\n      jump\t// in\n    tag_298:\n        /* \"#utility.yul\":12891:12963   */\n      tag_299\n        /* \"#utility.yul\":12959:12961   */\n      0x20\n        /* \"#utility.yul\":12948:12957   */\n      dup4\n        /* \"#utility.yul\":12944:12962   */\n      add\n        /* \"#utility.yul\":12935:12941   */\n      dup5\n        /* \"#utility.yul\":12891:12963   */\n      tag_148\n      jump\t// in\n    tag_299:\n        /* \"#utility.yul\":12638:12970   */\n      swap4\n      swap3\n      pop\n      pop\n      pop\n      jump\t// out\n        /* \"#utility.yul\":12976:13135   */\n    tag_178:\n        /* \"#utility.yul\":13116:13127   */\n      0x4e6f74206f776e65720000000000000000000000000000000000000000000000\n        /* \"#utility.yul\":13112:13113   */\n      0x00\n        /* \"#utility.yul\":13104:13110   */\n      dup3\n        /* \"#utility.yul\":13100:13114   */\n      add\n        /* \"#utility.yul\":13093:13128   */\n      mstore\n        /* \"#utility.yul\":12976:13135   */\n      pop\n      jump\t// out\n        /* \"#utility.yul\":13141:13506   */\n    tag_179:\n        /* \"#utility.yul\":13283:13286   */\n      0x00\n        /* \"#utility.yul\":13304:13370   */\n      tag_302\n        /* \"#utility.yul\":13368:13369   */\n      0x09\n        /* \"#utility.yul\":13363:13366   */\n      dup4\n        /* \"#utility.yul\":13304:13370   */\n      tag_158\n      jump\t// in\n    tag_302:\n        /* \"#utility.yul\":13297:13370   */\n      swap2\n      pop\n        /* \"#utility.yul\":13379:13472   */\n      tag_303\n        /* \"#utility.yul\":13468:13471   */\n      dup3\n        /* \"#utility.yul\":13379:13472   */\n      tag_178\n      jump\t// in\n    tag_303:\n        /* \"#utility.yul\":13497:13499   */\n      0x20\n        /* \"#utility.yul\":13492:13495   */\n      dup3\n        /* \"#utility.yul\":13488:13500   */\n      add\n        /* \"#utility.yul\":13481:13500   */\n      swap1\n      pop\n        /* \"#utility.yul\":13141:13506   */\n      swap2\n      swap1\n      pop\n      jump\t// out\n        /* \"#utility.yul\":13512:13931   */\n    tag_120:\n        /* \"#utility.yul\":13678:13682   */\n      0x00\n        /* \"#utility.yul\":13716:13718   */\n      0x20\n        /* \"#utility.yul\":13705:13714   */\n      dup3\n        /* \"#utility.yul\":13701:13719   */\n      add\n        /* \"#utility.yul\":13693:13719   */\n      swap1\n      pop\n        /* \"#utility.yul\":13765:13774   */\n      dup2\n        /* \"#utility.yul\":13759:13763   */\n      dup2\n        /* \"#utility.yul\":13755:13775   */\n      sub\n        /* \"#utility.yul\":13751:13752   */\n      0x00\n        /* \"#utility.yul\":13740:13749   */\n      dup4\n        /* \"#utility.yul\":13736:13753   */\n      add\n        /* \"#utility.yul\":13729:13776   */\n      mstore\n        /* \"#utility.yul\":13793:13924   */\n      tag_305\n        /* \"#utility.yul\":13919:13923   */\n      dup2\n        /* \"#utility.yul\":13793:13924   */\n      tag_179\n      jump\t// in\n    tag_305:\n        /* \"#utility.yul\":13785:13924   */\n      swap1\n      pop\n        /* \"#utility.yul\":13512:13931   */\n      swap2\n      swap1\n      pop\n      jump\t// out\n\n    auxdata: 0xa26469706673582212207fad64bcad12173e99b38e1cca13836e42bb34e266faf1bd3e5790dd1f9d2f9464736f6c63430008180033\n}\n",
				"bytecode": {
					"linkReferences": {},
					"object": "608060405234801562000010575f80fd5b506040516200135e3803806200135e833981810160405281019062000036919062000179565b335f806101000a81548173ffffffffffffffffffffffffffffffffffffffff021916908373ffffffffffffffffffffffffffffffffffffffff1602179055508460015f6101000a81548173ffffffffffffffffffffffffffffffffffffffff021916908373ffffffffffffffffffffffffffffffffffffffff160217905550836002819055508260038190555081600481905550806005819055505050505050620001fd565b5f80fd5b5f73ffffffffffffffffffffffffffffffffffffffff82169050919050565b5f6200010b82620000e0565b9050919050565b6200011d81620000ff565b811462000128575f80fd5b50565b5f815190506200013b8162000112565b92915050565b5f819050919050565b620001558162000141565b811462000160575f80fd5b50565b5f8151905062000173816200014a565b92915050565b5f805f805f60a08688031215620001955762000194620000dc565b5b5f620001a4888289016200012b565b9550506020620001b78882890162000163565b9450506040620001ca8882890162000163565b9350506060620001dd8882890162000163565b9250506080620001f08882890162000163565b9150509295509295909350565b611153806200020b5f395ff3fe6080604052600436106100c5575f3560e01c806363d5502f1161007e578063977b055b11610058578063977b055b1461023a578063b187bd2614610264578063d0febe4c1461028e578063eee5592f14610298576100d4565b806363d5502f146101be57806374e7493b146101e85780638da5cb5b14610210576100d4565b8063070f5c09146100d85780631958e58a146100ee5780632c4e722e14610118578063315a095d1461014257806333b5b62e1461016a5780635ed9ebfc14610194576100d4565b366100d4576100d26102ae565b005b5f80fd5b3480156100e3575f80fd5b506100ec610696565b005b3480156100f9575f80fd5b50610102610777565b60405161010f9190610b62565b60405180910390f35b348015610123575f80fd5b5061012c61079c565b6040516101399190610b93565b60405180910390f35b34801561014d575f80fd5b5061016860048036038101906101639190610bda565b6107a2565b005b348015610175575f80fd5b5061017e6108ee565b60405161018b9190610b93565b60405180910390f35b34801561019f575f80fd5b506101a86108f4565b6040516101b59190610b93565b60405180910390f35b3480156101c9575f80fd5b506101d26108fa565b6040516101df9190610b93565b60405180910390f35b3480156101f3575f80fd5b5061020e60048036038101906102099190610bda565b610900565b005b34801561021b575f80fd5b506102246109ce565b6040516102319190610c25565b60405180910390f35b348015610245575f80fd5b5061024e6109f1565b60405161025b9190610b93565b60405180910390f35b34801561026f575f80fd5b506102786109f7565b6040516102859190610c58565b60405180910390f35b6102966102ae565b005b3480156102a3575f80fd5b506102ac610a09565b005b60075f9054906101000a900460ff16156102fd576040517f08c379a00000000000000000000000000000000000000000000000000000000081526004016102f490610ccb565b60405180910390fd5b600354341015610342576040517f08c379a000000000000000000000000000000000000000000000000000000000815260040161033990610d33565b60405180910390fd5b600454341115610387576040517f08c379a000000000000000000000000000000000000000000000000000000000815260040161037e90610d9b565b60405180910390fd5b5f600254346103969190610de6565b9050600554816006546103a99190610e27565b11156103ea576040517f08c379a00000000000000000000000000000000000000000000000000000000081526004016103e190610ea4565b60405180910390fd5b8060015f9054906101000a900473ffffffffffffffffffffffffffffffffffffffff1673ffffffffffffffffffffffffffffffffffffffff166370a08231306040518263ffffffff1660e01b81526004016104459190610c25565b602060405180830381865afa158015610460573d5f803e3d5ffd5b505050506040513d601f19601f820116820180604052508101906104849190610ed6565b10156104c5576040517f08c379a00000000000000000000000000000000000000000000000000000000081526004016104bc90610f4b565b60405180910390fd5b8060065f8282546104d69190610e27565b925050819055505f805f9054906101000a900473ffffffffffffffffffffffffffffffffffffffff1673ffffffffffffffffffffffffffffffffffffffff163460405161052290610f96565b5f6040518083038185875af1925050503d805f811461055c576040519150601f19603f3d011682016040523d82523d5f602084013e610561565b606091505b50509050806105a5576040517f08c379a000000000000000000000000000000000000000000000000000000000815260040161059c90610ff4565b60405180910390fd5b60015f9054906101000a900473ffffffffffffffffffffffffffffffffffffffff1673ffffffffffffffffffffffffffffffffffffffff1663a9059cbb33846040518363ffffffff1660e01b8152600401610601929190611012565b6020604051808303815f875af115801561061d573d5f803e3d5ffd5b505050506040513d601f19601f820116820180604052508101906106419190611063565b503373ffffffffffffffffffffffffffffffffffffffff167f8fafebcaf9d154343dad25669bfa277f4fbacd7ac6b0c4fed522580e040a0f33348460405161068a92919061108e565b60405180910390a25050565b5f8054906101000a900473ffffffffffffffffffffffffffffffffffffffff1673ffffffffffffffffffffffffffffffffffffffff163373ffffffffffffffffffffffffffffffffffffffff1614610723576040517f08c379a000000000000000000000000000000000000000000000000000000000815260040161071a906110ff565b60405180910390fd5b600160075f6101000a81548160ff0219169083151502179055507f0e2fb031ee032dc02d8011dc50b816eb450cf856abd8261680dac74f72165bd2600160405161076d9190610c58565b60405180910390a1565b60015f9054906101000a900473ffffffffffffffffffffffffffffffffffffffff1681565b60025481565b5f8054906101000a900473ffffffffffffffffffffffffffffffffffffffff1673ffffffffffffffffffffffffffffffffffffffff163373ffffffffffffffffffffffffffffffffffffffff161461082f576040517f08c379a0000000000000000000000000000000000000000000000000000000008152600401610826906110ff565b60405180910390fd5b60015f9054906101000a900473ffffffffffffffffffffffffffffffffffffffff1673ffffffffffffffffffffffffffffffffffffffff1663a9059cbb5f8054906101000a900473ffffffffffffffffffffffffffffffffffffffff16836040518363ffffffff1660e01b81526004016108aa929190611012565b6020604051808303815f875af11580156108c6573d5f803e3d5ffd5b505050506040513d601f19601f820116820180604052508101906108ea9190611063565b5050565b60035481565b60065481565b60055481565b5f8054906101000a900473ffffffffffffffffffffffffffffffffffffffff1673ffffffffffffffffffffffffffffffffffffffff163373ffffffffffffffffffffffffffffffffffffffff161461098d576040517f08c379a0000000000000000000000000000000000000000000000000000000008152600401610984906110ff565b60405180910390fd5b806002819055507f595a30f13a69b616c4d568e2a2b7875fdfe86e4300a049953c76ee278f8f3f10816040516109c39190610b93565b60405180910390a150565b5f8054906101000a900473ffffffffffffffffffffffffffffffffffffffff1681565b60045481565b60075f9054906101000a900460ff1681565b5f8054906101000a900473ffffffffffffffffffffffffffffffffffffffff1673ffffffffffffffffffffffffffffffffffffffff163373ffffffffffffffffffffffffffffffffffffffff1614610a96576040517f08c379a0000000000000000000000000000000000000000000000000000000008152600401610a8d906110ff565b60405180910390fd5b5f60075f6101000a81548160ff0219169083151502179055507f0e2fb031ee032dc02d8011dc50b816eb450cf856abd8261680dac74f72165bd25f604051610ade9190610c58565b60405180910390a1565b5f73ffffffffffffffffffffffffffffffffffffffff82169050919050565b5f819050919050565b5f610b2a610b25610b2084610ae8565b610b07565b610ae8565b9050919050565b5f610b3b82610b10565b9050919050565b5f610b4c82610b31565b9050919050565b610b5c81610b42565b82525050565b5f602082019050610b755f830184610b53565b92915050565b5f819050919050565b610b8d81610b7b565b82525050565b5f602082019050610ba65f830184610b84565b92915050565b5f80fd5b610bb981610b7b565b8114610bc3575f80fd5b50565b5f81359050610bd481610bb0565b92915050565b5f60208284031215610bef57610bee610bac565b5b5f610bfc84828501610bc6565b91505092915050565b5f610c0f82610ae8565b9050919050565b610c1f81610c05565b82525050565b5f602082019050610c385f830184610c16565b92915050565b5f8115159050919050565b610c5281610c3e565b82525050565b5f602082019050610c6b5f830184610c49565b92915050565b5f82825260208201905092915050565b7f50726573616c65207061757365640000000000000000000000000000000000005f82015250565b5f610cb5600e83610c71565b9150610cc082610c81565b602082019050919050565b5f6020820190508181035f830152610ce281610ca9565b9050919050565b7f42656c6f77206d696e696d756d207075726368617365000000000000000000005f82015250565b5f610d1d601683610c71565b9150610d2882610ce9565b602082019050919050565b5f6020820190508181035f830152610d4a81610d11565b9050919050565b7f41626f7665206d6178696d756d207075726368617365000000000000000000005f82015250565b5f610d85601683610c71565b9150610d9082610d51565b602082019050919050565b5f6020820190508181035f830152610db281610d79565b9050919050565b7f4e487b71000000000000000000000000000000000000000000000000000000005f52601160045260245ffd5b5f610df082610b7b565b9150610dfb83610b7b565b9250828202610e0981610b7b565b91508282048414831517610e2057610e1f610db9565b5b5092915050565b5f610e3182610b7b565b9150610e3c83610b7b565b9250828201905080821115610e5457610e53610db9565b5b92915050565b7f50726573616c65206361702072656163686564000000000000000000000000005f82015250565b5f610e8e601383610c71565b9150610e9982610e5a565b602082019050919050565b5f6020820190508181035f830152610ebb81610e82565b9050919050565b5f81519050610ed081610bb0565b92915050565b5f60208284031215610eeb57610eea610bac565b5b5f610ef884828501610ec2565b91505092915050565b7f4e6f7420656e6f75676820746f6b656e7320696e20636f6e74726163740000005f82015250565b5f610f35601d83610c71565b9150610f4082610f01565b602082019050919050565b5f6020820190508181035f830152610f6281610f29565b9050919050565b5f81905092915050565b50565b5f610f815f83610f69565b9150610f8c82610f73565b5f82019050919050565b5f610fa082610f76565b9150819050919050565b7f4661696c656420746f2073656e64204d415449430000000000000000000000005f82015250565b5f610fde601483610c71565b9150610fe982610faa565b602082019050919050565b5f6020820190508181035f83015261100b81610fd2565b9050919050565b5f6040820190506110255f830185610c16565b6110326020830184610b84565b9392505050565b61104281610c3e565b811461104c575f80fd5b50565b5f8151905061105d81611039565b92915050565b5f6020828403121561107857611077610bac565b5b5f6110858482850161104f565b91505092915050565b5f6040820190506110a15f830185610b84565b6110ae6020830184610b84565b9392505050565b7f4e6f74206f776e657200000000000000000000000000000000000000000000005f82015250565b5f6110e9600983610c71565b91506110f4826110b5565b602082019050919050565b5f6020820190508181035f830152611116816110dd565b905091905056fea26469706673582212207fad64bcad12173e99b38e1cca13836e42bb34e266faf1bd3e5790dd1f9d2f9464736f6c63430008180033",
					"opcodes": "PUSH1 0x80 PUSH1 0x40 MSTORE CALLVALUE DUP1 ISZERO PUSH3 0x10 JUMPI PUSH0 DUP1 REVERT JUMPDEST POP PUSH1 0x40 MLOAD PUSH3 0x135E CODESIZE SUB DUP1 PUSH3 0x135E DUP4 CODECOPY DUP2 DUP2 ADD PUSH1 0x40 MSTORE DUP2 ADD SWAP1 PUSH3 0x36 SWAP2 SWAP1 PUSH3 0x179 JUMP JUMPDEST CALLER PUSH0 DUP1 PUSH2 0x100 EXP DUP2 SLOAD DUP2 PUSH20 0xFFFFFFFFFFFFFFFFFFFFFFFFFFFFFFFFFFFFFFFF MUL NOT AND SWAP1 DUP4 PUSH20 0xFFFFFFFFFFFFFFFFFFFFFFFFFFFFFFFFFFFFFFFF AND MUL OR SWAP1 SSTORE POP DUP5 PUSH1 0x1 PUSH0 PUSH2 0x100 EXP DUP2 SLOAD DUP2 PUSH20 0xFFFFFFFFFFFFFFFFFFFFFFFFFFFFFFFFFFFFFFFF MUL NOT AND SWAP1 DUP4 PUSH20 0xFFFFFFFFFFFFFFFFFFFFFFFFFFFFFFFFFFFFFFFF AND MUL OR SWAP1 SSTORE POP DUP4 PUSH1 0x2 DUP2 SWAP1 SSTORE POP DUP3 PUSH1 0x3 DUP2 SWAP1 SSTORE POP DUP2 PUSH1 0x4 DUP2 SWAP1 SSTORE POP DUP1 PUSH1 0x5 DUP2 SWAP1 SSTORE POP POP POP POP POP POP PUSH3 0x1FD JUMP JUMPDEST PUSH0 DUP1 REVERT JUMPDEST PUSH0 PUSH20 0xFFFFFFFFFFFFFFFFFFFFFFFFFFFFFFFFFFFFFFFF DUP3 AND SWAP1 POP SWAP2 SWAP1 POP JUMP JUMPDEST PUSH0 PUSH3 0x10B DUP3 PUSH3 0xE0 JUMP JUMPDEST SWAP1 POP SWAP2 SWAP1 POP JUMP JUMPDEST PUSH3 0x11D DUP2 PUSH3 0xFF JUMP JUMPDEST DUP2 EQ PUSH3 0x128 JUMPI PUSH0 DUP1 REVERT JUMPDEST POP JUMP JUMPDEST PUSH0 DUP2 MLOAD SWAP1 POP PUSH3 0x13B DUP2 PUSH3 0x112 JUMP JUMPDEST SWAP3 SWAP2 POP POP JUMP JUMPDEST PUSH0 DUP2 SWAP1 POP SWAP2 SWAP1 POP JUMP JUMPDEST PUSH3 0x155 DUP2 PUSH3 0x141 JUMP JUMPDEST DUP2 EQ PUSH3 0x160 JUMPI PUSH0 DUP1 REVERT JUMPDEST POP JUMP JUMPDEST PUSH0 DUP2 MLOAD SWAP1 POP PUSH3 0x173 DUP2 PUSH3 0x14A JUMP JUMPDEST SWAP3 SWAP2 POP POP JUMP JUMPDEST PUSH0 DUP1 PUSH0 DUP1 PUSH0 PUSH1 0xA0 DUP7 DUP9 SUB SLT ISZERO PUSH3 0x195 JUMPI PUSH3 0x194 PUSH3 0xDC JUMP JUMPDEST JUMPDEST PUSH0 PUSH3 0x1A4 DUP9 DUP3 DUP10 ADD PUSH3 0x12B JUMP JUMPDEST SWAP6 POP POP PUSH1 0x20 PUSH3 0x1B7 DUP9 DUP3 DUP10 ADD PUSH3 0x163 JUMP JUMPDEST SWAP5 POP POP PUSH1 0x40 PUSH3 0x1CA DUP9 DUP3 DUP10 ADD PUSH3 0x163 JUMP JUMPDEST SWAP4 POP POP PUSH1 0x60 PUSH3 0x1DD DUP9 DUP3 DUP10 ADD PUSH3 0x163 JUMP JUMPDEST SWAP3 POP POP PUSH1 0x80 PUSH3 0x1F0 DUP9 DUP3 DUP10 ADD PUSH3 0x163 JUMP JUMPDEST SWAP2 POP POP SWAP3 SWAP6 POP SWAP3 SWAP6 SWAP1 SWAP4 POP JUMP JUMPDEST PUSH2 0x1153 DUP1 PUSH3 0x20B PUSH0 CODECOPY PUSH0 RETURN INVALID PUSH1 0x80 PUSH1 0x40 MSTORE PUSH1 0x4 CALLDATASIZE LT PUSH2 0xC5 JUMPI PUSH0 CALLDATALOAD PUSH1 0xE0 SHR DUP1 PUSH4 0x63D5502F GT PUSH2 0x7E JUMPI DUP1 PUSH4 0x977B055B GT PUSH2 0x58 JUMPI DUP1 PUSH4 0x977B055B EQ PUSH2 0x23A JUMPI DUP1 PUSH4 0xB187BD26 EQ PUSH2 0x264 JUMPI DUP1 PUSH4 0xD0FEBE4C EQ PUSH2 0x28E JUMPI DUP1 PUSH4 0xEEE5592F EQ PUSH2 0x298 JUMPI PUSH2 0xD4 JUMP JUMPDEST DUP1 PUSH4 0x63D5502F EQ PUSH2 0x1BE JUMPI DUP1 PUSH4 0x74E7493B EQ PUSH2 0x1E8 JUMPI DUP1 PUSH4 0x8DA5CB5B EQ PUSH2 0x210 JUMPI PUSH2 0xD4 JUMP JUMPDEST DUP1 PUSH4 0x70F5C09 EQ PUSH2 0xD8 JUMPI DUP1 PUSH4 0x1958E58A EQ PUSH2 0xEE JUMPI DUP1 PUSH4 0x2C4E722E EQ PUSH2 0x118 JUMPI DUP1 PUSH4 0x315A095D EQ PUSH2 0x142 JUMPI DUP1 PUSH4 0x33B5B62E EQ PUSH2 0x16A JUMPI DUP1 PUSH4 0x5ED9EBFC EQ PUSH2 0x194 JUMPI PUSH2 0xD4 JUMP JUMPDEST CALLDATASIZE PUSH2 0xD4 JUMPI PUSH2 0xD2 PUSH2 0x2AE JUMP JUMPDEST STOP JUMPDEST PUSH0 DUP1 REVERT JUMPDEST CALLVALUE DUP1 ISZERO PUSH2 0xE3 JUMPI PUSH0 DUP1 REVERT JUMPDEST POP PUSH2 0xEC PUSH2 0x696 JUMP JUMPDEST STOP JUMPDEST CALLVALUE DUP1 ISZERO PUSH2 0xF9 JUMPI PUSH0 DUP1 REVERT JUMPDEST POP PUSH2 0x102 PUSH2 0x777 JUMP JUMPDEST PUSH1 0x40 MLOAD PUSH2 0x10F SWAP2 SWAP1 PUSH2 0xB62 JUMP JUMPDEST PUSH1 0x40 MLOAD DUP1 SWAP2 SUB SWAP1 RETURN JUMPDEST CALLVALUE DUP1 ISZERO PUSH2 0x123 JUMPI PUSH0 DUP1 REVERT JUMPDEST POP PUSH2 0x12C PUSH2 0x79C JUMP JUMPDEST PUSH1 0x40 MLOAD PUSH2 0x139 SWAP2 SWAP1 PUSH2 0xB93 JUMP JUMPDEST PUSH1 0x40 MLOAD DUP1 SWAP2 SUB SWAP1 RETURN JUMPDEST CALLVALUE DUP1 ISZERO PUSH2 0x14D JUMPI PUSH0 DUP1 REVERT JUMPDEST POP PUSH2 0x168 PUSH1 0x4 DUP1 CALLDATASIZE SUB DUP2 ADD SWAP1 PUSH2 0x163 SWAP2 SWAP1 PUSH2 0xBDA JUMP JUMPDEST PUSH2 0x7A2 JUMP JUMPDEST STOP JUMPDEST CALLVALUE DUP1 ISZERO PUSH2 0x175 JUMPI PUSH0 DUP1 REVERT JUMPDEST POP PUSH2 0x17E PUSH2 0x8EE JUMP JUMPDEST PUSH1 0x40 MLOAD PUSH2 0x18B SWAP2 SWAP1 PUSH2 0xB93 JUMP JUMPDEST PUSH1 0x40 MLOAD DUP1 SWAP2 SUB SWAP1 RETURN JUMPDEST CALLVALUE DUP1 ISZERO PUSH2 0x19F JUMPI PUSH0 DUP1 REVERT JUMPDEST POP PUSH2 0x1A8 PUSH2 0x8F4 JUMP JUMPDEST PUSH1 0x40 MLOAD PUSH2 0x1B5 SWAP2 SWAP1 PUSH2 0xB93 JUMP JUMPDEST PUSH1 0x40 MLOAD DUP1 SWAP2 SUB SWAP1 RETURN JUMPDEST CALLVALUE DUP1 ISZERO PUSH2 0x1C9 JUMPI PUSH0 DUP1 REVERT JUMPDEST POP PUSH2 0x1D2 PUSH2 0x8FA JUMP JUMPDEST PUSH1 0x40 MLOAD PUSH2 0x1DF SWAP2 SWAP1 PUSH2 0xB93 JUMP JUMPDEST PUSH1 0x40 MLOAD DUP1 SWAP2 SUB SWAP1 RETURN JUMPDEST CALLVALUE DUP1 ISZERO PUSH2 0x1F3 JUMPI PUSH0 DUP1 REVERT JUMPDEST POP PUSH2 0x20E PUSH1 0x4 DUP1 CALLDATASIZE SUB DUP2 ADD SWAP1 PUSH2 0x209 SWAP2 SWAP1 PUSH2 0xBDA JUMP JUMPDEST PUSH2 0x900 JUMP JUMPDEST STOP JUMPDEST CALLVALUE DUP1 ISZERO PUSH2 0x21B JUMPI PUSH0 DUP1 REVERT JUMPDEST POP PUSH2 0x224 PUSH2 0x9CE JUMP JUMPDEST PUSH1 0x40 MLOAD PUSH2 0x231 SWAP2 SWAP1 PUSH2 0xC25 JUMP JUMPDEST PUSH1 0x40 MLOAD DUP1 SWAP2 SUB SWAP1 RETURN JUMPDEST CALLVALUE DUP1 ISZERO PUSH2 0x245 JUMPI PUSH0 DUP1 REVERT JUMPDEST POP PUSH2 0x24E PUSH2 0x9F1 JUMP JUMPDEST PUSH1 0x40 MLOAD PUSH2 0x25B SWAP2 SWAP1 PUSH2 0xB93 JUMP JUMPDEST PUSH1 0x40 MLOAD DUP1 SWAP2 SUB SWAP1 RETURN JUMPDEST CALLVALUE DUP1 ISZERO PUSH2 0x26F JUMPI PUSH0 DUP1 REVERT JUMPDEST POP PUSH2 0x278 PUSH2 0x9F7 JUMP JUMPDEST PUSH1 0x40 MLOAD PUSH2 0x285 SWAP2 SWAP1 PUSH2 0xC58 JUMP JUMPDEST PUSH1 0x40 MLOAD DUP1 SWAP2 SUB SWAP1 RETURN JUMPDEST PUSH2 0x296 PUSH2 0x2AE JUMP JUMPDEST STOP JUMPDEST CALLVALUE DUP1 ISZERO PUSH2 0x2A3 JUMPI PUSH0 DUP1 REVERT JUMPDEST POP PUSH2 0x2AC PUSH2 0xA09 JUMP JUMPDEST STOP JUMPDEST PUSH1 0x7 PUSH0 SWAP1 SLOAD SWAP1 PUSH2 0x100 EXP SWAP1 DIV PUSH1 0xFF AND ISZERO PUSH2 0x2FD JUMPI PUSH1 0x40 MLOAD PUSH32 0x8C379A000000000000000000000000000000000000000000000000000000000 DUP2 MSTORE PUSH1 0x4 ADD PUSH2 0x2F4 SWAP1 PUSH2 0xCCB JUMP JUMPDEST PUSH1 0x40 MLOAD DUP1 SWAP2 SUB SWAP1 REVERT JUMPDEST PUSH1 0x3 SLOAD CALLVALUE LT ISZERO PUSH2 0x342 JUMPI PUSH1 0x40 MLOAD PUSH32 0x8C379A000000000000000000000000000000000000000000000000000000000 DUP2 MSTORE PUSH1 0x4 ADD PUSH2 0x339 SWAP1 PUSH2 0xD33 JUMP JUMPDEST PUSH1 0x40 MLOAD DUP1 SWAP2 SUB SWAP1 REVERT JUMPDEST PUSH1 0x4 SLOAD CALLVALUE GT ISZERO PUSH2 0x387 JUMPI PUSH1 0x40 MLOAD PUSH32 0x8C379A000000000000000000000000000000000000000000000000000000000 DUP2 MSTORE PUSH1 0x4 ADD PUSH2 0x37E SWAP1 PUSH2 0xD9B JUMP JUMPDEST PUSH1 0x40 MLOAD DUP1 SWAP2 SUB SWAP1 REVERT JUMPDEST PUSH0 PUSH1 0x2 SLOAD CALLVALUE PUSH2 0x396 SWAP2 SWAP1 PUSH2 0xDE6 JUMP JUMPDEST SWAP1 POP PUSH1 0x5 SLOAD DUP2 PUSH1 0x6 SLOAD PUSH2 0x3A9 SWAP2 SWAP1 PUSH2 0xE27 JUMP JUMPDEST GT ISZERO PUSH2 0x3EA JUMPI PUSH1 0x40 MLOAD PUSH32 0x8C379A000000000000000000000000000000000000000000000000000000000 DUP2 MSTORE PUSH1 0x4 ADD PUSH2 0x3E1 SWAP1 PUSH2 0xEA4 JUMP JUMPDEST PUSH1 0x40 MLOAD DUP1 SWAP2 SUB SWAP1 REVERT JUMPDEST DUP1 PUSH1 0x1 PUSH0 SWAP1 SLOAD SWAP1 PUSH2 0x100 EXP SWAP1 DIV PUSH20 0xFFFFFFFFFFFFFFFFFFFFFFFFFFFFFFFFFFFFFFFF AND PUSH20 0xFFFFFFFFFFFFFFFFFFFFFFFFFFFFFFFFFFFFFFFF AND PUSH4 0x70A08231 ADDRESS PUSH1 0x40 MLOAD DUP3 PUSH4 0xFFFFFFFF AND PUSH1 0xE0 SHL DUP2 MSTORE PUSH1 0x4 ADD PUSH2 0x445 SWAP2 SWAP1 PUSH2 0xC25 JUMP JUMPDEST PUSH1 0x20 PUSH1 0x40 MLOAD DUP1 DUP4 SUB DUP2 DUP7 GAS STATICCALL ISZERO DUP1 ISZERO PUSH2 0x460 JUMPI RETURNDATASIZE PUSH0 DUP1 RETURNDATACOPY RETURNDATASIZE PUSH0 REVERT JUMPDEST POP POP POP POP PUSH1 0x40 MLOAD RETURNDATASIZE PUSH1 0x1F NOT PUSH1 0x1F DUP3 ADD AND DUP3 ADD DUP1 PUSH1 0x40 MSTORE POP DUP2 ADD SWAP1 PUSH2 0x484 SWAP2 SWAP1 PUSH2 0xED6 JUMP JUMPDEST LT ISZERO PUSH2 0x4C5 JUMPI PUSH1 0x40 MLOAD PUSH32 0x8C379A000000000000000000000000000000000000000000000000000000000 DUP2 MSTORE PUSH1 0x4 ADD PUSH2 0x4BC SWAP1 PUSH2 0xF4B JUMP JUMPDEST PUSH1 0x40 MLOAD DUP1 SWAP2 SUB SWAP1 REVERT JUMPDEST DUP1 PUSH1 0x6 PUSH0 DUP3 DUP3 SLOAD PUSH2 0x4D6 SWAP2 SWAP1 PUSH2 0xE27 JUMP JUMPDEST SWAP3 POP POP DUP2 SWAP1 SSTORE POP PUSH0 DUP1 PUSH0 SWAP1 SLOAD SWAP1 PUSH2 0x100 EXP SWAP1 DIV PUSH20 0xFFFFFFFFFFFFFFFFFFFFFFFFFFFFFFFFFFFFFFFF AND PUSH20 0xFFFFFFFFFFFFFFFFFFFFFFFFFFFFFFFFFFFFFFFF AND CALLVALUE PUSH1 0x40 MLOAD PUSH2 0x522 SWAP1 PUSH2 0xF96 JUMP JUMPDEST PUSH0 PUSH1 0x40 MLOAD DUP1 DUP4 SUB DUP2 DUP6 DUP8 GAS CALL SWAP3 POP POP POP RETURNDATASIZE DUP1 PUSH0 DUP2 EQ PUSH2 0x55C JUMPI PUSH1 0x40 MLOAD SWAP2 POP PUSH1 0x1F NOT PUSH1 0x3F RETURNDATASIZE ADD AND DUP3 ADD PUSH1 0x40 MSTORE RETURNDATASIZE DUP3 MSTORE RETURNDATASIZE PUSH0 PUSH1 0x20 DUP5 ADD RETURNDATACOPY PUSH2 0x561 JUMP JUMPDEST PUSH1 0x60 SWAP2 POP JUMPDEST POP POP SWAP1 POP DUP1 PUSH2 0x5A5 JUMPI PUSH1 0x40 MLOAD PUSH32 0x8C379A000000000000000000000000000000000000000000000000000000000 DUP2 MSTORE PUSH1 0x4 ADD PUSH2 0x59C SWAP1 PUSH2 0xFF4 JUMP JUMPDEST PUSH1 0x40 MLOAD DUP1 SWAP2 SUB SWAP1 REVERT JUMPDEST PUSH1 0x1 PUSH0 SWAP1 SLOAD SWAP1 PUSH2 0x100 EXP SWAP1 DIV PUSH20 0xFFFFFFFFFFFFFFFFFFFFFFFFFFFFFFFFFFFFFFFF AND PUSH20 0xFFFFFFFFFFFFFFFFFFFFFFFFFFFFFFFFFFFFFFFF AND PUSH4 0xA9059CBB CALLER DUP5 PUSH1 0x40 MLOAD DUP4 PUSH4 0xFFFFFFFF AND PUSH1 0xE0 SHL DUP2 MSTORE PUSH1 0x4 ADD PUSH2 0x601 SWAP3 SWAP2 SWAP1 PUSH2 0x1012 JUMP JUMPDEST PUSH1 0x20 PUSH1 0x40 MLOAD DUP1 DUP4 SUB DUP2 PUSH0 DUP8 GAS CALL ISZERO DUP1 ISZERO PUSH2 0x61D JUMPI RETURNDATASIZE PUSH0 DUP1 RETURNDATACOPY RETURNDATASIZE PUSH0 REVERT JUMPDEST POP POP POP POP PUSH1 0x40 MLOAD RETURNDATASIZE PUSH1 0x1F NOT PUSH1 0x1F DUP3 ADD AND DUP3 ADD DUP1 PUSH1 0x40 MSTORE POP DUP2 ADD SWAP1 PUSH2 0x641 SWAP2 SWAP1 PUSH2 0x1063 JUMP JUMPDEST POP CALLER PUSH20 0xFFFFFFFFFFFFFFFFFFFFFFFFFFFFFFFFFFFFFFFF AND PUSH32 0x8FAFEBCAF9D154343DAD25669BFA277F4FBACD7AC6B0C4FED522580E040A0F33 CALLVALUE DUP5 PUSH1 0x40 MLOAD PUSH2 0x68A SWAP3 SWAP2 SWAP1 PUSH2 0x108E JUMP JUMPDEST PUSH1 0x40 MLOAD DUP1 SWAP2 SUB SWAP1 LOG2 POP POP JUMP JUMPDEST PUSH0 DUP1 SLOAD SWAP1 PUSH2 0x100 EXP SWAP1 DIV PUSH20 0xFFFFFFFFFFFFFFFFFFFFFFFFFFFFFFFFFFFFFFFF AND PUSH20 0xFFFFFFFFFFFFFFFFFFFFFFFFFFFFFFFFFFFFFFFF AND CALLER PUSH20 0xFFFFFFFFFFFFFFFFFFFFFFFFFFFFFFFFFFFFFFFF AND EQ PUSH2 0x723 JUMPI PUSH1 0x40 MLOAD PUSH32 0x8C379A000000000000000000000000000000000000000000000000000000000 DUP2 MSTORE PUSH1 0x4 ADD PUSH2 0x71A SWAP1 PUSH2 0x10FF JUMP JUMPDEST PUSH1 0x40 MLOAD DUP1 SWAP2 SUB SWAP1 REVERT JUMPDEST PUSH1 0x1 PUSH1 0x7 PUSH0 PUSH2 0x100 EXP DUP2 SLOAD DUP2 PUSH1 0xFF MUL NOT AND SWAP1 DUP4 ISZERO ISZERO MUL OR SWAP1 SSTORE POP PUSH32 0xE2FB031EE032DC02D8011DC50B816EB450CF856ABD8261680DAC74F72165BD2 PUSH1 0x1 PUSH1 0x40 MLOAD PUSH2 0x76D SWAP2 SWAP1 PUSH2 0xC58 JUMP JUMPDEST PUSH1 0x40 MLOAD DUP1 SWAP2 SUB SWAP1 LOG1 JUMP JUMPDEST PUSH1 0x1 PUSH0 SWAP1 SLOAD SWAP1 PUSH2 0x100 EXP SWAP1 DIV PUSH20 0xFFFFFFFFFFFFFFFFFFFFFFFFFFFFFFFFFFFFFFFF AND DUP2 JUMP JUMPDEST PUSH1 0x2 SLOAD DUP2 JUMP JUMPDEST PUSH0 DUP1 SLOAD SWAP1 PUSH2 0x100 EXP SWAP1 DIV PUSH20 0xFFFFFFFFFFFFFFFFFFFFFFFFFFFFFFFFFFFFFFFF AND PUSH20 0xFFFFFFFFFFFFFFFFFFFFFFFFFFFFFFFFFFFFFFFF AND CALLER PUSH20 0xFFFFFFFFFFFFFFFFFFFFFFFFFFFFFFFFFFFFFFFF AND EQ PUSH2 0x82F JUMPI PUSH1 0x40 MLOAD PUSH32 0x8C379A000000000000000000000000000000000000000000000000000000000 DUP2 MSTORE PUSH1 0x4 ADD PUSH2 0x826 SWAP1 PUSH2 0x10FF JUMP JUMPDEST PUSH1 0x40 MLOAD DUP1 SWAP2 SUB SWAP1 REVERT JUMPDEST PUSH1 0x1 PUSH0 SWAP1 SLOAD SWAP1 PUSH2 0x100 EXP SWAP1 DIV PUSH20 0xFFFFFFFFFFFFFFFFFFFFFFFFFFFFFFFFFFFFFFFF AND PUSH20 0xFFFFFFFFFFFFFFFFFFFFFFFFFFFFFFFFFFFFFFFF AND PUSH4 0xA9059CBB PUSH0 DUP1 SLOAD SWAP1 PUSH2 0x100 EXP SWAP1 DIV PUSH20 0xFFFFFFFFFFFFFFFFFFFFFFFFFFFFFFFFFFFFFFFF AND DUP4 PUSH1 0x40 MLOAD DUP4 PUSH4 0xFFFFFFFF AND PUSH1 0xE0 SHL DUP2 MSTORE PUSH1 0x4 ADD PUSH2 0x8AA SWAP3 SWAP2 SWAP1 PUSH2 0x1012 JUMP JUMPDEST PUSH1 0x20 PUSH1 0x40 MLOAD DUP1 DUP4 SUB DUP2 PUSH0 DUP8 GAS CALL ISZERO DUP1 ISZERO PUSH2 0x8C6 JUMPI RETURNDATASIZE PUSH0 DUP1 RETURNDATACOPY RETURNDATASIZE PUSH0 REVERT JUMPDEST POP POP POP POP PUSH1 0x40 MLOAD RETURNDATASIZE PUSH1 0x1F NOT PUSH1 0x1F DUP3 ADD AND DUP3 ADD DUP1 PUSH1 0x40 MSTORE POP DUP2 ADD SWAP1 PUSH2 0x8EA SWAP2 SWAP1 PUSH2 0x1063 JUMP JUMPDEST POP POP JUMP JUMPDEST PUSH1 0x3 SLOAD DUP2 JUMP JUMPDEST PUSH1 0x6 SLOAD DUP2 JUMP JUMPDEST PUSH1 0x5 SLOAD DUP2 JUMP JUMPDEST PUSH0 DUP1 SLOAD SWAP1 PUSH2 0x100 EXP SWAP1 DIV PUSH20 0xFFFFFFFFFFFFFFFFFFFFFFFFFFFFFFFFFFFFFFFF AND PUSH20 0xFFFFFFFFFFFFFFFFFFFFFFFFFFFFFFFFFFFFFFFF AND CALLER PUSH20 0xFFFFFFFFFFFFFFFFFFFFFFFFFFFFFFFFFFFFFFFF AND EQ PUSH2 0x98D JUMPI PUSH1 0x40 MLOAD PUSH32 0x8C379A000000000000000000000000000000000000000000000000000000000 DUP2 MSTORE PUSH1 0x4 ADD PUSH2 0x984 SWAP1 PUSH2 0x10FF JUMP JUMPDEST PUSH1 0x40 MLOAD DUP1 SWAP2 SUB SWAP1 REVERT JUMPDEST DUP1 PUSH1 0x2 DUP2 SWAP1 SSTORE POP PUSH32 0x595A30F13A69B616C4D568E2A2B7875FDFE86E4300A049953C76EE278F8F3F10 DUP2 PUSH1 0x40 MLOAD PUSH2 0x9C3 SWAP2 SWAP1 PUSH2 0xB93 JUMP JUMPDEST PUSH1 0x40 MLOAD DUP1 SWAP2 SUB SWAP1 LOG1 POP JUMP JUMPDEST PUSH0 DUP1 SLOAD SWAP1 PUSH2 0x100 EXP SWAP1 DIV PUSH20 0xFFFFFFFFFFFFFFFFFFFFFFFFFFFFFFFFFFFFFFFF AND DUP2 JUMP JUMPDEST PUSH1 0x4 SLOAD DUP2 JUMP JUMPDEST PUSH1 0x7 PUSH0 SWAP1 SLOAD SWAP1 PUSH2 0x100 EXP SWAP1 DIV PUSH1 0xFF AND DUP2 JUMP JUMPDEST PUSH0 DUP1 SLOAD SWAP1 PUSH2 0x100 EXP SWAP1 DIV PUSH20 0xFFFFFFFFFFFFFFFFFFFFFFFFFFFFFFFFFFFFFFFF AND PUSH20 0xFFFFFFFFFFFFFFFFFFFFFFFFFFFFFFFFFFFFFFFF AND CALLER PUSH20 0xFFFFFFFFFFFFFFFFFFFFFFFFFFFFFFFFFFFFFFFF AND EQ PUSH2 0xA96 JUMPI PUSH1 0x40 MLOAD PUSH32 0x8C379A000000000000000000000000000000000000000000000000000000000 DUP2 MSTORE PUSH1 0x4 ADD PUSH2 0xA8D SWAP1 PUSH2 0x10FF JUMP JUMPDEST PUSH1 0x40 MLOAD DUP1 SWAP2 SUB SWAP1 REVERT JUMPDEST PUSH0 PUSH1 0x7 PUSH0 PUSH2 0x100 EXP DUP2 SLOAD DUP2 PUSH1 0xFF MUL NOT AND SWAP1 DUP4 ISZERO ISZERO MUL OR SWAP1 SSTORE POP PUSH32 0xE2FB031EE032DC02D8011DC50B816EB450CF856ABD8261680DAC74F72165BD2 PUSH0 PUSH1 0x40 MLOAD PUSH2 0xADE SWAP2 SWAP1 PUSH2 0xC58 JUMP JUMPDEST PUSH1 0x40 MLOAD DUP1 SWAP2 SUB SWAP1 LOG1 JUMP JUMPDEST PUSH0 PUSH20 0xFFFFFFFFFFFFFFFFFFFFFFFFFFFFFFFFFFFFFFFF DUP3 AND SWAP1 POP SWAP2 SWAP1 POP JUMP JUMPDEST PUSH0 DUP2 SWAP1 POP SWAP2 SWAP1 POP JUMP JUMPDEST PUSH0 PUSH2 0xB2A PUSH2 0xB25 PUSH2 0xB20 DUP5 PUSH2 0xAE8 JUMP JUMPDEST PUSH2 0xB07 JUMP JUMPDEST PUSH2 0xAE8 JUMP JUMPDEST SWAP1 POP SWAP2 SWAP1 POP JUMP JUMPDEST PUSH0 PUSH2 0xB3B DUP3 PUSH2 0xB10 JUMP JUMPDEST SWAP1 POP SWAP2 SWAP1 POP JUMP JUMPDEST PUSH0 PUSH2 0xB4C DUP3 PUSH2 0xB31 JUMP JUMPDEST SWAP1 POP SWAP2 SWAP1 POP JUMP JUMPDEST PUSH2 0xB5C DUP2 PUSH2 0xB42 JUMP JUMPDEST DUP3 MSTORE POP POP JUMP JUMPDEST PUSH0 PUSH1 0x20 DUP3 ADD SWAP1 POP PUSH2 0xB75 PUSH0 DUP4 ADD DUP5 PUSH2 0xB53 JUMP JUMPDEST SWAP3 SWAP2 POP POP JUMP JUMPDEST PUSH0 DUP2 SWAP1 POP SWAP2 SWAP1 POP JUMP JUMPDEST PUSH2 0xB8D DUP2 PUSH2 0xB7B JUMP JUMPDEST DUP3 MSTORE POP POP JUMP JUMPDEST PUSH0 PUSH1 0x20 DUP3 ADD SWAP1 POP PUSH2 0xBA6 PUSH0 DUP4 ADD DUP5 PUSH2 0xB84 JUMP JUMPDEST SWAP3 SWAP2 POP POP JUMP JUMPDEST PUSH0 DUP1 REVERT JUMPDEST PUSH2 0xBB9 DUP2 PUSH2 0xB7B JUMP JUMPDEST DUP2 EQ PUSH2 0xBC3 JUMPI PUSH0 DUP1 REVERT JUMPDEST POP JUMP JUMPDEST PUSH0 DUP2 CALLDATALOAD SWAP1 POP PUSH2 0xBD4 DUP2 PUSH2 0xBB0 JUMP JUMPDEST SWAP3 SWAP2 POP POP JUMP JUMPDEST PUSH0 PUSH1 0x20 DUP3 DUP5 SUB SLT ISZERO PUSH2 0xBEF JUMPI PUSH2 0xBEE PUSH2 0xBAC JUMP JUMPDEST JUMPDEST PUSH0 PUSH2 0xBFC DUP5 DUP3 DUP6 ADD PUSH2 0xBC6 JUMP JUMPDEST SWAP2 POP POP SWAP3 SWAP2 POP POP JUMP JUMPDEST PUSH0 PUSH2 0xC0F DUP3 PUSH2 0xAE8 JUMP JUMPDEST SWAP1 POP SWAP2 SWAP1 POP JUMP JUMPDEST PUSH2 0xC1F DUP2 PUSH2 0xC05 JUMP JUMPDEST DUP3 MSTORE POP POP JUMP JUMPDEST PUSH0 PUSH1 0x20 DUP3 ADD SWAP1 POP PUSH2 0xC38 PUSH0 DUP4 ADD DUP5 PUSH2 0xC16 JUMP JUMPDEST SWAP3 SWAP2 POP POP JUMP JUMPDEST PUSH0 DUP2 ISZERO ISZERO SWAP1 POP SWAP2 SWAP1 POP JUMP JUMPDEST PUSH2 0xC52 DUP2 PUSH2 0xC3E JUMP JUMPDEST DUP3 MSTORE POP POP JUMP JUMPDEST PUSH0 PUSH1 0x20 DUP3 ADD SWAP1 POP PUSH2 0xC6B PUSH0 DUP4 ADD DUP5 PUSH2 0xC49 JUMP JUMPDEST SWAP3 SWAP2 POP POP JUMP JUMPDEST PUSH0 DUP3 DUP3 MSTORE PUSH1 0x20 DUP3 ADD SWAP1 POP SWAP3 SWAP2 POP POP JUMP JUMPDEST PUSH32 0x50726573616C6520706175736564000000000000000000000000000000000000 PUSH0 DUP3 ADD MSTORE POP JUMP JUMPDEST PUSH0 PUSH2 0xCB5 PUSH1 0xE DUP4 PUSH2 0xC71 JUMP JUMPDEST SWAP2 POP PUSH2 0xCC0 DUP3 PUSH2 0xC81 JUMP JUMPDEST PUSH1 0x20 DUP3 ADD SWAP1 POP SWAP2 SWAP1 POP JUMP JUMPDEST PUSH0 PUSH1 0x20 DUP3 ADD SWAP1 POP DUP2 DUP2 SUB PUSH0 DUP4 ADD MSTORE PUSH2 0xCE2 DUP2 PUSH2 0xCA9 JUMP JUMPDEST SWAP1 POP SWAP2 SWAP1 POP JUMP JUMPDEST PUSH32 0x42656C6F77206D696E696D756D20707572636861736500000000000000000000 PUSH0 DUP3 ADD MSTORE POP JUMP JUMPDEST PUSH0 PUSH2 0xD1D PUSH1 0x16 DUP4 PUSH2 0xC71 JUMP JUMPDEST SWAP2 POP PUSH2 0xD28 DUP3 PUSH2 0xCE9 JUMP JUMPDEST PUSH1 0x20 DUP3 ADD SWAP1 POP SWAP2 SWAP1 POP JUMP JUMPDEST PUSH0 PUSH1 0x20 DUP3 ADD SWAP1 POP DUP2 DUP2 SUB PUSH0 DUP4 ADD MSTORE PUSH2 0xD4A DUP2 PUSH2 0xD11 JUMP JUMPDEST SWAP1 POP SWAP2 SWAP1 POP JUMP JUMPDEST PUSH32 0x41626F7665206D6178696D756D20707572636861736500000000000000000000 PUSH0 DUP3 ADD MSTORE POP JUMP JUMPDEST PUSH0 PUSH2 0xD85 PUSH1 0x16 DUP4 PUSH2 0xC71 JUMP JUMPDEST SWAP2 POP PUSH2 0xD90 DUP3 PUSH2 0xD51 JUMP JUMPDEST PUSH1 0x20 DUP3 ADD SWAP1 POP SWAP2 SWAP1 POP JUMP JUMPDEST PUSH0 PUSH1 0x20 DUP3 ADD SWAP1 POP DUP2 DUP2 SUB PUSH0 DUP4 ADD MSTORE PUSH2 0xDB2 DUP2 PUSH2 0xD79 JUMP JUMPDEST SWAP1 POP SWAP2 SWAP1 POP JUMP JUMPDEST PUSH32 0x4E487B7100000000000000000000000000000000000000000000000000000000 PUSH0 MSTORE PUSH1 0x11 PUSH1 0x4 MSTORE PUSH1 0x24 PUSH0 REVERT JUMPDEST PUSH0 PUSH2 0xDF0 DUP3 PUSH2 0xB7B JUMP JUMPDEST SWAP2 POP PUSH2 0xDFB DUP4 PUSH2 0xB7B JUMP JUMPDEST SWAP3 POP DUP3 DUP3 MUL PUSH2 0xE09 DUP2 PUSH2 0xB7B JUMP JUMPDEST SWAP2 POP DUP3 DUP3 DIV DUP5 EQ DUP4 ISZERO OR PUSH2 0xE20 JUMPI PUSH2 0xE1F PUSH2 0xDB9 JUMP JUMPDEST JUMPDEST POP SWAP3 SWAP2 POP POP JUMP JUMPDEST PUSH0 PUSH2 0xE31 DUP3 PUSH2 0xB7B JUMP JUMPDEST SWAP2 POP PUSH2 0xE3C DUP4 PUSH2 0xB7B JUMP JUMPDEST SWAP3 POP DUP3 DUP3 ADD SWAP1 POP DUP1 DUP3 GT ISZERO PUSH2 0xE54 JUMPI PUSH2 0xE53 PUSH2 0xDB9 JUMP JUMPDEST JUMPDEST SWAP3 SWAP2 POP POP JUMP JUMPDEST PUSH32 0x50726573616C6520636170207265616368656400000000000000000000000000 PUSH0 DUP3 ADD MSTORE POP JUMP JUMPDEST PUSH0 PUSH2 0xE8E PUSH1 0x13 DUP4 PUSH2 0xC71 JUMP JUMPDEST SWAP2 POP PUSH2 0xE99 DUP3 PUSH2 0xE5A JUMP JUMPDEST PUSH1 0x20 DUP3 ADD SWAP1 POP SWAP2 SWAP1 POP JUMP JUMPDEST PUSH0 PUSH1 0x20 DUP3 ADD SWAP1 POP DUP2 DUP2 SUB PUSH0 DUP4 ADD MSTORE PUSH2 0xEBB DUP2 PUSH2 0xE82 JUMP JUMPDEST SWAP1 POP SWAP2 SWAP1 POP JUMP JUMPDEST PUSH0 DUP2 MLOAD SWAP1 POP PUSH2 0xED0 DUP2 PUSH2 0xBB0 JUMP JUMPDEST SWAP3 SWAP2 POP POP JUMP JUMPDEST PUSH0 PUSH1 0x20 DUP3 DUP5 SUB SLT ISZERO PUSH2 0xEEB JUMPI PUSH2 0xEEA PUSH2 0xBAC JUMP JUMPDEST JUMPDEST PUSH0 PUSH2 0xEF8 DUP5 DUP3 DUP6 ADD PUSH2 0xEC2 JUMP JUMPDEST SWAP2 POP POP SWAP3 SWAP2 POP POP JUMP JUMPDEST PUSH32 0x4E6F7420656E6F75676820746F6B656E7320696E20636F6E7472616374000000 PUSH0 DUP3 ADD MSTORE POP JUMP JUMPDEST PUSH0 PUSH2 0xF35 PUSH1 0x1D DUP4 PUSH2 0xC71 JUMP JUMPDEST SWAP2 POP PUSH2 0xF40 DUP3 PUSH2 0xF01 JUMP JUMPDEST PUSH1 0x20 DUP3 ADD SWAP1 POP SWAP2 SWAP1 POP JUMP JUMPDEST PUSH0 PUSH1 0x20 DUP3 ADD SWAP1 POP DUP2 DUP2 SUB PUSH0 DUP4 ADD MSTORE PUSH2 0xF62 DUP2 PUSH2 0xF29 JUMP JUMPDEST SWAP1 POP SWAP2 SWAP1 POP JUMP JUMPDEST PUSH0 DUP2 SWAP1 POP SWAP3 SWAP2 POP POP JUMP JUMPDEST POP JUMP JUMPDEST PUSH0 PUSH2 0xF81 PUSH0 DUP4 PUSH2 0xF69 JUMP JUMPDEST SWAP2 POP PUSH2 0xF8C DUP3 PUSH2 0xF73 JUMP JUMPDEST PUSH0 DUP3 ADD SWAP1 POP SWAP2 SWAP1 POP JUMP JUMPDEST PUSH0 PUSH2 0xFA0 DUP3 PUSH2 0xF76 JUMP JUMPDEST SWAP2 POP DUP2 SWAP1 POP SWAP2 SWAP1 POP JUMP JUMPDEST PUSH32 0x4661696C656420746F2073656E64204D41544943000000000000000000000000 PUSH0 DUP3 ADD MSTORE POP JUMP JUMPDEST PUSH0 PUSH2 0xFDE PUSH1 0x14 DUP4 PUSH2 0xC71 JUMP JUMPDEST SWAP2 POP PUSH2 0xFE9 DUP3 PUSH2 0xFAA JUMP JUMPDEST PUSH1 0x20 DUP3 ADD SWAP1 POP SWAP2 SWAP1 POP JUMP JUMPDEST PUSH0 PUSH1 0x20 DUP3 ADD SWAP1 POP DUP2 DUP2 SUB PUSH0 DUP4 ADD MSTORE PUSH2 0x100B DUP2 PUSH2 0xFD2 JUMP JUMPDEST SWAP1 POP SWAP2 SWAP1 POP JUMP JUMPDEST PUSH0 PUSH1 0x40 DUP3 ADD SWAP1 POP PUSH2 0x1025 PUSH0 DUP4 ADD DUP6 PUSH2 0xC16 JUMP JUMPDEST PUSH2 0x1032 PUSH1 0x20 DUP4 ADD DUP5 PUSH2 0xB84 JUMP JUMPDEST SWAP4 SWAP3 POP POP POP JUMP JUMPDEST PUSH2 0x1042 DUP2 PUSH2 0xC3E JUMP JUMPDEST DUP2 EQ PUSH2 0x104C JUMPI PUSH0 DUP1 REVERT JUMPDEST POP JUMP JUMPDEST PUSH0 DUP2 MLOAD SWAP1 POP PUSH2 0x105D DUP2 PUSH2 0x1039 JUMP JUMPDEST SWAP3 SWAP2 POP POP JUMP JUMPDEST PUSH0 PUSH1 0x20 DUP3 DUP5 SUB SLT ISZERO PUSH2 0x1078 JUMPI PUSH2 0x1077 PUSH2 0xBAC JUMP JUMPDEST JUMPDEST PUSH0 PUSH2 0x1085 DUP5 DUP3 DUP6 ADD PUSH2 0x104F JUMP JUMPDEST SWAP2 POP POP SWAP3 SWAP2 POP POP JUMP JUMPDEST PUSH0 PUSH1 0x40 DUP3 ADD SWAP1 POP PUSH2 0x10A1 PUSH0 DUP4 ADD DUP6 PUSH2 0xB84 JUMP JUMPDEST PUSH2 0x10AE PUSH1 0x20 DUP4 ADD DUP5 PUSH2 0xB84 JUMP JUMPDEST SWAP4 SWAP3 POP POP POP JUMP JUMPDEST PUSH32 0x4E6F74206F776E65720000000000000000000000000000000000000000000000 PUSH0 DUP3 ADD MSTORE POP JUMP JUMPDEST PUSH0 PUSH2 0x10E9 PUSH1 0x9 DUP4 PUSH2 0xC71 JUMP JUMPDEST SWAP2 POP PUSH2 0x10F4 DUP3 PUSH2 0x10B5 JUMP JUMPDEST PUSH1 0x20 DUP3 ADD SWAP1 POP SWAP2 SWAP1 POP JUMP JUMPDEST PUSH0 PUSH1 0x20 DUP3 ADD SWAP1 POP DUP2 DUP2 SUB PUSH0 DUP4 ADD MSTORE PUSH2 0x1116 DUP2 PUSH2 0x10DD JUMP JUMPDEST SWAP1 POP SWAP2 SWAP1 POP JUMP INVALID LOG2 PUSH5 0x6970667358 0x22 SLT KECCAK256 PUSH32 0xAD64BCAD12173E99B38E1CCA13836E42BB34E266FAF1BD3E5790DD1F9D2F9464 PUSH20 0x6F6C634300081800330000000000000000000000 "
				},
				"gasEstimates": {
					"creation": {
						"codeDepositCost": "887000",
						"executionCost": "infinite",
						"totalCost": "infinite"
					},
					"external": {
						"alienToken()": "infinite",
						"buyTokens()": "infinite",
						"changeRate(uint256)": "infinite",
						"isPaused()": "2510",
						"maxPurchase()": "2447",
						"minPurchase()": "2514",
						"owner()": "2572",
						"pausePresale()": "27770",
						"presaleCap()": "2448",
						"rate()": "2470",
						"soldTokens()": "2536",
						"unpausePresale()": "27855",
						"withdrawTokens(uint256)": "infinite"
					}
				},
				"methodIdentifiers": {
					"alienToken()": "1958e58a",
					"buyTokens()": "d0febe4c",
					"changeRate(uint256)": "74e7493b",
					"isPaused()": "b187bd26",
					"maxPurchase()": "977b055b",
					"minPurchase()": "33b5b62e",
					"owner()": "8da5cb5b",
					"pausePresale()": "070f5c09",
					"presaleCap()": "63d5502f",
					"rate()": "2c4e722e",
					"soldTokens()": "5ed9ebfc",
					"unpausePresale()": "eee5592f",
					"withdrawTokens(uint256)": "315a095d"
				}
			},
			"storageLayout": {
				"storage": [
					{
						"astId": 20,
						"contract": "AlienPresale.sol:AlienPresale",
						"label": "owner",
						"offset": 0,
						"slot": "0",
						"type": "t_address"
					},
					{
						"astId": 23,
						"contract": "AlienPresale.sol:AlienPresale",
						"label": "alienToken",
						"offset": 0,
						"slot": "1",
						"type": "t_contract(IERC20)18"
					},
					{
						"astId": 25,
						"contract": "AlienPresale.sol:AlienPresale",
						"label": "rate",
						"offset": 0,
						"slot": "2",
						"type": "t_uint256"
					},
					{
						"astId": 27,
						"contract": "AlienPresale.sol:AlienPresale",
						"label": "minPurchase",
						"offset": 0,
						"slot": "3",
						"type": "t_uint256"
					},
					{
						"astId": 29,
						"contract": "AlienPresale.sol:AlienPresale",
						"label": "maxPurchase",
						"offset": 0,
						"slot": "4",
						"type": "t_uint256"
					},
					{
						"astId": 31,
						"contract": "AlienPresale.sol:AlienPresale",
						"label": "presaleCap",
						"offset": 0,
						"slot": "5",
						"type": "t_uint256"
					},
					{
						"astId": 33,
						"contract": "AlienPresale.sol:AlienPresale",
						"label": "soldTokens",
						"offset": 0,
						"slot": "6",
						"type": "t_uint256"
					},
					{
						"astId": 35,
						"contract": "AlienPresale.sol:AlienPresale",
						"label": "isPaused",
						"offset": 0,
						"slot": "7",
						"type": "t_bool"
					}
				],
				"types": {
					"t_address": {
						"encoding": "inplace",
						"label": "address",
						"numberOfBytes": "20"
					},
					"t_bool": {
						"encoding": "inplace",
						"label": "bool",
						"numberOfBytes": "1"
					},
					"t_contract(IERC20)18": {
						"encoding": "inplace",
						"label": "contract IERC20",
						"numberOfBytes": "20"
					},
					"t_uint256": {
						"encoding": "inplace",
						"label": "uint256",
						"numberOfBytes": "32"
					}
				}
			},
			"userdoc": {
				"kind": "user",
				"methods": {},
				"version": 1
			}
		}
	}
}