{
	"ALIEN.sol": {
		"ALIEN_V2": {
			"abi": [
				{
					"inputs": [
						{
							"internalType": "address",
							"name": "initialOwner",
							"type": "address"
						}
					],
					"stateMutability": "nonpayable",
					"type": "constructor"
				},
				{
					"inputs": [
						{
							"internalType": "address",
							"name": "owner",
							"type": "address"
						}
					],
					"name": "OwnableInvalidOwner",
					"type": "error"
				},
				{
					"inputs": [
						{
							"internalType": "address",
							"name": "account",
							"type": "address"
						}
					],
					"name": "OwnableUnauthorizedAccount",
					"type": "error"
				},
				{
					"anonymous": false,
					"inputs": [
						{
							"indexed": true,
							"internalType": "address",
							"name": "account",
							"type": "address"
						},
						{
							"indexed": false,
							"internalType": "bool",
							"name": "status",
							"type": "bool"
						}
					],
					"name": "AddressBlacklisted",
					"type": "event"
				},
				{
					"anonymous": false,
					"inputs": [
						{
							"indexed": true,
							"internalType": "address",
							"name": "owner",
							"type": "address"
						},
						{
							"indexed": true,
							"internalType": "address",
							"name": "spender",
							"type": "address"
						},
						{
							"indexed": false,
							"internalType": "uint256",
							"name": "value",
							"type": "uint256"
						}
					],
					"name": "Approval",
					"type": "event"
				},
				{
					"anonymous": false,
					"inputs": [
						{
							"indexed": true,
							"internalType": "address",
							"name": "previousOwner",
							"type": "address"
						},
						{
							"indexed": true,
							"internalType": "address",
							"name": "newOwner",
							"type": "address"
						}
					],
					"name": "OwnershipTransferred",
					"type": "event"
				},
				{
					"anonymous": false,
					"inputs": [
						{
							"indexed": false,
							"internalType": "address",
							"name": "account",
							"type": "address"
						}
					],
					"name": "Paused",
					"type": "event"
				},
				{
					"anonymous": false,
					"inputs": [
						{
							"indexed": true,
							"internalType": "address",
							"name": "from",
							"type": "address"
						},
						{
							"indexed": false,
							"internalType": "uint256",
							"name": "amount",
							"type": "uint256"
						}
					],
					"name": "TokensBurned",
					"type": "event"
				},
				{
					"anonymous": false,
					"inputs": [
						{
							"indexed": true,
							"internalType": "address",
							"name": "to",
							"type": "address"
						},
						{
							"indexed": false,
							"internalType": "uint256",
							"name": "amount",
							"type": "uint256"
						}
					],
					"name": "TokensMinted",
					"type": "event"
				},
				{
					"anonymous": false,
					"inputs": [
						{
							"indexed": true,
							"internalType": "address",
							"name": "from",
							"type": "address"
						},
						{
							"indexed": true,
							"internalType": "address",
							"name": "to",
							"type": "address"
						},
						{
							"indexed": false,
							"internalType": "uint256",
							"name": "value",
							"type": "uint256"
						}
					],
					"name": "Transfer",
					"type": "event"
				},
				{
					"anonymous": false,
					"inputs": [
						{
							"indexed": false,
							"internalType": "address",
							"name": "account",
							"type": "address"
						}
					],
					"name": "Unpaused",
					"type": "event"
				},
				{
					"inputs": [
						{
							"internalType": "address",
							"name": "",
							"type": "address"
						},
						{
							"internalType": "address",
							"name": "",
							"type": "address"
						}
					],
					"name": "allowance",
					"outputs": [
						{
							"internalType": "uint256",
							"name": "",
							"type": "uint256"
						}
					],
					"stateMutability": "view",
					"type": "function"
				},
				{
					"inputs": [
						{
							"internalType": "address",
							"name": "_spender",
							"type": "address"
						},
						{
							"internalType": "uint256",
							"name": "_value",
							"type": "uint256"
						}
					],
					"name": "approve",
					"outputs": [
						{
							"internalType": "bool",
							"name": "success",
							"type": "bool"
						}
					],
					"stateMutability": "nonpayable",
					"type": "function"
				},
				{
					"inputs": [
						{
							"internalType": "address",
							"name": "",
							"type": "address"
						}
					],
					"name": "balanceOf",
					"outputs": [
						{
							"internalType": "uint256",
							"name": "",
							"type": "uint256"
						}
					],
					"stateMutability": "view",
					"type": "function"
				},
				{
					"inputs": [
						{
							"internalType": "address[]",
							"name": "_addresses",
							"type": "address[]"
						},
						{
							"internalType": "bool",
							"name": "_status",
							"type": "bool"
						}
					],
					"name": "batchSetBlacklist",
					"outputs": [],
					"stateMutability": "nonpayable",
					"type": "function"
				},
				{
					"inputs": [
						{
							"internalType": "address",
							"name": "",
							"type": "address"
						}
					],
					"name": "blacklist",
					"outputs": [
						{
							"internalType": "bool",
							"name": "",
							"type": "bool"
						}
					],
					"stateMutability": "view",
					"type": "function"
				},
				{
					"inputs": [
						{
							"internalType": "uint256",
							"name": "_amount",
							"type": "uint256"
						}
					],
					"name": "burn",
					"outputs": [],
					"stateMutability": "nonpayable",
					"type": "function"
				},
				{
					"inputs": [
						{
							"internalType": "address",
							"name": "_from",
							"type": "address"
						},
						{
							"internalType": "uint256",
							"name": "_amount",
							"type": "uint256"
						}
					],
					"name": "burnFrom",
					"outputs": [],
					"stateMutability": "nonpayable",
					"type": "function"
				},
				{
					"inputs": [],
					"name": "decimals",
					"outputs": [
						{
							"internalType": "uint8",
							"name": "",
							"type": "uint8"
						}
					],
					"stateMutability": "view",
					"type": "function"
				},
				{
					"inputs": [
						{
							"internalType": "address",
							"name": "_address",
							"type": "address"
						}
					],
					"name": "getBlacklistStatus",
					"outputs": [
						{
							"internalType": "bool",
							"name": "",
							"type": "bool"
						}
					],
					"stateMutability": "view",
					"type": "function"
				},
				{
					"inputs": [],
					"name": "getContractInfo",
					"outputs": [
						{
							"internalType": "string",
							"name": "tokenName",
							"type": "string"
						},
						{
							"internalType": "string",
							"name": "tokenSymbol",
							"type": "string"
						},
						{
							"internalType": "uint8",
							"name": "tokenDecimals",
							"type": "uint8"
						},
						{
							"internalType": "uint256",
							"name": "tokenTotalSupply",
							"type": "uint256"
						},
						{
							"internalType": "bool",
							"name": "isPaused",
							"type": "bool"
						},
						{
							"internalType": "address",
							"name": "contractOwner",
							"type": "address"
						}
					],
					"stateMutability": "view",
					"type": "function"
				},
				{
					"inputs": [
						{
							"internalType": "address",
							"name": "_to",
							"type": "address"
						},
						{
							"internalType": "uint256",
							"name": "_amount",
							"type": "uint256"
						}
					],
					"name": "mint",
					"outputs": [],
					"stateMutability": "nonpayable",
					"type": "function"
				},
				{
					"inputs": [],
					"name": "name",
					"outputs": [
						{
							"internalType": "string",
							"name": "",
							"type": "string"
						}
					],
					"stateMutability": "view",
					"type": "function"
				},
				{
					"inputs": [],
					"name": "owner",
					"outputs": [
						{
							"internalType": "address",
							"name": "",
							"type": "address"
						}
					],
					"stateMutability": "view",
					"type": "function"
				},
				{
					"inputs": [],
					"name": "pause",
					"outputs": [],
					"stateMutability": "nonpayable",
					"type": "function"
				},
				{
					"inputs": [],
					"name": "paused",
					"outputs": [
						{
							"internalType": "bool",
							"name": "",
							"type": "bool"
						}
					],
					"stateMutability": "view",
					"type": "function"
				},
				{
					"inputs": [],
					"name": "renounceOwnership",
					"outputs": [],
					"stateMutability": "nonpayable",
					"type": "function"
				},
				{
					"inputs": [
						{
							"internalType": "address",
							"name": "_address",
							"type": "address"
						},
						{
							"internalType": "bool",
							"name": "_status",
							"type": "bool"
						}
					],
					"name": "setBlacklist",
					"outputs": [],
					"stateMutability": "nonpayable",
					"type": "function"
				},
				{
					"inputs": [],
					"name": "symbol",
					"outputs": [
						{
							"internalType": "string",
							"name": "",
							"type": "string"
						}
					],
					"stateMutability": "view",
					"type": "function"
				},
				{
					"inputs": [],
					"name": "totalSupply",
					"outputs": [
						{
							"internalType": "uint256",
							"name": "",
							"type": "uint256"
						}
					],
					"stateMutability": "view",
					"type": "function"
				},
				{
					"inputs": [
						{
							"internalType": "address",
							"name": "_to",
							"type": "address"
						},
						{
							"internalType": "uint256",
							"name": "_value",
							"type": "uint256"
						}
					],
					"name": "transfer",
					"outputs": [
						{
							"internalType": "bool",
							"name": "success",
							"type": "bool"
						}
					],
					"stateMutability": "nonpayable",
					"type": "function"
				},
				{
					"inputs": [
						{
							"internalType": "address",
							"name": "_from",
							"type": "address"
						},
						{
							"internalType": "address",
							"name": "_to",
							"type": "address"
						},
						{
							"internalType": "uint256",
							"name": "_value",
							"type": "uint256"
						}
					],
					"name": "transferFrom",
					"outputs": [
						{
							"internalType": "bool",
							"name": "success",
							"type": "bool"
						}
					],
					"stateMutability": "nonpayable",
					"type": "function"
				},
				{
					"inputs": [
						{
							"internalType": "address",
							"name": "newOwner",
							"type": "address"
						}
					],
					"name": "transferOwnership",
					"outputs": [],
					"stateMutability": "nonpayable",
					"type": "function"
				},
				{
					"inputs": [],
					"name": "unpause",
					"outputs": [],
					"stateMutability": "nonpayable",
					"type": "function"
				}
			],
			"devdoc": {
				"errors": {
					"OwnableInvalidOwner(address)": [
						{
							"details": "The owner is not a valid owner account. (eg. `address(0)`)"
						}
					],
					"OwnableUnauthorizedAccount(address)": [
						{
							"details": "The caller account is not authorized to perform an operation."
						}
					]
				},
				"events": {
					"Paused(address)": {
						"details": "Emitted when the pause is triggered by `account`."
					},
					"Unpaused(address)": {
						"details": "Emitted when the pause is lifted by `account`."
					}
				},
				"kind": "dev",
				"methods": {
					"owner()": {
						"details": "Returns the address of the current owner."
					},
					"paused()": {
						"details": "Returns true if the contract is paused, and false otherwise."
					},
					"renounceOwnership()": {
						"details": "Leaves the contract without owner. It will not be possible to call `onlyOwner` functions. Can only be called by the current owner. NOTE: Renouncing ownership will leave the contract without an owner, thereby disabling any functionality that is only available to the owner."
					},
					"transferOwnership(address)": {
						"details": "Transfers ownership of the contract to a new account (`newOwner`). Can only be called by the current owner."
					}
				},
				"version": 1
			},
			"evm": {
				"assembly": "    /* \"ALIEN.sol\":231:5319  contract ALIEN_V2 is Ownable, Pausable, ReentrancyGuard {... */\n  mstore(0x40, 0x80)\n    /* \"ALIEN.sol\":293:327  string public name = \"ALIEN Token\" */\n  mload(0x40)\n  dup1\n  0x40\n  add\n  0x40\n  mstore\n  dup1\n  0x0b\n  dup2\n  mstore\n  0x20\n  add\n  0x414c49454e20546f6b656e000000000000000000000000000000000000000000\n  dup2\n  mstore\n  pop\n  0x02\n  swap1\n  dup2\n  tag_1\n  swap2\n  swap1\n  tag_2\n  jump\t// in\ntag_1:\n  pop\n    /* \"ALIEN.sol\":333:363  string public symbol = \"ALIEN\" */\n  mload(0x40)\n  dup1\n  0x40\n  add\n  0x40\n  mstore\n  dup1\n  0x05\n  dup2\n  mstore\n  0x20\n  add\n  0x414c49454e000000000000000000000000000000000000000000000000000000\n  dup2\n  mstore\n  pop\n  0x03\n  swap1\n  dup2\n  tag_3\n  swap2\n  swap1\n  tag_2\n  jump\t// in\ntag_3:\n  pop\n    /* \"ALIEN.sol\":393:395  18 */\n  0x12\n    /* \"ALIEN.sol\":369:395  uint8 public decimals = 18 */\n  0x04\n  exp(0x0100, 0x00)\n  dup2\n  sload\n  dup2\n  0xff\n  mul\n  not\n  and\n  swap1\n  dup4\n  0xff\n  and\n  mul\n  or\n  swap1\n  sstore\n  pop\n    /* \"ALIEN.sol\":455:463  decimals */\n  0x04\n  0x00\n  swap1\n  sload\n  swap1\n  0x0100\n  exp\n  swap1\n  div\n  0xff\n  and\n    /* \"ALIEN.sol\":447:464  uint256(decimals) */\n  0xff\n  and\n    /* \"ALIEN.sol\":443:445  10 */\n  0x0a\n    /* \"ALIEN.sol\":443:464  10**uint256(decimals) */\n  tag_4\n  swap2\n  swap1\n  tag_5\n  jump\t// in\ntag_4:\n    /* \"ALIEN.sol\":430:440  1000000000 */\n  0x3b9aca00\n    /* \"ALIEN.sol\":430:464  1000000000 * 10**uint256(decimals) */\n  tag_6\n  swap2\n  swap1\n  tag_7\n  jump\t// in\ntag_6:\n    /* \"ALIEN.sol\":401:464  uint256 public totalSupply = 1000000000 * 10**uint256(decimals) */\n  0x05\n  sstore\n    /* \"ALIEN.sol\":1002:1174  constructor(address initialOwner) Ownable(initialOwner) {... */\n  callvalue\n  dup1\n  iszero\n  tag_8\n  jumpi\n  revert(0x00, 0x00)\ntag_8:\n  pop\n  mload(0x40)\n  sub(codesize, bytecodeSize)\n  dup1\n  bytecodeSize\n  dup4\n  codecopy\n  dup2\n  dup2\n  add\n  0x40\n  mstore\n  dup2\n  add\n  swap1\n  tag_9\n  swap2\n  swap1\n  tag_10\n  jump\t// in\ntag_9:\n    /* \"ALIEN.sol\":1044:1056  initialOwner */\n  dup1\n    /* \"@openzeppelin/contracts/access/Ownable.sol\":1297:1298  0 */\n  0x00\n    /* \"@openzeppelin/contracts/access/Ownable.sol\":1273:1299  initialOwner == address(0) */\n  0xffffffffffffffffffffffffffffffffffffffff\n  and\n    /* \"@openzeppelin/contracts/access/Ownable.sol\":1273:1285  initialOwner */\n  dup2\n    /* \"@openzeppelin/contracts/access/Ownable.sol\":1273:1299  initialOwner == address(0) */\n  0xffffffffffffffffffffffffffffffffffffffff\n  and\n  sub\n    /* \"@openzeppelin/contracts/access/Ownable.sol\":1269:1364  if (initialOwner == address(0)) {... */\n  tag_16\n  jumpi\n    /* \"@openzeppelin/contracts/access/Ownable.sol\":1350:1351  0 */\n  0x00\n    /* \"@openzeppelin/contracts/access/Ownable.sol\":1322:1353  OwnableInvalidOwner(address(0)) */\n  mload(0x40)\n  0x1e4fbdf700000000000000000000000000000000000000000000000000000000\n  dup2\n  mstore\n  0x04\n  add\n  tag_17\n  swap2\n  swap1\n  tag_18\n  jump\t// in\ntag_17:\n  mload(0x40)\n  dup1\n  swap2\n  sub\n  swap1\n  revert\n    /* \"@openzeppelin/contracts/access/Ownable.sol\":1269:1364  if (initialOwner == address(0)) {... */\ntag_16:\n    /* \"@openzeppelin/contracts/access/Ownable.sol\":1373:1405  _transferOwnership(initialOwner) */\n  tag_19\n    /* \"@openzeppelin/contracts/access/Ownable.sol\":1392:1404  initialOwner */\n  dup2\n    /* \"@openzeppelin/contracts/access/Ownable.sol\":1373:1391  _transferOwnership */\n  shl(0x20, tag_20)\n    /* \"@openzeppelin/contracts/access/Ownable.sol\":1373:1405  _transferOwnership(initialOwner) */\n  0x20\n  shr\n  jump\t// in\ntag_19:\n    /* \"@openzeppelin/contracts/access/Ownable.sol\":1225:1412  constructor(address initialOwner) {... */\n  pop\n    /* \"@openzeppelin/contracts/security/Pausable.sol\":1006:1011  false */\n  0x00\n    /* \"@openzeppelin/contracts/security/Pausable.sol\":996:1003  _paused */\n  0x00\n  0x14\n    /* \"@openzeppelin/contracts/security/Pausable.sol\":996:1011  _paused = false */\n  0x0100\n  exp\n  dup2\n  sload\n  dup2\n  0xff\n  mul\n  not\n  and\n  swap1\n  dup4\n  iszero\n  iszero\n  mul\n  or\n  swap1\n  sstore\n  pop\n    /* \"@openzeppelin/contracts/security/ReentrancyGuard.sol\":1716:1717  1 */\n  0x01\n    /* \"@openzeppelin/contracts/security/ReentrancyGuard.sol\":1821:1828  _status */\n  dup1\n    /* \"@openzeppelin/contracts/security/ReentrancyGuard.sol\":1821:1843  _status = _NOT_ENTERED */\n  dup2\n  swap1\n  sstore\n  pop\n    /* \"ALIEN.sol\":1094:1105  totalSupply */\n  sload(0x05)\n    /* \"ALIEN.sol\":1068:1077  balanceOf */\n  0x06\n    /* \"ALIEN.sol\":1068:1091  balanceOf[initialOwner] */\n  0x00\n    /* \"ALIEN.sol\":1078:1090  initialOwner */\n  dup4\n    /* \"ALIEN.sol\":1068:1091  balanceOf[initialOwner] */\n  0xffffffffffffffffffffffffffffffffffffffff\n  and\n  0xffffffffffffffffffffffffffffffffffffffff\n  and\n  dup2\n  mstore\n  0x20\n  add\n  swap1\n  dup2\n  mstore\n  0x20\n  add\n  0x00\n  keccak256\n    /* \"ALIEN.sol\":1068:1105  balanceOf[initialOwner] = totalSupply */\n  dup2\n  swap1\n  sstore\n  pop\n    /* \"ALIEN.sol\":1141:1153  initialOwner */\n  dup1\n    /* \"ALIEN.sol\":1120:1167  Transfer(address(0), initialOwner, totalSupply) */\n  0xffffffffffffffffffffffffffffffffffffffff\n  and\n    /* \"ALIEN.sol\":1137:1138  0 */\n  0x00\n    /* \"ALIEN.sol\":1120:1167  Transfer(address(0), initialOwner, totalSupply) */\n  0xffffffffffffffffffffffffffffffffffffffff\n  and\n  0xddf252ad1be2c89b69c2b068fc378daa952ba7f163c4a11628f55a4df523b3ef\n    /* \"ALIEN.sol\":1155:1166  totalSupply */\n  sload(0x05)\n    /* \"ALIEN.sol\":1120:1167  Transfer(address(0), initialOwner, totalSupply) */\n  mload(0x40)\n  tag_24\n  swap2\n  swap1\n  tag_25\n  jump\t// in\ntag_24:\n  mload(0x40)\n  dup1\n  swap2\n  sub\n  swap1\n  log3\n    /* \"ALIEN.sol\":1002:1174  constructor(address initialOwner) Ownable(initialOwner) {... */\n  pop\n    /* \"ALIEN.sol\":231:5319  contract ALIEN_V2 is Ownable, Pausable, ReentrancyGuard {... */\n  jump(tag_26)\n    /* \"@openzeppelin/contracts/access/Ownable.sol\":2912:3099  function _transferOwnership(address newOwner) internal virtual {... */\ntag_20:\n    /* \"@openzeppelin/contracts/access/Ownable.sol\":2985:3001  address oldOwner */\n  0x00\n    /* \"@openzeppelin/contracts/access/Ownable.sol\":3004:3010  _owner */\n  0x00\n  0x00\n  swap1\n  sload\n  swap1\n  0x0100\n  exp\n  swap1\n  div\n  0xffffffffffffffffffffffffffffffffffffffff\n  and\n    /* \"@openzeppelin/contracts/access/Ownable.sol\":2985:3010  address oldOwner = _owner */\n  swap1\n  pop\n    /* \"@openzeppelin/contracts/access/Ownable.sol\":3029:3037  newOwner */\n  dup2\n    /* \"@openzeppelin/contracts/access/Ownable.sol\":3020:3026  _owner */\n  0x00\n  0x00\n    /* \"@openzeppelin/contracts/access/Ownable.sol\":3020:3037  _owner = newOwner */\n  0x0100\n  exp\n  dup2\n  sload\n  dup2\n  0xffffffffffffffffffffffffffffffffffffffff\n  mul\n  not\n  and\n  swap1\n  dup4\n  0xffffffffffffffffffffffffffffffffffffffff\n  and\n  mul\n  or\n  swap1\n  sstore\n  pop\n    /* \"@openzeppelin/contracts/access/Ownable.sol\":3083:3091  newOwner */\n  dup2\n    /* \"@openzeppelin/contracts/access/Ownable.sol\":3052:3092  OwnershipTransferred(oldOwner, newOwner) */\n  0xffffffffffffffffffffffffffffffffffffffff\n  and\n    /* \"@openzeppelin/contracts/access/Ownable.sol\":3073:3081  oldOwner */\n  dup2\n    /* \"@openzeppelin/contracts/access/Ownable.sol\":3052:3092  OwnershipTransferred(oldOwner, newOwner) */\n  0xffffffffffffffffffffffffffffffffffffffff\n  and\n  0x8be0079c531659141344cd1fd0a4f28419497f9722a3daafe3b4186f6b6457e0\n  mload(0x40)\n  mload(0x40)\n  dup1\n  swap2\n  sub\n  swap1\n  log3\n    /* \"@openzeppelin/contracts/access/Ownable.sol\":2975:3099  {... */\n  pop\n    /* \"@openzeppelin/contracts/access/Ownable.sol\":2912:3099  function _transferOwnership(address newOwner) internal virtual {... */\n  pop\n  jump\t// out\n    /* \"#utility.yul\":7:106   */\ntag_28:\n    /* \"#utility.yul\":59:65   */\n  0x00\n    /* \"#utility.yul\":93:98   */\n  dup2\n    /* \"#utility.yul\":87:99   */\n  mload\n    /* \"#utility.yul\":77:99   */\n  swap1\n  pop\n    /* \"#utility.yul\":7:106   */\n  swap2\n  swap1\n  pop\n  jump\t// out\n    /* \"#utility.yul\":112:292   */\ntag_29:\n    /* \"#utility.yul\":160:237   */\n  0x4e487b7100000000000000000000000000000000000000000000000000000000\n    /* \"#utility.yul\":157:158   */\n  0x00\n    /* \"#utility.yul\":150:238   */\n  mstore\n    /* \"#utility.yul\":257:261   */\n  0x41\n    /* \"#utility.yul\":254:255   */\n  0x04\n    /* \"#utility.yul\":247:262   */\n  mstore\n    /* \"#utility.yul\":281:285   */\n  0x24\n    /* \"#utility.yul\":278:279   */\n  0x00\n    /* \"#utility.yul\":271:286   */\n  revert\n    /* \"#utility.yul\":298:478   */\ntag_30:\n    /* \"#utility.yul\":346:423   */\n  0x4e487b7100000000000000000000000000000000000000000000000000000000\n    /* \"#utility.yul\":343:344   */\n  0x00\n    /* \"#utility.yul\":336:424   */\n  mstore\n    /* \"#utility.yul\":443:447   */\n  0x22\n    /* \"#utility.yul\":440:441   */\n  0x04\n    /* \"#utility.yul\":433:448   */\n  mstore\n    /* \"#utility.yul\":467:471   */\n  0x24\n    /* \"#utility.yul\":464:465   */\n  0x00\n    /* \"#utility.yul\":457:472   */\n  revert\n    /* \"#utility.yul\":484:804   */\ntag_31:\n    /* \"#utility.yul\":528:534   */\n  0x00\n    /* \"#utility.yul\":565:566   */\n  0x02\n    /* \"#utility.yul\":559:563   */\n  dup3\n    /* \"#utility.yul\":555:567   */\n  div\n    /* \"#utility.yul\":545:567   */\n  swap1\n  pop\n    /* \"#utility.yul\":612:613   */\n  0x01\n    /* \"#utility.yul\":606:610   */\n  dup3\n    /* \"#utility.yul\":602:614   */\n  and\n    /* \"#utility.yul\":633:651   */\n  dup1\n    /* \"#utility.yul\":623:704   */\n  tag_66\n  jumpi\n    /* \"#utility.yul\":689:693   */\n  0x7f\n    /* \"#utility.yul\":681:687   */\n  dup3\n    /* \"#utility.yul\":677:694   */\n  and\n    /* \"#utility.yul\":667:694   */\n  swap2\n  pop\n    /* \"#utility.yul\":623:704   */\ntag_66:\n    /* \"#utility.yul\":751:753   */\n  0x20\n    /* \"#utility.yul\":743:749   */\n  dup3\n    /* \"#utility.yul\":740:754   */\n  lt\n    /* \"#utility.yul\":720:738   */\n  dup2\n    /* \"#utility.yul\":717:755   */\n  sub\n    /* \"#utility.yul\":714:798   */\n  tag_67\n  jumpi\n    /* \"#utility.yul\":770:788   */\n  tag_68\n  tag_30\n  jump\t// in\ntag_68:\n    /* \"#utility.yul\":714:798   */\ntag_67:\n    /* \"#utility.yul\":535:804   */\n  pop\n    /* \"#utility.yul\":484:804   */\n  swap2\n  swap1\n  pop\n  jump\t// out\n    /* \"#utility.yul\":810:951   */\ntag_32:\n    /* \"#utility.yul\":859:863   */\n  0x00\n    /* \"#utility.yul\":882:885   */\n  dup2\n    /* \"#utility.yul\":874:885   */\n  swap1\n  pop\n    /* \"#utility.yul\":905:908   */\n  dup2\n    /* \"#utility.yul\":902:903   */\n  0x00\n    /* \"#utility.yul\":895:909   */\n  mstore\n    /* \"#utility.yul\":939:943   */\n  0x20\n    /* \"#utility.yul\":936:937   */\n  0x00\n    /* \"#utility.yul\":926:944   */\n  keccak256\n    /* \"#utility.yul\":918:944   */\n  swap1\n  pop\n    /* \"#utility.yul\":810:951   */\n  swap2\n  swap1\n  pop\n  jump\t// out\n    /* \"#utility.yul\":957:1050   */\ntag_33:\n    /* \"#utility.yul\":994:1000   */\n  0x00\n    /* \"#utility.yul\":1041:1043   */\n  0x20\n    /* \"#utility.yul\":1036:1038   */\n  0x1f\n    /* \"#utility.yul\":1029:1034   */\n  dup4\n    /* \"#utility.yul\":1025:1039   */\n  add\n    /* \"#utility.yul\":1021:1044   */\n  div\n    /* \"#utility.yul\":1011:1044   */\n  swap1\n  pop\n    /* \"#utility.yul\":957:1050   */\n  swap2\n  swap1\n  pop\n  jump\t// out\n    /* \"#utility.yul\":1056:1163   */\ntag_34:\n    /* \"#utility.yul\":1100:1108   */\n  0x00\n    /* \"#utility.yul\":1150:1155   */\n  dup3\n    /* \"#utility.yul\":1144:1148   */\n  dup3\n    /* \"#utility.yul\":1140:1156   */\n  shl\n    /* \"#utility.yul\":1119:1156   */\n  swap1\n  pop\n    /* \"#utility.yul\":1056:1163   */\n  swap3\n  swap2\n  pop\n  pop\n  jump\t// out\n    /* \"#utility.yul\":1169:1562   */\ntag_35:\n    /* \"#utility.yul\":1238:1244   */\n  0x00\n    /* \"#utility.yul\":1288:1289   */\n  0x08\n    /* \"#utility.yul\":1276:1286   */\n  dup4\n    /* \"#utility.yul\":1272:1290   */\n  mul\n    /* \"#utility.yul\":1311:1408   */\n  tag_73\n    /* \"#utility.yul\":1341:1407   */\n  0xffffffffffffffffffffffffffffffffffffffffffffffffffffffffffffffff\n    /* \"#utility.yul\":1330:1339   */\n  dup3\n    /* \"#utility.yul\":1311:1408   */\n  tag_34\n  jump\t// in\ntag_73:\n    /* \"#utility.yul\":1429:1468   */\n  tag_74\n    /* \"#utility.yul\":1459:1467   */\n  dup7\n    /* \"#utility.yul\":1448:1457   */\n  dup4\n    /* \"#utility.yul\":1429:1468   */\n  tag_34\n  jump\t// in\ntag_74:\n    /* \"#utility.yul\":1417:1468   */\n  swap6\n  pop\n    /* \"#utility.yul\":1501:1505   */\n  dup1\n    /* \"#utility.yul\":1497:1506   */\n  not\n    /* \"#utility.yul\":1490:1495   */\n  dup5\n    /* \"#utility.yul\":1486:1507   */\n  and\n    /* \"#utility.yul\":1477:1507   */\n  swap4\n  pop\n    /* \"#utility.yul\":1550:1554   */\n  dup1\n    /* \"#utility.yul\":1540:1548   */\n  dup7\n    /* \"#utility.yul\":1536:1555   */\n  and\n    /* \"#utility.yul\":1529:1534   */\n  dup5\n    /* \"#utility.yul\":1526:1556   */\n  or\n    /* \"#utility.yul\":1516:1556   */\n  swap3\n  pop\n    /* \"#utility.yul\":1245:1562   */\n  pop\n  pop\n    /* \"#utility.yul\":1169:1562   */\n  swap4\n  swap3\n  pop\n  pop\n  pop\n  jump\t// out\n    /* \"#utility.yul\":1568:1645   */\ntag_36:\n    /* \"#utility.yul\":1605:1612   */\n  0x00\n    /* \"#utility.yul\":1634:1639   */\n  dup2\n    /* \"#utility.yul\":1623:1639   */\n  swap1\n  pop\n    /* \"#utility.yul\":1568:1645   */\n  swap2\n  swap1\n  pop\n  jump\t// out\n    /* \"#utility.yul\":1651:1711   */\ntag_37:\n    /* \"#utility.yul\":1679:1682   */\n  0x00\n    /* \"#utility.yul\":1700:1705   */\n  dup2\n    /* \"#utility.yul\":1693:1705   */\n  swap1\n  pop\n    /* \"#utility.yul\":1651:1711   */\n  swap2\n  swap1\n  pop\n  jump\t// out\n    /* \"#utility.yul\":1717:1859   */\ntag_38:\n    /* \"#utility.yul\":1767:1776   */\n  0x00\n    /* \"#utility.yul\":1800:1853   */\n  tag_78\n    /* \"#utility.yul\":1818:1852   */\n  tag_79\n    /* \"#utility.yul\":1827:1851   */\n  tag_80\n    /* \"#utility.yul\":1845:1850   */\n  dup5\n    /* \"#utility.yul\":1827:1851   */\n  tag_36\n  jump\t// in\ntag_80:\n    /* \"#utility.yul\":1818:1852   */\n  tag_37\n  jump\t// in\ntag_79:\n    /* \"#utility.yul\":1800:1853   */\n  tag_36\n  jump\t// in\ntag_78:\n    /* \"#utility.yul\":1787:1853   */\n  swap1\n  pop\n    /* \"#utility.yul\":1717:1859   */\n  swap2\n  swap1\n  pop\n  jump\t// out\n    /* \"#utility.yul\":1865:1940   */\ntag_39:\n    /* \"#utility.yul\":1908:1911   */\n  0x00\n    /* \"#utility.yul\":1929:1934   */\n  dup2\n    /* \"#utility.yul\":1922:1934   */\n  swap1\n  pop\n    /* \"#utility.yul\":1865:1940   */\n  swap2\n  swap1\n  pop\n  jump\t// out\n    /* \"#utility.yul\":1946:2215   */\ntag_40:\n    /* \"#utility.yul\":2056:2095   */\n  tag_83\n    /* \"#utility.yul\":2087:2094   */\n  dup4\n    /* \"#utility.yul\":2056:2095   */\n  tag_38\n  jump\t// in\ntag_83:\n    /* \"#utility.yul\":2117:2208   */\n  tag_84\n    /* \"#utility.yul\":2166:2207   */\n  tag_85\n    /* \"#utility.yul\":2190:2206   */\n  dup3\n    /* \"#utility.yul\":2166:2207   */\n  tag_39\n  jump\t// in\ntag_85:\n    /* \"#utility.yul\":2158:2164   */\n  dup5\n    /* \"#utility.yul\":2151:2155   */\n  dup5\n    /* \"#utility.yul\":2145:2156   */\n  sload\n    /* \"#utility.yul\":2117:2208   */\n  tag_35\n  jump\t// in\ntag_84:\n    /* \"#utility.yul\":2111:2115   */\n  dup3\n    /* \"#utility.yul\":2104:2209   */\n  sstore\n    /* \"#utility.yul\":2022:2215   */\n  pop\n    /* \"#utility.yul\":1946:2215   */\n  pop\n  pop\n  pop\n  jump\t// out\n    /* \"#utility.yul\":2221:2294   */\ntag_41:\n    /* \"#utility.yul\":2266:2269   */\n  0x00\n    /* \"#utility.yul\":2287:2288   */\n  0x00\n    /* \"#utility.yul\":2280:2288   */\n  swap1\n  pop\n    /* \"#utility.yul\":2221:2294   */\n  swap1\n  jump\t// out\n    /* \"#utility.yul\":2300:2489   */\ntag_42:\n    /* \"#utility.yul\":2377:2409   */\n  tag_88\n  tag_41\n  jump\t// in\ntag_88:\n    /* \"#utility.yul\":2418:2483   */\n  tag_89\n    /* \"#utility.yul\":2476:2482   */\n  dup2\n    /* \"#utility.yul\":2468:2474   */\n  dup5\n    /* \"#utility.yul\":2462:2466   */\n  dup5\n    /* \"#utility.yul\":2418:2483   */\n  tag_40\n  jump\t// in\ntag_89:\n    /* \"#utility.yul\":2353:2489   */\n  pop\n    /* \"#utility.yul\":2300:2489   */\n  pop\n  pop\n  jump\t// out\n    /* \"#utility.yul\":2495:2681   */\ntag_43:\n    /* \"#utility.yul\":2555:2675   */\ntag_91:\n    /* \"#utility.yul\":2572:2575   */\n  dup2\n    /* \"#utility.yul\":2565:2570   */\n  dup2\n    /* \"#utility.yul\":2562:2576   */\n  lt\n    /* \"#utility.yul\":2555:2675   */\n  iszero\n  tag_93\n  jumpi\n    /* \"#utility.yul\":2626:2665   */\n  tag_94\n    /* \"#utility.yul\":2663:2664   */\n  0x00\n    /* \"#utility.yul\":2656:2661   */\n  dup3\n    /* \"#utility.yul\":2626:2665   */\n  tag_42\n  jump\t// in\ntag_94:\n    /* \"#utility.yul\":2599:2600   */\n  0x01\n    /* \"#utility.yul\":2592:2597   */\n  dup2\n    /* \"#utility.yul\":2588:2601   */\n  add\n    /* \"#utility.yul\":2579:2601   */\n  swap1\n  pop\n    /* \"#utility.yul\":2555:2675   */\n  jump(tag_91)\ntag_93:\n    /* \"#utility.yul\":2495:2681   */\n  pop\n  pop\n  jump\t// out\n    /* \"#utility.yul\":2687:3230   */\ntag_44:\n    /* \"#utility.yul\":2788:2790   */\n  0x1f\n    /* \"#utility.yul\":2783:2786   */\n  dup3\n    /* \"#utility.yul\":2780:2791   */\n  gt\n    /* \"#utility.yul\":2777:3223   */\n  iszero\n  tag_96\n  jumpi\n    /* \"#utility.yul\":2822:2860   */\n  tag_97\n    /* \"#utility.yul\":2854:2859   */\n  dup2\n    /* \"#utility.yul\":2822:2860   */\n  tag_32\n  jump\t// in\ntag_97:\n    /* \"#utility.yul\":2906:2935   */\n  tag_98\n    /* \"#utility.yul\":2924:2934   */\n  dup5\n    /* \"#utility.yul\":2906:2935   */\n  tag_33\n  jump\t// in\ntag_98:\n    /* \"#utility.yul\":2896:2904   */\n  dup2\n    /* \"#utility.yul\":2892:2936   */\n  add\n    /* \"#utility.yul\":3089:3091   */\n  0x20\n    /* \"#utility.yul\":3077:3087   */\n  dup6\n    /* \"#utility.yul\":3074:3092   */\n  lt\n    /* \"#utility.yul\":3071:3120   */\n  iszero\n  tag_99\n  jumpi\n    /* \"#utility.yul\":3110:3118   */\n  dup2\n    /* \"#utility.yul\":3095:3118   */\n  swap1\n  pop\n    /* \"#utility.yul\":3071:3120   */\ntag_99:\n    /* \"#utility.yul\":3133:3213   */\n  tag_100\n    /* \"#utility.yul\":3189:3211   */\n  tag_101\n    /* \"#utility.yul\":3207:3210   */\n  dup6\n    /* \"#utility.yul\":3189:3211   */\n  tag_33\n  jump\t// in\ntag_101:\n    /* \"#utility.yul\":3179:3187   */\n  dup4\n    /* \"#utility.yul\":3175:3212   */\n  add\n    /* \"#utility.yul\":3162:3173   */\n  dup3\n    /* \"#utility.yul\":3133:3213   */\n  tag_43\n  jump\t// in\ntag_100:\n    /* \"#utility.yul\":2792:3223   */\n  pop\n  pop\n    /* \"#utility.yul\":2777:3223   */\ntag_96:\n    /* \"#utility.yul\":2687:3230   */\n  pop\n  pop\n  pop\n  jump\t// out\n    /* \"#utility.yul\":3236:3353   */\ntag_45:\n    /* \"#utility.yul\":3290:3298   */\n  0x00\n    /* \"#utility.yul\":3340:3345   */\n  dup3\n    /* \"#utility.yul\":3334:3338   */\n  dup3\n    /* \"#utility.yul\":3330:3346   */\n  shr\n    /* \"#utility.yul\":3309:3346   */\n  swap1\n  pop\n    /* \"#utility.yul\":3236:3353   */\n  swap3\n  swap2\n  pop\n  pop\n  jump\t// out\n    /* \"#utility.yul\":3359:3528   */\ntag_46:\n    /* \"#utility.yul\":3403:3409   */\n  0x00\n    /* \"#utility.yul\":3436:3487   */\n  tag_104\n    /* \"#utility.yul\":3484:3485   */\n  0x00\n    /* \"#utility.yul\":3480:3486   */\n  not\n    /* \"#utility.yul\":3472:3477   */\n  dup5\n    /* \"#utility.yul\":3469:3470   */\n  0x08\n    /* \"#utility.yul\":3465:3478   */\n  mul\n    /* \"#utility.yul\":3436:3487   */\n  tag_45\n  jump\t// in\ntag_104:\n    /* \"#utility.yul\":3432:3488   */\n  not\n    /* \"#utility.yul\":3517:3521   */\n  dup1\n    /* \"#utility.yul\":3511:3515   */\n  dup4\n    /* \"#utility.yul\":3507:3522   */\n  and\n    /* \"#utility.yul\":3497:3522   */\n  swap2\n  pop\n    /* \"#utility.yul\":3410:3528   */\n  pop\n    /* \"#utility.yul\":3359:3528   */\n  swap3\n  swap2\n  pop\n  pop\n  jump\t// out\n    /* \"#utility.yul\":3533:3828   */\ntag_47:\n    /* \"#utility.yul\":3609:3613   */\n  0x00\n    /* \"#utility.yul\":3755:3784   */\n  tag_106\n    /* \"#utility.yul\":3780:3783   */\n  dup4\n    /* \"#utility.yul\":3774:3778   */\n  dup4\n    /* \"#utility.yul\":3755:3784   */\n  tag_46\n  jump\t// in\ntag_106:\n    /* \"#utility.yul\":3747:3784   */\n  swap2\n  pop\n    /* \"#utility.yul\":3817:3820   */\n  dup3\n    /* \"#utility.yul\":3814:3815   */\n  0x02\n    /* \"#utility.yul\":3810:3821   */\n  mul\n    /* \"#utility.yul\":3804:3808   */\n  dup3\n    /* \"#utility.yul\":3801:3822   */\n  or\n    /* \"#utility.yul\":3793:3822   */\n  swap1\n  pop\n    /* \"#utility.yul\":3533:3828   */\n  swap3\n  swap2\n  pop\n  pop\n  jump\t// out\n    /* \"#utility.yul\":3833:5228   */\ntag_2:\n    /* \"#utility.yul\":3950:3987   */\n  tag_108\n    /* \"#utility.yul\":3983:3986   */\n  dup3\n    /* \"#utility.yul\":3950:3987   */\n  tag_28\n  jump\t// in\ntag_108:\n    /* \"#utility.yul\":4052:4070   */\n  0xffffffffffffffff\n    /* \"#utility.yul\":4044:4050   */\n  dup2\n    /* \"#utility.yul\":4041:4071   */\n  gt\n    /* \"#utility.yul\":4038:4094   */\n  iszero\n  tag_109\n  jumpi\n    /* \"#utility.yul\":4074:4092   */\n  tag_110\n  tag_29\n  jump\t// in\ntag_110:\n    /* \"#utility.yul\":4038:4094   */\ntag_109:\n    /* \"#utility.yul\":4118:4156   */\n  tag_111\n    /* \"#utility.yul\":4150:4154   */\n  dup3\n    /* \"#utility.yul\":4144:4155   */\n  sload\n    /* \"#utility.yul\":4118:4156   */\n  tag_31\n  jump\t// in\ntag_111:\n    /* \"#utility.yul\":4203:4270   */\n  tag_112\n    /* \"#utility.yul\":4263:4269   */\n  dup3\n    /* \"#utility.yul\":4255:4261   */\n  dup3\n    /* \"#utility.yul\":4249:4253   */\n  dup6\n    /* \"#utility.yul\":4203:4270   */\n  tag_44\n  jump\t// in\ntag_112:\n    /* \"#utility.yul\":4297:4298   */\n  0x00\n    /* \"#utility.yul\":4321:4325   */\n  0x20\n    /* \"#utility.yul\":4308:4325   */\n  swap1\n  pop\n    /* \"#utility.yul\":4353:4355   */\n  0x1f\n    /* \"#utility.yul\":4345:4351   */\n  dup4\n    /* \"#utility.yul\":4342:4356   */\n  gt\n    /* \"#utility.yul\":4370:4371   */\n  0x01\n    /* \"#utility.yul\":4365:4983   */\n  dup2\n  eq\n  tag_114\n  jumpi\n    /* \"#utility.yul\":5027:5028   */\n  0x00\n    /* \"#utility.yul\":5044:5050   */\n  dup5\n    /* \"#utility.yul\":5041:5118   */\n  iszero\n  tag_115\n  jumpi\n    /* \"#utility.yul\":5093:5102   */\n  dup3\n    /* \"#utility.yul\":5088:5091   */\n  dup8\n    /* \"#utility.yul\":5084:5103   */\n  add\n    /* \"#utility.yul\":5078:5104   */\n  mload\n    /* \"#utility.yul\":5069:5104   */\n  swap1\n  pop\n    /* \"#utility.yul\":5041:5118   */\ntag_115:\n    /* \"#utility.yul\":5144:5211   */\n  tag_116\n    /* \"#utility.yul\":5204:5210   */\n  dup6\n    /* \"#utility.yul\":5197:5202   */\n  dup3\n    /* \"#utility.yul\":5144:5211   */\n  tag_47\n  jump\t// in\ntag_116:\n    /* \"#utility.yul\":5138:5142   */\n  dup7\n    /* \"#utility.yul\":5131:5212   */\n  sstore\n    /* \"#utility.yul\":5000:5222   */\n  pop\n    /* \"#utility.yul\":4335:5222   */\n  jump(tag_113)\n    /* \"#utility.yul\":4365:4983   */\ntag_114:\n    /* \"#utility.yul\":4417:4421   */\n  0x1f\n    /* \"#utility.yul\":4413:4422   */\n  not\n    /* \"#utility.yul\":4405:4411   */\n  dup5\n    /* \"#utility.yul\":4401:4423   */\n  and\n    /* \"#utility.yul\":4451:4488   */\n  tag_117\n    /* \"#utility.yul\":4483:4487   */\n  dup7\n    /* \"#utility.yul\":4451:4488   */\n  tag_32\n  jump\t// in\ntag_117:\n    /* \"#utility.yul\":4510:4511   */\n  0x00\n    /* \"#utility.yul\":4524:4732   */\ntag_118:\n    /* \"#utility.yul\":4538:4545   */\n  dup3\n    /* \"#utility.yul\":4535:4536   */\n  dup2\n    /* \"#utility.yul\":4532:4546   */\n  lt\n    /* \"#utility.yul\":4524:4732   */\n  iszero\n  tag_120\n  jumpi\n    /* \"#utility.yul\":4617:4626   */\n  dup5\n    /* \"#utility.yul\":4612:4615   */\n  dup10\n    /* \"#utility.yul\":4608:4627   */\n  add\n    /* \"#utility.yul\":4602:4628   */\n  mload\n    /* \"#utility.yul\":4594:4600   */\n  dup3\n    /* \"#utility.yul\":4587:4629   */\n  sstore\n    /* \"#utility.yul\":4668:4669   */\n  0x01\n    /* \"#utility.yul\":4660:4666   */\n  dup3\n    /* \"#utility.yul\":4656:4670   */\n  add\n    /* \"#utility.yul\":4646:4670   */\n  swap2\n  pop\n    /* \"#utility.yul\":4715:4717   */\n  0x20\n    /* \"#utility.yul\":4704:4713   */\n  dup6\n    /* \"#utility.yul\":4700:4718   */\n  add\n    /* \"#utility.yul\":4687:4718   */\n  swap5\n  pop\n    /* \"#utility.yul\":4561:4565   */\n  0x20\n    /* \"#utility.yul\":4558:4559   */\n  dup2\n    /* \"#utility.yul\":4554:4566   */\n  add\n    /* \"#utility.yul\":4549:4566   */\n  swap1\n  pop\n    /* \"#utility.yul\":4524:4732   */\n  jump(tag_118)\ntag_120:\n    /* \"#utility.yul\":4760:4766   */\n  dup7\n    /* \"#utility.yul\":4751:4758   */\n  dup4\n    /* \"#utility.yul\":4748:4767   */\n  lt\n    /* \"#utility.yul\":4745:4924   */\n  iszero\n  tag_121\n  jumpi\n    /* \"#utility.yul\":4818:4827   */\n  dup5\n    /* \"#utility.yul\":4813:4816   */\n  dup10\n    /* \"#utility.yul\":4809:4828   */\n  add\n    /* \"#utility.yul\":4803:4829   */\n  mload\n    /* \"#utility.yul\":4861:4909   */\n  tag_122\n    /* \"#utility.yul\":4903:4907   */\n  0x1f\n    /* \"#utility.yul\":4895:4901   */\n  dup10\n    /* \"#utility.yul\":4891:4908   */\n  and\n    /* \"#utility.yul\":4880:4889   */\n  dup3\n    /* \"#utility.yul\":4861:4909   */\n  tag_46\n  jump\t// in\ntag_122:\n    /* \"#utility.yul\":4853:4859   */\n  dup4\n    /* \"#utility.yul\":4846:4910   */\n  sstore\n    /* \"#utility.yul\":4768:4924   */\n  pop\n    /* \"#utility.yul\":4745:4924   */\ntag_121:\n    /* \"#utility.yul\":4970:4971   */\n  0x01\n    /* \"#utility.yul\":4966:4967   */\n  0x02\n    /* \"#utility.yul\":4958:4964   */\n  dup9\n    /* \"#utility.yul\":4954:4968   */\n  mul\n    /* \"#utility.yul\":4950:4972   */\n  add\n    /* \"#utility.yul\":4944:4948   */\n  dup9\n    /* \"#utility.yul\":4937:4973   */\n  sstore\n    /* \"#utility.yul\":4372:4983   */\n  pop\n  pop\n  pop\n    /* \"#utility.yul\":4335:5222   */\ntag_113:\n  pop\n    /* \"#utility.yul\":3925:5228   */\n  pop\n  pop\n  pop\n    /* \"#utility.yul\":3833:5228   */\n  pop\n  pop\n  jump\t// out\n    /* \"#utility.yul\":5234:5414   */\ntag_48:\n    /* \"#utility.yul\":5282:5359   */\n  0x4e487b7100000000000000000000000000000000000000000000000000000000\n    /* \"#utility.yul\":5279:5280   */\n  0x00\n    /* \"#utility.yul\":5272:5360   */\n  mstore\n    /* \"#utility.yul\":5379:5383   */\n  0x11\n    /* \"#utility.yul\":5376:5377   */\n  0x04\n    /* \"#utility.yul\":5369:5384   */\n  mstore\n    /* \"#utility.yul\":5403:5407   */\n  0x24\n    /* \"#utility.yul\":5400:5401   */\n  0x00\n    /* \"#utility.yul\":5393:5408   */\n  revert\n    /* \"#utility.yul\":5420:5522   */\ntag_49:\n    /* \"#utility.yul\":5462:5470   */\n  0x00\n    /* \"#utility.yul\":5509:5514   */\n  dup2\n    /* \"#utility.yul\":5506:5507   */\n  0x01\n    /* \"#utility.yul\":5502:5515   */\n  shr\n    /* \"#utility.yul\":5481:5515   */\n  swap1\n  pop\n    /* \"#utility.yul\":5420:5522   */\n  swap2\n  swap1\n  pop\n  jump\t// out\n    /* \"#utility.yul\":5528:6376   */\ntag_50:\n    /* \"#utility.yul\":5589:5594   */\n  0x00\n    /* \"#utility.yul\":5596:5600   */\n  0x00\n    /* \"#utility.yul\":5620:5626   */\n  dup3\n    /* \"#utility.yul\":5611:5626   */\n  swap2\n  pop\n    /* \"#utility.yul\":5644:5649   */\n  dup4\n    /* \"#utility.yul\":5635:5649   */\n  swap1\n  pop\n    /* \"#utility.yul\":5658:6370   */\ntag_126:\n    /* \"#utility.yul\":5679:5680   */\n  0x01\n    /* \"#utility.yul\":5669:5677   */\n  dup6\n    /* \"#utility.yul\":5666:5681   */\n  gt\n    /* \"#utility.yul\":5658:6370   */\n  iszero\n  tag_128\n  jumpi\n    /* \"#utility.yul\":5774:5778   */\n  dup1\n    /* \"#utility.yul\":5769:5772   */\n  dup7\n    /* \"#utility.yul\":5765:5779   */\n  div\n    /* \"#utility.yul\":5759:5763   */\n  dup2\n    /* \"#utility.yul\":5756:5780   */\n  gt\n    /* \"#utility.yul\":5753:5803   */\n  iszero\n  tag_129\n  jumpi\n    /* \"#utility.yul\":5783:5801   */\n  tag_130\n  tag_48\n  jump\t// in\ntag_130:\n    /* \"#utility.yul\":5753:5803   */\ntag_129:\n    /* \"#utility.yul\":5833:5834   */\n  0x01\n    /* \"#utility.yul\":5823:5831   */\n  dup6\n    /* \"#utility.yul\":5819:5835   */\n  and\n    /* \"#utility.yul\":5816:6267   */\n  iszero\n  tag_131\n  jumpi\n    /* \"#utility.yul\":6248:6252   */\n  dup1\n    /* \"#utility.yul\":6241:6246   */\n  dup3\n    /* \"#utility.yul\":6237:6253   */\n  mul\n    /* \"#utility.yul\":6228:6253   */\n  swap2\n  pop\n    /* \"#utility.yul\":5816:6267   */\ntag_131:\n    /* \"#utility.yul\":6298:6302   */\n  dup1\n    /* \"#utility.yul\":6292:6296   */\n  dup2\n    /* \"#utility.yul\":6288:6303   */\n  mul\n    /* \"#utility.yul\":6280:6303   */\n  swap1\n  pop\n    /* \"#utility.yul\":6328:6360   */\n  tag_132\n    /* \"#utility.yul\":6351:6359   */\n  dup6\n    /* \"#utility.yul\":6328:6360   */\n  tag_49\n  jump\t// in\ntag_132:\n    /* \"#utility.yul\":6316:6360   */\n  swap5\n  pop\n    /* \"#utility.yul\":5658:6370   */\n  jump(tag_126)\ntag_128:\n    /* \"#utility.yul\":5528:6376   */\n  swap5\n  pop\n  swap5\n  swap3\n  pop\n  pop\n  pop\n  jump\t// out\n    /* \"#utility.yul\":6382:7455   */\ntag_51:\n    /* \"#utility.yul\":6436:6441   */\n  0x00\n    /* \"#utility.yul\":6627:6635   */\n  dup3\n    /* \"#utility.yul\":6617:6657   */\n  tag_134\n  jumpi\n    /* \"#utility.yul\":6648:6649   */\n  0x01\n    /* \"#utility.yul\":6639:6649   */\n  swap1\n  pop\n    /* \"#utility.yul\":6650:6655   */\n  jump(tag_133)\n    /* \"#utility.yul\":6617:6657   */\ntag_134:\n    /* \"#utility.yul\":6676:6680   */\n  dup2\n    /* \"#utility.yul\":6666:6702   */\n  tag_135\n  jumpi\n    /* \"#utility.yul\":6693:6694   */\n  0x00\n    /* \"#utility.yul\":6684:6694   */\n  swap1\n  pop\n    /* \"#utility.yul\":6695:6700   */\n  jump(tag_133)\n    /* \"#utility.yul\":6666:6702   */\ntag_135:\n    /* \"#utility.yul\":6762:6766   */\n  dup2\n    /* \"#utility.yul\":6810:6811   */\n  0x01\n    /* \"#utility.yul\":6805:6832   */\n  dup2\n  eq\n  tag_137\n  jumpi\n    /* \"#utility.yul\":6846:6847   */\n  0x02\n    /* \"#utility.yul\":6841:7032   */\n  dup2\n  eq\n  tag_138\n  jumpi\n    /* \"#utility.yul\":6755:7032   */\n  jump(tag_136)\n    /* \"#utility.yul\":6805:6832   */\ntag_137:\n    /* \"#utility.yul\":6823:6824   */\n  0x01\n    /* \"#utility.yul\":6814:6824   */\n  swap2\n  pop\n    /* \"#utility.yul\":6825:6830   */\n  pop\n  jump(tag_133)\n    /* \"#utility.yul\":6841:7032   */\ntag_138:\n    /* \"#utility.yul\":6886:6889   */\n  0xff\n    /* \"#utility.yul\":6876:6884   */\n  dup5\n    /* \"#utility.yul\":6873:6890   */\n  gt\n    /* \"#utility.yul\":6870:6913   */\n  iszero\n  tag_139\n  jumpi\n    /* \"#utility.yul\":6893:6911   */\n  tag_140\n  tag_48\n  jump\t// in\ntag_140:\n    /* \"#utility.yul\":6870:6913   */\ntag_139:\n    /* \"#utility.yul\":6942:6950   */\n  dup4\n    /* \"#utility.yul\":6939:6940   */\n  0x02\n    /* \"#utility.yul\":6935:6951   */\n  exp\n    /* \"#utility.yul\":6926:6951   */\n  swap2\n  pop\n    /* \"#utility.yul\":6977:6980   */\n  dup5\n    /* \"#utility.yul\":6970:6975   */\n  dup3\n    /* \"#utility.yul\":6967:6981   */\n  gt\n    /* \"#utility.yul\":6964:7004   */\n  iszero\n  tag_141\n  jumpi\n    /* \"#utility.yul\":6984:7002   */\n  tag_142\n  tag_48\n  jump\t// in\ntag_142:\n    /* \"#utility.yul\":6964:7004   */\ntag_141:\n    /* \"#utility.yul\":7017:7022   */\n  pop\n  jump(tag_133)\n    /* \"#utility.yul\":6755:7032   */\ntag_136:\n  pop\n    /* \"#utility.yul\":7141:7143   */\n  0x20\n    /* \"#utility.yul\":7131:7139   */\n  dup4\n    /* \"#utility.yul\":7128:7144   */\n  lt\n    /* \"#utility.yul\":7122:7125   */\n  0x0133\n    /* \"#utility.yul\":7116:7120   */\n  dup4\n    /* \"#utility.yul\":7113:7126   */\n  lt\n    /* \"#utility.yul\":7109:7145   */\n  and\n    /* \"#utility.yul\":7091:7093   */\n  0x4e\n    /* \"#utility.yul\":7081:7089   */\n  dup5\n    /* \"#utility.yul\":7078:7094   */\n  lt\n    /* \"#utility.yul\":7073:7075   */\n  0x0b\n    /* \"#utility.yul\":7067:7071   */\n  dup5\n    /* \"#utility.yul\":7064:7076   */\n  lt\n    /* \"#utility.yul\":7060:7095   */\n  and\n    /* \"#utility.yul\":7044:7155   */\n  or\n    /* \"#utility.yul\":7041:7287   */\n  iszero\n  tag_143\n  jumpi\n    /* \"#utility.yul\":7197:7205   */\n  dup3\n    /* \"#utility.yul\":7191:7195   */\n  dup3\n    /* \"#utility.yul\":7187:7206   */\n  exp\n    /* \"#utility.yul\":7178:7206   */\n  swap1\n  pop\n    /* \"#utility.yul\":7232:7235   */\n  dup4\n    /* \"#utility.yul\":7225:7230   */\n  dup2\n    /* \"#utility.yul\":7222:7236   */\n  gt\n    /* \"#utility.yul\":7219:7259   */\n  iszero\n  tag_144\n  jumpi\n    /* \"#utility.yul\":7239:7257   */\n  tag_145\n  tag_48\n  jump\t// in\ntag_145:\n    /* \"#utility.yul\":7219:7259   */\ntag_144:\n    /* \"#utility.yul\":7272:7277   */\n  jump(tag_133)\n    /* \"#utility.yul\":7041:7287   */\ntag_143:\n    /* \"#utility.yul\":7312:7354   */\n  tag_146\n    /* \"#utility.yul\":7350:7353   */\n  dup5\n    /* \"#utility.yul\":7340:7348   */\n  dup5\n    /* \"#utility.yul\":7334:7338   */\n  dup5\n    /* \"#utility.yul\":7331:7332   */\n  0x01\n    /* \"#utility.yul\":7312:7354   */\n  tag_50\n  jump\t// in\ntag_146:\n    /* \"#utility.yul\":7297:7354   */\n  swap3\n  pop\n  swap1\n  pop\n    /* \"#utility.yul\":7386:7390   */\n  dup2\n    /* \"#utility.yul\":7381:7384   */\n  dup5\n    /* \"#utility.yul\":7377:7391   */\n  div\n    /* \"#utility.yul\":7370:7375   */\n  dup2\n    /* \"#utility.yul\":7367:7392   */\n  gt\n    /* \"#utility.yul\":7364:7415   */\n  iszero\n  tag_147\n  jumpi\n    /* \"#utility.yul\":7395:7413   */\n  tag_148\n  tag_48\n  jump\t// in\ntag_148:\n    /* \"#utility.yul\":7364:7415   */\ntag_147:\n    /* \"#utility.yul\":7444:7448   */\n  dup2\n    /* \"#utility.yul\":7437:7442   */\n  dup2\n    /* \"#utility.yul\":7433:7449   */\n  mul\n    /* \"#utility.yul\":7424:7449   */\n  swap1\n  pop\n    /* \"#utility.yul\":6382:7455   */\ntag_133:\n  swap4\n  swap3\n  pop\n  pop\n  pop\n  jump\t// out\n    /* \"#utility.yul\":7461:7746   */\ntag_5:\n    /* \"#utility.yul\":7521:7526   */\n  0x00\n    /* \"#utility.yul\":7545:7568   */\n  tag_150\n    /* \"#utility.yul\":7563:7567   */\n  dup3\n    /* \"#utility.yul\":7545:7568   */\n  tag_36\n  jump\t// in\ntag_150:\n    /* \"#utility.yul\":7537:7568   */\n  swap2\n  pop\n    /* \"#utility.yul\":7589:7616   */\n  tag_151\n    /* \"#utility.yul\":7607:7615   */\n  dup4\n    /* \"#utility.yul\":7589:7616   */\n  tag_36\n  jump\t// in\ntag_151:\n    /* \"#utility.yul\":7577:7616   */\n  swap3\n  pop\n    /* \"#utility.yul\":7635:7739   */\n  tag_152\n    /* \"#utility.yul\":7672:7738   */\n  0xffffffffffffffffffffffffffffffffffffffffffffffffffffffffffffffff\n    /* \"#utility.yul\":7662:7670   */\n  dup5\n    /* \"#utility.yul\":7656:7660   */\n  dup5\n    /* \"#utility.yul\":7635:7739   */\n  tag_51\n  jump\t// in\ntag_152:\n    /* \"#utility.yul\":7626:7739   */\n  swap1\n  pop\n    /* \"#utility.yul\":7461:7746   */\n  swap3\n  swap2\n  pop\n  pop\n  jump\t// out\n    /* \"#utility.yul\":7752:8162   */\ntag_7:\n    /* \"#utility.yul\":7792:7799   */\n  0x00\n    /* \"#utility.yul\":7815:7835   */\n  tag_154\n    /* \"#utility.yul\":7833:7834   */\n  dup3\n    /* \"#utility.yul\":7815:7835   */\n  tag_36\n  jump\t// in\ntag_154:\n    /* \"#utility.yul\":7810:7835   */\n  swap2\n  pop\n    /* \"#utility.yul\":7849:7869   */\n  tag_155\n    /* \"#utility.yul\":7867:7868   */\n  dup4\n    /* \"#utility.yul\":7849:7869   */\n  tag_36\n  jump\t// in\ntag_155:\n    /* \"#utility.yul\":7844:7869   */\n  swap3\n  pop\n    /* \"#utility.yul\":7904:7905   */\n  dup3\n    /* \"#utility.yul\":7901:7902   */\n  dup3\n    /* \"#utility.yul\":7897:7906   */\n  mul\n    /* \"#utility.yul\":7926:7956   */\n  tag_156\n    /* \"#utility.yul\":7944:7955   */\n  dup2\n    /* \"#utility.yul\":7926:7956   */\n  tag_36\n  jump\t// in\ntag_156:\n    /* \"#utility.yul\":7915:7956   */\n  swap2\n  pop\n    /* \"#utility.yul\":8105:8106   */\n  dup3\n    /* \"#utility.yul\":8096:8103   */\n  dup3\n    /* \"#utility.yul\":8092:8107   */\n  div\n    /* \"#utility.yul\":8089:8090   */\n  dup5\n    /* \"#utility.yul\":8086:8108   */\n  eq\n    /* \"#utility.yul\":8066:8067   */\n  dup4\n    /* \"#utility.yul\":8059:8068   */\n  iszero\n    /* \"#utility.yul\":8039:8122   */\n  or\n    /* \"#utility.yul\":8016:8155   */\n  tag_157\n  jumpi\n    /* \"#utility.yul\":8135:8153   */\n  tag_158\n  tag_48\n  jump\t// in\ntag_158:\n    /* \"#utility.yul\":8016:8155   */\ntag_157:\n    /* \"#utility.yul\":7800:8162   */\n  pop\n    /* \"#utility.yul\":7752:8162   */\n  swap3\n  swap2\n  pop\n  pop\n  jump\t// out\n    /* \"#utility.yul\":8249:8366   */\ntag_53:\n    /* \"#utility.yul\":8358:8359   */\n  0x00\n    /* \"#utility.yul\":8355:8356   */\n  0x00\n    /* \"#utility.yul\":8348:8360   */\n  revert\n    /* \"#utility.yul\":8495:8621   */\ntag_55:\n    /* \"#utility.yul\":8532:8539   */\n  0x00\n    /* \"#utility.yul\":8572:8614   */\n  0xffffffffffffffffffffffffffffffffffffffff\n    /* \"#utility.yul\":8565:8570   */\n  dup3\n    /* \"#utility.yul\":8561:8615   */\n  and\n    /* \"#utility.yul\":8550:8615   */\n  swap1\n  pop\n    /* \"#utility.yul\":8495:8621   */\n  swap2\n  swap1\n  pop\n  jump\t// out\n    /* \"#utility.yul\":8627:8723   */\ntag_56:\n    /* \"#utility.yul\":8664:8671   */\n  0x00\n    /* \"#utility.yul\":8693:8717   */\n  tag_164\n    /* \"#utility.yul\":8711:8716   */\n  dup3\n    /* \"#utility.yul\":8693:8717   */\n  tag_55\n  jump\t// in\ntag_164:\n    /* \"#utility.yul\":8682:8717   */\n  swap1\n  pop\n    /* \"#utility.yul\":8627:8723   */\n  swap2\n  swap1\n  pop\n  jump\t// out\n    /* \"#utility.yul\":8729:8851   */\ntag_57:\n    /* \"#utility.yul\":8802:8826   */\n  tag_166\n    /* \"#utility.yul\":8820:8825   */\n  dup2\n    /* \"#utility.yul\":8802:8826   */\n  tag_56\n  jump\t// in\ntag_166:\n    /* \"#utility.yul\":8795:8800   */\n  dup2\n    /* \"#utility.yul\":8792:8827   */\n  eq\n    /* \"#utility.yul\":8782:8845   */\n  tag_167\n  jumpi\n    /* \"#utility.yul\":8841:8842   */\n  0x00\n    /* \"#utility.yul\":8838:8839   */\n  0x00\n    /* \"#utility.yul\":8831:8843   */\n  revert\n    /* \"#utility.yul\":8782:8845   */\ntag_167:\n    /* \"#utility.yul\":8729:8851   */\n  pop\n  jump\t// out\n    /* \"#utility.yul\":8857:9000   */\ntag_58:\n    /* \"#utility.yul\":8914:8919   */\n  0x00\n    /* \"#utility.yul\":8945:8951   */\n  dup2\n    /* \"#utility.yul\":8939:8952   */\n  mload\n    /* \"#utility.yul\":8930:8952   */\n  swap1\n  pop\n    /* \"#utility.yul\":8961:8994   */\n  tag_169\n    /* \"#utility.yul\":8988:8993   */\n  dup2\n    /* \"#utility.yul\":8961:8994   */\n  tag_57\n  jump\t// in\ntag_169:\n    /* \"#utility.yul\":8857:9000   */\n  swap3\n  swap2\n  pop\n  pop\n  jump\t// out\n    /* \"#utility.yul\":9006:9357   */\ntag_10:\n    /* \"#utility.yul\":9076:9082   */\n  0x00\n    /* \"#utility.yul\":9125:9127   */\n  0x20\n    /* \"#utility.yul\":9113:9122   */\n  dup3\n    /* \"#utility.yul\":9104:9111   */\n  dup5\n    /* \"#utility.yul\":9100:9123   */\n  sub\n    /* \"#utility.yul\":9096:9128   */\n  slt\n    /* \"#utility.yul\":9093:9212   */\n  iszero\n  tag_171\n  jumpi\n    /* \"#utility.yul\":9131:9210   */\n  tag_172\n  tag_53\n  jump\t// in\ntag_172:\n    /* \"#utility.yul\":9093:9212   */\ntag_171:\n    /* \"#utility.yul\":9251:9252   */\n  0x00\n    /* \"#utility.yul\":9276:9340   */\n  tag_173\n    /* \"#utility.yul\":9332:9339   */\n  dup5\n    /* \"#utility.yul\":9323:9329   */\n  dup3\n    /* \"#utility.yul\":9312:9321   */\n  dup6\n    /* \"#utility.yul\":9308:9330   */\n  add\n    /* \"#utility.yul\":9276:9340   */\n  tag_58\n  jump\t// in\ntag_173:\n    /* \"#utility.yul\":9266:9340   */\n  swap2\n  pop\n    /* \"#utility.yul\":9222:9350   */\n  pop\n    /* \"#utility.yul\":9006:9357   */\n  swap3\n  swap2\n  pop\n  pop\n  jump\t// out\n    /* \"#utility.yul\":9363:9481   */\ntag_59:\n    /* \"#utility.yul\":9450:9474   */\n  tag_175\n    /* \"#utility.yul\":9468:9473   */\n  dup2\n    /* \"#utility.yul\":9450:9474   */\n  tag_56\n  jump\t// in\ntag_175:\n    /* \"#utility.yul\":9445:9448   */\n  dup3\n    /* \"#utility.yul\":9438:9475   */\n  mstore\n    /* \"#utility.yul\":9363:9481   */\n  pop\n  pop\n  jump\t// out\n    /* \"#utility.yul\":9487:9709   */\ntag_18:\n    /* \"#utility.yul\":9580:9584   */\n  0x00\n    /* \"#utility.yul\":9618:9620   */\n  0x20\n    /* \"#utility.yul\":9607:9616   */\n  dup3\n    /* \"#utility.yul\":9603:9621   */\n  add\n    /* \"#utility.yul\":9595:9621   */\n  swap1\n  pop\n    /* \"#utility.yul\":9631:9702   */\n  tag_177\n    /* \"#utility.yul\":9699:9700   */\n  0x00\n    /* \"#utility.yul\":9688:9697   */\n  dup4\n    /* \"#utility.yul\":9684:9701   */\n  add\n    /* \"#utility.yul\":9675:9681   */\n  dup5\n    /* \"#utility.yul\":9631:9702   */\n  tag_59\n  jump\t// in\ntag_177:\n    /* \"#utility.yul\":9487:9709   */\n  swap3\n  swap2\n  pop\n  pop\n  jump\t// out\n    /* \"#utility.yul\":9715:9833   */\ntag_60:\n    /* \"#utility.yul\":9802:9826   */\n  tag_179\n    /* \"#utility.yul\":9820:9825   */\n  dup2\n    /* \"#utility.yul\":9802:9826   */\n  tag_36\n  jump\t// in\ntag_179:\n    /* \"#utility.yul\":9797:9800   */\n  dup3\n    /* \"#utility.yul\":9790:9827   */\n  mstore\n    /* \"#utility.yul\":9715:9833   */\n  pop\n  pop\n  jump\t// out\n    /* \"#utility.yul\":9839:10061   */\ntag_25:\n    /* \"#utility.yul\":9932:9936   */\n  0x00\n    /* \"#utility.yul\":9970:9972   */\n  0x20\n    /* \"#utility.yul\":9959:9968   */\n  dup3\n    /* \"#utility.yul\":9955:9973   */\n  add\n    /* \"#utility.yul\":9947:9973   */\n  swap1\n  pop\n    /* \"#utility.yul\":9983:10054   */\n  tag_181\n    /* \"#utility.yul\":10051:10052   */\n  0x00\n    /* \"#utility.yul\":10040:10049   */\n  dup4\n    /* \"#utility.yul\":10036:10053   */\n  add\n    /* \"#utility.yul\":10027:10033   */\n  dup5\n    /* \"#utility.yul\":9983:10054   */\n  tag_60\n  jump\t// in\ntag_181:\n    /* \"#utility.yul\":9839:10061   */\n  swap3\n  swap2\n  pop\n  pop\n  jump\t// out\n    /* \"ALIEN.sol\":231:5319  contract ALIEN_V2 is Ownable, Pausable, ReentrancyGuard {... */\ntag_26:\n  dataSize(sub_0)\n  dup1\n  dataOffset(sub_0)\n  0x00\n  codecopy\n  0x00\n  return\nstop\n\nsub_0: assembly {\n        /* \"ALIEN.sol\":231:5319  contract ALIEN_V2 is Ownable, Pausable, ReentrancyGuard {... */\n      mstore(0x40, 0x80)\n      callvalue\n      dup1\n      iszero\n      tag_1\n      jumpi\n      revert(0x00, 0x00)\n    tag_1:\n      pop\n      jumpi(tag_2, lt(calldatasize, 0x04))\n      shr(0xe0, calldataload(0x00))\n      dup1\n      0x70a08231\n      gt\n      tag_26\n      jumpi\n      dup1\n      0x95d89b41\n      gt\n      tag_27\n      jumpi\n      dup1\n      0x95d89b41\n      eq\n      tag_20\n      jumpi\n      dup1\n      0xa9059cbb\n      eq\n      tag_21\n      jumpi\n      dup1\n      0xaf9c53da\n      eq\n      tag_22\n      jumpi\n      dup1\n      0xdd62ed3e\n      eq\n      tag_23\n      jumpi\n      dup1\n      0xf2fde38b\n      eq\n      tag_24\n      jumpi\n      dup1\n      0xf9f92be4\n      eq\n      tag_25\n      jumpi\n      jump(tag_2)\n    tag_27:\n      dup1\n      0x70a08231\n      eq\n      tag_14\n      jumpi\n      dup1\n      0x715018a6\n      eq\n      tag_15\n      jumpi\n      dup1\n      0x79cc6790\n      eq\n      tag_16\n      jumpi\n      dup1\n      0x7cc1f867\n      eq\n      tag_17\n      jumpi\n      dup1\n      0x8456cb59\n      eq\n      tag_18\n      jumpi\n      dup1\n      0x8da5cb5b\n      eq\n      tag_19\n      jumpi\n      jump(tag_2)\n    tag_26:\n      dup1\n      0x313ce567\n      gt\n      tag_28\n      jumpi\n      dup1\n      0x313ce567\n      eq\n      tag_8\n      jumpi\n      dup1\n      0x3f4ba83a\n      eq\n      tag_9\n      jumpi\n      dup1\n      0x40c10f19\n      eq\n      tag_10\n      jumpi\n      dup1\n      0x42966c68\n      eq\n      tag_11\n      jumpi\n      dup1\n      0x58d2b4a5\n      eq\n      tag_12\n      jumpi\n      dup1\n      0x5c975abb\n      eq\n      tag_13\n      jumpi\n      jump(tag_2)\n    tag_28:\n      dup1\n      0x06fdde03\n      eq\n      tag_3\n      jumpi\n      dup1\n      0x095ea7b3\n      eq\n      tag_4\n      jumpi\n      dup1\n      0x153b0d1e\n      eq\n      tag_5\n      jumpi\n      dup1\n      0x18160ddd\n      eq\n      tag_6\n      jumpi\n      dup1\n      0x23b872dd\n      eq\n      tag_7\n      jumpi\n    tag_2:\n      revert(0x00, 0x00)\n        /* \"ALIEN.sol\":293:327  string public name = \"ALIEN Token\" */\n    tag_3:\n      tag_29\n      tag_30\n      jump\t// in\n    tag_29:\n      mload(0x40)\n      tag_31\n      swap2\n      swap1\n      tag_32\n      jump\t// in\n    tag_31:\n      mload(0x40)\n      dup1\n      swap2\n      sub\n      swap1\n      return\n        /* \"ALIEN.sol\":2129:2443  function approve(address _spender, uint256 _value) public whenNotPaused returns (bool success) {... */\n    tag_4:\n      tag_33\n      0x04\n      dup1\n      calldatasize\n      sub\n      dup2\n      add\n      swap1\n      tag_34\n      swap2\n      swap1\n      tag_35\n      jump\t// in\n    tag_34:\n      tag_36\n      jump\t// in\n    tag_33:\n      mload(0x40)\n      tag_37\n      swap2\n      swap1\n      tag_38\n      jump\t// in\n    tag_37:\n      mload(0x40)\n      dup1\n      swap2\n      sub\n      swap1\n      return\n        /* \"ALIEN.sol\":4364:4533  function setBlacklist(address _address, bool _status) public onlyOwner {... */\n    tag_5:\n      tag_39\n      0x04\n      dup1\n      calldatasize\n      sub\n      dup2\n      add\n      swap1\n      tag_40\n      swap2\n      swap1\n      tag_41\n      jump\t// in\n    tag_40:\n      tag_42\n      jump\t// in\n    tag_39:\n      stop\n        /* \"ALIEN.sol\":401:464  uint256 public totalSupply = 1000000000 * 10**uint256(decimals) */\n    tag_6:\n      tag_43\n      tag_44\n      jump\t// in\n    tag_43:\n      mload(0x40)\n      tag_45\n      swap2\n      swap1\n      tag_46\n      jump\t// in\n    tag_45:\n      mload(0x40)\n      dup1\n      swap2\n      sub\n      swap1\n      return\n        /* \"ALIEN.sol\":2453:3006  function transferFrom(address _from, address _to, uint256 _value) public whenNotPaused nonReentrant returns (bool success) {... */\n    tag_7:\n      tag_47\n      0x04\n      dup1\n      calldatasize\n      sub\n      dup2\n      add\n      swap1\n      tag_48\n      swap2\n      swap1\n      tag_49\n      jump\t// in\n    tag_48:\n      tag_50\n      jump\t// in\n    tag_47:\n      mload(0x40)\n      tag_51\n      swap2\n      swap1\n      tag_38\n      jump\t// in\n    tag_51:\n      mload(0x40)\n      dup1\n      swap2\n      sub\n      swap1\n      return\n        /* \"ALIEN.sol\":369:395  uint8 public decimals = 18 */\n    tag_8:\n      tag_52\n      tag_53\n      jump\t// in\n    tag_52:\n      mload(0x40)\n      tag_54\n      swap2\n      swap1\n      tag_55\n      jump\t// in\n    tag_54:\n      mload(0x40)\n      dup1\n      swap2\n      sub\n      swap1\n      return\n        /* \"ALIEN.sol\":4291:4354  function unpause() public onlyOwner {... */\n    tag_9:\n      tag_56\n      tag_57\n      jump\t// in\n    tag_56:\n      stop\n        /* \"ALIEN.sol\":3057:3403  function mint(address _to, uint256 _amount) public onlyOwner {... */\n    tag_10:\n      tag_58\n      0x04\n      dup1\n      calldatasize\n      sub\n      dup2\n      add\n      swap1\n      tag_59\n      swap2\n      swap1\n      tag_35\n      jump\t// in\n    tag_59:\n      tag_60\n      jump\t// in\n    tag_58:\n      stop\n        /* \"ALIEN.sol\":3413:3784  function burn(uint256 _amount) public {... */\n    tag_11:\n      tag_61\n      0x04\n      dup1\n      calldatasize\n      sub\n      dup2\n      add\n      swap1\n      tag_62\n      swap2\n      swap1\n      tag_63\n      jump\t// in\n    tag_62:\n      tag_64\n      jump\t// in\n    tag_61:\n      stop\n        /* \"ALIEN.sol\":4872:4988  function getBlacklistStatus(address _address) public view returns (bool) {... */\n    tag_12:\n      tag_65\n      0x04\n      dup1\n      calldatasize\n      sub\n      dup2\n      add\n      swap1\n      tag_66\n      swap2\n      swap1\n      tag_67\n      jump\t// in\n    tag_66:\n      tag_68\n      jump\t// in\n    tag_65:\n      mload(0x40)\n      tag_69\n      swap2\n      swap1\n      tag_38\n      jump\t// in\n    tag_69:\n      mload(0x40)\n      dup1\n      swap2\n      sub\n      swap1\n      return\n        /* \"@openzeppelin/contracts/security/Pausable.sol\":1615:1699  function paused() public view virtual returns (bool) {... */\n    tag_13:\n      tag_70\n      tag_71\n      jump\t// in\n    tag_70:\n      mload(0x40)\n      tag_72\n      swap2\n      swap1\n      tag_38\n      jump\t// in\n    tag_72:\n      mload(0x40)\n      dup1\n      swap2\n      sub\n      swap1\n      return\n        /* \"ALIEN.sol\":475:519  mapping(address => uint256) public balanceOf */\n    tag_14:\n      tag_73\n      0x04\n      dup1\n      calldatasize\n      sub\n      dup2\n      add\n      swap1\n      tag_74\n      swap2\n      swap1\n      tag_67\n      jump\t// in\n    tag_74:\n      tag_75\n      jump\t// in\n    tag_73:\n      mload(0x40)\n      tag_76\n      swap2\n      swap1\n      tag_46\n      jump\t// in\n    tag_76:\n      mload(0x40)\n      dup1\n      swap2\n      sub\n      swap1\n      return\n        /* \"@openzeppelin/contracts/access/Ownable.sol\":2293:2394  function renounceOwnership() public virtual onlyOwner {... */\n    tag_15:\n      tag_77\n      tag_78\n      jump\t// in\n    tag_77:\n      stop\n        /* \"ALIEN.sol\":3794:4169  function burnFrom(address _from, uint256 _amount) public onlyOwner {... */\n    tag_16:\n      tag_79\n      0x04\n      dup1\n      calldatasize\n      sub\n      dup2\n      add\n      swap1\n      tag_80\n      swap2\n      swap1\n      tag_35\n      jump\t// in\n    tag_80:\n      tag_81\n      jump\t// in\n    tag_79:\n      stop\n        /* \"ALIEN.sol\":4998:5317  function getContractInfo() public view returns (... */\n    tag_17:\n      tag_82\n      tag_83\n      jump\t// in\n    tag_82:\n      mload(0x40)\n      tag_84\n      swap7\n      swap6\n      swap5\n      swap4\n      swap3\n      swap2\n      swap1\n      tag_85\n      jump\t// in\n    tag_84:\n      mload(0x40)\n      dup1\n      swap2\n      sub\n      swap1\n      return\n        /* \"ALIEN.sol\":4222:4281  function pause() public onlyOwner {... */\n    tag_18:\n      tag_86\n      tag_87\n      jump\t// in\n    tag_86:\n      stop\n        /* \"@openzeppelin/contracts/access/Ownable.sol\":1638:1723  function owner() public view virtual returns (address) {... */\n    tag_19:\n      tag_88\n      tag_89\n      jump\t// in\n    tag_88:\n      mload(0x40)\n      tag_90\n      swap2\n      swap1\n      tag_91\n      jump\t// in\n    tag_90:\n      mload(0x40)\n      dup1\n      swap2\n      sub\n      swap1\n      return\n        /* \"ALIEN.sol\":333:363  string public symbol = \"ALIEN\" */\n    tag_20:\n      tag_92\n      tag_93\n      jump\t// in\n    tag_92:\n      mload(0x40)\n      tag_94\n      swap2\n      swap1\n      tag_32\n      jump\t// in\n    tag_94:\n      mload(0x40)\n      dup1\n      swap2\n      sub\n      swap1\n      return\n        /* \"ALIEN.sol\":1230:1706  function transfer(address _to, uint256 _value) public whenNotPaused nonReentrant returns (bool success) {... */\n    tag_21:\n      tag_95\n      0x04\n      dup1\n      calldatasize\n      sub\n      dup2\n      add\n      swap1\n      tag_96\n      swap2\n      swap1\n      tag_35\n      jump\t// in\n    tag_96:\n      tag_97\n      jump\t// in\n    tag_95:\n      mload(0x40)\n      tag_98\n      swap2\n      swap1\n      tag_38\n      jump\t// in\n    tag_98:\n      mload(0x40)\n      dup1\n      swap2\n      sub\n      swap1\n      return\n        /* \"ALIEN.sol\":4543:4811  function batchSetBlacklist(address[] memory _addresses, bool _status) public onlyOwner {... */\n    tag_22:\n      tag_99\n      0x04\n      dup1\n      calldatasize\n      sub\n      dup2\n      add\n      swap1\n      tag_100\n      swap2\n      swap1\n      tag_101\n      jump\t// in\n    tag_100:\n      tag_102\n      jump\t// in\n    tag_99:\n      stop\n        /* \"ALIEN.sol\":525:589  mapping(address => mapping(address => uint256)) public allowance */\n    tag_23:\n      tag_103\n      0x04\n      dup1\n      calldatasize\n      sub\n      dup2\n      add\n      swap1\n      tag_104\n      swap2\n      swap1\n      tag_105\n      jump\t// in\n    tag_104:\n      tag_106\n      jump\t// in\n    tag_103:\n      mload(0x40)\n      tag_107\n      swap2\n      swap1\n      tag_46\n      jump\t// in\n    tag_107:\n      mload(0x40)\n      dup1\n      swap2\n      sub\n      swap1\n      return\n        /* \"@openzeppelin/contracts/access/Ownable.sol\":2543:2758  function transferOwnership(address newOwner) public virtual onlyOwner {... */\n    tag_24:\n      tag_108\n      0x04\n      dup1\n      calldatasize\n      sub\n      dup2\n      add\n      swap1\n      tag_109\n      swap2\n      swap1\n      tag_67\n      jump\t// in\n    tag_109:\n      tag_110\n      jump\t// in\n    tag_108:\n      stop\n        /* \"ALIEN.sol\":595:636  mapping(address => bool) public blacklist */\n    tag_25:\n      tag_111\n      0x04\n      dup1\n      calldatasize\n      sub\n      dup2\n      add\n      swap1\n      tag_112\n      swap2\n      swap1\n      tag_67\n      jump\t// in\n    tag_112:\n      tag_113\n      jump\t// in\n    tag_111:\n      mload(0x40)\n      tag_114\n      swap2\n      swap1\n      tag_38\n      jump\t// in\n    tag_114:\n      mload(0x40)\n      dup1\n      swap2\n      sub\n      swap1\n      return\n        /* \"ALIEN.sol\":293:327  string public name = \"ALIEN Token\" */\n    tag_30:\n      0x02\n      dup1\n      sload\n      tag_115\n      swap1\n      tag_116\n      jump\t// in\n    tag_115:\n      dup1\n      0x1f\n      add\n      0x20\n      dup1\n      swap2\n      div\n      mul\n      0x20\n      add\n      mload(0x40)\n      swap1\n      dup2\n      add\n      0x40\n      mstore\n      dup1\n      swap3\n      swap2\n      swap1\n      dup2\n      dup2\n      mstore\n      0x20\n      add\n      dup3\n      dup1\n      sload\n      tag_117\n      swap1\n      tag_116\n      jump\t// in\n    tag_117:\n      dup1\n      iszero\n      tag_118\n      jumpi\n      dup1\n      0x1f\n      lt\n      tag_119\n      jumpi\n      0x0100\n      dup1\n      dup4\n      sload\n      div\n      mul\n      dup4\n      mstore\n      swap2\n      0x20\n      add\n      swap2\n      jump(tag_118)\n    tag_119:\n      dup3\n      add\n      swap2\n      swap1\n      0x00\n      mstore\n      keccak256(0x00, 0x20)\n      swap1\n    tag_120:\n      dup2\n      sload\n      dup2\n      mstore\n      swap1\n      0x01\n      add\n      swap1\n      0x20\n      add\n      dup1\n      dup4\n      gt\n      tag_120\n      jumpi\n      dup3\n      swap1\n      sub\n      0x1f\n      and\n      dup3\n      add\n      swap2\n    tag_118:\n      pop\n      pop\n      pop\n      pop\n      pop\n      dup2\n      jump\t// out\n        /* \"ALIEN.sol\":2129:2443  function approve(address _spender, uint256 _value) public whenNotPaused returns (bool success) {... */\n    tag_36:\n        /* \"ALIEN.sol\":2210:2222  bool success */\n      0x00\n        /* \"@openzeppelin/contracts/security/Pausable.sol\":1239:1258  _requireNotPaused() */\n      tag_122\n        /* \"@openzeppelin/contracts/security/Pausable.sol\":1239:1256  _requireNotPaused */\n      tag_123\n        /* \"@openzeppelin/contracts/security/Pausable.sol\":1239:1258  _requireNotPaused() */\n      jump\t// in\n    tag_122:\n        /* \"ALIEN.sol\":2243:2252  blacklist */\n      0x08\n        /* \"ALIEN.sol\":2243:2264  blacklist[msg.sender] */\n      0x00\n        /* \"ALIEN.sol\":2253:2263  msg.sender */\n      caller\n        /* \"ALIEN.sol\":2243:2264  blacklist[msg.sender] */\n      0xffffffffffffffffffffffffffffffffffffffff\n      and\n      0xffffffffffffffffffffffffffffffffffffffff\n      and\n      dup2\n      mstore\n      0x20\n      add\n      swap1\n      dup2\n      mstore\n      0x20\n      add\n      0x00\n      keccak256\n      0x00\n      swap1\n      sload\n      swap1\n      0x0100\n      exp\n      swap1\n      div\n      0xff\n      and\n        /* \"ALIEN.sol\":2242:2264  !blacklist[msg.sender] */\n      iszero\n        /* \"ALIEN.sol\":2242:2288  !blacklist[msg.sender] && !blacklist[_spender] */\n      dup1\n      iszero\n      tag_125\n      jumpi\n      pop\n        /* \"ALIEN.sol\":2269:2278  blacklist */\n      0x08\n        /* \"ALIEN.sol\":2269:2288  blacklist[_spender] */\n      0x00\n        /* \"ALIEN.sol\":2279:2287  _spender */\n      dup5\n        /* \"ALIEN.sol\":2269:2288  blacklist[_spender] */\n      0xffffffffffffffffffffffffffffffffffffffff\n      and\n      0xffffffffffffffffffffffffffffffffffffffff\n      and\n      dup2\n      mstore\n      0x20\n      add\n      swap1\n      dup2\n      mstore\n      0x20\n      add\n      0x00\n      keccak256\n      0x00\n      swap1\n      sload\n      swap1\n      0x0100\n      exp\n      swap1\n      div\n      0xff\n      and\n        /* \"ALIEN.sol\":2268:2288  !blacklist[_spender] */\n      iszero\n        /* \"ALIEN.sol\":2242:2288  !blacklist[msg.sender] && !blacklist[_spender] */\n    tag_125:\n        /* \"ALIEN.sol\":2234:2312  require(!blacklist[msg.sender] && !blacklist[_spender], \"Address blacklisted\") */\n      tag_126\n      jumpi\n      mload(0x40)\n      0x08c379a000000000000000000000000000000000000000000000000000000000\n      dup2\n      mstore\n      0x04\n      add\n      tag_127\n      swap1\n      tag_128\n      jump\t// in\n    tag_127:\n      mload(0x40)\n      dup1\n      swap2\n      sub\n      swap1\n      revert\n    tag_126:\n        /* \"ALIEN.sol\":2356:2362  _value */\n      dup2\n        /* \"ALIEN.sol\":2322:2331  allowance */\n      0x07\n        /* \"ALIEN.sol\":2322:2343  allowance[msg.sender] */\n      0x00\n        /* \"ALIEN.sol\":2332:2342  msg.sender */\n      caller\n        /* \"ALIEN.sol\":2322:2343  allowance[msg.sender] */\n      0xffffffffffffffffffffffffffffffffffffffff\n      and\n      0xffffffffffffffffffffffffffffffffffffffff\n      and\n      dup2\n      mstore\n      0x20\n      add\n      swap1\n      dup2\n      mstore\n      0x20\n      add\n      0x00\n      keccak256\n        /* \"ALIEN.sol\":2322:2353  allowance[msg.sender][_spender] */\n      0x00\n        /* \"ALIEN.sol\":2344:2352  _spender */\n      dup6\n        /* \"ALIEN.sol\":2322:2353  allowance[msg.sender][_spender] */\n      0xffffffffffffffffffffffffffffffffffffffff\n      and\n      0xffffffffffffffffffffffffffffffffffffffff\n      and\n      dup2\n      mstore\n      0x20\n      add\n      swap1\n      dup2\n      mstore\n      0x20\n      add\n      0x00\n      keccak256\n        /* \"ALIEN.sol\":2322:2362  allowance[msg.sender][_spender] = _value */\n      dup2\n      swap1\n      sstore\n      pop\n        /* \"ALIEN.sol\":2398:2406  _spender */\n      dup3\n        /* \"ALIEN.sol\":2377:2415  Approval(msg.sender, _spender, _value) */\n      0xffffffffffffffffffffffffffffffffffffffff\n      and\n        /* \"ALIEN.sol\":2386:2396  msg.sender */\n      caller\n        /* \"ALIEN.sol\":2377:2415  Approval(msg.sender, _spender, _value) */\n      0xffffffffffffffffffffffffffffffffffffffff\n      and\n      0x8c5be1e5ebec7d5bd14f71427d1e84f3dd0314c0f7b2291e5b200ac8c7c3b925\n        /* \"ALIEN.sol\":2408:2414  _value */\n      dup5\n        /* \"ALIEN.sol\":2377:2415  Approval(msg.sender, _spender, _value) */\n      mload(0x40)\n      tag_129\n      swap2\n      swap1\n      tag_46\n      jump\t// in\n    tag_129:\n      mload(0x40)\n      dup1\n      swap2\n      sub\n      swap1\n      log3\n        /* \"ALIEN.sol\":2432:2436  true */\n      0x01\n        /* \"ALIEN.sol\":2425:2436  return true */\n      swap1\n      pop\n        /* \"ALIEN.sol\":2129:2443  function approve(address _spender, uint256 _value) public whenNotPaused returns (bool success) {... */\n      swap3\n      swap2\n      pop\n      pop\n      jump\t// out\n        /* \"ALIEN.sol\":4364:4533  function setBlacklist(address _address, bool _status) public onlyOwner {... */\n    tag_42:\n        /* \"@openzeppelin/contracts/access/Ownable.sol\":1531:1544  _checkOwner() */\n      tag_131\n        /* \"@openzeppelin/contracts/access/Ownable.sol\":1531:1542  _checkOwner */\n      tag_132\n        /* \"@openzeppelin/contracts/access/Ownable.sol\":1531:1544  _checkOwner() */\n      jump\t// in\n    tag_131:\n        /* \"ALIEN.sol\":4467:4474  _status */\n      dup1\n        /* \"ALIEN.sol\":4445:4454  blacklist */\n      0x08\n        /* \"ALIEN.sol\":4445:4464  blacklist[_address] */\n      0x00\n        /* \"ALIEN.sol\":4455:4463  _address */\n      dup5\n        /* \"ALIEN.sol\":4445:4464  blacklist[_address] */\n      0xffffffffffffffffffffffffffffffffffffffff\n      and\n      0xffffffffffffffffffffffffffffffffffffffff\n      and\n      dup2\n      mstore\n      0x20\n      add\n      swap1\n      dup2\n      mstore\n      0x20\n      add\n      0x00\n      keccak256\n      0x00\n        /* \"ALIEN.sol\":4445:4474  blacklist[_address] = _status */\n      0x0100\n      exp\n      dup2\n      sload\n      dup2\n      0xff\n      mul\n      not\n      and\n      swap1\n      dup4\n      iszero\n      iszero\n      mul\n      or\n      swap1\n      sstore\n      pop\n        /* \"ALIEN.sol\":4508:4516  _address */\n      dup2\n        /* \"ALIEN.sol\":4489:4526  AddressBlacklisted(_address, _status) */\n      0xffffffffffffffffffffffffffffffffffffffff\n      and\n      0x97b7af35c8c05eca90f543eb78b16fdf2664d3e6c9a907286f310647d9813b71\n        /* \"ALIEN.sol\":4518:4525  _status */\n      dup3\n        /* \"ALIEN.sol\":4489:4526  AddressBlacklisted(_address, _status) */\n      mload(0x40)\n      tag_134\n      swap2\n      swap1\n      tag_38\n      jump\t// in\n    tag_134:\n      mload(0x40)\n      dup1\n      swap2\n      sub\n      swap1\n      log2\n        /* \"ALIEN.sol\":4364:4533  function setBlacklist(address _address, bool _status) public onlyOwner {... */\n      pop\n      pop\n      jump\t// out\n        /* \"ALIEN.sol\":401:464  uint256 public totalSupply = 1000000000 * 10**uint256(decimals) */\n    tag_44:\n      sload(0x05)\n      dup2\n      jump\t// out\n        /* \"ALIEN.sol\":2453:3006  function transferFrom(address _from, address _to, uint256 _value) public whenNotPaused nonReentrant returns (bool success) {... */\n    tag_50:\n        /* \"ALIEN.sol\":2562:2574  bool success */\n      0x00\n        /* \"@openzeppelin/contracts/security/Pausable.sol\":1239:1258  _requireNotPaused() */\n      tag_136\n        /* \"@openzeppelin/contracts/security/Pausable.sol\":1239:1256  _requireNotPaused */\n      tag_123\n        /* \"@openzeppelin/contracts/security/Pausable.sol\":1239:1258  _requireNotPaused() */\n      jump\t// in\n    tag_136:\n        /* \"@openzeppelin/contracts/security/ReentrancyGuard.sol\":2261:2282  _nonReentrantBefore() */\n      tag_138\n        /* \"@openzeppelin/contracts/security/ReentrancyGuard.sol\":2261:2280  _nonReentrantBefore */\n      tag_139\n        /* \"@openzeppelin/contracts/security/ReentrancyGuard.sol\":2261:2282  _nonReentrantBefore() */\n      jump\t// in\n    tag_138:\n        /* \"ALIEN.sol\":2609:2610  0 */\n      0x00\n        /* \"ALIEN.sol\":2594:2611  _to != address(0) */\n      0xffffffffffffffffffffffffffffffffffffffff\n      and\n        /* \"ALIEN.sol\":2594:2597  _to */\n      dup4\n        /* \"ALIEN.sol\":2594:2611  _to != address(0) */\n      0xffffffffffffffffffffffffffffffffffffffff\n      and\n      sub\n        /* \"ALIEN.sol\":2586:2631  require(_to != address(0), \"Invalid address\") */\n      tag_141\n      jumpi\n      mload(0x40)\n      0x08c379a000000000000000000000000000000000000000000000000000000000\n      dup2\n      mstore\n      0x04\n      add\n      tag_142\n      swap1\n      tag_143\n      jump\t// in\n    tag_142:\n      mload(0x40)\n      dup1\n      swap2\n      sub\n      swap1\n      revert\n    tag_141:\n        /* \"ALIEN.sol\":2650:2659  blacklist */\n      0x08\n        /* \"ALIEN.sol\":2650:2666  blacklist[_from] */\n      0x00\n        /* \"ALIEN.sol\":2660:2665  _from */\n      dup6\n        /* \"ALIEN.sol\":2650:2666  blacklist[_from] */\n      0xffffffffffffffffffffffffffffffffffffffff\n      and\n      0xffffffffffffffffffffffffffffffffffffffff\n      and\n      dup2\n      mstore\n      0x20\n      add\n      swap1\n      dup2\n      mstore\n      0x20\n      add\n      0x00\n      keccak256\n      0x00\n      swap1\n      sload\n      swap1\n      0x0100\n      exp\n      swap1\n      div\n      0xff\n      and\n        /* \"ALIEN.sol\":2649:2666  !blacklist[_from] */\n      iszero\n        /* \"ALIEN.sol\":2649:2685  !blacklist[_from] && !blacklist[_to] */\n      dup1\n      iszero\n      tag_144\n      jumpi\n      pop\n        /* \"ALIEN.sol\":2671:2680  blacklist */\n      0x08\n        /* \"ALIEN.sol\":2671:2685  blacklist[_to] */\n      0x00\n        /* \"ALIEN.sol\":2681:2684  _to */\n      dup5\n        /* \"ALIEN.sol\":2671:2685  blacklist[_to] */\n      0xffffffffffffffffffffffffffffffffffffffff\n      and\n      0xffffffffffffffffffffffffffffffffffffffff\n      and\n      dup2\n      mstore\n      0x20\n      add\n      swap1\n      dup2\n      mstore\n      0x20\n      add\n      0x00\n      keccak256\n      0x00\n      swap1\n      sload\n      swap1\n      0x0100\n      exp\n      swap1\n      div\n      0xff\n      and\n        /* \"ALIEN.sol\":2670:2685  !blacklist[_to] */\n      iszero\n        /* \"ALIEN.sol\":2649:2685  !blacklist[_from] && !blacklist[_to] */\n    tag_144:\n        /* \"ALIEN.sol\":2649:2711  !blacklist[_from] && !blacklist[_to] && !blacklist[msg.sender] */\n      dup1\n      iszero\n      tag_145\n      jumpi\n      pop\n        /* \"ALIEN.sol\":2690:2699  blacklist */\n      0x08\n        /* \"ALIEN.sol\":2690:2711  blacklist[msg.sender] */\n      0x00\n        /* \"ALIEN.sol\":2700:2710  msg.sender */\n      caller\n        /* \"ALIEN.sol\":2690:2711  blacklist[msg.sender] */\n      0xffffffffffffffffffffffffffffffffffffffff\n      and\n      0xffffffffffffffffffffffffffffffffffffffff\n      and\n      dup2\n      mstore\n      0x20\n      add\n      swap1\n      dup2\n      mstore\n      0x20\n      add\n      0x00\n      keccak256\n      0x00\n      swap1\n      sload\n      swap1\n      0x0100\n      exp\n      swap1\n      div\n      0xff\n      and\n        /* \"ALIEN.sol\":2689:2711  !blacklist[msg.sender] */\n      iszero\n        /* \"ALIEN.sol\":2649:2711  !blacklist[_from] && !blacklist[_to] && !blacklist[msg.sender] */\n    tag_145:\n        /* \"ALIEN.sol\":2641:2735  require(!blacklist[_from] && !blacklist[_to] && !blacklist[msg.sender], \"Address blacklisted\") */\n      tag_146\n      jumpi\n      mload(0x40)\n      0x08c379a000000000000000000000000000000000000000000000000000000000\n      dup2\n      mstore\n      0x04\n      add\n      tag_147\n      swap1\n      tag_128\n      jump\t// in\n    tag_147:\n      mload(0x40)\n      dup1\n      swap2\n      sub\n      swap1\n      revert\n    tag_146:\n        /* \"ALIEN.sol\":2773:2779  _value */\n      dup2\n        /* \"ALIEN.sol\":2753:2762  balanceOf */\n      0x06\n        /* \"ALIEN.sol\":2753:2769  balanceOf[_from] */\n      0x00\n        /* \"ALIEN.sol\":2763:2768  _from */\n      dup7\n        /* \"ALIEN.sol\":2753:2769  balanceOf[_from] */\n      0xffffffffffffffffffffffffffffffffffffffff\n      and\n      0xffffffffffffffffffffffffffffffffffffffff\n      and\n      dup2\n      mstore\n      0x20\n      add\n      swap1\n      dup2\n      mstore\n      0x20\n      add\n      0x00\n      keccak256\n      sload\n        /* \"ALIEN.sol\":2753:2779  balanceOf[_from] >= _value */\n      lt\n      iszero\n        /* \"ALIEN.sol\":2745:2804  require(balanceOf[_from] >= _value, \"Insufficient balance\") */\n      tag_148\n      jumpi\n      mload(0x40)\n      0x08c379a000000000000000000000000000000000000000000000000000000000\n      dup2\n      mstore\n      0x04\n      add\n      tag_149\n      swap1\n      tag_150\n      jump\t// in\n    tag_149:\n      mload(0x40)\n      dup1\n      swap2\n      sub\n      swap1\n      revert\n    tag_148:\n        /* \"ALIEN.sol\":2854:2860  _value */\n      dup2\n        /* \"ALIEN.sol\":2822:2831  allowance */\n      0x07\n        /* \"ALIEN.sol\":2822:2838  allowance[_from] */\n      0x00\n        /* \"ALIEN.sol\":2832:2837  _from */\n      dup7\n        /* \"ALIEN.sol\":2822:2838  allowance[_from] */\n      0xffffffffffffffffffffffffffffffffffffffff\n      and\n      0xffffffffffffffffffffffffffffffffffffffff\n      and\n      dup2\n      mstore\n      0x20\n      add\n      swap1\n      dup2\n      mstore\n      0x20\n      add\n      0x00\n      keccak256\n        /* \"ALIEN.sol\":2822:2850  allowance[_from][msg.sender] */\n      0x00\n        /* \"ALIEN.sol\":2839:2849  msg.sender */\n      caller\n        /* \"ALIEN.sol\":2822:2850  allowance[_from][msg.sender] */\n      0xffffffffffffffffffffffffffffffffffffffff\n      and\n      0xffffffffffffffffffffffffffffffffffffffff\n      and\n      dup2\n      mstore\n      0x20\n      add\n      swap1\n      dup2\n      mstore\n      0x20\n      add\n      0x00\n      keccak256\n      sload\n        /* \"ALIEN.sol\":2822:2860  allowance[_from][msg.sender] >= _value */\n      lt\n      iszero\n        /* \"ALIEN.sol\":2814:2882  require(allowance[_from][msg.sender] >= _value, \"Allowance too low\") */\n      tag_151\n      jumpi\n      mload(0x40)\n      0x08c379a000000000000000000000000000000000000000000000000000000000\n      dup2\n      mstore\n      0x04\n      add\n      tag_152\n      swap1\n      tag_153\n      jump\t// in\n    tag_152:\n      mload(0x40)\n      dup1\n      swap2\n      sub\n      swap1\n      revert\n    tag_151:\n        /* \"ALIEN.sol\":2933:2939  _value */\n      dup2\n        /* \"ALIEN.sol\":2901:2910  allowance */\n      0x07\n        /* \"ALIEN.sol\":2901:2917  allowance[_from] */\n      0x00\n        /* \"ALIEN.sol\":2911:2916  _from */\n      dup7\n        /* \"ALIEN.sol\":2901:2917  allowance[_from] */\n      0xffffffffffffffffffffffffffffffffffffffff\n      and\n      0xffffffffffffffffffffffffffffffffffffffff\n      and\n      dup2\n      mstore\n      0x20\n      add\n      swap1\n      dup2\n      mstore\n      0x20\n      add\n      0x00\n      keccak256\n        /* \"ALIEN.sol\":2901:2929  allowance[_from][msg.sender] */\n      0x00\n        /* \"ALIEN.sol\":2918:2928  msg.sender */\n      caller\n        /* \"ALIEN.sol\":2901:2929  allowance[_from][msg.sender] */\n      0xffffffffffffffffffffffffffffffffffffffff\n      and\n      0xffffffffffffffffffffffffffffffffffffffff\n      and\n      dup2\n      mstore\n      0x20\n      add\n      swap1\n      dup2\n      mstore\n      0x20\n      add\n      0x00\n      keccak256\n      0x00\n        /* \"ALIEN.sol\":2901:2939  allowance[_from][msg.sender] -= _value */\n      dup3\n      dup3\n      sload\n      tag_154\n      swap2\n      swap1\n      tag_155\n      jump\t// in\n    tag_154:\n      swap3\n      pop\n      pop\n      dup2\n      swap1\n      sstore\n      pop\n        /* \"ALIEN.sol\":2949:2978  _transfer(_from, _to, _value) */\n      tag_156\n        /* \"ALIEN.sol\":2959:2964  _from */\n      dup5\n        /* \"ALIEN.sol\":2966:2969  _to */\n      dup5\n        /* \"ALIEN.sol\":2971:2977  _value */\n      dup5\n        /* \"ALIEN.sol\":2949:2958  _transfer */\n      tag_157\n        /* \"ALIEN.sol\":2949:2978  _transfer(_from, _to, _value) */\n      jump\t// in\n    tag_156:\n        /* \"ALIEN.sol\":2995:2999  true */\n      0x01\n        /* \"ALIEN.sol\":2988:2999  return true */\n      swap1\n      pop\n        /* \"@openzeppelin/contracts/security/ReentrancyGuard.sol\":2303:2323  _nonReentrantAfter() */\n      tag_158\n        /* \"@openzeppelin/contracts/security/ReentrancyGuard.sol\":2303:2321  _nonReentrantAfter */\n      tag_159\n        /* \"@openzeppelin/contracts/security/ReentrancyGuard.sol\":2303:2323  _nonReentrantAfter() */\n      jump\t// in\n    tag_158:\n        /* \"ALIEN.sol\":2453:3006  function transferFrom(address _from, address _to, uint256 _value) public whenNotPaused nonReentrant returns (bool success) {... */\n      swap4\n      swap3\n      pop\n      pop\n      pop\n      jump\t// out\n        /* \"ALIEN.sol\":369:395  uint8 public decimals = 18 */\n    tag_53:\n      0x04\n      0x00\n      swap1\n      sload\n      swap1\n      0x0100\n      exp\n      swap1\n      div\n      0xff\n      and\n      dup2\n      jump\t// out\n        /* \"ALIEN.sol\":4291:4354  function unpause() public onlyOwner {... */\n    tag_57:\n        /* \"@openzeppelin/contracts/access/Ownable.sol\":1531:1544  _checkOwner() */\n      tag_161\n        /* \"@openzeppelin/contracts/access/Ownable.sol\":1531:1542  _checkOwner */\n      tag_132\n        /* \"@openzeppelin/contracts/access/Ownable.sol\":1531:1544  _checkOwner() */\n      jump\t// in\n    tag_161:\n        /* \"ALIEN.sol\":4337:4347  _unpause() */\n      tag_163\n        /* \"ALIEN.sol\":4337:4345  _unpause */\n      tag_164\n        /* \"ALIEN.sol\":4337:4347  _unpause() */\n      jump\t// in\n    tag_163:\n        /* \"ALIEN.sol\":4291:4354  function unpause() public onlyOwner {... */\n      jump\t// out\n        /* \"ALIEN.sol\":3057:3403  function mint(address _to, uint256 _amount) public onlyOwner {... */\n    tag_60:\n        /* \"@openzeppelin/contracts/access/Ownable.sol\":1531:1544  _checkOwner() */\n      tag_166\n        /* \"@openzeppelin/contracts/access/Ownable.sol\":1531:1542  _checkOwner */\n      tag_132\n        /* \"@openzeppelin/contracts/access/Ownable.sol\":1531:1544  _checkOwner() */\n      jump\t// in\n    tag_166:\n        /* \"ALIEN.sol\":3151:3152  0 */\n      0x00\n        /* \"ALIEN.sol\":3136:3153  _to != address(0) */\n      0xffffffffffffffffffffffffffffffffffffffff\n      and\n        /* \"ALIEN.sol\":3136:3139  _to */\n      dup3\n        /* \"ALIEN.sol\":3136:3153  _to != address(0) */\n      0xffffffffffffffffffffffffffffffffffffffff\n      and\n      sub\n        /* \"ALIEN.sol\":3128:3173  require(_to != address(0), \"Invalid address\") */\n      tag_168\n      jumpi\n      mload(0x40)\n      0x08c379a000000000000000000000000000000000000000000000000000000000\n      dup2\n      mstore\n      0x04\n      add\n      tag_169\n      swap1\n      tag_143\n      jump\t// in\n    tag_169:\n      mload(0x40)\n      dup1\n      swap2\n      sub\n      swap1\n      revert\n    tag_168:\n        /* \"ALIEN.sol\":3192:3201  blacklist */\n      0x08\n        /* \"ALIEN.sol\":3192:3206  blacklist[_to] */\n      0x00\n        /* \"ALIEN.sol\":3202:3205  _to */\n      dup4\n        /* \"ALIEN.sol\":3192:3206  blacklist[_to] */\n      0xffffffffffffffffffffffffffffffffffffffff\n      and\n      0xffffffffffffffffffffffffffffffffffffffff\n      and\n      dup2\n      mstore\n      0x20\n      add\n      swap1\n      dup2\n      mstore\n      0x20\n      add\n      0x00\n      keccak256\n      0x00\n      swap1\n      sload\n      swap1\n      0x0100\n      exp\n      swap1\n      div\n      0xff\n      and\n        /* \"ALIEN.sol\":3191:3206  !blacklist[_to] */\n      iszero\n        /* \"ALIEN.sol\":3183:3230  require(!blacklist[_to], \"Address blacklisted\") */\n      tag_170\n      jumpi\n      mload(0x40)\n      0x08c379a000000000000000000000000000000000000000000000000000000000\n      dup2\n      mstore\n      0x04\n      add\n      tag_171\n      swap1\n      tag_128\n      jump\t// in\n    tag_171:\n      mload(0x40)\n      dup1\n      swap2\n      sub\n      swap1\n      revert\n    tag_170:\n        /* \"ALIEN.sol\":3264:3271  _amount */\n      dup1\n        /* \"ALIEN.sol\":3249:3260  totalSupply */\n      0x05\n      0x00\n        /* \"ALIEN.sol\":3249:3271  totalSupply += _amount */\n      dup3\n      dup3\n      sload\n      tag_172\n      swap2\n      swap1\n      tag_173\n      jump\t// in\n    tag_172:\n      swap3\n      pop\n      pop\n      dup2\n      swap1\n      sstore\n      pop\n        /* \"ALIEN.sol\":3299:3306  _amount */\n      dup1\n        /* \"ALIEN.sol\":3281:3290  balanceOf */\n      0x06\n        /* \"ALIEN.sol\":3281:3295  balanceOf[_to] */\n      0x00\n        /* \"ALIEN.sol\":3291:3294  _to */\n      dup5\n        /* \"ALIEN.sol\":3281:3295  balanceOf[_to] */\n      0xffffffffffffffffffffffffffffffffffffffff\n      and\n      0xffffffffffffffffffffffffffffffffffffffff\n      and\n      dup2\n      mstore\n      0x20\n      add\n      swap1\n      dup2\n      mstore\n      0x20\n      add\n      0x00\n      keccak256\n      0x00\n        /* \"ALIEN.sol\":3281:3306  balanceOf[_to] += _amount */\n      dup3\n      dup3\n      sload\n      tag_174\n      swap2\n      swap1\n      tag_173\n      jump\t// in\n    tag_174:\n      swap3\n      pop\n      pop\n      dup2\n      swap1\n      sstore\n      pop\n        /* \"ALIEN.sol\":3334:3337  _to */\n      dup2\n        /* \"ALIEN.sol\":3321:3347  TokensMinted(_to, _amount) */\n      0xffffffffffffffffffffffffffffffffffffffff\n      and\n      0x3f2c9d57c068687834f0de942a9babb9e5acab57d516d3480a3c16ee165a4273\n        /* \"ALIEN.sol\":3339:3346  _amount */\n      dup3\n        /* \"ALIEN.sol\":3321:3347  TokensMinted(_to, _amount) */\n      mload(0x40)\n      tag_175\n      swap2\n      swap1\n      tag_46\n      jump\t// in\n    tag_175:\n      mload(0x40)\n      dup1\n      swap2\n      sub\n      swap1\n      log2\n        /* \"ALIEN.sol\":3383:3386  _to */\n      dup2\n        /* \"ALIEN.sol\":3362:3396  Transfer(address(0), _to, _amount) */\n      0xffffffffffffffffffffffffffffffffffffffff\n      and\n        /* \"ALIEN.sol\":3379:3380  0 */\n      0x00\n        /* \"ALIEN.sol\":3362:3396  Transfer(address(0), _to, _amount) */\n      0xffffffffffffffffffffffffffffffffffffffff\n      and\n      0xddf252ad1be2c89b69c2b068fc378daa952ba7f163c4a11628f55a4df523b3ef\n        /* \"ALIEN.sol\":3388:3395  _amount */\n      dup4\n        /* \"ALIEN.sol\":3362:3396  Transfer(address(0), _to, _amount) */\n      mload(0x40)\n      tag_176\n      swap2\n      swap1\n      tag_46\n      jump\t// in\n    tag_176:\n      mload(0x40)\n      dup1\n      swap2\n      sub\n      swap1\n      log3\n        /* \"ALIEN.sol\":3057:3403  function mint(address _to, uint256 _amount) public onlyOwner {... */\n      pop\n      pop\n      jump\t// out\n        /* \"ALIEN.sol\":3413:3784  function burn(uint256 _amount) public {... */\n    tag_64:\n        /* \"ALIEN.sol\":3494:3501  _amount */\n      dup1\n        /* \"ALIEN.sol\":3469:3478  balanceOf */\n      0x06\n        /* \"ALIEN.sol\":3469:3490  balanceOf[msg.sender] */\n      0x00\n        /* \"ALIEN.sol\":3479:3489  msg.sender */\n      caller\n        /* \"ALIEN.sol\":3469:3490  balanceOf[msg.sender] */\n      0xffffffffffffffffffffffffffffffffffffffff\n      and\n      0xffffffffffffffffffffffffffffffffffffffff\n      and\n      dup2\n      mstore\n      0x20\n      add\n      swap1\n      dup2\n      mstore\n      0x20\n      add\n      0x00\n      keccak256\n      sload\n        /* \"ALIEN.sol\":3469:3501  balanceOf[msg.sender] >= _amount */\n      lt\n      iszero\n        /* \"ALIEN.sol\":3461:3526  require(balanceOf[msg.sender] >= _amount, \"Insufficient balance\") */\n      tag_178\n      jumpi\n      mload(0x40)\n      0x08c379a000000000000000000000000000000000000000000000000000000000\n      dup2\n      mstore\n      0x04\n      add\n      tag_179\n      swap1\n      tag_150\n      jump\t// in\n    tag_179:\n      mload(0x40)\n      dup1\n      swap2\n      sub\n      swap1\n      revert\n    tag_178:\n        /* \"ALIEN.sol\":3545:3554  blacklist */\n      0x08\n        /* \"ALIEN.sol\":3545:3566  blacklist[msg.sender] */\n      0x00\n        /* \"ALIEN.sol\":3555:3565  msg.sender */\n      caller\n        /* \"ALIEN.sol\":3545:3566  blacklist[msg.sender] */\n      0xffffffffffffffffffffffffffffffffffffffff\n      and\n      0xffffffffffffffffffffffffffffffffffffffff\n      and\n      dup2\n      mstore\n      0x20\n      add\n      swap1\n      dup2\n      mstore\n      0x20\n      add\n      0x00\n      keccak256\n      0x00\n      swap1\n      sload\n      swap1\n      0x0100\n      exp\n      swap1\n      div\n      0xff\n      and\n        /* \"ALIEN.sol\":3544:3566  !blacklist[msg.sender] */\n      iszero\n        /* \"ALIEN.sol\":3536:3590  require(!blacklist[msg.sender], \"Address blacklisted\") */\n      tag_180\n      jumpi\n      mload(0x40)\n      0x08c379a000000000000000000000000000000000000000000000000000000000\n      dup2\n      mstore\n      0x04\n      add\n      tag_181\n      swap1\n      tag_128\n      jump\t// in\n    tag_181:\n      mload(0x40)\n      dup1\n      swap2\n      sub\n      swap1\n      revert\n    tag_180:\n        /* \"ALIEN.sol\":3624:3631  _amount */\n      dup1\n        /* \"ALIEN.sol\":3609:3620  totalSupply */\n      0x05\n      0x00\n        /* \"ALIEN.sol\":3609:3631  totalSupply -= _amount */\n      dup3\n      dup3\n      sload\n      tag_182\n      swap2\n      swap1\n      tag_155\n      jump\t// in\n    tag_182:\n      swap3\n      pop\n      pop\n      dup2\n      swap1\n      sstore\n      pop\n        /* \"ALIEN.sol\":3666:3673  _amount */\n      dup1\n        /* \"ALIEN.sol\":3641:3650  balanceOf */\n      0x06\n        /* \"ALIEN.sol\":3641:3662  balanceOf[msg.sender] */\n      0x00\n        /* \"ALIEN.sol\":3651:3661  msg.sender */\n      caller\n        /* \"ALIEN.sol\":3641:3662  balanceOf[msg.sender] */\n      0xffffffffffffffffffffffffffffffffffffffff\n      and\n      0xffffffffffffffffffffffffffffffffffffffff\n      and\n      dup2\n      mstore\n      0x20\n      add\n      swap1\n      dup2\n      mstore\n      0x20\n      add\n      0x00\n      keccak256\n      0x00\n        /* \"ALIEN.sol\":3641:3673  balanceOf[msg.sender] -= _amount */\n      dup3\n      dup3\n      sload\n      tag_183\n      swap2\n      swap1\n      tag_155\n      jump\t// in\n    tag_183:\n      swap3\n      pop\n      pop\n      dup2\n      swap1\n      sstore\n      pop\n        /* \"ALIEN.sol\":3701:3711  msg.sender */\n      caller\n        /* \"ALIEN.sol\":3688:3721  TokensBurned(msg.sender, _amount) */\n      0xffffffffffffffffffffffffffffffffffffffff\n      and\n      0xfd38818f5291bf0bb3a2a48aadc06ba8757865d1dabd804585338aab3009dcb6\n        /* \"ALIEN.sol\":3713:3720  _amount */\n      dup3\n        /* \"ALIEN.sol\":3688:3721  TokensBurned(msg.sender, _amount) */\n      mload(0x40)\n      tag_184\n      swap2\n      swap1\n      tag_46\n      jump\t// in\n    tag_184:\n      mload(0x40)\n      dup1\n      swap2\n      sub\n      swap1\n      log2\n        /* \"ALIEN.sol\":3765:3766  0 */\n      0x00\n        /* \"ALIEN.sol\":3736:3777  Transfer(msg.sender, address(0), _amount) */\n      0xffffffffffffffffffffffffffffffffffffffff\n      and\n        /* \"ALIEN.sol\":3745:3755  msg.sender */\n      caller\n        /* \"ALIEN.sol\":3736:3777  Transfer(msg.sender, address(0), _amount) */\n      0xffffffffffffffffffffffffffffffffffffffff\n      and\n      0xddf252ad1be2c89b69c2b068fc378daa952ba7f163c4a11628f55a4df523b3ef\n        /* \"ALIEN.sol\":3769:3776  _amount */\n      dup4\n        /* \"ALIEN.sol\":3736:3777  Transfer(msg.sender, address(0), _amount) */\n      mload(0x40)\n      tag_185\n      swap2\n      swap1\n      tag_46\n      jump\t// in\n    tag_185:\n      mload(0x40)\n      dup1\n      swap2\n      sub\n      swap1\n      log3\n        /* \"ALIEN.sol\":3413:3784  function burn(uint256 _amount) public {... */\n      pop\n      jump\t// out\n        /* \"ALIEN.sol\":4872:4988  function getBlacklistStatus(address _address) public view returns (bool) {... */\n    tag_68:\n        /* \"ALIEN.sol\":4939:4943  bool */\n      0x00\n        /* \"ALIEN.sol\":4962:4971  blacklist */\n      0x08\n        /* \"ALIEN.sol\":4962:4981  blacklist[_address] */\n      0x00\n        /* \"ALIEN.sol\":4972:4980  _address */\n      dup4\n        /* \"ALIEN.sol\":4962:4981  blacklist[_address] */\n      0xffffffffffffffffffffffffffffffffffffffff\n      and\n      0xffffffffffffffffffffffffffffffffffffffff\n      and\n      dup2\n      mstore\n      0x20\n      add\n      swap1\n      dup2\n      mstore\n      0x20\n      add\n      0x00\n      keccak256\n      0x00\n      swap1\n      sload\n      swap1\n      0x0100\n      exp\n      swap1\n      div\n      0xff\n      and\n        /* \"ALIEN.sol\":4955:4981  return blacklist[_address] */\n      swap1\n      pop\n        /* \"ALIEN.sol\":4872:4988  function getBlacklistStatus(address _address) public view returns (bool) {... */\n      swap2\n      swap1\n      pop\n      jump\t// out\n        /* \"@openzeppelin/contracts/security/Pausable.sol\":1615:1699  function paused() public view virtual returns (bool) {... */\n    tag_71:\n        /* \"@openzeppelin/contracts/security/Pausable.sol\":1662:1666  bool */\n      0x00\n        /* \"@openzeppelin/contracts/security/Pausable.sol\":1685:1692  _paused */\n      0x00\n      0x14\n      swap1\n      sload\n      swap1\n      0x0100\n      exp\n      swap1\n      div\n      0xff\n      and\n        /* \"@openzeppelin/contracts/security/Pausable.sol\":1678:1692  return _paused */\n      swap1\n      pop\n        /* \"@openzeppelin/contracts/security/Pausable.sol\":1615:1699  function paused() public view virtual returns (bool) {... */\n      swap1\n      jump\t// out\n        /* \"ALIEN.sol\":475:519  mapping(address => uint256) public balanceOf */\n    tag_75:\n      mstore(0x20, 0x06)\n      dup1\n      0x00\n      mstore\n      keccak256(0x00, 0x40)\n      0x00\n      swap2\n      pop\n      swap1\n      pop\n      sload\n      dup2\n      jump\t// out\n        /* \"@openzeppelin/contracts/access/Ownable.sol\":2293:2394  function renounceOwnership() public virtual onlyOwner {... */\n    tag_78:\n        /* \"@openzeppelin/contracts/access/Ownable.sol\":1531:1544  _checkOwner() */\n      tag_189\n        /* \"@openzeppelin/contracts/access/Ownable.sol\":1531:1542  _checkOwner */\n      tag_132\n        /* \"@openzeppelin/contracts/access/Ownable.sol\":1531:1544  _checkOwner() */\n      jump\t// in\n    tag_189:\n        /* \"@openzeppelin/contracts/access/Ownable.sol\":2357:2387  _transferOwnership(address(0)) */\n      tag_191\n        /* \"@openzeppelin/contracts/access/Ownable.sol\":2384:2385  0 */\n      0x00\n        /* \"@openzeppelin/contracts/access/Ownable.sol\":2357:2375  _transferOwnership */\n      tag_192\n        /* \"@openzeppelin/contracts/access/Ownable.sol\":2357:2387  _transferOwnership(address(0)) */\n      jump\t// in\n    tag_191:\n        /* \"@openzeppelin/contracts/access/Ownable.sol\":2293:2394  function renounceOwnership() public virtual onlyOwner {... */\n      jump\t// out\n        /* \"ALIEN.sol\":3794:4169  function burnFrom(address _from, uint256 _amount) public onlyOwner {... */\n    tag_81:\n        /* \"@openzeppelin/contracts/access/Ownable.sol\":1531:1544  _checkOwner() */\n      tag_194\n        /* \"@openzeppelin/contracts/access/Ownable.sol\":1531:1542  _checkOwner */\n      tag_132\n        /* \"@openzeppelin/contracts/access/Ownable.sol\":1531:1544  _checkOwner() */\n      jump\t// in\n    tag_194:\n        /* \"ALIEN.sol\":3899:3906  _amount */\n      dup1\n        /* \"ALIEN.sol\":3879:3888  balanceOf */\n      0x06\n        /* \"ALIEN.sol\":3879:3895  balanceOf[_from] */\n      0x00\n        /* \"ALIEN.sol\":3889:3894  _from */\n      dup5\n        /* \"ALIEN.sol\":3879:3895  balanceOf[_from] */\n      0xffffffffffffffffffffffffffffffffffffffff\n      and\n      0xffffffffffffffffffffffffffffffffffffffff\n      and\n      dup2\n      mstore\n      0x20\n      add\n      swap1\n      dup2\n      mstore\n      0x20\n      add\n      0x00\n      keccak256\n      sload\n        /* \"ALIEN.sol\":3879:3906  balanceOf[_from] >= _amount */\n      lt\n      iszero\n        /* \"ALIEN.sol\":3871:3931  require(balanceOf[_from] >= _amount, \"Insufficient balance\") */\n      tag_196\n      jumpi\n      mload(0x40)\n      0x08c379a000000000000000000000000000000000000000000000000000000000\n      dup2\n      mstore\n      0x04\n      add\n      tag_197\n      swap1\n      tag_150\n      jump\t// in\n    tag_197:\n      mload(0x40)\n      dup1\n      swap2\n      sub\n      swap1\n      revert\n    tag_196:\n        /* \"ALIEN.sol\":3950:3959  blacklist */\n      0x08\n        /* \"ALIEN.sol\":3950:3966  blacklist[_from] */\n      0x00\n        /* \"ALIEN.sol\":3960:3965  _from */\n      dup4\n        /* \"ALIEN.sol\":3950:3966  blacklist[_from] */\n      0xffffffffffffffffffffffffffffffffffffffff\n      and\n      0xffffffffffffffffffffffffffffffffffffffff\n      and\n      dup2\n      mstore\n      0x20\n      add\n      swap1\n      dup2\n      mstore\n      0x20\n      add\n      0x00\n      keccak256\n      0x00\n      swap1\n      sload\n      swap1\n      0x0100\n      exp\n      swap1\n      div\n      0xff\n      and\n        /* \"ALIEN.sol\":3949:3966  !blacklist[_from] */\n      iszero\n        /* \"ALIEN.sol\":3941:3990  require(!blacklist[_from], \"Address blacklisted\") */\n      tag_198\n      jumpi\n      mload(0x40)\n      0x08c379a000000000000000000000000000000000000000000000000000000000\n      dup2\n      mstore\n      0x04\n      add\n      tag_199\n      swap1\n      tag_128\n      jump\t// in\n    tag_199:\n      mload(0x40)\n      dup1\n      swap2\n      sub\n      swap1\n      revert\n    tag_198:\n        /* \"ALIEN.sol\":4024:4031  _amount */\n      dup1\n        /* \"ALIEN.sol\":4009:4020  totalSupply */\n      0x05\n      0x00\n        /* \"ALIEN.sol\":4009:4031  totalSupply -= _amount */\n      dup3\n      dup3\n      sload\n      tag_200\n      swap2\n      swap1\n      tag_155\n      jump\t// in\n    tag_200:\n      swap3\n      pop\n      pop\n      dup2\n      swap1\n      sstore\n      pop\n        /* \"ALIEN.sol\":4061:4068  _amount */\n      dup1\n        /* \"ALIEN.sol\":4041:4050  balanceOf */\n      0x06\n        /* \"ALIEN.sol\":4041:4057  balanceOf[_from] */\n      0x00\n        /* \"ALIEN.sol\":4051:4056  _from */\n      dup5\n        /* \"ALIEN.sol\":4041:4057  balanceOf[_from] */\n      0xffffffffffffffffffffffffffffffffffffffff\n      and\n      0xffffffffffffffffffffffffffffffffffffffff\n      and\n      dup2\n      mstore\n      0x20\n      add\n      swap1\n      dup2\n      mstore\n      0x20\n      add\n      0x00\n      keccak256\n      0x00\n        /* \"ALIEN.sol\":4041:4068  balanceOf[_from] -= _amount */\n      dup3\n      dup3\n      sload\n      tag_201\n      swap2\n      swap1\n      tag_155\n      jump\t// in\n    tag_201:\n      swap3\n      pop\n      pop\n      dup2\n      swap1\n      sstore\n      pop\n        /* \"ALIEN.sol\":4096:4101  _from */\n      dup2\n        /* \"ALIEN.sol\":4083:4111  TokensBurned(_from, _amount) */\n      0xffffffffffffffffffffffffffffffffffffffff\n      and\n      0xfd38818f5291bf0bb3a2a48aadc06ba8757865d1dabd804585338aab3009dcb6\n        /* \"ALIEN.sol\":4103:4110  _amount */\n      dup3\n        /* \"ALIEN.sol\":4083:4111  TokensBurned(_from, _amount) */\n      mload(0x40)\n      tag_202\n      swap2\n      swap1\n      tag_46\n      jump\t// in\n    tag_202:\n      mload(0x40)\n      dup1\n      swap2\n      sub\n      swap1\n      log2\n        /* \"ALIEN.sol\":4150:4151  0 */\n      0x00\n        /* \"ALIEN.sol\":4126:4162  Transfer(_from, address(0), _amount) */\n      0xffffffffffffffffffffffffffffffffffffffff\n      and\n        /* \"ALIEN.sol\":4135:4140  _from */\n      dup3\n        /* \"ALIEN.sol\":4126:4162  Transfer(_from, address(0), _amount) */\n      0xffffffffffffffffffffffffffffffffffffffff\n      and\n      0xddf252ad1be2c89b69c2b068fc378daa952ba7f163c4a11628f55a4df523b3ef\n        /* \"ALIEN.sol\":4154:4161  _amount */\n      dup4\n        /* \"ALIEN.sol\":4126:4162  Transfer(_from, address(0), _amount) */\n      mload(0x40)\n      tag_203\n      swap2\n      swap1\n      tag_46\n      jump\t// in\n    tag_203:\n      mload(0x40)\n      dup1\n      swap2\n      sub\n      swap1\n      log3\n        /* \"ALIEN.sol\":3794:4169  function burnFrom(address _from, uint256 _amount) public onlyOwner {... */\n      pop\n      pop\n      jump\t// out\n        /* \"ALIEN.sol\":4998:5317  function getContractInfo() public view returns (... */\n    tag_83:\n        /* \"ALIEN.sol\":5055:5078  string memory tokenName */\n      0x60\n        /* \"ALIEN.sol\":5088:5113  string memory tokenSymbol */\n      dup1\n        /* \"ALIEN.sol\":5123:5142  uint8 tokenDecimals */\n      0x00\n        /* \"ALIEN.sol\":5152:5176  uint256 tokenTotalSupply */\n      0x00\n        /* \"ALIEN.sol\":5186:5199  bool isPaused */\n      0x00\n        /* \"ALIEN.sol\":5209:5230  address contractOwner */\n      0x00\n        /* \"ALIEN.sol\":5255:5259  name */\n      0x02\n        /* \"ALIEN.sol\":5261:5267  symbol */\n      0x03\n        /* \"ALIEN.sol\":5269:5277  decimals */\n      0x04\n      0x00\n      swap1\n      sload\n      swap1\n      0x0100\n      exp\n      swap1\n      div\n      0xff\n      and\n        /* \"ALIEN.sol\":5279:5290  totalSupply */\n      sload(0x05)\n        /* \"ALIEN.sol\":5292:5300  paused() */\n      tag_205\n        /* \"ALIEN.sol\":5292:5298  paused */\n      tag_71\n        /* \"ALIEN.sol\":5292:5300  paused() */\n      jump\t// in\n    tag_205:\n        /* \"ALIEN.sol\":5302:5309  owner() */\n      tag_206\n        /* \"ALIEN.sol\":5302:5307  owner */\n      tag_89\n        /* \"ALIEN.sol\":5302:5309  owner() */\n      jump\t// in\n    tag_206:\n        /* \"ALIEN.sol\":5247:5310  return (name, symbol, decimals, totalSupply, paused(), owner()) */\n      dup6\n      dup1\n      sload\n      tag_207\n      swap1\n      tag_116\n      jump\t// in\n    tag_207:\n      dup1\n      0x1f\n      add\n      0x20\n      dup1\n      swap2\n      div\n      mul\n      0x20\n      add\n      mload(0x40)\n      swap1\n      dup2\n      add\n      0x40\n      mstore\n      dup1\n      swap3\n      swap2\n      swap1\n      dup2\n      dup2\n      mstore\n      0x20\n      add\n      dup3\n      dup1\n      sload\n      tag_208\n      swap1\n      tag_116\n      jump\t// in\n    tag_208:\n      dup1\n      iszero\n      tag_209\n      jumpi\n      dup1\n      0x1f\n      lt\n      tag_210\n      jumpi\n      0x0100\n      dup1\n      dup4\n      sload\n      div\n      mul\n      dup4\n      mstore\n      swap2\n      0x20\n      add\n      swap2\n      jump(tag_209)\n    tag_210:\n      dup3\n      add\n      swap2\n      swap1\n      0x00\n      mstore\n      keccak256(0x00, 0x20)\n      swap1\n    tag_211:\n      dup2\n      sload\n      dup2\n      mstore\n      swap1\n      0x01\n      add\n      swap1\n      0x20\n      add\n      dup1\n      dup4\n      gt\n      tag_211\n      jumpi\n      dup3\n      swap1\n      sub\n      0x1f\n      and\n      dup3\n      add\n      swap2\n    tag_209:\n      pop\n      pop\n      pop\n      pop\n      pop\n      swap6\n      pop\n      dup5\n      dup1\n      sload\n      tag_212\n      swap1\n      tag_116\n      jump\t// in\n    tag_212:\n      dup1\n      0x1f\n      add\n      0x20\n      dup1\n      swap2\n      div\n      mul\n      0x20\n      add\n      mload(0x40)\n      swap1\n      dup2\n      add\n      0x40\n      mstore\n      dup1\n      swap3\n      swap2\n      swap1\n      dup2\n      dup2\n      mstore\n      0x20\n      add\n      dup3\n      dup1\n      sload\n      tag_213\n      swap1\n      tag_116\n      jump\t// in\n    tag_213:\n      dup1\n      iszero\n      tag_214\n      jumpi\n      dup1\n      0x1f\n      lt\n      tag_215\n      jumpi\n      0x0100\n      dup1\n      dup4\n      sload\n      div\n      mul\n      dup4\n      mstore\n      swap2\n      0x20\n      add\n      swap2\n      jump(tag_214)\n    tag_215:\n      dup3\n      add\n      swap2\n      swap1\n      0x00\n      mstore\n      keccak256(0x00, 0x20)\n      swap1\n    tag_216:\n      dup2\n      sload\n      dup2\n      mstore\n      swap1\n      0x01\n      add\n      swap1\n      0x20\n      add\n      dup1\n      dup4\n      gt\n      tag_216\n      jumpi\n      dup3\n      swap1\n      sub\n      0x1f\n      and\n      dup3\n      add\n      swap2\n    tag_214:\n      pop\n      pop\n      pop\n      pop\n      pop\n      swap5\n      pop\n      swap6\n      pop\n      swap6\n      pop\n      swap6\n      pop\n      swap6\n      pop\n      swap6\n      pop\n      swap6\n      pop\n        /* \"ALIEN.sol\":4998:5317  function getContractInfo() public view returns (... */\n      swap1\n      swap2\n      swap3\n      swap4\n      swap5\n      swap6\n      jump\t// out\n        /* \"ALIEN.sol\":4222:4281  function pause() public onlyOwner {... */\n    tag_87:\n        /* \"@openzeppelin/contracts/access/Ownable.sol\":1531:1544  _checkOwner() */\n      tag_218\n        /* \"@openzeppelin/contracts/access/Ownable.sol\":1531:1542  _checkOwner */\n      tag_132\n        /* \"@openzeppelin/contracts/access/Ownable.sol\":1531:1544  _checkOwner() */\n      jump\t// in\n    tag_218:\n        /* \"ALIEN.sol\":4266:4274  _pause() */\n      tag_220\n        /* \"ALIEN.sol\":4266:4272  _pause */\n      tag_221\n        /* \"ALIEN.sol\":4266:4274  _pause() */\n      jump\t// in\n    tag_220:\n        /* \"ALIEN.sol\":4222:4281  function pause() public onlyOwner {... */\n      jump\t// out\n        /* \"@openzeppelin/contracts/access/Ownable.sol\":1638:1723  function owner() public view virtual returns (address) {... */\n    tag_89:\n        /* \"@openzeppelin/contracts/access/Ownable.sol\":1684:1691  address */\n      0x00\n        /* \"@openzeppelin/contracts/access/Ownable.sol\":1710:1716  _owner */\n      0x00\n      0x00\n      swap1\n      sload\n      swap1\n      0x0100\n      exp\n      swap1\n      div\n      0xffffffffffffffffffffffffffffffffffffffff\n      and\n        /* \"@openzeppelin/contracts/access/Ownable.sol\":1703:1716  return _owner */\n      swap1\n      pop\n        /* \"@openzeppelin/contracts/access/Ownable.sol\":1638:1723  function owner() public view virtual returns (address) {... */\n      swap1\n      jump\t// out\n        /* \"ALIEN.sol\":333:363  string public symbol = \"ALIEN\" */\n    tag_93:\n      0x03\n      dup1\n      sload\n      tag_223\n      swap1\n      tag_116\n      jump\t// in\n    tag_223:\n      dup1\n      0x1f\n      add\n      0x20\n      dup1\n      swap2\n      div\n      mul\n      0x20\n      add\n      mload(0x40)\n      swap1\n      dup2\n      add\n      0x40\n      mstore\n      dup1\n      swap3\n      swap2\n      swap1\n      dup2\n      dup2\n      mstore\n      0x20\n      add\n      dup3\n      dup1\n      sload\n      tag_224\n      swap1\n      tag_116\n      jump\t// in\n    tag_224:\n      dup1\n      iszero\n      tag_225\n      jumpi\n      dup1\n      0x1f\n      lt\n      tag_226\n      jumpi\n      0x0100\n      dup1\n      dup4\n      sload\n      div\n      mul\n      dup4\n      mstore\n      swap2\n      0x20\n      add\n      swap2\n      jump(tag_225)\n    tag_226:\n      dup3\n      add\n      swap2\n      swap1\n      0x00\n      mstore\n      keccak256(0x00, 0x20)\n      swap1\n    tag_227:\n      dup2\n      sload\n      dup2\n      mstore\n      swap1\n      0x01\n      add\n      swap1\n      0x20\n      add\n      dup1\n      dup4\n      gt\n      tag_227\n      jumpi\n      dup3\n      swap1\n      sub\n      0x1f\n      and\n      dup3\n      add\n      swap2\n    tag_225:\n      pop\n      pop\n      pop\n      pop\n      pop\n      dup2\n      jump\t// out\n        /* \"ALIEN.sol\":1230:1706  function transfer(address _to, uint256 _value) public whenNotPaused nonReentrant returns (bool success) {... */\n    tag_97:\n        /* \"ALIEN.sol\":1320:1332  bool success */\n      0x00\n        /* \"@openzeppelin/contracts/security/Pausable.sol\":1239:1258  _requireNotPaused() */\n      tag_229\n        /* \"@openzeppelin/contracts/security/Pausable.sol\":1239:1256  _requireNotPaused */\n      tag_123\n        /* \"@openzeppelin/contracts/security/Pausable.sol\":1239:1258  _requireNotPaused() */\n      jump\t// in\n    tag_229:\n        /* \"@openzeppelin/contracts/security/ReentrancyGuard.sol\":2261:2282  _nonReentrantBefore() */\n      tag_231\n        /* \"@openzeppelin/contracts/security/ReentrancyGuard.sol\":2261:2280  _nonReentrantBefore */\n      tag_139\n        /* \"@openzeppelin/contracts/security/ReentrancyGuard.sol\":2261:2282  _nonReentrantBefore() */\n      jump\t// in\n    tag_231:\n        /* \"ALIEN.sol\":1367:1368  0 */\n      0x00\n        /* \"ALIEN.sol\":1352:1369  _to != address(0) */\n      0xffffffffffffffffffffffffffffffffffffffff\n      and\n        /* \"ALIEN.sol\":1352:1355  _to */\n      dup4\n        /* \"ALIEN.sol\":1352:1369  _to != address(0) */\n      0xffffffffffffffffffffffffffffffffffffffff\n      and\n      sub\n        /* \"ALIEN.sol\":1344:1389  require(_to != address(0), \"Invalid address\") */\n      tag_233\n      jumpi\n      mload(0x40)\n      0x08c379a000000000000000000000000000000000000000000000000000000000\n      dup2\n      mstore\n      0x04\n      add\n      tag_234\n      swap1\n      tag_143\n      jump\t// in\n    tag_234:\n      mload(0x40)\n      dup1\n      swap2\n      sub\n      swap1\n      revert\n    tag_233:\n        /* \"ALIEN.sol\":1408:1417  blacklist */\n      0x08\n        /* \"ALIEN.sol\":1408:1429  blacklist[msg.sender] */\n      0x00\n        /* \"ALIEN.sol\":1418:1428  msg.sender */\n      caller\n        /* \"ALIEN.sol\":1408:1429  blacklist[msg.sender] */\n      0xffffffffffffffffffffffffffffffffffffffff\n      and\n      0xffffffffffffffffffffffffffffffffffffffff\n      and\n      dup2\n      mstore\n      0x20\n      add\n      swap1\n      dup2\n      mstore\n      0x20\n      add\n      0x00\n      keccak256\n      0x00\n      swap1\n      sload\n      swap1\n      0x0100\n      exp\n      swap1\n      div\n      0xff\n      and\n        /* \"ALIEN.sol\":1407:1429  !blacklist[msg.sender] */\n      iszero\n        /* \"ALIEN.sol\":1407:1448  !blacklist[msg.sender] && !blacklist[_to] */\n      dup1\n      iszero\n      tag_235\n      jumpi\n      pop\n        /* \"ALIEN.sol\":1434:1443  blacklist */\n      0x08\n        /* \"ALIEN.sol\":1434:1448  blacklist[_to] */\n      0x00\n        /* \"ALIEN.sol\":1444:1447  _to */\n      dup5\n        /* \"ALIEN.sol\":1434:1448  blacklist[_to] */\n      0xffffffffffffffffffffffffffffffffffffffff\n      and\n      0xffffffffffffffffffffffffffffffffffffffff\n      and\n      dup2\n      mstore\n      0x20\n      add\n      swap1\n      dup2\n      mstore\n      0x20\n      add\n      0x00\n      keccak256\n      0x00\n      swap1\n      sload\n      swap1\n      0x0100\n      exp\n      swap1\n      div\n      0xff\n      and\n        /* \"ALIEN.sol\":1433:1448  !blacklist[_to] */\n      iszero\n        /* \"ALIEN.sol\":1407:1448  !blacklist[msg.sender] && !blacklist[_to] */\n    tag_235:\n        /* \"ALIEN.sol\":1399:1472  require(!blacklist[msg.sender] && !blacklist[_to], \"Address blacklisted\") */\n      tag_236\n      jumpi\n      mload(0x40)\n      0x08c379a000000000000000000000000000000000000000000000000000000000\n      dup2\n      mstore\n      0x04\n      add\n      tag_237\n      swap1\n      tag_128\n      jump\t// in\n    tag_237:\n      mload(0x40)\n      dup1\n      swap2\n      sub\n      swap1\n      revert\n    tag_236:\n        /* \"ALIEN.sol\":1515:1521  _value */\n      dup2\n        /* \"ALIEN.sol\":1490:1499  balanceOf */\n      0x06\n        /* \"ALIEN.sol\":1490:1511  balanceOf[msg.sender] */\n      0x00\n        /* \"ALIEN.sol\":1500:1510  msg.sender */\n      caller\n        /* \"ALIEN.sol\":1490:1511  balanceOf[msg.sender] */\n      0xffffffffffffffffffffffffffffffffffffffff\n      and\n      0xffffffffffffffffffffffffffffffffffffffff\n      and\n      dup2\n      mstore\n      0x20\n      add\n      swap1\n      dup2\n      mstore\n      0x20\n      add\n      0x00\n      keccak256\n      sload\n        /* \"ALIEN.sol\":1490:1521  balanceOf[msg.sender] >= _value */\n      lt\n      iszero\n        /* \"ALIEN.sol\":1482:1546  require(balanceOf[msg.sender] >= _value, \"Insufficient balance\") */\n      tag_238\n      jumpi\n      mload(0x40)\n      0x08c379a000000000000000000000000000000000000000000000000000000000\n      dup2\n      mstore\n      0x04\n      add\n      tag_239\n      swap1\n      tag_150\n      jump\t// in\n    tag_239:\n      mload(0x40)\n      dup1\n      swap2\n      sub\n      swap1\n      revert\n    tag_238:\n        /* \"ALIEN.sol\":1590:1596  _value */\n      dup2\n        /* \"ALIEN.sol\":1565:1574  balanceOf */\n      0x06\n        /* \"ALIEN.sol\":1565:1586  balanceOf[msg.sender] */\n      0x00\n        /* \"ALIEN.sol\":1575:1585  msg.sender */\n      caller\n        /* \"ALIEN.sol\":1565:1586  balanceOf[msg.sender] */\n      0xffffffffffffffffffffffffffffffffffffffff\n      and\n      0xffffffffffffffffffffffffffffffffffffffff\n      and\n      dup2\n      mstore\n      0x20\n      add\n      swap1\n      dup2\n      mstore\n      0x20\n      add\n      0x00\n      keccak256\n      0x00\n        /* \"ALIEN.sol\":1565:1596  balanceOf[msg.sender] -= _value */\n      dup3\n      dup3\n      sload\n      tag_240\n      swap2\n      swap1\n      tag_155\n      jump\t// in\n    tag_240:\n      swap3\n      pop\n      pop\n      dup2\n      swap1\n      sstore\n      pop\n        /* \"ALIEN.sol\":1624:1630  _value */\n      dup2\n        /* \"ALIEN.sol\":1606:1615  balanceOf */\n      0x06\n        /* \"ALIEN.sol\":1606:1620  balanceOf[_to] */\n      0x00\n        /* \"ALIEN.sol\":1616:1619  _to */\n      dup6\n        /* \"ALIEN.sol\":1606:1620  balanceOf[_to] */\n      0xffffffffffffffffffffffffffffffffffffffff\n      and\n      0xffffffffffffffffffffffffffffffffffffffff\n      and\n      dup2\n      mstore\n      0x20\n      add\n      swap1\n      dup2\n      mstore\n      0x20\n      add\n      0x00\n      keccak256\n      0x00\n        /* \"ALIEN.sol\":1606:1630  balanceOf[_to] += _value */\n      dup3\n      dup3\n      sload\n      tag_241\n      swap2\n      swap1\n      tag_173\n      jump\t// in\n    tag_241:\n      swap3\n      pop\n      pop\n      dup2\n      swap1\n      sstore\n      pop\n        /* \"ALIEN.sol\":1666:1669  _to */\n      dup3\n        /* \"ALIEN.sol\":1645:1678  Transfer(msg.sender, _to, _value) */\n      0xffffffffffffffffffffffffffffffffffffffff\n      and\n        /* \"ALIEN.sol\":1654:1664  msg.sender */\n      caller\n        /* \"ALIEN.sol\":1645:1678  Transfer(msg.sender, _to, _value) */\n      0xffffffffffffffffffffffffffffffffffffffff\n      and\n      0xddf252ad1be2c89b69c2b068fc378daa952ba7f163c4a11628f55a4df523b3ef\n        /* \"ALIEN.sol\":1671:1677  _value */\n      dup5\n        /* \"ALIEN.sol\":1645:1678  Transfer(msg.sender, _to, _value) */\n      mload(0x40)\n      tag_242\n      swap2\n      swap1\n      tag_46\n      jump\t// in\n    tag_242:\n      mload(0x40)\n      dup1\n      swap2\n      sub\n      swap1\n      log3\n        /* \"ALIEN.sol\":1695:1699  true */\n      0x01\n        /* \"ALIEN.sol\":1688:1699  return true */\n      swap1\n      pop\n        /* \"@openzeppelin/contracts/security/ReentrancyGuard.sol\":2303:2323  _nonReentrantAfter() */\n      tag_243\n        /* \"@openzeppelin/contracts/security/ReentrancyGuard.sol\":2303:2321  _nonReentrantAfter */\n      tag_159\n        /* \"@openzeppelin/contracts/security/ReentrancyGuard.sol\":2303:2323  _nonReentrantAfter() */\n      jump\t// in\n    tag_243:\n        /* \"ALIEN.sol\":1230:1706  function transfer(address _to, uint256 _value) public whenNotPaused nonReentrant returns (bool success) {... */\n      swap3\n      swap2\n      pop\n      pop\n      jump\t// out\n        /* \"ALIEN.sol\":4543:4811  function batchSetBlacklist(address[] memory _addresses, bool _status) public onlyOwner {... */\n    tag_102:\n        /* \"@openzeppelin/contracts/access/Ownable.sol\":1531:1544  _checkOwner() */\n      tag_245\n        /* \"@openzeppelin/contracts/access/Ownable.sol\":1531:1542  _checkOwner */\n      tag_132\n        /* \"@openzeppelin/contracts/access/Ownable.sol\":1531:1544  _checkOwner() */\n      jump\t// in\n    tag_245:\n        /* \"ALIEN.sol\":4645:4651  uint i */\n      0x00\n        /* \"ALIEN.sol\":4654:4655  0 */\n      0x00\n        /* \"ALIEN.sol\":4645:4655  uint i = 0 */\n      swap1\n      pop\n        /* \"ALIEN.sol\":4640:4805  for (uint i = 0; i < _addresses.length; i++) {... */\n    tag_247:\n        /* \"ALIEN.sol\":4661:4671  _addresses */\n      dup3\n        /* \"ALIEN.sol\":4661:4678  _addresses.length */\n      mload\n        /* \"ALIEN.sol\":4657:4658  i */\n      dup2\n        /* \"ALIEN.sol\":4657:4678  i < _addresses.length */\n      lt\n        /* \"ALIEN.sol\":4640:4805  for (uint i = 0; i < _addresses.length; i++) {... */\n      iszero\n      tag_248\n      jumpi\n        /* \"ALIEN.sol\":4726:4733  _status */\n      dup2\n        /* \"ALIEN.sol\":4699:4708  blacklist */\n      0x08\n        /* \"ALIEN.sol\":4699:4723  blacklist[_addresses[i]] */\n      0x00\n        /* \"ALIEN.sol\":4709:4719  _addresses */\n      dup6\n        /* \"ALIEN.sol\":4720:4721  i */\n      dup5\n        /* \"ALIEN.sol\":4709:4722  _addresses[i] */\n      dup2\n      mload\n      dup2\n      lt\n      tag_250\n      jumpi\n      tag_251\n      tag_252\n      jump\t// in\n    tag_251:\n    tag_250:\n      0x20\n      mul\n      0x20\n      add\n      add\n      mload\n        /* \"ALIEN.sol\":4699:4723  blacklist[_addresses[i]] */\n      0xffffffffffffffffffffffffffffffffffffffff\n      and\n      0xffffffffffffffffffffffffffffffffffffffff\n      and\n      dup2\n      mstore\n      0x20\n      add\n      swap1\n      dup2\n      mstore\n      0x20\n      add\n      0x00\n      keccak256\n      0x00\n        /* \"ALIEN.sol\":4699:4733  blacklist[_addresses[i]] = _status */\n      0x0100\n      exp\n      dup2\n      sload\n      dup2\n      0xff\n      mul\n      not\n      and\n      swap1\n      dup4\n      iszero\n      iszero\n      mul\n      or\n      swap1\n      sstore\n      pop\n        /* \"ALIEN.sol\":4771:4781  _addresses */\n      dup3\n        /* \"ALIEN.sol\":4782:4783  i */\n      dup2\n        /* \"ALIEN.sol\":4771:4784  _addresses[i] */\n      dup2\n      mload\n      dup2\n      lt\n      tag_253\n      jumpi\n      tag_254\n      tag_252\n      jump\t// in\n    tag_254:\n    tag_253:\n      0x20\n      mul\n      0x20\n      add\n      add\n      mload\n        /* \"ALIEN.sol\":4752:4794  AddressBlacklisted(_addresses[i], _status) */\n      0xffffffffffffffffffffffffffffffffffffffff\n      and\n      0x97b7af35c8c05eca90f543eb78b16fdf2664d3e6c9a907286f310647d9813b71\n        /* \"ALIEN.sol\":4786:4793  _status */\n      dup4\n        /* \"ALIEN.sol\":4752:4794  AddressBlacklisted(_addresses[i], _status) */\n      mload(0x40)\n      tag_255\n      swap2\n      swap1\n      tag_38\n      jump\t// in\n    tag_255:\n      mload(0x40)\n      dup1\n      swap2\n      sub\n      swap1\n      log2\n        /* \"ALIEN.sol\":4680:4683  i++ */\n      dup1\n      dup1\n      0x01\n      add\n      swap2\n      pop\n      pop\n        /* \"ALIEN.sol\":4640:4805  for (uint i = 0; i < _addresses.length; i++) {... */\n      jump(tag_247)\n    tag_248:\n      pop\n        /* \"ALIEN.sol\":4543:4811  function batchSetBlacklist(address[] memory _addresses, bool _status) public onlyOwner {... */\n      pop\n      pop\n      jump\t// out\n        /* \"ALIEN.sol\":525:589  mapping(address => mapping(address => uint256)) public allowance */\n    tag_106:\n      mstore(0x20, 0x07)\n      dup2\n      0x00\n      mstore\n      mstore(0x20, keccak256(0x00, 0x40))\n      dup1\n      0x00\n      mstore\n      keccak256(0x00, 0x40)\n      0x00\n      swap2\n      pop\n      swap2\n      pop\n      pop\n      sload\n      dup2\n      jump\t// out\n        /* \"@openzeppelin/contracts/access/Ownable.sol\":2543:2758  function transferOwnership(address newOwner) public virtual onlyOwner {... */\n    tag_110:\n        /* \"@openzeppelin/contracts/access/Ownable.sol\":1531:1544  _checkOwner() */\n      tag_257\n        /* \"@openzeppelin/contracts/access/Ownable.sol\":1531:1542  _checkOwner */\n      tag_132\n        /* \"@openzeppelin/contracts/access/Ownable.sol\":1531:1544  _checkOwner() */\n      jump\t// in\n    tag_257:\n        /* \"@openzeppelin/contracts/access/Ownable.sol\":2647:2648  0 */\n      0x00\n        /* \"@openzeppelin/contracts/access/Ownable.sol\":2627:2649  newOwner == address(0) */\n      0xffffffffffffffffffffffffffffffffffffffff\n      and\n        /* \"@openzeppelin/contracts/access/Ownable.sol\":2627:2635  newOwner */\n      dup2\n        /* \"@openzeppelin/contracts/access/Ownable.sol\":2627:2649  newOwner == address(0) */\n      0xffffffffffffffffffffffffffffffffffffffff\n      and\n      sub\n        /* \"@openzeppelin/contracts/access/Ownable.sol\":2623:2714  if (newOwner == address(0)) {... */\n      tag_259\n      jumpi\n        /* \"@openzeppelin/contracts/access/Ownable.sol\":2700:2701  0 */\n      0x00\n        /* \"@openzeppelin/contracts/access/Ownable.sol\":2672:2703  OwnableInvalidOwner(address(0)) */\n      mload(0x40)\n      0x1e4fbdf700000000000000000000000000000000000000000000000000000000\n      dup2\n      mstore\n      0x04\n      add\n      tag_260\n      swap2\n      swap1\n      tag_91\n      jump\t// in\n    tag_260:\n      mload(0x40)\n      dup1\n      swap2\n      sub\n      swap1\n      revert\n        /* \"@openzeppelin/contracts/access/Ownable.sol\":2623:2714  if (newOwner == address(0)) {... */\n    tag_259:\n        /* \"@openzeppelin/contracts/access/Ownable.sol\":2723:2751  _transferOwnership(newOwner) */\n      tag_261\n        /* \"@openzeppelin/contracts/access/Ownable.sol\":2742:2750  newOwner */\n      dup2\n        /* \"@openzeppelin/contracts/access/Ownable.sol\":2723:2741  _transferOwnership */\n      tag_192\n        /* \"@openzeppelin/contracts/access/Ownable.sol\":2723:2751  _transferOwnership(newOwner) */\n      jump\t// in\n    tag_261:\n        /* \"@openzeppelin/contracts/access/Ownable.sol\":2543:2758  function transferOwnership(address newOwner) public virtual onlyOwner {... */\n      pop\n      jump\t// out\n        /* \"ALIEN.sol\":595:636  mapping(address => bool) public blacklist */\n    tag_113:\n      mstore(0x20, 0x08)\n      dup1\n      0x00\n      mstore\n      keccak256(0x00, 0x40)\n      0x00\n      swap2\n      pop\n      sload\n      swap1\n      0x0100\n      exp\n      swap1\n      div\n      0xff\n      and\n      dup2\n      jump\t// out\n        /* \"@openzeppelin/contracts/security/Pausable.sol\":1767:1873  function _requireNotPaused() internal view virtual {... */\n    tag_123:\n        /* \"@openzeppelin/contracts/security/Pausable.sol\":1837:1845  paused() */\n      tag_263\n        /* \"@openzeppelin/contracts/security/Pausable.sol\":1837:1843  paused */\n      tag_71\n        /* \"@openzeppelin/contracts/security/Pausable.sol\":1837:1845  paused() */\n      jump\t// in\n    tag_263:\n        /* \"@openzeppelin/contracts/security/Pausable.sol\":1836:1845  !paused() */\n      iszero\n        /* \"@openzeppelin/contracts/security/Pausable.sol\":1828:1866  require(!paused(), \"Pausable: paused\") */\n      tag_264\n      jumpi\n      mload(0x40)\n      0x08c379a000000000000000000000000000000000000000000000000000000000\n      dup2\n      mstore\n      0x04\n      add\n      tag_265\n      swap1\n      tag_266\n      jump\t// in\n    tag_265:\n      mload(0x40)\n      dup1\n      swap2\n      sub\n      swap1\n      revert\n    tag_264:\n        /* \"@openzeppelin/contracts/security/Pausable.sol\":1767:1873  function _requireNotPaused() internal view virtual {... */\n      jump\t// out\n        /* \"@openzeppelin/contracts/access/Ownable.sol\":1796:1958  function _checkOwner() internal view virtual {... */\n    tag_132:\n        /* \"@openzeppelin/contracts/access/Ownable.sol\":1866:1878  _msgSender() */\n      tag_268\n        /* \"@openzeppelin/contracts/access/Ownable.sol\":1866:1876  _msgSender */\n      tag_269\n        /* \"@openzeppelin/contracts/access/Ownable.sol\":1866:1878  _msgSender() */\n      jump\t// in\n    tag_268:\n        /* \"@openzeppelin/contracts/access/Ownable.sol\":1855:1878  owner() != _msgSender() */\n      0xffffffffffffffffffffffffffffffffffffffff\n      and\n        /* \"@openzeppelin/contracts/access/Ownable.sol\":1855:1862  owner() */\n      tag_270\n        /* \"@openzeppelin/contracts/access/Ownable.sol\":1855:1860  owner */\n      tag_89\n        /* \"@openzeppelin/contracts/access/Ownable.sol\":1855:1862  owner() */\n      jump\t// in\n    tag_270:\n        /* \"@openzeppelin/contracts/access/Ownable.sol\":1855:1878  owner() != _msgSender() */\n      0xffffffffffffffffffffffffffffffffffffffff\n      and\n      eq\n        /* \"@openzeppelin/contracts/access/Ownable.sol\":1851:1952  if (owner() != _msgSender()) {... */\n      tag_271\n      jumpi\n        /* \"@openzeppelin/contracts/access/Ownable.sol\":1928:1940  _msgSender() */\n      tag_272\n        /* \"@openzeppelin/contracts/access/Ownable.sol\":1928:1938  _msgSender */\n      tag_269\n        /* \"@openzeppelin/contracts/access/Ownable.sol\":1928:1940  _msgSender() */\n      jump\t// in\n    tag_272:\n        /* \"@openzeppelin/contracts/access/Ownable.sol\":1901:1941  OwnableUnauthorizedAccount(_msgSender()) */\n      mload(0x40)\n      0x118cdaa700000000000000000000000000000000000000000000000000000000\n      dup2\n      mstore\n      0x04\n      add\n      tag_273\n      swap2\n      swap1\n      tag_91\n      jump\t// in\n    tag_273:\n      mload(0x40)\n      dup1\n      swap2\n      sub\n      swap1\n      revert\n        /* \"@openzeppelin/contracts/access/Ownable.sol\":1851:1952  if (owner() != _msgSender()) {... */\n    tag_271:\n        /* \"@openzeppelin/contracts/access/Ownable.sol\":1796:1958  function _checkOwner() internal view virtual {... */\n      jump\t// out\n        /* \"@openzeppelin/contracts/security/ReentrancyGuard.sol\":2336:2623  function _nonReentrantBefore() private {... */\n    tag_139:\n        /* \"@openzeppelin/contracts/security/ReentrancyGuard.sol\":1759:1760  2 */\n      0x02\n        /* \"@openzeppelin/contracts/security/ReentrancyGuard.sol\":2468:2475  _status */\n      sload(0x01)\n        /* \"@openzeppelin/contracts/security/ReentrancyGuard.sol\":2468:2487  _status != _ENTERED */\n      sub\n        /* \"@openzeppelin/contracts/security/ReentrancyGuard.sol\":2460:2523  require(_status != _ENTERED, \"ReentrancyGuard: reentrant call\") */\n      tag_275\n      jumpi\n      mload(0x40)\n      0x08c379a000000000000000000000000000000000000000000000000000000000\n      dup2\n      mstore\n      0x04\n      add\n      tag_276\n      swap1\n      tag_277\n      jump\t// in\n    tag_276:\n      mload(0x40)\n      dup1\n      swap2\n      sub\n      swap1\n      revert\n    tag_275:\n        /* \"@openzeppelin/contracts/security/ReentrancyGuard.sol\":1759:1760  2 */\n      0x02\n        /* \"@openzeppelin/contracts/security/ReentrancyGuard.sol\":2598:2605  _status */\n      0x01\n        /* \"@openzeppelin/contracts/security/ReentrancyGuard.sol\":2598:2616  _status = _ENTERED */\n      dup2\n      swap1\n      sstore\n      pop\n        /* \"@openzeppelin/contracts/security/ReentrancyGuard.sol\":2336:2623  function _nonReentrantBefore() private {... */\n      jump\t// out\n        /* \"ALIEN.sol\":1716:2119  function _transfer(address _from, address _to, uint256 _value) internal {... */\n    tag_157:\n        /* \"ALIEN.sol\":1821:1822  0 */\n      0x00\n        /* \"ALIEN.sol\":1806:1823  _to != address(0) */\n      0xffffffffffffffffffffffffffffffffffffffff\n      and\n        /* \"ALIEN.sol\":1806:1809  _to */\n      dup3\n        /* \"ALIEN.sol\":1806:1823  _to != address(0) */\n      0xffffffffffffffffffffffffffffffffffffffff\n      and\n      sub\n        /* \"ALIEN.sol\":1798:1843  require(_to != address(0), \"Invalid address\") */\n      tag_279\n      jumpi\n      mload(0x40)\n      0x08c379a000000000000000000000000000000000000000000000000000000000\n      dup2\n      mstore\n      0x04\n      add\n      tag_280\n      swap1\n      tag_143\n      jump\t// in\n    tag_280:\n      mload(0x40)\n      dup1\n      swap2\n      sub\n      swap1\n      revert\n    tag_279:\n        /* \"ALIEN.sol\":1862:1871  blacklist */\n      0x08\n        /* \"ALIEN.sol\":1862:1878  blacklist[_from] */\n      0x00\n        /* \"ALIEN.sol\":1872:1877  _from */\n      dup5\n        /* \"ALIEN.sol\":1862:1878  blacklist[_from] */\n      0xffffffffffffffffffffffffffffffffffffffff\n      and\n      0xffffffffffffffffffffffffffffffffffffffff\n      and\n      dup2\n      mstore\n      0x20\n      add\n      swap1\n      dup2\n      mstore\n      0x20\n      add\n      0x00\n      keccak256\n      0x00\n      swap1\n      sload\n      swap1\n      0x0100\n      exp\n      swap1\n      div\n      0xff\n      and\n        /* \"ALIEN.sol\":1861:1878  !blacklist[_from] */\n      iszero\n        /* \"ALIEN.sol\":1861:1897  !blacklist[_from] && !blacklist[_to] */\n      dup1\n      iszero\n      tag_281\n      jumpi\n      pop\n        /* \"ALIEN.sol\":1883:1892  blacklist */\n      0x08\n        /* \"ALIEN.sol\":1883:1897  blacklist[_to] */\n      0x00\n        /* \"ALIEN.sol\":1893:1896  _to */\n      dup4\n        /* \"ALIEN.sol\":1883:1897  blacklist[_to] */\n      0xffffffffffffffffffffffffffffffffffffffff\n      and\n      0xffffffffffffffffffffffffffffffffffffffff\n      and\n      dup2\n      mstore\n      0x20\n      add\n      swap1\n      dup2\n      mstore\n      0x20\n      add\n      0x00\n      keccak256\n      0x00\n      swap1\n      sload\n      swap1\n      0x0100\n      exp\n      swap1\n      div\n      0xff\n      and\n        /* \"ALIEN.sol\":1882:1897  !blacklist[_to] */\n      iszero\n        /* \"ALIEN.sol\":1861:1897  !blacklist[_from] && !blacklist[_to] */\n    tag_281:\n        /* \"ALIEN.sol\":1853:1921  require(!blacklist[_from] && !blacklist[_to], \"Address blacklisted\") */\n      tag_282\n      jumpi\n      mload(0x40)\n      0x08c379a000000000000000000000000000000000000000000000000000000000\n      dup2\n      mstore\n      0x04\n      add\n      tag_283\n      swap1\n      tag_128\n      jump\t// in\n    tag_283:\n      mload(0x40)\n      dup1\n      swap2\n      sub\n      swap1\n      revert\n    tag_282:\n        /* \"ALIEN.sol\":1959:1965  _value */\n      dup1\n        /* \"ALIEN.sol\":1939:1948  balanceOf */\n      0x06\n        /* \"ALIEN.sol\":1939:1955  balanceOf[_from] */\n      0x00\n        /* \"ALIEN.sol\":1949:1954  _from */\n      dup6\n        /* \"ALIEN.sol\":1939:1955  balanceOf[_from] */\n      0xffffffffffffffffffffffffffffffffffffffff\n      and\n      0xffffffffffffffffffffffffffffffffffffffff\n      and\n      dup2\n      mstore\n      0x20\n      add\n      swap1\n      dup2\n      mstore\n      0x20\n      add\n      0x00\n      keccak256\n      sload\n        /* \"ALIEN.sol\":1939:1965  balanceOf[_from] >= _value */\n      lt\n      iszero\n        /* \"ALIEN.sol\":1931:1990  require(balanceOf[_from] >= _value, \"Insufficient balance\") */\n      tag_284\n      jumpi\n      mload(0x40)\n      0x08c379a000000000000000000000000000000000000000000000000000000000\n      dup2\n      mstore\n      0x04\n      add\n      tag_285\n      swap1\n      tag_150\n      jump\t// in\n    tag_285:\n      mload(0x40)\n      dup1\n      swap2\n      sub\n      swap1\n      revert\n    tag_284:\n        /* \"ALIEN.sol\":2029:2035  _value */\n      dup1\n        /* \"ALIEN.sol\":2009:2018  balanceOf */\n      0x06\n        /* \"ALIEN.sol\":2009:2025  balanceOf[_from] */\n      0x00\n        /* \"ALIEN.sol\":2019:2024  _from */\n      dup6\n        /* \"ALIEN.sol\":2009:2025  balanceOf[_from] */\n      0xffffffffffffffffffffffffffffffffffffffff\n      and\n      0xffffffffffffffffffffffffffffffffffffffff\n      and\n      dup2\n      mstore\n      0x20\n      add\n      swap1\n      dup2\n      mstore\n      0x20\n      add\n      0x00\n      keccak256\n      0x00\n        /* \"ALIEN.sol\":2009:2035  balanceOf[_from] -= _value */\n      dup3\n      dup3\n      sload\n      tag_286\n      swap2\n      swap1\n      tag_155\n      jump\t// in\n    tag_286:\n      swap3\n      pop\n      pop\n      dup2\n      swap1\n      sstore\n      pop\n        /* \"ALIEN.sol\":2063:2069  _value */\n      dup1\n        /* \"ALIEN.sol\":2045:2054  balanceOf */\n      0x06\n        /* \"ALIEN.sol\":2045:2059  balanceOf[_to] */\n      0x00\n        /* \"ALIEN.sol\":2055:2058  _to */\n      dup5\n        /* \"ALIEN.sol\":2045:2059  balanceOf[_to] */\n      0xffffffffffffffffffffffffffffffffffffffff\n      and\n      0xffffffffffffffffffffffffffffffffffffffff\n      and\n      dup2\n      mstore\n      0x20\n      add\n      swap1\n      dup2\n      mstore\n      0x20\n      add\n      0x00\n      keccak256\n      0x00\n        /* \"ALIEN.sol\":2045:2069  balanceOf[_to] += _value */\n      dup3\n      dup3\n      sload\n      tag_287\n      swap2\n      swap1\n      tag_173\n      jump\t// in\n    tag_287:\n      swap3\n      pop\n      pop\n      dup2\n      swap1\n      sstore\n      pop\n        /* \"ALIEN.sol\":2100:2103  _to */\n      dup2\n        /* \"ALIEN.sol\":2084:2112  Transfer(_from, _to, _value) */\n      0xffffffffffffffffffffffffffffffffffffffff\n      and\n        /* \"ALIEN.sol\":2093:2098  _from */\n      dup4\n        /* \"ALIEN.sol\":2084:2112  Transfer(_from, _to, _value) */\n      0xffffffffffffffffffffffffffffffffffffffff\n      and\n      0xddf252ad1be2c89b69c2b068fc378daa952ba7f163c4a11628f55a4df523b3ef\n        /* \"ALIEN.sol\":2105:2111  _value */\n      dup4\n        /* \"ALIEN.sol\":2084:2112  Transfer(_from, _to, _value) */\n      mload(0x40)\n      tag_288\n      swap2\n      swap1\n      tag_46\n      jump\t// in\n    tag_288:\n      mload(0x40)\n      dup1\n      swap2\n      sub\n      swap1\n      log3\n        /* \"ALIEN.sol\":1716:2119  function _transfer(address _from, address _to, uint256 _value) internal {... */\n      pop\n      pop\n      pop\n      jump\t// out\n        /* \"@openzeppelin/contracts/security/ReentrancyGuard.sol\":2629:2838  function _nonReentrantAfter() private {... */\n    tag_159:\n        /* \"@openzeppelin/contracts/security/ReentrancyGuard.sol\":1716:1717  1 */\n      0x01\n        /* \"@openzeppelin/contracts/security/ReentrancyGuard.sol\":2809:2816  _status */\n      dup1\n        /* \"@openzeppelin/contracts/security/ReentrancyGuard.sol\":2809:2831  _status = _NOT_ENTERED */\n      dup2\n      swap1\n      sstore\n      pop\n        /* \"@openzeppelin/contracts/security/ReentrancyGuard.sol\":2629:2838  function _nonReentrantAfter() private {... */\n      jump\t// out\n        /* \"@openzeppelin/contracts/security/Pausable.sol\":2433:2550  function _unpause() internal virtual whenPaused {... */\n    tag_164:\n        /* \"@openzeppelin/contracts/security/Pausable.sol\":1486:1502  _requirePaused() */\n      tag_291\n        /* \"@openzeppelin/contracts/security/Pausable.sol\":1486:1500  _requirePaused */\n      tag_292\n        /* \"@openzeppelin/contracts/security/Pausable.sol\":1486:1502  _requirePaused() */\n      jump\t// in\n    tag_291:\n        /* \"@openzeppelin/contracts/security/Pausable.sol\":2501:2506  false */\n      0x00\n        /* \"@openzeppelin/contracts/security/Pausable.sol\":2491:2498  _paused */\n      0x00\n      0x14\n        /* \"@openzeppelin/contracts/security/Pausable.sol\":2491:2506  _paused = false */\n      0x0100\n      exp\n      dup2\n      sload\n      dup2\n      0xff\n      mul\n      not\n      and\n      swap1\n      dup4\n      iszero\n      iszero\n      mul\n      or\n      swap1\n      sstore\n      pop\n        /* \"@openzeppelin/contracts/security/Pausable.sol\":2521:2543  Unpaused(_msgSender()) */\n      0x5db9ee0a495bf2e6ff9c91a7834c1ba4fdd244a5e8aa4e537bd38aeae4b073aa\n        /* \"@openzeppelin/contracts/security/Pausable.sol\":2530:2542  _msgSender() */\n      tag_294\n        /* \"@openzeppelin/contracts/security/Pausable.sol\":2530:2540  _msgSender */\n      tag_269\n        /* \"@openzeppelin/contracts/security/Pausable.sol\":2530:2542  _msgSender() */\n      jump\t// in\n    tag_294:\n        /* \"@openzeppelin/contracts/security/Pausable.sol\":2521:2543  Unpaused(_msgSender()) */\n      mload(0x40)\n      tag_295\n      swap2\n      swap1\n      tag_91\n      jump\t// in\n    tag_295:\n      mload(0x40)\n      dup1\n      swap2\n      sub\n      swap1\n      log1\n        /* \"@openzeppelin/contracts/security/Pausable.sol\":2433:2550  function _unpause() internal virtual whenPaused {... */\n      jump\t// out\n        /* \"@openzeppelin/contracts/access/Ownable.sol\":2912:3099  function _transferOwnership(address newOwner) internal virtual {... */\n    tag_192:\n        /* \"@openzeppelin/contracts/access/Ownable.sol\":2985:3001  address oldOwner */\n      0x00\n        /* \"@openzeppelin/contracts/access/Ownable.sol\":3004:3010  _owner */\n      0x00\n      0x00\n      swap1\n      sload\n      swap1\n      0x0100\n      exp\n      swap1\n      div\n      0xffffffffffffffffffffffffffffffffffffffff\n      and\n        /* \"@openzeppelin/contracts/access/Ownable.sol\":2985:3010  address oldOwner = _owner */\n      swap1\n      pop\n        /* \"@openzeppelin/contracts/access/Ownable.sol\":3029:3037  newOwner */\n      dup2\n        /* \"@openzeppelin/contracts/access/Ownable.sol\":3020:3026  _owner */\n      0x00\n      0x00\n        /* \"@openzeppelin/contracts/access/Ownable.sol\":3020:3037  _owner = newOwner */\n      0x0100\n      exp\n      dup2\n      sload\n      dup2\n      0xffffffffffffffffffffffffffffffffffffffff\n      mul\n      not\n      and\n      swap1\n      dup4\n      0xffffffffffffffffffffffffffffffffffffffff\n      and\n      mul\n      or\n      swap1\n      sstore\n      pop\n        /* \"@openzeppelin/contracts/access/Ownable.sol\":3083:3091  newOwner */\n      dup2\n        /* \"@openzeppelin/contracts/access/Ownable.sol\":3052:3092  OwnershipTransferred(oldOwner, newOwner) */\n      0xffffffffffffffffffffffffffffffffffffffff\n      and\n        /* \"@openzeppelin/contracts/access/Ownable.sol\":3073:3081  oldOwner */\n      dup2\n        /* \"@openzeppelin/contracts/access/Ownable.sol\":3052:3092  OwnershipTransferred(oldOwner, newOwner) */\n      0xffffffffffffffffffffffffffffffffffffffff\n      and\n      0x8be0079c531659141344cd1fd0a4f28419497f9722a3daafe3b4186f6b6457e0\n      mload(0x40)\n      mload(0x40)\n      dup1\n      swap2\n      sub\n      swap1\n      log3\n        /* \"@openzeppelin/contracts/access/Ownable.sol\":2975:3099  {... */\n      pop\n        /* \"@openzeppelin/contracts/access/Ownable.sol\":2912:3099  function _transferOwnership(address newOwner) internal virtual {... */\n      pop\n      jump\t// out\n        /* \"@openzeppelin/contracts/security/Pausable.sol\":2186:2301  function _pause() internal virtual whenNotPaused {... */\n    tag_221:\n        /* \"@openzeppelin/contracts/security/Pausable.sol\":1239:1258  _requireNotPaused() */\n      tag_298\n        /* \"@openzeppelin/contracts/security/Pausable.sol\":1239:1256  _requireNotPaused */\n      tag_123\n        /* \"@openzeppelin/contracts/security/Pausable.sol\":1239:1258  _requireNotPaused() */\n      jump\t// in\n    tag_298:\n        /* \"@openzeppelin/contracts/security/Pausable.sol\":2255:2259  true */\n      0x01\n        /* \"@openzeppelin/contracts/security/Pausable.sol\":2245:2252  _paused */\n      0x00\n      0x14\n        /* \"@openzeppelin/contracts/security/Pausable.sol\":2245:2259  _paused = true */\n      0x0100\n      exp\n      dup2\n      sload\n      dup2\n      0xff\n      mul\n      not\n      and\n      swap1\n      dup4\n      iszero\n      iszero\n      mul\n      or\n      swap1\n      sstore\n      pop\n        /* \"@openzeppelin/contracts/security/Pausable.sol\":2274:2294  Paused(_msgSender()) */\n      0x62e78cea01bee320cd4e420270b5ea74000d11b0c9f74754ebdbfc544b05a258\n        /* \"@openzeppelin/contracts/security/Pausable.sol\":2281:2293  _msgSender() */\n      tag_300\n        /* \"@openzeppelin/contracts/security/Pausable.sol\":2281:2291  _msgSender */\n      tag_269\n        /* \"@openzeppelin/contracts/security/Pausable.sol\":2281:2293  _msgSender() */\n      jump\t// in\n    tag_300:\n        /* \"@openzeppelin/contracts/security/Pausable.sol\":2274:2294  Paused(_msgSender()) */\n      mload(0x40)\n      tag_301\n      swap2\n      swap1\n      tag_91\n      jump\t// in\n    tag_301:\n      mload(0x40)\n      dup1\n      swap2\n      sub\n      swap1\n      log1\n        /* \"@openzeppelin/contracts/security/Pausable.sol\":2186:2301  function _pause() internal virtual whenNotPaused {... */\n      jump\t// out\n        /* \"@openzeppelin/contracts/utils/Context.sol\":656:752  function _msgSender() internal view virtual returns (address) {... */\n    tag_269:\n        /* \"@openzeppelin/contracts/utils/Context.sol\":709:716  address */\n      0x00\n        /* \"@openzeppelin/contracts/utils/Context.sol\":735:745  msg.sender */\n      caller\n        /* \"@openzeppelin/contracts/utils/Context.sol\":728:745  return msg.sender */\n      swap1\n      pop\n        /* \"@openzeppelin/contracts/utils/Context.sol\":656:752  function _msgSender() internal view virtual returns (address) {... */\n      swap1\n      jump\t// out\n        /* \"@openzeppelin/contracts/security/Pausable.sol\":1945:2051  function _requirePaused() internal view virtual {... */\n    tag_292:\n        /* \"@openzeppelin/contracts/security/Pausable.sol\":2011:2019  paused() */\n      tag_304\n        /* \"@openzeppelin/contracts/security/Pausable.sol\":2011:2017  paused */\n      tag_71\n        /* \"@openzeppelin/contracts/security/Pausable.sol\":2011:2019  paused() */\n      jump\t// in\n    tag_304:\n        /* \"@openzeppelin/contracts/security/Pausable.sol\":2003:2044  require(paused(), \"Pausable: not paused\") */\n      tag_305\n      jumpi\n      mload(0x40)\n      0x08c379a000000000000000000000000000000000000000000000000000000000\n      dup2\n      mstore\n      0x04\n      add\n      tag_306\n      swap1\n      tag_307\n      jump\t// in\n    tag_306:\n      mload(0x40)\n      dup1\n      swap2\n      sub\n      swap1\n      revert\n    tag_305:\n        /* \"@openzeppelin/contracts/security/Pausable.sol\":1945:2051  function _requirePaused() internal view virtual {... */\n      jump\t// out\n        /* \"#utility.yul\":7:106   */\n    tag_308:\n        /* \"#utility.yul\":59:65   */\n      0x00\n        /* \"#utility.yul\":93:98   */\n      dup2\n        /* \"#utility.yul\":87:99   */\n      mload\n        /* \"#utility.yul\":77:99   */\n      swap1\n      pop\n        /* \"#utility.yul\":7:106   */\n      swap2\n      swap1\n      pop\n      jump\t// out\n        /* \"#utility.yul\":112:281   */\n    tag_309:\n        /* \"#utility.yul\":196:207   */\n      0x00\n        /* \"#utility.yul\":230:236   */\n      dup3\n        /* \"#utility.yul\":225:228   */\n      dup3\n        /* \"#utility.yul\":218:237   */\n      mstore\n        /* \"#utility.yul\":270:274   */\n      0x20\n        /* \"#utility.yul\":265:268   */\n      dup3\n        /* \"#utility.yul\":261:275   */\n      add\n        /* \"#utility.yul\":246:275   */\n      swap1\n      pop\n        /* \"#utility.yul\":112:281   */\n      swap3\n      swap2\n      pop\n      pop\n      jump\t// out\n        /* \"#utility.yul\":287:426   */\n    tag_310:\n        /* \"#utility.yul\":376:382   */\n      dup3\n        /* \"#utility.yul\":371:374   */\n      dup2\n        /* \"#utility.yul\":366:369   */\n      dup4\n        /* \"#utility.yul\":360:383   */\n      mcopy\n        /* \"#utility.yul\":417:418   */\n      0x00\n        /* \"#utility.yul\":408:414   */\n      dup4\n        /* \"#utility.yul\":403:406   */\n      dup4\n        /* \"#utility.yul\":399:415   */\n      add\n        /* \"#utility.yul\":392:419   */\n      mstore\n        /* \"#utility.yul\":287:426   */\n      pop\n      pop\n      pop\n      jump\t// out\n        /* \"#utility.yul\":432:534   */\n    tag_311:\n        /* \"#utility.yul\":473:479   */\n      0x00\n        /* \"#utility.yul\":524:526   */\n      0x1f\n        /* \"#utility.yul\":520:527   */\n      not\n        /* \"#utility.yul\":515:517   */\n      0x1f\n        /* \"#utility.yul\":508:513   */\n      dup4\n        /* \"#utility.yul\":504:518   */\n      add\n        /* \"#utility.yul\":500:528   */\n      and\n        /* \"#utility.yul\":490:528   */\n      swap1\n      pop\n        /* \"#utility.yul\":432:534   */\n      swap2\n      swap1\n      pop\n      jump\t// out\n        /* \"#utility.yul\":540:917   */\n    tag_312:\n        /* \"#utility.yul\":628:631   */\n      0x00\n        /* \"#utility.yul\":656:695   */\n      tag_361\n        /* \"#utility.yul\":689:694   */\n      dup3\n        /* \"#utility.yul\":656:695   */\n      tag_308\n      jump\t// in\n    tag_361:\n        /* \"#utility.yul\":711:782   */\n      tag_362\n        /* \"#utility.yul\":775:781   */\n      dup2\n        /* \"#utility.yul\":770:773   */\n      dup6\n        /* \"#utility.yul\":711:782   */\n      tag_309\n      jump\t// in\n    tag_362:\n        /* \"#utility.yul\":704:782   */\n      swap4\n      pop\n        /* \"#utility.yul\":791:856   */\n      tag_363\n        /* \"#utility.yul\":849:855   */\n      dup2\n        /* \"#utility.yul\":844:847   */\n      dup6\n        /* \"#utility.yul\":837:841   */\n      0x20\n        /* \"#utility.yul\":830:835   */\n      dup7\n        /* \"#utility.yul\":826:842   */\n      add\n        /* \"#utility.yul\":791:856   */\n      tag_310\n      jump\t// in\n    tag_363:\n        /* \"#utility.yul\":881:910   */\n      tag_364\n        /* \"#utility.yul\":903:909   */\n      dup2\n        /* \"#utility.yul\":881:910   */\n      tag_311\n      jump\t// in\n    tag_364:\n        /* \"#utility.yul\":876:879   */\n      dup5\n        /* \"#utility.yul\":872:911   */\n      add\n        /* \"#utility.yul\":865:911   */\n      swap2\n      pop\n        /* \"#utility.yul\":632:917   */\n      pop\n        /* \"#utility.yul\":540:917   */\n      swap3\n      swap2\n      pop\n      pop\n      jump\t// out\n        /* \"#utility.yul\":923:1236   */\n    tag_32:\n        /* \"#utility.yul\":1036:1040   */\n      0x00\n        /* \"#utility.yul\":1074:1076   */\n      0x20\n        /* \"#utility.yul\":1063:1072   */\n      dup3\n        /* \"#utility.yul\":1059:1077   */\n      add\n        /* \"#utility.yul\":1051:1077   */\n      swap1\n      pop\n        /* \"#utility.yul\":1123:1132   */\n      dup2\n        /* \"#utility.yul\":1117:1121   */\n      dup2\n        /* \"#utility.yul\":1113:1133   */\n      sub\n        /* \"#utility.yul\":1109:1110   */\n      0x00\n        /* \"#utility.yul\":1098:1107   */\n      dup4\n        /* \"#utility.yul\":1094:1111   */\n      add\n        /* \"#utility.yul\":1087:1134   */\n      mstore\n        /* \"#utility.yul\":1151:1229   */\n      tag_366\n        /* \"#utility.yul\":1224:1228   */\n      dup2\n        /* \"#utility.yul\":1215:1221   */\n      dup5\n        /* \"#utility.yul\":1151:1229   */\n      tag_312\n      jump\t// in\n    tag_366:\n        /* \"#utility.yul\":1143:1229   */\n      swap1\n      pop\n        /* \"#utility.yul\":923:1236   */\n      swap3\n      swap2\n      pop\n      pop\n      jump\t// out\n        /* \"#utility.yul\":1242:1317   */\n    tag_313:\n        /* \"#utility.yul\":1275:1281   */\n      0x00\n        /* \"#utility.yul\":1308:1310   */\n      0x40\n        /* \"#utility.yul\":1302:1311   */\n      mload\n        /* \"#utility.yul\":1292:1311   */\n      swap1\n      pop\n        /* \"#utility.yul\":1242:1317   */\n      swap1\n      jump\t// out\n        /* \"#utility.yul\":1323:1440   */\n    tag_314:\n        /* \"#utility.yul\":1432:1433   */\n      0x00\n        /* \"#utility.yul\":1429:1430   */\n      0x00\n        /* \"#utility.yul\":1422:1434   */\n      revert\n        /* \"#utility.yul\":1446:1563   */\n    tag_315:\n        /* \"#utility.yul\":1555:1556   */\n      0x00\n        /* \"#utility.yul\":1552:1553   */\n      0x00\n        /* \"#utility.yul\":1545:1557   */\n      revert\n        /* \"#utility.yul\":1569:1695   */\n    tag_316:\n        /* \"#utility.yul\":1606:1613   */\n      0x00\n        /* \"#utility.yul\":1646:1688   */\n      0xffffffffffffffffffffffffffffffffffffffff\n        /* \"#utility.yul\":1639:1644   */\n      dup3\n        /* \"#utility.yul\":1635:1689   */\n      and\n        /* \"#utility.yul\":1624:1689   */\n      swap1\n      pop\n        /* \"#utility.yul\":1569:1695   */\n      swap2\n      swap1\n      pop\n      jump\t// out\n        /* \"#utility.yul\":1701:1797   */\n    tag_317:\n        /* \"#utility.yul\":1738:1745   */\n      0x00\n        /* \"#utility.yul\":1767:1791   */\n      tag_372\n        /* \"#utility.yul\":1785:1790   */\n      dup3\n        /* \"#utility.yul\":1767:1791   */\n      tag_316\n      jump\t// in\n    tag_372:\n        /* \"#utility.yul\":1756:1791   */\n      swap1\n      pop\n        /* \"#utility.yul\":1701:1797   */\n      swap2\n      swap1\n      pop\n      jump\t// out\n        /* \"#utility.yul\":1803:1925   */\n    tag_318:\n        /* \"#utility.yul\":1876:1900   */\n      tag_374\n        /* \"#utility.yul\":1894:1899   */\n      dup2\n        /* \"#utility.yul\":1876:1900   */\n      tag_317\n      jump\t// in\n    tag_374:\n        /* \"#utility.yul\":1869:1874   */\n      dup2\n        /* \"#utility.yul\":1866:1901   */\n      eq\n        /* \"#utility.yul\":1856:1919   */\n      tag_375\n      jumpi\n        /* \"#utility.yul\":1915:1916   */\n      0x00\n        /* \"#utility.yul\":1912:1913   */\n      0x00\n        /* \"#utility.yul\":1905:1917   */\n      revert\n        /* \"#utility.yul\":1856:1919   */\n    tag_375:\n        /* \"#utility.yul\":1803:1925   */\n      pop\n      jump\t// out\n        /* \"#utility.yul\":1931:2070   */\n    tag_319:\n        /* \"#utility.yul\":1977:1982   */\n      0x00\n        /* \"#utility.yul\":2015:2021   */\n      dup2\n        /* \"#utility.yul\":2002:2022   */\n      calldataload\n        /* \"#utility.yul\":1993:2022   */\n      swap1\n      pop\n        /* \"#utility.yul\":2031:2064   */\n      tag_377\n        /* \"#utility.yul\":2058:2063   */\n      dup2\n        /* \"#utility.yul\":2031:2064   */\n      tag_318\n      jump\t// in\n    tag_377:\n        /* \"#utility.yul\":1931:2070   */\n      swap3\n      swap2\n      pop\n      pop\n      jump\t// out\n        /* \"#utility.yul\":2076:2153   */\n    tag_320:\n        /* \"#utility.yul\":2113:2120   */\n      0x00\n        /* \"#utility.yul\":2142:2147   */\n      dup2\n        /* \"#utility.yul\":2131:2147   */\n      swap1\n      pop\n        /* \"#utility.yul\":2076:2153   */\n      swap2\n      swap1\n      pop\n      jump\t// out\n        /* \"#utility.yul\":2159:2281   */\n    tag_321:\n        /* \"#utility.yul\":2232:2256   */\n      tag_380\n        /* \"#utility.yul\":2250:2255   */\n      dup2\n        /* \"#utility.yul\":2232:2256   */\n      tag_320\n      jump\t// in\n    tag_380:\n        /* \"#utility.yul\":2225:2230   */\n      dup2\n        /* \"#utility.yul\":2222:2257   */\n      eq\n        /* \"#utility.yul\":2212:2275   */\n      tag_381\n      jumpi\n        /* \"#utility.yul\":2271:2272   */\n      0x00\n        /* \"#utility.yul\":2268:2269   */\n      0x00\n        /* \"#utility.yul\":2261:2273   */\n      revert\n        /* \"#utility.yul\":2212:2275   */\n    tag_381:\n        /* \"#utility.yul\":2159:2281   */\n      pop\n      jump\t// out\n        /* \"#utility.yul\":2287:2426   */\n    tag_322:\n        /* \"#utility.yul\":2333:2338   */\n      0x00\n        /* \"#utility.yul\":2371:2377   */\n      dup2\n        /* \"#utility.yul\":2358:2378   */\n      calldataload\n        /* \"#utility.yul\":2349:2378   */\n      swap1\n      pop\n        /* \"#utility.yul\":2387:2420   */\n      tag_383\n        /* \"#utility.yul\":2414:2419   */\n      dup2\n        /* \"#utility.yul\":2387:2420   */\n      tag_321\n      jump\t// in\n    tag_383:\n        /* \"#utility.yul\":2287:2426   */\n      swap3\n      swap2\n      pop\n      pop\n      jump\t// out\n        /* \"#utility.yul\":2432:2906   */\n    tag_35:\n        /* \"#utility.yul\":2500:2506   */\n      0x00\n        /* \"#utility.yul\":2508:2514   */\n      0x00\n        /* \"#utility.yul\":2557:2559   */\n      0x40\n        /* \"#utility.yul\":2545:2554   */\n      dup4\n        /* \"#utility.yul\":2536:2543   */\n      dup6\n        /* \"#utility.yul\":2532:2555   */\n      sub\n        /* \"#utility.yul\":2528:2560   */\n      slt\n        /* \"#utility.yul\":2525:2644   */\n      iszero\n      tag_385\n      jumpi\n        /* \"#utility.yul\":2563:2642   */\n      tag_386\n      tag_314\n      jump\t// in\n    tag_386:\n        /* \"#utility.yul\":2525:2644   */\n    tag_385:\n        /* \"#utility.yul\":2683:2684   */\n      0x00\n        /* \"#utility.yul\":2708:2761   */\n      tag_387\n        /* \"#utility.yul\":2753:2760   */\n      dup6\n        /* \"#utility.yul\":2744:2750   */\n      dup3\n        /* \"#utility.yul\":2733:2742   */\n      dup7\n        /* \"#utility.yul\":2729:2751   */\n      add\n        /* \"#utility.yul\":2708:2761   */\n      tag_319\n      jump\t// in\n    tag_387:\n        /* \"#utility.yul\":2698:2761   */\n      swap3\n      pop\n        /* \"#utility.yul\":2654:2771   */\n      pop\n        /* \"#utility.yul\":2810:2812   */\n      0x20\n        /* \"#utility.yul\":2836:2889   */\n      tag_388\n        /* \"#utility.yul\":2881:2888   */\n      dup6\n        /* \"#utility.yul\":2872:2878   */\n      dup3\n        /* \"#utility.yul\":2861:2870   */\n      dup7\n        /* \"#utility.yul\":2857:2879   */\n      add\n        /* \"#utility.yul\":2836:2889   */\n      tag_322\n      jump\t// in\n    tag_388:\n        /* \"#utility.yul\":2826:2889   */\n      swap2\n      pop\n        /* \"#utility.yul\":2781:2899   */\n      pop\n        /* \"#utility.yul\":2432:2906   */\n      swap3\n      pop\n      swap3\n      swap1\n      pop\n      jump\t// out\n        /* \"#utility.yul\":2912:3002   */\n    tag_323:\n        /* \"#utility.yul\":2946:2953   */\n      0x00\n        /* \"#utility.yul\":2989:2994   */\n      dup2\n        /* \"#utility.yul\":2982:2995   */\n      iszero\n        /* \"#utility.yul\":2975:2996   */\n      iszero\n        /* \"#utility.yul\":2964:2996   */\n      swap1\n      pop\n        /* \"#utility.yul\":2912:3002   */\n      swap2\n      swap1\n      pop\n      jump\t// out\n        /* \"#utility.yul\":3008:3117   */\n    tag_324:\n        /* \"#utility.yul\":3089:3110   */\n      tag_391\n        /* \"#utility.yul\":3104:3109   */\n      dup2\n        /* \"#utility.yul\":3089:3110   */\n      tag_323\n      jump\t// in\n    tag_391:\n        /* \"#utility.yul\":3084:3087   */\n      dup3\n        /* \"#utility.yul\":3077:3111   */\n      mstore\n        /* \"#utility.yul\":3008:3117   */\n      pop\n      pop\n      jump\t// out\n        /* \"#utility.yul\":3123:3333   */\n    tag_38:\n        /* \"#utility.yul\":3210:3214   */\n      0x00\n        /* \"#utility.yul\":3248:3250   */\n      0x20\n        /* \"#utility.yul\":3237:3246   */\n      dup3\n        /* \"#utility.yul\":3233:3251   */\n      add\n        /* \"#utility.yul\":3225:3251   */\n      swap1\n      pop\n        /* \"#utility.yul\":3261:3326   */\n      tag_393\n        /* \"#utility.yul\":3323:3324   */\n      0x00\n        /* \"#utility.yul\":3312:3321   */\n      dup4\n        /* \"#utility.yul\":3308:3325   */\n      add\n        /* \"#utility.yul\":3299:3305   */\n      dup5\n        /* \"#utility.yul\":3261:3326   */\n      tag_324\n      jump\t// in\n    tag_393:\n        /* \"#utility.yul\":3123:3333   */\n      swap3\n      swap2\n      pop\n      pop\n      jump\t// out\n        /* \"#utility.yul\":3339:3455   */\n    tag_325:\n        /* \"#utility.yul\":3409:3430   */\n      tag_395\n        /* \"#utility.yul\":3424:3429   */\n      dup2\n        /* \"#utility.yul\":3409:3430   */\n      tag_323\n      jump\t// in\n    tag_395:\n        /* \"#utility.yul\":3402:3407   */\n      dup2\n        /* \"#utility.yul\":3399:3431   */\n      eq\n        /* \"#utility.yul\":3389:3449   */\n      tag_396\n      jumpi\n        /* \"#utility.yul\":3445:3446   */\n      0x00\n        /* \"#utility.yul\":3442:3443   */\n      0x00\n        /* \"#utility.yul\":3435:3447   */\n      revert\n        /* \"#utility.yul\":3389:3449   */\n    tag_396:\n        /* \"#utility.yul\":3339:3455   */\n      pop\n      jump\t// out\n        /* \"#utility.yul\":3461:3594   */\n    tag_326:\n        /* \"#utility.yul\":3504:3509   */\n      0x00\n        /* \"#utility.yul\":3542:3548   */\n      dup2\n        /* \"#utility.yul\":3529:3549   */\n      calldataload\n        /* \"#utility.yul\":3520:3549   */\n      swap1\n      pop\n        /* \"#utility.yul\":3558:3588   */\n      tag_398\n        /* \"#utility.yul\":3582:3587   */\n      dup2\n        /* \"#utility.yul\":3558:3588   */\n      tag_325\n      jump\t// in\n    tag_398:\n        /* \"#utility.yul\":3461:3594   */\n      swap3\n      swap2\n      pop\n      pop\n      jump\t// out\n        /* \"#utility.yul\":3600:4068   */\n    tag_41:\n        /* \"#utility.yul\":3665:3671   */\n      0x00\n        /* \"#utility.yul\":3673:3679   */\n      0x00\n        /* \"#utility.yul\":3722:3724   */\n      0x40\n        /* \"#utility.yul\":3710:3719   */\n      dup4\n        /* \"#utility.yul\":3701:3708   */\n      dup6\n        /* \"#utility.yul\":3697:3720   */\n      sub\n        /* \"#utility.yul\":3693:3725   */\n      slt\n        /* \"#utility.yul\":3690:3809   */\n      iszero\n      tag_400\n      jumpi\n        /* \"#utility.yul\":3728:3807   */\n      tag_401\n      tag_314\n      jump\t// in\n    tag_401:\n        /* \"#utility.yul\":3690:3809   */\n    tag_400:\n        /* \"#utility.yul\":3848:3849   */\n      0x00\n        /* \"#utility.yul\":3873:3926   */\n      tag_402\n        /* \"#utility.yul\":3918:3925   */\n      dup6\n        /* \"#utility.yul\":3909:3915   */\n      dup3\n        /* \"#utility.yul\":3898:3907   */\n      dup7\n        /* \"#utility.yul\":3894:3916   */\n      add\n        /* \"#utility.yul\":3873:3926   */\n      tag_319\n      jump\t// in\n    tag_402:\n        /* \"#utility.yul\":3863:3926   */\n      swap3\n      pop\n        /* \"#utility.yul\":3819:3936   */\n      pop\n        /* \"#utility.yul\":3975:3977   */\n      0x20\n        /* \"#utility.yul\":4001:4051   */\n      tag_403\n        /* \"#utility.yul\":4043:4050   */\n      dup6\n        /* \"#utility.yul\":4034:4040   */\n      dup3\n        /* \"#utility.yul\":4023:4032   */\n      dup7\n        /* \"#utility.yul\":4019:4041   */\n      add\n        /* \"#utility.yul\":4001:4051   */\n      tag_326\n      jump\t// in\n    tag_403:\n        /* \"#utility.yul\":3991:4051   */\n      swap2\n      pop\n        /* \"#utility.yul\":3946:4061   */\n      pop\n        /* \"#utility.yul\":3600:4068   */\n      swap3\n      pop\n      swap3\n      swap1\n      pop\n      jump\t// out\n        /* \"#utility.yul\":4074:4192   */\n    tag_327:\n        /* \"#utility.yul\":4161:4185   */\n      tag_405\n        /* \"#utility.yul\":4179:4184   */\n      dup2\n        /* \"#utility.yul\":4161:4185   */\n      tag_320\n      jump\t// in\n    tag_405:\n        /* \"#utility.yul\":4156:4159   */\n      dup3\n        /* \"#utility.yul\":4149:4186   */\n      mstore\n        /* \"#utility.yul\":4074:4192   */\n      pop\n      pop\n      jump\t// out\n        /* \"#utility.yul\":4198:4420   */\n    tag_46:\n        /* \"#utility.yul\":4291:4295   */\n      0x00\n        /* \"#utility.yul\":4329:4331   */\n      0x20\n        /* \"#utility.yul\":4318:4327   */\n      dup3\n        /* \"#utility.yul\":4314:4332   */\n      add\n        /* \"#utility.yul\":4306:4332   */\n      swap1\n      pop\n        /* \"#utility.yul\":4342:4413   */\n      tag_407\n        /* \"#utility.yul\":4410:4411   */\n      0x00\n        /* \"#utility.yul\":4399:4408   */\n      dup4\n        /* \"#utility.yul\":4395:4412   */\n      add\n        /* \"#utility.yul\":4386:4392   */\n      dup5\n        /* \"#utility.yul\":4342:4413   */\n      tag_327\n      jump\t// in\n    tag_407:\n        /* \"#utility.yul\":4198:4420   */\n      swap3\n      swap2\n      pop\n      pop\n      jump\t// out\n        /* \"#utility.yul\":4426:5045   */\n    tag_49:\n        /* \"#utility.yul\":4503:4509   */\n      0x00\n        /* \"#utility.yul\":4511:4517   */\n      0x00\n        /* \"#utility.yul\":4519:4525   */\n      0x00\n        /* \"#utility.yul\":4568:4570   */\n      0x60\n        /* \"#utility.yul\":4556:4565   */\n      dup5\n        /* \"#utility.yul\":4547:4554   */\n      dup7\n        /* \"#utility.yul\":4543:4566   */\n      sub\n        /* \"#utility.yul\":4539:4571   */\n      slt\n        /* \"#utility.yul\":4536:4655   */\n      iszero\n      tag_409\n      jumpi\n        /* \"#utility.yul\":4574:4653   */\n      tag_410\n      tag_314\n      jump\t// in\n    tag_410:\n        /* \"#utility.yul\":4536:4655   */\n    tag_409:\n        /* \"#utility.yul\":4694:4695   */\n      0x00\n        /* \"#utility.yul\":4719:4772   */\n      tag_411\n        /* \"#utility.yul\":4764:4771   */\n      dup7\n        /* \"#utility.yul\":4755:4761   */\n      dup3\n        /* \"#utility.yul\":4744:4753   */\n      dup8\n        /* \"#utility.yul\":4740:4762   */\n      add\n        /* \"#utility.yul\":4719:4772   */\n      tag_319\n      jump\t// in\n    tag_411:\n        /* \"#utility.yul\":4709:4772   */\n      swap4\n      pop\n        /* \"#utility.yul\":4665:4782   */\n      pop\n        /* \"#utility.yul\":4821:4823   */\n      0x20\n        /* \"#utility.yul\":4847:4900   */\n      tag_412\n        /* \"#utility.yul\":4892:4899   */\n      dup7\n        /* \"#utility.yul\":4883:4889   */\n      dup3\n        /* \"#utility.yul\":4872:4881   */\n      dup8\n        /* \"#utility.yul\":4868:4890   */\n      add\n        /* \"#utility.yul\":4847:4900   */\n      tag_319\n      jump\t// in\n    tag_412:\n        /* \"#utility.yul\":4837:4900   */\n      swap3\n      pop\n        /* \"#utility.yul\":4792:4910   */\n      pop\n        /* \"#utility.yul\":4949:4951   */\n      0x40\n        /* \"#utility.yul\":4975:5028   */\n      tag_413\n        /* \"#utility.yul\":5020:5027   */\n      dup7\n        /* \"#utility.yul\":5011:5017   */\n      dup3\n        /* \"#utility.yul\":5000:5009   */\n      dup8\n        /* \"#utility.yul\":4996:5018   */\n      add\n        /* \"#utility.yul\":4975:5028   */\n      tag_322\n      jump\t// in\n    tag_413:\n        /* \"#utility.yul\":4965:5028   */\n      swap2\n      pop\n        /* \"#utility.yul\":4920:5038   */\n      pop\n        /* \"#utility.yul\":4426:5045   */\n      swap3\n      pop\n      swap3\n      pop\n      swap3\n      jump\t// out\n        /* \"#utility.yul\":5051:5137   */\n    tag_328:\n        /* \"#utility.yul\":5086:5093   */\n      0x00\n        /* \"#utility.yul\":5126:5130   */\n      0xff\n        /* \"#utility.yul\":5119:5124   */\n      dup3\n        /* \"#utility.yul\":5115:5131   */\n      and\n        /* \"#utility.yul\":5104:5131   */\n      swap1\n      pop\n        /* \"#utility.yul\":5051:5137   */\n      swap2\n      swap1\n      pop\n      jump\t// out\n        /* \"#utility.yul\":5143:5255   */\n    tag_329:\n        /* \"#utility.yul\":5226:5248   */\n      tag_416\n        /* \"#utility.yul\":5242:5247   */\n      dup2\n        /* \"#utility.yul\":5226:5248   */\n      tag_328\n      jump\t// in\n    tag_416:\n        /* \"#utility.yul\":5221:5224   */\n      dup3\n        /* \"#utility.yul\":5214:5249   */\n      mstore\n        /* \"#utility.yul\":5143:5255   */\n      pop\n      pop\n      jump\t// out\n        /* \"#utility.yul\":5261:5475   */\n    tag_55:\n        /* \"#utility.yul\":5350:5354   */\n      0x00\n        /* \"#utility.yul\":5388:5390   */\n      0x20\n        /* \"#utility.yul\":5377:5386   */\n      dup3\n        /* \"#utility.yul\":5373:5391   */\n      add\n        /* \"#utility.yul\":5365:5391   */\n      swap1\n      pop\n        /* \"#utility.yul\":5401:5468   */\n      tag_418\n        /* \"#utility.yul\":5465:5466   */\n      0x00\n        /* \"#utility.yul\":5454:5463   */\n      dup4\n        /* \"#utility.yul\":5450:5467   */\n      add\n        /* \"#utility.yul\":5441:5447   */\n      dup5\n        /* \"#utility.yul\":5401:5468   */\n      tag_329\n      jump\t// in\n    tag_418:\n        /* \"#utility.yul\":5261:5475   */\n      swap3\n      swap2\n      pop\n      pop\n      jump\t// out\n        /* \"#utility.yul\":5481:5810   */\n    tag_63:\n        /* \"#utility.yul\":5540:5546   */\n      0x00\n        /* \"#utility.yul\":5589:5591   */\n      0x20\n        /* \"#utility.yul\":5577:5586   */\n      dup3\n        /* \"#utility.yul\":5568:5575   */\n      dup5\n        /* \"#utility.yul\":5564:5587   */\n      sub\n        /* \"#utility.yul\":5560:5592   */\n      slt\n        /* \"#utility.yul\":5557:5676   */\n      iszero\n      tag_420\n      jumpi\n        /* \"#utility.yul\":5595:5674   */\n      tag_421\n      tag_314\n      jump\t// in\n    tag_421:\n        /* \"#utility.yul\":5557:5676   */\n    tag_420:\n        /* \"#utility.yul\":5715:5716   */\n      0x00\n        /* \"#utility.yul\":5740:5793   */\n      tag_422\n        /* \"#utility.yul\":5785:5792   */\n      dup5\n        /* \"#utility.yul\":5776:5782   */\n      dup3\n        /* \"#utility.yul\":5765:5774   */\n      dup6\n        /* \"#utility.yul\":5761:5783   */\n      add\n        /* \"#utility.yul\":5740:5793   */\n      tag_322\n      jump\t// in\n    tag_422:\n        /* \"#utility.yul\":5730:5793   */\n      swap2\n      pop\n        /* \"#utility.yul\":5686:5803   */\n      pop\n        /* \"#utility.yul\":5481:5810   */\n      swap3\n      swap2\n      pop\n      pop\n      jump\t// out\n        /* \"#utility.yul\":5816:6145   */\n    tag_67:\n        /* \"#utility.yul\":5875:5881   */\n      0x00\n        /* \"#utility.yul\":5924:5926   */\n      0x20\n        /* \"#utility.yul\":5912:5921   */\n      dup3\n        /* \"#utility.yul\":5903:5910   */\n      dup5\n        /* \"#utility.yul\":5899:5922   */\n      sub\n        /* \"#utility.yul\":5895:5927   */\n      slt\n        /* \"#utility.yul\":5892:6011   */\n      iszero\n      tag_424\n      jumpi\n        /* \"#utility.yul\":5930:6009   */\n      tag_425\n      tag_314\n      jump\t// in\n    tag_425:\n        /* \"#utility.yul\":5892:6011   */\n    tag_424:\n        /* \"#utility.yul\":6050:6051   */\n      0x00\n        /* \"#utility.yul\":6075:6128   */\n      tag_426\n        /* \"#utility.yul\":6120:6127   */\n      dup5\n        /* \"#utility.yul\":6111:6117   */\n      dup3\n        /* \"#utility.yul\":6100:6109   */\n      dup6\n        /* \"#utility.yul\":6096:6118   */\n      add\n        /* \"#utility.yul\":6075:6128   */\n      tag_319\n      jump\t// in\n    tag_426:\n        /* \"#utility.yul\":6065:6128   */\n      swap2\n      pop\n        /* \"#utility.yul\":6021:6138   */\n      pop\n        /* \"#utility.yul\":5816:6145   */\n      swap3\n      swap2\n      pop\n      pop\n      jump\t// out\n        /* \"#utility.yul\":6151:6269   */\n    tag_330:\n        /* \"#utility.yul\":6238:6262   */\n      tag_428\n        /* \"#utility.yul\":6256:6261   */\n      dup2\n        /* \"#utility.yul\":6238:6262   */\n      tag_317\n      jump\t// in\n    tag_428:\n        /* \"#utility.yul\":6233:6236   */\n      dup3\n        /* \"#utility.yul\":6226:6263   */\n      mstore\n        /* \"#utility.yul\":6151:6269   */\n      pop\n      pop\n      jump\t// out\n        /* \"#utility.yul\":6275:7212   */\n    tag_85:\n        /* \"#utility.yul\":6538:6542   */\n      0x00\n        /* \"#utility.yul\":6576:6579   */\n      0xc0\n        /* \"#utility.yul\":6565:6574   */\n      dup3\n        /* \"#utility.yul\":6561:6580   */\n      add\n        /* \"#utility.yul\":6553:6580   */\n      swap1\n      pop\n        /* \"#utility.yul\":6626:6635   */\n      dup2\n        /* \"#utility.yul\":6620:6624   */\n      dup2\n        /* \"#utility.yul\":6616:6636   */\n      sub\n        /* \"#utility.yul\":6612:6613   */\n      0x00\n        /* \"#utility.yul\":6601:6610   */\n      dup4\n        /* \"#utility.yul\":6597:6614   */\n      add\n        /* \"#utility.yul\":6590:6637   */\n      mstore\n        /* \"#utility.yul\":6654:6732   */\n      tag_430\n        /* \"#utility.yul\":6727:6731   */\n      dup2\n        /* \"#utility.yul\":6718:6724   */\n      dup10\n        /* \"#utility.yul\":6654:6732   */\n      tag_312\n      jump\t// in\n    tag_430:\n        /* \"#utility.yul\":6646:6732   */\n      swap1\n      pop\n        /* \"#utility.yul\":6779:6788   */\n      dup2\n        /* \"#utility.yul\":6773:6777   */\n      dup2\n        /* \"#utility.yul\":6769:6789   */\n      sub\n        /* \"#utility.yul\":6764:6766   */\n      0x20\n        /* \"#utility.yul\":6753:6762   */\n      dup4\n        /* \"#utility.yul\":6749:6767   */\n      add\n        /* \"#utility.yul\":6742:6790   */\n      mstore\n        /* \"#utility.yul\":6807:6885   */\n      tag_431\n        /* \"#utility.yul\":6880:6884   */\n      dup2\n        /* \"#utility.yul\":6871:6877   */\n      dup9\n        /* \"#utility.yul\":6807:6885   */\n      tag_312\n      jump\t// in\n    tag_431:\n        /* \"#utility.yul\":6799:6885   */\n      swap1\n      pop\n        /* \"#utility.yul\":6895:6963   */\n      tag_432\n        /* \"#utility.yul\":6959:6961   */\n      0x40\n        /* \"#utility.yul\":6948:6957   */\n      dup4\n        /* \"#utility.yul\":6944:6962   */\n      add\n        /* \"#utility.yul\":6935:6941   */\n      dup8\n        /* \"#utility.yul\":6895:6963   */\n      tag_329\n      jump\t// in\n    tag_432:\n        /* \"#utility.yul\":6973:7045   */\n      tag_433\n        /* \"#utility.yul\":7041:7043   */\n      0x60\n        /* \"#utility.yul\":7030:7039   */\n      dup4\n        /* \"#utility.yul\":7026:7044   */\n      add\n        /* \"#utility.yul\":7017:7023   */\n      dup7\n        /* \"#utility.yul\":6973:7045   */\n      tag_327\n      jump\t// in\n    tag_433:\n        /* \"#utility.yul\":7055:7122   */\n      tag_434\n        /* \"#utility.yul\":7117:7120   */\n      0x80\n        /* \"#utility.yul\":7106:7115   */\n      dup4\n        /* \"#utility.yul\":7102:7121   */\n      add\n        /* \"#utility.yul\":7093:7099   */\n      dup6\n        /* \"#utility.yul\":7055:7122   */\n      tag_324\n      jump\t// in\n    tag_434:\n        /* \"#utility.yul\":7132:7205   */\n      tag_435\n        /* \"#utility.yul\":7200:7203   */\n      0xa0\n        /* \"#utility.yul\":7189:7198   */\n      dup4\n        /* \"#utility.yul\":7185:7204   */\n      add\n        /* \"#utility.yul\":7176:7182   */\n      dup5\n        /* \"#utility.yul\":7132:7205   */\n      tag_330\n      jump\t// in\n    tag_435:\n        /* \"#utility.yul\":6275:7212   */\n      swap8\n      swap7\n      pop\n      pop\n      pop\n      pop\n      pop\n      pop\n      pop\n      jump\t// out\n        /* \"#utility.yul\":7218:7440   */\n    tag_91:\n        /* \"#utility.yul\":7311:7315   */\n      0x00\n        /* \"#utility.yul\":7349:7351   */\n      0x20\n        /* \"#utility.yul\":7338:7347   */\n      dup3\n        /* \"#utility.yul\":7334:7352   */\n      add\n        /* \"#utility.yul\":7326:7352   */\n      swap1\n      pop\n        /* \"#utility.yul\":7362:7433   */\n      tag_437\n        /* \"#utility.yul\":7430:7431   */\n      0x00\n        /* \"#utility.yul\":7419:7428   */\n      dup4\n        /* \"#utility.yul\":7415:7432   */\n      add\n        /* \"#utility.yul\":7406:7412   */\n      dup5\n        /* \"#utility.yul\":7362:7433   */\n      tag_330\n      jump\t// in\n    tag_437:\n        /* \"#utility.yul\":7218:7440   */\n      swap3\n      swap2\n      pop\n      pop\n      jump\t// out\n        /* \"#utility.yul\":7446:7563   */\n    tag_331:\n        /* \"#utility.yul\":7555:7556   */\n      0x00\n        /* \"#utility.yul\":7552:7553   */\n      0x00\n        /* \"#utility.yul\":7545:7557   */\n      revert\n        /* \"#utility.yul\":7569:7749   */\n    tag_332:\n        /* \"#utility.yul\":7617:7694   */\n      0x4e487b7100000000000000000000000000000000000000000000000000000000\n        /* \"#utility.yul\":7614:7615   */\n      0x00\n        /* \"#utility.yul\":7607:7695   */\n      mstore\n        /* \"#utility.yul\":7714:7718   */\n      0x41\n        /* \"#utility.yul\":7711:7712   */\n      0x04\n        /* \"#utility.yul\":7704:7719   */\n      mstore\n        /* \"#utility.yul\":7738:7742   */\n      0x24\n        /* \"#utility.yul\":7735:7736   */\n      0x00\n        /* \"#utility.yul\":7728:7743   */\n      revert\n        /* \"#utility.yul\":7755:8036   */\n    tag_333:\n        /* \"#utility.yul\":7838:7865   */\n      tag_441\n        /* \"#utility.yul\":7860:7864   */\n      dup3\n        /* \"#utility.yul\":7838:7865   */\n      tag_311\n      jump\t// in\n    tag_441:\n        /* \"#utility.yul\":7830:7836   */\n      dup2\n        /* \"#utility.yul\":7826:7866   */\n      add\n        /* \"#utility.yul\":7968:7974   */\n      dup2\n        /* \"#utility.yul\":7956:7966   */\n      dup2\n        /* \"#utility.yul\":7953:7975   */\n      lt\n        /* \"#utility.yul\":7932:7950   */\n      0xffffffffffffffff\n        /* \"#utility.yul\":7920:7930   */\n      dup3\n        /* \"#utility.yul\":7917:7951   */\n      gt\n        /* \"#utility.yul\":7914:7976   */\n      or\n        /* \"#utility.yul\":7911:7999   */\n      iszero\n      tag_442\n      jumpi\n        /* \"#utility.yul\":7979:7997   */\n      tag_443\n      tag_332\n      jump\t// in\n    tag_443:\n        /* \"#utility.yul\":7911:7999   */\n    tag_442:\n        /* \"#utility.yul\":8019:8029   */\n      dup1\n        /* \"#utility.yul\":8015:8017   */\n      0x40\n        /* \"#utility.yul\":8008:8030   */\n      mstore\n        /* \"#utility.yul\":7798:8036   */\n      pop\n        /* \"#utility.yul\":7755:8036   */\n      pop\n      pop\n      jump\t// out\n        /* \"#utility.yul\":8042:8171   */\n    tag_334:\n        /* \"#utility.yul\":8076:8082   */\n      0x00\n        /* \"#utility.yul\":8103:8123   */\n      tag_445\n      tag_313\n      jump\t// in\n    tag_445:\n        /* \"#utility.yul\":8093:8123   */\n      swap1\n      pop\n        /* \"#utility.yul\":8132:8165   */\n      tag_446\n        /* \"#utility.yul\":8160:8164   */\n      dup3\n        /* \"#utility.yul\":8152:8158   */\n      dup3\n        /* \"#utility.yul\":8132:8165   */\n      tag_333\n      jump\t// in\n    tag_446:\n        /* \"#utility.yul\":8042:8171   */\n      swap2\n      swap1\n      pop\n      jump\t// out\n        /* \"#utility.yul\":8177:8488   */\n    tag_335:\n        /* \"#utility.yul\":8254:8258   */\n      0x00\n        /* \"#utility.yul\":8344:8362   */\n      0xffffffffffffffff\n        /* \"#utility.yul\":8336:8342   */\n      dup3\n        /* \"#utility.yul\":8333:8363   */\n      gt\n        /* \"#utility.yul\":8330:8386   */\n      iszero\n      tag_448\n      jumpi\n        /* \"#utility.yul\":8366:8384   */\n      tag_449\n      tag_332\n      jump\t// in\n    tag_449:\n        /* \"#utility.yul\":8330:8386   */\n    tag_448:\n        /* \"#utility.yul\":8416:8420   */\n      0x20\n        /* \"#utility.yul\":8408:8414   */\n      dup3\n        /* \"#utility.yul\":8404:8421   */\n      mul\n        /* \"#utility.yul\":8396:8421   */\n      swap1\n      pop\n        /* \"#utility.yul\":8476:8480   */\n      0x20\n        /* \"#utility.yul\":8470:8474   */\n      dup2\n        /* \"#utility.yul\":8466:8481   */\n      add\n        /* \"#utility.yul\":8458:8481   */\n      swap1\n      pop\n        /* \"#utility.yul\":8177:8488   */\n      swap2\n      swap1\n      pop\n      jump\t// out\n        /* \"#utility.yul\":8494:8611   */\n    tag_336:\n        /* \"#utility.yul\":8603:8604   */\n      0x00\n        /* \"#utility.yul\":8600:8601   */\n      0x00\n        /* \"#utility.yul\":8593:8605   */\n      revert\n        /* \"#utility.yul\":8634:9344   */\n    tag_337:\n        /* \"#utility.yul\":8730:8735   */\n      0x00\n        /* \"#utility.yul\":8755:8836   */\n      tag_452\n        /* \"#utility.yul\":8771:8835   */\n      tag_453\n        /* \"#utility.yul\":8828:8834   */\n      dup5\n        /* \"#utility.yul\":8771:8835   */\n      tag_335\n      jump\t// in\n    tag_453:\n        /* \"#utility.yul\":8755:8836   */\n      tag_334\n      jump\t// in\n    tag_452:\n        /* \"#utility.yul\":8746:8836   */\n      swap1\n      pop\n        /* \"#utility.yul\":8856:8861   */\n      dup1\n        /* \"#utility.yul\":8885:8891   */\n      dup4\n        /* \"#utility.yul\":8878:8883   */\n      dup3\n        /* \"#utility.yul\":8871:8892   */\n      mstore\n        /* \"#utility.yul\":8919:8923   */\n      0x20\n        /* \"#utility.yul\":8912:8917   */\n      dup3\n        /* \"#utility.yul\":8908:8924   */\n      add\n        /* \"#utility.yul\":8901:8924   */\n      swap1\n      pop\n        /* \"#utility.yul\":8972:8976   */\n      0x20\n        /* \"#utility.yul\":8964:8970   */\n      dup5\n        /* \"#utility.yul\":8960:8977   */\n      mul\n        /* \"#utility.yul\":8952:8958   */\n      dup4\n        /* \"#utility.yul\":8948:8978   */\n      add\n        /* \"#utility.yul\":9001:9004   */\n      dup6\n        /* \"#utility.yul\":8993:8999   */\n      dup2\n        /* \"#utility.yul\":8990:9005   */\n      gt\n        /* \"#utility.yul\":8987:9109   */\n      iszero\n      tag_454\n      jumpi\n        /* \"#utility.yul\":9020:9099   */\n      tag_455\n      tag_336\n      jump\t// in\n    tag_455:\n        /* \"#utility.yul\":8987:9109   */\n    tag_454:\n        /* \"#utility.yul\":9135:9141   */\n      dup4\n        /* \"#utility.yul\":9118:9338   */\n    tag_456:\n        /* \"#utility.yul\":9152:9158   */\n      dup2\n        /* \"#utility.yul\":9147:9150   */\n      dup2\n        /* \"#utility.yul\":9144:9159   */\n      lt\n        /* \"#utility.yul\":9118:9338   */\n      iszero\n      tag_458\n      jumpi\n        /* \"#utility.yul\":9227:9230   */\n      dup1\n        /* \"#utility.yul\":9256:9293   */\n      tag_459\n        /* \"#utility.yul\":9289:9292   */\n      dup9\n        /* \"#utility.yul\":9277:9287   */\n      dup3\n        /* \"#utility.yul\":9256:9293   */\n      tag_319\n      jump\t// in\n    tag_459:\n        /* \"#utility.yul\":9251:9254   */\n      dup5\n        /* \"#utility.yul\":9244:9294   */\n      mstore\n        /* \"#utility.yul\":9323:9327   */\n      0x20\n        /* \"#utility.yul\":9318:9321   */\n      dup5\n        /* \"#utility.yul\":9314:9328   */\n      add\n        /* \"#utility.yul\":9307:9328   */\n      swap4\n      pop\n        /* \"#utility.yul\":9194:9338   */\n      pop\n        /* \"#utility.yul\":9178:9182   */\n      0x20\n        /* \"#utility.yul\":9173:9176   */\n      dup2\n        /* \"#utility.yul\":9169:9183   */\n      add\n        /* \"#utility.yul\":9162:9183   */\n      swap1\n      pop\n        /* \"#utility.yul\":9118:9338   */\n      jump(tag_456)\n    tag_458:\n        /* \"#utility.yul\":9122:9143   */\n      pop\n        /* \"#utility.yul\":8736:9344   */\n      pop\n      pop\n        /* \"#utility.yul\":8634:9344   */\n      swap4\n      swap3\n      pop\n      pop\n      pop\n      jump\t// out\n        /* \"#utility.yul\":9367:9737   */\n    tag_338:\n        /* \"#utility.yul\":9438:9443   */\n      0x00\n        /* \"#utility.yul\":9487:9490   */\n      dup3\n        /* \"#utility.yul\":9480:9484   */\n      0x1f\n        /* \"#utility.yul\":9472:9478   */\n      dup4\n        /* \"#utility.yul\":9468:9485   */\n      add\n        /* \"#utility.yul\":9464:9491   */\n      slt\n        /* \"#utility.yul\":9454:9576   */\n      tag_461\n      jumpi\n        /* \"#utility.yul\":9495:9574   */\n      tag_462\n      tag_331\n      jump\t// in\n    tag_462:\n        /* \"#utility.yul\":9454:9576   */\n    tag_461:\n        /* \"#utility.yul\":9612:9618   */\n      dup2\n        /* \"#utility.yul\":9599:9619   */\n      calldataload\n        /* \"#utility.yul\":9637:9731   */\n      tag_463\n        /* \"#utility.yul\":9727:9730   */\n      dup5\n        /* \"#utility.yul\":9719:9725   */\n      dup3\n        /* \"#utility.yul\":9712:9716   */\n      0x20\n        /* \"#utility.yul\":9704:9710   */\n      dup7\n        /* \"#utility.yul\":9700:9717   */\n      add\n        /* \"#utility.yul\":9637:9731   */\n      tag_337\n      jump\t// in\n    tag_463:\n        /* \"#utility.yul\":9628:9731   */\n      swap2\n      pop\n        /* \"#utility.yul\":9444:9737   */\n      pop\n        /* \"#utility.yul\":9367:9737   */\n      swap3\n      swap2\n      pop\n      pop\n      jump\t// out\n        /* \"#utility.yul\":9743:10421   */\n    tag_101:\n        /* \"#utility.yul\":9833:9839   */\n      0x00\n        /* \"#utility.yul\":9841:9847   */\n      0x00\n        /* \"#utility.yul\":9890:9892   */\n      0x40\n        /* \"#utility.yul\":9878:9887   */\n      dup4\n        /* \"#utility.yul\":9869:9876   */\n      dup6\n        /* \"#utility.yul\":9865:9888   */\n      sub\n        /* \"#utility.yul\":9861:9893   */\n      slt\n        /* \"#utility.yul\":9858:9977   */\n      iszero\n      tag_465\n      jumpi\n        /* \"#utility.yul\":9896:9975   */\n      tag_466\n      tag_314\n      jump\t// in\n    tag_466:\n        /* \"#utility.yul\":9858:9977   */\n    tag_465:\n        /* \"#utility.yul\":10044:10045   */\n      0x00\n        /* \"#utility.yul\":10033:10042   */\n      dup4\n        /* \"#utility.yul\":10029:10046   */\n      add\n        /* \"#utility.yul\":10016:10047   */\n      calldataload\n        /* \"#utility.yul\":10074:10092   */\n      0xffffffffffffffff\n        /* \"#utility.yul\":10066:10072   */\n      dup2\n        /* \"#utility.yul\":10063:10093   */\n      gt\n        /* \"#utility.yul\":10060:10177   */\n      iszero\n      tag_467\n      jumpi\n        /* \"#utility.yul\":10096:10175   */\n      tag_468\n      tag_315\n      jump\t// in\n    tag_468:\n        /* \"#utility.yul\":10060:10177   */\n    tag_467:\n        /* \"#utility.yul\":10201:10279   */\n      tag_469\n        /* \"#utility.yul\":10271:10278   */\n      dup6\n        /* \"#utility.yul\":10262:10268   */\n      dup3\n        /* \"#utility.yul\":10251:10260   */\n      dup7\n        /* \"#utility.yul\":10247:10269   */\n      add\n        /* \"#utility.yul\":10201:10279   */\n      tag_338\n      jump\t// in\n    tag_469:\n        /* \"#utility.yul\":10191:10279   */\n      swap3\n      pop\n        /* \"#utility.yul\":9987:10289   */\n      pop\n        /* \"#utility.yul\":10328:10330   */\n      0x20\n        /* \"#utility.yul\":10354:10404   */\n      tag_470\n        /* \"#utility.yul\":10396:10403   */\n      dup6\n        /* \"#utility.yul\":10387:10393   */\n      dup3\n        /* \"#utility.yul\":10376:10385   */\n      dup7\n        /* \"#utility.yul\":10372:10394   */\n      add\n        /* \"#utility.yul\":10354:10404   */\n      tag_326\n      jump\t// in\n    tag_470:\n        /* \"#utility.yul\":10344:10404   */\n      swap2\n      pop\n        /* \"#utility.yul\":10299:10414   */\n      pop\n        /* \"#utility.yul\":9743:10421   */\n      swap3\n      pop\n      swap3\n      swap1\n      pop\n      jump\t// out\n        /* \"#utility.yul\":10427:10901   */\n    tag_105:\n        /* \"#utility.yul\":10495:10501   */\n      0x00\n        /* \"#utility.yul\":10503:10509   */\n      0x00\n        /* \"#utility.yul\":10552:10554   */\n      0x40\n        /* \"#utility.yul\":10540:10549   */\n      dup4\n        /* \"#utility.yul\":10531:10538   */\n      dup6\n        /* \"#utility.yul\":10527:10550   */\n      sub\n        /* \"#utility.yul\":10523:10555   */\n      slt\n        /* \"#utility.yul\":10520:10639   */\n      iszero\n      tag_472\n      jumpi\n        /* \"#utility.yul\":10558:10637   */\n      tag_473\n      tag_314\n      jump\t// in\n    tag_473:\n        /* \"#utility.yul\":10520:10639   */\n    tag_472:\n        /* \"#utility.yul\":10678:10679   */\n      0x00\n        /* \"#utility.yul\":10703:10756   */\n      tag_474\n        /* \"#utility.yul\":10748:10755   */\n      dup6\n        /* \"#utility.yul\":10739:10745   */\n      dup3\n        /* \"#utility.yul\":10728:10737   */\n      dup7\n        /* \"#utility.yul\":10724:10746   */\n      add\n        /* \"#utility.yul\":10703:10756   */\n      tag_319\n      jump\t// in\n    tag_474:\n        /* \"#utility.yul\":10693:10756   */\n      swap3\n      pop\n        /* \"#utility.yul\":10649:10766   */\n      pop\n        /* \"#utility.yul\":10805:10807   */\n      0x20\n        /* \"#utility.yul\":10831:10884   */\n      tag_475\n        /* \"#utility.yul\":10876:10883   */\n      dup6\n        /* \"#utility.yul\":10867:10873   */\n      dup3\n        /* \"#utility.yul\":10856:10865   */\n      dup7\n        /* \"#utility.yul\":10852:10874   */\n      add\n        /* \"#utility.yul\":10831:10884   */\n      tag_319\n      jump\t// in\n    tag_475:\n        /* \"#utility.yul\":10821:10884   */\n      swap2\n      pop\n        /* \"#utility.yul\":10776:10894   */\n      pop\n        /* \"#utility.yul\":10427:10901   */\n      swap3\n      pop\n      swap3\n      swap1\n      pop\n      jump\t// out\n        /* \"#utility.yul\":10907:11087   */\n    tag_339:\n        /* \"#utility.yul\":10955:11032   */\n      0x4e487b7100000000000000000000000000000000000000000000000000000000\n        /* \"#utility.yul\":10952:10953   */\n      0x00\n        /* \"#utility.yul\":10945:11033   */\n      mstore\n        /* \"#utility.yul\":11052:11056   */\n      0x22\n        /* \"#utility.yul\":11049:11050   */\n      0x04\n        /* \"#utility.yul\":11042:11057   */\n      mstore\n        /* \"#utility.yul\":11076:11080   */\n      0x24\n        /* \"#utility.yul\":11073:11074   */\n      0x00\n        /* \"#utility.yul\":11066:11081   */\n      revert\n        /* \"#utility.yul\":11093:11413   */\n    tag_116:\n        /* \"#utility.yul\":11137:11143   */\n      0x00\n        /* \"#utility.yul\":11174:11175   */\n      0x02\n        /* \"#utility.yul\":11168:11172   */\n      dup3\n        /* \"#utility.yul\":11164:11176   */\n      div\n        /* \"#utility.yul\":11154:11176   */\n      swap1\n      pop\n        /* \"#utility.yul\":11221:11222   */\n      0x01\n        /* \"#utility.yul\":11215:11219   */\n      dup3\n        /* \"#utility.yul\":11211:11223   */\n      and\n        /* \"#utility.yul\":11242:11260   */\n      dup1\n        /* \"#utility.yul\":11232:11313   */\n      tag_478\n      jumpi\n        /* \"#utility.yul\":11298:11302   */\n      0x7f\n        /* \"#utility.yul\":11290:11296   */\n      dup3\n        /* \"#utility.yul\":11286:11303   */\n      and\n        /* \"#utility.yul\":11276:11303   */\n      swap2\n      pop\n        /* \"#utility.yul\":11232:11313   */\n    tag_478:\n        /* \"#utility.yul\":11360:11362   */\n      0x20\n        /* \"#utility.yul\":11352:11358   */\n      dup3\n        /* \"#utility.yul\":11349:11363   */\n      lt\n        /* \"#utility.yul\":11329:11347   */\n      dup2\n        /* \"#utility.yul\":11326:11364   */\n      sub\n        /* \"#utility.yul\":11323:11407   */\n      tag_479\n      jumpi\n        /* \"#utility.yul\":11379:11397   */\n      tag_480\n      tag_339\n      jump\t// in\n    tag_480:\n        /* \"#utility.yul\":11323:11407   */\n    tag_479:\n        /* \"#utility.yul\":11144:11413   */\n      pop\n        /* \"#utility.yul\":11093:11413   */\n      swap2\n      swap1\n      pop\n      jump\t// out\n        /* \"#utility.yul\":11419:11588   */\n    tag_340:\n        /* \"#utility.yul\":11559:11580   */\n      0x4164647265737320626c61636b6c697374656400000000000000000000000000\n        /* \"#utility.yul\":11555:11556   */\n      0x00\n        /* \"#utility.yul\":11547:11553   */\n      dup3\n        /* \"#utility.yul\":11543:11557   */\n      add\n        /* \"#utility.yul\":11536:11581   */\n      mstore\n        /* \"#utility.yul\":11419:11588   */\n      pop\n      jump\t// out\n        /* \"#utility.yul\":11594:11960   */\n    tag_341:\n        /* \"#utility.yul\":11736:11739   */\n      0x00\n        /* \"#utility.yul\":11757:11824   */\n      tag_483\n        /* \"#utility.yul\":11821:11823   */\n      0x13\n        /* \"#utility.yul\":11816:11819   */\n      dup4\n        /* \"#utility.yul\":11757:11824   */\n      tag_309\n      jump\t// in\n    tag_483:\n        /* \"#utility.yul\":11750:11824   */\n      swap2\n      pop\n        /* \"#utility.yul\":11833:11926   */\n      tag_484\n        /* \"#utility.yul\":11922:11925   */\n      dup3\n        /* \"#utility.yul\":11833:11926   */\n      tag_340\n      jump\t// in\n    tag_484:\n        /* \"#utility.yul\":11951:11953   */\n      0x20\n        /* \"#utility.yul\":11946:11949   */\n      dup3\n        /* \"#utility.yul\":11942:11954   */\n      add\n        /* \"#utility.yul\":11935:11954   */\n      swap1\n      pop\n        /* \"#utility.yul\":11594:11960   */\n      swap2\n      swap1\n      pop\n      jump\t// out\n        /* \"#utility.yul\":11966:12385   */\n    tag_128:\n        /* \"#utility.yul\":12132:12136   */\n      0x00\n        /* \"#utility.yul\":12170:12172   */\n      0x20\n        /* \"#utility.yul\":12159:12168   */\n      dup3\n        /* \"#utility.yul\":12155:12173   */\n      add\n        /* \"#utility.yul\":12147:12173   */\n      swap1\n      pop\n        /* \"#utility.yul\":12219:12228   */\n      dup2\n        /* \"#utility.yul\":12213:12217   */\n      dup2\n        /* \"#utility.yul\":12209:12229   */\n      sub\n        /* \"#utility.yul\":12205:12206   */\n      0x00\n        /* \"#utility.yul\":12194:12203   */\n      dup4\n        /* \"#utility.yul\":12190:12207   */\n      add\n        /* \"#utility.yul\":12183:12230   */\n      mstore\n        /* \"#utility.yul\":12247:12378   */\n      tag_486\n        /* \"#utility.yul\":12373:12377   */\n      dup2\n        /* \"#utility.yul\":12247:12378   */\n      tag_341\n      jump\t// in\n    tag_486:\n        /* \"#utility.yul\":12239:12378   */\n      swap1\n      pop\n        /* \"#utility.yul\":11966:12385   */\n      swap2\n      swap1\n      pop\n      jump\t// out\n        /* \"#utility.yul\":12391:12556   */\n    tag_342:\n        /* \"#utility.yul\":12531:12548   */\n      0x496e76616c696420616464726573730000000000000000000000000000000000\n        /* \"#utility.yul\":12527:12528   */\n      0x00\n        /* \"#utility.yul\":12519:12525   */\n      dup3\n        /* \"#utility.yul\":12515:12529   */\n      add\n        /* \"#utility.yul\":12508:12549   */\n      mstore\n        /* \"#utility.yul\":12391:12556   */\n      pop\n      jump\t// out\n        /* \"#utility.yul\":12562:12928   */\n    tag_343:\n        /* \"#utility.yul\":12704:12707   */\n      0x00\n        /* \"#utility.yul\":12725:12792   */\n      tag_489\n        /* \"#utility.yul\":12789:12791   */\n      0x0f\n        /* \"#utility.yul\":12784:12787   */\n      dup4\n        /* \"#utility.yul\":12725:12792   */\n      tag_309\n      jump\t// in\n    tag_489:\n        /* \"#utility.yul\":12718:12792   */\n      swap2\n      pop\n        /* \"#utility.yul\":12801:12894   */\n      tag_490\n        /* \"#utility.yul\":12890:12893   */\n      dup3\n        /* \"#utility.yul\":12801:12894   */\n      tag_342\n      jump\t// in\n    tag_490:\n        /* \"#utility.yul\":12919:12921   */\n      0x20\n        /* \"#utility.yul\":12914:12917   */\n      dup3\n        /* \"#utility.yul\":12910:12922   */\n      add\n        /* \"#utility.yul\":12903:12922   */\n      swap1\n      pop\n        /* \"#utility.yul\":12562:12928   */\n      swap2\n      swap1\n      pop\n      jump\t// out\n        /* \"#utility.yul\":12934:13353   */\n    tag_143:\n        /* \"#utility.yul\":13100:13104   */\n      0x00\n        /* \"#utility.yul\":13138:13140   */\n      0x20\n        /* \"#utility.yul\":13127:13136   */\n      dup3\n        /* \"#utility.yul\":13123:13141   */\n      add\n        /* \"#utility.yul\":13115:13141   */\n      swap1\n      pop\n        /* \"#utility.yul\":13187:13196   */\n      dup2\n        /* \"#utility.yul\":13181:13185   */\n      dup2\n        /* \"#utility.yul\":13177:13197   */\n      sub\n        /* \"#utility.yul\":13173:13174   */\n      0x00\n        /* \"#utility.yul\":13162:13171   */\n      dup4\n        /* \"#utility.yul\":13158:13175   */\n      add\n        /* \"#utility.yul\":13151:13198   */\n      mstore\n        /* \"#utility.yul\":13215:13346   */\n      tag_492\n        /* \"#utility.yul\":13341:13345   */\n      dup2\n        /* \"#utility.yul\":13215:13346   */\n      tag_343\n      jump\t// in\n    tag_492:\n        /* \"#utility.yul\":13207:13346   */\n      swap1\n      pop\n        /* \"#utility.yul\":12934:13353   */\n      swap2\n      swap1\n      pop\n      jump\t// out\n        /* \"#utility.yul\":13359:13529   */\n    tag_344:\n        /* \"#utility.yul\":13499:13521   */\n      0x496e73756666696369656e742062616c616e6365000000000000000000000000\n        /* \"#utility.yul\":13495:13496   */\n      0x00\n        /* \"#utility.yul\":13487:13493   */\n      dup3\n        /* \"#utility.yul\":13483:13497   */\n      add\n        /* \"#utility.yul\":13476:13522   */\n      mstore\n        /* \"#utility.yul\":13359:13529   */\n      pop\n      jump\t// out\n        /* \"#utility.yul\":13535:13901   */\n    tag_345:\n        /* \"#utility.yul\":13677:13680   */\n      0x00\n        /* \"#utility.yul\":13698:13765   */\n      tag_495\n        /* \"#utility.yul\":13762:13764   */\n      0x14\n        /* \"#utility.yul\":13757:13760   */\n      dup4\n        /* \"#utility.yul\":13698:13765   */\n      tag_309\n      jump\t// in\n    tag_495:\n        /* \"#utility.yul\":13691:13765   */\n      swap2\n      pop\n        /* \"#utility.yul\":13774:13867   */\n      tag_496\n        /* \"#utility.yul\":13863:13866   */\n      dup3\n        /* \"#utility.yul\":13774:13867   */\n      tag_344\n      jump\t// in\n    tag_496:\n        /* \"#utility.yul\":13892:13894   */\n      0x20\n        /* \"#utility.yul\":13887:13890   */\n      dup3\n        /* \"#utility.yul\":13883:13895   */\n      add\n        /* \"#utility.yul\":13876:13895   */\n      swap1\n      pop\n        /* \"#utility.yul\":13535:13901   */\n      swap2\n      swap1\n      pop\n      jump\t// out\n        /* \"#utility.yul\":13907:14326   */\n    tag_150:\n        /* \"#utility.yul\":14073:14077   */\n      0x00\n        /* \"#utility.yul\":14111:14113   */\n      0x20\n        /* \"#utility.yul\":14100:14109   */\n      dup3\n        /* \"#utility.yul\":14096:14114   */\n      add\n        /* \"#utility.yul\":14088:14114   */\n      swap1\n      pop\n        /* \"#utility.yul\":14160:14169   */\n      dup2\n        /* \"#utility.yul\":14154:14158   */\n      dup2\n        /* \"#utility.yul\":14150:14170   */\n      sub\n        /* \"#utility.yul\":14146:14147   */\n      0x00\n        /* \"#utility.yul\":14135:14144   */\n      dup4\n        /* \"#utility.yul\":14131:14148   */\n      add\n        /* \"#utility.yul\":14124:14171   */\n      mstore\n        /* \"#utility.yul\":14188:14319   */\n      tag_498\n        /* \"#utility.yul\":14314:14318   */\n      dup2\n        /* \"#utility.yul\":14188:14319   */\n      tag_345\n      jump\t// in\n    tag_498:\n        /* \"#utility.yul\":14180:14319   */\n      swap1\n      pop\n        /* \"#utility.yul\":13907:14326   */\n      swap2\n      swap1\n      pop\n      jump\t// out\n        /* \"#utility.yul\":14332:14499   */\n    tag_346:\n        /* \"#utility.yul\":14472:14491   */\n      0x416c6c6f77616e636520746f6f206c6f77000000000000000000000000000000\n        /* \"#utility.yul\":14468:14469   */\n      0x00\n        /* \"#utility.yul\":14460:14466   */\n      dup3\n        /* \"#utility.yul\":14456:14470   */\n      add\n        /* \"#utility.yul\":14449:14492   */\n      mstore\n        /* \"#utility.yul\":14332:14499   */\n      pop\n      jump\t// out\n        /* \"#utility.yul\":14505:14871   */\n    tag_347:\n        /* \"#utility.yul\":14647:14650   */\n      0x00\n        /* \"#utility.yul\":14668:14735   */\n      tag_501\n        /* \"#utility.yul\":14732:14734   */\n      0x11\n        /* \"#utility.yul\":14727:14730   */\n      dup4\n        /* \"#utility.yul\":14668:14735   */\n      tag_309\n      jump\t// in\n    tag_501:\n        /* \"#utility.yul\":14661:14735   */\n      swap2\n      pop\n        /* \"#utility.yul\":14744:14837   */\n      tag_502\n        /* \"#utility.yul\":14833:14836   */\n      dup3\n        /* \"#utility.yul\":14744:14837   */\n      tag_346\n      jump\t// in\n    tag_502:\n        /* \"#utility.yul\":14862:14864   */\n      0x20\n        /* \"#utility.yul\":14857:14860   */\n      dup3\n        /* \"#utility.yul\":14853:14865   */\n      add\n        /* \"#utility.yul\":14846:14865   */\n      swap1\n      pop\n        /* \"#utility.yul\":14505:14871   */\n      swap2\n      swap1\n      pop\n      jump\t// out\n        /* \"#utility.yul\":14877:15296   */\n    tag_153:\n        /* \"#utility.yul\":15043:15047   */\n      0x00\n        /* \"#utility.yul\":15081:15083   */\n      0x20\n        /* \"#utility.yul\":15070:15079   */\n      dup3\n        /* \"#utility.yul\":15066:15084   */\n      add\n        /* \"#utility.yul\":15058:15084   */\n      swap1\n      pop\n        /* \"#utility.yul\":15130:15139   */\n      dup2\n        /* \"#utility.yul\":15124:15128   */\n      dup2\n        /* \"#utility.yul\":15120:15140   */\n      sub\n        /* \"#utility.yul\":15116:15117   */\n      0x00\n        /* \"#utility.yul\":15105:15114   */\n      dup4\n        /* \"#utility.yul\":15101:15118   */\n      add\n        /* \"#utility.yul\":15094:15141   */\n      mstore\n        /* \"#utility.yul\":15158:15289   */\n      tag_504\n        /* \"#utility.yul\":15284:15288   */\n      dup2\n        /* \"#utility.yul\":15158:15289   */\n      tag_347\n      jump\t// in\n    tag_504:\n        /* \"#utility.yul\":15150:15289   */\n      swap1\n      pop\n        /* \"#utility.yul\":14877:15296   */\n      swap2\n      swap1\n      pop\n      jump\t// out\n        /* \"#utility.yul\":15302:15482   */\n    tag_348:\n        /* \"#utility.yul\":15350:15427   */\n      0x4e487b7100000000000000000000000000000000000000000000000000000000\n        /* \"#utility.yul\":15347:15348   */\n      0x00\n        /* \"#utility.yul\":15340:15428   */\n      mstore\n        /* \"#utility.yul\":15447:15451   */\n      0x11\n        /* \"#utility.yul\":15444:15445   */\n      0x04\n        /* \"#utility.yul\":15437:15452   */\n      mstore\n        /* \"#utility.yul\":15471:15475   */\n      0x24\n        /* \"#utility.yul\":15468:15469   */\n      0x00\n        /* \"#utility.yul\":15461:15476   */\n      revert\n        /* \"#utility.yul\":15488:15682   */\n    tag_155:\n        /* \"#utility.yul\":15528:15532   */\n      0x00\n        /* \"#utility.yul\":15548:15568   */\n      tag_507\n        /* \"#utility.yul\":15566:15567   */\n      dup3\n        /* \"#utility.yul\":15548:15568   */\n      tag_320\n      jump\t// in\n    tag_507:\n        /* \"#utility.yul\":15543:15568   */\n      swap2\n      pop\n        /* \"#utility.yul\":15582:15602   */\n      tag_508\n        /* \"#utility.yul\":15600:15601   */\n      dup4\n        /* \"#utility.yul\":15582:15602   */\n      tag_320\n      jump\t// in\n    tag_508:\n        /* \"#utility.yul\":15577:15602   */\n      swap3\n      pop\n        /* \"#utility.yul\":15626:15627   */\n      dup3\n        /* \"#utility.yul\":15623:15624   */\n      dup3\n        /* \"#utility.yul\":15619:15628   */\n      sub\n        /* \"#utility.yul\":15611:15628   */\n      swap1\n      pop\n        /* \"#utility.yul\":15650:15651   */\n      dup2\n        /* \"#utility.yul\":15644:15648   */\n      dup2\n        /* \"#utility.yul\":15641:15652   */\n      gt\n        /* \"#utility.yul\":15638:15675   */\n      iszero\n      tag_509\n      jumpi\n        /* \"#utility.yul\":15655:15673   */\n      tag_510\n      tag_348\n      jump\t// in\n    tag_510:\n        /* \"#utility.yul\":15638:15675   */\n    tag_509:\n        /* \"#utility.yul\":15488:15682   */\n      swap3\n      swap2\n      pop\n      pop\n      jump\t// out\n        /* \"#utility.yul\":15688:15879   */\n    tag_173:\n        /* \"#utility.yul\":15728:15731   */\n      0x00\n        /* \"#utility.yul\":15747:15767   */\n      tag_512\n        /* \"#utility.yul\":15765:15766   */\n      dup3\n        /* \"#utility.yul\":15747:15767   */\n      tag_320\n      jump\t// in\n    tag_512:\n        /* \"#utility.yul\":15742:15767   */\n      swap2\n      pop\n        /* \"#utility.yul\":15781:15801   */\n      tag_513\n        /* \"#utility.yul\":15799:15800   */\n      dup4\n        /* \"#utility.yul\":15781:15801   */\n      tag_320\n      jump\t// in\n    tag_513:\n        /* \"#utility.yul\":15776:15801   */\n      swap3\n      pop\n        /* \"#utility.yul\":15824:15825   */\n      dup3\n        /* \"#utility.yul\":15821:15822   */\n      dup3\n        /* \"#utility.yul\":15817:15826   */\n      add\n        /* \"#utility.yul\":15810:15826   */\n      swap1\n      pop\n        /* \"#utility.yul\":15845:15848   */\n      dup1\n        /* \"#utility.yul\":15842:15843   */\n      dup3\n        /* \"#utility.yul\":15839:15849   */\n      gt\n        /* \"#utility.yul\":15836:15872   */\n      iszero\n      tag_514\n      jumpi\n        /* \"#utility.yul\":15852:15870   */\n      tag_515\n      tag_348\n      jump\t// in\n    tag_515:\n        /* \"#utility.yul\":15836:15872   */\n    tag_514:\n        /* \"#utility.yul\":15688:15879   */\n      swap3\n      swap2\n      pop\n      pop\n      jump\t// out\n        /* \"#utility.yul\":15885:16065   */\n    tag_252:\n        /* \"#utility.yul\":15933:16010   */\n      0x4e487b7100000000000000000000000000000000000000000000000000000000\n        /* \"#utility.yul\":15930:15931   */\n      0x00\n        /* \"#utility.yul\":15923:16011   */\n      mstore\n        /* \"#utility.yul\":16030:16034   */\n      0x32\n        /* \"#utility.yul\":16027:16028   */\n      0x04\n        /* \"#utility.yul\":16020:16035   */\n      mstore\n        /* \"#utility.yul\":16054:16058   */\n      0x24\n        /* \"#utility.yul\":16051:16052   */\n      0x00\n        /* \"#utility.yul\":16044:16059   */\n      revert\n        /* \"#utility.yul\":16071:16237   */\n    tag_349:\n        /* \"#utility.yul\":16211:16229   */\n      0x5061757361626c653a2070617573656400000000000000000000000000000000\n        /* \"#utility.yul\":16207:16208   */\n      0x00\n        /* \"#utility.yul\":16199:16205   */\n      dup3\n        /* \"#utility.yul\":16195:16209   */\n      add\n        /* \"#utility.yul\":16188:16230   */\n      mstore\n        /* \"#utility.yul\":16071:16237   */\n      pop\n      jump\t// out\n        /* \"#utility.yul\":16243:16609   */\n    tag_350:\n        /* \"#utility.yul\":16385:16388   */\n      0x00\n        /* \"#utility.yul\":16406:16473   */\n      tag_519\n        /* \"#utility.yul\":16470:16472   */\n      0x10\n        /* \"#utility.yul\":16465:16468   */\n      dup4\n        /* \"#utility.yul\":16406:16473   */\n      tag_309\n      jump\t// in\n    tag_519:\n        /* \"#utility.yul\":16399:16473   */\n      swap2\n      pop\n        /* \"#utility.yul\":16482:16575   */\n      tag_520\n        /* \"#utility.yul\":16571:16574   */\n      dup3\n        /* \"#utility.yul\":16482:16575   */\n      tag_349\n      jump\t// in\n    tag_520:\n        /* \"#utility.yul\":16600:16602   */\n      0x20\n        /* \"#utility.yul\":16595:16598   */\n      dup3\n        /* \"#utility.yul\":16591:16603   */\n      add\n        /* \"#utility.yul\":16584:16603   */\n      swap1\n      pop\n        /* \"#utility.yul\":16243:16609   */\n      swap2\n      swap1\n      pop\n      jump\t// out\n        /* \"#utility.yul\":16615:17034   */\n    tag_266:\n        /* \"#utility.yul\":16781:16785   */\n      0x00\n        /* \"#utility.yul\":16819:16821   */\n      0x20\n        /* \"#utility.yul\":16808:16817   */\n      dup3\n        /* \"#utility.yul\":16804:16822   */\n      add\n        /* \"#utility.yul\":16796:16822   */\n      swap1\n      pop\n        /* \"#utility.yul\":16868:16877   */\n      dup2\n        /* \"#utility.yul\":16862:16866   */\n      dup2\n        /* \"#utility.yul\":16858:16878   */\n      sub\n        /* \"#utility.yul\":16854:16855   */\n      0x00\n        /* \"#utility.yul\":16843:16852   */\n      dup4\n        /* \"#utility.yul\":16839:16856   */\n      add\n        /* \"#utility.yul\":16832:16879   */\n      mstore\n        /* \"#utility.yul\":16896:17027   */\n      tag_522\n        /* \"#utility.yul\":17022:17026   */\n      dup2\n        /* \"#utility.yul\":16896:17027   */\n      tag_350\n      jump\t// in\n    tag_522:\n        /* \"#utility.yul\":16888:17027   */\n      swap1\n      pop\n        /* \"#utility.yul\":16615:17034   */\n      swap2\n      swap1\n      pop\n      jump\t// out\n        /* \"#utility.yul\":17040:17221   */\n    tag_351:\n        /* \"#utility.yul\":17180:17213   */\n      0x5265656e7472616e637947756172643a207265656e7472616e742063616c6c00\n        /* \"#utility.yul\":17176:17177   */\n      0x00\n        /* \"#utility.yul\":17168:17174   */\n      dup3\n        /* \"#utility.yul\":17164:17178   */\n      add\n        /* \"#utility.yul\":17157:17214   */\n      mstore\n        /* \"#utility.yul\":17040:17221   */\n      pop\n      jump\t// out\n        /* \"#utility.yul\":17227:17593   */\n    tag_352:\n        /* \"#utility.yul\":17369:17372   */\n      0x00\n        /* \"#utility.yul\":17390:17457   */\n      tag_525\n        /* \"#utility.yul\":17454:17456   */\n      0x1f\n        /* \"#utility.yul\":17449:17452   */\n      dup4\n        /* \"#utility.yul\":17390:17457   */\n      tag_309\n      jump\t// in\n    tag_525:\n        /* \"#utility.yul\":17383:17457   */\n      swap2\n      pop\n        /* \"#utility.yul\":17466:17559   */\n      tag_526\n        /* \"#utility.yul\":17555:17558   */\n      dup3\n        /* \"#utility.yul\":17466:17559   */\n      tag_351\n      jump\t// in\n    tag_526:\n        /* \"#utility.yul\":17584:17586   */\n      0x20\n        /* \"#utility.yul\":17579:17582   */\n      dup3\n        /* \"#utility.yul\":17575:17587   */\n      add\n        /* \"#utility.yul\":17568:17587   */\n      swap1\n      pop\n        /* \"#utility.yul\":17227:17593   */\n      swap2\n      swap1\n      pop\n      jump\t// out\n        /* \"#utility.yul\":17599:18018   */\n    tag_277:\n        /* \"#utility.yul\":17765:17769   */\n      0x00\n        /* \"#utility.yul\":17803:17805   */\n      0x20\n        /* \"#utility.yul\":17792:17801   */\n      dup3\n        /* \"#utility.yul\":17788:17806   */\n      add\n        /* \"#utility.yul\":17780:17806   */\n      swap1\n      pop\n        /* \"#utility.yul\":17852:17861   */\n      dup2\n        /* \"#utility.yul\":17846:17850   */\n      dup2\n        /* \"#utility.yul\":17842:17862   */\n      sub\n        /* \"#utility.yul\":17838:17839   */\n      0x00\n        /* \"#utility.yul\":17827:17836   */\n      dup4\n        /* \"#utility.yul\":17823:17840   */\n      add\n        /* \"#utility.yul\":17816:17863   */\n      mstore\n        /* \"#utility.yul\":17880:18011   */\n      tag_528\n        /* \"#utility.yul\":18006:18010   */\n      dup2\n        /* \"#utility.yul\":17880:18011   */\n      tag_352\n      jump\t// in\n    tag_528:\n        /* \"#utility.yul\":17872:18011   */\n      swap1\n      pop\n        /* \"#utility.yul\":17599:18018   */\n      swap2\n      swap1\n      pop\n      jump\t// out\n        /* \"#utility.yul\":18024:18194   */\n    tag_353:\n        /* \"#utility.yul\":18164:18186   */\n      0x5061757361626c653a206e6f7420706175736564000000000000000000000000\n        /* \"#utility.yul\":18160:18161   */\n      0x00\n        /* \"#utility.yul\":18152:18158   */\n      dup3\n        /* \"#utility.yul\":18148:18162   */\n      add\n        /* \"#utility.yul\":18141:18187   */\n      mstore\n        /* \"#utility.yul\":18024:18194   */\n      pop\n      jump\t// out\n        /* \"#utility.yul\":18200:18566   */\n    tag_354:\n        /* \"#utility.yul\":18342:18345   */\n      0x00\n        /* \"#utility.yul\":18363:18430   */\n      tag_531\n        /* \"#utility.yul\":18427:18429   */\n      0x14\n        /* \"#utility.yul\":18422:18425   */\n      dup4\n        /* \"#utility.yul\":18363:18430   */\n      tag_309\n      jump\t// in\n    tag_531:\n        /* \"#utility.yul\":18356:18430   */\n      swap2\n      pop\n        /* \"#utility.yul\":18439:18532   */\n      tag_532\n        /* \"#utility.yul\":18528:18531   */\n      dup3\n        /* \"#utility.yul\":18439:18532   */\n      tag_353\n      jump\t// in\n    tag_532:\n        /* \"#utility.yul\":18557:18559   */\n      0x20\n        /* \"#utility.yul\":18552:18555   */\n      dup3\n        /* \"#utility.yul\":18548:18560   */\n      add\n        /* \"#utility.yul\":18541:18560   */\n      swap1\n      pop\n        /* \"#utility.yul\":18200:18566   */\n      swap2\n      swap1\n      pop\n      jump\t// out\n        /* \"#utility.yul\":18572:18991   */\n    tag_307:\n        /* \"#utility.yul\":18738:18742   */\n      0x00\n        /* \"#utility.yul\":18776:18778   */\n      0x20\n        /* \"#utility.yul\":18765:18774   */\n      dup3\n        /* \"#utility.yul\":18761:18779   */\n      add\n        /* \"#utility.yul\":18753:18779   */\n      swap1\n      pop\n        /* \"#utility.yul\":18825:18834   */\n      dup2\n        /* \"#utility.yul\":18819:18823   */\n      dup2\n        /* \"#utility.yul\":18815:18835   */\n      sub\n        /* \"#utility.yul\":18811:18812   */\n      0x00\n        /* \"#utility.yul\":18800:18809   */\n      dup4\n        /* \"#utility.yul\":18796:18813   */\n      add\n        /* \"#utility.yul\":18789:18836   */\n      mstore\n        /* \"#utility.yul\":18853:18984   */\n      tag_534\n        /* \"#utility.yul\":18979:18983   */\n      dup2\n        /* \"#utility.yul\":18853:18984   */\n      tag_354\n      jump\t// in\n    tag_534:\n        /* \"#utility.yul\":18845:18984   */\n      swap1\n      pop\n        /* \"#utility.yul\":18572:18991   */\n      swap2\n      swap1\n      pop\n      jump\t// out\n\n    auxdata: 0xa26469706673582212207f8b57dc23830ba2c98f00f1e15e23ac7d4e9cd6be5bcb06c25389f72efb91a864736f6c634300081e0033\n}\n",
				"bytecode": {
					"linkReferences": {},
					"object": "60806040526040518060400160405280600b81526020017f414c49454e20546f6b656e000000000000000000000000000000000000000000815250600290816100489190610556565b506040518060400160405280600581526020017f414c49454e0000000000000000000000000000000000000000000000000000008152506003908161008d9190610556565b50601260045f6101000a81548160ff021916908360ff16021790555060045f9054906101000a900460ff1660ff16600a6100c79190610781565b633b9aca006100d691906107cb565b6005553480156100e4575f5ffd5b506040516131553803806131558339818101604052810190610106919061086a565b805f73ffffffffffffffffffffffffffffffffffffffff168173ffffffffffffffffffffffffffffffffffffffff1603610177575f6040517f1e4fbdf700000000000000000000000000000000000000000000000000000000815260040161016e91906108a4565b60405180910390fd5b6101868161025860201b60201c565b505f5f60146101000a81548160ff0219169083151502179055506001808190555060055460065f8373ffffffffffffffffffffffffffffffffffffffff1673ffffffffffffffffffffffffffffffffffffffff1681526020019081526020015f20819055508073ffffffffffffffffffffffffffffffffffffffff165f73ffffffffffffffffffffffffffffffffffffffff167fddf252ad1be2c89b69c2b068fc378daa952ba7f163c4a11628f55a4df523b3ef60055460405161024a91906108cc565b60405180910390a3506108e5565b5f5f5f9054906101000a900473ffffffffffffffffffffffffffffffffffffffff169050815f5f6101000a81548173ffffffffffffffffffffffffffffffffffffffff021916908373ffffffffffffffffffffffffffffffffffffffff1602179055508173ffffffffffffffffffffffffffffffffffffffff168173ffffffffffffffffffffffffffffffffffffffff167f8be0079c531659141344cd1fd0a4f28419497f9722a3daafe3b4186f6b6457e060405160405180910390a35050565b5f81519050919050565b7f4e487b71000000000000000000000000000000000000000000000000000000005f52604160045260245ffd5b7f4e487b71000000000000000000000000000000000000000000000000000000005f52602260045260245ffd5b5f600282049050600182168061039457607f821691505b6020821081036103a7576103a6610350565b5b50919050565b5f819050815f5260205f209050919050565b5f6020601f8301049050919050565b5f82821b905092915050565b5f600883026104097fffffffffffffffffffffffffffffffffffffffffffffffffffffffffffffffff826103ce565b61041386836103ce565b95508019841693508086168417925050509392505050565b5f819050919050565b5f819050919050565b5f61045761045261044d8461042b565b610434565b61042b565b9050919050565b5f819050919050565b6104708361043d565b61048461047c8261045e565b8484546103da565b825550505050565b5f5f905090565b61049b61048c565b6104a6818484610467565b505050565b5b818110156104c9576104be5f82610493565b6001810190506104ac565b5050565b601f82111561050e576104df816103ad565b6104e8846103bf565b810160208510156104f7578190505b61050b610503856103bf565b8301826104ab565b50505b505050565b5f82821c905092915050565b5f61052e5f1984600802610513565b1980831691505092915050565b5f610546838361051f565b9150826002028217905092915050565b61055f82610319565b67ffffffffffffffff81111561057857610577610323565b5b610582825461037d565b61058d8282856104cd565b5f60209050601f8311600181146105be575f84156105ac578287015190505b6105b6858261053b565b86555061061d565b601f1984166105cc866103ad565b5f5b828110156105f3578489015182556001820191506020850194506020810190506105ce565b86831015610610578489015161060c601f89168261051f565b8355505b6001600288020188555050505b505050505050565b7f4e487b71000000000000000000000000000000000000000000000000000000005f52601160045260245ffd5b5f8160011c9050919050565b5f5f8291508390505b60018511156106a75780860481111561068357610682610625565b5b60018516156106925780820291505b80810290506106a085610652565b9450610667565b94509492505050565b5f826106bf576001905061077a565b816106cc575f905061077a565b81600181146106e257600281146106ec5761071b565b600191505061077a565b60ff8411156106fe576106fd610625565b5b8360020a91508482111561071557610714610625565b5b5061077a565b5060208310610133831016604e8410600b84101617156107505782820a90508381111561074b5761074a610625565b5b61077a565b61075d848484600161065e565b9250905081840481111561077457610773610625565b5b81810290505b9392505050565b5f61078b8261042b565b91506107968361042b565b92506107c37fffffffffffffffffffffffffffffffffffffffffffffffffffffffffffffffff84846106b0565b905092915050565b5f6107d58261042b565b91506107e08361042b565b92508282026107ee8161042b565b9150828204841483151761080557610804610625565b5b5092915050565b5f5ffd5b5f73ffffffffffffffffffffffffffffffffffffffff82169050919050565b5f61083982610810565b9050919050565b6108498161082f565b8114610853575f5ffd5b50565b5f8151905061086481610840565b92915050565b5f6020828403121561087f5761087e61080c565b5b5f61088c84828501610856565b91505092915050565b61089e8161082f565b82525050565b5f6020820190506108b75f830184610895565b92915050565b6108c68161042b565b82525050565b5f6020820190506108df5f8301846108bd565b92915050565b612863806108f25f395ff3fe608060405234801561000f575f5ffd5b506004361061014b575f3560e01c806370a08231116100c157806395d89b411161007a57806395d89b4114610356578063a9059cbb14610374578063af9c53da146103a4578063dd62ed3e146103c0578063f2fde38b146103f0578063f9f92be41461040c5761014b565b806370a08231146102b5578063715018a6146102e557806379cc6790146102ef5780637cc1f8671461030b5780638456cb591461032e5780638da5cb5b146103385761014b565b8063313ce56711610113578063313ce567146102075780633f4ba83a1461022557806340c10f191461022f57806342966c681461024b57806358d2b4a5146102675780635c975abb146102975761014b565b806306fdde031461014f578063095ea7b31461016d578063153b0d1e1461019d57806318160ddd146101b957806323b872dd146101d7575b5f5ffd5b61015761043c565b6040516101649190611f32565b60405180910390f35b61018760048036038101906101829190611ff0565b6104c8565b6040516101949190612048565b60405180910390f35b6101b760048036038101906101b2919061208b565b61069a565b005b6101c1610748565b6040516101ce91906120d8565b60405180910390f35b6101f160048036038101906101ec91906120f1565b61074e565b6040516101fe9190612048565b60405180910390f35b61020f610ae4565b60405161021c919061215c565b60405180910390f35b61022d610af6565b005b61024960048036038101906102449190611ff0565b610b08565b005b61026560048036038101906102609190612175565b610d2a565b005b610281600480360381019061027c91906121a0565b610f55565b60405161028e9190612048565b60405180910390f35b61029f610fa7565b6040516102ac9190612048565b60405180910390f35b6102cf60048036038101906102ca91906121a0565b610fbc565b6040516102dc91906120d8565b60405180910390f35b6102ed610fd1565b005b61030960048036038101906103049190611ff0565b610fe4565b005b610313611218565b604051610325969594939291906121da565b60405180910390f35b61033661136d565b005b61034061137f565b60405161034d9190612247565b60405180910390f35b61035e6113a6565b60405161036b9190611f32565b60405180910390f35b61038e60048036038101906103899190611ff0565b611432565b60405161039b9190612048565b60405180910390f35b6103be60048036038101906103b991906123a0565b61172b565b005b6103da60048036038101906103d591906123fa565b611829565b6040516103e791906120d8565b60405180910390f35b61040a600480360381019061040591906121a0565b611849565b005b610426600480360381019061042191906121a0565b6118cd565b6040516104339190612048565b60405180910390f35b6002805461044990612465565b80601f016020809104026020016040519081016040528092919081815260200182805461047590612465565b80156104c05780601f10610497576101008083540402835291602001916104c0565b820191905f5260205f20905b8154815290600101906020018083116104a357829003601f168201915b505050505081565b5f6104d16118ea565b60085f3373ffffffffffffffffffffffffffffffffffffffff1673ffffffffffffffffffffffffffffffffffffffff1681526020019081526020015f205f9054906101000a900460ff1615801561056f575060085f8473ffffffffffffffffffffffffffffffffffffffff1673ffffffffffffffffffffffffffffffffffffffff1681526020019081526020015f205f9054906101000a900460ff16155b6105ae576040517f08c379a00000000000000000000000000000000000000000000000000000000081526004016105a5906124df565b60405180910390fd5b8160075f3373ffffffffffffffffffffffffffffffffffffffff1673ffffffffffffffffffffffffffffffffffffffff1681526020019081526020015f205f8573ffffffffffffffffffffffffffffffffffffffff1673ffffffffffffffffffffffffffffffffffffffff1681526020019081526020015f20819055508273ffffffffffffffffffffffffffffffffffffffff163373ffffffffffffffffffffffffffffffffffffffff167f8c5be1e5ebec7d5bd14f71427d1e84f3dd0314c0f7b2291e5b200ac8c7c3b9258460405161068891906120d8565b60405180910390a36001905092915050565b6106a2611934565b8060085f8473ffffffffffffffffffffffffffffffffffffffff1673ffffffffffffffffffffffffffffffffffffffff1681526020019081526020015f205f6101000a81548160ff0219169083151502179055508173ffffffffffffffffffffffffffffffffffffffff167f97b7af35c8c05eca90f543eb78b16fdf2664d3e6c9a907286f310647d9813b718260405161073c9190612048565b60405180910390a25050565b60055481565b5f6107576118ea565b61075f6119bb565b5f73ffffffffffffffffffffffffffffffffffffffff168373ffffffffffffffffffffffffffffffffffffffff16036107cd576040517f08c379a00000000000000000000000000000000000000000000000000000000081526004016107c490612547565b60405180910390fd5b60085f8573ffffffffffffffffffffffffffffffffffffffff1673ffffffffffffffffffffffffffffffffffffffff1681526020019081526020015f205f9054906101000a900460ff1615801561086b575060085f8473ffffffffffffffffffffffffffffffffffffffff1673ffffffffffffffffffffffffffffffffffffffff1681526020019081526020015f205f9054906101000a900460ff16155b80156108be575060085f3373ffffffffffffffffffffffffffffffffffffffff1673ffffffffffffffffffffffffffffffffffffffff1681526020019081526020015f205f9054906101000a900460ff16155b6108fd576040517f08c379a00000000000000000000000000000000000000000000000000000000081526004016108f4906124df565b60405180910390fd5b8160065f8673ffffffffffffffffffffffffffffffffffffffff1673ffffffffffffffffffffffffffffffffffffffff1681526020019081526020015f2054101561097d576040517f08c379a0000000000000000000000000000000000000000000000000000000008152600401610974906125af565b60405180910390fd5b8160075f8673ffffffffffffffffffffffffffffffffffffffff1673ffffffffffffffffffffffffffffffffffffffff1681526020019081526020015f205f3373ffffffffffffffffffffffffffffffffffffffff1673ffffffffffffffffffffffffffffffffffffffff1681526020019081526020015f20541015610a38576040517f08c379a0000000000000000000000000000000000000000000000000000000008152600401610a2f90612617565b60405180910390fd5b8160075f8673ffffffffffffffffffffffffffffffffffffffff1673ffffffffffffffffffffffffffffffffffffffff1681526020019081526020015f205f3373ffffffffffffffffffffffffffffffffffffffff1673ffffffffffffffffffffffffffffffffffffffff1681526020019081526020015f205f828254610abf9190612662565b92505081905550610ad1848484611a0a565b60019050610add611ce5565b9392505050565b60045f9054906101000a900460ff1681565b610afe611934565b610b06611cee565b565b610b10611934565b5f73ffffffffffffffffffffffffffffffffffffffff168273ffffffffffffffffffffffffffffffffffffffff1603610b7e576040517f08c379a0000000000000000000000000000000000000000000000000000000008152600401610b7590612547565b60405180910390fd5b60085f8373ffffffffffffffffffffffffffffffffffffffff1673ffffffffffffffffffffffffffffffffffffffff1681526020019081526020015f205f9054906101000a900460ff1615610c08576040517f08c379a0000000000000000000000000000000000000000000000000000000008152600401610bff906124df565b60405180910390fd5b8060055f828254610c199190612695565b925050819055508060065f8473ffffffffffffffffffffffffffffffffffffffff1673ffffffffffffffffffffffffffffffffffffffff1681526020019081526020015f205f828254610c6c9190612695565b925050819055508173ffffffffffffffffffffffffffffffffffffffff167f3f2c9d57c068687834f0de942a9babb9e5acab57d516d3480a3c16ee165a427382604051610cb991906120d8565b60405180910390a28173ffffffffffffffffffffffffffffffffffffffff165f73ffffffffffffffffffffffffffffffffffffffff167fddf252ad1be2c89b69c2b068fc378daa952ba7f163c4a11628f55a4df523b3ef83604051610d1e91906120d8565b60405180910390a35050565b8060065f3373ffffffffffffffffffffffffffffffffffffffff1673ffffffffffffffffffffffffffffffffffffffff1681526020019081526020015f20541015610daa576040517f08c379a0000000000000000000000000000000000000000000000000000000008152600401610da1906125af565b60405180910390fd5b60085f3373ffffffffffffffffffffffffffffffffffffffff1673ffffffffffffffffffffffffffffffffffffffff1681526020019081526020015f205f9054906101000a900460ff1615610e34576040517f08c379a0000000000000000000000000000000000000000000000000000000008152600401610e2b906124df565b60405180910390fd5b8060055f828254610e459190612662565b925050819055508060065f3373ffffffffffffffffffffffffffffffffffffffff1673ffffffffffffffffffffffffffffffffffffffff1681526020019081526020015f205f828254610e989190612662565b925050819055503373ffffffffffffffffffffffffffffffffffffffff167ffd38818f5291bf0bb3a2a48aadc06ba8757865d1dabd804585338aab3009dcb682604051610ee591906120d8565b60405180910390a25f73ffffffffffffffffffffffffffffffffffffffff163373ffffffffffffffffffffffffffffffffffffffff167fddf252ad1be2c89b69c2b068fc378daa952ba7f163c4a11628f55a4df523b3ef83604051610f4a91906120d8565b60405180910390a350565b5f60085f8373ffffffffffffffffffffffffffffffffffffffff1673ffffffffffffffffffffffffffffffffffffffff1681526020019081526020015f205f9054906101000a900460ff169050919050565b5f5f60149054906101000a900460ff16905090565b6006602052805f5260405f205f915090505481565b610fd9611934565b610fe25f611d4f565b565b610fec611934565b8060065f8473ffffffffffffffffffffffffffffffffffffffff1673ffffffffffffffffffffffffffffffffffffffff1681526020019081526020015f2054101561106c576040517f08c379a0000000000000000000000000000000000000000000000000000000008152600401611063906125af565b60405180910390fd5b60085f8373ffffffffffffffffffffffffffffffffffffffff1673ffffffffffffffffffffffffffffffffffffffff1681526020019081526020015f205f9054906101000a900460ff16156110f6576040517f08c379a00000000000000000000000000000000000000000000000000000000081526004016110ed906124df565b60405180910390fd5b8060055f8282546111079190612662565b925050819055508060065f8473ffffffffffffffffffffffffffffffffffffffff1673ffffffffffffffffffffffffffffffffffffffff1681526020019081526020015f205f82825461115a9190612662565b925050819055508173ffffffffffffffffffffffffffffffffffffffff167ffd38818f5291bf0bb3a2a48aadc06ba8757865d1dabd804585338aab3009dcb6826040516111a791906120d8565b60405180910390a25f73ffffffffffffffffffffffffffffffffffffffff168273ffffffffffffffffffffffffffffffffffffffff167fddf252ad1be2c89b69c2b068fc378daa952ba7f163c4a11628f55a4df523b3ef8360405161120c91906120d8565b60405180910390a35050565b6060805f5f5f5f6002600360045f9054906101000a900460ff1660055461123d610fa7565b61124561137f565b85805461125190612465565b80601f016020809104026020016040519081016040528092919081815260200182805461127d90612465565b80156112c85780601f1061129f576101008083540402835291602001916112c8565b820191905f5260205f20905b8154815290600101906020018083116112ab57829003601f168201915b505050505095508480546112db90612465565b80601f016020809104026020016040519081016040528092919081815260200182805461130790612465565b80156113525780601f1061132957610100808354040283529160200191611352565b820191905f5260205f20905b81548152906001019060200180831161133557829003601f168201915b50505050509450955095509550955095509550909192939495565b611375611934565b61137d611e10565b565b5f5f5f9054906101000a900473ffffffffffffffffffffffffffffffffffffffff16905090565b600380546113b390612465565b80601f01602080910402602001604051908101604052809291908181526020018280546113df90612465565b801561142a5780601f106114015761010080835404028352916020019161142a565b820191905f5260205f20905b81548152906001019060200180831161140d57829003601f168201915b505050505081565b5f61143b6118ea565b6114436119bb565b5f73ffffffffffffffffffffffffffffffffffffffff168373ffffffffffffffffffffffffffffffffffffffff16036114b1576040517f08c379a00000000000000000000000000000000000000000000000000000000081526004016114a890612547565b60405180910390fd5b60085f3373ffffffffffffffffffffffffffffffffffffffff1673ffffffffffffffffffffffffffffffffffffffff1681526020019081526020015f205f9054906101000a900460ff1615801561154f575060085f8473ffffffffffffffffffffffffffffffffffffffff1673ffffffffffffffffffffffffffffffffffffffff1681526020019081526020015f205f9054906101000a900460ff16155b61158e576040517f08c379a0000000000000000000000000000000000000000000000000000000008152600401611585906124df565b60405180910390fd5b8160065f3373ffffffffffffffffffffffffffffffffffffffff1673ffffffffffffffffffffffffffffffffffffffff1681526020019081526020015f2054101561160e576040517f08c379a0000000000000000000000000000000000000000000000000000000008152600401611605906125af565b60405180910390fd5b8160065f3373ffffffffffffffffffffffffffffffffffffffff1673ffffffffffffffffffffffffffffffffffffffff1681526020019081526020015f205f82825461165a9190612662565b925050819055508160065f8573ffffffffffffffffffffffffffffffffffffffff1673ffffffffffffffffffffffffffffffffffffffff1681526020019081526020015f205f8282546116ad9190612695565b925050819055508273ffffffffffffffffffffffffffffffffffffffff163373ffffffffffffffffffffffffffffffffffffffff167fddf252ad1be2c89b69c2b068fc378daa952ba7f163c4a11628f55a4df523b3ef8460405161171191906120d8565b60405180910390a360019050611725611ce5565b92915050565b611733611934565b5f5f90505b8251811015611824578160085f858481518110611758576117576126c8565b5b602002602001015173ffffffffffffffffffffffffffffffffffffffff1673ffffffffffffffffffffffffffffffffffffffff1681526020019081526020015f205f6101000a81548160ff0219169083151502179055508281815181106117c2576117c16126c8565b5b602002602001015173ffffffffffffffffffffffffffffffffffffffff167f97b7af35c8c05eca90f543eb78b16fdf2664d3e6c9a907286f310647d9813b718360405161180f9190612048565b60405180910390a28080600101915050611738565b505050565b6007602052815f5260405f20602052805f5260405f205f91509150505481565b611851611934565b5f73ffffffffffffffffffffffffffffffffffffffff168173ffffffffffffffffffffffffffffffffffffffff16036118c1575f6040517f1e4fbdf70000000000000000000000000000000000000000000000000000000081526004016118b89190612247565b60405180910390fd5b6118ca81611d4f565b50565b6008602052805f5260405f205f915054906101000a900460ff1681565b6118f2610fa7565b15611932576040517f08c379a00000000000000000000000000000000000000000000000000000000081526004016119299061273f565b60405180910390fd5b565b61193c611e72565b73ffffffffffffffffffffffffffffffffffffffff1661195a61137f565b73ffffffffffffffffffffffffffffffffffffffff16146119b95761197d611e72565b6040517f118cdaa70000000000000000000000000000000000000000000000000000000081526004016119b09190612247565b60405180910390fd5b565b600260015403611a00576040517f08c379a00000000000000000000000000000000000000000000000000000000081526004016119f7906127a7565b60405180910390fd5b6002600181905550565b5f73ffffffffffffffffffffffffffffffffffffffff168273ffffffffffffffffffffffffffffffffffffffff1603611a78576040517f08c379a0000000000000000000000000000000000000000000000000000000008152600401611a6f90612547565b60405180910390fd5b60085f8473ffffffffffffffffffffffffffffffffffffffff1673ffffffffffffffffffffffffffffffffffffffff1681526020019081526020015f205f9054906101000a900460ff16158015611b16575060085f8373ffffffffffffffffffffffffffffffffffffffff1673ffffffffffffffffffffffffffffffffffffffff1681526020019081526020015f205f9054906101000a900460ff16155b611b55576040517f08c379a0000000000000000000000000000000000000000000000000000000008152600401611b4c906124df565b60405180910390fd5b8060065f8573ffffffffffffffffffffffffffffffffffffffff1673ffffffffffffffffffffffffffffffffffffffff1681526020019081526020015f20541015611bd5576040517f08c379a0000000000000000000000000000000000000000000000000000000008152600401611bcc906125af565b60405180910390fd5b8060065f8573ffffffffffffffffffffffffffffffffffffffff1673ffffffffffffffffffffffffffffffffffffffff1681526020019081526020015f205f828254611c219190612662565b925050819055508060065f8473ffffffffffffffffffffffffffffffffffffffff1673ffffffffffffffffffffffffffffffffffffffff1681526020019081526020015f205f828254611c749190612695565b925050819055508173ffffffffffffffffffffffffffffffffffffffff168373ffffffffffffffffffffffffffffffffffffffff167fddf252ad1be2c89b69c2b068fc378daa952ba7f163c4a11628f55a4df523b3ef83604051611cd891906120d8565b60405180910390a3505050565b60018081905550565b611cf6611e79565b5f5f60146101000a81548160ff0219169083151502179055507f5db9ee0a495bf2e6ff9c91a7834c1ba4fdd244a5e8aa4e537bd38aeae4b073aa611d38611e72565b604051611d459190612247565b60405180910390a1565b5f5f5f9054906101000a900473ffffffffffffffffffffffffffffffffffffffff169050815f5f6101000a81548173ffffffffffffffffffffffffffffffffffffffff021916908373ffffffffffffffffffffffffffffffffffffffff1602179055508173ffffffffffffffffffffffffffffffffffffffff168173ffffffffffffffffffffffffffffffffffffffff167f8be0079c531659141344cd1fd0a4f28419497f9722a3daafe3b4186f6b6457e060405160405180910390a35050565b611e186118ea565b60015f60146101000a81548160ff0219169083151502179055507f62e78cea01bee320cd4e420270b5ea74000d11b0c9f74754ebdbfc544b05a258611e5b611e72565b604051611e689190612247565b60405180910390a1565b5f33905090565b611e81610fa7565b611ec0576040517f08c379a0000000000000000000000000000000000000000000000000000000008152600401611eb79061280f565b60405180910390fd5b565b5f81519050919050565b5f82825260208201905092915050565b8281835e5f83830152505050565b5f601f19601f8301169050919050565b5f611f0482611ec2565b611f0e8185611ecc565b9350611f1e818560208601611edc565b611f2781611eea565b840191505092915050565b5f6020820190508181035f830152611f4a8184611efa565b905092915050565b5f604051905090565b5f5ffd5b5f5ffd5b5f73ffffffffffffffffffffffffffffffffffffffff82169050919050565b5f611f8c82611f63565b9050919050565b611f9c81611f82565b8114611fa6575f5ffd5b50565b5f81359050611fb781611f93565b92915050565b5f819050919050565b611fcf81611fbd565b8114611fd9575f5ffd5b50565b5f81359050611fea81611fc6565b92915050565b5f5f6040838503121561200657612005611f5b565b5b5f61201385828601611fa9565b925050602061202485828601611fdc565b9150509250929050565b5f8115159050919050565b6120428161202e565b82525050565b5f60208201905061205b5f830184612039565b92915050565b61206a8161202e565b8114612074575f5ffd5b50565b5f8135905061208581612061565b92915050565b5f5f604083850312156120a1576120a0611f5b565b5b5f6120ae85828601611fa9565b92505060206120bf85828601612077565b9150509250929050565b6120d281611fbd565b82525050565b5f6020820190506120eb5f8301846120c9565b92915050565b5f5f5f6060848603121561210857612107611f5b565b5b5f61211586828701611fa9565b935050602061212686828701611fa9565b925050604061213786828701611fdc565b9150509250925092565b5f60ff82169050919050565b61215681612141565b82525050565b5f60208201905061216f5f83018461214d565b92915050565b5f6020828403121561218a57612189611f5b565b5b5f61219784828501611fdc565b91505092915050565b5f602082840312156121b5576121b4611f5b565b5b5f6121c284828501611fa9565b91505092915050565b6121d481611f82565b82525050565b5f60c0820190508181035f8301526121f28189611efa565b905081810360208301526122068188611efa565b9050612215604083018761214d565b61222260608301866120c9565b61222f6080830185612039565b61223c60a08301846121cb565b979650505050505050565b5f60208201905061225a5f8301846121cb565b92915050565b5f5ffd5b7f4e487b71000000000000000000000000000000000000000000000000000000005f52604160045260245ffd5b61229a82611eea565b810181811067ffffffffffffffff821117156122b9576122b8612264565b5b80604052505050565b5f6122cb611f52565b90506122d78282612291565b919050565b5f67ffffffffffffffff8211156122f6576122f5612264565b5b602082029050602081019050919050565b5f5ffd5b5f61231d612318846122dc565b6122c2565b905080838252602082019050602084028301858111156123405761233f612307565b5b835b8181101561236957806123558882611fa9565b845260208401935050602081019050612342565b5050509392505050565b5f82601f83011261238757612386612260565b5b813561239784826020860161230b565b91505092915050565b5f5f604083850312156123b6576123b5611f5b565b5b5f83013567ffffffffffffffff8111156123d3576123d2611f5f565b5b6123df85828601612373565b92505060206123f085828601612077565b9150509250929050565b5f5f604083850312156124105761240f611f5b565b5b5f61241d85828601611fa9565b925050602061242e85828601611fa9565b9150509250929050565b7f4e487b71000000000000000000000000000000000000000000000000000000005f52602260045260245ffd5b5f600282049050600182168061247c57607f821691505b60208210810361248f5761248e612438565b5b50919050565b7f4164647265737320626c61636b6c6973746564000000000000000000000000005f82015250565b5f6124c9601383611ecc565b91506124d482612495565b602082019050919050565b5f6020820190508181035f8301526124f6816124bd565b9050919050565b7f496e76616c6964206164647265737300000000000000000000000000000000005f82015250565b5f612531600f83611ecc565b915061253c826124fd565b602082019050919050565b5f6020820190508181035f83015261255e81612525565b9050919050565b7f496e73756666696369656e742062616c616e63650000000000000000000000005f82015250565b5f612599601483611ecc565b91506125a482612565565b602082019050919050565b5f6020820190508181035f8301526125c68161258d565b9050919050565b7f416c6c6f77616e636520746f6f206c6f770000000000000000000000000000005f82015250565b5f612601601183611ecc565b915061260c826125cd565b602082019050919050565b5f6020820190508181035f83015261262e816125f5565b9050919050565b7f4e487b71000000000000000000000000000000000000000000000000000000005f52601160045260245ffd5b5f61266c82611fbd565b915061267783611fbd565b925082820390508181111561268f5761268e612635565b5b92915050565b5f61269f82611fbd565b91506126aa83611fbd565b92508282019050808211156126c2576126c1612635565b5b92915050565b7f4e487b71000000000000000000000000000000000000000000000000000000005f52603260045260245ffd5b7f5061757361626c653a20706175736564000000000000000000000000000000005f82015250565b5f612729601083611ecc565b9150612734826126f5565b602082019050919050565b5f6020820190508181035f8301526127568161271d565b9050919050565b7f5265656e7472616e637947756172643a207265656e7472616e742063616c6c005f82015250565b5f612791601f83611ecc565b915061279c8261275d565b602082019050919050565b5f6020820190508181035f8301526127be81612785565b9050919050565b7f5061757361626c653a206e6f74207061757365640000000000000000000000005f82015250565b5f6127f9601483611ecc565b9150612804826127c5565b602082019050919050565b5f6020820190508181035f830152612826816127ed565b905091905056fea26469706673582212207f8b57dc23830ba2c98f00f1e15e23ac7d4e9cd6be5bcb06c25389f72efb91a864736f6c634300081e0033",
					"opcodes": "PUSH1 0x80 PUSH1 0x40 MSTORE PUSH1 0x40 MLOAD DUP1 PUSH1 0x40 ADD PUSH1 0x40 MSTORE DUP1 PUSH1 0xB DUP2 MSTORE PUSH1 0x20 ADD PUSH32 0x414C49454E20546F6B656E000000000000000000000000000000000000000000 DUP2 MSTORE POP PUSH1 0x2 SWAP1 DUP2 PUSH2 0x48 SWAP2 SWAP1 PUSH2 0x556 JUMP JUMPDEST POP PUSH1 0x40 MLOAD DUP1 PUSH1 0x40 ADD PUSH1 0x40 MSTORE DUP1 PUSH1 0x5 DUP2 MSTORE PUSH1 0x20 ADD PUSH32 0x414C49454E000000000000000000000000000000000000000000000000000000 DUP2 MSTORE POP PUSH1 0x3 SWAP1 DUP2 PUSH2 0x8D SWAP2 SWAP1 PUSH2 0x556 JUMP JUMPDEST POP PUSH1 0x12 PUSH1 0x4 PUSH0 PUSH2 0x100 EXP DUP2 SLOAD DUP2 PUSH1 0xFF MUL NOT AND SWAP1 DUP4 PUSH1 0xFF AND MUL OR SWAP1 SSTORE POP PUSH1 0x4 PUSH0 SWAP1 SLOAD SWAP1 PUSH2 0x100 EXP SWAP1 DIV PUSH1 0xFF AND PUSH1 0xFF AND PUSH1 0xA PUSH2 0xC7 SWAP2 SWAP1 PUSH2 0x781 JUMP JUMPDEST PUSH4 0x3B9ACA00 PUSH2 0xD6 SWAP2 SWAP1 PUSH2 0x7CB JUMP JUMPDEST PUSH1 0x5 SSTORE CALLVALUE DUP1 ISZERO PUSH2 0xE4 JUMPI PUSH0 PUSH0 REVERT JUMPDEST POP PUSH1 0x40 MLOAD PUSH2 0x3155 CODESIZE SUB DUP1 PUSH2 0x3155 DUP4 CODECOPY DUP2 DUP2 ADD PUSH1 0x40 MSTORE DUP2 ADD SWAP1 PUSH2 0x106 SWAP2 SWAP1 PUSH2 0x86A JUMP JUMPDEST DUP1 PUSH0 PUSH20 0xFFFFFFFFFFFFFFFFFFFFFFFFFFFFFFFFFFFFFFFF AND DUP2 PUSH20 0xFFFFFFFFFFFFFFFFFFFFFFFFFFFFFFFFFFFFFFFF AND SUB PUSH2 0x177 JUMPI PUSH0 PUSH1 0x40 MLOAD PUSH32 0x1E4FBDF700000000000000000000000000000000000000000000000000000000 DUP2 MSTORE PUSH1 0x4 ADD PUSH2 0x16E SWAP2 SWAP1 PUSH2 0x8A4 JUMP JUMPDEST PUSH1 0x40 MLOAD DUP1 SWAP2 SUB SWAP1 REVERT JUMPDEST PUSH2 0x186 DUP2 PUSH2 0x258 PUSH1 0x20 SHL PUSH1 0x20 SHR JUMP JUMPDEST POP PUSH0 PUSH0 PUSH1 0x14 PUSH2 0x100 EXP DUP2 SLOAD DUP2 PUSH1 0xFF MUL NOT AND SWAP1 DUP4 ISZERO ISZERO MUL OR SWAP1 SSTORE POP PUSH1 0x1 DUP1 DUP2 SWAP1 SSTORE POP PUSH1 0x5 SLOAD PUSH1 0x6 PUSH0 DUP4 PUSH20 0xFFFFFFFFFFFFFFFFFFFFFFFFFFFFFFFFFFFFFFFF AND PUSH20 0xFFFFFFFFFFFFFFFFFFFFFFFFFFFFFFFFFFFFFFFF AND DUP2 MSTORE PUSH1 0x20 ADD SWAP1 DUP2 MSTORE PUSH1 0x20 ADD PUSH0 KECCAK256 DUP2 SWAP1 SSTORE POP DUP1 PUSH20 0xFFFFFFFFFFFFFFFFFFFFFFFFFFFFFFFFFFFFFFFF AND PUSH0 PUSH20 0xFFFFFFFFFFFFFFFFFFFFFFFFFFFFFFFFFFFFFFFF AND PUSH32 0xDDF252AD1BE2C89B69C2B068FC378DAA952BA7F163C4A11628F55A4DF523B3EF PUSH1 0x5 SLOAD PUSH1 0x40 MLOAD PUSH2 0x24A SWAP2 SWAP1 PUSH2 0x8CC JUMP JUMPDEST PUSH1 0x40 MLOAD DUP1 SWAP2 SUB SWAP1 LOG3 POP PUSH2 0x8E5 JUMP JUMPDEST PUSH0 PUSH0 PUSH0 SWAP1 SLOAD SWAP1 PUSH2 0x100 EXP SWAP1 DIV PUSH20 0xFFFFFFFFFFFFFFFFFFFFFFFFFFFFFFFFFFFFFFFF AND SWAP1 POP DUP2 PUSH0 PUSH0 PUSH2 0x100 EXP DUP2 SLOAD DUP2 PUSH20 0xFFFFFFFFFFFFFFFFFFFFFFFFFFFFFFFFFFFFFFFF MUL NOT AND SWAP1 DUP4 PUSH20 0xFFFFFFFFFFFFFFFFFFFFFFFFFFFFFFFFFFFFFFFF AND MUL OR SWAP1 SSTORE POP DUP2 PUSH20 0xFFFFFFFFFFFFFFFFFFFFFFFFFFFFFFFFFFFFFFFF AND DUP2 PUSH20 0xFFFFFFFFFFFFFFFFFFFFFFFFFFFFFFFFFFFFFFFF AND PUSH32 0x8BE0079C531659141344CD1FD0A4F28419497F9722A3DAAFE3B4186F6B6457E0 PUSH1 0x40 MLOAD PUSH1 0x40 MLOAD DUP1 SWAP2 SUB SWAP1 LOG3 POP POP JUMP JUMPDEST PUSH0 DUP2 MLOAD SWAP1 POP SWAP2 SWAP1 POP JUMP JUMPDEST PUSH32 0x4E487B7100000000000000000000000000000000000000000000000000000000 PUSH0 MSTORE PUSH1 0x41 PUSH1 0x4 MSTORE PUSH1 0x24 PUSH0 REVERT JUMPDEST PUSH32 0x4E487B7100000000000000000000000000000000000000000000000000000000 PUSH0 MSTORE PUSH1 0x22 PUSH1 0x4 MSTORE PUSH1 0x24 PUSH0 REVERT JUMPDEST PUSH0 PUSH1 0x2 DUP3 DIV SWAP1 POP PUSH1 0x1 DUP3 AND DUP1 PUSH2 0x394 JUMPI PUSH1 0x7F DUP3 AND SWAP2 POP JUMPDEST PUSH1 0x20 DUP3 LT DUP2 SUB PUSH2 0x3A7 JUMPI PUSH2 0x3A6 PUSH2 0x350 JUMP JUMPDEST JUMPDEST POP SWAP2 SWAP1 POP JUMP JUMPDEST PUSH0 DUP2 SWAP1 POP DUP2 PUSH0 MSTORE PUSH1 0x20 PUSH0 KECCAK256 SWAP1 POP SWAP2 SWAP1 POP JUMP JUMPDEST PUSH0 PUSH1 0x20 PUSH1 0x1F DUP4 ADD DIV SWAP1 POP SWAP2 SWAP1 POP JUMP JUMPDEST PUSH0 DUP3 DUP3 SHL SWAP1 POP SWAP3 SWAP2 POP POP JUMP JUMPDEST PUSH0 PUSH1 0x8 DUP4 MUL PUSH2 0x409 PUSH32 0xFFFFFFFFFFFFFFFFFFFFFFFFFFFFFFFFFFFFFFFFFFFFFFFFFFFFFFFFFFFFFFFF DUP3 PUSH2 0x3CE JUMP JUMPDEST PUSH2 0x413 DUP7 DUP4 PUSH2 0x3CE JUMP JUMPDEST SWAP6 POP DUP1 NOT DUP5 AND SWAP4 POP DUP1 DUP7 AND DUP5 OR SWAP3 POP POP POP SWAP4 SWAP3 POP POP POP JUMP JUMPDEST PUSH0 DUP2 SWAP1 POP SWAP2 SWAP1 POP JUMP JUMPDEST PUSH0 DUP2 SWAP1 POP SWAP2 SWAP1 POP JUMP JUMPDEST PUSH0 PUSH2 0x457 PUSH2 0x452 PUSH2 0x44D DUP5 PUSH2 0x42B JUMP JUMPDEST PUSH2 0x434 JUMP JUMPDEST PUSH2 0x42B JUMP JUMPDEST SWAP1 POP SWAP2 SWAP1 POP JUMP JUMPDEST PUSH0 DUP2 SWAP1 POP SWAP2 SWAP1 POP JUMP JUMPDEST PUSH2 0x470 DUP4 PUSH2 0x43D JUMP JUMPDEST PUSH2 0x484 PUSH2 0x47C DUP3 PUSH2 0x45E JUMP JUMPDEST DUP5 DUP5 SLOAD PUSH2 0x3DA JUMP JUMPDEST DUP3 SSTORE POP POP POP POP JUMP JUMPDEST PUSH0 PUSH0 SWAP1 POP SWAP1 JUMP JUMPDEST PUSH2 0x49B PUSH2 0x48C JUMP JUMPDEST PUSH2 0x4A6 DUP2 DUP5 DUP5 PUSH2 0x467 JUMP JUMPDEST POP POP POP JUMP JUMPDEST JUMPDEST DUP2 DUP2 LT ISZERO PUSH2 0x4C9 JUMPI PUSH2 0x4BE PUSH0 DUP3 PUSH2 0x493 JUMP JUMPDEST PUSH1 0x1 DUP2 ADD SWAP1 POP PUSH2 0x4AC JUMP JUMPDEST POP POP JUMP JUMPDEST PUSH1 0x1F DUP3 GT ISZERO PUSH2 0x50E JUMPI PUSH2 0x4DF DUP2 PUSH2 0x3AD JUMP JUMPDEST PUSH2 0x4E8 DUP5 PUSH2 0x3BF JUMP JUMPDEST DUP2 ADD PUSH1 0x20 DUP6 LT ISZERO PUSH2 0x4F7 JUMPI DUP2 SWAP1 POP JUMPDEST PUSH2 0x50B PUSH2 0x503 DUP6 PUSH2 0x3BF JUMP JUMPDEST DUP4 ADD DUP3 PUSH2 0x4AB JUMP JUMPDEST POP POP JUMPDEST POP POP POP JUMP JUMPDEST PUSH0 DUP3 DUP3 SHR SWAP1 POP SWAP3 SWAP2 POP POP JUMP JUMPDEST PUSH0 PUSH2 0x52E PUSH0 NOT DUP5 PUSH1 0x8 MUL PUSH2 0x513 JUMP JUMPDEST NOT DUP1 DUP4 AND SWAP2 POP POP SWAP3 SWAP2 POP POP JUMP JUMPDEST PUSH0 PUSH2 0x546 DUP4 DUP4 PUSH2 0x51F JUMP JUMPDEST SWAP2 POP DUP3 PUSH1 0x2 MUL DUP3 OR SWAP1 POP SWAP3 SWAP2 POP POP JUMP JUMPDEST PUSH2 0x55F DUP3 PUSH2 0x319 JUMP JUMPDEST PUSH8 0xFFFFFFFFFFFFFFFF DUP2 GT ISZERO PUSH2 0x578 JUMPI PUSH2 0x577 PUSH2 0x323 JUMP JUMPDEST JUMPDEST PUSH2 0x582 DUP3 SLOAD PUSH2 0x37D JUMP JUMPDEST PUSH2 0x58D DUP3 DUP3 DUP6 PUSH2 0x4CD JUMP JUMPDEST PUSH0 PUSH1 0x20 SWAP1 POP PUSH1 0x1F DUP4 GT PUSH1 0x1 DUP2 EQ PUSH2 0x5BE JUMPI PUSH0 DUP5 ISZERO PUSH2 0x5AC JUMPI DUP3 DUP8 ADD MLOAD SWAP1 POP JUMPDEST PUSH2 0x5B6 DUP6 DUP3 PUSH2 0x53B JUMP JUMPDEST DUP7 SSTORE POP PUSH2 0x61D JUMP JUMPDEST PUSH1 0x1F NOT DUP5 AND PUSH2 0x5CC DUP7 PUSH2 0x3AD JUMP JUMPDEST PUSH0 JUMPDEST DUP3 DUP2 LT ISZERO PUSH2 0x5F3 JUMPI DUP5 DUP10 ADD MLOAD DUP3 SSTORE PUSH1 0x1 DUP3 ADD SWAP2 POP PUSH1 0x20 DUP6 ADD SWAP5 POP PUSH1 0x20 DUP2 ADD SWAP1 POP PUSH2 0x5CE JUMP JUMPDEST DUP7 DUP4 LT ISZERO PUSH2 0x610 JUMPI DUP5 DUP10 ADD MLOAD PUSH2 0x60C PUSH1 0x1F DUP10 AND DUP3 PUSH2 0x51F JUMP JUMPDEST DUP4 SSTORE POP JUMPDEST PUSH1 0x1 PUSH1 0x2 DUP9 MUL ADD DUP9 SSTORE POP POP POP JUMPDEST POP POP POP POP POP POP JUMP JUMPDEST PUSH32 0x4E487B7100000000000000000000000000000000000000000000000000000000 PUSH0 MSTORE PUSH1 0x11 PUSH1 0x4 MSTORE PUSH1 0x24 PUSH0 REVERT JUMPDEST PUSH0 DUP2 PUSH1 0x1 SHR SWAP1 POP SWAP2 SWAP1 POP JUMP JUMPDEST PUSH0 PUSH0 DUP3 SWAP2 POP DUP4 SWAP1 POP JUMPDEST PUSH1 0x1 DUP6 GT ISZERO PUSH2 0x6A7 JUMPI DUP1 DUP7 DIV DUP2 GT ISZERO PUSH2 0x683 JUMPI PUSH2 0x682 PUSH2 0x625 JUMP JUMPDEST JUMPDEST PUSH1 0x1 DUP6 AND ISZERO PUSH2 0x692 JUMPI DUP1 DUP3 MUL SWAP2 POP JUMPDEST DUP1 DUP2 MUL SWAP1 POP PUSH2 0x6A0 DUP6 PUSH2 0x652 JUMP JUMPDEST SWAP5 POP PUSH2 0x667 JUMP JUMPDEST SWAP5 POP SWAP5 SWAP3 POP POP POP JUMP JUMPDEST PUSH0 DUP3 PUSH2 0x6BF JUMPI PUSH1 0x1 SWAP1 POP PUSH2 0x77A JUMP JUMPDEST DUP2 PUSH2 0x6CC JUMPI PUSH0 SWAP1 POP PUSH2 0x77A JUMP JUMPDEST DUP2 PUSH1 0x1 DUP2 EQ PUSH2 0x6E2 JUMPI PUSH1 0x2 DUP2 EQ PUSH2 0x6EC JUMPI PUSH2 0x71B JUMP JUMPDEST PUSH1 0x1 SWAP2 POP POP PUSH2 0x77A JUMP JUMPDEST PUSH1 0xFF DUP5 GT ISZERO PUSH2 0x6FE JUMPI PUSH2 0x6FD PUSH2 0x625 JUMP JUMPDEST JUMPDEST DUP4 PUSH1 0x2 EXP SWAP2 POP DUP5 DUP3 GT ISZERO PUSH2 0x715 JUMPI PUSH2 0x714 PUSH2 0x625 JUMP JUMPDEST JUMPDEST POP PUSH2 0x77A JUMP JUMPDEST POP PUSH1 0x20 DUP4 LT PUSH2 0x133 DUP4 LT AND PUSH1 0x4E DUP5 LT PUSH1 0xB DUP5 LT AND OR ISZERO PUSH2 0x750 JUMPI DUP3 DUP3 EXP SWAP1 POP DUP4 DUP2 GT ISZERO PUSH2 0x74B JUMPI PUSH2 0x74A PUSH2 0x625 JUMP JUMPDEST JUMPDEST PUSH2 0x77A JUMP JUMPDEST PUSH2 0x75D DUP5 DUP5 DUP5 PUSH1 0x1 PUSH2 0x65E JUMP JUMPDEST SWAP3 POP SWAP1 POP DUP2 DUP5 DIV DUP2 GT ISZERO PUSH2 0x774 JUMPI PUSH2 0x773 PUSH2 0x625 JUMP JUMPDEST JUMPDEST DUP2 DUP2 MUL SWAP1 POP JUMPDEST SWAP4 SWAP3 POP POP POP JUMP JUMPDEST PUSH0 PUSH2 0x78B DUP3 PUSH2 0x42B JUMP JUMPDEST SWAP2 POP PUSH2 0x796 DUP4 PUSH2 0x42B JUMP JUMPDEST SWAP3 POP PUSH2 0x7C3 PUSH32 0xFFFFFFFFFFFFFFFFFFFFFFFFFFFFFFFFFFFFFFFFFFFFFFFFFFFFFFFFFFFFFFFF DUP5 DUP5 PUSH2 0x6B0 JUMP JUMPDEST SWAP1 POP SWAP3 SWAP2 POP POP JUMP JUMPDEST PUSH0 PUSH2 0x7D5 DUP3 PUSH2 0x42B JUMP JUMPDEST SWAP2 POP PUSH2 0x7E0 DUP4 PUSH2 0x42B JUMP JUMPDEST SWAP3 POP DUP3 DUP3 MUL PUSH2 0x7EE DUP2 PUSH2 0x42B JUMP JUMPDEST SWAP2 POP DUP3 DUP3 DIV DUP5 EQ DUP4 ISZERO OR PUSH2 0x805 JUMPI PUSH2 0x804 PUSH2 0x625 JUMP JUMPDEST JUMPDEST POP SWAP3 SWAP2 POP POP JUMP JUMPDEST PUSH0 PUSH0 REVERT JUMPDEST PUSH0 PUSH20 0xFFFFFFFFFFFFFFFFFFFFFFFFFFFFFFFFFFFFFFFF DUP3 AND SWAP1 POP SWAP2 SWAP1 POP JUMP JUMPDEST PUSH0 PUSH2 0x839 DUP3 PUSH2 0x810 JUMP JUMPDEST SWAP1 POP SWAP2 SWAP1 POP JUMP JUMPDEST PUSH2 0x849 DUP2 PUSH2 0x82F JUMP JUMPDEST DUP2 EQ PUSH2 0x853 JUMPI PUSH0 PUSH0 REVERT JUMPDEST POP JUMP JUMPDEST PUSH0 DUP2 MLOAD SWAP1 POP PUSH2 0x864 DUP2 PUSH2 0x840 JUMP JUMPDEST SWAP3 SWAP2 POP POP JUMP JUMPDEST PUSH0 PUSH1 0x20 DUP3 DUP5 SUB SLT ISZERO PUSH2 0x87F JUMPI PUSH2 0x87E PUSH2 0x80C JUMP JUMPDEST JUMPDEST PUSH0 PUSH2 0x88C DUP5 DUP3 DUP6 ADD PUSH2 0x856 JUMP JUMPDEST SWAP2 POP POP SWAP3 SWAP2 POP POP JUMP JUMPDEST PUSH2 0x89E DUP2 PUSH2 0x82F JUMP JUMPDEST DUP3 MSTORE POP POP JUMP JUMPDEST PUSH0 PUSH1 0x20 DUP3 ADD SWAP1 POP PUSH2 0x8B7 PUSH0 DUP4 ADD DUP5 PUSH2 0x895 JUMP JUMPDEST SWAP3 SWAP2 POP POP JUMP JUMPDEST PUSH2 0x8C6 DUP2 PUSH2 0x42B JUMP JUMPDEST DUP3 MSTORE POP POP JUMP JUMPDEST PUSH0 PUSH1 0x20 DUP3 ADD SWAP1 POP PUSH2 0x8DF PUSH0 DUP4 ADD DUP5 PUSH2 0x8BD JUMP JUMPDEST SWAP3 SWAP2 POP POP JUMP JUMPDEST PUSH2 0x2863 DUP1 PUSH2 0x8F2 PUSH0 CODECOPY PUSH0 RETURN INVALID PUSH1 0x80 PUSH1 0x40 MSTORE CALLVALUE DUP1 ISZERO PUSH2 0xF JUMPI PUSH0 PUSH0 REVERT JUMPDEST POP PUSH1 0x4 CALLDATASIZE LT PUSH2 0x14B JUMPI PUSH0 CALLDATALOAD PUSH1 0xE0 SHR DUP1 PUSH4 0x70A08231 GT PUSH2 0xC1 JUMPI DUP1 PUSH4 0x95D89B41 GT PUSH2 0x7A JUMPI DUP1 PUSH4 0x95D89B41 EQ PUSH2 0x356 JUMPI DUP1 PUSH4 0xA9059CBB EQ PUSH2 0x374 JUMPI DUP1 PUSH4 0xAF9C53DA EQ PUSH2 0x3A4 JUMPI DUP1 PUSH4 0xDD62ED3E EQ PUSH2 0x3C0 JUMPI DUP1 PUSH4 0xF2FDE38B EQ PUSH2 0x3F0 JUMPI DUP1 PUSH4 0xF9F92BE4 EQ PUSH2 0x40C JUMPI PUSH2 0x14B JUMP JUMPDEST DUP1 PUSH4 0x70A08231 EQ PUSH2 0x2B5 JUMPI DUP1 PUSH4 0x715018A6 EQ PUSH2 0x2E5 JUMPI DUP1 PUSH4 0x79CC6790 EQ PUSH2 0x2EF JUMPI DUP1 PUSH4 0x7CC1F867 EQ PUSH2 0x30B JUMPI DUP1 PUSH4 0x8456CB59 EQ PUSH2 0x32E JUMPI DUP1 PUSH4 0x8DA5CB5B EQ PUSH2 0x338 JUMPI PUSH2 0x14B JUMP JUMPDEST DUP1 PUSH4 0x313CE567 GT PUSH2 0x113 JUMPI DUP1 PUSH4 0x313CE567 EQ PUSH2 0x207 JUMPI DUP1 PUSH4 0x3F4BA83A EQ PUSH2 0x225 JUMPI DUP1 PUSH4 0x40C10F19 EQ PUSH2 0x22F JUMPI DUP1 PUSH4 0x42966C68 EQ PUSH2 0x24B JUMPI DUP1 PUSH4 0x58D2B4A5 EQ PUSH2 0x267 JUMPI DUP1 PUSH4 0x5C975ABB EQ PUSH2 0x297 JUMPI PUSH2 0x14B JUMP JUMPDEST DUP1 PUSH4 0x6FDDE03 EQ PUSH2 0x14F JUMPI DUP1 PUSH4 0x95EA7B3 EQ PUSH2 0x16D JUMPI DUP1 PUSH4 0x153B0D1E EQ PUSH2 0x19D JUMPI DUP1 PUSH4 0x18160DDD EQ PUSH2 0x1B9 JUMPI DUP1 PUSH4 0x23B872DD EQ PUSH2 0x1D7 JUMPI JUMPDEST PUSH0 PUSH0 REVERT JUMPDEST PUSH2 0x157 PUSH2 0x43C JUMP JUMPDEST PUSH1 0x40 MLOAD PUSH2 0x164 SWAP2 SWAP1 PUSH2 0x1F32 JUMP JUMPDEST PUSH1 0x40 MLOAD DUP1 SWAP2 SUB SWAP1 RETURN JUMPDEST PUSH2 0x187 PUSH1 0x4 DUP1 CALLDATASIZE SUB DUP2 ADD SWAP1 PUSH2 0x182 SWAP2 SWAP1 PUSH2 0x1FF0 JUMP JUMPDEST PUSH2 0x4C8 JUMP JUMPDEST PUSH1 0x40 MLOAD PUSH2 0x194 SWAP2 SWAP1 PUSH2 0x2048 JUMP JUMPDEST PUSH1 0x40 MLOAD DUP1 SWAP2 SUB SWAP1 RETURN JUMPDEST PUSH2 0x1B7 PUSH1 0x4 DUP1 CALLDATASIZE SUB DUP2 ADD SWAP1 PUSH2 0x1B2 SWAP2 SWAP1 PUSH2 0x208B JUMP JUMPDEST PUSH2 0x69A JUMP JUMPDEST STOP JUMPDEST PUSH2 0x1C1 PUSH2 0x748 JUMP JUMPDEST PUSH1 0x40 MLOAD PUSH2 0x1CE SWAP2 SWAP1 PUSH2 0x20D8 JUMP JUMPDEST PUSH1 0x40 MLOAD DUP1 SWAP2 SUB SWAP1 RETURN JUMPDEST PUSH2 0x1F1 PUSH1 0x4 DUP1 CALLDATASIZE SUB DUP2 ADD SWAP1 PUSH2 0x1EC SWAP2 SWAP1 PUSH2 0x20F1 JUMP JUMPDEST PUSH2 0x74E JUMP JUMPDEST PUSH1 0x40 MLOAD PUSH2 0x1FE SWAP2 SWAP1 PUSH2 0x2048 JUMP JUMPDEST PUSH1 0x40 MLOAD DUP1 SWAP2 SUB SWAP1 RETURN JUMPDEST PUSH2 0x20F PUSH2 0xAE4 JUMP JUMPDEST PUSH1 0x40 MLOAD PUSH2 0x21C SWAP2 SWAP1 PUSH2 0x215C JUMP JUMPDEST PUSH1 0x40 MLOAD DUP1 SWAP2 SUB SWAP1 RETURN JUMPDEST PUSH2 0x22D PUSH2 0xAF6 JUMP JUMPDEST STOP JUMPDEST PUSH2 0x249 PUSH1 0x4 DUP1 CALLDATASIZE SUB DUP2 ADD SWAP1 PUSH2 0x244 SWAP2 SWAP1 PUSH2 0x1FF0 JUMP JUMPDEST PUSH2 0xB08 JUMP JUMPDEST STOP JUMPDEST PUSH2 0x265 PUSH1 0x4 DUP1 CALLDATASIZE SUB DUP2 ADD SWAP1 PUSH2 0x260 SWAP2 SWAP1 PUSH2 0x2175 JUMP JUMPDEST PUSH2 0xD2A JUMP JUMPDEST STOP JUMPDEST PUSH2 0x281 PUSH1 0x4 DUP1 CALLDATASIZE SUB DUP2 ADD SWAP1 PUSH2 0x27C SWAP2 SWAP1 PUSH2 0x21A0 JUMP JUMPDEST PUSH2 0xF55 JUMP JUMPDEST PUSH1 0x40 MLOAD PUSH2 0x28E SWAP2 SWAP1 PUSH2 0x2048 JUMP JUMPDEST PUSH1 0x40 MLOAD DUP1 SWAP2 SUB SWAP1 RETURN JUMPDEST PUSH2 0x29F PUSH2 0xFA7 JUMP JUMPDEST PUSH1 0x40 MLOAD PUSH2 0x2AC SWAP2 SWAP1 PUSH2 0x2048 JUMP JUMPDEST PUSH1 0x40 MLOAD DUP1 SWAP2 SUB SWAP1 RETURN JUMPDEST PUSH2 0x2CF PUSH1 0x4 DUP1 CALLDATASIZE SUB DUP2 ADD SWAP1 PUSH2 0x2CA SWAP2 SWAP1 PUSH2 0x21A0 JUMP JUMPDEST PUSH2 0xFBC JUMP JUMPDEST PUSH1 0x40 MLOAD PUSH2 0x2DC SWAP2 SWAP1 PUSH2 0x20D8 JUMP JUMPDEST PUSH1 0x40 MLOAD DUP1 SWAP2 SUB SWAP1 RETURN JUMPDEST PUSH2 0x2ED PUSH2 0xFD1 JUMP JUMPDEST STOP JUMPDEST PUSH2 0x309 PUSH1 0x4 DUP1 CALLDATASIZE SUB DUP2 ADD SWAP1 PUSH2 0x304 SWAP2 SWAP1 PUSH2 0x1FF0 JUMP JUMPDEST PUSH2 0xFE4 JUMP JUMPDEST STOP JUMPDEST PUSH2 0x313 PUSH2 0x1218 JUMP JUMPDEST PUSH1 0x40 MLOAD PUSH2 0x325 SWAP7 SWAP6 SWAP5 SWAP4 SWAP3 SWAP2 SWAP1 PUSH2 0x21DA JUMP JUMPDEST PUSH1 0x40 MLOAD DUP1 SWAP2 SUB SWAP1 RETURN JUMPDEST PUSH2 0x336 PUSH2 0x136D JUMP JUMPDEST STOP JUMPDEST PUSH2 0x340 PUSH2 0x137F JUMP JUMPDEST PUSH1 0x40 MLOAD PUSH2 0x34D SWAP2 SWAP1 PUSH2 0x2247 JUMP JUMPDEST PUSH1 0x40 MLOAD DUP1 SWAP2 SUB SWAP1 RETURN JUMPDEST PUSH2 0x35E PUSH2 0x13A6 JUMP JUMPDEST PUSH1 0x40 MLOAD PUSH2 0x36B SWAP2 SWAP1 PUSH2 0x1F32 JUMP JUMPDEST PUSH1 0x40 MLOAD DUP1 SWAP2 SUB SWAP1 RETURN JUMPDEST PUSH2 0x38E PUSH1 0x4 DUP1 CALLDATASIZE SUB DUP2 ADD SWAP1 PUSH2 0x389 SWAP2 SWAP1 PUSH2 0x1FF0 JUMP JUMPDEST PUSH2 0x1432 JUMP JUMPDEST PUSH1 0x40 MLOAD PUSH2 0x39B SWAP2 SWAP1 PUSH2 0x2048 JUMP JUMPDEST PUSH1 0x40 MLOAD DUP1 SWAP2 SUB SWAP1 RETURN JUMPDEST PUSH2 0x3BE PUSH1 0x4 DUP1 CALLDATASIZE SUB DUP2 ADD SWAP1 PUSH2 0x3B9 SWAP2 SWAP1 PUSH2 0x23A0 JUMP JUMPDEST PUSH2 0x172B JUMP JUMPDEST STOP JUMPDEST PUSH2 0x3DA PUSH1 0x4 DUP1 CALLDATASIZE SUB DUP2 ADD SWAP1 PUSH2 0x3D5 SWAP2 SWAP1 PUSH2 0x23FA JUMP JUMPDEST PUSH2 0x1829 JUMP JUMPDEST PUSH1 0x40 MLOAD PUSH2 0x3E7 SWAP2 SWAP1 PUSH2 0x20D8 JUMP JUMPDEST PUSH1 0x40 MLOAD DUP1 SWAP2 SUB SWAP1 RETURN JUMPDEST PUSH2 0x40A PUSH1 0x4 DUP1 CALLDATASIZE SUB DUP2 ADD SWAP1 PUSH2 0x405 SWAP2 SWAP1 PUSH2 0x21A0 JUMP JUMPDEST PUSH2 0x1849 JUMP JUMPDEST STOP JUMPDEST PUSH2 0x426 PUSH1 0x4 DUP1 CALLDATASIZE SUB DUP2 ADD SWAP1 PUSH2 0x421 SWAP2 SWAP1 PUSH2 0x21A0 JUMP JUMPDEST PUSH2 0x18CD JUMP JUMPDEST PUSH1 0x40 MLOAD PUSH2 0x433 SWAP2 SWAP1 PUSH2 0x2048 JUMP JUMPDEST PUSH1 0x40 MLOAD DUP1 SWAP2 SUB SWAP1 RETURN JUMPDEST PUSH1 0x2 DUP1 SLOAD PUSH2 0x449 SWAP1 PUSH2 0x2465 JUMP JUMPDEST DUP1 PUSH1 0x1F ADD PUSH1 0x20 DUP1 SWAP2 DIV MUL PUSH1 0x20 ADD PUSH1 0x40 MLOAD SWAP1 DUP2 ADD PUSH1 0x40 MSTORE DUP1 SWAP3 SWAP2 SWAP1 DUP2 DUP2 MSTORE PUSH1 0x20 ADD DUP3 DUP1 SLOAD PUSH2 0x475 SWAP1 PUSH2 0x2465 JUMP JUMPDEST DUP1 ISZERO PUSH2 0x4C0 JUMPI DUP1 PUSH1 0x1F LT PUSH2 0x497 JUMPI PUSH2 0x100 DUP1 DUP4 SLOAD DIV MUL DUP4 MSTORE SWAP2 PUSH1 0x20 ADD SWAP2 PUSH2 0x4C0 JUMP JUMPDEST DUP3 ADD SWAP2 SWAP1 PUSH0 MSTORE PUSH1 0x20 PUSH0 KECCAK256 SWAP1 JUMPDEST DUP2 SLOAD DUP2 MSTORE SWAP1 PUSH1 0x1 ADD SWAP1 PUSH1 0x20 ADD DUP1 DUP4 GT PUSH2 0x4A3 JUMPI DUP3 SWAP1 SUB PUSH1 0x1F AND DUP3 ADD SWAP2 JUMPDEST POP POP POP POP POP DUP2 JUMP JUMPDEST PUSH0 PUSH2 0x4D1 PUSH2 0x18EA JUMP JUMPDEST PUSH1 0x8 PUSH0 CALLER PUSH20 0xFFFFFFFFFFFFFFFFFFFFFFFFFFFFFFFFFFFFFFFF AND PUSH20 0xFFFFFFFFFFFFFFFFFFFFFFFFFFFFFFFFFFFFFFFF AND DUP2 MSTORE PUSH1 0x20 ADD SWAP1 DUP2 MSTORE PUSH1 0x20 ADD PUSH0 KECCAK256 PUSH0 SWAP1 SLOAD SWAP1 PUSH2 0x100 EXP SWAP1 DIV PUSH1 0xFF AND ISZERO DUP1 ISZERO PUSH2 0x56F JUMPI POP PUSH1 0x8 PUSH0 DUP5 PUSH20 0xFFFFFFFFFFFFFFFFFFFFFFFFFFFFFFFFFFFFFFFF AND PUSH20 0xFFFFFFFFFFFFFFFFFFFFFFFFFFFFFFFFFFFFFFFF AND DUP2 MSTORE PUSH1 0x20 ADD SWAP1 DUP2 MSTORE PUSH1 0x20 ADD PUSH0 KECCAK256 PUSH0 SWAP1 SLOAD SWAP1 PUSH2 0x100 EXP SWAP1 DIV PUSH1 0xFF AND ISZERO JUMPDEST PUSH2 0x5AE JUMPI PUSH1 0x40 MLOAD PUSH32 0x8C379A000000000000000000000000000000000000000000000000000000000 DUP2 MSTORE PUSH1 0x4 ADD PUSH2 0x5A5 SWAP1 PUSH2 0x24DF JUMP JUMPDEST PUSH1 0x40 MLOAD DUP1 SWAP2 SUB SWAP1 REVERT JUMPDEST DUP2 PUSH1 0x7 PUSH0 CALLER PUSH20 0xFFFFFFFFFFFFFFFFFFFFFFFFFFFFFFFFFFFFFFFF AND PUSH20 0xFFFFFFFFFFFFFFFFFFFFFFFFFFFFFFFFFFFFFFFF AND DUP2 MSTORE PUSH1 0x20 ADD SWAP1 DUP2 MSTORE PUSH1 0x20 ADD PUSH0 KECCAK256 PUSH0 DUP6 PUSH20 0xFFFFFFFFFFFFFFFFFFFFFFFFFFFFFFFFFFFFFFFF AND PUSH20 0xFFFFFFFFFFFFFFFFFFFFFFFFFFFFFFFFFFFFFFFF AND DUP2 MSTORE PUSH1 0x20 ADD SWAP1 DUP2 MSTORE PUSH1 0x20 ADD PUSH0 KECCAK256 DUP2 SWAP1 SSTORE POP DUP3 PUSH20 0xFFFFFFFFFFFFFFFFFFFFFFFFFFFFFFFFFFFFFFFF AND CALLER PUSH20 0xFFFFFFFFFFFFFFFFFFFFFFFFFFFFFFFFFFFFFFFF AND PUSH32 0x8C5BE1E5EBEC7D5BD14F71427D1E84F3DD0314C0F7B2291E5B200AC8C7C3B925 DUP5 PUSH1 0x40 MLOAD PUSH2 0x688 SWAP2 SWAP1 PUSH2 0x20D8 JUMP JUMPDEST PUSH1 0x40 MLOAD DUP1 SWAP2 SUB SWAP1 LOG3 PUSH1 0x1 SWAP1 POP SWAP3 SWAP2 POP POP JUMP JUMPDEST PUSH2 0x6A2 PUSH2 0x1934 JUMP JUMPDEST DUP1 PUSH1 0x8 PUSH0 DUP5 PUSH20 0xFFFFFFFFFFFFFFFFFFFFFFFFFFFFFFFFFFFFFFFF AND PUSH20 0xFFFFFFFFFFFFFFFFFFFFFFFFFFFFFFFFFFFFFFFF AND DUP2 MSTORE PUSH1 0x20 ADD SWAP1 DUP2 MSTORE PUSH1 0x20 ADD PUSH0 KECCAK256 PUSH0 PUSH2 0x100 EXP DUP2 SLOAD DUP2 PUSH1 0xFF MUL NOT AND SWAP1 DUP4 ISZERO ISZERO MUL OR SWAP1 SSTORE POP DUP2 PUSH20 0xFFFFFFFFFFFFFFFFFFFFFFFFFFFFFFFFFFFFFFFF AND PUSH32 0x97B7AF35C8C05ECA90F543EB78B16FDF2664D3E6C9A907286F310647D9813B71 DUP3 PUSH1 0x40 MLOAD PUSH2 0x73C SWAP2 SWAP1 PUSH2 0x2048 JUMP JUMPDEST PUSH1 0x40 MLOAD DUP1 SWAP2 SUB SWAP1 LOG2 POP POP JUMP JUMPDEST PUSH1 0x5 SLOAD DUP2 JUMP JUMPDEST PUSH0 PUSH2 0x757 PUSH2 0x18EA JUMP JUMPDEST PUSH2 0x75F PUSH2 0x19BB JUMP JUMPDEST PUSH0 PUSH20 0xFFFFFFFFFFFFFFFFFFFFFFFFFFFFFFFFFFFFFFFF AND DUP4 PUSH20 0xFFFFFFFFFFFFFFFFFFFFFFFFFFFFFFFFFFFFFFFF AND SUB PUSH2 0x7CD JUMPI PUSH1 0x40 MLOAD PUSH32 0x8C379A000000000000000000000000000000000000000000000000000000000 DUP2 MSTORE PUSH1 0x4 ADD PUSH2 0x7C4 SWAP1 PUSH2 0x2547 JUMP JUMPDEST PUSH1 0x40 MLOAD DUP1 SWAP2 SUB SWAP1 REVERT JUMPDEST PUSH1 0x8 PUSH0 DUP6 PUSH20 0xFFFFFFFFFFFFFFFFFFFFFFFFFFFFFFFFFFFFFFFF AND PUSH20 0xFFFFFFFFFFFFFFFFFFFFFFFFFFFFFFFFFFFFFFFF AND DUP2 MSTORE PUSH1 0x20 ADD SWAP1 DUP2 MSTORE PUSH1 0x20 ADD PUSH0 KECCAK256 PUSH0 SWAP1 SLOAD SWAP1 PUSH2 0x100 EXP SWAP1 DIV PUSH1 0xFF AND ISZERO DUP1 ISZERO PUSH2 0x86B JUMPI POP PUSH1 0x8 PUSH0 DUP5 PUSH20 0xFFFFFFFFFFFFFFFFFFFFFFFFFFFFFFFFFFFFFFFF AND PUSH20 0xFFFFFFFFFFFFFFFFFFFFFFFFFFFFFFFFFFFFFFFF AND DUP2 MSTORE PUSH1 0x20 ADD SWAP1 DUP2 MSTORE PUSH1 0x20 ADD PUSH0 KECCAK256 PUSH0 SWAP1 SLOAD SWAP1 PUSH2 0x100 EXP SWAP1 DIV PUSH1 0xFF AND ISZERO JUMPDEST DUP1 ISZERO PUSH2 0x8BE JUMPI POP PUSH1 0x8 PUSH0 CALLER PUSH20 0xFFFFFFFFFFFFFFFFFFFFFFFFFFFFFFFFFFFFFFFF AND PUSH20 0xFFFFFFFFFFFFFFFFFFFFFFFFFFFFFFFFFFFFFFFF AND DUP2 MSTORE PUSH1 0x20 ADD SWAP1 DUP2 MSTORE PUSH1 0x20 ADD PUSH0 KECCAK256 PUSH0 SWAP1 SLOAD SWAP1 PUSH2 0x100 EXP SWAP1 DIV PUSH1 0xFF AND ISZERO JUMPDEST PUSH2 0x8FD JUMPI PUSH1 0x40 MLOAD PUSH32 0x8C379A000000000000000000000000000000000000000000000000000000000 DUP2 MSTORE PUSH1 0x4 ADD PUSH2 0x8F4 SWAP1 PUSH2 0x24DF JUMP JUMPDEST PUSH1 0x40 MLOAD DUP1 SWAP2 SUB SWAP1 REVERT JUMPDEST DUP2 PUSH1 0x6 PUSH0 DUP7 PUSH20 0xFFFFFFFFFFFFFFFFFFFFFFFFFFFFFFFFFFFFFFFF AND PUSH20 0xFFFFFFFFFFFFFFFFFFFFFFFFFFFFFFFFFFFFFFFF AND DUP2 MSTORE PUSH1 0x20 ADD SWAP1 DUP2 MSTORE PUSH1 0x20 ADD PUSH0 KECCAK256 SLOAD LT ISZERO PUSH2 0x97D JUMPI PUSH1 0x40 MLOAD PUSH32 0x8C379A000000000000000000000000000000000000000000000000000000000 DUP2 MSTORE PUSH1 0x4 ADD PUSH2 0x974 SWAP1 PUSH2 0x25AF JUMP JUMPDEST PUSH1 0x40 MLOAD DUP1 SWAP2 SUB SWAP1 REVERT JUMPDEST DUP2 PUSH1 0x7 PUSH0 DUP7 PUSH20 0xFFFFFFFFFFFFFFFFFFFFFFFFFFFFFFFFFFFFFFFF AND PUSH20 0xFFFFFFFFFFFFFFFFFFFFFFFFFFFFFFFFFFFFFFFF AND DUP2 MSTORE PUSH1 0x20 ADD SWAP1 DUP2 MSTORE PUSH1 0x20 ADD PUSH0 KECCAK256 PUSH0 CALLER PUSH20 0xFFFFFFFFFFFFFFFFFFFFFFFFFFFFFFFFFFFFFFFF AND PUSH20 0xFFFFFFFFFFFFFFFFFFFFFFFFFFFFFFFFFFFFFFFF AND DUP2 MSTORE PUSH1 0x20 ADD SWAP1 DUP2 MSTORE PUSH1 0x20 ADD PUSH0 KECCAK256 SLOAD LT ISZERO PUSH2 0xA38 JUMPI PUSH1 0x40 MLOAD PUSH32 0x8C379A000000000000000000000000000000000000000000000000000000000 DUP2 MSTORE PUSH1 0x4 ADD PUSH2 0xA2F SWAP1 PUSH2 0x2617 JUMP JUMPDEST PUSH1 0x40 MLOAD DUP1 SWAP2 SUB SWAP1 REVERT JUMPDEST DUP2 PUSH1 0x7 PUSH0 DUP7 PUSH20 0xFFFFFFFFFFFFFFFFFFFFFFFFFFFFFFFFFFFFFFFF AND PUSH20 0xFFFFFFFFFFFFFFFFFFFFFFFFFFFFFFFFFFFFFFFF AND DUP2 MSTORE PUSH1 0x20 ADD SWAP1 DUP2 MSTORE PUSH1 0x20 ADD PUSH0 KECCAK256 PUSH0 CALLER PUSH20 0xFFFFFFFFFFFFFFFFFFFFFFFFFFFFFFFFFFFFFFFF AND PUSH20 0xFFFFFFFFFFFFFFFFFFFFFFFFFFFFFFFFFFFFFFFF AND DUP2 MSTORE PUSH1 0x20 ADD SWAP1 DUP2 MSTORE PUSH1 0x20 ADD PUSH0 KECCAK256 PUSH0 DUP3 DUP3 SLOAD PUSH2 0xABF SWAP2 SWAP1 PUSH2 0x2662 JUMP JUMPDEST SWAP3 POP POP DUP2 SWAP1 SSTORE POP PUSH2 0xAD1 DUP5 DUP5 DUP5 PUSH2 0x1A0A JUMP JUMPDEST PUSH1 0x1 SWAP1 POP PUSH2 0xADD PUSH2 0x1CE5 JUMP JUMPDEST SWAP4 SWAP3 POP POP POP JUMP JUMPDEST PUSH1 0x4 PUSH0 SWAP1 SLOAD SWAP1 PUSH2 0x100 EXP SWAP1 DIV PUSH1 0xFF AND DUP2 JUMP JUMPDEST PUSH2 0xAFE PUSH2 0x1934 JUMP JUMPDEST PUSH2 0xB06 PUSH2 0x1CEE JUMP JUMPDEST JUMP JUMPDEST PUSH2 0xB10 PUSH2 0x1934 JUMP JUMPDEST PUSH0 PUSH20 0xFFFFFFFFFFFFFFFFFFFFFFFFFFFFFFFFFFFFFFFF AND DUP3 PUSH20 0xFFFFFFFFFFFFFFFFFFFFFFFFFFFFFFFFFFFFFFFF AND SUB PUSH2 0xB7E JUMPI PUSH1 0x40 MLOAD PUSH32 0x8C379A000000000000000000000000000000000000000000000000000000000 DUP2 MSTORE PUSH1 0x4 ADD PUSH2 0xB75 SWAP1 PUSH2 0x2547 JUMP JUMPDEST PUSH1 0x40 MLOAD DUP1 SWAP2 SUB SWAP1 REVERT JUMPDEST PUSH1 0x8 PUSH0 DUP4 PUSH20 0xFFFFFFFFFFFFFFFFFFFFFFFFFFFFFFFFFFFFFFFF AND PUSH20 0xFFFFFFFFFFFFFFFFFFFFFFFFFFFFFFFFFFFFFFFF AND DUP2 MSTORE PUSH1 0x20 ADD SWAP1 DUP2 MSTORE PUSH1 0x20 ADD PUSH0 KECCAK256 PUSH0 SWAP1 SLOAD SWAP1 PUSH2 0x100 EXP SWAP1 DIV PUSH1 0xFF AND ISZERO PUSH2 0xC08 JUMPI PUSH1 0x40 MLOAD PUSH32 0x8C379A000000000000000000000000000000000000000000000000000000000 DUP2 MSTORE PUSH1 0x4 ADD PUSH2 0xBFF SWAP1 PUSH2 0x24DF JUMP JUMPDEST PUSH1 0x40 MLOAD DUP1 SWAP2 SUB SWAP1 REVERT JUMPDEST DUP1 PUSH1 0x5 PUSH0 DUP3 DUP3 SLOAD PUSH2 0xC19 SWAP2 SWAP1 PUSH2 0x2695 JUMP JUMPDEST SWAP3 POP POP DUP2 SWAP1 SSTORE POP DUP1 PUSH1 0x6 PUSH0 DUP5 PUSH20 0xFFFFFFFFFFFFFFFFFFFFFFFFFFFFFFFFFFFFFFFF AND PUSH20 0xFFFFFFFFFFFFFFFFFFFFFFFFFFFFFFFFFFFFFFFF AND DUP2 MSTORE PUSH1 0x20 ADD SWAP1 DUP2 MSTORE PUSH1 0x20 ADD PUSH0 KECCAK256 PUSH0 DUP3 DUP3 SLOAD PUSH2 0xC6C SWAP2 SWAP1 PUSH2 0x2695 JUMP JUMPDEST SWAP3 POP POP DUP2 SWAP1 SSTORE POP DUP2 PUSH20 0xFFFFFFFFFFFFFFFFFFFFFFFFFFFFFFFFFFFFFFFF AND PUSH32 0x3F2C9D57C068687834F0DE942A9BABB9E5ACAB57D516D3480A3C16EE165A4273 DUP3 PUSH1 0x40 MLOAD PUSH2 0xCB9 SWAP2 SWAP1 PUSH2 0x20D8 JUMP JUMPDEST PUSH1 0x40 MLOAD DUP1 SWAP2 SUB SWAP1 LOG2 DUP2 PUSH20 0xFFFFFFFFFFFFFFFFFFFFFFFFFFFFFFFFFFFFFFFF AND PUSH0 PUSH20 0xFFFFFFFFFFFFFFFFFFFFFFFFFFFFFFFFFFFFFFFF AND PUSH32 0xDDF252AD1BE2C89B69C2B068FC378DAA952BA7F163C4A11628F55A4DF523B3EF DUP4 PUSH1 0x40 MLOAD PUSH2 0xD1E SWAP2 SWAP1 PUSH2 0x20D8 JUMP JUMPDEST PUSH1 0x40 MLOAD DUP1 SWAP2 SUB SWAP1 LOG3 POP POP JUMP JUMPDEST DUP1 PUSH1 0x6 PUSH0 CALLER PUSH20 0xFFFFFFFFFFFFFFFFFFFFFFFFFFFFFFFFFFFFFFFF AND PUSH20 0xFFFFFFFFFFFFFFFFFFFFFFFFFFFFFFFFFFFFFFFF AND DUP2 MSTORE PUSH1 0x20 ADD SWAP1 DUP2 MSTORE PUSH1 0x20 ADD PUSH0 KECCAK256 SLOAD LT ISZERO PUSH2 0xDAA JUMPI PUSH1 0x40 MLOAD PUSH32 0x8C379A000000000000000000000000000000000000000000000000000000000 DUP2 MSTORE PUSH1 0x4 ADD PUSH2 0xDA1 SWAP1 PUSH2 0x25AF JUMP JUMPDEST PUSH1 0x40 MLOAD DUP1 SWAP2 SUB SWAP1 REVERT JUMPDEST PUSH1 0x8 PUSH0 CALLER PUSH20 0xFFFFFFFFFFFFFFFFFFFFFFFFFFFFFFFFFFFFFFFF AND PUSH20 0xFFFFFFFFFFFFFFFFFFFFFFFFFFFFFFFFFFFFFFFF AND DUP2 MSTORE PUSH1 0x20 ADD SWAP1 DUP2 MSTORE PUSH1 0x20 ADD PUSH0 KECCAK256 PUSH0 SWAP1 SLOAD SWAP1 PUSH2 0x100 EXP SWAP1 DIV PUSH1 0xFF AND ISZERO PUSH2 0xE34 JUMPI PUSH1 0x40 MLOAD PUSH32 0x8C379A000000000000000000000000000000000000000000000000000000000 DUP2 MSTORE PUSH1 0x4 ADD PUSH2 0xE2B SWAP1 PUSH2 0x24DF JUMP JUMPDEST PUSH1 0x40 MLOAD DUP1 SWAP2 SUB SWAP1 REVERT JUMPDEST DUP1 PUSH1 0x5 PUSH0 DUP3 DUP3 SLOAD PUSH2 0xE45 SWAP2 SWAP1 PUSH2 0x2662 JUMP JUMPDEST SWAP3 POP POP DUP2 SWAP1 SSTORE POP DUP1 PUSH1 0x6 PUSH0 CALLER PUSH20 0xFFFFFFFFFFFFFFFFFFFFFFFFFFFFFFFFFFFFFFFF AND PUSH20 0xFFFFFFFFFFFFFFFFFFFFFFFFFFFFFFFFFFFFFFFF AND DUP2 MSTORE PUSH1 0x20 ADD SWAP1 DUP2 MSTORE PUSH1 0x20 ADD PUSH0 KECCAK256 PUSH0 DUP3 DUP3 SLOAD PUSH2 0xE98 SWAP2 SWAP1 PUSH2 0x2662 JUMP JUMPDEST SWAP3 POP POP DUP2 SWAP1 SSTORE POP CALLER PUSH20 0xFFFFFFFFFFFFFFFFFFFFFFFFFFFFFFFFFFFFFFFF AND PUSH32 0xFD38818F5291BF0BB3A2A48AADC06BA8757865D1DABD804585338AAB3009DCB6 DUP3 PUSH1 0x40 MLOAD PUSH2 0xEE5 SWAP2 SWAP1 PUSH2 0x20D8 JUMP JUMPDEST PUSH1 0x40 MLOAD DUP1 SWAP2 SUB SWAP1 LOG2 PUSH0 PUSH20 0xFFFFFFFFFFFFFFFFFFFFFFFFFFFFFFFFFFFFFFFF AND CALLER PUSH20 0xFFFFFFFFFFFFFFFFFFFFFFFFFFFFFFFFFFFFFFFF AND PUSH32 0xDDF252AD1BE2C89B69C2B068FC378DAA952BA7F163C4A11628F55A4DF523B3EF DUP4 PUSH1 0x40 MLOAD PUSH2 0xF4A SWAP2 SWAP1 PUSH2 0x20D8 JUMP JUMPDEST PUSH1 0x40 MLOAD DUP1 SWAP2 SUB SWAP1 LOG3 POP JUMP JUMPDEST PUSH0 PUSH1 0x8 PUSH0 DUP4 PUSH20 0xFFFFFFFFFFFFFFFFFFFFFFFFFFFFFFFFFFFFFFFF AND PUSH20 0xFFFFFFFFFFFFFFFFFFFFFFFFFFFFFFFFFFFFFFFF AND DUP2 MSTORE PUSH1 0x20 ADD SWAP1 DUP2 MSTORE PUSH1 0x20 ADD PUSH0 KECCAK256 PUSH0 SWAP1 SLOAD SWAP1 PUSH2 0x100 EXP SWAP1 DIV PUSH1 0xFF AND SWAP1 POP SWAP2 SWAP1 POP JUMP JUMPDEST PUSH0 PUSH0 PUSH1 0x14 SWAP1 SLOAD SWAP1 PUSH2 0x100 EXP SWAP1 DIV PUSH1 0xFF AND SWAP1 POP SWAP1 JUMP JUMPDEST PUSH1 0x6 PUSH1 0x20 MSTORE DUP1 PUSH0 MSTORE PUSH1 0x40 PUSH0 KECCAK256 PUSH0 SWAP2 POP SWAP1 POP SLOAD DUP2 JUMP JUMPDEST PUSH2 0xFD9 PUSH2 0x1934 JUMP JUMPDEST PUSH2 0xFE2 PUSH0 PUSH2 0x1D4F JUMP JUMPDEST JUMP JUMPDEST PUSH2 0xFEC PUSH2 0x1934 JUMP JUMPDEST DUP1 PUSH1 0x6 PUSH0 DUP5 PUSH20 0xFFFFFFFFFFFFFFFFFFFFFFFFFFFFFFFFFFFFFFFF AND PUSH20 0xFFFFFFFFFFFFFFFFFFFFFFFFFFFFFFFFFFFFFFFF AND DUP2 MSTORE PUSH1 0x20 ADD SWAP1 DUP2 MSTORE PUSH1 0x20 ADD PUSH0 KECCAK256 SLOAD LT ISZERO PUSH2 0x106C JUMPI PUSH1 0x40 MLOAD PUSH32 0x8C379A000000000000000000000000000000000000000000000000000000000 DUP2 MSTORE PUSH1 0x4 ADD PUSH2 0x1063 SWAP1 PUSH2 0x25AF JUMP JUMPDEST PUSH1 0x40 MLOAD DUP1 SWAP2 SUB SWAP1 REVERT JUMPDEST PUSH1 0x8 PUSH0 DUP4 PUSH20 0xFFFFFFFFFFFFFFFFFFFFFFFFFFFFFFFFFFFFFFFF AND PUSH20 0xFFFFFFFFFFFFFFFFFFFFFFFFFFFFFFFFFFFFFFFF AND DUP2 MSTORE PUSH1 0x20 ADD SWAP1 DUP2 MSTORE PUSH1 0x20 ADD PUSH0 KECCAK256 PUSH0 SWAP1 SLOAD SWAP1 PUSH2 0x100 EXP SWAP1 DIV PUSH1 0xFF AND ISZERO PUSH2 0x10F6 JUMPI PUSH1 0x40 MLOAD PUSH32 0x8C379A000000000000000000000000000000000000000000000000000000000 DUP2 MSTORE PUSH1 0x4 ADD PUSH2 0x10ED SWAP1 PUSH2 0x24DF JUMP JUMPDEST PUSH1 0x40 MLOAD DUP1 SWAP2 SUB SWAP1 REVERT JUMPDEST DUP1 PUSH1 0x5 PUSH0 DUP3 DUP3 SLOAD PUSH2 0x1107 SWAP2 SWAP1 PUSH2 0x2662 JUMP JUMPDEST SWAP3 POP POP DUP2 SWAP1 SSTORE POP DUP1 PUSH1 0x6 PUSH0 DUP5 PUSH20 0xFFFFFFFFFFFFFFFFFFFFFFFFFFFFFFFFFFFFFFFF AND PUSH20 0xFFFFFFFFFFFFFFFFFFFFFFFFFFFFFFFFFFFFFFFF AND DUP2 MSTORE PUSH1 0x20 ADD SWAP1 DUP2 MSTORE PUSH1 0x20 ADD PUSH0 KECCAK256 PUSH0 DUP3 DUP3 SLOAD PUSH2 0x115A SWAP2 SWAP1 PUSH2 0x2662 JUMP JUMPDEST SWAP3 POP POP DUP2 SWAP1 SSTORE POP DUP2 PUSH20 0xFFFFFFFFFFFFFFFFFFFFFFFFFFFFFFFFFFFFFFFF AND PUSH32 0xFD38818F5291BF0BB3A2A48AADC06BA8757865D1DABD804585338AAB3009DCB6 DUP3 PUSH1 0x40 MLOAD PUSH2 0x11A7 SWAP2 SWAP1 PUSH2 0x20D8 JUMP JUMPDEST PUSH1 0x40 MLOAD DUP1 SWAP2 SUB SWAP1 LOG2 PUSH0 PUSH20 0xFFFFFFFFFFFFFFFFFFFFFFFFFFFFFFFFFFFFFFFF AND DUP3 PUSH20 0xFFFFFFFFFFFFFFFFFFFFFFFFFFFFFFFFFFFFFFFF AND PUSH32 0xDDF252AD1BE2C89B69C2B068FC378DAA952BA7F163C4A11628F55A4DF523B3EF DUP4 PUSH1 0x40 MLOAD PUSH2 0x120C SWAP2 SWAP1 PUSH2 0x20D8 JUMP JUMPDEST PUSH1 0x40 MLOAD DUP1 SWAP2 SUB SWAP1 LOG3 POP POP JUMP JUMPDEST PUSH1 0x60 DUP1 PUSH0 PUSH0 PUSH0 PUSH0 PUSH1 0x2 PUSH1 0x3 PUSH1 0x4 PUSH0 SWAP1 SLOAD SWAP1 PUSH2 0x100 EXP SWAP1 DIV PUSH1 0xFF AND PUSH1 0x5 SLOAD PUSH2 0x123D PUSH2 0xFA7 JUMP JUMPDEST PUSH2 0x1245 PUSH2 0x137F JUMP JUMPDEST DUP6 DUP1 SLOAD PUSH2 0x1251 SWAP1 PUSH2 0x2465 JUMP JUMPDEST DUP1 PUSH1 0x1F ADD PUSH1 0x20 DUP1 SWAP2 DIV MUL PUSH1 0x20 ADD PUSH1 0x40 MLOAD SWAP1 DUP2 ADD PUSH1 0x40 MSTORE DUP1 SWAP3 SWAP2 SWAP1 DUP2 DUP2 MSTORE PUSH1 0x20 ADD DUP3 DUP1 SLOAD PUSH2 0x127D SWAP1 PUSH2 0x2465 JUMP JUMPDEST DUP1 ISZERO PUSH2 0x12C8 JUMPI DUP1 PUSH1 0x1F LT PUSH2 0x129F JUMPI PUSH2 0x100 DUP1 DUP4 SLOAD DIV MUL DUP4 MSTORE SWAP2 PUSH1 0x20 ADD SWAP2 PUSH2 0x12C8 JUMP JUMPDEST DUP3 ADD SWAP2 SWAP1 PUSH0 MSTORE PUSH1 0x20 PUSH0 KECCAK256 SWAP1 JUMPDEST DUP2 SLOAD DUP2 MSTORE SWAP1 PUSH1 0x1 ADD SWAP1 PUSH1 0x20 ADD DUP1 DUP4 GT PUSH2 0x12AB JUMPI DUP3 SWAP1 SUB PUSH1 0x1F AND DUP3 ADD SWAP2 JUMPDEST POP POP POP POP POP SWAP6 POP DUP5 DUP1 SLOAD PUSH2 0x12DB SWAP1 PUSH2 0x2465 JUMP JUMPDEST DUP1 PUSH1 0x1F ADD PUSH1 0x20 DUP1 SWAP2 DIV MUL PUSH1 0x20 ADD PUSH1 0x40 MLOAD SWAP1 DUP2 ADD PUSH1 0x40 MSTORE DUP1 SWAP3 SWAP2 SWAP1 DUP2 DUP2 MSTORE PUSH1 0x20 ADD DUP3 DUP1 SLOAD PUSH2 0x1307 SWAP1 PUSH2 0x2465 JUMP JUMPDEST DUP1 ISZERO PUSH2 0x1352 JUMPI DUP1 PUSH1 0x1F LT PUSH2 0x1329 JUMPI PUSH2 0x100 DUP1 DUP4 SLOAD DIV MUL DUP4 MSTORE SWAP2 PUSH1 0x20 ADD SWAP2 PUSH2 0x1352 JUMP JUMPDEST DUP3 ADD SWAP2 SWAP1 PUSH0 MSTORE PUSH1 0x20 PUSH0 KECCAK256 SWAP1 JUMPDEST DUP2 SLOAD DUP2 MSTORE SWAP1 PUSH1 0x1 ADD SWAP1 PUSH1 0x20 ADD DUP1 DUP4 GT PUSH2 0x1335 JUMPI DUP3 SWAP1 SUB PUSH1 0x1F AND DUP3 ADD SWAP2 JUMPDEST POP POP POP POP POP SWAP5 POP SWAP6 POP SWAP6 POP SWAP6 POP SWAP6 POP SWAP6 POP SWAP6 POP SWAP1 SWAP2 SWAP3 SWAP4 SWAP5 SWAP6 JUMP JUMPDEST PUSH2 0x1375 PUSH2 0x1934 JUMP JUMPDEST PUSH2 0x137D PUSH2 0x1E10 JUMP JUMPDEST JUMP JUMPDEST PUSH0 PUSH0 PUSH0 SWAP1 SLOAD SWAP1 PUSH2 0x100 EXP SWAP1 DIV PUSH20 0xFFFFFFFFFFFFFFFFFFFFFFFFFFFFFFFFFFFFFFFF AND SWAP1 POP SWAP1 JUMP JUMPDEST PUSH1 0x3 DUP1 SLOAD PUSH2 0x13B3 SWAP1 PUSH2 0x2465 JUMP JUMPDEST DUP1 PUSH1 0x1F ADD PUSH1 0x20 DUP1 SWAP2 DIV MUL PUSH1 0x20 ADD PUSH1 0x40 MLOAD SWAP1 DUP2 ADD PUSH1 0x40 MSTORE DUP1 SWAP3 SWAP2 SWAP1 DUP2 DUP2 MSTORE PUSH1 0x20 ADD DUP3 DUP1 SLOAD PUSH2 0x13DF SWAP1 PUSH2 0x2465 JUMP JUMPDEST DUP1 ISZERO PUSH2 0x142A JUMPI DUP1 PUSH1 0x1F LT PUSH2 0x1401 JUMPI PUSH2 0x100 DUP1 DUP4 SLOAD DIV MUL DUP4 MSTORE SWAP2 PUSH1 0x20 ADD SWAP2 PUSH2 0x142A JUMP JUMPDEST DUP3 ADD SWAP2 SWAP1 PUSH0 MSTORE PUSH1 0x20 PUSH0 KECCAK256 SWAP1 JUMPDEST DUP2 SLOAD DUP2 MSTORE SWAP1 PUSH1 0x1 ADD SWAP1 PUSH1 0x20 ADD DUP1 DUP4 GT PUSH2 0x140D JUMPI DUP3 SWAP1 SUB PUSH1 0x1F AND DUP3 ADD SWAP2 JUMPDEST POP POP POP POP POP DUP2 JUMP JUMPDEST PUSH0 PUSH2 0x143B PUSH2 0x18EA JUMP JUMPDEST PUSH2 0x1443 PUSH2 0x19BB JUMP JUMPDEST PUSH0 PUSH20 0xFFFFFFFFFFFFFFFFFFFFFFFFFFFFFFFFFFFFFFFF AND DUP4 PUSH20 0xFFFFFFFFFFFFFFFFFFFFFFFFFFFFFFFFFFFFFFFF AND SUB PUSH2 0x14B1 JUMPI PUSH1 0x40 MLOAD PUSH32 0x8C379A000000000000000000000000000000000000000000000000000000000 DUP2 MSTORE PUSH1 0x4 ADD PUSH2 0x14A8 SWAP1 PUSH2 0x2547 JUMP JUMPDEST PUSH1 0x40 MLOAD DUP1 SWAP2 SUB SWAP1 REVERT JUMPDEST PUSH1 0x8 PUSH0 CALLER PUSH20 0xFFFFFFFFFFFFFFFFFFFFFFFFFFFFFFFFFFFFFFFF AND PUSH20 0xFFFFFFFFFFFFFFFFFFFFFFFFFFFFFFFFFFFFFFFF AND DUP2 MSTORE PUSH1 0x20 ADD SWAP1 DUP2 MSTORE PUSH1 0x20 ADD PUSH0 KECCAK256 PUSH0 SWAP1 SLOAD SWAP1 PUSH2 0x100 EXP SWAP1 DIV PUSH1 0xFF AND ISZERO DUP1 ISZERO PUSH2 0x154F JUMPI POP PUSH1 0x8 PUSH0 DUP5 PUSH20 0xFFFFFFFFFFFFFFFFFFFFFFFFFFFFFFFFFFFFFFFF AND PUSH20 0xFFFFFFFFFFFFFFFFFFFFFFFFFFFFFFFFFFFFFFFF AND DUP2 MSTORE PUSH1 0x20 ADD SWAP1 DUP2 MSTORE PUSH1 0x20 ADD PUSH0 KECCAK256 PUSH0 SWAP1 SLOAD SWAP1 PUSH2 0x100 EXP SWAP1 DIV PUSH1 0xFF AND ISZERO JUMPDEST PUSH2 0x158E JUMPI PUSH1 0x40 MLOAD PUSH32 0x8C379A000000000000000000000000000000000000000000000000000000000 DUP2 MSTORE PUSH1 0x4 ADD PUSH2 0x1585 SWAP1 PUSH2 0x24DF JUMP JUMPDEST PUSH1 0x40 MLOAD DUP1 SWAP2 SUB SWAP1 REVERT JUMPDEST DUP2 PUSH1 0x6 PUSH0 CALLER PUSH20 0xFFFFFFFFFFFFFFFFFFFFFFFFFFFFFFFFFFFFFFFF AND PUSH20 0xFFFFFFFFFFFFFFFFFFFFFFFFFFFFFFFFFFFFFFFF AND DUP2 MSTORE PUSH1 0x20 ADD SWAP1 DUP2 MSTORE PUSH1 0x20 ADD PUSH0 KECCAK256 SLOAD LT ISZERO PUSH2 0x160E JUMPI PUSH1 0x40 MLOAD PUSH32 0x8C379A000000000000000000000000000000000000000000000000000000000 DUP2 MSTORE PUSH1 0x4 ADD PUSH2 0x1605 SWAP1 PUSH2 0x25AF JUMP JUMPDEST PUSH1 0x40 MLOAD DUP1 SWAP2 SUB SWAP1 REVERT JUMPDEST DUP2 PUSH1 0x6 PUSH0 CALLER PUSH20 0xFFFFFFFFFFFFFFFFFFFFFFFFFFFFFFFFFFFFFFFF AND PUSH20 0xFFFFFFFFFFFFFFFFFFFFFFFFFFFFFFFFFFFFFFFF AND DUP2 MSTORE PUSH1 0x20 ADD SWAP1 DUP2 MSTORE PUSH1 0x20 ADD PUSH0 KECCAK256 PUSH0 DUP3 DUP3 SLOAD PUSH2 0x165A SWAP2 SWAP1 PUSH2 0x2662 JUMP JUMPDEST SWAP3 POP POP DUP2 SWAP1 SSTORE POP DUP2 PUSH1 0x6 PUSH0 DUP6 PUSH20 0xFFFFFFFFFFFFFFFFFFFFFFFFFFFFFFFFFFFFFFFF AND PUSH20 0xFFFFFFFFFFFFFFFFFFFFFFFFFFFFFFFFFFFFFFFF AND DUP2 MSTORE PUSH1 0x20 ADD SWAP1 DUP2 MSTORE PUSH1 0x20 ADD PUSH0 KECCAK256 PUSH0 DUP3 DUP3 SLOAD PUSH2 0x16AD SWAP2 SWAP1 PUSH2 0x2695 JUMP JUMPDEST SWAP3 POP POP DUP2 SWAP1 SSTORE POP DUP3 PUSH20 0xFFFFFFFFFFFFFFFFFFFFFFFFFFFFFFFFFFFFFFFF AND CALLER PUSH20 0xFFFFFFFFFFFFFFFFFFFFFFFFFFFFFFFFFFFFFFFF AND PUSH32 0xDDF252AD1BE2C89B69C2B068FC378DAA952BA7F163C4A11628F55A4DF523B3EF DUP5 PUSH1 0x40 MLOAD PUSH2 0x1711 SWAP2 SWAP1 PUSH2 0x20D8 JUMP JUMPDEST PUSH1 0x40 MLOAD DUP1 SWAP2 SUB SWAP1 LOG3 PUSH1 0x1 SWAP1 POP PUSH2 0x1725 PUSH2 0x1CE5 JUMP JUMPDEST SWAP3 SWAP2 POP POP JUMP JUMPDEST PUSH2 0x1733 PUSH2 0x1934 JUMP JUMPDEST PUSH0 PUSH0 SWAP1 POP JUMPDEST DUP3 MLOAD DUP2 LT ISZERO PUSH2 0x1824 JUMPI DUP2 PUSH1 0x8 PUSH0 DUP6 DUP5 DUP2 MLOAD DUP2 LT PUSH2 0x1758 JUMPI PUSH2 0x1757 PUSH2 0x26C8 JUMP JUMPDEST JUMPDEST PUSH1 0x20 MUL PUSH1 0x20 ADD ADD MLOAD PUSH20 0xFFFFFFFFFFFFFFFFFFFFFFFFFFFFFFFFFFFFFFFF AND PUSH20 0xFFFFFFFFFFFFFFFFFFFFFFFFFFFFFFFFFFFFFFFF AND DUP2 MSTORE PUSH1 0x20 ADD SWAP1 DUP2 MSTORE PUSH1 0x20 ADD PUSH0 KECCAK256 PUSH0 PUSH2 0x100 EXP DUP2 SLOAD DUP2 PUSH1 0xFF MUL NOT AND SWAP1 DUP4 ISZERO ISZERO MUL OR SWAP1 SSTORE POP DUP3 DUP2 DUP2 MLOAD DUP2 LT PUSH2 0x17C2 JUMPI PUSH2 0x17C1 PUSH2 0x26C8 JUMP JUMPDEST JUMPDEST PUSH1 0x20 MUL PUSH1 0x20 ADD ADD MLOAD PUSH20 0xFFFFFFFFFFFFFFFFFFFFFFFFFFFFFFFFFFFFFFFF AND PUSH32 0x97B7AF35C8C05ECA90F543EB78B16FDF2664D3E6C9A907286F310647D9813B71 DUP4 PUSH1 0x40 MLOAD PUSH2 0x180F SWAP2 SWAP1 PUSH2 0x2048 JUMP JUMPDEST PUSH1 0x40 MLOAD DUP1 SWAP2 SUB SWAP1 LOG2 DUP1 DUP1 PUSH1 0x1 ADD SWAP2 POP POP PUSH2 0x1738 JUMP JUMPDEST POP POP POP JUMP JUMPDEST PUSH1 0x7 PUSH1 0x20 MSTORE DUP2 PUSH0 MSTORE PUSH1 0x40 PUSH0 KECCAK256 PUSH1 0x20 MSTORE DUP1 PUSH0 MSTORE PUSH1 0x40 PUSH0 KECCAK256 PUSH0 SWAP2 POP SWAP2 POP POP SLOAD DUP2 JUMP JUMPDEST PUSH2 0x1851 PUSH2 0x1934 JUMP JUMPDEST PUSH0 PUSH20 0xFFFFFFFFFFFFFFFFFFFFFFFFFFFFFFFFFFFFFFFF AND DUP2 PUSH20 0xFFFFFFFFFFFFFFFFFFFFFFFFFFFFFFFFFFFFFFFF AND SUB PUSH2 0x18C1 JUMPI PUSH0 PUSH1 0x40 MLOAD PUSH32 0x1E4FBDF700000000000000000000000000000000000000000000000000000000 DUP2 MSTORE PUSH1 0x4 ADD PUSH2 0x18B8 SWAP2 SWAP1 PUSH2 0x2247 JUMP JUMPDEST PUSH1 0x40 MLOAD DUP1 SWAP2 SUB SWAP1 REVERT JUMPDEST PUSH2 0x18CA DUP2 PUSH2 0x1D4F JUMP JUMPDEST POP JUMP JUMPDEST PUSH1 0x8 PUSH1 0x20 MSTORE DUP1 PUSH0 MSTORE PUSH1 0x40 PUSH0 KECCAK256 PUSH0 SWAP2 POP SLOAD SWAP1 PUSH2 0x100 EXP SWAP1 DIV PUSH1 0xFF AND DUP2 JUMP JUMPDEST PUSH2 0x18F2 PUSH2 0xFA7 JUMP JUMPDEST ISZERO PUSH2 0x1932 JUMPI PUSH1 0x40 MLOAD PUSH32 0x8C379A000000000000000000000000000000000000000000000000000000000 DUP2 MSTORE PUSH1 0x4 ADD PUSH2 0x1929 SWAP1 PUSH2 0x273F JUMP JUMPDEST PUSH1 0x40 MLOAD DUP1 SWAP2 SUB SWAP1 REVERT JUMPDEST JUMP JUMPDEST PUSH2 0x193C PUSH2 0x1E72 JUMP JUMPDEST PUSH20 0xFFFFFFFFFFFFFFFFFFFFFFFFFFFFFFFFFFFFFFFF AND PUSH2 0x195A PUSH2 0x137F JUMP JUMPDEST PUSH20 0xFFFFFFFFFFFFFFFFFFFFFFFFFFFFFFFFFFFFFFFF AND EQ PUSH2 0x19B9 JUMPI PUSH2 0x197D PUSH2 0x1E72 JUMP JUMPDEST PUSH1 0x40 MLOAD PUSH32 0x118CDAA700000000000000000000000000000000000000000000000000000000 DUP2 MSTORE PUSH1 0x4 ADD PUSH2 0x19B0 SWAP2 SWAP1 PUSH2 0x2247 JUMP JUMPDEST PUSH1 0x40 MLOAD DUP1 SWAP2 SUB SWAP1 REVERT JUMPDEST JUMP JUMPDEST PUSH1 0x2 PUSH1 0x1 SLOAD SUB PUSH2 0x1A00 JUMPI PUSH1 0x40 MLOAD PUSH32 0x8C379A000000000000000000000000000000000000000000000000000000000 DUP2 MSTORE PUSH1 0x4 ADD PUSH2 0x19F7 SWAP1 PUSH2 0x27A7 JUMP JUMPDEST PUSH1 0x40 MLOAD DUP1 SWAP2 SUB SWAP1 REVERT JUMPDEST PUSH1 0x2 PUSH1 0x1 DUP2 SWAP1 SSTORE POP JUMP JUMPDEST PUSH0 PUSH20 0xFFFFFFFFFFFFFFFFFFFFFFFFFFFFFFFFFFFFFFFF AND DUP3 PUSH20 0xFFFFFFFFFFFFFFFFFFFFFFFFFFFFFFFFFFFFFFFF AND SUB PUSH2 0x1A78 JUMPI PUSH1 0x40 MLOAD PUSH32 0x8C379A000000000000000000000000000000000000000000000000000000000 DUP2 MSTORE PUSH1 0x4 ADD PUSH2 0x1A6F SWAP1 PUSH2 0x2547 JUMP JUMPDEST PUSH1 0x40 MLOAD DUP1 SWAP2 SUB SWAP1 REVERT JUMPDEST PUSH1 0x8 PUSH0 DUP5 PUSH20 0xFFFFFFFFFFFFFFFFFFFFFFFFFFFFFFFFFFFFFFFF AND PUSH20 0xFFFFFFFFFFFFFFFFFFFFFFFFFFFFFFFFFFFFFFFF AND DUP2 MSTORE PUSH1 0x20 ADD SWAP1 DUP2 MSTORE PUSH1 0x20 ADD PUSH0 KECCAK256 PUSH0 SWAP1 SLOAD SWAP1 PUSH2 0x100 EXP SWAP1 DIV PUSH1 0xFF AND ISZERO DUP1 ISZERO PUSH2 0x1B16 JUMPI POP PUSH1 0x8 PUSH0 DUP4 PUSH20 0xFFFFFFFFFFFFFFFFFFFFFFFFFFFFFFFFFFFFFFFF AND PUSH20 0xFFFFFFFFFFFFFFFFFFFFFFFFFFFFFFFFFFFFFFFF AND DUP2 MSTORE PUSH1 0x20 ADD SWAP1 DUP2 MSTORE PUSH1 0x20 ADD PUSH0 KECCAK256 PUSH0 SWAP1 SLOAD SWAP1 PUSH2 0x100 EXP SWAP1 DIV PUSH1 0xFF AND ISZERO JUMPDEST PUSH2 0x1B55 JUMPI PUSH1 0x40 MLOAD PUSH32 0x8C379A000000000000000000000000000000000000000000000000000000000 DUP2 MSTORE PUSH1 0x4 ADD PUSH2 0x1B4C SWAP1 PUSH2 0x24DF JUMP JUMPDEST PUSH1 0x40 MLOAD DUP1 SWAP2 SUB SWAP1 REVERT JUMPDEST DUP1 PUSH1 0x6 PUSH0 DUP6 PUSH20 0xFFFFFFFFFFFFFFFFFFFFFFFFFFFFFFFFFFFFFFFF AND PUSH20 0xFFFFFFFFFFFFFFFFFFFFFFFFFFFFFFFFFFFFFFFF AND DUP2 MSTORE PUSH1 0x20 ADD SWAP1 DUP2 MSTORE PUSH1 0x20 ADD PUSH0 KECCAK256 SLOAD LT ISZERO PUSH2 0x1BD5 JUMPI PUSH1 0x40 MLOAD PUSH32 0x8C379A000000000000000000000000000000000000000000000000000000000 DUP2 MSTORE PUSH1 0x4 ADD PUSH2 0x1BCC SWAP1 PUSH2 0x25AF JUMP JUMPDEST PUSH1 0x40 MLOAD DUP1 SWAP2 SUB SWAP1 REVERT JUMPDEST DUP1 PUSH1 0x6 PUSH0 DUP6 PUSH20 0xFFFFFFFFFFFFFFFFFFFFFFFFFFFFFFFFFFFFFFFF AND PUSH20 0xFFFFFFFFFFFFFFFFFFFFFFFFFFFFFFFFFFFFFFFF AND DUP2 MSTORE PUSH1 0x20 ADD SWAP1 DUP2 MSTORE PUSH1 0x20 ADD PUSH0 KECCAK256 PUSH0 DUP3 DUP3 SLOAD PUSH2 0x1C21 SWAP2 SWAP1 PUSH2 0x2662 JUMP JUMPDEST SWAP3 POP POP DUP2 SWAP1 SSTORE POP DUP1 PUSH1 0x6 PUSH0 DUP5 PUSH20 0xFFFFFFFFFFFFFFFFFFFFFFFFFFFFFFFFFFFFFFFF AND PUSH20 0xFFFFFFFFFFFFFFFFFFFFFFFFFFFFFFFFFFFFFFFF AND DUP2 MSTORE PUSH1 0x20 ADD SWAP1 DUP2 MSTORE PUSH1 0x20 ADD PUSH0 KECCAK256 PUSH0 DUP3 DUP3 SLOAD PUSH2 0x1C74 SWAP2 SWAP1 PUSH2 0x2695 JUMP JUMPDEST SWAP3 POP POP DUP2 SWAP1 SSTORE POP DUP2 PUSH20 0xFFFFFFFFFFFFFFFFFFFFFFFFFFFFFFFFFFFFFFFF AND DUP4 PUSH20 0xFFFFFFFFFFFFFFFFFFFFFFFFFFFFFFFFFFFFFFFF AND PUSH32 0xDDF252AD1BE2C89B69C2B068FC378DAA952BA7F163C4A11628F55A4DF523B3EF DUP4 PUSH1 0x40 MLOAD PUSH2 0x1CD8 SWAP2 SWAP1 PUSH2 0x20D8 JUMP JUMPDEST PUSH1 0x40 MLOAD DUP1 SWAP2 SUB SWAP1 LOG3 POP POP POP JUMP JUMPDEST PUSH1 0x1 DUP1 DUP2 SWAP1 SSTORE POP JUMP JUMPDEST PUSH2 0x1CF6 PUSH2 0x1E79 JUMP JUMPDEST PUSH0 PUSH0 PUSH1 0x14 PUSH2 0x100 EXP DUP2 SLOAD DUP2 PUSH1 0xFF MUL NOT AND SWAP1 DUP4 ISZERO ISZERO MUL OR SWAP1 SSTORE POP PUSH32 0x5DB9EE0A495BF2E6FF9C91A7834C1BA4FDD244A5E8AA4E537BD38AEAE4B073AA PUSH2 0x1D38 PUSH2 0x1E72 JUMP JUMPDEST PUSH1 0x40 MLOAD PUSH2 0x1D45 SWAP2 SWAP1 PUSH2 0x2247 JUMP JUMPDEST PUSH1 0x40 MLOAD DUP1 SWAP2 SUB SWAP1 LOG1 JUMP JUMPDEST PUSH0 PUSH0 PUSH0 SWAP1 SLOAD SWAP1 PUSH2 0x100 EXP SWAP1 DIV PUSH20 0xFFFFFFFFFFFFFFFFFFFFFFFFFFFFFFFFFFFFFFFF AND SWAP1 POP DUP2 PUSH0 PUSH0 PUSH2 0x100 EXP DUP2 SLOAD DUP2 PUSH20 0xFFFFFFFFFFFFFFFFFFFFFFFFFFFFFFFFFFFFFFFF MUL NOT AND SWAP1 DUP4 PUSH20 0xFFFFFFFFFFFFFFFFFFFFFFFFFFFFFFFFFFFFFFFF AND MUL OR SWAP1 SSTORE POP DUP2 PUSH20 0xFFFFFFFFFFFFFFFFFFFFFFFFFFFFFFFFFFFFFFFF AND DUP2 PUSH20 0xFFFFFFFFFFFFFFFFFFFFFFFFFFFFFFFFFFFFFFFF AND PUSH32 0x8BE0079C531659141344CD1FD0A4F28419497F9722A3DAAFE3B4186F6B6457E0 PUSH1 0x40 MLOAD PUSH1 0x40 MLOAD DUP1 SWAP2 SUB SWAP1 LOG3 POP POP JUMP JUMPDEST PUSH2 0x1E18 PUSH2 0x18EA JUMP JUMPDEST PUSH1 0x1 PUSH0 PUSH1 0x14 PUSH2 0x100 EXP DUP2 SLOAD DUP2 PUSH1 0xFF MUL NOT AND SWAP1 DUP4 ISZERO ISZERO MUL OR SWAP1 SSTORE POP PUSH32 0x62E78CEA01BEE320CD4E420270B5EA74000D11B0C9F74754EBDBFC544B05A258 PUSH2 0x1E5B PUSH2 0x1E72 JUMP JUMPDEST PUSH1 0x40 MLOAD PUSH2 0x1E68 SWAP2 SWAP1 PUSH2 0x2247 JUMP JUMPDEST PUSH1 0x40 MLOAD DUP1 SWAP2 SUB SWAP1 LOG1 JUMP JUMPDEST PUSH0 CALLER SWAP1 POP SWAP1 JUMP JUMPDEST PUSH2 0x1E81 PUSH2 0xFA7 JUMP JUMPDEST PUSH2 0x1EC0 JUMPI PUSH1 0x40 MLOAD PUSH32 0x8C379A000000000000000000000000000000000000000000000000000000000 DUP2 MSTORE PUSH1 0x4 ADD PUSH2 0x1EB7 SWAP1 PUSH2 0x280F JUMP JUMPDEST PUSH1 0x40 MLOAD DUP1 SWAP2 SUB SWAP1 REVERT JUMPDEST JUMP JUMPDEST PUSH0 DUP2 MLOAD SWAP1 POP SWAP2 SWAP1 POP JUMP JUMPDEST PUSH0 DUP3 DUP3 MSTORE PUSH1 0x20 DUP3 ADD SWAP1 POP SWAP3 SWAP2 POP POP JUMP JUMPDEST DUP3 DUP2 DUP4 MCOPY PUSH0 DUP4 DUP4 ADD MSTORE POP POP POP JUMP JUMPDEST PUSH0 PUSH1 0x1F NOT PUSH1 0x1F DUP4 ADD AND SWAP1 POP SWAP2 SWAP1 POP JUMP JUMPDEST PUSH0 PUSH2 0x1F04 DUP3 PUSH2 0x1EC2 JUMP JUMPDEST PUSH2 0x1F0E DUP2 DUP6 PUSH2 0x1ECC JUMP JUMPDEST SWAP4 POP PUSH2 0x1F1E DUP2 DUP6 PUSH1 0x20 DUP7 ADD PUSH2 0x1EDC JUMP JUMPDEST PUSH2 0x1F27 DUP2 PUSH2 0x1EEA JUMP JUMPDEST DUP5 ADD SWAP2 POP POP SWAP3 SWAP2 POP POP JUMP JUMPDEST PUSH0 PUSH1 0x20 DUP3 ADD SWAP1 POP DUP2 DUP2 SUB PUSH0 DUP4 ADD MSTORE PUSH2 0x1F4A DUP2 DUP5 PUSH2 0x1EFA JUMP JUMPDEST SWAP1 POP SWAP3 SWAP2 POP POP JUMP JUMPDEST PUSH0 PUSH1 0x40 MLOAD SWAP1 POP SWAP1 JUMP JUMPDEST PUSH0 PUSH0 REVERT JUMPDEST PUSH0 PUSH0 REVERT JUMPDEST PUSH0 PUSH20 0xFFFFFFFFFFFFFFFFFFFFFFFFFFFFFFFFFFFFFFFF DUP3 AND SWAP1 POP SWAP2 SWAP1 POP JUMP JUMPDEST PUSH0 PUSH2 0x1F8C DUP3 PUSH2 0x1F63 JUMP JUMPDEST SWAP1 POP SWAP2 SWAP1 POP JUMP JUMPDEST PUSH2 0x1F9C DUP2 PUSH2 0x1F82 JUMP JUMPDEST DUP2 EQ PUSH2 0x1FA6 JUMPI PUSH0 PUSH0 REVERT JUMPDEST POP JUMP JUMPDEST PUSH0 DUP2 CALLDATALOAD SWAP1 POP PUSH2 0x1FB7 DUP2 PUSH2 0x1F93 JUMP JUMPDEST SWAP3 SWAP2 POP POP JUMP JUMPDEST PUSH0 DUP2 SWAP1 POP SWAP2 SWAP1 POP JUMP JUMPDEST PUSH2 0x1FCF DUP2 PUSH2 0x1FBD JUMP JUMPDEST DUP2 EQ PUSH2 0x1FD9 JUMPI PUSH0 PUSH0 REVERT JUMPDEST POP JUMP JUMPDEST PUSH0 DUP2 CALLDATALOAD SWAP1 POP PUSH2 0x1FEA DUP2 PUSH2 0x1FC6 JUMP JUMPDEST SWAP3 SWAP2 POP POP JUMP JUMPDEST PUSH0 PUSH0 PUSH1 0x40 DUP4 DUP6 SUB SLT ISZERO PUSH2 0x2006 JUMPI PUSH2 0x2005 PUSH2 0x1F5B JUMP JUMPDEST JUMPDEST PUSH0 PUSH2 0x2013 DUP6 DUP3 DUP7 ADD PUSH2 0x1FA9 JUMP JUMPDEST SWAP3 POP POP PUSH1 0x20 PUSH2 0x2024 DUP6 DUP3 DUP7 ADD PUSH2 0x1FDC JUMP JUMPDEST SWAP2 POP POP SWAP3 POP SWAP3 SWAP1 POP JUMP JUMPDEST PUSH0 DUP2 ISZERO ISZERO SWAP1 POP SWAP2 SWAP1 POP JUMP JUMPDEST PUSH2 0x2042 DUP2 PUSH2 0x202E JUMP JUMPDEST DUP3 MSTORE POP POP JUMP JUMPDEST PUSH0 PUSH1 0x20 DUP3 ADD SWAP1 POP PUSH2 0x205B PUSH0 DUP4 ADD DUP5 PUSH2 0x2039 JUMP JUMPDEST SWAP3 SWAP2 POP POP JUMP JUMPDEST PUSH2 0x206A DUP2 PUSH2 0x202E JUMP JUMPDEST DUP2 EQ PUSH2 0x2074 JUMPI PUSH0 PUSH0 REVERT JUMPDEST POP JUMP JUMPDEST PUSH0 DUP2 CALLDATALOAD SWAP1 POP PUSH2 0x2085 DUP2 PUSH2 0x2061 JUMP JUMPDEST SWAP3 SWAP2 POP POP JUMP JUMPDEST PUSH0 PUSH0 PUSH1 0x40 DUP4 DUP6 SUB SLT ISZERO PUSH2 0x20A1 JUMPI PUSH2 0x20A0 PUSH2 0x1F5B JUMP JUMPDEST JUMPDEST PUSH0 PUSH2 0x20AE DUP6 DUP3 DUP7 ADD PUSH2 0x1FA9 JUMP JUMPDEST SWAP3 POP POP PUSH1 0x20 PUSH2 0x20BF DUP6 DUP3 DUP7 ADD PUSH2 0x2077 JUMP JUMPDEST SWAP2 POP POP SWAP3 POP SWAP3 SWAP1 POP JUMP JUMPDEST PUSH2 0x20D2 DUP2 PUSH2 0x1FBD JUMP JUMPDEST DUP3 MSTORE POP POP JUMP JUMPDEST PUSH0 PUSH1 0x20 DUP3 ADD SWAP1 POP PUSH2 0x20EB PUSH0 DUP4 ADD DUP5 PUSH2 0x20C9 JUMP JUMPDEST SWAP3 SWAP2 POP POP JUMP JUMPDEST PUSH0 PUSH0 PUSH0 PUSH1 0x60 DUP5 DUP7 SUB SLT ISZERO PUSH2 0x2108 JUMPI PUSH2 0x2107 PUSH2 0x1F5B JUMP JUMPDEST JUMPDEST PUSH0 PUSH2 0x2115 DUP7 DUP3 DUP8 ADD PUSH2 0x1FA9 JUMP JUMPDEST SWAP4 POP POP PUSH1 0x20 PUSH2 0x2126 DUP7 DUP3 DUP8 ADD PUSH2 0x1FA9 JUMP JUMPDEST SWAP3 POP POP PUSH1 0x40 PUSH2 0x2137 DUP7 DUP3 DUP8 ADD PUSH2 0x1FDC JUMP JUMPDEST SWAP2 POP POP SWAP3 POP SWAP3 POP SWAP3 JUMP JUMPDEST PUSH0 PUSH1 0xFF DUP3 AND SWAP1 POP SWAP2 SWAP1 POP JUMP JUMPDEST PUSH2 0x2156 DUP2 PUSH2 0x2141 JUMP JUMPDEST DUP3 MSTORE POP POP JUMP JUMPDEST PUSH0 PUSH1 0x20 DUP3 ADD SWAP1 POP PUSH2 0x216F PUSH0 DUP4 ADD DUP5 PUSH2 0x214D JUMP JUMPDEST SWAP3 SWAP2 POP POP JUMP JUMPDEST PUSH0 PUSH1 0x20 DUP3 DUP5 SUB SLT ISZERO PUSH2 0x218A JUMPI PUSH2 0x2189 PUSH2 0x1F5B JUMP JUMPDEST JUMPDEST PUSH0 PUSH2 0x2197 DUP5 DUP3 DUP6 ADD PUSH2 0x1FDC JUMP JUMPDEST SWAP2 POP POP SWAP3 SWAP2 POP POP JUMP JUMPDEST PUSH0 PUSH1 0x20 DUP3 DUP5 SUB SLT ISZERO PUSH2 0x21B5 JUMPI PUSH2 0x21B4 PUSH2 0x1F5B JUMP JUMPDEST JUMPDEST PUSH0 PUSH2 0x21C2 DUP5 DUP3 DUP6 ADD PUSH2 0x1FA9 JUMP JUMPDEST SWAP2 POP POP SWAP3 SWAP2 POP POP JUMP JUMPDEST PUSH2 0x21D4 DUP2 PUSH2 0x1F82 JUMP JUMPDEST DUP3 MSTORE POP POP JUMP JUMPDEST PUSH0 PUSH1 0xC0 DUP3 ADD SWAP1 POP DUP2 DUP2 SUB PUSH0 DUP4 ADD MSTORE PUSH2 0x21F2 DUP2 DUP10 PUSH2 0x1EFA JUMP JUMPDEST SWAP1 POP DUP2 DUP2 SUB PUSH1 0x20 DUP4 ADD MSTORE PUSH2 0x2206 DUP2 DUP9 PUSH2 0x1EFA JUMP JUMPDEST SWAP1 POP PUSH2 0x2215 PUSH1 0x40 DUP4 ADD DUP8 PUSH2 0x214D JUMP JUMPDEST PUSH2 0x2222 PUSH1 0x60 DUP4 ADD DUP7 PUSH2 0x20C9 JUMP JUMPDEST PUSH2 0x222F PUSH1 0x80 DUP4 ADD DUP6 PUSH2 0x2039 JUMP JUMPDEST PUSH2 0x223C PUSH1 0xA0 DUP4 ADD DUP5 PUSH2 0x21CB JUMP JUMPDEST SWAP8 SWAP7 POP POP POP POP POP POP POP JUMP JUMPDEST PUSH0 PUSH1 0x20 DUP3 ADD SWAP1 POP PUSH2 0x225A PUSH0 DUP4 ADD DUP5 PUSH2 0x21CB JUMP JUMPDEST SWAP3 SWAP2 POP POP JUMP JUMPDEST PUSH0 PUSH0 REVERT JUMPDEST PUSH32 0x4E487B7100000000000000000000000000000000000000000000000000000000 PUSH0 MSTORE PUSH1 0x41 PUSH1 0x4 MSTORE PUSH1 0x24 PUSH0 REVERT JUMPDEST PUSH2 0x229A DUP3 PUSH2 0x1EEA JUMP JUMPDEST DUP2 ADD DUP2 DUP2 LT PUSH8 0xFFFFFFFFFFFFFFFF DUP3 GT OR ISZERO PUSH2 0x22B9 JUMPI PUSH2 0x22B8 PUSH2 0x2264 JUMP JUMPDEST JUMPDEST DUP1 PUSH1 0x40 MSTORE POP POP POP JUMP JUMPDEST PUSH0 PUSH2 0x22CB PUSH2 0x1F52 JUMP JUMPDEST SWAP1 POP PUSH2 0x22D7 DUP3 DUP3 PUSH2 0x2291 JUMP JUMPDEST SWAP2 SWAP1 POP JUMP JUMPDEST PUSH0 PUSH8 0xFFFFFFFFFFFFFFFF DUP3 GT ISZERO PUSH2 0x22F6 JUMPI PUSH2 0x22F5 PUSH2 0x2264 JUMP JUMPDEST JUMPDEST PUSH1 0x20 DUP3 MUL SWAP1 POP PUSH1 0x20 DUP2 ADD SWAP1 POP SWAP2 SWAP1 POP JUMP JUMPDEST PUSH0 PUSH0 REVERT JUMPDEST PUSH0 PUSH2 0x231D PUSH2 0x2318 DUP5 PUSH2 0x22DC JUMP JUMPDEST PUSH2 0x22C2 JUMP JUMPDEST SWAP1 POP DUP1 DUP4 DUP3 MSTORE PUSH1 0x20 DUP3 ADD SWAP1 POP PUSH1 0x20 DUP5 MUL DUP4 ADD DUP6 DUP2 GT ISZERO PUSH2 0x2340 JUMPI PUSH2 0x233F PUSH2 0x2307 JUMP JUMPDEST JUMPDEST DUP4 JUMPDEST DUP2 DUP2 LT ISZERO PUSH2 0x2369 JUMPI DUP1 PUSH2 0x2355 DUP9 DUP3 PUSH2 0x1FA9 JUMP JUMPDEST DUP5 MSTORE PUSH1 0x20 DUP5 ADD SWAP4 POP POP PUSH1 0x20 DUP2 ADD SWAP1 POP PUSH2 0x2342 JUMP JUMPDEST POP POP POP SWAP4 SWAP3 POP POP POP JUMP JUMPDEST PUSH0 DUP3 PUSH1 0x1F DUP4 ADD SLT PUSH2 0x2387 JUMPI PUSH2 0x2386 PUSH2 0x2260 JUMP JUMPDEST JUMPDEST DUP2 CALLDATALOAD PUSH2 0x2397 DUP5 DUP3 PUSH1 0x20 DUP7 ADD PUSH2 0x230B JUMP JUMPDEST SWAP2 POP POP SWAP3 SWAP2 POP POP JUMP JUMPDEST PUSH0 PUSH0 PUSH1 0x40 DUP4 DUP6 SUB SLT ISZERO PUSH2 0x23B6 JUMPI PUSH2 0x23B5 PUSH2 0x1F5B JUMP JUMPDEST JUMPDEST PUSH0 DUP4 ADD CALLDATALOAD PUSH8 0xFFFFFFFFFFFFFFFF DUP2 GT ISZERO PUSH2 0x23D3 JUMPI PUSH2 0x23D2 PUSH2 0x1F5F JUMP JUMPDEST JUMPDEST PUSH2 0x23DF DUP6 DUP3 DUP7 ADD PUSH2 0x2373 JUMP JUMPDEST SWAP3 POP POP PUSH1 0x20 PUSH2 0x23F0 DUP6 DUP3 DUP7 ADD PUSH2 0x2077 JUMP JUMPDEST SWAP2 POP POP SWAP3 POP SWAP3 SWAP1 POP JUMP JUMPDEST PUSH0 PUSH0 PUSH1 0x40 DUP4 DUP6 SUB SLT ISZERO PUSH2 0x2410 JUMPI PUSH2 0x240F PUSH2 0x1F5B JUMP JUMPDEST JUMPDEST PUSH0 PUSH2 0x241D DUP6 DUP3 DUP7 ADD PUSH2 0x1FA9 JUMP JUMPDEST SWAP3 POP POP PUSH1 0x20 PUSH2 0x242E DUP6 DUP3 DUP7 ADD PUSH2 0x1FA9 JUMP JUMPDEST SWAP2 POP POP SWAP3 POP SWAP3 SWAP1 POP JUMP JUMPDEST PUSH32 0x4E487B7100000000000000000000000000000000000000000000000000000000 PUSH0 MSTORE PUSH1 0x22 PUSH1 0x4 MSTORE PUSH1 0x24 PUSH0 REVERT JUMPDEST PUSH0 PUSH1 0x2 DUP3 DIV SWAP1 POP PUSH1 0x1 DUP3 AND DUP1 PUSH2 0x247C JUMPI PUSH1 0x7F DUP3 AND SWAP2 POP JUMPDEST PUSH1 0x20 DUP3 LT DUP2 SUB PUSH2 0x248F JUMPI PUSH2 0x248E PUSH2 0x2438 JUMP JUMPDEST JUMPDEST POP SWAP2 SWAP1 POP JUMP JUMPDEST PUSH32 0x4164647265737320626C61636B6C697374656400000000000000000000000000 PUSH0 DUP3 ADD MSTORE POP JUMP JUMPDEST PUSH0 PUSH2 0x24C9 PUSH1 0x13 DUP4 PUSH2 0x1ECC JUMP JUMPDEST SWAP2 POP PUSH2 0x24D4 DUP3 PUSH2 0x2495 JUMP JUMPDEST PUSH1 0x20 DUP3 ADD SWAP1 POP SWAP2 SWAP1 POP JUMP JUMPDEST PUSH0 PUSH1 0x20 DUP3 ADD SWAP1 POP DUP2 DUP2 SUB PUSH0 DUP4 ADD MSTORE PUSH2 0x24F6 DUP2 PUSH2 0x24BD JUMP JUMPDEST SWAP1 POP SWAP2 SWAP1 POP JUMP JUMPDEST PUSH32 0x496E76616C696420616464726573730000000000000000000000000000000000 PUSH0 DUP3 ADD MSTORE POP JUMP JUMPDEST PUSH0 PUSH2 0x2531 PUSH1 0xF DUP4 PUSH2 0x1ECC JUMP JUMPDEST SWAP2 POP PUSH2 0x253C DUP3 PUSH2 0x24FD JUMP JUMPDEST PUSH1 0x20 DUP3 ADD SWAP1 POP SWAP2 SWAP1 POP JUMP JUMPDEST PUSH0 PUSH1 0x20 DUP3 ADD SWAP1 POP DUP2 DUP2 SUB PUSH0 DUP4 ADD MSTORE PUSH2 0x255E DUP2 PUSH2 0x2525 JUMP JUMPDEST SWAP1 POP SWAP2 SWAP1 POP JUMP JUMPDEST PUSH32 0x496E73756666696369656E742062616C616E6365000000000000000000000000 PUSH0 DUP3 ADD MSTORE POP JUMP JUMPDEST PUSH0 PUSH2 0x2599 PUSH1 0x14 DUP4 PUSH2 0x1ECC JUMP JUMPDEST SWAP2 POP PUSH2 0x25A4 DUP3 PUSH2 0x2565 JUMP JUMPDEST PUSH1 0x20 DUP3 ADD SWAP1 POP SWAP2 SWAP1 POP JUMP JUMPDEST PUSH0 PUSH1 0x20 DUP3 ADD SWAP1 POP DUP2 DUP2 SUB PUSH0 DUP4 ADD MSTORE PUSH2 0x25C6 DUP2 PUSH2 0x258D JUMP JUMPDEST SWAP1 POP SWAP2 SWAP1 POP JUMP JUMPDEST PUSH32 0x416C6C6F77616E636520746F6F206C6F77000000000000000000000000000000 PUSH0 DUP3 ADD MSTORE POP JUMP JUMPDEST PUSH0 PUSH2 0x2601 PUSH1 0x11 DUP4 PUSH2 0x1ECC JUMP JUMPDEST SWAP2 POP PUSH2 0x260C DUP3 PUSH2 0x25CD JUMP JUMPDEST PUSH1 0x20 DUP3 ADD SWAP1 POP SWAP2 SWAP1 POP JUMP JUMPDEST PUSH0 PUSH1 0x20 DUP3 ADD SWAP1 POP DUP2 DUP2 SUB PUSH0 DUP4 ADD MSTORE PUSH2 0x262E DUP2 PUSH2 0x25F5 JUMP JUMPDEST SWAP1 POP SWAP2 SWAP1 POP JUMP JUMPDEST PUSH32 0x4E487B7100000000000000000000000000000000000000000000000000000000 PUSH0 MSTORE PUSH1 0x11 PUSH1 0x4 MSTORE PUSH1 0x24 PUSH0 REVERT JUMPDEST PUSH0 PUSH2 0x266C DUP3 PUSH2 0x1FBD JUMP JUMPDEST SWAP2 POP PUSH2 0x2677 DUP4 PUSH2 0x1FBD JUMP JUMPDEST SWAP3 POP DUP3 DUP3 SUB SWAP1 POP DUP2 DUP2 GT ISZERO PUSH2 0x268F JUMPI PUSH2 0x268E PUSH2 0x2635 JUMP JUMPDEST JUMPDEST SWAP3 SWAP2 POP POP JUMP JUMPDEST PUSH0 PUSH2 0x269F DUP3 PUSH2 0x1FBD JUMP JUMPDEST SWAP2 POP PUSH2 0x26AA DUP4 PUSH2 0x1FBD JUMP JUMPDEST SWAP3 POP DUP3 DUP3 ADD SWAP1 POP DUP1 DUP3 GT ISZERO PUSH2 0x26C2 JUMPI PUSH2 0x26C1 PUSH2 0x2635 JUMP JUMPDEST JUMPDEST SWAP3 SWAP2 POP POP JUMP JUMPDEST PUSH32 0x4E487B7100000000000000000000000000000000000000000000000000000000 PUSH0 MSTORE PUSH1 0x32 PUSH1 0x4 MSTORE PUSH1 0x24 PUSH0 REVERT JUMPDEST PUSH32 0x5061757361626C653A2070617573656400000000000000000000000000000000 PUSH0 DUP3 ADD MSTORE POP JUMP JUMPDEST PUSH0 PUSH2 0x2729 PUSH1 0x10 DUP4 PUSH2 0x1ECC JUMP JUMPDEST SWAP2 POP PUSH2 0x2734 DUP3 PUSH2 0x26F5 JUMP JUMPDEST PUSH1 0x20 DUP3 ADD SWAP1 POP SWAP2 SWAP1 POP JUMP JUMPDEST PUSH0 PUSH1 0x20 DUP3 ADD SWAP1 POP DUP2 DUP2 SUB PUSH0 DUP4 ADD MSTORE PUSH2 0x2756 DUP2 PUSH2 0x271D JUMP JUMPDEST SWAP1 POP SWAP2 SWAP1 POP JUMP JUMPDEST PUSH32 0x5265656E7472616E637947756172643A207265656E7472616E742063616C6C00 PUSH0 DUP3 ADD MSTORE POP JUMP JUMPDEST PUSH0 PUSH2 0x2791 PUSH1 0x1F DUP4 PUSH2 0x1ECC JUMP JUMPDEST SWAP2 POP PUSH2 0x279C DUP3 PUSH2 0x275D JUMP JUMPDEST PUSH1 0x20 DUP3 ADD SWAP1 POP SWAP2 SWAP1 POP JUMP JUMPDEST PUSH0 PUSH1 0x20 DUP3 ADD SWAP1 POP DUP2 DUP2 SUB PUSH0 DUP4 ADD MSTORE PUSH2 0x27BE DUP2 PUSH2 0x2785 JUMP JUMPDEST SWAP1 POP SWAP2 SWAP1 POP JUMP JUMPDEST PUSH32 0x5061757361626C653A206E6F7420706175736564000000000000000000000000 PUSH0 DUP3 ADD MSTORE POP JUMP JUMPDEST PUSH0 PUSH2 0x27F9 PUSH1 0x14 DUP4 PUSH2 0x1ECC JUMP JUMPDEST SWAP2 POP PUSH2 0x2804 DUP3 PUSH2 0x27C5 JUMP JUMPDEST PUSH1 0x20 DUP3 ADD SWAP1 POP SWAP2 SWAP1 POP JUMP JUMPDEST PUSH0 PUSH1 0x20 DUP3 ADD SWAP1 POP DUP2 DUP2 SUB PUSH0 DUP4 ADD MSTORE PUSH2 0x2826 DUP2 PUSH2 0x27ED JUMP JUMPDEST SWAP1 POP SWAP2 SWAP1 POP JUMP INVALID LOG2 PUSH5 0x6970667358 0x22 SLT KECCAK256 PUSH32 0x8B57DC23830BA2C98F00F1E15E23AC7D4E9CD6BE5BCB06C25389F72EFB91A864 PUSH20 0x6F6C634300081E00330000000000000000000000 "
				},
				"gasEstimates": {
					"creation": {
						"codeDepositCost": "2067800",
						"executionCost": "infinite",
						"totalCost": "infinite"
					},
					"external": {
						"allowance(address,address)": "infinite",
						"approve(address,uint256)": "infinite",
						"balanceOf(address)": "2825",
						"batchSetBlacklist(address[],bool)": "infinite",
						"blacklist(address)": "2965",
						"burn(uint256)": "infinite",
						"burnFrom(address,uint256)": "infinite",
						"decimals()": "2489",
						"getBlacklistStatus(address)": "2981",
						"getContractInfo()": "infinite",
						"mint(address,uint256)": "infinite",
						"name()": "infinite",
						"owner()": "2647",
						"pause()": "infinite",
						"paused()": "2656",
						"renounceOwnership()": "infinite",
						"setBlacklist(address,bool)": "infinite",
						"symbol()": "infinite",
						"totalSupply()": "2515",
						"transfer(address,uint256)": "infinite",
						"transferFrom(address,address,uint256)": "infinite",
						"transferOwnership(address)": "infinite",
						"unpause()": "infinite"
					},
					"internal": {
						"_transfer(address,address,uint256)": "infinite"
					}
				},
				"methodIdentifiers": {
					"allowance(address,address)": "dd62ed3e",
					"approve(address,uint256)": "095ea7b3",
					"balanceOf(address)": "70a08231",
					"batchSetBlacklist(address[],bool)": "af9c53da",
					"blacklist(address)": "f9f92be4",
					"burn(uint256)": "42966c68",
					"burnFrom(address,uint256)": "79cc6790",
					"decimals()": "313ce567",
					"getBlacklistStatus(address)": "58d2b4a5",
					"getContractInfo()": "7cc1f867",
					"mint(address,uint256)": "40c10f19",
					"name()": "06fdde03",
					"owner()": "8da5cb5b",
					"pause()": "8456cb59",
					"paused()": "5c975abb",
					"renounceOwnership()": "715018a6",
					"setBlacklist(address,bool)": "153b0d1e",
					"symbol()": "95d89b41",
					"totalSupply()": "18160ddd",
					"transfer(address,uint256)": "a9059cbb",
					"transferFrom(address,address,uint256)": "23b872dd",
					"transferOwnership(address)": "f2fde38b",
					"unpause()": "3f4ba83a"
				}
			},
			"storageLayout": {
				"storage": [
					{
						"astId": 8,
						"contract": "ALIEN.sol:ALIEN_V2",
						"label": "_owner",
						"offset": 0,
						"slot": "0",
						"type": "t_address"
					},
					{
						"astId": 165,
						"contract": "ALIEN.sol:ALIEN_V2",
						"label": "_paused",
						"offset": 20,
						"slot": "0",
						"type": "t_bool"
					},
					{
						"astId": 266,
						"contract": "ALIEN.sol:ALIEN_V2",
						"label": "_status",
						"offset": 0,
						"slot": "1",
						"type": "t_uint256"
					},
					{
						"astId": 364,
						"contract": "ALIEN.sol:ALIEN_V2",
						"label": "name",
						"offset": 0,
						"slot": "2",
						"type": "t_string_storage"
					},
					{
						"astId": 367,
						"contract": "ALIEN.sol:ALIEN_V2",
						"label": "symbol",
						"offset": 0,
						"slot": "3",
						"type": "t_string_storage"
					},
					{
						"astId": 370,
						"contract": "ALIEN.sol:ALIEN_V2",
						"label": "decimals",
						"offset": 0,
						"slot": "4",
						"type": "t_uint8"
					},
					{
						"astId": 380,
						"contract": "ALIEN.sol:ALIEN_V2",
						"label": "totalSupply",
						"offset": 0,
						"slot": "5",
						"type": "t_uint256"
					},
					{
						"astId": 384,
						"contract": "ALIEN.sol:ALIEN_V2",
						"label": "balanceOf",
						"offset": 0,
						"slot": "6",
						"type": "t_mapping(t_address,t_uint256)"
					},
					{
						"astId": 390,
						"contract": "ALIEN.sol:ALIEN_V2",
						"label": "allowance",
						"offset": 0,
						"slot": "7",
						"type": "t_mapping(t_address,t_mapping(t_address,t_uint256))"
					},
					{
						"astId": 394,
						"contract": "ALIEN.sol:ALIEN_V2",
						"label": "blacklist",
						"offset": 0,
						"slot": "8",
						"type": "t_mapping(t_address,t_bool)"
					}
				],
				"types": {
					"t_address": {
						"encoding": "inplace",
						"label": "address",
						"numberOfBytes": "20"
					},
					"t_bool": {
						"encoding": "inplace",
						"label": "bool",
						"numberOfBytes": "1"
					},
					"t_mapping(t_address,t_bool)": {
						"encoding": "mapping",
						"key": "t_address",
						"label": "mapping(address => bool)",
						"numberOfBytes": "32",
						"value": "t_bool"
					},
					"t_mapping(t_address,t_mapping(t_address,t_uint256))": {
						"encoding": "mapping",
						"key": "t_address",
						"label": "mapping(address => mapping(address => uint256))",
						"numberOfBytes": "32",
						"value": "t_mapping(t_address,t_uint256)"
					},
					"t_mapping(t_address,t_uint256)": {
						"encoding": "mapping",
						"key": "t_address",
						"label": "mapping(address => uint256)",
						"numberOfBytes": "32",
						"value": "t_uint256"
					},
					"t_string_storage": {
						"encoding": "bytes",
						"label": "string",
						"numberOfBytes": "32"
					},
					"t_uint256": {
						"encoding": "inplace",
						"label": "uint256",
						"numberOfBytes": "32"
					},
					"t_uint8": {
						"encoding": "inplace",
						"label": "uint8",
						"numberOfBytes": "1"
					}
				}
			},
			"userdoc": {
				"kind": "user",
				"methods": {},
				"version": 1
			}
		}
	}
}