{
	"AlienPresale.sol": {
		"AlienPresale": {
			"abi": [
				{
					"inputs": [
						{
							"internalType": "address",
							"name": "_token",
							"type": "address"
						},
						{
							"internalType": "uint256",
							"name": "_startTime",
							"type": "uint256"
						},
						{
							"internalType": "uint256",
							"name": "_endTime",
							"type": "uint256"
						},
						{
							"internalType": "uint256",
							"name": "_hardCap",
							"type": "uint256"
						},
						{
							"internalType": "uint256",
							"name": "_tokenPrice",
							"type": "uint256"
						}
					],
					"stateMutability": "nonpayable",
					"type": "constructor"
				},
				{
					"inputs": [
						{
							"internalType": "address",
							"name": "owner",
							"type": "address"
						}
					],
					"name": "OwnableInvalidOwner",
					"type": "error"
				},
				{
					"inputs": [
						{
							"internalType": "address",
							"name": "account",
							"type": "address"
						}
					],
					"name": "OwnableUnauthorizedAccount",
					"type": "error"
				},
				{
					"anonymous": false,
					"inputs": [
						{
							"indexed": true,
							"internalType": "address",
							"name": "owner",
							"type": "address"
						},
						{
							"indexed": false,
							"internalType": "uint256",
							"name": "amount",
							"type": "uint256"
						}
					],
					"name": "FundsWithdrawn",
					"type": "event"
				},
				{
					"anonymous": false,
					"inputs": [
						{
							"indexed": true,
							"internalType": "address",
							"name": "previousOwner",
							"type": "address"
						},
						{
							"indexed": true,
							"internalType": "address",
							"name": "newOwner",
							"type": "address"
						}
					],
					"name": "OwnershipTransferred",
					"type": "event"
				},
				{
					"anonymous": false,
					"inputs": [
						{
							"indexed": false,
							"internalType": "address",
							"name": "account",
							"type": "address"
						}
					],
					"name": "Paused",
					"type": "event"
				},
				{
					"anonymous": false,
					"inputs": [
						{
							"indexed": true,
							"internalType": "address",
							"name": "owner",
							"type": "address"
						},
						{
							"indexed": false,
							"internalType": "bool",
							"name": "status",
							"type": "bool"
						}
					],
					"name": "PresalePaused",
					"type": "event"
				},
				{
					"anonymous": false,
					"inputs": [
						{
							"indexed": true,
							"internalType": "address",
							"name": "buyer",
							"type": "address"
						},
						{
							"indexed": false,
							"internalType": "uint256",
							"name": "tokens",
							"type": "uint256"
						}
					],
					"name": "TokensClaimed",
					"type": "event"
				},
				{
					"anonymous": false,
					"inputs": [
						{
							"indexed": true,
							"internalType": "address",
							"name": "buyer",
							"type": "address"
						},
						{
							"indexed": false,
							"internalType": "uint256",
							"name": "amount",
							"type": "uint256"
						},
						{
							"indexed": false,
							"internalType": "uint256",
							"name": "tokens",
							"type": "uint256"
						}
					],
					"name": "TokensPurchased",
					"type": "event"
				},
				{
					"anonymous": false,
					"inputs": [
						{
							"indexed": false,
							"internalType": "address",
							"name": "account",
							"type": "address"
						}
					],
					"name": "Unpaused",
					"type": "event"
				},
				{
					"anonymous": false,
					"inputs": [
						{
							"indexed": true,
							"internalType": "address",
							"name": "owner",
							"type": "address"
						},
						{
							"indexed": false,
							"internalType": "uint256",
							"name": "tokens",
							"type": "uint256"
						}
					],
					"name": "UnsoldTokensWithdrawn",
					"type": "event"
				},
				{
					"stateMutability": "payable",
					"type": "fallback"
				},
				{
					"inputs": [],
					"name": "buyTokens",
					"outputs": [],
					"stateMutability": "payable",
					"type": "function"
				},
				{
					"inputs": [],
					"name": "claimTokens",
					"outputs": [],
					"stateMutability": "nonpayable",
					"type": "function"
				},
				{
					"inputs": [
						{
							"internalType": "address",
							"name": "",
							"type": "address"
						}
					],
					"name": "claimableTokens",
					"outputs": [
						{
							"internalType": "uint256",
							"name": "",
							"type": "uint256"
						}
					],
					"stateMutability": "view",
					"type": "function"
				},
				{
					"inputs": [
						{
							"internalType": "address",
							"name": "",
							"type": "address"
						}
					],
					"name": "contributions",
					"outputs": [
						{
							"internalType": "uint256",
							"name": "",
							"type": "uint256"
						}
					],
					"stateMutability": "view",
					"type": "function"
				},
				{
					"inputs": [],
					"name": "endTime",
					"outputs": [
						{
							"internalType": "uint256",
							"name": "",
							"type": "uint256"
						}
					],
					"stateMutability": "view",
					"type": "function"
				},
				{
					"inputs": [],
					"name": "getPresaleInfo",
					"outputs": [
						{
							"internalType": "uint256",
							"name": "_startTime",
							"type": "uint256"
						},
						{
							"internalType": "uint256",
							"name": "_endTime",
							"type": "uint256"
						},
						{
							"internalType": "uint256",
							"name": "_hardCap",
							"type": "uint256"
						},
						{
							"internalType": "uint256",
							"name": "_totalRaised",
							"type": "uint256"
						},
						{
							"internalType": "uint256",
							"name": "_tokenPrice",
							"type": "uint256"
						},
						{
							"internalType": "bool",
							"name": "_paused",
							"type": "bool"
						},
						{
							"internalType": "bool",
							"name": "_isActive",
							"type": "bool"
						}
					],
					"stateMutability": "view",
					"type": "function"
				},
				{
					"inputs": [],
					"name": "getPresaleProgress",
					"outputs": [
						{
							"internalType": "uint256",
							"name": "_totalRaised",
							"type": "uint256"
						},
						{
							"internalType": "uint256",
							"name": "_hardCap",
							"type": "uint256"
						},
						{
							"internalType": "uint256",
							"name": "_remaining",
							"type": "uint256"
						},
						{
							"internalType": "uint256",
							"name": "_progressPercent",
							"type": "uint256"
						}
					],
					"stateMutability": "view",
					"type": "function"
				},
				{
					"inputs": [
						{
							"internalType": "address",
							"name": "_user",
							"type": "address"
						}
					],
					"name": "getUserInfo",
					"outputs": [
						{
							"internalType": "uint256",
							"name": "_contribution",
							"type": "uint256"
						},
						{
							"internalType": "uint256",
							"name": "_claimableTokens",
							"type": "uint256"
						}
					],
					"stateMutability": "view",
					"type": "function"
				},
				{
					"inputs": [],
					"name": "hardCap",
					"outputs": [
						{
							"internalType": "uint256",
							"name": "",
							"type": "uint256"
						}
					],
					"stateMutability": "view",
					"type": "function"
				},
				{
					"inputs": [],
					"name": "owner",
					"outputs": [
						{
							"internalType": "address",
							"name": "",
							"type": "address"
						}
					],
					"stateMutability": "view",
					"type": "function"
				},
				{
					"inputs": [
						{
							"internalType": "bool",
							"name": "_status",
							"type": "bool"
						}
					],
					"name": "pausePresale",
					"outputs": [],
					"stateMutability": "nonpayable",
					"type": "function"
				},
				{
					"inputs": [],
					"name": "paused",
					"outputs": [
						{
							"internalType": "bool",
							"name": "",
							"type": "bool"
						}
					],
					"stateMutability": "view",
					"type": "function"
				},
				{
					"inputs": [],
					"name": "renounceOwnership",
					"outputs": [],
					"stateMutability": "nonpayable",
					"type": "function"
				},
				{
					"inputs": [],
					"name": "startTime",
					"outputs": [
						{
							"internalType": "uint256",
							"name": "",
							"type": "uint256"
						}
					],
					"stateMutability": "view",
					"type": "function"
				},
				{
					"inputs": [],
					"name": "token",
					"outputs": [
						{
							"internalType": "contract IERC20",
							"name": "",
							"type": "address"
						}
					],
					"stateMutability": "view",
					"type": "function"
				},
				{
					"inputs": [],
					"name": "tokenPrice",
					"outputs": [
						{
							"internalType": "uint256",
							"name": "",
							"type": "uint256"
						}
					],
					"stateMutability": "view",
					"type": "function"
				},
				{
					"inputs": [],
					"name": "totalRaised",
					"outputs": [
						{
							"internalType": "uint256",
							"name": "",
							"type": "uint256"
						}
					],
					"stateMutability": "view",
					"type": "function"
				},
				{
					"inputs": [
						{
							"internalType": "address",
							"name": "newOwner",
							"type": "address"
						}
					],
					"name": "transferOwnership",
					"outputs": [],
					"stateMutability": "nonpayable",
					"type": "function"
				},
				{
					"inputs": [
						{
							"internalType": "uint256",
							"name": "_hardCap",
							"type": "uint256"
						}
					],
					"name": "updateHardCap",
					"outputs": [],
					"stateMutability": "nonpayable",
					"type": "function"
				},
				{
					"inputs": [
						{
							"internalType": "uint256",
							"name": "_startTime",
							"type": "uint256"
						},
						{
							"internalType": "uint256",
							"name": "_endTime",
							"type": "uint256"
						}
					],
					"name": "updatePresaleTimes",
					"outputs": [],
					"stateMutability": "nonpayable",
					"type": "function"
				},
				{
					"inputs": [
						{
							"internalType": "uint256",
							"name": "_tokenPrice",
							"type": "uint256"
						}
					],
					"name": "updateTokenPrice",
					"outputs": [],
					"stateMutability": "nonpayable",
					"type": "function"
				},
				{
					"inputs": [],
					"name": "withdrawFunds",
					"outputs": [],
					"stateMutability": "nonpayable",
					"type": "function"
				},
				{
					"inputs": [],
					"name": "withdrawUnsoldTokens",
					"outputs": [],
					"stateMutability": "nonpayable",
					"type": "function"
				},
				{
					"stateMutability": "payable",
					"type": "receive"
				}
			],
			"devdoc": {
				"errors": {
					"OwnableInvalidOwner(address)": [
						{
							"details": "The owner is not a valid owner account. (eg. `address(0)`)"
						}
					],
					"OwnableUnauthorizedAccount(address)": [
						{
							"details": "The caller account is not authorized to perform an operation."
						}
					]
				},
				"events": {
					"Paused(address)": {
						"details": "Emitted when the pause is triggered by `account`."
					},
					"Unpaused(address)": {
						"details": "Emitted when the pause is lifted by `account`."
					}
				},
				"kind": "dev",
				"methods": {
					"owner()": {
						"details": "Returns the address of the current owner."
					},
					"paused()": {
						"details": "Returns true if the contract is paused, and false otherwise."
					},
					"renounceOwnership()": {
						"details": "Leaves the contract without owner. It will not be possible to call `onlyOwner` functions. Can only be called by the current owner. NOTE: Renouncing ownership will leave the contract without an owner, thereby disabling any functionality that is only available to the owner."
					},
					"transferOwnership(address)": {
						"details": "Transfers ownership of the contract to a new account (`newOwner`). Can only be called by the current owner."
					}
				},
				"version": 1
			},
			"evm": {
				"assembly": "    /* \"AlienPresale.sol\":288:6295  contract AlienPresale is Ownable, Pausable, ReentrancyGuard {... */\n  mstore(0x40, 0x80)\n    /* \"AlienPresale.sol\":1016:1707  constructor(... */\n  callvalue\n  dup1\n  iszero\n  tag_1\n  jumpi\n  0x00\n  dup1\n  revert\ntag_1:\n  pop\n  mload(0x40)\n  sub(codesize, bytecodeSize)\n  dup1\n  bytecodeSize\n  dup4\n  codecopy\n  dup2\n  dup2\n  add\n  0x40\n  mstore\n  dup2\n  add\n  swap1\n  tag_2\n  swap2\n  swap1\n  tag_3\n  jump\t// in\ntag_2:\n    /* \"AlienPresale.sol\":1175:1185  msg.sender */\n  caller\n    /* \"@openzeppelin/contracts/access/Ownable.sol\":1297:1298  0 */\n  0x00\n    /* \"@openzeppelin/contracts/access/Ownable.sol\":1273:1299  initialOwner == address(0) */\n  0xffffffffffffffffffffffffffffffffffffffff\n  and\n    /* \"@openzeppelin/contracts/access/Ownable.sol\":1273:1285  initialOwner */\n  dup2\n    /* \"@openzeppelin/contracts/access/Ownable.sol\":1273:1299  initialOwner == address(0) */\n  0xffffffffffffffffffffffffffffffffffffffff\n  and\n  sub\n    /* \"@openzeppelin/contracts/access/Ownable.sol\":1269:1364  if (initialOwner == address(0)) {... */\n  tag_9\n  jumpi\n    /* \"@openzeppelin/contracts/access/Ownable.sol\":1350:1351  0 */\n  0x00\n    /* \"@openzeppelin/contracts/access/Ownable.sol\":1322:1353  OwnableInvalidOwner(address(0)) */\n  mload(0x40)\n  0x1e4fbdf700000000000000000000000000000000000000000000000000000000\n  dup2\n  mstore\n  0x04\n  add\n  tag_10\n  swap2\n  swap1\n  tag_11\n  jump\t// in\ntag_10:\n  mload(0x40)\n  dup1\n  swap2\n  sub\n  swap1\n  revert\n    /* \"@openzeppelin/contracts/access/Ownable.sol\":1269:1364  if (initialOwner == address(0)) {... */\ntag_9:\n    /* \"@openzeppelin/contracts/access/Ownable.sol\":1373:1405  _transferOwnership(initialOwner) */\n  tag_12\n    /* \"@openzeppelin/contracts/access/Ownable.sol\":1392:1404  initialOwner */\n  dup2\n    /* \"@openzeppelin/contracts/access/Ownable.sol\":1373:1391  _transferOwnership */\n  shl(0x20, tag_13)\n    /* \"@openzeppelin/contracts/access/Ownable.sol\":1373:1405  _transferOwnership(initialOwner) */\n  0x20\n  shr\n  jump\t// in\ntag_12:\n    /* \"@openzeppelin/contracts/access/Ownable.sol\":1225:1412  constructor(address initialOwner) {... */\n  pop\n    /* \"@openzeppelin/contracts/security/Pausable.sol\":1006:1011  false */\n  0x00\n    /* \"@openzeppelin/contracts/security/Pausable.sol\":996:1003  _paused */\n  dup1\n  0x14\n    /* \"@openzeppelin/contracts/security/Pausable.sol\":996:1011  _paused = false */\n  0x0100\n  exp\n  dup2\n  sload\n  dup2\n  0xff\n  mul\n  not\n  and\n  swap1\n  dup4\n  iszero\n  iszero\n  mul\n  or\n  swap1\n  sstore\n  pop\n    /* \"@openzeppelin/contracts/security/ReentrancyGuard.sol\":1716:1717  1 */\n  0x01\n    /* \"@openzeppelin/contracts/security/ReentrancyGuard.sol\":1821:1828  _status */\n  dup1\n    /* \"@openzeppelin/contracts/security/ReentrancyGuard.sol\":1821:1843  _status = _NOT_ENTERED */\n  dup2\n  swap1\n  sstore\n  pop\n    /* \"AlienPresale.sol\":1223:1224  0 */\n  0x00\n    /* \"AlienPresale.sol\":1205:1225  _token != address(0) */\n  0xffffffffffffffffffffffffffffffffffffffff\n  and\n    /* \"AlienPresale.sol\":1205:1211  _token */\n  dup6\n    /* \"AlienPresale.sol\":1205:1225  _token != address(0) */\n  0xffffffffffffffffffffffffffffffffffffffff\n  and\n  sub\n    /* \"AlienPresale.sol\":1197:1251  require(_token != address(0), \"Invalid token address\") */\n  tag_17\n  jumpi\n  mload(0x40)\n  0x08c379a000000000000000000000000000000000000000000000000000000000\n  dup2\n  mstore\n  0x04\n  add\n  tag_18\n  swap1\n  tag_19\n  jump\t// in\ntag_18:\n  mload(0x40)\n  dup1\n  swap2\n  sub\n  swap1\n  revert\ntag_17:\n    /* \"AlienPresale.sol\":1282:1297  block.timestamp */\n  timestamp\n    /* \"AlienPresale.sol\":1269:1279  _startTime */\n  dup5\n    /* \"AlienPresale.sol\":1269:1297  _startTime > block.timestamp */\n  gt\n    /* \"AlienPresale.sol\":1261:1330  require(_startTime > block.timestamp, \"Start time must be in future\") */\n  tag_20\n  jumpi\n  mload(0x40)\n  0x08c379a000000000000000000000000000000000000000000000000000000000\n  dup2\n  mstore\n  0x04\n  add\n  tag_21\n  swap1\n  tag_22\n  jump\t// in\ntag_21:\n  mload(0x40)\n  dup1\n  swap2\n  sub\n  swap1\n  revert\ntag_20:\n    /* \"AlienPresale.sol\":1359:1369  _startTime */\n  dup4\n    /* \"AlienPresale.sol\":1348:1356  _endTime */\n  dup4\n    /* \"AlienPresale.sol\":1348:1369  _endTime > _startTime */\n  gt\n    /* \"AlienPresale.sol\":1340:1407  require(_endTime > _startTime, \"End time must be after start time\") */\n  tag_23\n  jumpi\n  mload(0x40)\n  0x08c379a000000000000000000000000000000000000000000000000000000000\n  dup2\n  mstore\n  0x04\n  add\n  tag_24\n  swap1\n  tag_25\n  jump\t// in\ntag_24:\n  mload(0x40)\n  dup1\n  swap2\n  sub\n  swap1\n  revert\ntag_23:\n    /* \"AlienPresale.sol\":1436:1437  0 */\n  0x00\n    /* \"AlienPresale.sol\":1425:1433  _hardCap */\n  dup3\n    /* \"AlienPresale.sol\":1425:1437  _hardCap > 0 */\n  gt\n    /* \"AlienPresale.sol\":1417:1473  require(_hardCap > 0, \"Hard cap must be greater than 0\") */\n  tag_26\n  jumpi\n  mload(0x40)\n  0x08c379a000000000000000000000000000000000000000000000000000000000\n  dup2\n  mstore\n  0x04\n  add\n  tag_27\n  swap1\n  tag_28\n  jump\t// in\ntag_27:\n  mload(0x40)\n  dup1\n  swap2\n  sub\n  swap1\n  revert\ntag_26:\n    /* \"AlienPresale.sol\":1505:1506  0 */\n  0x00\n    /* \"AlienPresale.sol\":1491:1502  _tokenPrice */\n  dup2\n    /* \"AlienPresale.sol\":1491:1506  _tokenPrice > 0 */\n  gt\n    /* \"AlienPresale.sol\":1483:1545  require(_tokenPrice > 0, \"Token price must be greater than 0\") */\n  tag_29\n  jumpi\n  mload(0x40)\n  0x08c379a000000000000000000000000000000000000000000000000000000000\n  dup2\n  mstore\n  0x04\n  add\n  tag_30\n  swap1\n  tag_31\n  jump\t// in\ntag_30:\n  mload(0x40)\n  dup1\n  swap2\n  sub\n  swap1\n  revert\ntag_29:\n    /* \"AlienPresale.sol\":1571:1577  _token */\n  dup5\n    /* \"AlienPresale.sol\":1556:1561  token */\n  0x02\n  0x00\n    /* \"AlienPresale.sol\":1556:1578  token = IERC20(_token) */\n  0x0100\n  exp\n  dup2\n  sload\n  dup2\n  0xffffffffffffffffffffffffffffffffffffffff\n  mul\n  not\n  and\n  swap1\n  dup4\n  0xffffffffffffffffffffffffffffffffffffffff\n  and\n  mul\n  or\n  swap1\n  sstore\n  pop\n    /* \"AlienPresale.sol\":1600:1610  _startTime */\n  dup4\n    /* \"AlienPresale.sol\":1588:1597  startTime */\n  0x03\n    /* \"AlienPresale.sol\":1588:1610  startTime = _startTime */\n  dup2\n  swap1\n  sstore\n  pop\n    /* \"AlienPresale.sol\":1630:1638  _endTime */\n  dup3\n    /* \"AlienPresale.sol\":1620:1627  endTime */\n  0x04\n    /* \"AlienPresale.sol\":1620:1638  endTime = _endTime */\n  dup2\n  swap1\n  sstore\n  pop\n    /* \"AlienPresale.sol\":1658:1666  _hardCap */\n  dup2\n    /* \"AlienPresale.sol\":1648:1655  hardCap */\n  0x05\n    /* \"AlienPresale.sol\":1648:1666  hardCap = _hardCap */\n  dup2\n  swap1\n  sstore\n  pop\n    /* \"AlienPresale.sol\":1689:1700  _tokenPrice */\n  dup1\n    /* \"AlienPresale.sol\":1676:1686  tokenPrice */\n  0x07\n    /* \"AlienPresale.sol\":1676:1700  tokenPrice = _tokenPrice */\n  dup2\n  swap1\n  sstore\n  pop\n    /* \"AlienPresale.sol\":1016:1707  constructor(... */\n  pop\n  pop\n  pop\n  pop\n  pop\n    /* \"AlienPresale.sol\":288:6295  contract AlienPresale is Ownable, Pausable, ReentrancyGuard {... */\n  jump(tag_32)\n    /* \"@openzeppelin/contracts/access/Ownable.sol\":2912:3099  function _transferOwnership(address newOwner) internal virtual {... */\ntag_13:\n    /* \"@openzeppelin/contracts/access/Ownable.sol\":2985:3001  address oldOwner */\n  0x00\n    /* \"@openzeppelin/contracts/access/Ownable.sol\":3004:3010  _owner */\n  dup1\n  0x00\n  swap1\n  sload\n  swap1\n  0x0100\n  exp\n  swap1\n  div\n  0xffffffffffffffffffffffffffffffffffffffff\n  and\n    /* \"@openzeppelin/contracts/access/Ownable.sol\":2985:3010  address oldOwner = _owner */\n  swap1\n  pop\n    /* \"@openzeppelin/contracts/access/Ownable.sol\":3029:3037  newOwner */\n  dup2\n    /* \"@openzeppelin/contracts/access/Ownable.sol\":3020:3026  _owner */\n  0x00\n  dup1\n    /* \"@openzeppelin/contracts/access/Ownable.sol\":3020:3037  _owner = newOwner */\n  0x0100\n  exp\n  dup2\n  sload\n  dup2\n  0xffffffffffffffffffffffffffffffffffffffff\n  mul\n  not\n  and\n  swap1\n  dup4\n  0xffffffffffffffffffffffffffffffffffffffff\n  and\n  mul\n  or\n  swap1\n  sstore\n  pop\n    /* \"@openzeppelin/contracts/access/Ownable.sol\":3083:3091  newOwner */\n  dup2\n    /* \"@openzeppelin/contracts/access/Ownable.sol\":3052:3092  OwnershipTransferred(oldOwner, newOwner) */\n  0xffffffffffffffffffffffffffffffffffffffff\n  and\n    /* \"@openzeppelin/contracts/access/Ownable.sol\":3073:3081  oldOwner */\n  dup2\n    /* \"@openzeppelin/contracts/access/Ownable.sol\":3052:3092  OwnershipTransferred(oldOwner, newOwner) */\n  0xffffffffffffffffffffffffffffffffffffffff\n  and\n  0x8be0079c531659141344cd1fd0a4f28419497f9722a3daafe3b4186f6b6457e0\n  mload(0x40)\n  mload(0x40)\n  dup1\n  swap2\n  sub\n  swap1\n  log3\n    /* \"@openzeppelin/contracts/access/Ownable.sol\":2975:3099  {... */\n  pop\n    /* \"@openzeppelin/contracts/access/Ownable.sol\":2912:3099  function _transferOwnership(address newOwner) internal virtual {... */\n  pop\n  jump\t// out\n    /* \"#utility.yul\":88:205   */\ntag_35:\n    /* \"#utility.yul\":197:198   */\n  0x00\n    /* \"#utility.yul\":194:195   */\n  dup1\n    /* \"#utility.yul\":187:199   */\n  revert\n    /* \"#utility.yul\":334:460   */\ntag_37:\n    /* \"#utility.yul\":371:378   */\n  0x00\n    /* \"#utility.yul\":411:453   */\n  0xffffffffffffffffffffffffffffffffffffffff\n    /* \"#utility.yul\":404:409   */\n  dup3\n    /* \"#utility.yul\":400:454   */\n  and\n    /* \"#utility.yul\":389:454   */\n  swap1\n  pop\n    /* \"#utility.yul\":334:460   */\n  swap2\n  swap1\n  pop\n  jump\t// out\n    /* \"#utility.yul\":466:562   */\ntag_38:\n    /* \"#utility.yul\":503:510   */\n  0x00\n    /* \"#utility.yul\":532:556   */\n  tag_62\n    /* \"#utility.yul\":550:555   */\n  dup3\n    /* \"#utility.yul\":532:556   */\n  tag_37\n  jump\t// in\ntag_62:\n    /* \"#utility.yul\":521:556   */\n  swap1\n  pop\n    /* \"#utility.yul\":466:562   */\n  swap2\n  swap1\n  pop\n  jump\t// out\n    /* \"#utility.yul\":568:690   */\ntag_39:\n    /* \"#utility.yul\":641:665   */\n  tag_64\n    /* \"#utility.yul\":659:664   */\n  dup2\n    /* \"#utility.yul\":641:665   */\n  tag_38\n  jump\t// in\ntag_64:\n    /* \"#utility.yul\":634:639   */\n  dup2\n    /* \"#utility.yul\":631:666   */\n  eq\n    /* \"#utility.yul\":621:684   */\n  tag_65\n  jumpi\n    /* \"#utility.yul\":680:681   */\n  0x00\n    /* \"#utility.yul\":677:678   */\n  dup1\n    /* \"#utility.yul\":670:682   */\n  revert\n    /* \"#utility.yul\":621:684   */\ntag_65:\n    /* \"#utility.yul\":568:690   */\n  pop\n  jump\t// out\n    /* \"#utility.yul\":696:839   */\ntag_40:\n    /* \"#utility.yul\":753:758   */\n  0x00\n    /* \"#utility.yul\":784:790   */\n  dup2\n    /* \"#utility.yul\":778:791   */\n  mload\n    /* \"#utility.yul\":769:791   */\n  swap1\n  pop\n    /* \"#utility.yul\":800:833   */\n  tag_67\n    /* \"#utility.yul\":827:832   */\n  dup2\n    /* \"#utility.yul\":800:833   */\n  tag_39\n  jump\t// in\ntag_67:\n    /* \"#utility.yul\":696:839   */\n  swap3\n  swap2\n  pop\n  pop\n  jump\t// out\n    /* \"#utility.yul\":845:922   */\ntag_41:\n    /* \"#utility.yul\":882:889   */\n  0x00\n    /* \"#utility.yul\":911:916   */\n  dup2\n    /* \"#utility.yul\":900:916   */\n  swap1\n  pop\n    /* \"#utility.yul\":845:922   */\n  swap2\n  swap1\n  pop\n  jump\t// out\n    /* \"#utility.yul\":928:1050   */\ntag_42:\n    /* \"#utility.yul\":1001:1025   */\n  tag_70\n    /* \"#utility.yul\":1019:1024   */\n  dup2\n    /* \"#utility.yul\":1001:1025   */\n  tag_41\n  jump\t// in\ntag_70:\n    /* \"#utility.yul\":994:999   */\n  dup2\n    /* \"#utility.yul\":991:1026   */\n  eq\n    /* \"#utility.yul\":981:1044   */\n  tag_71\n  jumpi\n    /* \"#utility.yul\":1040:1041   */\n  0x00\n    /* \"#utility.yul\":1037:1038   */\n  dup1\n    /* \"#utility.yul\":1030:1042   */\n  revert\n    /* \"#utility.yul\":981:1044   */\ntag_71:\n    /* \"#utility.yul\":928:1050   */\n  pop\n  jump\t// out\n    /* \"#utility.yul\":1056:1199   */\ntag_43:\n    /* \"#utility.yul\":1113:1118   */\n  0x00\n    /* \"#utility.yul\":1144:1150   */\n  dup2\n    /* \"#utility.yul\":1138:1151   */\n  mload\n    /* \"#utility.yul\":1129:1151   */\n  swap1\n  pop\n    /* \"#utility.yul\":1160:1193   */\n  tag_73\n    /* \"#utility.yul\":1187:1192   */\n  dup2\n    /* \"#utility.yul\":1160:1193   */\n  tag_42\n  jump\t// in\ntag_73:\n    /* \"#utility.yul\":1056:1199   */\n  swap3\n  swap2\n  pop\n  pop\n  jump\t// out\n    /* \"#utility.yul\":1205:2182   */\ntag_3:\n    /* \"#utility.yul\":1311:1317   */\n  0x00\n    /* \"#utility.yul\":1319:1325   */\n  dup1\n    /* \"#utility.yul\":1327:1333   */\n  0x00\n    /* \"#utility.yul\":1335:1341   */\n  dup1\n    /* \"#utility.yul\":1343:1349   */\n  0x00\n    /* \"#utility.yul\":1392:1395   */\n  0xa0\n    /* \"#utility.yul\":1380:1389   */\n  dup7\n    /* \"#utility.yul\":1371:1378   */\n  dup9\n    /* \"#utility.yul\":1367:1390   */\n  sub\n    /* \"#utility.yul\":1363:1396   */\n  slt\n    /* \"#utility.yul\":1360:1480   */\n  iszero\n  tag_75\n  jumpi\n    /* \"#utility.yul\":1399:1478   */\n  tag_76\n  tag_35\n  jump\t// in\ntag_76:\n    /* \"#utility.yul\":1360:1480   */\ntag_75:\n    /* \"#utility.yul\":1519:1520   */\n  0x00\n    /* \"#utility.yul\":1544:1608   */\n  tag_77\n    /* \"#utility.yul\":1600:1607   */\n  dup9\n    /* \"#utility.yul\":1591:1597   */\n  dup3\n    /* \"#utility.yul\":1580:1589   */\n  dup10\n    /* \"#utility.yul\":1576:1598   */\n  add\n    /* \"#utility.yul\":1544:1608   */\n  tag_40\n  jump\t// in\ntag_77:\n    /* \"#utility.yul\":1534:1608   */\n  swap6\n  pop\n    /* \"#utility.yul\":1490:1618   */\n  pop\n    /* \"#utility.yul\":1657:1659   */\n  0x20\n    /* \"#utility.yul\":1683:1747   */\n  tag_78\n    /* \"#utility.yul\":1739:1746   */\n  dup9\n    /* \"#utility.yul\":1730:1736   */\n  dup3\n    /* \"#utility.yul\":1719:1728   */\n  dup10\n    /* \"#utility.yul\":1715:1737   */\n  add\n    /* \"#utility.yul\":1683:1747   */\n  tag_43\n  jump\t// in\ntag_78:\n    /* \"#utility.yul\":1673:1747   */\n  swap5\n  pop\n    /* \"#utility.yul\":1628:1757   */\n  pop\n    /* \"#utility.yul\":1796:1798   */\n  0x40\n    /* \"#utility.yul\":1822:1886   */\n  tag_79\n    /* \"#utility.yul\":1878:1885   */\n  dup9\n    /* \"#utility.yul\":1869:1875   */\n  dup3\n    /* \"#utility.yul\":1858:1867   */\n  dup10\n    /* \"#utility.yul\":1854:1876   */\n  add\n    /* \"#utility.yul\":1822:1886   */\n  tag_43\n  jump\t// in\ntag_79:\n    /* \"#utility.yul\":1812:1886   */\n  swap4\n  pop\n    /* \"#utility.yul\":1767:1896   */\n  pop\n    /* \"#utility.yul\":1935:1937   */\n  0x60\n    /* \"#utility.yul\":1961:2025   */\n  tag_80\n    /* \"#utility.yul\":2017:2024   */\n  dup9\n    /* \"#utility.yul\":2008:2014   */\n  dup3\n    /* \"#utility.yul\":1997:2006   */\n  dup10\n    /* \"#utility.yul\":1993:2015   */\n  add\n    /* \"#utility.yul\":1961:2025   */\n  tag_43\n  jump\t// in\ntag_80:\n    /* \"#utility.yul\":1951:2025   */\n  swap3\n  pop\n    /* \"#utility.yul\":1906:2035   */\n  pop\n    /* \"#utility.yul\":2074:2077   */\n  0x80\n    /* \"#utility.yul\":2101:2165   */\n  tag_81\n    /* \"#utility.yul\":2157:2164   */\n  dup9\n    /* \"#utility.yul\":2148:2154   */\n  dup3\n    /* \"#utility.yul\":2137:2146   */\n  dup10\n    /* \"#utility.yul\":2133:2155   */\n  add\n    /* \"#utility.yul\":2101:2165   */\n  tag_43\n  jump\t// in\ntag_81:\n    /* \"#utility.yul\":2091:2165   */\n  swap2\n  pop\n    /* \"#utility.yul\":2045:2175   */\n  pop\n    /* \"#utility.yul\":1205:2182   */\n  swap3\n  swap6\n  pop\n  swap3\n  swap6\n  swap1\n  swap4\n  pop\n  jump\t// out\n    /* \"#utility.yul\":2188:2306   */\ntag_44:\n    /* \"#utility.yul\":2275:2299   */\n  tag_83\n    /* \"#utility.yul\":2293:2298   */\n  dup2\n    /* \"#utility.yul\":2275:2299   */\n  tag_38\n  jump\t// in\ntag_83:\n    /* \"#utility.yul\":2270:2273   */\n  dup3\n    /* \"#utility.yul\":2263:2300   */\n  mstore\n    /* \"#utility.yul\":2188:2306   */\n  pop\n  pop\n  jump\t// out\n    /* \"#utility.yul\":2312:2534   */\ntag_11:\n    /* \"#utility.yul\":2405:2409   */\n  0x00\n    /* \"#utility.yul\":2443:2445   */\n  0x20\n    /* \"#utility.yul\":2432:2441   */\n  dup3\n    /* \"#utility.yul\":2428:2446   */\n  add\n    /* \"#utility.yul\":2420:2446   */\n  swap1\n  pop\n    /* \"#utility.yul\":2456:2527   */\n  tag_85\n    /* \"#utility.yul\":2524:2525   */\n  0x00\n    /* \"#utility.yul\":2513:2522   */\n  dup4\n    /* \"#utility.yul\":2509:2526   */\n  add\n    /* \"#utility.yul\":2500:2506   */\n  dup5\n    /* \"#utility.yul\":2456:2527   */\n  tag_44\n  jump\t// in\ntag_85:\n    /* \"#utility.yul\":2312:2534   */\n  swap3\n  swap2\n  pop\n  pop\n  jump\t// out\n    /* \"#utility.yul\":2540:2709   */\ntag_45:\n    /* \"#utility.yul\":2624:2635   */\n  0x00\n    /* \"#utility.yul\":2658:2664   */\n  dup3\n    /* \"#utility.yul\":2653:2656   */\n  dup3\n    /* \"#utility.yul\":2646:2665   */\n  mstore\n    /* \"#utility.yul\":2698:2702   */\n  0x20\n    /* \"#utility.yul\":2693:2696   */\n  dup3\n    /* \"#utility.yul\":2689:2703   */\n  add\n    /* \"#utility.yul\":2674:2703   */\n  swap1\n  pop\n    /* \"#utility.yul\":2540:2709   */\n  swap3\n  swap2\n  pop\n  pop\n  jump\t// out\n    /* \"#utility.yul\":2715:2886   */\ntag_46:\n    /* \"#utility.yul\":2855:2878   */\n  0x496e76616c696420746f6b656e20616464726573730000000000000000000000\n    /* \"#utility.yul\":2851:2852   */\n  0x00\n    /* \"#utility.yul\":2843:2849   */\n  dup3\n    /* \"#utility.yul\":2839:2853   */\n  add\n    /* \"#utility.yul\":2832:2879   */\n  mstore\n    /* \"#utility.yul\":2715:2886   */\n  pop\n  jump\t// out\n    /* \"#utility.yul\":2892:3258   */\ntag_47:\n    /* \"#utility.yul\":3034:3037   */\n  0x00\n    /* \"#utility.yul\":3055:3122   */\n  tag_89\n    /* \"#utility.yul\":3119:3121   */\n  0x15\n    /* \"#utility.yul\":3114:3117   */\n  dup4\n    /* \"#utility.yul\":3055:3122   */\n  tag_45\n  jump\t// in\ntag_89:\n    /* \"#utility.yul\":3048:3122   */\n  swap2\n  pop\n    /* \"#utility.yul\":3131:3224   */\n  tag_90\n    /* \"#utility.yul\":3220:3223   */\n  dup3\n    /* \"#utility.yul\":3131:3224   */\n  tag_46\n  jump\t// in\ntag_90:\n    /* \"#utility.yul\":3249:3251   */\n  0x20\n    /* \"#utility.yul\":3244:3247   */\n  dup3\n    /* \"#utility.yul\":3240:3252   */\n  add\n    /* \"#utility.yul\":3233:3252   */\n  swap1\n  pop\n    /* \"#utility.yul\":2892:3258   */\n  swap2\n  swap1\n  pop\n  jump\t// out\n    /* \"#utility.yul\":3264:3683   */\ntag_19:\n    /* \"#utility.yul\":3430:3434   */\n  0x00\n    /* \"#utility.yul\":3468:3470   */\n  0x20\n    /* \"#utility.yul\":3457:3466   */\n  dup3\n    /* \"#utility.yul\":3453:3471   */\n  add\n    /* \"#utility.yul\":3445:3471   */\n  swap1\n  pop\n    /* \"#utility.yul\":3517:3526   */\n  dup2\n    /* \"#utility.yul\":3511:3515   */\n  dup2\n    /* \"#utility.yul\":3507:3527   */\n  sub\n    /* \"#utility.yul\":3503:3504   */\n  0x00\n    /* \"#utility.yul\":3492:3501   */\n  dup4\n    /* \"#utility.yul\":3488:3505   */\n  add\n    /* \"#utility.yul\":3481:3528   */\n  mstore\n    /* \"#utility.yul\":3545:3676   */\n  tag_92\n    /* \"#utility.yul\":3671:3675   */\n  dup2\n    /* \"#utility.yul\":3545:3676   */\n  tag_47\n  jump\t// in\ntag_92:\n    /* \"#utility.yul\":3537:3676   */\n  swap1\n  pop\n    /* \"#utility.yul\":3264:3683   */\n  swap2\n  swap1\n  pop\n  jump\t// out\n    /* \"#utility.yul\":3689:3867   */\ntag_48:\n    /* \"#utility.yul\":3829:3859   */\n  0x53746172742074696d65206d75737420626520696e2066757475726500000000\n    /* \"#utility.yul\":3825:3826   */\n  0x00\n    /* \"#utility.yul\":3817:3823   */\n  dup3\n    /* \"#utility.yul\":3813:3827   */\n  add\n    /* \"#utility.yul\":3806:3860   */\n  mstore\n    /* \"#utility.yul\":3689:3867   */\n  pop\n  jump\t// out\n    /* \"#utility.yul\":3873:4239   */\ntag_49:\n    /* \"#utility.yul\":4015:4018   */\n  0x00\n    /* \"#utility.yul\":4036:4103   */\n  tag_95\n    /* \"#utility.yul\":4100:4102   */\n  0x1c\n    /* \"#utility.yul\":4095:4098   */\n  dup4\n    /* \"#utility.yul\":4036:4103   */\n  tag_45\n  jump\t// in\ntag_95:\n    /* \"#utility.yul\":4029:4103   */\n  swap2\n  pop\n    /* \"#utility.yul\":4112:4205   */\n  tag_96\n    /* \"#utility.yul\":4201:4204   */\n  dup3\n    /* \"#utility.yul\":4112:4205   */\n  tag_48\n  jump\t// in\ntag_96:\n    /* \"#utility.yul\":4230:4232   */\n  0x20\n    /* \"#utility.yul\":4225:4228   */\n  dup3\n    /* \"#utility.yul\":4221:4233   */\n  add\n    /* \"#utility.yul\":4214:4233   */\n  swap1\n  pop\n    /* \"#utility.yul\":3873:4239   */\n  swap2\n  swap1\n  pop\n  jump\t// out\n    /* \"#utility.yul\":4245:4664   */\ntag_22:\n    /* \"#utility.yul\":4411:4415   */\n  0x00\n    /* \"#utility.yul\":4449:4451   */\n  0x20\n    /* \"#utility.yul\":4438:4447   */\n  dup3\n    /* \"#utility.yul\":4434:4452   */\n  add\n    /* \"#utility.yul\":4426:4452   */\n  swap1\n  pop\n    /* \"#utility.yul\":4498:4507   */\n  dup2\n    /* \"#utility.yul\":4492:4496   */\n  dup2\n    /* \"#utility.yul\":4488:4508   */\n  sub\n    /* \"#utility.yul\":4484:4485   */\n  0x00\n    /* \"#utility.yul\":4473:4482   */\n  dup4\n    /* \"#utility.yul\":4469:4486   */\n  add\n    /* \"#utility.yul\":4462:4509   */\n  mstore\n    /* \"#utility.yul\":4526:4657   */\n  tag_98\n    /* \"#utility.yul\":4652:4656   */\n  dup2\n    /* \"#utility.yul\":4526:4657   */\n  tag_49\n  jump\t// in\ntag_98:\n    /* \"#utility.yul\":4518:4657   */\n  swap1\n  pop\n    /* \"#utility.yul\":4245:4664   */\n  swap2\n  swap1\n  pop\n  jump\t// out\n    /* \"#utility.yul\":4670:4890   */\ntag_50:\n    /* \"#utility.yul\":4810:4844   */\n  0x456e642074696d65206d7573742062652061667465722073746172742074696d\n    /* \"#utility.yul\":4806:4807   */\n  0x00\n    /* \"#utility.yul\":4798:4804   */\n  dup3\n    /* \"#utility.yul\":4794:4808   */\n  add\n    /* \"#utility.yul\":4787:4845   */\n  mstore\n    /* \"#utility.yul\":4879:4882   */\n  0x6500000000000000000000000000000000000000000000000000000000000000\n    /* \"#utility.yul\":4874:4876   */\n  0x20\n    /* \"#utility.yul\":4866:4872   */\n  dup3\n    /* \"#utility.yul\":4862:4877   */\n  add\n    /* \"#utility.yul\":4855:4883   */\n  mstore\n    /* \"#utility.yul\":4670:4890   */\n  pop\n  jump\t// out\n    /* \"#utility.yul\":4896:5262   */\ntag_51:\n    /* \"#utility.yul\":5038:5041   */\n  0x00\n    /* \"#utility.yul\":5059:5126   */\n  tag_101\n    /* \"#utility.yul\":5123:5125   */\n  0x21\n    /* \"#utility.yul\":5118:5121   */\n  dup4\n    /* \"#utility.yul\":5059:5126   */\n  tag_45\n  jump\t// in\ntag_101:\n    /* \"#utility.yul\":5052:5126   */\n  swap2\n  pop\n    /* \"#utility.yul\":5135:5228   */\n  tag_102\n    /* \"#utility.yul\":5224:5227   */\n  dup3\n    /* \"#utility.yul\":5135:5228   */\n  tag_50\n  jump\t// in\ntag_102:\n    /* \"#utility.yul\":5253:5255   */\n  0x40\n    /* \"#utility.yul\":5248:5251   */\n  dup3\n    /* \"#utility.yul\":5244:5256   */\n  add\n    /* \"#utility.yul\":5237:5256   */\n  swap1\n  pop\n    /* \"#utility.yul\":4896:5262   */\n  swap2\n  swap1\n  pop\n  jump\t// out\n    /* \"#utility.yul\":5268:5687   */\ntag_25:\n    /* \"#utility.yul\":5434:5438   */\n  0x00\n    /* \"#utility.yul\":5472:5474   */\n  0x20\n    /* \"#utility.yul\":5461:5470   */\n  dup3\n    /* \"#utility.yul\":5457:5475   */\n  add\n    /* \"#utility.yul\":5449:5475   */\n  swap1\n  pop\n    /* \"#utility.yul\":5521:5530   */\n  dup2\n    /* \"#utility.yul\":5515:5519   */\n  dup2\n    /* \"#utility.yul\":5511:5531   */\n  sub\n    /* \"#utility.yul\":5507:5508   */\n  0x00\n    /* \"#utility.yul\":5496:5505   */\n  dup4\n    /* \"#utility.yul\":5492:5509   */\n  add\n    /* \"#utility.yul\":5485:5532   */\n  mstore\n    /* \"#utility.yul\":5549:5680   */\n  tag_104\n    /* \"#utility.yul\":5675:5679   */\n  dup2\n    /* \"#utility.yul\":5549:5680   */\n  tag_51\n  jump\t// in\ntag_104:\n    /* \"#utility.yul\":5541:5680   */\n  swap1\n  pop\n    /* \"#utility.yul\":5268:5687   */\n  swap2\n  swap1\n  pop\n  jump\t// out\n    /* \"#utility.yul\":5693:5874   */\ntag_52:\n    /* \"#utility.yul\":5833:5866   */\n  0x4861726420636170206d7573742062652067726561746572207468616e203000\n    /* \"#utility.yul\":5829:5830   */\n  0x00\n    /* \"#utility.yul\":5821:5827   */\n  dup3\n    /* \"#utility.yul\":5817:5831   */\n  add\n    /* \"#utility.yul\":5810:5867   */\n  mstore\n    /* \"#utility.yul\":5693:5874   */\n  pop\n  jump\t// out\n    /* \"#utility.yul\":5880:6246   */\ntag_53:\n    /* \"#utility.yul\":6022:6025   */\n  0x00\n    /* \"#utility.yul\":6043:6110   */\n  tag_107\n    /* \"#utility.yul\":6107:6109   */\n  0x1f\n    /* \"#utility.yul\":6102:6105   */\n  dup4\n    /* \"#utility.yul\":6043:6110   */\n  tag_45\n  jump\t// in\ntag_107:\n    /* \"#utility.yul\":6036:6110   */\n  swap2\n  pop\n    /* \"#utility.yul\":6119:6212   */\n  tag_108\n    /* \"#utility.yul\":6208:6211   */\n  dup3\n    /* \"#utility.yul\":6119:6212   */\n  tag_52\n  jump\t// in\ntag_108:\n    /* \"#utility.yul\":6237:6239   */\n  0x20\n    /* \"#utility.yul\":6232:6235   */\n  dup3\n    /* \"#utility.yul\":6228:6240   */\n  add\n    /* \"#utility.yul\":6221:6240   */\n  swap1\n  pop\n    /* \"#utility.yul\":5880:6246   */\n  swap2\n  swap1\n  pop\n  jump\t// out\n    /* \"#utility.yul\":6252:6671   */\ntag_28:\n    /* \"#utility.yul\":6418:6422   */\n  0x00\n    /* \"#utility.yul\":6456:6458   */\n  0x20\n    /* \"#utility.yul\":6445:6454   */\n  dup3\n    /* \"#utility.yul\":6441:6459   */\n  add\n    /* \"#utility.yul\":6433:6459   */\n  swap1\n  pop\n    /* \"#utility.yul\":6505:6514   */\n  dup2\n    /* \"#utility.yul\":6499:6503   */\n  dup2\n    /* \"#utility.yul\":6495:6515   */\n  sub\n    /* \"#utility.yul\":6491:6492   */\n  0x00\n    /* \"#utility.yul\":6480:6489   */\n  dup4\n    /* \"#utility.yul\":6476:6493   */\n  add\n    /* \"#utility.yul\":6469:6516   */\n  mstore\n    /* \"#utility.yul\":6533:6664   */\n  tag_110\n    /* \"#utility.yul\":6659:6663   */\n  dup2\n    /* \"#utility.yul\":6533:6664   */\n  tag_53\n  jump\t// in\ntag_110:\n    /* \"#utility.yul\":6525:6664   */\n  swap1\n  pop\n    /* \"#utility.yul\":6252:6671   */\n  swap2\n  swap1\n  pop\n  jump\t// out\n    /* \"#utility.yul\":6677:6898   */\ntag_54:\n    /* \"#utility.yul\":6817:6851   */\n  0x546f6b656e207072696365206d7573742062652067726561746572207468616e\n    /* \"#utility.yul\":6813:6814   */\n  0x00\n    /* \"#utility.yul\":6805:6811   */\n  dup3\n    /* \"#utility.yul\":6801:6815   */\n  add\n    /* \"#utility.yul\":6794:6852   */\n  mstore\n    /* \"#utility.yul\":6886:6890   */\n  0x2030000000000000000000000000000000000000000000000000000000000000\n    /* \"#utility.yul\":6881:6883   */\n  0x20\n    /* \"#utility.yul\":6873:6879   */\n  dup3\n    /* \"#utility.yul\":6869:6884   */\n  add\n    /* \"#utility.yul\":6862:6891   */\n  mstore\n    /* \"#utility.yul\":6677:6898   */\n  pop\n  jump\t// out\n    /* \"#utility.yul\":6904:7270   */\ntag_55:\n    /* \"#utility.yul\":7046:7049   */\n  0x00\n    /* \"#utility.yul\":7067:7134   */\n  tag_113\n    /* \"#utility.yul\":7131:7133   */\n  0x22\n    /* \"#utility.yul\":7126:7129   */\n  dup4\n    /* \"#utility.yul\":7067:7134   */\n  tag_45\n  jump\t// in\ntag_113:\n    /* \"#utility.yul\":7060:7134   */\n  swap2\n  pop\n    /* \"#utility.yul\":7143:7236   */\n  tag_114\n    /* \"#utility.yul\":7232:7235   */\n  dup3\n    /* \"#utility.yul\":7143:7236   */\n  tag_54\n  jump\t// in\ntag_114:\n    /* \"#utility.yul\":7261:7263   */\n  0x40\n    /* \"#utility.yul\":7256:7259   */\n  dup3\n    /* \"#utility.yul\":7252:7264   */\n  add\n    /* \"#utility.yul\":7245:7264   */\n  swap1\n  pop\n    /* \"#utility.yul\":6904:7270   */\n  swap2\n  swap1\n  pop\n  jump\t// out\n    /* \"#utility.yul\":7276:7695   */\ntag_31:\n    /* \"#utility.yul\":7442:7446   */\n  0x00\n    /* \"#utility.yul\":7480:7482   */\n  0x20\n    /* \"#utility.yul\":7469:7478   */\n  dup3\n    /* \"#utility.yul\":7465:7483   */\n  add\n    /* \"#utility.yul\":7457:7483   */\n  swap1\n  pop\n    /* \"#utility.yul\":7529:7538   */\n  dup2\n    /* \"#utility.yul\":7523:7527   */\n  dup2\n    /* \"#utility.yul\":7519:7539   */\n  sub\n    /* \"#utility.yul\":7515:7516   */\n  0x00\n    /* \"#utility.yul\":7504:7513   */\n  dup4\n    /* \"#utility.yul\":7500:7517   */\n  add\n    /* \"#utility.yul\":7493:7540   */\n  mstore\n    /* \"#utility.yul\":7557:7688   */\n  tag_116\n    /* \"#utility.yul\":7683:7687   */\n  dup2\n    /* \"#utility.yul\":7557:7688   */\n  tag_55\n  jump\t// in\ntag_116:\n    /* \"#utility.yul\":7549:7688   */\n  swap1\n  pop\n    /* \"#utility.yul\":7276:7695   */\n  swap2\n  swap1\n  pop\n  jump\t// out\n    /* \"AlienPresale.sol\":288:6295  contract AlienPresale is Ownable, Pausable, ReentrancyGuard {... */\ntag_32:\n  dataSize(sub_0)\n  dup1\n  dataOffset(sub_0)\n  0x00\n  codecopy\n  0x00\n  return\nstop\n\nsub_0: assembly {\n        /* \"AlienPresale.sol\":288:6295  contract AlienPresale is Ownable, Pausable, ReentrancyGuard {... */\n      mstore(0x40, 0x80)\n      jumpi(tag_1, lt(calldatasize, 0x04))\n      shr(0xe0, calldataload(0x00))\n      dup1\n      0x78e97925\n      gt\n      tag_26\n      jumpi\n      dup1\n      0xd0febe4c\n      gt\n      tag_27\n      jumpi\n      dup1\n      0xd0febe4c\n      eq\n      tag_20\n      jumpi\n      dup1\n      0xd7299ef7\n      eq\n      tag_21\n      jumpi\n      dup1\n      0xed622dd3\n      eq\n      tag_22\n      jumpi\n      dup1\n      0xf2fde38b\n      eq\n      tag_23\n      jumpi\n      dup1\n      0xfb86a404\n      eq\n      tag_24\n      jumpi\n      dup1\n      0xfc0c546a\n      eq\n      tag_25\n      jumpi\n      jump(tag_2)\n    tag_27:\n      dup1\n      0x78e97925\n      eq\n      tag_14\n      jumpi\n      dup1\n      0x7ff9b596\n      eq\n      tag_15\n      jumpi\n      dup1\n      0x84d24226\n      eq\n      tag_16\n      jumpi\n      dup1\n      0x8da5cb5b\n      eq\n      tag_17\n      jumpi\n      dup1\n      0xc5c4744c\n      eq\n      tag_18\n      jumpi\n      dup1\n      0xc8bdbfb6\n      eq\n      tag_19\n      jumpi\n      jump(tag_2)\n    tag_26:\n      dup1\n      0x5c975abb\n      gt\n      tag_28\n      jumpi\n      dup1\n      0x5c975abb\n      eq\n      tag_8\n      jumpi\n      dup1\n      0x6386c1c7\n      eq\n      tag_9\n      jumpi\n      dup1\n      0x676c0d77\n      eq\n      tag_10\n      jumpi\n      dup1\n      0x703df793\n      eq\n      tag_11\n      jumpi\n      dup1\n      0x715018a6\n      eq\n      tag_12\n      jumpi\n      dup1\n      0x767fa723\n      eq\n      tag_13\n      jumpi\n      jump(tag_2)\n    tag_28:\n      dup1\n      0x08f385\n      eq\n      tag_3\n      jumpi\n      dup1\n      0x24600fc3\n      eq\n      tag_4\n      jumpi\n      dup1\n      0x3197cbb6\n      eq\n      tag_5\n      jumpi\n      dup1\n      0x42e94c90\n      eq\n      tag_6\n      jumpi\n      dup1\n      0x48c54b9d\n      eq\n      tag_7\n      jumpi\n      jump(tag_2)\n    tag_1:\n      jumpi(tag_2, calldatasize)\n        /* \"AlienPresale.sol\":6213:6224  buyTokens() */\n      tag_31\n        /* \"AlienPresale.sol\":6213:6222  buyTokens */\n      tag_32\n        /* \"AlienPresale.sol\":6213:6224  buyTokens() */\n      jump\t// in\n    tag_31:\n        /* \"AlienPresale.sol\":288:6295  contract AlienPresale is Ownable, Pausable, ReentrancyGuard {... */\n      stop\n    tag_2:\n        /* \"AlienPresale.sol\":6275:6286  buyTokens() */\n      tag_35\n        /* \"AlienPresale.sol\":6275:6284  buyTokens */\n      tag_32\n        /* \"AlienPresale.sol\":6275:6286  buyTokens() */\n      jump\t// in\n    tag_35:\n        /* \"AlienPresale.sol\":288:6295  contract AlienPresale is Ownable, Pausable, ReentrancyGuard {... */\n      stop\n        /* \"AlienPresale.sol\":5684:6170  function getPresaleProgress()... */\n    tag_3:\n      callvalue\n      dup1\n      iszero\n      tag_36\n      jumpi\n      0x00\n      dup1\n      revert\n    tag_36:\n      pop\n      tag_37\n      tag_38\n      jump\t// in\n    tag_37:\n      mload(0x40)\n      tag_39\n      swap5\n      swap4\n      swap3\n      swap2\n      swap1\n      tag_40\n      jump\t// in\n    tag_39:\n      mload(0x40)\n      dup1\n      swap2\n      sub\n      swap1\n      return\n        /* \"AlienPresale.sol\":3032:3432  function withdrawFunds() external onlyOwner {... */\n    tag_4:\n      callvalue\n      dup1\n      iszero\n      tag_41\n      jumpi\n      0x00\n      dup1\n      revert\n    tag_41:\n      pop\n      tag_42\n      tag_43\n      jump\t// in\n    tag_42:\n      stop\n        /* \"AlienPresale.sol\":410:432  uint256 public endTime */\n    tag_5:\n      callvalue\n      dup1\n      iszero\n      tag_44\n      jumpi\n      0x00\n      dup1\n      revert\n    tag_44:\n      pop\n      tag_45\n      tag_46\n      jump\t// in\n    tag_45:\n      mload(0x40)\n      tag_47\n      swap2\n      swap1\n      tag_48\n      jump\t// in\n    tag_47:\n      mload(0x40)\n      dup1\n      swap2\n      sub\n      swap1\n      return\n        /* \"AlienPresale.sol\":530:578  mapping(address => uint256) public contributions */\n    tag_6:\n      callvalue\n      dup1\n      iszero\n      tag_49\n      jumpi\n      0x00\n      dup1\n      revert\n    tag_49:\n      pop\n      tag_50\n      0x04\n      dup1\n      calldatasize\n      sub\n      dup2\n      add\n      swap1\n      tag_51\n      swap2\n      swap1\n      tag_52\n      jump\t// in\n    tag_51:\n      tag_53\n      jump\t// in\n    tag_50:\n      mload(0x40)\n      tag_54\n      swap2\n      swap1\n      tag_48\n      jump\t// in\n    tag_54:\n      mload(0x40)\n      dup1\n      swap2\n      sub\n      swap1\n      return\n        /* \"AlienPresale.sol\":2558:3026  function claimTokens() external nonReentrant {... */\n    tag_7:\n      callvalue\n      dup1\n      iszero\n      tag_55\n      jumpi\n      0x00\n      dup1\n      revert\n    tag_55:\n      pop\n      tag_56\n      tag_57\n      jump\t// in\n    tag_56:\n      stop\n        /* \"@openzeppelin/contracts/security/Pausable.sol\":1615:1699  function paused() public view virtual returns (bool) {... */\n    tag_8:\n      callvalue\n      dup1\n      iszero\n      tag_58\n      jumpi\n      0x00\n      dup1\n      revert\n    tag_58:\n      pop\n      tag_59\n      tag_60\n      jump\t// in\n    tag_59:\n      mload(0x40)\n      tag_61\n      swap2\n      swap1\n      tag_62\n      jump\t// in\n    tag_61:\n      mload(0x40)\n      dup1\n      swap2\n      sub\n      swap1\n      return\n        /* \"AlienPresale.sol\":5486:5678  function getUserInfo(... */\n    tag_9:\n      callvalue\n      dup1\n      iszero\n      tag_63\n      jumpi\n      0x00\n      dup1\n      revert\n    tag_63:\n      pop\n      tag_64\n      0x04\n      dup1\n      calldatasize\n      sub\n      dup2\n      add\n      swap1\n      tag_65\n      swap2\n      swap1\n      tag_52\n      jump\t// in\n    tag_65:\n      tag_66\n      jump\t// in\n    tag_64:\n      mload(0x40)\n      tag_67\n      swap3\n      swap2\n      swap1\n      tag_68\n      jump\t// in\n    tag_67:\n      mload(0x40)\n      dup1\n      swap2\n      sub\n      swap1\n      return\n        /* \"AlienPresale.sol\":4644:4823  function updateTokenPrice(uint256 _tokenPrice) external onlyOwner {... */\n    tag_10:\n      callvalue\n      dup1\n      iszero\n      tag_69\n      jumpi\n      0x00\n      dup1\n      revert\n    tag_69:\n      pop\n      tag_70\n      0x04\n      dup1\n      calldatasize\n      sub\n      dup2\n      add\n      swap1\n      tag_71\n      swap2\n      swap1\n      tag_72\n      jump\t// in\n    tag_71:\n      tag_73\n      jump\t// in\n    tag_70:\n      stop\n        /* \"AlienPresale.sol\":4422:4638  function updateHardCap(uint256 _hardCap) external onlyOwner {... */\n    tag_11:\n      callvalue\n      dup1\n      iszero\n      tag_74\n      jumpi\n      0x00\n      dup1\n      revert\n    tag_74:\n      pop\n      tag_75\n      0x04\n      dup1\n      calldatasize\n      sub\n      dup2\n      add\n      swap1\n      tag_76\n      swap2\n      swap1\n      tag_72\n      jump\t// in\n    tag_76:\n      tag_77\n      jump\t// in\n    tag_75:\n      stop\n        /* \"@openzeppelin/contracts/access/Ownable.sol\":2293:2394  function renounceOwnership() public virtual onlyOwner {... */\n    tag_12:\n      callvalue\n      dup1\n      iszero\n      tag_78\n      jumpi\n      0x00\n      dup1\n      revert\n    tag_78:\n      pop\n      tag_79\n      tag_80\n      jump\t// in\n    tag_79:\n      stop\n        /* \"AlienPresale.sol\":4829:5480  function getPresaleInfo()... */\n    tag_13:\n      callvalue\n      dup1\n      iszero\n      tag_81\n      jumpi\n      0x00\n      dup1\n      revert\n    tag_81:\n      pop\n      tag_82\n      tag_83\n      jump\t// in\n    tag_82:\n      mload(0x40)\n      tag_84\n      swap8\n      swap7\n      swap6\n      swap5\n      swap4\n      swap3\n      swap2\n      swap1\n      tag_85\n      jump\t// in\n    tag_84:\n      mload(0x40)\n      dup1\n      swap2\n      sub\n      swap1\n      return\n        /* \"AlienPresale.sol\":380:404  uint256 public startTime */\n    tag_14:\n      callvalue\n      dup1\n      iszero\n      tag_86\n      jumpi\n      0x00\n      dup1\n      revert\n    tag_86:\n      pop\n      tag_87\n      tag_88\n      jump\t// in\n    tag_87:\n      mload(0x40)\n      tag_89\n      swap2\n      swap1\n      tag_48\n      jump\t// in\n    tag_89:\n      mload(0x40)\n      dup1\n      swap2\n      sub\n      swap1\n      return\n        /* \"AlienPresale.sol\":498:523  uint256 public tokenPrice */\n    tag_15:\n      callvalue\n      dup1\n      iszero\n      tag_90\n      jumpi\n      0x00\n      dup1\n      revert\n    tag_90:\n      pop\n      tag_91\n      tag_92\n      jump\t// in\n    tag_91:\n      mload(0x40)\n      tag_93\n      swap2\n      swap1\n      tag_48\n      jump\t// in\n    tag_93:\n      mload(0x40)\n      dup1\n      swap2\n      sub\n      swap1\n      return\n        /* \"AlienPresale.sol\":584:634  mapping(address => uint256) public claimableTokens */\n    tag_16:\n      callvalue\n      dup1\n      iszero\n      tag_94\n      jumpi\n      0x00\n      dup1\n      revert\n    tag_94:\n      pop\n      tag_95\n      0x04\n      dup1\n      calldatasize\n      sub\n      dup2\n      add\n      swap1\n      tag_96\n      swap2\n      swap1\n      tag_52\n      jump\t// in\n    tag_96:\n      tag_97\n      jump\t// in\n    tag_95:\n      mload(0x40)\n      tag_98\n      swap2\n      swap1\n      tag_48\n      jump\t// in\n    tag_98:\n      mload(0x40)\n      dup1\n      swap2\n      sub\n      swap1\n      return\n        /* \"@openzeppelin/contracts/access/Ownable.sol\":1638:1723  function owner() public view virtual returns (address) {... */\n    tag_17:\n      callvalue\n      dup1\n      iszero\n      tag_99\n      jumpi\n      0x00\n      dup1\n      revert\n    tag_99:\n      pop\n      tag_100\n      tag_101\n      jump\t// in\n    tag_100:\n      mload(0x40)\n      tag_102\n      swap2\n      swap1\n      tag_103\n      jump\t// in\n    tag_102:\n      mload(0x40)\n      dup1\n      swap2\n      sub\n      swap1\n      return\n        /* \"AlienPresale.sol\":466:492  uint256 public totalRaised */\n    tag_18:\n      callvalue\n      dup1\n      iszero\n      tag_104\n      jumpi\n      0x00\n      dup1\n      revert\n    tag_104:\n      pop\n      tag_105\n      tag_106\n      jump\t// in\n    tag_105:\n      mload(0x40)\n      tag_107\n      swap2\n      swap1\n      tag_48\n      jump\t// in\n    tag_107:\n      mload(0x40)\n      dup1\n      swap2\n      sub\n      swap1\n      return\n        /* \"AlienPresale.sol\":3438:3868  function withdrawUnsoldTokens() external onlyOwner {... */\n    tag_19:\n      callvalue\n      dup1\n      iszero\n      tag_108\n      jumpi\n      0x00\n      dup1\n      revert\n    tag_108:\n      pop\n      tag_109\n      tag_110\n      jump\t// in\n    tag_109:\n      stop\n        /* \"AlienPresale.sol\":2000:2552  function buyTokens() public payable presaleActive nonReentrant {... */\n    tag_20:\n      tag_111\n      tag_32\n      jump\t// in\n    tag_111:\n      stop\n        /* \"AlienPresale.sol\":3874:4079  function pausePresale(bool _status) external onlyOwner {... */\n    tag_21:\n      callvalue\n      dup1\n      iszero\n      tag_112\n      jumpi\n      0x00\n      dup1\n      revert\n    tag_112:\n      pop\n      tag_113\n      0x04\n      dup1\n      calldatasize\n      sub\n      dup2\n      add\n      swap1\n      tag_114\n      swap2\n      swap1\n      tag_115\n      jump\t// in\n    tag_114:\n      tag_116\n      jump\t// in\n    tag_113:\n      stop\n        /* \"AlienPresale.sol\":4085:4416  function updatePresaleTimes(... */\n    tag_22:\n      callvalue\n      dup1\n      iszero\n      tag_117\n      jumpi\n      0x00\n      dup1\n      revert\n    tag_117:\n      pop\n      tag_118\n      0x04\n      dup1\n      calldatasize\n      sub\n      dup2\n      add\n      swap1\n      tag_119\n      swap2\n      swap1\n      tag_120\n      jump\t// in\n    tag_119:\n      tag_121\n      jump\t// in\n    tag_118:\n      stop\n        /* \"@openzeppelin/contracts/access/Ownable.sol\":2543:2758  function transferOwnership(address newOwner) public virtual onlyOwner {... */\n    tag_23:\n      callvalue\n      dup1\n      iszero\n      tag_122\n      jumpi\n      0x00\n      dup1\n      revert\n    tag_122:\n      pop\n      tag_123\n      0x04\n      dup1\n      calldatasize\n      sub\n      dup2\n      add\n      swap1\n      tag_124\n      swap2\n      swap1\n      tag_52\n      jump\t// in\n    tag_124:\n      tag_125\n      jump\t// in\n    tag_123:\n      stop\n        /* \"AlienPresale.sol\":438:460  uint256 public hardCap */\n    tag_24:\n      callvalue\n      dup1\n      iszero\n      tag_126\n      jumpi\n      0x00\n      dup1\n      revert\n    tag_126:\n      pop\n      tag_127\n      tag_128\n      jump\t// in\n    tag_127:\n      mload(0x40)\n      tag_129\n      swap2\n      swap1\n      tag_48\n      jump\t// in\n    tag_129:\n      mload(0x40)\n      dup1\n      swap2\n      sub\n      swap1\n      return\n        /* \"AlienPresale.sol\":354:373  IERC20 public token */\n    tag_25:\n      callvalue\n      dup1\n      iszero\n      tag_130\n      jumpi\n      0x00\n      dup1\n      revert\n    tag_130:\n      pop\n      tag_131\n      tag_132\n      jump\t// in\n    tag_131:\n      mload(0x40)\n      tag_133\n      swap2\n      swap1\n      tag_134\n      jump\t// in\n    tag_133:\n      mload(0x40)\n      dup1\n      swap2\n      sub\n      swap1\n      return\n        /* \"AlienPresale.sol\":2000:2552  function buyTokens() public payable presaleActive nonReentrant {... */\n    tag_32:\n        /* \"AlienPresale.sol\":1775:1784  startTime */\n      sload(0x03)\n        /* \"AlienPresale.sol\":1756:1771  block.timestamp */\n      timestamp\n        /* \"AlienPresale.sol\":1756:1784  block.timestamp >= startTime */\n      lt\n      iszero\n        /* \"AlienPresale.sol\":1748:1808  require(block.timestamp >= startTime, \"Presale not started\") */\n      tag_136\n      jumpi\n      mload(0x40)\n      0x08c379a000000000000000000000000000000000000000000000000000000000\n      dup2\n      mstore\n      0x04\n      add\n      tag_137\n      swap1\n      tag_138\n      jump\t// in\n    tag_137:\n      mload(0x40)\n      dup1\n      swap2\n      sub\n      swap1\n      revert\n    tag_136:\n        /* \"AlienPresale.sol\":1845:1852  endTime */\n      sload(0x04)\n        /* \"AlienPresale.sol\":1826:1841  block.timestamp */\n      timestamp\n        /* \"AlienPresale.sol\":1826:1852  block.timestamp <= endTime */\n      gt\n      iszero\n        /* \"AlienPresale.sol\":1818:1870  require(block.timestamp <= endTime, \"Presale ended\") */\n      tag_139\n      jumpi\n      mload(0x40)\n      0x08c379a000000000000000000000000000000000000000000000000000000000\n      dup2\n      mstore\n      0x04\n      add\n      tag_140\n      swap1\n      tag_141\n      jump\t// in\n    tag_140:\n      mload(0x40)\n      dup1\n      swap2\n      sub\n      swap1\n      revert\n    tag_139:\n        /* \"AlienPresale.sol\":1889:1897  paused() */\n      tag_142\n        /* \"AlienPresale.sol\":1889:1895  paused */\n      tag_60\n        /* \"AlienPresale.sol\":1889:1897  paused() */\n      jump\t// in\n    tag_142:\n        /* \"AlienPresale.sol\":1888:1897  !paused() */\n      iszero\n        /* \"AlienPresale.sol\":1880:1916  require(!paused(), \"Presale paused\") */\n      tag_143\n      jumpi\n      mload(0x40)\n      0x08c379a000000000000000000000000000000000000000000000000000000000\n      dup2\n      mstore\n      0x04\n      add\n      tag_144\n      swap1\n      tag_145\n      jump\t// in\n    tag_144:\n      mload(0x40)\n      dup1\n      swap2\n      sub\n      swap1\n      revert\n    tag_143:\n        /* \"AlienPresale.sol\":1948:1955  hardCap */\n      sload(0x05)\n        /* \"AlienPresale.sol\":1934:1945  totalRaised */\n      sload(0x06)\n        /* \"AlienPresale.sol\":1934:1955  totalRaised < hardCap */\n      lt\n        /* \"AlienPresale.sol\":1926:1976  require(totalRaised < hardCap, \"Hard cap reached\") */\n      tag_146\n      jumpi\n      mload(0x40)\n      0x08c379a000000000000000000000000000000000000000000000000000000000\n      dup2\n      mstore\n      0x04\n      add\n      tag_147\n      swap1\n      tag_148\n      jump\t// in\n    tag_147:\n      mload(0x40)\n      dup1\n      swap2\n      sub\n      swap1\n      revert\n    tag_146:\n        /* \"@openzeppelin/contracts/security/ReentrancyGuard.sol\":2261:2282  _nonReentrantBefore() */\n      tag_150\n        /* \"@openzeppelin/contracts/security/ReentrancyGuard.sol\":2261:2280  _nonReentrantBefore */\n      tag_151\n        /* \"@openzeppelin/contracts/security/ReentrancyGuard.sol\":2261:2282  _nonReentrantBefore() */\n      jump\t// in\n    tag_150:\n        /* \"AlienPresale.sol\":2093:2094  0 */\n      0x00\n        /* \"AlienPresale.sol\":2081:2090  msg.value */\n      callvalue\n        /* \"AlienPresale.sol\":2081:2094  msg.value > 0 */\n      gt\n        /* \"AlienPresale.sol\":2073:2128  require(msg.value > 0, \"Amount must be greater than 0\") */\n      tag_153\n      jumpi\n      mload(0x40)\n      0x08c379a000000000000000000000000000000000000000000000000000000000\n      dup2\n      mstore\n      0x04\n      add\n      tag_154\n      swap1\n      tag_155\n      jump\t// in\n    tag_154:\n      mload(0x40)\n      dup1\n      swap2\n      sub\n      swap1\n      revert\n    tag_153:\n        /* \"AlienPresale.sol\":2173:2180  hardCap */\n      sload(0x05)\n        /* \"AlienPresale.sol\":2160:2169  msg.value */\n      callvalue\n        /* \"AlienPresale.sol\":2146:2157  totalRaised */\n      sload(0x06)\n        /* \"AlienPresale.sol\":2146:2169  totalRaised + msg.value */\n      tag_156\n      swap2\n      swap1\n      tag_157\n      jump\t// in\n    tag_156:\n        /* \"AlienPresale.sol\":2146:2180  totalRaised + msg.value <= hardCap */\n      gt\n      iszero\n        /* \"AlienPresale.sol\":2138:2201  require(totalRaised + msg.value <= hardCap, \"Exceeds hard cap\") */\n      tag_158\n      jumpi\n      mload(0x40)\n      0x08c379a000000000000000000000000000000000000000000000000000000000\n      dup2\n      mstore\n      0x04\n      add\n      tag_159\n      swap1\n      tag_160\n      jump\t// in\n    tag_159:\n      mload(0x40)\n      dup1\n      swap2\n      sub\n      swap1\n      revert\n    tag_158:\n        /* \"AlienPresale.sol\":2212:2235  uint256 tokensToReceive */\n      0x00\n        /* \"AlienPresale.sol\":2263:2273  tokenPrice */\n      sload(0x07)\n        /* \"AlienPresale.sol\":2251:2259  10 ** 18 */\n      0x0de0b6b3a7640000\n        /* \"AlienPresale.sol\":2239:2248  msg.value */\n      callvalue\n        /* \"AlienPresale.sol\":2239:2259  msg.value * 10 ** 18 */\n      tag_161\n      swap2\n      swap1\n      tag_162\n      jump\t// in\n    tag_161:\n        /* \"AlienPresale.sol\":2238:2273  (msg.value * 10 ** 18) / tokenPrice */\n      tag_163\n      swap2\n      swap1\n      tag_164\n      jump\t// in\n    tag_163:\n        /* \"AlienPresale.sol\":2212:2273  uint256 tokensToReceive = (msg.value * 10 ** 18) / tokenPrice */\n      swap1\n      pop\n        /* \"AlienPresale.sol\":2309:2310  0 */\n      0x00\n        /* \"AlienPresale.sol\":2291:2306  tokensToReceive */\n      dup2\n        /* \"AlienPresale.sol\":2291:2310  tokensToReceive > 0 */\n      gt\n        /* \"AlienPresale.sol\":2283:2335  require(tokensToReceive > 0, \"No tokens to receive\") */\n      tag_165\n      jumpi\n      mload(0x40)\n      0x08c379a000000000000000000000000000000000000000000000000000000000\n      dup2\n      mstore\n      0x04\n      add\n      tag_166\n      swap1\n      tag_167\n      jump\t// in\n    tag_166:\n      mload(0x40)\n      dup1\n      swap2\n      sub\n      swap1\n      revert\n    tag_165:\n        /* \"AlienPresale.sol\":2375:2384  msg.value */\n      callvalue\n        /* \"AlienPresale.sol\":2346:2359  contributions */\n      0x08\n        /* \"AlienPresale.sol\":2346:2371  contributions[msg.sender] */\n      0x00\n        /* \"AlienPresale.sol\":2360:2370  msg.sender */\n      caller\n        /* \"AlienPresale.sol\":2346:2371  contributions[msg.sender] */\n      0xffffffffffffffffffffffffffffffffffffffff\n      and\n      0xffffffffffffffffffffffffffffffffffffffff\n      and\n      dup2\n      mstore\n      0x20\n      add\n      swap1\n      dup2\n      mstore\n      0x20\n      add\n      0x00\n      keccak256\n      0x00\n        /* \"AlienPresale.sol\":2346:2384  contributions[msg.sender] += msg.value */\n      dup3\n      dup3\n      sload\n      tag_168\n      swap2\n      swap1\n      tag_157\n      jump\t// in\n    tag_168:\n      swap3\n      pop\n      pop\n      dup2\n      swap1\n      sstore\n      pop\n        /* \"AlienPresale.sol\":2425:2440  tokensToReceive */\n      dup1\n        /* \"AlienPresale.sol\":2394:2409  claimableTokens */\n      0x09\n        /* \"AlienPresale.sol\":2394:2421  claimableTokens[msg.sender] */\n      0x00\n        /* \"AlienPresale.sol\":2410:2420  msg.sender */\n      caller\n        /* \"AlienPresale.sol\":2394:2421  claimableTokens[msg.sender] */\n      0xffffffffffffffffffffffffffffffffffffffff\n      and\n      0xffffffffffffffffffffffffffffffffffffffff\n      and\n      dup2\n      mstore\n      0x20\n      add\n      swap1\n      dup2\n      mstore\n      0x20\n      add\n      0x00\n      keccak256\n      0x00\n        /* \"AlienPresale.sol\":2394:2440  claimableTokens[msg.sender] += tokensToReceive */\n      dup3\n      dup3\n      sload\n      tag_169\n      swap2\n      swap1\n      tag_157\n      jump\t// in\n    tag_169:\n      swap3\n      pop\n      pop\n      dup2\n      swap1\n      sstore\n      pop\n        /* \"AlienPresale.sol\":2465:2474  msg.value */\n      callvalue\n        /* \"AlienPresale.sol\":2450:2461  totalRaised */\n      0x06\n      0x00\n        /* \"AlienPresale.sol\":2450:2474  totalRaised += msg.value */\n      dup3\n      dup3\n      sload\n      tag_170\n      swap2\n      swap1\n      tag_157\n      jump\t// in\n    tag_170:\n      swap3\n      pop\n      pop\n      dup2\n      swap1\n      sstore\n      pop\n        /* \"AlienPresale.sol\":2506:2516  msg.sender */\n      caller\n        /* \"AlienPresale.sol\":2490:2545  TokensPurchased(msg.sender, msg.value, tokensToReceive) */\n      0xffffffffffffffffffffffffffffffffffffffff\n      and\n      0x8fafebcaf9d154343dad25669bfa277f4fbacd7ac6b0c4fed522580e040a0f33\n        /* \"AlienPresale.sol\":2518:2527  msg.value */\n      callvalue\n        /* \"AlienPresale.sol\":2529:2544  tokensToReceive */\n      dup4\n        /* \"AlienPresale.sol\":2490:2545  TokensPurchased(msg.sender, msg.value, tokensToReceive) */\n      mload(0x40)\n      tag_171\n      swap3\n      swap2\n      swap1\n      tag_68\n      jump\t// in\n    tag_171:\n      mload(0x40)\n      dup1\n      swap2\n      sub\n      swap1\n      log2\n        /* \"AlienPresale.sol\":2063:2552  {... */\n      pop\n        /* \"@openzeppelin/contracts/security/ReentrancyGuard.sol\":2303:2323  _nonReentrantAfter() */\n      tag_172\n        /* \"@openzeppelin/contracts/security/ReentrancyGuard.sol\":2303:2321  _nonReentrantAfter */\n      tag_173\n        /* \"@openzeppelin/contracts/security/ReentrancyGuard.sol\":2303:2323  _nonReentrantAfter() */\n      jump\t// in\n    tag_172:\n        /* \"AlienPresale.sol\":2000:2552  function buyTokens() public payable presaleActive nonReentrant {... */\n      jump\t// out\n        /* \"AlienPresale.sol\":5684:6170  function getPresaleProgress()... */\n    tag_38:\n        /* \"AlienPresale.sol\":5774:5794  uint256 _totalRaised */\n      0x00\n        /* \"AlienPresale.sol\":5808:5824  uint256 _hardCap */\n      dup1\n        /* \"AlienPresale.sol\":5838:5856  uint256 _remaining */\n      0x00\n        /* \"AlienPresale.sol\":5870:5894  uint256 _progressPercent */\n      dup1\n        /* \"AlienPresale.sol\":5919:5936  uint256 remaining */\n      0x00\n        /* \"AlienPresale.sol\":5949:5960  totalRaised */\n      sload(0x06)\n        /* \"AlienPresale.sol\":5939:5946  hardCap */\n      sload(0x05)\n        /* \"AlienPresale.sol\":5939:5960  hardCap > totalRaised */\n      gt\n        /* \"AlienPresale.sol\":5939:5988  hardCap > totalRaised ? hardCap - totalRaised : 0 */\n      tag_175\n      jumpi\n        /* \"AlienPresale.sol\":5987:5988  0 */\n      0x00\n        /* \"AlienPresale.sol\":5939:5988  hardCap > totalRaised ? hardCap - totalRaised : 0 */\n      jump(tag_176)\n    tag_175:\n        /* \"AlienPresale.sol\":5973:5984  totalRaised */\n      sload(0x06)\n        /* \"AlienPresale.sol\":5963:5970  hardCap */\n      sload(0x05)\n        /* \"AlienPresale.sol\":5963:5984  hardCap - totalRaised */\n      tag_177\n      swap2\n      swap1\n      tag_178\n      jump\t// in\n    tag_177:\n        /* \"AlienPresale.sol\":5939:5988  hardCap > totalRaised ? hardCap - totalRaised : 0 */\n    tag_176:\n        /* \"AlienPresale.sol\":5919:5988  uint256 remaining = hardCap > totalRaised ? hardCap - totalRaised : 0 */\n      swap1\n      pop\n        /* \"AlienPresale.sol\":5998:6021  uint256 progressPercent */\n      0x00\n        /* \"AlienPresale.sol\":6034:6035  0 */\n      dup1\n        /* \"AlienPresale.sol\":6024:6031  hardCap */\n      sload(0x05)\n        /* \"AlienPresale.sol\":6024:6035  hardCap > 0 */\n      gt\n        /* \"AlienPresale.sol\":6024:6095  hardCap > 0... */\n      tag_179\n      jumpi\n        /* \"AlienPresale.sol\":6094:6095  0 */\n      0x00\n        /* \"AlienPresale.sol\":6024:6095  hardCap > 0... */\n      jump(tag_180)\n    tag_179:\n        /* \"AlienPresale.sol\":6072:6079  hardCap */\n      sload(0x05)\n        /* \"AlienPresale.sol\":6065:6068  100 */\n      0x64\n        /* \"AlienPresale.sol\":6051:6062  totalRaised */\n      sload(0x06)\n        /* \"AlienPresale.sol\":6051:6068  totalRaised * 100 */\n      tag_181\n      swap2\n      swap1\n      tag_162\n      jump\t// in\n    tag_181:\n        /* \"AlienPresale.sol\":6050:6079  (totalRaised * 100) / hardCap */\n      tag_182\n      swap2\n      swap1\n      tag_164\n      jump\t// in\n    tag_182:\n        /* \"AlienPresale.sol\":6024:6095  hardCap > 0... */\n    tag_180:\n        /* \"AlienPresale.sol\":5998:6095  uint256 progressPercent = hardCap > 0... */\n      swap1\n      pop\n        /* \"AlienPresale.sol\":6114:6125  totalRaised */\n      sload(0x06)\n        /* \"AlienPresale.sol\":6127:6134  hardCap */\n      sload(0x05)\n        /* \"AlienPresale.sol\":6136:6145  remaining */\n      dup4\n        /* \"AlienPresale.sol\":6147:6162  progressPercent */\n      dup4\n        /* \"AlienPresale.sol\":6106:6163  return (totalRaised, hardCap, remaining, progressPercent) */\n      swap6\n      pop\n      swap6\n      pop\n      swap6\n      pop\n      swap6\n      pop\n      pop\n      pop\n        /* \"AlienPresale.sol\":5684:6170  function getPresaleProgress()... */\n      swap1\n      swap2\n      swap3\n      swap4\n      jump\t// out\n        /* \"AlienPresale.sol\":3032:3432  function withdrawFunds() external onlyOwner {... */\n    tag_43:\n        /* \"@openzeppelin/contracts/access/Ownable.sol\":1531:1544  _checkOwner() */\n      tag_184\n        /* \"@openzeppelin/contracts/access/Ownable.sol\":1531:1542  _checkOwner */\n      tag_185\n        /* \"@openzeppelin/contracts/access/Ownable.sol\":1531:1544  _checkOwner() */\n      jump\t// in\n    tag_184:\n        /* \"AlienPresale.sol\":3112:3119  endTime */\n      sload(0x04)\n        /* \"AlienPresale.sol\":3094:3109  block.timestamp */\n      timestamp\n        /* \"AlienPresale.sol\":3094:3119  block.timestamp > endTime */\n      gt\n        /* \"AlienPresale.sol\":3086:3141  require(block.timestamp > endTime, \"Presale not ended\") */\n      tag_187\n      jumpi\n      mload(0x40)\n      0x08c379a000000000000000000000000000000000000000000000000000000000\n      dup2\n      mstore\n      0x04\n      add\n      tag_188\n      swap1\n      tag_189\n      jump\t// in\n    tag_188:\n      mload(0x40)\n      dup1\n      swap2\n      sub\n      swap1\n      revert\n    tag_187:\n        /* \"AlienPresale.sol\":3173:3174  0 */\n      0x00\n        /* \"AlienPresale.sol\":3159:3170  totalRaised */\n      sload(0x06)\n        /* \"AlienPresale.sol\":3159:3174  totalRaised > 0 */\n      gt\n        /* \"AlienPresale.sol\":3151:3199  require(totalRaised > 0, \"No funds to withdraw\") */\n      tag_190\n      jumpi\n      mload(0x40)\n      0x08c379a000000000000000000000000000000000000000000000000000000000\n      dup2\n      mstore\n      0x04\n      add\n      tag_191\n      swap1\n      tag_192\n      jump\t// in\n    tag_191:\n      mload(0x40)\n      dup1\n      swap2\n      sub\n      swap1\n      revert\n    tag_190:\n        /* \"AlienPresale.sol\":3210:3224  uint256 amount */\n      0x00\n        /* \"AlienPresale.sol\":3227:3238  totalRaised */\n      sload(0x06)\n        /* \"AlienPresale.sol\":3210:3238  uint256 amount = totalRaised */\n      swap1\n      pop\n        /* \"AlienPresale.sol\":3262:3263  0 */\n      0x00\n        /* \"AlienPresale.sol\":3248:3259  totalRaised */\n      0x06\n        /* \"AlienPresale.sol\":3248:3263  totalRaised = 0 */\n      dup2\n      swap1\n      sstore\n      pop\n        /* \"AlienPresale.sol\":3275:3287  bool success */\n      0x00\n        /* \"AlienPresale.sol\":3301:3308  owner() */\n      tag_193\n        /* \"AlienPresale.sol\":3301:3306  owner */\n      tag_101\n        /* \"AlienPresale.sol\":3301:3308  owner() */\n      jump\t// in\n    tag_193:\n        /* \"AlienPresale.sol\":3293:3314  payable(owner()).call */\n      0xffffffffffffffffffffffffffffffffffffffff\n      and\n        /* \"AlienPresale.sol\":3322:3328  amount */\n      dup3\n        /* \"AlienPresale.sol\":3293:3333  payable(owner()).call{value: amount}(\"\") */\n      mload(0x40)\n      tag_194\n      swap1\n      tag_195\n      jump\t// in\n    tag_194:\n      0x00\n      mload(0x40)\n      dup1\n      dup4\n      sub\n      dup2\n      dup6\n      dup8\n      gas\n      call\n      swap3\n      pop\n      pop\n      pop\n      returndatasize\n      dup1\n      0x00\n      dup2\n      eq\n      tag_198\n      jumpi\n      mload(0x40)\n      swap2\n      pop\n      and(add(returndatasize, 0x3f), not(0x1f))\n      dup3\n      add\n      0x40\n      mstore\n      returndatasize\n      dup3\n      mstore\n      returndatasize\n      0x00\n      0x20\n      dup5\n      add\n      returndatacopy\n      jump(tag_197)\n    tag_198:\n      0x60\n      swap2\n      pop\n    tag_197:\n      pop\n        /* \"AlienPresale.sol\":3274:3333  (bool success, ) = payable(owner()).call{value: amount}(\"\") */\n      pop\n      swap1\n      pop\n        /* \"AlienPresale.sol\":3351:3358  success */\n      dup1\n        /* \"AlienPresale.sol\":3343:3378  require(success, \"Transfer failed\") */\n      tag_199\n      jumpi\n      mload(0x40)\n      0x08c379a000000000000000000000000000000000000000000000000000000000\n      dup2\n      mstore\n      0x04\n      add\n      tag_200\n      swap1\n      tag_201\n      jump\t// in\n    tag_200:\n      mload(0x40)\n      dup1\n      swap2\n      sub\n      swap1\n      revert\n    tag_199:\n        /* \"AlienPresale.sol\":3409:3416  owner() */\n      tag_202\n        /* \"AlienPresale.sol\":3409:3414  owner */\n      tag_101\n        /* \"AlienPresale.sol\":3409:3416  owner() */\n      jump\t// in\n    tag_202:\n        /* \"AlienPresale.sol\":3394:3425  FundsWithdrawn(owner(), amount) */\n      0xffffffffffffffffffffffffffffffffffffffff\n      and\n      0xeaff4b37086828766ad3268786972c0cd24259d4c87a80f9d3963a3c3d999b0d\n        /* \"AlienPresale.sol\":3418:3424  amount */\n      dup4\n        /* \"AlienPresale.sol\":3394:3425  FundsWithdrawn(owner(), amount) */\n      mload(0x40)\n      tag_203\n      swap2\n      swap1\n      tag_48\n      jump\t// in\n    tag_203:\n      mload(0x40)\n      dup1\n      swap2\n      sub\n      swap1\n      log2\n        /* \"AlienPresale.sol\":3076:3432  {... */\n      pop\n      pop\n        /* \"AlienPresale.sol\":3032:3432  function withdrawFunds() external onlyOwner {... */\n      jump\t// out\n        /* \"AlienPresale.sol\":410:432  uint256 public endTime */\n    tag_46:\n      sload(0x04)\n      dup2\n      jump\t// out\n        /* \"AlienPresale.sol\":530:578  mapping(address => uint256) public contributions */\n    tag_53:\n      mstore(0x20, 0x08)\n      dup1\n      0x00\n      mstore\n      keccak256(0x00, 0x40)\n      0x00\n      swap2\n      pop\n      swap1\n      pop\n      sload\n      dup2\n      jump\t// out\n        /* \"AlienPresale.sol\":2558:3026  function claimTokens() external nonReentrant {... */\n    tag_57:\n        /* \"@openzeppelin/contracts/security/ReentrancyGuard.sol\":2261:2282  _nonReentrantBefore() */\n      tag_205\n        /* \"@openzeppelin/contracts/security/ReentrancyGuard.sol\":2261:2280  _nonReentrantBefore */\n      tag_151\n        /* \"@openzeppelin/contracts/security/ReentrancyGuard.sol\":2261:2282  _nonReentrantBefore() */\n      jump\t// in\n    tag_205:\n        /* \"AlienPresale.sol\":2639:2646  endTime */\n      sload(0x04)\n        /* \"AlienPresale.sol\":2621:2636  block.timestamp */\n      timestamp\n        /* \"AlienPresale.sol\":2621:2646  block.timestamp > endTime */\n      gt\n        /* \"AlienPresale.sol\":2613:2668  require(block.timestamp > endTime, \"Presale not ended\") */\n      tag_207\n      jumpi\n      mload(0x40)\n      0x08c379a000000000000000000000000000000000000000000000000000000000\n      dup2\n      mstore\n      0x04\n      add\n      tag_208\n      swap1\n      tag_189\n      jump\t// in\n    tag_208:\n      mload(0x40)\n      dup1\n      swap2\n      sub\n      swap1\n      revert\n    tag_207:\n        /* \"AlienPresale.sol\":2716:2717  0 */\n      0x00\n        /* \"AlienPresale.sol\":2686:2701  claimableTokens */\n      0x09\n        /* \"AlienPresale.sol\":2686:2713  claimableTokens[msg.sender] */\n      0x00\n        /* \"AlienPresale.sol\":2702:2712  msg.sender */\n      caller\n        /* \"AlienPresale.sol\":2686:2713  claimableTokens[msg.sender] */\n      0xffffffffffffffffffffffffffffffffffffffff\n      and\n      0xffffffffffffffffffffffffffffffffffffffff\n      and\n      dup2\n      mstore\n      0x20\n      add\n      swap1\n      dup2\n      mstore\n      0x20\n      add\n      0x00\n      keccak256\n      sload\n        /* \"AlienPresale.sol\":2686:2717  claimableTokens[msg.sender] > 0 */\n      gt\n        /* \"AlienPresale.sol\":2678:2740  require(claimableTokens[msg.sender] > 0, \"No tokens to claim\") */\n      tag_209\n      jumpi\n      mload(0x40)\n      0x08c379a000000000000000000000000000000000000000000000000000000000\n      dup2\n      mstore\n      0x04\n      add\n      tag_210\n      swap1\n      tag_211\n      jump\t// in\n    tag_210:\n      mload(0x40)\n      dup1\n      swap2\n      sub\n      swap1\n      revert\n    tag_209:\n        /* \"AlienPresale.sol\":2751:2772  uint256 tokensToClaim */\n      0x00\n        /* \"AlienPresale.sol\":2775:2790  claimableTokens */\n      0x09\n        /* \"AlienPresale.sol\":2775:2802  claimableTokens[msg.sender] */\n      0x00\n        /* \"AlienPresale.sol\":2791:2801  msg.sender */\n      caller\n        /* \"AlienPresale.sol\":2775:2802  claimableTokens[msg.sender] */\n      0xffffffffffffffffffffffffffffffffffffffff\n      and\n      0xffffffffffffffffffffffffffffffffffffffff\n      and\n      dup2\n      mstore\n      0x20\n      add\n      swap1\n      dup2\n      mstore\n      0x20\n      add\n      0x00\n      keccak256\n      sload\n        /* \"AlienPresale.sol\":2751:2802  uint256 tokensToClaim = claimableTokens[msg.sender] */\n      swap1\n      pop\n        /* \"AlienPresale.sol\":2842:2843  0 */\n      0x00\n        /* \"AlienPresale.sol\":2812:2827  claimableTokens */\n      0x09\n        /* \"AlienPresale.sol\":2812:2839  claimableTokens[msg.sender] */\n      0x00\n        /* \"AlienPresale.sol\":2828:2838  msg.sender */\n      caller\n        /* \"AlienPresale.sol\":2812:2839  claimableTokens[msg.sender] */\n      0xffffffffffffffffffffffffffffffffffffffff\n      and\n      0xffffffffffffffffffffffffffffffffffffffff\n      and\n      dup2\n      mstore\n      0x20\n      add\n      swap1\n      dup2\n      mstore\n      0x20\n      add\n      0x00\n      keccak256\n        /* \"AlienPresale.sol\":2812:2843  claimableTokens[msg.sender] = 0 */\n      dup2\n      swap1\n      sstore\n      pop\n        /* \"AlienPresale.sol\":2875:2880  token */\n      0x02\n      0x00\n      swap1\n      sload\n      swap1\n      0x0100\n      exp\n      swap1\n      div\n      0xffffffffffffffffffffffffffffffffffffffff\n      and\n        /* \"AlienPresale.sol\":2875:2889  token.transfer */\n      0xffffffffffffffffffffffffffffffffffffffff\n      and\n      0xa9059cbb\n        /* \"AlienPresale.sol\":2890:2900  msg.sender */\n      caller\n        /* \"AlienPresale.sol\":2902:2915  tokensToClaim */\n      dup4\n        /* \"AlienPresale.sol\":2875:2916  token.transfer(msg.sender, tokensToClaim) */\n      mload(0x40)\n      dup4\n      0xffffffff\n      and\n      0xe0\n      shl\n      dup2\n      mstore\n      0x04\n      add\n      tag_212\n      swap3\n      swap2\n      swap1\n      tag_213\n      jump\t// in\n    tag_212:\n      0x20\n      mload(0x40)\n      dup1\n      dup4\n      sub\n      dup2\n      0x00\n      dup8\n      gas\n      call\n      iszero\n      dup1\n      iszero\n      tag_215\n      jumpi\n      returndatasize\n      0x00\n      dup1\n      returndatacopy\n      revert(0x00, returndatasize)\n    tag_215:\n      pop\n      pop\n      pop\n      pop\n      mload(0x40)\n      returndatasize\n      not(0x1f)\n      0x1f\n      dup3\n      add\n      and\n      dup3\n      add\n      dup1\n      0x40\n      mstore\n      pop\n      dup2\n      add\n      swap1\n      tag_216\n      swap2\n      swap1\n      tag_217\n      jump\t// in\n    tag_216:\n        /* \"AlienPresale.sol\":2854:2963  require(... */\n      tag_218\n      jumpi\n      mload(0x40)\n      0x08c379a000000000000000000000000000000000000000000000000000000000\n      dup2\n      mstore\n      0x04\n      add\n      tag_219\n      swap1\n      tag_220\n      jump\t// in\n    tag_219:\n      mload(0x40)\n      dup1\n      swap2\n      sub\n      swap1\n      revert\n    tag_218:\n        /* \"AlienPresale.sol\":2993:3003  msg.sender */\n      caller\n        /* \"AlienPresale.sol\":2979:3019  TokensClaimed(msg.sender, tokensToClaim) */\n      0xffffffffffffffffffffffffffffffffffffffff\n      and\n      0x896e034966eaaf1adc54acc0f257056febbd300c9e47182cf761982cf1f5e430\n        /* \"AlienPresale.sol\":3005:3018  tokensToClaim */\n      dup3\n        /* \"AlienPresale.sol\":2979:3019  TokensClaimed(msg.sender, tokensToClaim) */\n      mload(0x40)\n      tag_221\n      swap2\n      swap1\n      tag_48\n      jump\t// in\n    tag_221:\n      mload(0x40)\n      dup1\n      swap2\n      sub\n      swap1\n      log2\n        /* \"AlienPresale.sol\":2603:3026  {... */\n      pop\n        /* \"@openzeppelin/contracts/security/ReentrancyGuard.sol\":2303:2323  _nonReentrantAfter() */\n      tag_222\n        /* \"@openzeppelin/contracts/security/ReentrancyGuard.sol\":2303:2321  _nonReentrantAfter */\n      tag_173\n        /* \"@openzeppelin/contracts/security/ReentrancyGuard.sol\":2303:2323  _nonReentrantAfter() */\n      jump\t// in\n    tag_222:\n        /* \"AlienPresale.sol\":2558:3026  function claimTokens() external nonReentrant {... */\n      jump\t// out\n        /* \"@openzeppelin/contracts/security/Pausable.sol\":1615:1699  function paused() public view virtual returns (bool) {... */\n    tag_60:\n        /* \"@openzeppelin/contracts/security/Pausable.sol\":1662:1666  bool */\n      0x00\n        /* \"@openzeppelin/contracts/security/Pausable.sol\":1685:1692  _paused */\n      dup1\n      0x14\n      swap1\n      sload\n      swap1\n      0x0100\n      exp\n      swap1\n      div\n      0xff\n      and\n        /* \"@openzeppelin/contracts/security/Pausable.sol\":1678:1692  return _paused */\n      swap1\n      pop\n        /* \"@openzeppelin/contracts/security/Pausable.sol\":1615:1699  function paused() public view virtual returns (bool) {... */\n      swap1\n      jump\t// out\n        /* \"AlienPresale.sol\":5486:5678  function getUserInfo(... */\n    tag_66:\n        /* \"AlienPresale.sol\":5559:5580  uint256 _contribution */\n      0x00\n        /* \"AlienPresale.sol\":5582:5606  uint256 _claimableTokens */\n      dup1\n        /* \"AlienPresale.sol\":5626:5639  contributions */\n      0x08\n        /* \"AlienPresale.sol\":5626:5646  contributions[_user] */\n      0x00\n        /* \"AlienPresale.sol\":5640:5645  _user */\n      dup5\n        /* \"AlienPresale.sol\":5626:5646  contributions[_user] */\n      0xffffffffffffffffffffffffffffffffffffffff\n      and\n      0xffffffffffffffffffffffffffffffffffffffff\n      and\n      dup2\n      mstore\n      0x20\n      add\n      swap1\n      dup2\n      mstore\n      0x20\n      add\n      0x00\n      keccak256\n      sload\n        /* \"AlienPresale.sol\":5648:5663  claimableTokens */\n      0x09\n        /* \"AlienPresale.sol\":5648:5670  claimableTokens[_user] */\n      0x00\n        /* \"AlienPresale.sol\":5664:5669  _user */\n      dup6\n        /* \"AlienPresale.sol\":5648:5670  claimableTokens[_user] */\n      0xffffffffffffffffffffffffffffffffffffffff\n      and\n      0xffffffffffffffffffffffffffffffffffffffff\n      and\n      dup2\n      mstore\n      0x20\n      add\n      swap1\n      dup2\n      mstore\n      0x20\n      add\n      0x00\n      keccak256\n      sload\n        /* \"AlienPresale.sol\":5618:5671  return (contributions[_user], claimableTokens[_user]) */\n      swap2\n      pop\n      swap2\n      pop\n        /* \"AlienPresale.sol\":5486:5678  function getUserInfo(... */\n      swap2\n      pop\n      swap2\n      jump\t// out\n        /* \"AlienPresale.sol\":4644:4823  function updateTokenPrice(uint256 _tokenPrice) external onlyOwner {... */\n    tag_73:\n        /* \"@openzeppelin/contracts/access/Ownable.sol\":1531:1544  _checkOwner() */\n      tag_226\n        /* \"@openzeppelin/contracts/access/Ownable.sol\":1531:1542  _checkOwner */\n      tag_185\n        /* \"@openzeppelin/contracts/access/Ownable.sol\":1531:1544  _checkOwner() */\n      jump\t// in\n    tag_226:\n        /* \"AlienPresale.sol\":4742:4743  0 */\n      0x00\n        /* \"AlienPresale.sol\":4728:4739  _tokenPrice */\n      dup2\n        /* \"AlienPresale.sol\":4728:4743  _tokenPrice > 0 */\n      gt\n        /* \"AlienPresale.sol\":4720:4782  require(_tokenPrice > 0, \"Token price must be greater than 0\") */\n      tag_228\n      jumpi\n      mload(0x40)\n      0x08c379a000000000000000000000000000000000000000000000000000000000\n      dup2\n      mstore\n      0x04\n      add\n      tag_229\n      swap1\n      tag_230\n      jump\t// in\n    tag_229:\n      mload(0x40)\n      dup1\n      swap2\n      sub\n      swap1\n      revert\n    tag_228:\n        /* \"AlienPresale.sol\":4805:4816  _tokenPrice */\n      dup1\n        /* \"AlienPresale.sol\":4792:4802  tokenPrice */\n      0x07\n        /* \"AlienPresale.sol\":4792:4816  tokenPrice = _tokenPrice */\n      dup2\n      swap1\n      sstore\n      pop\n        /* \"AlienPresale.sol\":4644:4823  function updateTokenPrice(uint256 _tokenPrice) external onlyOwner {... */\n      pop\n      jump\t// out\n        /* \"AlienPresale.sol\":4422:4638  function updateHardCap(uint256 _hardCap) external onlyOwner {... */\n    tag_77:\n        /* \"@openzeppelin/contracts/access/Ownable.sol\":1531:1544  _checkOwner() */\n      tag_232\n        /* \"@openzeppelin/contracts/access/Ownable.sol\":1531:1542  _checkOwner */\n      tag_185\n        /* \"@openzeppelin/contracts/access/Ownable.sol\":1531:1544  _checkOwner() */\n      jump\t// in\n    tag_232:\n        /* \"AlienPresale.sol\":4524:4535  totalRaised */\n      sload(0x06)\n        /* \"AlienPresale.sol\":4513:4521  _hardCap */\n      dup2\n        /* \"AlienPresale.sol\":4513:4535  _hardCap > totalRaised */\n      gt\n        /* \"AlienPresale.sol\":4492:4603  require(... */\n      tag_234\n      jumpi\n      mload(0x40)\n      0x08c379a000000000000000000000000000000000000000000000000000000000\n      dup2\n      mstore\n      0x04\n      add\n      tag_235\n      swap1\n      tag_236\n      jump\t// in\n    tag_235:\n      mload(0x40)\n      dup1\n      swap2\n      sub\n      swap1\n      revert\n    tag_234:\n        /* \"AlienPresale.sol\":4623:4631  _hardCap */\n      dup1\n        /* \"AlienPresale.sol\":4613:4620  hardCap */\n      0x05\n        /* \"AlienPresale.sol\":4613:4631  hardCap = _hardCap */\n      dup2\n      swap1\n      sstore\n      pop\n        /* \"AlienPresale.sol\":4422:4638  function updateHardCap(uint256 _hardCap) external onlyOwner {... */\n      pop\n      jump\t// out\n        /* \"@openzeppelin/contracts/access/Ownable.sol\":2293:2394  function renounceOwnership() public virtual onlyOwner {... */\n    tag_80:\n        /* \"@openzeppelin/contracts/access/Ownable.sol\":1531:1544  _checkOwner() */\n      tag_238\n        /* \"@openzeppelin/contracts/access/Ownable.sol\":1531:1542  _checkOwner */\n      tag_185\n        /* \"@openzeppelin/contracts/access/Ownable.sol\":1531:1544  _checkOwner() */\n      jump\t// in\n    tag_238:\n        /* \"@openzeppelin/contracts/access/Ownable.sol\":2357:2387  _transferOwnership(address(0)) */\n      tag_240\n        /* \"@openzeppelin/contracts/access/Ownable.sol\":2384:2385  0 */\n      0x00\n        /* \"@openzeppelin/contracts/access/Ownable.sol\":2357:2375  _transferOwnership */\n      tag_241\n        /* \"@openzeppelin/contracts/access/Ownable.sol\":2357:2387  _transferOwnership(address(0)) */\n      jump\t// in\n    tag_240:\n        /* \"@openzeppelin/contracts/access/Ownable.sol\":2293:2394  function renounceOwnership() public virtual onlyOwner {... */\n      jump\t// out\n        /* \"AlienPresale.sol\":4829:5480  function getPresaleInfo()... */\n    tag_83:\n        /* \"AlienPresale.sol\":4915:4933  uint256 _startTime */\n      0x00\n        /* \"AlienPresale.sol\":4947:4963  uint256 _endTime */\n      dup1\n        /* \"AlienPresale.sol\":4977:4993  uint256 _hardCap */\n      0x00\n        /* \"AlienPresale.sol\":5007:5027  uint256 _totalRaised */\n      dup1\n        /* \"AlienPresale.sol\":5041:5060  uint256 _tokenPrice */\n      0x00\n        /* \"AlienPresale.sol\":5074:5086  bool _paused */\n      dup1\n        /* \"AlienPresale.sol\":5100:5114  bool _isActive */\n      0x00\n        /* \"AlienPresale.sol\":5139:5152  bool isActive */\n      dup1\n        /* \"AlienPresale.sol\":5174:5183  startTime */\n      sload(0x03)\n        /* \"AlienPresale.sol\":5155:5170  block.timestamp */\n      timestamp\n        /* \"AlienPresale.sol\":5155:5183  block.timestamp >= startTime */\n      lt\n      iszero\n        /* \"AlienPresale.sol\":5155:5225  block.timestamp >= startTime &&... */\n      dup1\n      iszero\n      tag_243\n      jumpi\n      pop\n        /* \"AlienPresale.sol\":5218:5225  endTime */\n      sload(0x04)\n        /* \"AlienPresale.sol\":5199:5214  block.timestamp */\n      timestamp\n        /* \"AlienPresale.sol\":5199:5225  block.timestamp <= endTime */\n      gt\n      iszero\n        /* \"AlienPresale.sol\":5155:5225  block.timestamp >= startTime &&... */\n    tag_243:\n        /* \"AlienPresale.sol\":5155:5250  block.timestamp >= startTime &&... */\n      dup1\n      iszero\n      tag_244\n      jumpi\n      pop\n        /* \"AlienPresale.sol\":5242:5250  paused() */\n      tag_245\n        /* \"AlienPresale.sol\":5242:5248  paused */\n      tag_60\n        /* \"AlienPresale.sol\":5242:5250  paused() */\n      jump\t// in\n    tag_245:\n        /* \"AlienPresale.sol\":5241:5250  !paused() */\n      iszero\n        /* \"AlienPresale.sol\":5155:5250  block.timestamp >= startTime &&... */\n    tag_244:\n        /* \"AlienPresale.sol\":5155:5287  block.timestamp >= startTime &&... */\n      dup1\n      iszero\n      tag_246\n      jumpi\n      pop\n        /* \"AlienPresale.sol\":5280:5287  hardCap */\n      sload(0x05)\n        /* \"AlienPresale.sol\":5266:5277  totalRaised */\n      sload(0x06)\n        /* \"AlienPresale.sol\":5266:5287  totalRaised < hardCap */\n      lt\n        /* \"AlienPresale.sol\":5155:5287  block.timestamp >= startTime &&... */\n    tag_246:\n        /* \"AlienPresale.sol\":5139:5287  bool isActive = block.timestamp >= startTime &&... */\n      swap1\n      pop\n        /* \"AlienPresale.sol\":5319:5328  startTime */\n      sload(0x03)\n        /* \"AlienPresale.sol\":5342:5349  endTime */\n      sload(0x04)\n        /* \"AlienPresale.sol\":5363:5370  hardCap */\n      sload(0x05)\n        /* \"AlienPresale.sol\":5384:5395  totalRaised */\n      sload(0x06)\n        /* \"AlienPresale.sol\":5409:5419  tokenPrice */\n      sload(0x07)\n        /* \"AlienPresale.sol\":5433:5441  paused() */\n      tag_247\n        /* \"AlienPresale.sol\":5433:5439  paused */\n      tag_60\n        /* \"AlienPresale.sol\":5433:5441  paused() */\n      jump\t// in\n    tag_247:\n        /* \"AlienPresale.sol\":5455:5463  isActive */\n      dup7\n        /* \"AlienPresale.sol\":5298:5473  return (... */\n      swap8\n      pop\n      swap8\n      pop\n      swap8\n      pop\n      swap8\n      pop\n      swap8\n      pop\n      swap8\n      pop\n      swap8\n      pop\n      pop\n        /* \"AlienPresale.sol\":4829:5480  function getPresaleInfo()... */\n      swap1\n      swap2\n      swap3\n      swap4\n      swap5\n      swap6\n      swap7\n      jump\t// out\n        /* \"AlienPresale.sol\":380:404  uint256 public startTime */\n    tag_88:\n      sload(0x03)\n      dup2\n      jump\t// out\n        /* \"AlienPresale.sol\":498:523  uint256 public tokenPrice */\n    tag_92:\n      sload(0x07)\n      dup2\n      jump\t// out\n        /* \"AlienPresale.sol\":584:634  mapping(address => uint256) public claimableTokens */\n    tag_97:\n      mstore(0x20, 0x09)\n      dup1\n      0x00\n      mstore\n      keccak256(0x00, 0x40)\n      0x00\n      swap2\n      pop\n      swap1\n      pop\n      sload\n      dup2\n      jump\t// out\n        /* \"@openzeppelin/contracts/access/Ownable.sol\":1638:1723  function owner() public view virtual returns (address) {... */\n    tag_101:\n        /* \"@openzeppelin/contracts/access/Ownable.sol\":1684:1691  address */\n      0x00\n        /* \"@openzeppelin/contracts/access/Ownable.sol\":1710:1716  _owner */\n      dup1\n      0x00\n      swap1\n      sload\n      swap1\n      0x0100\n      exp\n      swap1\n      div\n      0xffffffffffffffffffffffffffffffffffffffff\n      and\n        /* \"@openzeppelin/contracts/access/Ownable.sol\":1703:1716  return _owner */\n      swap1\n      pop\n        /* \"@openzeppelin/contracts/access/Ownable.sol\":1638:1723  function owner() public view virtual returns (address) {... */\n      swap1\n      jump\t// out\n        /* \"AlienPresale.sol\":466:492  uint256 public totalRaised */\n    tag_106:\n      sload(0x06)\n      dup2\n      jump\t// out\n        /* \"AlienPresale.sol\":3438:3868  function withdrawUnsoldTokens() external onlyOwner {... */\n    tag_110:\n        /* \"@openzeppelin/contracts/access/Ownable.sol\":1531:1544  _checkOwner() */\n      tag_250\n        /* \"@openzeppelin/contracts/access/Ownable.sol\":1531:1542  _checkOwner */\n      tag_185\n        /* \"@openzeppelin/contracts/access/Ownable.sol\":1531:1544  _checkOwner() */\n      jump\t// in\n    tag_250:\n        /* \"AlienPresale.sol\":3525:3532  endTime */\n      sload(0x04)\n        /* \"AlienPresale.sol\":3507:3522  block.timestamp */\n      timestamp\n        /* \"AlienPresale.sol\":3507:3532  block.timestamp > endTime */\n      gt\n        /* \"AlienPresale.sol\":3499:3554  require(block.timestamp > endTime, \"Presale not ended\") */\n      tag_252\n      jumpi\n      mload(0x40)\n      0x08c379a000000000000000000000000000000000000000000000000000000000\n      dup2\n      mstore\n      0x04\n      add\n      tag_253\n      swap1\n      tag_189\n      jump\t// in\n    tag_253:\n      mload(0x40)\n      dup1\n      swap2\n      sub\n      swap1\n      revert\n    tag_252:\n        /* \"AlienPresale.sol\":3565:3588  uint256 contractBalance */\n      0x00\n        /* \"AlienPresale.sol\":3591:3596  token */\n      0x02\n      0x00\n      swap1\n      sload\n      swap1\n      0x0100\n      exp\n      swap1\n      div\n      0xffffffffffffffffffffffffffffffffffffffff\n      and\n        /* \"AlienPresale.sol\":3591:3606  token.balanceOf */\n      0xffffffffffffffffffffffffffffffffffffffff\n      and\n      0x70a08231\n        /* \"AlienPresale.sol\":3615:3619  this */\n      address\n        /* \"AlienPresale.sol\":3591:3621  token.balanceOf(address(this)) */\n      mload(0x40)\n      dup3\n      0xffffffff\n      and\n      0xe0\n      shl\n      dup2\n      mstore\n      0x04\n      add\n      tag_254\n      swap2\n      swap1\n      tag_103\n      jump\t// in\n    tag_254:\n      0x20\n      mload(0x40)\n      dup1\n      dup4\n      sub\n      dup2\n      dup7\n      gas\n      staticcall\n      iszero\n      dup1\n      iszero\n      tag_256\n      jumpi\n      returndatasize\n      0x00\n      dup1\n      returndatacopy\n      revert(0x00, returndatasize)\n    tag_256:\n      pop\n      pop\n      pop\n      pop\n      mload(0x40)\n      returndatasize\n      not(0x1f)\n      0x1f\n      dup3\n      add\n      and\n      dup3\n      add\n      dup1\n      0x40\n      mstore\n      pop\n      dup2\n      add\n      swap1\n      tag_257\n      swap2\n      swap1\n      tag_258\n      jump\t// in\n    tag_257:\n        /* \"AlienPresale.sol\":3565:3621  uint256 contractBalance = token.balanceOf(address(this)) */\n      swap1\n      pop\n        /* \"AlienPresale.sol\":3657:3658  0 */\n      0x00\n        /* \"AlienPresale.sol\":3639:3654  contractBalance */\n      dup2\n        /* \"AlienPresale.sol\":3639:3658  contractBalance > 0 */\n      gt\n        /* \"AlienPresale.sol\":3631:3679  require(contractBalance > 0, \"No unsold tokens\") */\n      tag_259\n      jumpi\n      mload(0x40)\n      0x08c379a000000000000000000000000000000000000000000000000000000000\n      dup2\n      mstore\n      0x04\n      add\n      tag_260\n      swap1\n      tag_261\n      jump\t// in\n    tag_260:\n      mload(0x40)\n      dup1\n      swap2\n      sub\n      swap1\n      revert\n    tag_259:\n        /* \"AlienPresale.sol\":3711:3716  token */\n      0x02\n      0x00\n      swap1\n      sload\n      swap1\n      0x0100\n      exp\n      swap1\n      div\n      0xffffffffffffffffffffffffffffffffffffffff\n      and\n        /* \"AlienPresale.sol\":3711:3725  token.transfer */\n      0xffffffffffffffffffffffffffffffffffffffff\n      and\n      0xa9059cbb\n        /* \"AlienPresale.sol\":3726:3733  owner() */\n      tag_262\n        /* \"AlienPresale.sol\":3726:3731  owner */\n      tag_101\n        /* \"AlienPresale.sol\":3726:3733  owner() */\n      jump\t// in\n    tag_262:\n        /* \"AlienPresale.sol\":3735:3750  contractBalance */\n      dup4\n        /* \"AlienPresale.sol\":3711:3751  token.transfer(owner(), contractBalance) */\n      mload(0x40)\n      dup4\n      0xffffffff\n      and\n      0xe0\n      shl\n      dup2\n      mstore\n      0x04\n      add\n      tag_263\n      swap3\n      swap2\n      swap1\n      tag_213\n      jump\t// in\n    tag_263:\n      0x20\n      mload(0x40)\n      dup1\n      dup4\n      sub\n      dup2\n      0x00\n      dup8\n      gas\n      call\n      iszero\n      dup1\n      iszero\n      tag_265\n      jumpi\n      returndatasize\n      0x00\n      dup1\n      returndatacopy\n      revert(0x00, returndatasize)\n    tag_265:\n      pop\n      pop\n      pop\n      pop\n      mload(0x40)\n      returndatasize\n      not(0x1f)\n      0x1f\n      dup3\n      add\n      and\n      dup3\n      add\n      dup1\n      0x40\n      mstore\n      pop\n      dup2\n      add\n      swap1\n      tag_266\n      swap2\n      swap1\n      tag_217\n      jump\t// in\n    tag_266:\n        /* \"AlienPresale.sol\":3690:3798  require(... */\n      tag_267\n      jumpi\n      mload(0x40)\n      0x08c379a000000000000000000000000000000000000000000000000000000000\n      dup2\n      mstore\n      0x04\n      add\n      tag_268\n      swap1\n      tag_220\n      jump\t// in\n    tag_268:\n      mload(0x40)\n      dup1\n      swap2\n      sub\n      swap1\n      revert\n    tag_267:\n        /* \"AlienPresale.sol\":3836:3843  owner() */\n      tag_269\n        /* \"AlienPresale.sol\":3836:3841  owner */\n      tag_101\n        /* \"AlienPresale.sol\":3836:3843  owner() */\n      jump\t// in\n    tag_269:\n        /* \"AlienPresale.sol\":3814:3861  UnsoldTokensWithdrawn(owner(), contractBalance) */\n      0xffffffffffffffffffffffffffffffffffffffff\n      and\n      0x328a7cca57e89d3b52f56190ef4e06d91c987e3ef2640db3be95d65f818e2d12\n        /* \"AlienPresale.sol\":3845:3860  contractBalance */\n      dup3\n        /* \"AlienPresale.sol\":3814:3861  UnsoldTokensWithdrawn(owner(), contractBalance) */\n      mload(0x40)\n      tag_270\n      swap2\n      swap1\n      tag_48\n      jump\t// in\n    tag_270:\n      mload(0x40)\n      dup1\n      swap2\n      sub\n      swap1\n      log2\n        /* \"AlienPresale.sol\":3489:3868  {... */\n      pop\n        /* \"AlienPresale.sol\":3438:3868  function withdrawUnsoldTokens() external onlyOwner {... */\n      jump\t// out\n        /* \"AlienPresale.sol\":3874:4079  function pausePresale(bool _status) external onlyOwner {... */\n    tag_116:\n        /* \"@openzeppelin/contracts/access/Ownable.sol\":1531:1544  _checkOwner() */\n      tag_272\n        /* \"@openzeppelin/contracts/access/Ownable.sol\":1531:1542  _checkOwner */\n      tag_185\n        /* \"@openzeppelin/contracts/access/Ownable.sol\":1531:1544  _checkOwner() */\n      jump\t// in\n    tag_272:\n        /* \"AlienPresale.sol\":3943:3950  _status */\n      dup1\n        /* \"AlienPresale.sol\":3939:4026  if (_status) {... */\n      iszero\n      tag_274\n      jumpi\n        /* \"AlienPresale.sol\":3966:3974  _pause() */\n      tag_275\n        /* \"AlienPresale.sol\":3966:3972  _pause */\n      tag_276\n        /* \"AlienPresale.sol\":3966:3974  _pause() */\n      jump\t// in\n    tag_275:\n        /* \"AlienPresale.sol\":3939:4026  if (_status) {... */\n      jump(tag_277)\n    tag_274:\n        /* \"AlienPresale.sol\":4005:4015  _unpause() */\n      tag_278\n        /* \"AlienPresale.sol\":4005:4013  _unpause */\n      tag_279\n        /* \"AlienPresale.sol\":4005:4015  _unpause() */\n      jump\t// in\n    tag_278:\n        /* \"AlienPresale.sol\":3939:4026  if (_status) {... */\n    tag_277:\n        /* \"AlienPresale.sol\":4055:4062  owner() */\n      tag_280\n        /* \"AlienPresale.sol\":4055:4060  owner */\n      tag_101\n        /* \"AlienPresale.sol\":4055:4062  owner() */\n      jump\t// in\n    tag_280:\n        /* \"AlienPresale.sol\":4041:4072  PresalePaused(owner(), _status) */\n      0xffffffffffffffffffffffffffffffffffffffff\n      and\n      0xac5c0908ed5f21c95ac4028bbe6d55d00fea102284f1c7ff590d33d19ed753f6\n        /* \"AlienPresale.sol\":4064:4071  _status */\n      dup3\n        /* \"AlienPresale.sol\":4041:4072  PresalePaused(owner(), _status) */\n      mload(0x40)\n      tag_281\n      swap2\n      swap1\n      tag_62\n      jump\t// in\n    tag_281:\n      mload(0x40)\n      dup1\n      swap2\n      sub\n      swap1\n      log2\n        /* \"AlienPresale.sol\":3874:4079  function pausePresale(bool _status) external onlyOwner {... */\n      pop\n      jump\t// out\n        /* \"AlienPresale.sol\":4085:4416  function updatePresaleTimes(... */\n    tag_121:\n        /* \"@openzeppelin/contracts/access/Ownable.sol\":1531:1544  _checkOwner() */\n      tag_283\n        /* \"@openzeppelin/contracts/access/Ownable.sol\":1531:1542  _checkOwner */\n      tag_185\n        /* \"@openzeppelin/contracts/access/Ownable.sol\":1531:1544  _checkOwner() */\n      jump\t// in\n    tag_283:\n        /* \"AlienPresale.sol\":4223:4238  block.timestamp */\n      timestamp\n        /* \"AlienPresale.sol\":4210:4220  _startTime */\n      dup3\n        /* \"AlienPresale.sol\":4210:4238  _startTime > block.timestamp */\n      gt\n        /* \"AlienPresale.sol\":4202:4271  require(_startTime > block.timestamp, \"Start time must be in future\") */\n      tag_285\n      jumpi\n      mload(0x40)\n      0x08c379a000000000000000000000000000000000000000000000000000000000\n      dup2\n      mstore\n      0x04\n      add\n      tag_286\n      swap1\n      tag_287\n      jump\t// in\n    tag_286:\n      mload(0x40)\n      dup1\n      swap2\n      sub\n      swap1\n      revert\n    tag_285:\n        /* \"AlienPresale.sol\":4300:4310  _startTime */\n      dup2\n        /* \"AlienPresale.sol\":4289:4297  _endTime */\n      dup2\n        /* \"AlienPresale.sol\":4289:4310  _endTime > _startTime */\n      gt\n        /* \"AlienPresale.sol\":4281:4348  require(_endTime > _startTime, \"End time must be after start time\") */\n      tag_288\n      jumpi\n      mload(0x40)\n      0x08c379a000000000000000000000000000000000000000000000000000000000\n      dup2\n      mstore\n      0x04\n      add\n      tag_289\n      swap1\n      tag_290\n      jump\t// in\n    tag_289:\n      mload(0x40)\n      dup1\n      swap2\n      sub\n      swap1\n      revert\n    tag_288:\n        /* \"AlienPresale.sol\":4371:4381  _startTime */\n      dup2\n        /* \"AlienPresale.sol\":4359:4368  startTime */\n      0x03\n        /* \"AlienPresale.sol\":4359:4381  startTime = _startTime */\n      dup2\n      swap1\n      sstore\n      pop\n        /* \"AlienPresale.sol\":4401:4409  _endTime */\n      dup1\n        /* \"AlienPresale.sol\":4391:4398  endTime */\n      0x04\n        /* \"AlienPresale.sol\":4391:4409  endTime = _endTime */\n      dup2\n      swap1\n      sstore\n      pop\n        /* \"AlienPresale.sol\":4085:4416  function updatePresaleTimes(... */\n      pop\n      pop\n      jump\t// out\n        /* \"@openzeppelin/contracts/access/Ownable.sol\":2543:2758  function transferOwnership(address newOwner) public virtual onlyOwner {... */\n    tag_125:\n        /* \"@openzeppelin/contracts/access/Ownable.sol\":1531:1544  _checkOwner() */\n      tag_292\n        /* \"@openzeppelin/contracts/access/Ownable.sol\":1531:1542  _checkOwner */\n      tag_185\n        /* \"@openzeppelin/contracts/access/Ownable.sol\":1531:1544  _checkOwner() */\n      jump\t// in\n    tag_292:\n        /* \"@openzeppelin/contracts/access/Ownable.sol\":2647:2648  0 */\n      0x00\n        /* \"@openzeppelin/contracts/access/Ownable.sol\":2627:2649  newOwner == address(0) */\n      0xffffffffffffffffffffffffffffffffffffffff\n      and\n        /* \"@openzeppelin/contracts/access/Ownable.sol\":2627:2635  newOwner */\n      dup2\n        /* \"@openzeppelin/contracts/access/Ownable.sol\":2627:2649  newOwner == address(0) */\n      0xffffffffffffffffffffffffffffffffffffffff\n      and\n      sub\n        /* \"@openzeppelin/contracts/access/Ownable.sol\":2623:2714  if (newOwner == address(0)) {... */\n      tag_294\n      jumpi\n        /* \"@openzeppelin/contracts/access/Ownable.sol\":2700:2701  0 */\n      0x00\n        /* \"@openzeppelin/contracts/access/Ownable.sol\":2672:2703  OwnableInvalidOwner(address(0)) */\n      mload(0x40)\n      0x1e4fbdf700000000000000000000000000000000000000000000000000000000\n      dup2\n      mstore\n      0x04\n      add\n      tag_295\n      swap2\n      swap1\n      tag_103\n      jump\t// in\n    tag_295:\n      mload(0x40)\n      dup1\n      swap2\n      sub\n      swap1\n      revert\n        /* \"@openzeppelin/contracts/access/Ownable.sol\":2623:2714  if (newOwner == address(0)) {... */\n    tag_294:\n        /* \"@openzeppelin/contracts/access/Ownable.sol\":2723:2751  _transferOwnership(newOwner) */\n      tag_296\n        /* \"@openzeppelin/contracts/access/Ownable.sol\":2742:2750  newOwner */\n      dup2\n        /* \"@openzeppelin/contracts/access/Ownable.sol\":2723:2741  _transferOwnership */\n      tag_241\n        /* \"@openzeppelin/contracts/access/Ownable.sol\":2723:2751  _transferOwnership(newOwner) */\n      jump\t// in\n    tag_296:\n        /* \"@openzeppelin/contracts/access/Ownable.sol\":2543:2758  function transferOwnership(address newOwner) public virtual onlyOwner {... */\n      pop\n      jump\t// out\n        /* \"AlienPresale.sol\":438:460  uint256 public hardCap */\n    tag_128:\n      sload(0x05)\n      dup2\n      jump\t// out\n        /* \"AlienPresale.sol\":354:373  IERC20 public token */\n    tag_132:\n      0x02\n      0x00\n      swap1\n      sload\n      swap1\n      0x0100\n      exp\n      swap1\n      div\n      0xffffffffffffffffffffffffffffffffffffffff\n      and\n      dup2\n      jump\t// out\n        /* \"@openzeppelin/contracts/security/ReentrancyGuard.sol\":2336:2623  function _nonReentrantBefore() private {... */\n    tag_151:\n        /* \"@openzeppelin/contracts/security/ReentrancyGuard.sol\":1759:1760  2 */\n      0x02\n        /* \"@openzeppelin/contracts/security/ReentrancyGuard.sol\":2468:2475  _status */\n      sload(0x01)\n        /* \"@openzeppelin/contracts/security/ReentrancyGuard.sol\":2468:2487  _status != _ENTERED */\n      sub\n        /* \"@openzeppelin/contracts/security/ReentrancyGuard.sol\":2460:2523  require(_status != _ENTERED, \"ReentrancyGuard: reentrant call\") */\n      tag_298\n      jumpi\n      mload(0x40)\n      0x08c379a000000000000000000000000000000000000000000000000000000000\n      dup2\n      mstore\n      0x04\n      add\n      tag_299\n      swap1\n      tag_300\n      jump\t// in\n    tag_299:\n      mload(0x40)\n      dup1\n      swap2\n      sub\n      swap1\n      revert\n    tag_298:\n        /* \"@openzeppelin/contracts/security/ReentrancyGuard.sol\":1759:1760  2 */\n      0x02\n        /* \"@openzeppelin/contracts/security/ReentrancyGuard.sol\":2598:2605  _status */\n      0x01\n        /* \"@openzeppelin/contracts/security/ReentrancyGuard.sol\":2598:2616  _status = _ENTERED */\n      dup2\n      swap1\n      sstore\n      pop\n        /* \"@openzeppelin/contracts/security/ReentrancyGuard.sol\":2336:2623  function _nonReentrantBefore() private {... */\n      jump\t// out\n        /* \"@openzeppelin/contracts/security/ReentrancyGuard.sol\":2629:2838  function _nonReentrantAfter() private {... */\n    tag_173:\n        /* \"@openzeppelin/contracts/security/ReentrancyGuard.sol\":1716:1717  1 */\n      0x01\n        /* \"@openzeppelin/contracts/security/ReentrancyGuard.sol\":2809:2816  _status */\n      dup1\n        /* \"@openzeppelin/contracts/security/ReentrancyGuard.sol\":2809:2831  _status = _NOT_ENTERED */\n      dup2\n      swap1\n      sstore\n      pop\n        /* \"@openzeppelin/contracts/security/ReentrancyGuard.sol\":2629:2838  function _nonReentrantAfter() private {... */\n      jump\t// out\n        /* \"@openzeppelin/contracts/access/Ownable.sol\":1796:1958  function _checkOwner() internal view virtual {... */\n    tag_185:\n        /* \"@openzeppelin/contracts/access/Ownable.sol\":1866:1878  _msgSender() */\n      tag_303\n        /* \"@openzeppelin/contracts/access/Ownable.sol\":1866:1876  _msgSender */\n      tag_304\n        /* \"@openzeppelin/contracts/access/Ownable.sol\":1866:1878  _msgSender() */\n      jump\t// in\n    tag_303:\n        /* \"@openzeppelin/contracts/access/Ownable.sol\":1855:1878  owner() != _msgSender() */\n      0xffffffffffffffffffffffffffffffffffffffff\n      and\n        /* \"@openzeppelin/contracts/access/Ownable.sol\":1855:1862  owner() */\n      tag_305\n        /* \"@openzeppelin/contracts/access/Ownable.sol\":1855:1860  owner */\n      tag_101\n        /* \"@openzeppelin/contracts/access/Ownable.sol\":1855:1862  owner() */\n      jump\t// in\n    tag_305:\n        /* \"@openzeppelin/contracts/access/Ownable.sol\":1855:1878  owner() != _msgSender() */\n      0xffffffffffffffffffffffffffffffffffffffff\n      and\n      eq\n        /* \"@openzeppelin/contracts/access/Ownable.sol\":1851:1952  if (owner() != _msgSender()) {... */\n      tag_306\n      jumpi\n        /* \"@openzeppelin/contracts/access/Ownable.sol\":1928:1940  _msgSender() */\n      tag_307\n        /* \"@openzeppelin/contracts/access/Ownable.sol\":1928:1938  _msgSender */\n      tag_304\n        /* \"@openzeppelin/contracts/access/Ownable.sol\":1928:1940  _msgSender() */\n      jump\t// in\n    tag_307:\n        /* \"@openzeppelin/contracts/access/Ownable.sol\":1901:1941  OwnableUnauthorizedAccount(_msgSender()) */\n      mload(0x40)\n      0x118cdaa700000000000000000000000000000000000000000000000000000000\n      dup2\n      mstore\n      0x04\n      add\n      tag_308\n      swap2\n      swap1\n      tag_103\n      jump\t// in\n    tag_308:\n      mload(0x40)\n      dup1\n      swap2\n      sub\n      swap1\n      revert\n        /* \"@openzeppelin/contracts/access/Ownable.sol\":1851:1952  if (owner() != _msgSender()) {... */\n    tag_306:\n        /* \"@openzeppelin/contracts/access/Ownable.sol\":1796:1958  function _checkOwner() internal view virtual {... */\n      jump\t// out\n        /* \"@openzeppelin/contracts/access/Ownable.sol\":2912:3099  function _transferOwnership(address newOwner) internal virtual {... */\n    tag_241:\n        /* \"@openzeppelin/contracts/access/Ownable.sol\":2985:3001  address oldOwner */\n      0x00\n        /* \"@openzeppelin/contracts/access/Ownable.sol\":3004:3010  _owner */\n      dup1\n      0x00\n      swap1\n      sload\n      swap1\n      0x0100\n      exp\n      swap1\n      div\n      0xffffffffffffffffffffffffffffffffffffffff\n      and\n        /* \"@openzeppelin/contracts/access/Ownable.sol\":2985:3010  address oldOwner = _owner */\n      swap1\n      pop\n        /* \"@openzeppelin/contracts/access/Ownable.sol\":3029:3037  newOwner */\n      dup2\n        /* \"@openzeppelin/contracts/access/Ownable.sol\":3020:3026  _owner */\n      0x00\n      dup1\n        /* \"@openzeppelin/contracts/access/Ownable.sol\":3020:3037  _owner = newOwner */\n      0x0100\n      exp\n      dup2\n      sload\n      dup2\n      0xffffffffffffffffffffffffffffffffffffffff\n      mul\n      not\n      and\n      swap1\n      dup4\n      0xffffffffffffffffffffffffffffffffffffffff\n      and\n      mul\n      or\n      swap1\n      sstore\n      pop\n        /* \"@openzeppelin/contracts/access/Ownable.sol\":3083:3091  newOwner */\n      dup2\n        /* \"@openzeppelin/contracts/access/Ownable.sol\":3052:3092  OwnershipTransferred(oldOwner, newOwner) */\n      0xffffffffffffffffffffffffffffffffffffffff\n      and\n        /* \"@openzeppelin/contracts/access/Ownable.sol\":3073:3081  oldOwner */\n      dup2\n        /* \"@openzeppelin/contracts/access/Ownable.sol\":3052:3092  OwnershipTransferred(oldOwner, newOwner) */\n      0xffffffffffffffffffffffffffffffffffffffff\n      and\n      0x8be0079c531659141344cd1fd0a4f28419497f9722a3daafe3b4186f6b6457e0\n      mload(0x40)\n      mload(0x40)\n      dup1\n      swap2\n      sub\n      swap1\n      log3\n        /* \"@openzeppelin/contracts/access/Ownable.sol\":2975:3099  {... */\n      pop\n        /* \"@openzeppelin/contracts/access/Ownable.sol\":2912:3099  function _transferOwnership(address newOwner) internal virtual {... */\n      pop\n      jump\t// out\n        /* \"@openzeppelin/contracts/security/Pausable.sol\":2186:2301  function _pause() internal virtual whenNotPaused {... */\n    tag_276:\n        /* \"@openzeppelin/contracts/security/Pausable.sol\":1239:1258  _requireNotPaused() */\n      tag_311\n        /* \"@openzeppelin/contracts/security/Pausable.sol\":1239:1256  _requireNotPaused */\n      tag_312\n        /* \"@openzeppelin/contracts/security/Pausable.sol\":1239:1258  _requireNotPaused() */\n      jump\t// in\n    tag_311:\n        /* \"@openzeppelin/contracts/security/Pausable.sol\":2255:2259  true */\n      0x01\n        /* \"@openzeppelin/contracts/security/Pausable.sol\":2245:2252  _paused */\n      0x00\n      0x14\n        /* \"@openzeppelin/contracts/security/Pausable.sol\":2245:2259  _paused = true */\n      0x0100\n      exp\n      dup2\n      sload\n      dup2\n      0xff\n      mul\n      not\n      and\n      swap1\n      dup4\n      iszero\n      iszero\n      mul\n      or\n      swap1\n      sstore\n      pop\n        /* \"@openzeppelin/contracts/security/Pausable.sol\":2274:2294  Paused(_msgSender()) */\n      0x62e78cea01bee320cd4e420270b5ea74000d11b0c9f74754ebdbfc544b05a258\n        /* \"@openzeppelin/contracts/security/Pausable.sol\":2281:2293  _msgSender() */\n      tag_314\n        /* \"@openzeppelin/contracts/security/Pausable.sol\":2281:2291  _msgSender */\n      tag_304\n        /* \"@openzeppelin/contracts/security/Pausable.sol\":2281:2293  _msgSender() */\n      jump\t// in\n    tag_314:\n        /* \"@openzeppelin/contracts/security/Pausable.sol\":2274:2294  Paused(_msgSender()) */\n      mload(0x40)\n      tag_315\n      swap2\n      swap1\n      tag_103\n      jump\t// in\n    tag_315:\n      mload(0x40)\n      dup1\n      swap2\n      sub\n      swap1\n      log1\n        /* \"@openzeppelin/contracts/security/Pausable.sol\":2186:2301  function _pause() internal virtual whenNotPaused {... */\n      jump\t// out\n        /* \"@openzeppelin/contracts/security/Pausable.sol\":2433:2550  function _unpause() internal virtual whenPaused {... */\n    tag_279:\n        /* \"@openzeppelin/contracts/security/Pausable.sol\":1486:1502  _requirePaused() */\n      tag_317\n        /* \"@openzeppelin/contracts/security/Pausable.sol\":1486:1500  _requirePaused */\n      tag_318\n        /* \"@openzeppelin/contracts/security/Pausable.sol\":1486:1502  _requirePaused() */\n      jump\t// in\n    tag_317:\n        /* \"@openzeppelin/contracts/security/Pausable.sol\":2501:2506  false */\n      0x00\n        /* \"@openzeppelin/contracts/security/Pausable.sol\":2491:2498  _paused */\n      dup1\n      0x14\n        /* \"@openzeppelin/contracts/security/Pausable.sol\":2491:2506  _paused = false */\n      0x0100\n      exp\n      dup2\n      sload\n      dup2\n      0xff\n      mul\n      not\n      and\n      swap1\n      dup4\n      iszero\n      iszero\n      mul\n      or\n      swap1\n      sstore\n      pop\n        /* \"@openzeppelin/contracts/security/Pausable.sol\":2521:2543  Unpaused(_msgSender()) */\n      0x5db9ee0a495bf2e6ff9c91a7834c1ba4fdd244a5e8aa4e537bd38aeae4b073aa\n        /* \"@openzeppelin/contracts/security/Pausable.sol\":2530:2542  _msgSender() */\n      tag_320\n        /* \"@openzeppelin/contracts/security/Pausable.sol\":2530:2540  _msgSender */\n      tag_304\n        /* \"@openzeppelin/contracts/security/Pausable.sol\":2530:2542  _msgSender() */\n      jump\t// in\n    tag_320:\n        /* \"@openzeppelin/contracts/security/Pausable.sol\":2521:2543  Unpaused(_msgSender()) */\n      mload(0x40)\n      tag_321\n      swap2\n      swap1\n      tag_103\n      jump\t// in\n    tag_321:\n      mload(0x40)\n      dup1\n      swap2\n      sub\n      swap1\n      log1\n        /* \"@openzeppelin/contracts/security/Pausable.sol\":2433:2550  function _unpause() internal virtual whenPaused {... */\n      jump\t// out\n        /* \"@openzeppelin/contracts/utils/Context.sol\":656:752  function _msgSender() internal view virtual returns (address) {... */\n    tag_304:\n        /* \"@openzeppelin/contracts/utils/Context.sol\":709:716  address */\n      0x00\n        /* \"@openzeppelin/contracts/utils/Context.sol\":735:745  msg.sender */\n      caller\n        /* \"@openzeppelin/contracts/utils/Context.sol\":728:745  return msg.sender */\n      swap1\n      pop\n        /* \"@openzeppelin/contracts/utils/Context.sol\":656:752  function _msgSender() internal view virtual returns (address) {... */\n      swap1\n      jump\t// out\n        /* \"@openzeppelin/contracts/security/Pausable.sol\":1767:1873  function _requireNotPaused() internal view virtual {... */\n    tag_312:\n        /* \"@openzeppelin/contracts/security/Pausable.sol\":1837:1845  paused() */\n      tag_324\n        /* \"@openzeppelin/contracts/security/Pausable.sol\":1837:1843  paused */\n      tag_60\n        /* \"@openzeppelin/contracts/security/Pausable.sol\":1837:1845  paused() */\n      jump\t// in\n    tag_324:\n        /* \"@openzeppelin/contracts/security/Pausable.sol\":1836:1845  !paused() */\n      iszero\n        /* \"@openzeppelin/contracts/security/Pausable.sol\":1828:1866  require(!paused(), \"Pausable: paused\") */\n      tag_325\n      jumpi\n      mload(0x40)\n      0x08c379a000000000000000000000000000000000000000000000000000000000\n      dup2\n      mstore\n      0x04\n      add\n      tag_326\n      swap1\n      tag_327\n      jump\t// in\n    tag_326:\n      mload(0x40)\n      dup1\n      swap2\n      sub\n      swap1\n      revert\n    tag_325:\n        /* \"@openzeppelin/contracts/security/Pausable.sol\":1767:1873  function _requireNotPaused() internal view virtual {... */\n      jump\t// out\n        /* \"@openzeppelin/contracts/security/Pausable.sol\":1945:2051  function _requirePaused() internal view virtual {... */\n    tag_318:\n        /* \"@openzeppelin/contracts/security/Pausable.sol\":2011:2019  paused() */\n      tag_329\n        /* \"@openzeppelin/contracts/security/Pausable.sol\":2011:2017  paused */\n      tag_60\n        /* \"@openzeppelin/contracts/security/Pausable.sol\":2011:2019  paused() */\n      jump\t// in\n    tag_329:\n        /* \"@openzeppelin/contracts/security/Pausable.sol\":2003:2044  require(paused(), \"Pausable: not paused\") */\n      tag_330\n      jumpi\n      mload(0x40)\n      0x08c379a000000000000000000000000000000000000000000000000000000000\n      dup2\n      mstore\n      0x04\n      add\n      tag_331\n      swap1\n      tag_332\n      jump\t// in\n    tag_331:\n      mload(0x40)\n      dup1\n      swap2\n      sub\n      swap1\n      revert\n    tag_330:\n        /* \"@openzeppelin/contracts/security/Pausable.sol\":1945:2051  function _requirePaused() internal view virtual {... */\n      jump\t// out\n        /* \"#utility.yul\":7:84   */\n    tag_333:\n        /* \"#utility.yul\":44:51   */\n      0x00\n        /* \"#utility.yul\":73:78   */\n      dup2\n        /* \"#utility.yul\":62:78   */\n      swap1\n      pop\n        /* \"#utility.yul\":7:84   */\n      swap2\n      swap1\n      pop\n      jump\t// out\n        /* \"#utility.yul\":90:208   */\n    tag_334:\n        /* \"#utility.yul\":177:201   */\n      tag_405\n        /* \"#utility.yul\":195:200   */\n      dup2\n        /* \"#utility.yul\":177:201   */\n      tag_333\n      jump\t// in\n    tag_405:\n        /* \"#utility.yul\":172:175   */\n      dup3\n        /* \"#utility.yul\":165:202   */\n      mstore\n        /* \"#utility.yul\":90:208   */\n      pop\n      pop\n      jump\t// out\n        /* \"#utility.yul\":214:767   */\n    tag_40:\n        /* \"#utility.yul\":391:395   */\n      0x00\n        /* \"#utility.yul\":429:432   */\n      0x80\n        /* \"#utility.yul\":418:427   */\n      dup3\n        /* \"#utility.yul\":414:433   */\n      add\n        /* \"#utility.yul\":406:433   */\n      swap1\n      pop\n        /* \"#utility.yul\":443:514   */\n      tag_407\n        /* \"#utility.yul\":511:512   */\n      0x00\n        /* \"#utility.yul\":500:509   */\n      dup4\n        /* \"#utility.yul\":496:513   */\n      add\n        /* \"#utility.yul\":487:493   */\n      dup8\n        /* \"#utility.yul\":443:514   */\n      tag_334\n      jump\t// in\n    tag_407:\n        /* \"#utility.yul\":524:596   */\n      tag_408\n        /* \"#utility.yul\":592:594   */\n      0x20\n        /* \"#utility.yul\":581:590   */\n      dup4\n        /* \"#utility.yul\":577:595   */\n      add\n        /* \"#utility.yul\":568:574   */\n      dup7\n        /* \"#utility.yul\":524:596   */\n      tag_334\n      jump\t// in\n    tag_408:\n        /* \"#utility.yul\":606:678   */\n      tag_409\n        /* \"#utility.yul\":674:676   */\n      0x40\n        /* \"#utility.yul\":663:672   */\n      dup4\n        /* \"#utility.yul\":659:677   */\n      add\n        /* \"#utility.yul\":650:656   */\n      dup6\n        /* \"#utility.yul\":606:678   */\n      tag_334\n      jump\t// in\n    tag_409:\n        /* \"#utility.yul\":688:760   */\n      tag_410\n        /* \"#utility.yul\":756:758   */\n      0x60\n        /* \"#utility.yul\":745:754   */\n      dup4\n        /* \"#utility.yul\":741:759   */\n      add\n        /* \"#utility.yul\":732:738   */\n      dup5\n        /* \"#utility.yul\":688:760   */\n      tag_334\n      jump\t// in\n    tag_410:\n        /* \"#utility.yul\":214:767   */\n      swap6\n      swap5\n      pop\n      pop\n      pop\n      pop\n      pop\n      jump\t// out\n        /* \"#utility.yul\":773:995   */\n    tag_48:\n        /* \"#utility.yul\":866:870   */\n      0x00\n        /* \"#utility.yul\":904:906   */\n      0x20\n        /* \"#utility.yul\":893:902   */\n      dup3\n        /* \"#utility.yul\":889:907   */\n      add\n        /* \"#utility.yul\":881:907   */\n      swap1\n      pop\n        /* \"#utility.yul\":917:988   */\n      tag_412\n        /* \"#utility.yul\":985:986   */\n      0x00\n        /* \"#utility.yul\":974:983   */\n      dup4\n        /* \"#utility.yul\":970:987   */\n      add\n        /* \"#utility.yul\":961:967   */\n      dup5\n        /* \"#utility.yul\":917:988   */\n      tag_334\n      jump\t// in\n    tag_412:\n        /* \"#utility.yul\":773:995   */\n      swap3\n      swap2\n      pop\n      pop\n      jump\t// out\n        /* \"#utility.yul\":1082:1199   */\n    tag_336:\n        /* \"#utility.yul\":1191:1192   */\n      0x00\n        /* \"#utility.yul\":1188:1189   */\n      dup1\n        /* \"#utility.yul\":1181:1193   */\n      revert\n        /* \"#utility.yul\":1328:1454   */\n    tag_338:\n        /* \"#utility.yul\":1365:1372   */\n      0x00\n        /* \"#utility.yul\":1405:1447   */\n      0xffffffffffffffffffffffffffffffffffffffff\n        /* \"#utility.yul\":1398:1403   */\n      dup3\n        /* \"#utility.yul\":1394:1448   */\n      and\n        /* \"#utility.yul\":1383:1448   */\n      swap1\n      pop\n        /* \"#utility.yul\":1328:1454   */\n      swap2\n      swap1\n      pop\n      jump\t// out\n        /* \"#utility.yul\":1460:1556   */\n    tag_339:\n        /* \"#utility.yul\":1497:1504   */\n      0x00\n        /* \"#utility.yul\":1526:1550   */\n      tag_418\n        /* \"#utility.yul\":1544:1549   */\n      dup3\n        /* \"#utility.yul\":1526:1550   */\n      tag_338\n      jump\t// in\n    tag_418:\n        /* \"#utility.yul\":1515:1550   */\n      swap1\n      pop\n        /* \"#utility.yul\":1460:1556   */\n      swap2\n      swap1\n      pop\n      jump\t// out\n        /* \"#utility.yul\":1562:1684   */\n    tag_340:\n        /* \"#utility.yul\":1635:1659   */\n      tag_420\n        /* \"#utility.yul\":1653:1658   */\n      dup2\n        /* \"#utility.yul\":1635:1659   */\n      tag_339\n      jump\t// in\n    tag_420:\n        /* \"#utility.yul\":1628:1633   */\n      dup2\n        /* \"#utility.yul\":1625:1660   */\n      eq\n        /* \"#utility.yul\":1615:1678   */\n      tag_421\n      jumpi\n        /* \"#utility.yul\":1674:1675   */\n      0x00\n        /* \"#utility.yul\":1671:1672   */\n      dup1\n        /* \"#utility.yul\":1664:1676   */\n      revert\n        /* \"#utility.yul\":1615:1678   */\n    tag_421:\n        /* \"#utility.yul\":1562:1684   */\n      pop\n      jump\t// out\n        /* \"#utility.yul\":1690:1829   */\n    tag_341:\n        /* \"#utility.yul\":1736:1741   */\n      0x00\n        /* \"#utility.yul\":1774:1780   */\n      dup2\n        /* \"#utility.yul\":1761:1781   */\n      calldataload\n        /* \"#utility.yul\":1752:1781   */\n      swap1\n      pop\n        /* \"#utility.yul\":1790:1823   */\n      tag_423\n        /* \"#utility.yul\":1817:1822   */\n      dup2\n        /* \"#utility.yul\":1790:1823   */\n      tag_340\n      jump\t// in\n    tag_423:\n        /* \"#utility.yul\":1690:1829   */\n      swap3\n      swap2\n      pop\n      pop\n      jump\t// out\n        /* \"#utility.yul\":1835:2164   */\n    tag_52:\n        /* \"#utility.yul\":1894:1900   */\n      0x00\n        /* \"#utility.yul\":1943:1945   */\n      0x20\n        /* \"#utility.yul\":1931:1940   */\n      dup3\n        /* \"#utility.yul\":1922:1929   */\n      dup5\n        /* \"#utility.yul\":1918:1941   */\n      sub\n        /* \"#utility.yul\":1914:1946   */\n      slt\n        /* \"#utility.yul\":1911:2030   */\n      iszero\n      tag_425\n      jumpi\n        /* \"#utility.yul\":1949:2028   */\n      tag_426\n      tag_336\n      jump\t// in\n    tag_426:\n        /* \"#utility.yul\":1911:2030   */\n    tag_425:\n        /* \"#utility.yul\":2069:2070   */\n      0x00\n        /* \"#utility.yul\":2094:2147   */\n      tag_427\n        /* \"#utility.yul\":2139:2146   */\n      dup5\n        /* \"#utility.yul\":2130:2136   */\n      dup3\n        /* \"#utility.yul\":2119:2128   */\n      dup6\n        /* \"#utility.yul\":2115:2137   */\n      add\n        /* \"#utility.yul\":2094:2147   */\n      tag_341\n      jump\t// in\n    tag_427:\n        /* \"#utility.yul\":2084:2147   */\n      swap2\n      pop\n        /* \"#utility.yul\":2040:2157   */\n      pop\n        /* \"#utility.yul\":1835:2164   */\n      swap3\n      swap2\n      pop\n      pop\n      jump\t// out\n        /* \"#utility.yul\":2170:2260   */\n    tag_342:\n        /* \"#utility.yul\":2204:2211   */\n      0x00\n        /* \"#utility.yul\":2247:2252   */\n      dup2\n        /* \"#utility.yul\":2240:2253   */\n      iszero\n        /* \"#utility.yul\":2233:2254   */\n      iszero\n        /* \"#utility.yul\":2222:2254   */\n      swap1\n      pop\n        /* \"#utility.yul\":2170:2260   */\n      swap2\n      swap1\n      pop\n      jump\t// out\n        /* \"#utility.yul\":2266:2375   */\n    tag_343:\n        /* \"#utility.yul\":2347:2368   */\n      tag_430\n        /* \"#utility.yul\":2362:2367   */\n      dup2\n        /* \"#utility.yul\":2347:2368   */\n      tag_342\n      jump\t// in\n    tag_430:\n        /* \"#utility.yul\":2342:2345   */\n      dup3\n        /* \"#utility.yul\":2335:2369   */\n      mstore\n        /* \"#utility.yul\":2266:2375   */\n      pop\n      pop\n      jump\t// out\n        /* \"#utility.yul\":2381:2591   */\n    tag_62:\n        /* \"#utility.yul\":2468:2472   */\n      0x00\n        /* \"#utility.yul\":2506:2508   */\n      0x20\n        /* \"#utility.yul\":2495:2504   */\n      dup3\n        /* \"#utility.yul\":2491:2509   */\n      add\n        /* \"#utility.yul\":2483:2509   */\n      swap1\n      pop\n        /* \"#utility.yul\":2519:2584   */\n      tag_432\n        /* \"#utility.yul\":2581:2582   */\n      0x00\n        /* \"#utility.yul\":2570:2579   */\n      dup4\n        /* \"#utility.yul\":2566:2583   */\n      add\n        /* \"#utility.yul\":2557:2563   */\n      dup5\n        /* \"#utility.yul\":2519:2584   */\n      tag_343\n      jump\t// in\n    tag_432:\n        /* \"#utility.yul\":2381:2591   */\n      swap3\n      swap2\n      pop\n      pop\n      jump\t// out\n        /* \"#utility.yul\":2597:2929   */\n    tag_68:\n        /* \"#utility.yul\":2718:2722   */\n      0x00\n        /* \"#utility.yul\":2756:2758   */\n      0x40\n        /* \"#utility.yul\":2745:2754   */\n      dup3\n        /* \"#utility.yul\":2741:2759   */\n      add\n        /* \"#utility.yul\":2733:2759   */\n      swap1\n      pop\n        /* \"#utility.yul\":2769:2840   */\n      tag_434\n        /* \"#utility.yul\":2837:2838   */\n      0x00\n        /* \"#utility.yul\":2826:2835   */\n      dup4\n        /* \"#utility.yul\":2822:2839   */\n      add\n        /* \"#utility.yul\":2813:2819   */\n      dup6\n        /* \"#utility.yul\":2769:2840   */\n      tag_334\n      jump\t// in\n    tag_434:\n        /* \"#utility.yul\":2850:2922   */\n      tag_435\n        /* \"#utility.yul\":2918:2920   */\n      0x20\n        /* \"#utility.yul\":2907:2916   */\n      dup4\n        /* \"#utility.yul\":2903:2921   */\n      add\n        /* \"#utility.yul\":2894:2900   */\n      dup5\n        /* \"#utility.yul\":2850:2922   */\n      tag_334\n      jump\t// in\n    tag_435:\n        /* \"#utility.yul\":2597:2929   */\n      swap4\n      swap3\n      pop\n      pop\n      pop\n      jump\t// out\n        /* \"#utility.yul\":2935:3057   */\n    tag_344:\n        /* \"#utility.yul\":3008:3032   */\n      tag_437\n        /* \"#utility.yul\":3026:3031   */\n      dup2\n        /* \"#utility.yul\":3008:3032   */\n      tag_333\n      jump\t// in\n    tag_437:\n        /* \"#utility.yul\":3001:3006   */\n      dup2\n        /* \"#utility.yul\":2998:3033   */\n      eq\n        /* \"#utility.yul\":2988:3051   */\n      tag_438\n      jumpi\n        /* \"#utility.yul\":3047:3048   */\n      0x00\n        /* \"#utility.yul\":3044:3045   */\n      dup1\n        /* \"#utility.yul\":3037:3049   */\n      revert\n        /* \"#utility.yul\":2988:3051   */\n    tag_438:\n        /* \"#utility.yul\":2935:3057   */\n      pop\n      jump\t// out\n        /* \"#utility.yul\":3063:3202   */\n    tag_345:\n        /* \"#utility.yul\":3109:3114   */\n      0x00\n        /* \"#utility.yul\":3147:3153   */\n      dup2\n        /* \"#utility.yul\":3134:3154   */\n      calldataload\n        /* \"#utility.yul\":3125:3154   */\n      swap1\n      pop\n        /* \"#utility.yul\":3163:3196   */\n      tag_440\n        /* \"#utility.yul\":3190:3195   */\n      dup2\n        /* \"#utility.yul\":3163:3196   */\n      tag_344\n      jump\t// in\n    tag_440:\n        /* \"#utility.yul\":3063:3202   */\n      swap3\n      swap2\n      pop\n      pop\n      jump\t// out\n        /* \"#utility.yul\":3208:3537   */\n    tag_72:\n        /* \"#utility.yul\":3267:3273   */\n      0x00\n        /* \"#utility.yul\":3316:3318   */\n      0x20\n        /* \"#utility.yul\":3304:3313   */\n      dup3\n        /* \"#utility.yul\":3295:3302   */\n      dup5\n        /* \"#utility.yul\":3291:3314   */\n      sub\n        /* \"#utility.yul\":3287:3319   */\n      slt\n        /* \"#utility.yul\":3284:3403   */\n      iszero\n      tag_442\n      jumpi\n        /* \"#utility.yul\":3322:3401   */\n      tag_443\n      tag_336\n      jump\t// in\n    tag_443:\n        /* \"#utility.yul\":3284:3403   */\n    tag_442:\n        /* \"#utility.yul\":3442:3443   */\n      0x00\n        /* \"#utility.yul\":3467:3520   */\n      tag_444\n        /* \"#utility.yul\":3512:3519   */\n      dup5\n        /* \"#utility.yul\":3503:3509   */\n      dup3\n        /* \"#utility.yul\":3492:3501   */\n      dup6\n        /* \"#utility.yul\":3488:3510   */\n      add\n        /* \"#utility.yul\":3467:3520   */\n      tag_345\n      jump\t// in\n    tag_444:\n        /* \"#utility.yul\":3457:3520   */\n      swap2\n      pop\n        /* \"#utility.yul\":3413:3530   */\n      pop\n        /* \"#utility.yul\":3208:3537   */\n      swap3\n      swap2\n      pop\n      pop\n      jump\t// out\n        /* \"#utility.yul\":3543:4405   */\n    tag_85:\n        /* \"#utility.yul\":3792:3796   */\n      0x00\n        /* \"#utility.yul\":3830:3833   */\n      0xe0\n        /* \"#utility.yul\":3819:3828   */\n      dup3\n        /* \"#utility.yul\":3815:3834   */\n      add\n        /* \"#utility.yul\":3807:3834   */\n      swap1\n      pop\n        /* \"#utility.yul\":3844:3915   */\n      tag_446\n        /* \"#utility.yul\":3912:3913   */\n      0x00\n        /* \"#utility.yul\":3901:3910   */\n      dup4\n        /* \"#utility.yul\":3897:3914   */\n      add\n        /* \"#utility.yul\":3888:3894   */\n      dup11\n        /* \"#utility.yul\":3844:3915   */\n      tag_334\n      jump\t// in\n    tag_446:\n        /* \"#utility.yul\":3925:3997   */\n      tag_447\n        /* \"#utility.yul\":3993:3995   */\n      0x20\n        /* \"#utility.yul\":3982:3991   */\n      dup4\n        /* \"#utility.yul\":3978:3996   */\n      add\n        /* \"#utility.yul\":3969:3975   */\n      dup10\n        /* \"#utility.yul\":3925:3997   */\n      tag_334\n      jump\t// in\n    tag_447:\n        /* \"#utility.yul\":4007:4079   */\n      tag_448\n        /* \"#utility.yul\":4075:4077   */\n      0x40\n        /* \"#utility.yul\":4064:4073   */\n      dup4\n        /* \"#utility.yul\":4060:4078   */\n      add\n        /* \"#utility.yul\":4051:4057   */\n      dup9\n        /* \"#utility.yul\":4007:4079   */\n      tag_334\n      jump\t// in\n    tag_448:\n        /* \"#utility.yul\":4089:4161   */\n      tag_449\n        /* \"#utility.yul\":4157:4159   */\n      0x60\n        /* \"#utility.yul\":4146:4155   */\n      dup4\n        /* \"#utility.yul\":4142:4160   */\n      add\n        /* \"#utility.yul\":4133:4139   */\n      dup8\n        /* \"#utility.yul\":4089:4161   */\n      tag_334\n      jump\t// in\n    tag_449:\n        /* \"#utility.yul\":4171:4244   */\n      tag_450\n        /* \"#utility.yul\":4239:4242   */\n      0x80\n        /* \"#utility.yul\":4228:4237   */\n      dup4\n        /* \"#utility.yul\":4224:4243   */\n      add\n        /* \"#utility.yul\":4215:4221   */\n      dup7\n        /* \"#utility.yul\":4171:4244   */\n      tag_334\n      jump\t// in\n    tag_450:\n        /* \"#utility.yul\":4254:4321   */\n      tag_451\n        /* \"#utility.yul\":4316:4319   */\n      0xa0\n        /* \"#utility.yul\":4305:4314   */\n      dup4\n        /* \"#utility.yul\":4301:4320   */\n      add\n        /* \"#utility.yul\":4292:4298   */\n      dup6\n        /* \"#utility.yul\":4254:4321   */\n      tag_343\n      jump\t// in\n    tag_451:\n        /* \"#utility.yul\":4331:4398   */\n      tag_452\n        /* \"#utility.yul\":4393:4396   */\n      0xc0\n        /* \"#utility.yul\":4382:4391   */\n      dup4\n        /* \"#utility.yul\":4378:4397   */\n      add\n        /* \"#utility.yul\":4369:4375   */\n      dup5\n        /* \"#utility.yul\":4331:4398   */\n      tag_343\n      jump\t// in\n    tag_452:\n        /* \"#utility.yul\":3543:4405   */\n      swap9\n      swap8\n      pop\n      pop\n      pop\n      pop\n      pop\n      pop\n      pop\n      pop\n      jump\t// out\n        /* \"#utility.yul\":4411:4529   */\n    tag_346:\n        /* \"#utility.yul\":4498:4522   */\n      tag_454\n        /* \"#utility.yul\":4516:4521   */\n      dup2\n        /* \"#utility.yul\":4498:4522   */\n      tag_339\n      jump\t// in\n    tag_454:\n        /* \"#utility.yul\":4493:4496   */\n      dup3\n        /* \"#utility.yul\":4486:4523   */\n      mstore\n        /* \"#utility.yul\":4411:4529   */\n      pop\n      pop\n      jump\t// out\n        /* \"#utility.yul\":4535:4757   */\n    tag_103:\n        /* \"#utility.yul\":4628:4632   */\n      0x00\n        /* \"#utility.yul\":4666:4668   */\n      0x20\n        /* \"#utility.yul\":4655:4664   */\n      dup3\n        /* \"#utility.yul\":4651:4669   */\n      add\n        /* \"#utility.yul\":4643:4669   */\n      swap1\n      pop\n        /* \"#utility.yul\":4679:4750   */\n      tag_456\n        /* \"#utility.yul\":4747:4748   */\n      0x00\n        /* \"#utility.yul\":4736:4745   */\n      dup4\n        /* \"#utility.yul\":4732:4749   */\n      add\n        /* \"#utility.yul\":4723:4729   */\n      dup5\n        /* \"#utility.yul\":4679:4750   */\n      tag_346\n      jump\t// in\n    tag_456:\n        /* \"#utility.yul\":4535:4757   */\n      swap3\n      swap2\n      pop\n      pop\n      jump\t// out\n        /* \"#utility.yul\":4763:4879   */\n    tag_347:\n        /* \"#utility.yul\":4833:4854   */\n      tag_458\n        /* \"#utility.yul\":4848:4853   */\n      dup2\n        /* \"#utility.yul\":4833:4854   */\n      tag_342\n      jump\t// in\n    tag_458:\n        /* \"#utility.yul\":4826:4831   */\n      dup2\n        /* \"#utility.yul\":4823:4855   */\n      eq\n        /* \"#utility.yul\":4813:4873   */\n      tag_459\n      jumpi\n        /* \"#utility.yul\":4869:4870   */\n      0x00\n        /* \"#utility.yul\":4866:4867   */\n      dup1\n        /* \"#utility.yul\":4859:4871   */\n      revert\n        /* \"#utility.yul\":4813:4873   */\n    tag_459:\n        /* \"#utility.yul\":4763:4879   */\n      pop\n      jump\t// out\n        /* \"#utility.yul\":4885:5018   */\n    tag_348:\n        /* \"#utility.yul\":4928:4933   */\n      0x00\n        /* \"#utility.yul\":4966:4972   */\n      dup2\n        /* \"#utility.yul\":4953:4973   */\n      calldataload\n        /* \"#utility.yul\":4944:4973   */\n      swap1\n      pop\n        /* \"#utility.yul\":4982:5012   */\n      tag_461\n        /* \"#utility.yul\":5006:5011   */\n      dup2\n        /* \"#utility.yul\":4982:5012   */\n      tag_347\n      jump\t// in\n    tag_461:\n        /* \"#utility.yul\":4885:5018   */\n      swap3\n      swap2\n      pop\n      pop\n      jump\t// out\n        /* \"#utility.yul\":5024:5347   */\n    tag_115:\n        /* \"#utility.yul\":5080:5086   */\n      0x00\n        /* \"#utility.yul\":5129:5131   */\n      0x20\n        /* \"#utility.yul\":5117:5126   */\n      dup3\n        /* \"#utility.yul\":5108:5115   */\n      dup5\n        /* \"#utility.yul\":5104:5127   */\n      sub\n        /* \"#utility.yul\":5100:5132   */\n      slt\n        /* \"#utility.yul\":5097:5216   */\n      iszero\n      tag_463\n      jumpi\n        /* \"#utility.yul\":5135:5214   */\n      tag_464\n      tag_336\n      jump\t// in\n    tag_464:\n        /* \"#utility.yul\":5097:5216   */\n    tag_463:\n        /* \"#utility.yul\":5255:5256   */\n      0x00\n        /* \"#utility.yul\":5280:5330   */\n      tag_465\n        /* \"#utility.yul\":5322:5329   */\n      dup5\n        /* \"#utility.yul\":5313:5319   */\n      dup3\n        /* \"#utility.yul\":5302:5311   */\n      dup6\n        /* \"#utility.yul\":5298:5320   */\n      add\n        /* \"#utility.yul\":5280:5330   */\n      tag_348\n      jump\t// in\n    tag_465:\n        /* \"#utility.yul\":5270:5330   */\n      swap2\n      pop\n        /* \"#utility.yul\":5226:5340   */\n      pop\n        /* \"#utility.yul\":5024:5347   */\n      swap3\n      swap2\n      pop\n      pop\n      jump\t// out\n        /* \"#utility.yul\":5353:5827   */\n    tag_120:\n        /* \"#utility.yul\":5421:5427   */\n      0x00\n        /* \"#utility.yul\":5429:5435   */\n      dup1\n        /* \"#utility.yul\":5478:5480   */\n      0x40\n        /* \"#utility.yul\":5466:5475   */\n      dup4\n        /* \"#utility.yul\":5457:5464   */\n      dup6\n        /* \"#utility.yul\":5453:5476   */\n      sub\n        /* \"#utility.yul\":5449:5481   */\n      slt\n        /* \"#utility.yul\":5446:5565   */\n      iszero\n      tag_467\n      jumpi\n        /* \"#utility.yul\":5484:5563   */\n      tag_468\n      tag_336\n      jump\t// in\n    tag_468:\n        /* \"#utility.yul\":5446:5565   */\n    tag_467:\n        /* \"#utility.yul\":5604:5605   */\n      0x00\n        /* \"#utility.yul\":5629:5682   */\n      tag_469\n        /* \"#utility.yul\":5674:5681   */\n      dup6\n        /* \"#utility.yul\":5665:5671   */\n      dup3\n        /* \"#utility.yul\":5654:5663   */\n      dup7\n        /* \"#utility.yul\":5650:5672   */\n      add\n        /* \"#utility.yul\":5629:5682   */\n      tag_345\n      jump\t// in\n    tag_469:\n        /* \"#utility.yul\":5619:5682   */\n      swap3\n      pop\n        /* \"#utility.yul\":5575:5692   */\n      pop\n        /* \"#utility.yul\":5731:5733   */\n      0x20\n        /* \"#utility.yul\":5757:5810   */\n      tag_470\n        /* \"#utility.yul\":5802:5809   */\n      dup6\n        /* \"#utility.yul\":5793:5799   */\n      dup3\n        /* \"#utility.yul\":5782:5791   */\n      dup7\n        /* \"#utility.yul\":5778:5800   */\n      add\n        /* \"#utility.yul\":5757:5810   */\n      tag_345\n      jump\t// in\n    tag_470:\n        /* \"#utility.yul\":5747:5810   */\n      swap2\n      pop\n        /* \"#utility.yul\":5702:5820   */\n      pop\n        /* \"#utility.yul\":5353:5827   */\n      swap3\n      pop\n      swap3\n      swap1\n      pop\n      jump\t// out\n        /* \"#utility.yul\":5833:5893   */\n    tag_349:\n        /* \"#utility.yul\":5861:5864   */\n      0x00\n        /* \"#utility.yul\":5882:5887   */\n      dup2\n        /* \"#utility.yul\":5875:5887   */\n      swap1\n      pop\n        /* \"#utility.yul\":5833:5893   */\n      swap2\n      swap1\n      pop\n      jump\t// out\n        /* \"#utility.yul\":5899:6041   */\n    tag_350:\n        /* \"#utility.yul\":5949:5958   */\n      0x00\n        /* \"#utility.yul\":5982:6035   */\n      tag_473\n        /* \"#utility.yul\":6000:6034   */\n      tag_474\n        /* \"#utility.yul\":6009:6033   */\n      tag_475\n        /* \"#utility.yul\":6027:6032   */\n      dup5\n        /* \"#utility.yul\":6009:6033   */\n      tag_338\n      jump\t// in\n    tag_475:\n        /* \"#utility.yul\":6000:6034   */\n      tag_349\n      jump\t// in\n    tag_474:\n        /* \"#utility.yul\":5982:6035   */\n      tag_338\n      jump\t// in\n    tag_473:\n        /* \"#utility.yul\":5969:6035   */\n      swap1\n      pop\n        /* \"#utility.yul\":5899:6041   */\n      swap2\n      swap1\n      pop\n      jump\t// out\n        /* \"#utility.yul\":6047:6173   */\n    tag_351:\n        /* \"#utility.yul\":6097:6106   */\n      0x00\n        /* \"#utility.yul\":6130:6167   */\n      tag_477\n        /* \"#utility.yul\":6161:6166   */\n      dup3\n        /* \"#utility.yul\":6130:6167   */\n      tag_350\n      jump\t// in\n    tag_477:\n        /* \"#utility.yul\":6117:6167   */\n      swap1\n      pop\n        /* \"#utility.yul\":6047:6173   */\n      swap2\n      swap1\n      pop\n      jump\t// out\n        /* \"#utility.yul\":6179:6319   */\n    tag_352:\n        /* \"#utility.yul\":6243:6252   */\n      0x00\n        /* \"#utility.yul\":6276:6313   */\n      tag_479\n        /* \"#utility.yul\":6307:6312   */\n      dup3\n        /* \"#utility.yul\":6276:6313   */\n      tag_351\n      jump\t// in\n    tag_479:\n        /* \"#utility.yul\":6263:6313   */\n      swap1\n      pop\n        /* \"#utility.yul\":6179:6319   */\n      swap2\n      swap1\n      pop\n      jump\t// out\n        /* \"#utility.yul\":6325:6484   */\n    tag_353:\n        /* \"#utility.yul\":6426:6477   */\n      tag_481\n        /* \"#utility.yul\":6471:6476   */\n      dup2\n        /* \"#utility.yul\":6426:6477   */\n      tag_352\n      jump\t// in\n    tag_481:\n        /* \"#utility.yul\":6421:6424   */\n      dup3\n        /* \"#utility.yul\":6414:6478   */\n      mstore\n        /* \"#utility.yul\":6325:6484   */\n      pop\n      pop\n      jump\t// out\n        /* \"#utility.yul\":6490:6740   */\n    tag_134:\n        /* \"#utility.yul\":6597:6601   */\n      0x00\n        /* \"#utility.yul\":6635:6637   */\n      0x20\n        /* \"#utility.yul\":6624:6633   */\n      dup3\n        /* \"#utility.yul\":6620:6638   */\n      add\n        /* \"#utility.yul\":6612:6638   */\n      swap1\n      pop\n        /* \"#utility.yul\":6648:6733   */\n      tag_483\n        /* \"#utility.yul\":6730:6731   */\n      0x00\n        /* \"#utility.yul\":6719:6728   */\n      dup4\n        /* \"#utility.yul\":6715:6732   */\n      add\n        /* \"#utility.yul\":6706:6712   */\n      dup5\n        /* \"#utility.yul\":6648:6733   */\n      tag_353\n      jump\t// in\n    tag_483:\n        /* \"#utility.yul\":6490:6740   */\n      swap3\n      swap2\n      pop\n      pop\n      jump\t// out\n        /* \"#utility.yul\":6746:6915   */\n    tag_354:\n        /* \"#utility.yul\":6830:6841   */\n      0x00\n        /* \"#utility.yul\":6864:6870   */\n      dup3\n        /* \"#utility.yul\":6859:6862   */\n      dup3\n        /* \"#utility.yul\":6852:6871   */\n      mstore\n        /* \"#utility.yul\":6904:6908   */\n      0x20\n        /* \"#utility.yul\":6899:6902   */\n      dup3\n        /* \"#utility.yul\":6895:6909   */\n      add\n        /* \"#utility.yul\":6880:6909   */\n      swap1\n      pop\n        /* \"#utility.yul\":6746:6915   */\n      swap3\n      swap2\n      pop\n      pop\n      jump\t// out\n        /* \"#utility.yul\":6921:7090   */\n    tag_355:\n        /* \"#utility.yul\":7061:7082   */\n      0x50726573616c65206e6f74207374617274656400000000000000000000000000\n        /* \"#utility.yul\":7057:7058   */\n      0x00\n        /* \"#utility.yul\":7049:7055   */\n      dup3\n        /* \"#utility.yul\":7045:7059   */\n      add\n        /* \"#utility.yul\":7038:7083   */\n      mstore\n        /* \"#utility.yul\":6921:7090   */\n      pop\n      jump\t// out\n        /* \"#utility.yul\":7096:7462   */\n    tag_356:\n        /* \"#utility.yul\":7238:7241   */\n      0x00\n        /* \"#utility.yul\":7259:7326   */\n      tag_487\n        /* \"#utility.yul\":7323:7325   */\n      0x13\n        /* \"#utility.yul\":7318:7321   */\n      dup4\n        /* \"#utility.yul\":7259:7326   */\n      tag_354\n      jump\t// in\n    tag_487:\n        /* \"#utility.yul\":7252:7326   */\n      swap2\n      pop\n        /* \"#utility.yul\":7335:7428   */\n      tag_488\n        /* \"#utility.yul\":7424:7427   */\n      dup3\n        /* \"#utility.yul\":7335:7428   */\n      tag_355\n      jump\t// in\n    tag_488:\n        /* \"#utility.yul\":7453:7455   */\n      0x20\n        /* \"#utility.yul\":7448:7451   */\n      dup3\n        /* \"#utility.yul\":7444:7456   */\n      add\n        /* \"#utility.yul\":7437:7456   */\n      swap1\n      pop\n        /* \"#utility.yul\":7096:7462   */\n      swap2\n      swap1\n      pop\n      jump\t// out\n        /* \"#utility.yul\":7468:7887   */\n    tag_138:\n        /* \"#utility.yul\":7634:7638   */\n      0x00\n        /* \"#utility.yul\":7672:7674   */\n      0x20\n        /* \"#utility.yul\":7661:7670   */\n      dup3\n        /* \"#utility.yul\":7657:7675   */\n      add\n        /* \"#utility.yul\":7649:7675   */\n      swap1\n      pop\n        /* \"#utility.yul\":7721:7730   */\n      dup2\n        /* \"#utility.yul\":7715:7719   */\n      dup2\n        /* \"#utility.yul\":7711:7731   */\n      sub\n        /* \"#utility.yul\":7707:7708   */\n      0x00\n        /* \"#utility.yul\":7696:7705   */\n      dup4\n        /* \"#utility.yul\":7692:7709   */\n      add\n        /* \"#utility.yul\":7685:7732   */\n      mstore\n        /* \"#utility.yul\":7749:7880   */\n      tag_490\n        /* \"#utility.yul\":7875:7879   */\n      dup2\n        /* \"#utility.yul\":7749:7880   */\n      tag_356\n      jump\t// in\n    tag_490:\n        /* \"#utility.yul\":7741:7880   */\n      swap1\n      pop\n        /* \"#utility.yul\":7468:7887   */\n      swap2\n      swap1\n      pop\n      jump\t// out\n        /* \"#utility.yul\":7893:8056   */\n    tag_357:\n        /* \"#utility.yul\":8033:8048   */\n      0x50726573616c6520656e64656400000000000000000000000000000000000000\n        /* \"#utility.yul\":8029:8030   */\n      0x00\n        /* \"#utility.yul\":8021:8027   */\n      dup3\n        /* \"#utility.yul\":8017:8031   */\n      add\n        /* \"#utility.yul\":8010:8049   */\n      mstore\n        /* \"#utility.yul\":7893:8056   */\n      pop\n      jump\t// out\n        /* \"#utility.yul\":8062:8428   */\n    tag_358:\n        /* \"#utility.yul\":8204:8207   */\n      0x00\n        /* \"#utility.yul\":8225:8292   */\n      tag_493\n        /* \"#utility.yul\":8289:8291   */\n      0x0d\n        /* \"#utility.yul\":8284:8287   */\n      dup4\n        /* \"#utility.yul\":8225:8292   */\n      tag_354\n      jump\t// in\n    tag_493:\n        /* \"#utility.yul\":8218:8292   */\n      swap2\n      pop\n        /* \"#utility.yul\":8301:8394   */\n      tag_494\n        /* \"#utility.yul\":8390:8393   */\n      dup3\n        /* \"#utility.yul\":8301:8394   */\n      tag_357\n      jump\t// in\n    tag_494:\n        /* \"#utility.yul\":8419:8421   */\n      0x20\n        /* \"#utility.yul\":8414:8417   */\n      dup3\n        /* \"#utility.yul\":8410:8422   */\n      add\n        /* \"#utility.yul\":8403:8422   */\n      swap1\n      pop\n        /* \"#utility.yul\":8062:8428   */\n      swap2\n      swap1\n      pop\n      jump\t// out\n        /* \"#utility.yul\":8434:8853   */\n    tag_141:\n        /* \"#utility.yul\":8600:8604   */\n      0x00\n        /* \"#utility.yul\":8638:8640   */\n      0x20\n        /* \"#utility.yul\":8627:8636   */\n      dup3\n        /* \"#utility.yul\":8623:8641   */\n      add\n        /* \"#utility.yul\":8615:8641   */\n      swap1\n      pop\n        /* \"#utility.yul\":8687:8696   */\n      dup2\n        /* \"#utility.yul\":8681:8685   */\n      dup2\n        /* \"#utility.yul\":8677:8697   */\n      sub\n        /* \"#utility.yul\":8673:8674   */\n      0x00\n        /* \"#utility.yul\":8662:8671   */\n      dup4\n        /* \"#utility.yul\":8658:8675   */\n      add\n        /* \"#utility.yul\":8651:8698   */\n      mstore\n        /* \"#utility.yul\":8715:8846   */\n      tag_496\n        /* \"#utility.yul\":8841:8845   */\n      dup2\n        /* \"#utility.yul\":8715:8846   */\n      tag_358\n      jump\t// in\n    tag_496:\n        /* \"#utility.yul\":8707:8846   */\n      swap1\n      pop\n        /* \"#utility.yul\":8434:8853   */\n      swap2\n      swap1\n      pop\n      jump\t// out\n        /* \"#utility.yul\":8859:9023   */\n    tag_359:\n        /* \"#utility.yul\":8999:9015   */\n      0x50726573616c6520706175736564000000000000000000000000000000000000\n        /* \"#utility.yul\":8995:8996   */\n      0x00\n        /* \"#utility.yul\":8987:8993   */\n      dup3\n        /* \"#utility.yul\":8983:8997   */\n      add\n        /* \"#utility.yul\":8976:9016   */\n      mstore\n        /* \"#utility.yul\":8859:9023   */\n      pop\n      jump\t// out\n        /* \"#utility.yul\":9029:9395   */\n    tag_360:\n        /* \"#utility.yul\":9171:9174   */\n      0x00\n        /* \"#utility.yul\":9192:9259   */\n      tag_499\n        /* \"#utility.yul\":9256:9258   */\n      0x0e\n        /* \"#utility.yul\":9251:9254   */\n      dup4\n        /* \"#utility.yul\":9192:9259   */\n      tag_354\n      jump\t// in\n    tag_499:\n        /* \"#utility.yul\":9185:9259   */\n      swap2\n      pop\n        /* \"#utility.yul\":9268:9361   */\n      tag_500\n        /* \"#utility.yul\":9357:9360   */\n      dup3\n        /* \"#utility.yul\":9268:9361   */\n      tag_359\n      jump\t// in\n    tag_500:\n        /* \"#utility.yul\":9386:9388   */\n      0x20\n        /* \"#utility.yul\":9381:9384   */\n      dup3\n        /* \"#utility.yul\":9377:9389   */\n      add\n        /* \"#utility.yul\":9370:9389   */\n      swap1\n      pop\n        /* \"#utility.yul\":9029:9395   */\n      swap2\n      swap1\n      pop\n      jump\t// out\n        /* \"#utility.yul\":9401:9820   */\n    tag_145:\n        /* \"#utility.yul\":9567:9571   */\n      0x00\n        /* \"#utility.yul\":9605:9607   */\n      0x20\n        /* \"#utility.yul\":9594:9603   */\n      dup3\n        /* \"#utility.yul\":9590:9608   */\n      add\n        /* \"#utility.yul\":9582:9608   */\n      swap1\n      pop\n        /* \"#utility.yul\":9654:9663   */\n      dup2\n        /* \"#utility.yul\":9648:9652   */\n      dup2\n        /* \"#utility.yul\":9644:9664   */\n      sub\n        /* \"#utility.yul\":9640:9641   */\n      0x00\n        /* \"#utility.yul\":9629:9638   */\n      dup4\n        /* \"#utility.yul\":9625:9642   */\n      add\n        /* \"#utility.yul\":9618:9665   */\n      mstore\n        /* \"#utility.yul\":9682:9813   */\n      tag_502\n        /* \"#utility.yul\":9808:9812   */\n      dup2\n        /* \"#utility.yul\":9682:9813   */\n      tag_360\n      jump\t// in\n    tag_502:\n        /* \"#utility.yul\":9674:9813   */\n      swap1\n      pop\n        /* \"#utility.yul\":9401:9820   */\n      swap2\n      swap1\n      pop\n      jump\t// out\n        /* \"#utility.yul\":9826:9992   */\n    tag_361:\n        /* \"#utility.yul\":9966:9984   */\n      0x4861726420636170207265616368656400000000000000000000000000000000\n        /* \"#utility.yul\":9962:9963   */\n      0x00\n        /* \"#utility.yul\":9954:9960   */\n      dup3\n        /* \"#utility.yul\":9950:9964   */\n      add\n        /* \"#utility.yul\":9943:9985   */\n      mstore\n        /* \"#utility.yul\":9826:9992   */\n      pop\n      jump\t// out\n        /* \"#utility.yul\":9998:10364   */\n    tag_362:\n        /* \"#utility.yul\":10140:10143   */\n      0x00\n        /* \"#utility.yul\":10161:10228   */\n      tag_505\n        /* \"#utility.yul\":10225:10227   */\n      0x10\n        /* \"#utility.yul\":10220:10223   */\n      dup4\n        /* \"#utility.yul\":10161:10228   */\n      tag_354\n      jump\t// in\n    tag_505:\n        /* \"#utility.yul\":10154:10228   */\n      swap2\n      pop\n        /* \"#utility.yul\":10237:10330   */\n      tag_506\n        /* \"#utility.yul\":10326:10329   */\n      dup3\n        /* \"#utility.yul\":10237:10330   */\n      tag_361\n      jump\t// in\n    tag_506:\n        /* \"#utility.yul\":10355:10357   */\n      0x20\n        /* \"#utility.yul\":10350:10353   */\n      dup3\n        /* \"#utility.yul\":10346:10358   */\n      add\n        /* \"#utility.yul\":10339:10358   */\n      swap1\n      pop\n        /* \"#utility.yul\":9998:10364   */\n      swap2\n      swap1\n      pop\n      jump\t// out\n        /* \"#utility.yul\":10370:10789   */\n    tag_148:\n        /* \"#utility.yul\":10536:10540   */\n      0x00\n        /* \"#utility.yul\":10574:10576   */\n      0x20\n        /* \"#utility.yul\":10563:10572   */\n      dup3\n        /* \"#utility.yul\":10559:10577   */\n      add\n        /* \"#utility.yul\":10551:10577   */\n      swap1\n      pop\n        /* \"#utility.yul\":10623:10632   */\n      dup2\n        /* \"#utility.yul\":10617:10621   */\n      dup2\n        /* \"#utility.yul\":10613:10633   */\n      sub\n        /* \"#utility.yul\":10609:10610   */\n      0x00\n        /* \"#utility.yul\":10598:10607   */\n      dup4\n        /* \"#utility.yul\":10594:10611   */\n      add\n        /* \"#utility.yul\":10587:10634   */\n      mstore\n        /* \"#utility.yul\":10651:10782   */\n      tag_508\n        /* \"#utility.yul\":10777:10781   */\n      dup2\n        /* \"#utility.yul\":10651:10782   */\n      tag_362\n      jump\t// in\n    tag_508:\n        /* \"#utility.yul\":10643:10782   */\n      swap1\n      pop\n        /* \"#utility.yul\":10370:10789   */\n      swap2\n      swap1\n      pop\n      jump\t// out\n        /* \"#utility.yul\":10795:10974   */\n    tag_363:\n        /* \"#utility.yul\":10935:10966   */\n      0x416d6f756e74206d7573742062652067726561746572207468616e2030000000\n        /* \"#utility.yul\":10931:10932   */\n      0x00\n        /* \"#utility.yul\":10923:10929   */\n      dup3\n        /* \"#utility.yul\":10919:10933   */\n      add\n        /* \"#utility.yul\":10912:10967   */\n      mstore\n        /* \"#utility.yul\":10795:10974   */\n      pop\n      jump\t// out\n        /* \"#utility.yul\":10980:11346   */\n    tag_364:\n        /* \"#utility.yul\":11122:11125   */\n      0x00\n        /* \"#utility.yul\":11143:11210   */\n      tag_511\n        /* \"#utility.yul\":11207:11209   */\n      0x1d\n        /* \"#utility.yul\":11202:11205   */\n      dup4\n        /* \"#utility.yul\":11143:11210   */\n      tag_354\n      jump\t// in\n    tag_511:\n        /* \"#utility.yul\":11136:11210   */\n      swap2\n      pop\n        /* \"#utility.yul\":11219:11312   */\n      tag_512\n        /* \"#utility.yul\":11308:11311   */\n      dup3\n        /* \"#utility.yul\":11219:11312   */\n      tag_363\n      jump\t// in\n    tag_512:\n        /* \"#utility.yul\":11337:11339   */\n      0x20\n        /* \"#utility.yul\":11332:11335   */\n      dup3\n        /* \"#utility.yul\":11328:11340   */\n      add\n        /* \"#utility.yul\":11321:11340   */\n      swap1\n      pop\n        /* \"#utility.yul\":10980:11346   */\n      swap2\n      swap1\n      pop\n      jump\t// out\n        /* \"#utility.yul\":11352:11771   */\n    tag_155:\n        /* \"#utility.yul\":11518:11522   */\n      0x00\n        /* \"#utility.yul\":11556:11558   */\n      0x20\n        /* \"#utility.yul\":11545:11554   */\n      dup3\n        /* \"#utility.yul\":11541:11559   */\n      add\n        /* \"#utility.yul\":11533:11559   */\n      swap1\n      pop\n        /* \"#utility.yul\":11605:11614   */\n      dup2\n        /* \"#utility.yul\":11599:11603   */\n      dup2\n        /* \"#utility.yul\":11595:11615   */\n      sub\n        /* \"#utility.yul\":11591:11592   */\n      0x00\n        /* \"#utility.yul\":11580:11589   */\n      dup4\n        /* \"#utility.yul\":11576:11593   */\n      add\n        /* \"#utility.yul\":11569:11616   */\n      mstore\n        /* \"#utility.yul\":11633:11764   */\n      tag_514\n        /* \"#utility.yul\":11759:11763   */\n      dup2\n        /* \"#utility.yul\":11633:11764   */\n      tag_364\n      jump\t// in\n    tag_514:\n        /* \"#utility.yul\":11625:11764   */\n      swap1\n      pop\n        /* \"#utility.yul\":11352:11771   */\n      swap2\n      swap1\n      pop\n      jump\t// out\n        /* \"#utility.yul\":11777:11957   */\n    tag_365:\n        /* \"#utility.yul\":11825:11902   */\n      0x4e487b7100000000000000000000000000000000000000000000000000000000\n        /* \"#utility.yul\":11822:11823   */\n      0x00\n        /* \"#utility.yul\":11815:11903   */\n      mstore\n        /* \"#utility.yul\":11922:11926   */\n      0x11\n        /* \"#utility.yul\":11919:11920   */\n      0x04\n        /* \"#utility.yul\":11912:11927   */\n      mstore\n        /* \"#utility.yul\":11946:11950   */\n      0x24\n        /* \"#utility.yul\":11943:11944   */\n      0x00\n        /* \"#utility.yul\":11936:11951   */\n      revert\n        /* \"#utility.yul\":11963:12154   */\n    tag_157:\n        /* \"#utility.yul\":12003:12006   */\n      0x00\n        /* \"#utility.yul\":12022:12042   */\n      tag_517\n        /* \"#utility.yul\":12040:12041   */\n      dup3\n        /* \"#utility.yul\":12022:12042   */\n      tag_333\n      jump\t// in\n    tag_517:\n        /* \"#utility.yul\":12017:12042   */\n      swap2\n      pop\n        /* \"#utility.yul\":12056:12076   */\n      tag_518\n        /* \"#utility.yul\":12074:12075   */\n      dup4\n        /* \"#utility.yul\":12056:12076   */\n      tag_333\n      jump\t// in\n    tag_518:\n        /* \"#utility.yul\":12051:12076   */\n      swap3\n      pop\n        /* \"#utility.yul\":12099:12100   */\n      dup3\n        /* \"#utility.yul\":12096:12097   */\n      dup3\n        /* \"#utility.yul\":12092:12101   */\n      add\n        /* \"#utility.yul\":12085:12101   */\n      swap1\n      pop\n        /* \"#utility.yul\":12120:12123   */\n      dup1\n        /* \"#utility.yul\":12117:12118   */\n      dup3\n        /* \"#utility.yul\":12114:12124   */\n      gt\n        /* \"#utility.yul\":12111:12147   */\n      iszero\n      tag_519\n      jumpi\n        /* \"#utility.yul\":12127:12145   */\n      tag_520\n      tag_365\n      jump\t// in\n    tag_520:\n        /* \"#utility.yul\":12111:12147   */\n    tag_519:\n        /* \"#utility.yul\":11963:12154   */\n      swap3\n      swap2\n      pop\n      pop\n      jump\t// out\n        /* \"#utility.yul\":12160:12326   */\n    tag_366:\n        /* \"#utility.yul\":12300:12318   */\n      0x4578636565647320686172642063617000000000000000000000000000000000\n        /* \"#utility.yul\":12296:12297   */\n      0x00\n        /* \"#utility.yul\":12288:12294   */\n      dup3\n        /* \"#utility.yul\":12284:12298   */\n      add\n        /* \"#utility.yul\":12277:12319   */\n      mstore\n        /* \"#utility.yul\":12160:12326   */\n      pop\n      jump\t// out\n        /* \"#utility.yul\":12332:12698   */\n    tag_367:\n        /* \"#utility.yul\":12474:12477   */\n      0x00\n        /* \"#utility.yul\":12495:12562   */\n      tag_523\n        /* \"#utility.yul\":12559:12561   */\n      0x10\n        /* \"#utility.yul\":12554:12557   */\n      dup4\n        /* \"#utility.yul\":12495:12562   */\n      tag_354\n      jump\t// in\n    tag_523:\n        /* \"#utility.yul\":12488:12562   */\n      swap2\n      pop\n        /* \"#utility.yul\":12571:12664   */\n      tag_524\n        /* \"#utility.yul\":12660:12663   */\n      dup3\n        /* \"#utility.yul\":12571:12664   */\n      tag_366\n      jump\t// in\n    tag_524:\n        /* \"#utility.yul\":12689:12691   */\n      0x20\n        /* \"#utility.yul\":12684:12687   */\n      dup3\n        /* \"#utility.yul\":12680:12692   */\n      add\n        /* \"#utility.yul\":12673:12692   */\n      swap1\n      pop\n        /* \"#utility.yul\":12332:12698   */\n      swap2\n      swap1\n      pop\n      jump\t// out\n        /* \"#utility.yul\":12704:13123   */\n    tag_160:\n        /* \"#utility.yul\":12870:12874   */\n      0x00\n        /* \"#utility.yul\":12908:12910   */\n      0x20\n        /* \"#utility.yul\":12897:12906   */\n      dup3\n        /* \"#utility.yul\":12893:12911   */\n      add\n        /* \"#utility.yul\":12885:12911   */\n      swap1\n      pop\n        /* \"#utility.yul\":12957:12966   */\n      dup2\n        /* \"#utility.yul\":12951:12955   */\n      dup2\n        /* \"#utility.yul\":12947:12967   */\n      sub\n        /* \"#utility.yul\":12943:12944   */\n      0x00\n        /* \"#utility.yul\":12932:12941   */\n      dup4\n        /* \"#utility.yul\":12928:12945   */\n      add\n        /* \"#utility.yul\":12921:12968   */\n      mstore\n        /* \"#utility.yul\":12985:13116   */\n      tag_526\n        /* \"#utility.yul\":13111:13115   */\n      dup2\n        /* \"#utility.yul\":12985:13116   */\n      tag_367\n      jump\t// in\n    tag_526:\n        /* \"#utility.yul\":12977:13116   */\n      swap1\n      pop\n        /* \"#utility.yul\":12704:13123   */\n      swap2\n      swap1\n      pop\n      jump\t// out\n        /* \"#utility.yul\":13129:13539   */\n    tag_162:\n        /* \"#utility.yul\":13169:13176   */\n      0x00\n        /* \"#utility.yul\":13192:13212   */\n      tag_528\n        /* \"#utility.yul\":13210:13211   */\n      dup3\n        /* \"#utility.yul\":13192:13212   */\n      tag_333\n      jump\t// in\n    tag_528:\n        /* \"#utility.yul\":13187:13212   */\n      swap2\n      pop\n        /* \"#utility.yul\":13226:13246   */\n      tag_529\n        /* \"#utility.yul\":13244:13245   */\n      dup4\n        /* \"#utility.yul\":13226:13246   */\n      tag_333\n      jump\t// in\n    tag_529:\n        /* \"#utility.yul\":13221:13246   */\n      swap3\n      pop\n        /* \"#utility.yul\":13281:13282   */\n      dup3\n        /* \"#utility.yul\":13278:13279   */\n      dup3\n        /* \"#utility.yul\":13274:13283   */\n      mul\n        /* \"#utility.yul\":13303:13333   */\n      tag_530\n        /* \"#utility.yul\":13321:13332   */\n      dup2\n        /* \"#utility.yul\":13303:13333   */\n      tag_333\n      jump\t// in\n    tag_530:\n        /* \"#utility.yul\":13292:13333   */\n      swap2\n      pop\n        /* \"#utility.yul\":13482:13483   */\n      dup3\n        /* \"#utility.yul\":13473:13480   */\n      dup3\n        /* \"#utility.yul\":13469:13484   */\n      div\n        /* \"#utility.yul\":13466:13467   */\n      dup5\n        /* \"#utility.yul\":13463:13485   */\n      eq\n        /* \"#utility.yul\":13443:13444   */\n      dup4\n        /* \"#utility.yul\":13436:13445   */\n      iszero\n        /* \"#utility.yul\":13416:13499   */\n      or\n        /* \"#utility.yul\":13393:13532   */\n      tag_531\n      jumpi\n        /* \"#utility.yul\":13512:13530   */\n      tag_532\n      tag_365\n      jump\t// in\n    tag_532:\n        /* \"#utility.yul\":13393:13532   */\n    tag_531:\n        /* \"#utility.yul\":13177:13539   */\n      pop\n        /* \"#utility.yul\":13129:13539   */\n      swap3\n      swap2\n      pop\n      pop\n      jump\t// out\n        /* \"#utility.yul\":13545:13725   */\n    tag_368:\n        /* \"#utility.yul\":13593:13670   */\n      0x4e487b7100000000000000000000000000000000000000000000000000000000\n        /* \"#utility.yul\":13590:13591   */\n      0x00\n        /* \"#utility.yul\":13583:13671   */\n      mstore\n        /* \"#utility.yul\":13690:13694   */\n      0x12\n        /* \"#utility.yul\":13687:13688   */\n      0x04\n        /* \"#utility.yul\":13680:13695   */\n      mstore\n        /* \"#utility.yul\":13714:13718   */\n      0x24\n        /* \"#utility.yul\":13711:13712   */\n      0x00\n        /* \"#utility.yul\":13704:13719   */\n      revert\n        /* \"#utility.yul\":13731:13916   */\n    tag_164:\n        /* \"#utility.yul\":13771:13772   */\n      0x00\n        /* \"#utility.yul\":13788:13808   */\n      tag_535\n        /* \"#utility.yul\":13806:13807   */\n      dup3\n        /* \"#utility.yul\":13788:13808   */\n      tag_333\n      jump\t// in\n    tag_535:\n        /* \"#utility.yul\":13783:13808   */\n      swap2\n      pop\n        /* \"#utility.yul\":13822:13842   */\n      tag_536\n        /* \"#utility.yul\":13840:13841   */\n      dup4\n        /* \"#utility.yul\":13822:13842   */\n      tag_333\n      jump\t// in\n    tag_536:\n        /* \"#utility.yul\":13817:13842   */\n      swap3\n      pop\n        /* \"#utility.yul\":13861:13862   */\n      dup3\n        /* \"#utility.yul\":13851:13886   */\n      tag_537\n      jumpi\n        /* \"#utility.yul\":13866:13884   */\n      tag_538\n      tag_368\n      jump\t// in\n    tag_538:\n        /* \"#utility.yul\":13851:13886   */\n    tag_537:\n        /* \"#utility.yul\":13908:13909   */\n      dup3\n        /* \"#utility.yul\":13905:13906   */\n      dup3\n        /* \"#utility.yul\":13901:13910   */\n      div\n        /* \"#utility.yul\":13896:13910   */\n      swap1\n      pop\n        /* \"#utility.yul\":13731:13916   */\n      swap3\n      swap2\n      pop\n      pop\n      jump\t// out\n        /* \"#utility.yul\":13922:14092   */\n    tag_369:\n        /* \"#utility.yul\":14062:14084   */\n      0x4e6f20746f6b656e7320746f2072656365697665000000000000000000000000\n        /* \"#utility.yul\":14058:14059   */\n      0x00\n        /* \"#utility.yul\":14050:14056   */\n      dup3\n        /* \"#utility.yul\":14046:14060   */\n      add\n        /* \"#utility.yul\":14039:14085   */\n      mstore\n        /* \"#utility.yul\":13922:14092   */\n      pop\n      jump\t// out\n        /* \"#utility.yul\":14098:14464   */\n    tag_370:\n        /* \"#utility.yul\":14240:14243   */\n      0x00\n        /* \"#utility.yul\":14261:14328   */\n      tag_541\n        /* \"#utility.yul\":14325:14327   */\n      0x14\n        /* \"#utility.yul\":14320:14323   */\n      dup4\n        /* \"#utility.yul\":14261:14328   */\n      tag_354\n      jump\t// in\n    tag_541:\n        /* \"#utility.yul\":14254:14328   */\n      swap2\n      pop\n        /* \"#utility.yul\":14337:14430   */\n      tag_542\n        /* \"#utility.yul\":14426:14429   */\n      dup3\n        /* \"#utility.yul\":14337:14430   */\n      tag_369\n      jump\t// in\n    tag_542:\n        /* \"#utility.yul\":14455:14457   */\n      0x20\n        /* \"#utility.yul\":14450:14453   */\n      dup3\n        /* \"#utility.yul\":14446:14458   */\n      add\n        /* \"#utility.yul\":14439:14458   */\n      swap1\n      pop\n        /* \"#utility.yul\":14098:14464   */\n      swap2\n      swap1\n      pop\n      jump\t// out\n        /* \"#utility.yul\":14470:14889   */\n    tag_167:\n        /* \"#utility.yul\":14636:14640   */\n      0x00\n        /* \"#utility.yul\":14674:14676   */\n      0x20\n        /* \"#utility.yul\":14663:14672   */\n      dup3\n        /* \"#utility.yul\":14659:14677   */\n      add\n        /* \"#utility.yul\":14651:14677   */\n      swap1\n      pop\n        /* \"#utility.yul\":14723:14732   */\n      dup2\n        /* \"#utility.yul\":14717:14721   */\n      dup2\n        /* \"#utility.yul\":14713:14733   */\n      sub\n        /* \"#utility.yul\":14709:14710   */\n      0x00\n        /* \"#utility.yul\":14698:14707   */\n      dup4\n        /* \"#utility.yul\":14694:14711   */\n      add\n        /* \"#utility.yul\":14687:14734   */\n      mstore\n        /* \"#utility.yul\":14751:14882   */\n      tag_544\n        /* \"#utility.yul\":14877:14881   */\n      dup2\n        /* \"#utility.yul\":14751:14882   */\n      tag_370\n      jump\t// in\n    tag_544:\n        /* \"#utility.yul\":14743:14882   */\n      swap1\n      pop\n        /* \"#utility.yul\":14470:14889   */\n      swap2\n      swap1\n      pop\n      jump\t// out\n        /* \"#utility.yul\":14895:15089   */\n    tag_178:\n        /* \"#utility.yul\":14935:14939   */\n      0x00\n        /* \"#utility.yul\":14955:14975   */\n      tag_546\n        /* \"#utility.yul\":14973:14974   */\n      dup3\n        /* \"#utility.yul\":14955:14975   */\n      tag_333\n      jump\t// in\n    tag_546:\n        /* \"#utility.yul\":14950:14975   */\n      swap2\n      pop\n        /* \"#utility.yul\":14989:15009   */\n      tag_547\n        /* \"#utility.yul\":15007:15008   */\n      dup4\n        /* \"#utility.yul\":14989:15009   */\n      tag_333\n      jump\t// in\n    tag_547:\n        /* \"#utility.yul\":14984:15009   */\n      swap3\n      pop\n        /* \"#utility.yul\":15033:15034   */\n      dup3\n        /* \"#utility.yul\":15030:15031   */\n      dup3\n        /* \"#utility.yul\":15026:15035   */\n      sub\n        /* \"#utility.yul\":15018:15035   */\n      swap1\n      pop\n        /* \"#utility.yul\":15057:15058   */\n      dup2\n        /* \"#utility.yul\":15051:15055   */\n      dup2\n        /* \"#utility.yul\":15048:15059   */\n      gt\n        /* \"#utility.yul\":15045:15082   */\n      iszero\n      tag_548\n      jumpi\n        /* \"#utility.yul\":15062:15080   */\n      tag_549\n      tag_365\n      jump\t// in\n    tag_549:\n        /* \"#utility.yul\":15045:15082   */\n    tag_548:\n        /* \"#utility.yul\":14895:15089   */\n      swap3\n      swap2\n      pop\n      pop\n      jump\t// out\n        /* \"#utility.yul\":15095:15262   */\n    tag_371:\n        /* \"#utility.yul\":15235:15254   */\n      0x50726573616c65206e6f7420656e646564000000000000000000000000000000\n        /* \"#utility.yul\":15231:15232   */\n      0x00\n        /* \"#utility.yul\":15223:15229   */\n      dup3\n        /* \"#utility.yul\":15219:15233   */\n      add\n        /* \"#utility.yul\":15212:15255   */\n      mstore\n        /* \"#utility.yul\":15095:15262   */\n      pop\n      jump\t// out\n        /* \"#utility.yul\":15268:15634   */\n    tag_372:\n        /* \"#utility.yul\":15410:15413   */\n      0x00\n        /* \"#utility.yul\":15431:15498   */\n      tag_552\n        /* \"#utility.yul\":15495:15497   */\n      0x11\n        /* \"#utility.yul\":15490:15493   */\n      dup4\n        /* \"#utility.yul\":15431:15498   */\n      tag_354\n      jump\t// in\n    tag_552:\n        /* \"#utility.yul\":15424:15498   */\n      swap2\n      pop\n        /* \"#utility.yul\":15507:15600   */\n      tag_553\n        /* \"#utility.yul\":15596:15599   */\n      dup3\n        /* \"#utility.yul\":15507:15600   */\n      tag_371\n      jump\t// in\n    tag_553:\n        /* \"#utility.yul\":15625:15627   */\n      0x20\n        /* \"#utility.yul\":15620:15623   */\n      dup3\n        /* \"#utility.yul\":15616:15628   */\n      add\n        /* \"#utility.yul\":15609:15628   */\n      swap1\n      pop\n        /* \"#utility.yul\":15268:15634   */\n      swap2\n      swap1\n      pop\n      jump\t// out\n        /* \"#utility.yul\":15640:16059   */\n    tag_189:\n        /* \"#utility.yul\":15806:15810   */\n      0x00\n        /* \"#utility.yul\":15844:15846   */\n      0x20\n        /* \"#utility.yul\":15833:15842   */\n      dup3\n        /* \"#utility.yul\":15829:15847   */\n      add\n        /* \"#utility.yul\":15821:15847   */\n      swap1\n      pop\n        /* \"#utility.yul\":15893:15902   */\n      dup2\n        /* \"#utility.yul\":15887:15891   */\n      dup2\n        /* \"#utility.yul\":15883:15903   */\n      sub\n        /* \"#utility.yul\":15879:15880   */\n      0x00\n        /* \"#utility.yul\":15868:15877   */\n      dup4\n        /* \"#utility.yul\":15864:15881   */\n      add\n        /* \"#utility.yul\":15857:15904   */\n      mstore\n        /* \"#utility.yul\":15921:16052   */\n      tag_555\n        /* \"#utility.yul\":16047:16051   */\n      dup2\n        /* \"#utility.yul\":15921:16052   */\n      tag_372\n      jump\t// in\n    tag_555:\n        /* \"#utility.yul\":15913:16052   */\n      swap1\n      pop\n        /* \"#utility.yul\":15640:16059   */\n      swap2\n      swap1\n      pop\n      jump\t// out\n        /* \"#utility.yul\":16065:16235   */\n    tag_373:\n        /* \"#utility.yul\":16205:16227   */\n      0x4e6f2066756e647320746f207769746864726177000000000000000000000000\n        /* \"#utility.yul\":16201:16202   */\n      0x00\n        /* \"#utility.yul\":16193:16199   */\n      dup3\n        /* \"#utility.yul\":16189:16203   */\n      add\n        /* \"#utility.yul\":16182:16228   */\n      mstore\n        /* \"#utility.yul\":16065:16235   */\n      pop\n      jump\t// out\n        /* \"#utility.yul\":16241:16607   */\n    tag_374:\n        /* \"#utility.yul\":16383:16386   */\n      0x00\n        /* \"#utility.yul\":16404:16471   */\n      tag_558\n        /* \"#utility.yul\":16468:16470   */\n      0x14\n        /* \"#utility.yul\":16463:16466   */\n      dup4\n        /* \"#utility.yul\":16404:16471   */\n      tag_354\n      jump\t// in\n    tag_558:\n        /* \"#utility.yul\":16397:16471   */\n      swap2\n      pop\n        /* \"#utility.yul\":16480:16573   */\n      tag_559\n        /* \"#utility.yul\":16569:16572   */\n      dup3\n        /* \"#utility.yul\":16480:16573   */\n      tag_373\n      jump\t// in\n    tag_559:\n        /* \"#utility.yul\":16598:16600   */\n      0x20\n        /* \"#utility.yul\":16593:16596   */\n      dup3\n        /* \"#utility.yul\":16589:16601   */\n      add\n        /* \"#utility.yul\":16582:16601   */\n      swap1\n      pop\n        /* \"#utility.yul\":16241:16607   */\n      swap2\n      swap1\n      pop\n      jump\t// out\n        /* \"#utility.yul\":16613:17032   */\n    tag_192:\n        /* \"#utility.yul\":16779:16783   */\n      0x00\n        /* \"#utility.yul\":16817:16819   */\n      0x20\n        /* \"#utility.yul\":16806:16815   */\n      dup3\n        /* \"#utility.yul\":16802:16820   */\n      add\n        /* \"#utility.yul\":16794:16820   */\n      swap1\n      pop\n        /* \"#utility.yul\":16866:16875   */\n      dup2\n        /* \"#utility.yul\":16860:16864   */\n      dup2\n        /* \"#utility.yul\":16856:16876   */\n      sub\n        /* \"#utility.yul\":16852:16853   */\n      0x00\n        /* \"#utility.yul\":16841:16850   */\n      dup4\n        /* \"#utility.yul\":16837:16854   */\n      add\n        /* \"#utility.yul\":16830:16877   */\n      mstore\n        /* \"#utility.yul\":16894:17025   */\n      tag_561\n        /* \"#utility.yul\":17020:17024   */\n      dup2\n        /* \"#utility.yul\":16894:17025   */\n      tag_374\n      jump\t// in\n    tag_561:\n        /* \"#utility.yul\":16886:17025   */\n      swap1\n      pop\n        /* \"#utility.yul\":16613:17032   */\n      swap2\n      swap1\n      pop\n      jump\t// out\n        /* \"#utility.yul\":17038:17185   */\n    tag_375:\n        /* \"#utility.yul\":17139:17150   */\n      0x00\n        /* \"#utility.yul\":17176:17179   */\n      dup2\n        /* \"#utility.yul\":17161:17179   */\n      swap1\n      pop\n        /* \"#utility.yul\":17038:17185   */\n      swap3\n      swap2\n      pop\n      pop\n      jump\t// out\n        /* \"#utility.yul\":17191:17305   */\n    tag_376:\n      pop\n      jump\t// out\n        /* \"#utility.yul\":17311:17709   */\n    tag_377:\n        /* \"#utility.yul\":17470:17473   */\n      0x00\n        /* \"#utility.yul\":17491:17574   */\n      tag_565\n        /* \"#utility.yul\":17572:17573   */\n      0x00\n        /* \"#utility.yul\":17567:17570   */\n      dup4\n        /* \"#utility.yul\":17491:17574   */\n      tag_375\n      jump\t// in\n    tag_565:\n        /* \"#utility.yul\":17484:17574   */\n      swap2\n      pop\n        /* \"#utility.yul\":17583:17676   */\n      tag_566\n        /* \"#utility.yul\":17672:17675   */\n      dup3\n        /* \"#utility.yul\":17583:17676   */\n      tag_376\n      jump\t// in\n    tag_566:\n        /* \"#utility.yul\":17701:17702   */\n      0x00\n        /* \"#utility.yul\":17696:17699   */\n      dup3\n        /* \"#utility.yul\":17692:17703   */\n      add\n        /* \"#utility.yul\":17685:17703   */\n      swap1\n      pop\n        /* \"#utility.yul\":17311:17709   */\n      swap2\n      swap1\n      pop\n      jump\t// out\n        /* \"#utility.yul\":17715:18094   */\n    tag_195:\n        /* \"#utility.yul\":17899:17902   */\n      0x00\n        /* \"#utility.yul\":17921:18068   */\n      tag_568\n        /* \"#utility.yul\":18064:18067   */\n      dup3\n        /* \"#utility.yul\":17921:18068   */\n      tag_377\n      jump\t// in\n    tag_568:\n        /* \"#utility.yul\":17914:18068   */\n      swap2\n      pop\n        /* \"#utility.yul\":18085:18088   */\n      dup2\n        /* \"#utility.yul\":18078:18088   */\n      swap1\n      pop\n        /* \"#utility.yul\":17715:18094   */\n      swap2\n      swap1\n      pop\n      jump\t// out\n        /* \"#utility.yul\":18100:18265   */\n    tag_378:\n        /* \"#utility.yul\":18240:18257   */\n      0x5472616e73666572206661696c65640000000000000000000000000000000000\n        /* \"#utility.yul\":18236:18237   */\n      0x00\n        /* \"#utility.yul\":18228:18234   */\n      dup3\n        /* \"#utility.yul\":18224:18238   */\n      add\n        /* \"#utility.yul\":18217:18258   */\n      mstore\n        /* \"#utility.yul\":18100:18265   */\n      pop\n      jump\t// out\n        /* \"#utility.yul\":18271:18637   */\n    tag_379:\n        /* \"#utility.yul\":18413:18416   */\n      0x00\n        /* \"#utility.yul\":18434:18501   */\n      tag_571\n        /* \"#utility.yul\":18498:18500   */\n      0x0f\n        /* \"#utility.yul\":18493:18496   */\n      dup4\n        /* \"#utility.yul\":18434:18501   */\n      tag_354\n      jump\t// in\n    tag_571:\n        /* \"#utility.yul\":18427:18501   */\n      swap2\n      pop\n        /* \"#utility.yul\":18510:18603   */\n      tag_572\n        /* \"#utility.yul\":18599:18602   */\n      dup3\n        /* \"#utility.yul\":18510:18603   */\n      tag_378\n      jump\t// in\n    tag_572:\n        /* \"#utility.yul\":18628:18630   */\n      0x20\n        /* \"#utility.yul\":18623:18626   */\n      dup3\n        /* \"#utility.yul\":18619:18631   */\n      add\n        /* \"#utility.yul\":18612:18631   */\n      swap1\n      pop\n        /* \"#utility.yul\":18271:18637   */\n      swap2\n      swap1\n      pop\n      jump\t// out\n        /* \"#utility.yul\":18643:19062   */\n    tag_201:\n        /* \"#utility.yul\":18809:18813   */\n      0x00\n        /* \"#utility.yul\":18847:18849   */\n      0x20\n        /* \"#utility.yul\":18836:18845   */\n      dup3\n        /* \"#utility.yul\":18832:18850   */\n      add\n        /* \"#utility.yul\":18824:18850   */\n      swap1\n      pop\n        /* \"#utility.yul\":18896:18905   */\n      dup2\n        /* \"#utility.yul\":18890:18894   */\n      dup2\n        /* \"#utility.yul\":18886:18906   */\n      sub\n        /* \"#utility.yul\":18882:18883   */\n      0x00\n        /* \"#utility.yul\":18871:18880   */\n      dup4\n        /* \"#utility.yul\":18867:18884   */\n      add\n        /* \"#utility.yul\":18860:18907   */\n      mstore\n        /* \"#utility.yul\":18924:19055   */\n      tag_574\n        /* \"#utility.yul\":19050:19054   */\n      dup2\n        /* \"#utility.yul\":18924:19055   */\n      tag_379\n      jump\t// in\n    tag_574:\n        /* \"#utility.yul\":18916:19055   */\n      swap1\n      pop\n        /* \"#utility.yul\":18643:19062   */\n      swap2\n      swap1\n      pop\n      jump\t// out\n        /* \"#utility.yul\":19068:19236   */\n    tag_380:\n        /* \"#utility.yul\":19208:19228   */\n      0x4e6f20746f6b656e7320746f20636c61696d0000000000000000000000000000\n        /* \"#utility.yul\":19204:19205   */\n      0x00\n        /* \"#utility.yul\":19196:19202   */\n      dup3\n        /* \"#utility.yul\":19192:19206   */\n      add\n        /* \"#utility.yul\":19185:19229   */\n      mstore\n        /* \"#utility.yul\":19068:19236   */\n      pop\n      jump\t// out\n        /* \"#utility.yul\":19242:19608   */\n    tag_381:\n        /* \"#utility.yul\":19384:19387   */\n      0x00\n        /* \"#utility.yul\":19405:19472   */\n      tag_577\n        /* \"#utility.yul\":19469:19471   */\n      0x12\n        /* \"#utility.yul\":19464:19467   */\n      dup4\n        /* \"#utility.yul\":19405:19472   */\n      tag_354\n      jump\t// in\n    tag_577:\n        /* \"#utility.yul\":19398:19472   */\n      swap2\n      pop\n        /* \"#utility.yul\":19481:19574   */\n      tag_578\n        /* \"#utility.yul\":19570:19573   */\n      dup3\n        /* \"#utility.yul\":19481:19574   */\n      tag_380\n      jump\t// in\n    tag_578:\n        /* \"#utility.yul\":19599:19601   */\n      0x20\n        /* \"#utility.yul\":19594:19597   */\n      dup3\n        /* \"#utility.yul\":19590:19602   */\n      add\n        /* \"#utility.yul\":19583:19602   */\n      swap1\n      pop\n        /* \"#utility.yul\":19242:19608   */\n      swap2\n      swap1\n      pop\n      jump\t// out\n        /* \"#utility.yul\":19614:20033   */\n    tag_211:\n        /* \"#utility.yul\":19780:19784   */\n      0x00\n        /* \"#utility.yul\":19818:19820   */\n      0x20\n        /* \"#utility.yul\":19807:19816   */\n      dup3\n        /* \"#utility.yul\":19803:19821   */\n      add\n        /* \"#utility.yul\":19795:19821   */\n      swap1\n      pop\n        /* \"#utility.yul\":19867:19876   */\n      dup2\n        /* \"#utility.yul\":19861:19865   */\n      dup2\n        /* \"#utility.yul\":19857:19877   */\n      sub\n        /* \"#utility.yul\":19853:19854   */\n      0x00\n        /* \"#utility.yul\":19842:19851   */\n      dup4\n        /* \"#utility.yul\":19838:19855   */\n      add\n        /* \"#utility.yul\":19831:19878   */\n      mstore\n        /* \"#utility.yul\":19895:20026   */\n      tag_580\n        /* \"#utility.yul\":20021:20025   */\n      dup2\n        /* \"#utility.yul\":19895:20026   */\n      tag_381\n      jump\t// in\n    tag_580:\n        /* \"#utility.yul\":19887:20026   */\n      swap1\n      pop\n        /* \"#utility.yul\":19614:20033   */\n      swap2\n      swap1\n      pop\n      jump\t// out\n        /* \"#utility.yul\":20039:20371   */\n    tag_213:\n        /* \"#utility.yul\":20160:20164   */\n      0x00\n        /* \"#utility.yul\":20198:20200   */\n      0x40\n        /* \"#utility.yul\":20187:20196   */\n      dup3\n        /* \"#utility.yul\":20183:20201   */\n      add\n        /* \"#utility.yul\":20175:20201   */\n      swap1\n      pop\n        /* \"#utility.yul\":20211:20282   */\n      tag_582\n        /* \"#utility.yul\":20279:20280   */\n      0x00\n        /* \"#utility.yul\":20268:20277   */\n      dup4\n        /* \"#utility.yul\":20264:20281   */\n      add\n        /* \"#utility.yul\":20255:20261   */\n      dup6\n        /* \"#utility.yul\":20211:20282   */\n      tag_346\n      jump\t// in\n    tag_582:\n        /* \"#utility.yul\":20292:20364   */\n      tag_583\n        /* \"#utility.yul\":20360:20362   */\n      0x20\n        /* \"#utility.yul\":20349:20358   */\n      dup4\n        /* \"#utility.yul\":20345:20363   */\n      add\n        /* \"#utility.yul\":20336:20342   */\n      dup5\n        /* \"#utility.yul\":20292:20364   */\n      tag_334\n      jump\t// in\n    tag_583:\n        /* \"#utility.yul\":20039:20371   */\n      swap4\n      swap3\n      pop\n      pop\n      pop\n      jump\t// out\n        /* \"#utility.yul\":20377:20514   */\n    tag_382:\n        /* \"#utility.yul\":20431:20436   */\n      0x00\n        /* \"#utility.yul\":20462:20468   */\n      dup2\n        /* \"#utility.yul\":20456:20469   */\n      mload\n        /* \"#utility.yul\":20447:20469   */\n      swap1\n      pop\n        /* \"#utility.yul\":20478:20508   */\n      tag_585\n        /* \"#utility.yul\":20502:20507   */\n      dup2\n        /* \"#utility.yul\":20478:20508   */\n      tag_347\n      jump\t// in\n    tag_585:\n        /* \"#utility.yul\":20377:20514   */\n      swap3\n      swap2\n      pop\n      pop\n      jump\t// out\n        /* \"#utility.yul\":20520:20865   */\n    tag_217:\n        /* \"#utility.yul\":20587:20593   */\n      0x00\n        /* \"#utility.yul\":20636:20638   */\n      0x20\n        /* \"#utility.yul\":20624:20633   */\n      dup3\n        /* \"#utility.yul\":20615:20622   */\n      dup5\n        /* \"#utility.yul\":20611:20634   */\n      sub\n        /* \"#utility.yul\":20607:20639   */\n      slt\n        /* \"#utility.yul\":20604:20723   */\n      iszero\n      tag_587\n      jumpi\n        /* \"#utility.yul\":20642:20721   */\n      tag_588\n      tag_336\n      jump\t// in\n    tag_588:\n        /* \"#utility.yul\":20604:20723   */\n    tag_587:\n        /* \"#utility.yul\":20762:20763   */\n      0x00\n        /* \"#utility.yul\":20787:20848   */\n      tag_589\n        /* \"#utility.yul\":20840:20847   */\n      dup5\n        /* \"#utility.yul\":20831:20837   */\n      dup3\n        /* \"#utility.yul\":20820:20829   */\n      dup6\n        /* \"#utility.yul\":20816:20838   */\n      add\n        /* \"#utility.yul\":20787:20848   */\n      tag_382\n      jump\t// in\n    tag_589:\n        /* \"#utility.yul\":20777:20848   */\n      swap2\n      pop\n        /* \"#utility.yul\":20733:20858   */\n      pop\n        /* \"#utility.yul\":20520:20865   */\n      swap3\n      swap2\n      pop\n      pop\n      jump\t// out\n        /* \"#utility.yul\":20871:21042   */\n    tag_383:\n        /* \"#utility.yul\":21011:21034   */\n      0x546f6b656e207472616e73666572206661696c65640000000000000000000000\n        /* \"#utility.yul\":21007:21008   */\n      0x00\n        /* \"#utility.yul\":20999:21005   */\n      dup3\n        /* \"#utility.yul\":20995:21009   */\n      add\n        /* \"#utility.yul\":20988:21035   */\n      mstore\n        /* \"#utility.yul\":20871:21042   */\n      pop\n      jump\t// out\n        /* \"#utility.yul\":21048:21414   */\n    tag_384:\n        /* \"#utility.yul\":21190:21193   */\n      0x00\n        /* \"#utility.yul\":21211:21278   */\n      tag_592\n        /* \"#utility.yul\":21275:21277   */\n      0x15\n        /* \"#utility.yul\":21270:21273   */\n      dup4\n        /* \"#utility.yul\":21211:21278   */\n      tag_354\n      jump\t// in\n    tag_592:\n        /* \"#utility.yul\":21204:21278   */\n      swap2\n      pop\n        /* \"#utility.yul\":21287:21380   */\n      tag_593\n        /* \"#utility.yul\":21376:21379   */\n      dup3\n        /* \"#utility.yul\":21287:21380   */\n      tag_383\n      jump\t// in\n    tag_593:\n        /* \"#utility.yul\":21405:21407   */\n      0x20\n        /* \"#utility.yul\":21400:21403   */\n      dup3\n        /* \"#utility.yul\":21396:21408   */\n      add\n        /* \"#utility.yul\":21389:21408   */\n      swap1\n      pop\n        /* \"#utility.yul\":21048:21414   */\n      swap2\n      swap1\n      pop\n      jump\t// out\n        /* \"#utility.yul\":21420:21839   */\n    tag_220:\n        /* \"#utility.yul\":21586:21590   */\n      0x00\n        /* \"#utility.yul\":21624:21626   */\n      0x20\n        /* \"#utility.yul\":21613:21622   */\n      dup3\n        /* \"#utility.yul\":21609:21627   */\n      add\n        /* \"#utility.yul\":21601:21627   */\n      swap1\n      pop\n        /* \"#utility.yul\":21673:21682   */\n      dup2\n        /* \"#utility.yul\":21667:21671   */\n      dup2\n        /* \"#utility.yul\":21663:21683   */\n      sub\n        /* \"#utility.yul\":21659:21660   */\n      0x00\n        /* \"#utility.yul\":21648:21657   */\n      dup4\n        /* \"#utility.yul\":21644:21661   */\n      add\n        /* \"#utility.yul\":21637:21684   */\n      mstore\n        /* \"#utility.yul\":21701:21832   */\n      tag_595\n        /* \"#utility.yul\":21827:21831   */\n      dup2\n        /* \"#utility.yul\":21701:21832   */\n      tag_384\n      jump\t// in\n    tag_595:\n        /* \"#utility.yul\":21693:21832   */\n      swap1\n      pop\n        /* \"#utility.yul\":21420:21839   */\n      swap2\n      swap1\n      pop\n      jump\t// out\n        /* \"#utility.yul\":21845:22066   */\n    tag_385:\n        /* \"#utility.yul\":21985:22019   */\n      0x546f6b656e207072696365206d7573742062652067726561746572207468616e\n        /* \"#utility.yul\":21981:21982   */\n      0x00\n        /* \"#utility.yul\":21973:21979   */\n      dup3\n        /* \"#utility.yul\":21969:21983   */\n      add\n        /* \"#utility.yul\":21962:22020   */\n      mstore\n        /* \"#utility.yul\":22054:22058   */\n      0x2030000000000000000000000000000000000000000000000000000000000000\n        /* \"#utility.yul\":22049:22051   */\n      0x20\n        /* \"#utility.yul\":22041:22047   */\n      dup3\n        /* \"#utility.yul\":22037:22052   */\n      add\n        /* \"#utility.yul\":22030:22059   */\n      mstore\n        /* \"#utility.yul\":21845:22066   */\n      pop\n      jump\t// out\n        /* \"#utility.yul\":22072:22438   */\n    tag_386:\n        /* \"#utility.yul\":22214:22217   */\n      0x00\n        /* \"#utility.yul\":22235:22302   */\n      tag_598\n        /* \"#utility.yul\":22299:22301   */\n      0x22\n        /* \"#utility.yul\":22294:22297   */\n      dup4\n        /* \"#utility.yul\":22235:22302   */\n      tag_354\n      jump\t// in\n    tag_598:\n        /* \"#utility.yul\":22228:22302   */\n      swap2\n      pop\n        /* \"#utility.yul\":22311:22404   */\n      tag_599\n        /* \"#utility.yul\":22400:22403   */\n      dup3\n        /* \"#utility.yul\":22311:22404   */\n      tag_385\n      jump\t// in\n    tag_599:\n        /* \"#utility.yul\":22429:22431   */\n      0x40\n        /* \"#utility.yul\":22424:22427   */\n      dup3\n        /* \"#utility.yul\":22420:22432   */\n      add\n        /* \"#utility.yul\":22413:22432   */\n      swap1\n      pop\n        /* \"#utility.yul\":22072:22438   */\n      swap2\n      swap1\n      pop\n      jump\t// out\n        /* \"#utility.yul\":22444:22863   */\n    tag_230:\n        /* \"#utility.yul\":22610:22614   */\n      0x00\n        /* \"#utility.yul\":22648:22650   */\n      0x20\n        /* \"#utility.yul\":22637:22646   */\n      dup3\n        /* \"#utility.yul\":22633:22651   */\n      add\n        /* \"#utility.yul\":22625:22651   */\n      swap1\n      pop\n        /* \"#utility.yul\":22697:22706   */\n      dup2\n        /* \"#utility.yul\":22691:22695   */\n      dup2\n        /* \"#utility.yul\":22687:22707   */\n      sub\n        /* \"#utility.yul\":22683:22684   */\n      0x00\n        /* \"#utility.yul\":22672:22681   */\n      dup4\n        /* \"#utility.yul\":22668:22685   */\n      add\n        /* \"#utility.yul\":22661:22708   */\n      mstore\n        /* \"#utility.yul\":22725:22856   */\n      tag_601\n        /* \"#utility.yul\":22851:22855   */\n      dup2\n        /* \"#utility.yul\":22725:22856   */\n      tag_386\n      jump\t// in\n    tag_601:\n        /* \"#utility.yul\":22717:22856   */\n      swap1\n      pop\n        /* \"#utility.yul\":22444:22863   */\n      swap2\n      swap1\n      pop\n      jump\t// out\n        /* \"#utility.yul\":22869:23098   */\n    tag_387:\n        /* \"#utility.yul\":23009:23043   */\n      0x4861726420636170206d7573742062652067726561746572207468616e20746f\n        /* \"#utility.yul\":23005:23006   */\n      0x00\n        /* \"#utility.yul\":22997:23003   */\n      dup3\n        /* \"#utility.yul\":22993:23007   */\n      add\n        /* \"#utility.yul\":22986:23044   */\n      mstore\n        /* \"#utility.yul\":23078:23090   */\n      0x74616c2072616973656400000000000000000000000000000000000000000000\n        /* \"#utility.yul\":23073:23075   */\n      0x20\n        /* \"#utility.yul\":23065:23071   */\n      dup3\n        /* \"#utility.yul\":23061:23076   */\n      add\n        /* \"#utility.yul\":23054:23091   */\n      mstore\n        /* \"#utility.yul\":22869:23098   */\n      pop\n      jump\t// out\n        /* \"#utility.yul\":23104:23470   */\n    tag_388:\n        /* \"#utility.yul\":23246:23249   */\n      0x00\n        /* \"#utility.yul\":23267:23334   */\n      tag_604\n        /* \"#utility.yul\":23331:23333   */\n      0x2a\n        /* \"#utility.yul\":23326:23329   */\n      dup4\n        /* \"#utility.yul\":23267:23334   */\n      tag_354\n      jump\t// in\n    tag_604:\n        /* \"#utility.yul\":23260:23334   */\n      swap2\n      pop\n        /* \"#utility.yul\":23343:23436   */\n      tag_605\n        /* \"#utility.yul\":23432:23435   */\n      dup3\n        /* \"#utility.yul\":23343:23436   */\n      tag_387\n      jump\t// in\n    tag_605:\n        /* \"#utility.yul\":23461:23463   */\n      0x40\n        /* \"#utility.yul\":23456:23459   */\n      dup3\n        /* \"#utility.yul\":23452:23464   */\n      add\n        /* \"#utility.yul\":23445:23464   */\n      swap1\n      pop\n        /* \"#utility.yul\":23104:23470   */\n      swap2\n      swap1\n      pop\n      jump\t// out\n        /* \"#utility.yul\":23476:23895   */\n    tag_236:\n        /* \"#utility.yul\":23642:23646   */\n      0x00\n        /* \"#utility.yul\":23680:23682   */\n      0x20\n        /* \"#utility.yul\":23669:23678   */\n      dup3\n        /* \"#utility.yul\":23665:23683   */\n      add\n        /* \"#utility.yul\":23657:23683   */\n      swap1\n      pop\n        /* \"#utility.yul\":23729:23738   */\n      dup2\n        /* \"#utility.yul\":23723:23727   */\n      dup2\n        /* \"#utility.yul\":23719:23739   */\n      sub\n        /* \"#utility.yul\":23715:23716   */\n      0x00\n        /* \"#utility.yul\":23704:23713   */\n      dup4\n        /* \"#utility.yul\":23700:23717   */\n      add\n        /* \"#utility.yul\":23693:23740   */\n      mstore\n        /* \"#utility.yul\":23757:23888   */\n      tag_607\n        /* \"#utility.yul\":23883:23887   */\n      dup2\n        /* \"#utility.yul\":23757:23888   */\n      tag_388\n      jump\t// in\n    tag_607:\n        /* \"#utility.yul\":23749:23888   */\n      swap1\n      pop\n        /* \"#utility.yul\":23476:23895   */\n      swap2\n      swap1\n      pop\n      jump\t// out\n        /* \"#utility.yul\":23901:24044   */\n    tag_389:\n        /* \"#utility.yul\":23958:23963   */\n      0x00\n        /* \"#utility.yul\":23989:23995   */\n      dup2\n        /* \"#utility.yul\":23983:23996   */\n      mload\n        /* \"#utility.yul\":23974:23996   */\n      swap1\n      pop\n        /* \"#utility.yul\":24005:24038   */\n      tag_609\n        /* \"#utility.yul\":24032:24037   */\n      dup2\n        /* \"#utility.yul\":24005:24038   */\n      tag_344\n      jump\t// in\n    tag_609:\n        /* \"#utility.yul\":23901:24044   */\n      swap3\n      swap2\n      pop\n      pop\n      jump\t// out\n        /* \"#utility.yul\":24050:24401   */\n    tag_258:\n        /* \"#utility.yul\":24120:24126   */\n      0x00\n        /* \"#utility.yul\":24169:24171   */\n      0x20\n        /* \"#utility.yul\":24157:24166   */\n      dup3\n        /* \"#utility.yul\":24148:24155   */\n      dup5\n        /* \"#utility.yul\":24144:24167   */\n      sub\n        /* \"#utility.yul\":24140:24172   */\n      slt\n        /* \"#utility.yul\":24137:24256   */\n      iszero\n      tag_611\n      jumpi\n        /* \"#utility.yul\":24175:24254   */\n      tag_612\n      tag_336\n      jump\t// in\n    tag_612:\n        /* \"#utility.yul\":24137:24256   */\n    tag_611:\n        /* \"#utility.yul\":24295:24296   */\n      0x00\n        /* \"#utility.yul\":24320:24384   */\n      tag_613\n        /* \"#utility.yul\":24376:24383   */\n      dup5\n        /* \"#utility.yul\":24367:24373   */\n      dup3\n        /* \"#utility.yul\":24356:24365   */\n      dup6\n        /* \"#utility.yul\":24352:24374   */\n      add\n        /* \"#utility.yul\":24320:24384   */\n      tag_389\n      jump\t// in\n    tag_613:\n        /* \"#utility.yul\":24310:24384   */\n      swap2\n      pop\n        /* \"#utility.yul\":24266:24394   */\n      pop\n        /* \"#utility.yul\":24050:24401   */\n      swap3\n      swap2\n      pop\n      pop\n      jump\t// out\n        /* \"#utility.yul\":24407:24573   */\n    tag_390:\n        /* \"#utility.yul\":24547:24565   */\n      0x4e6f20756e736f6c6420746f6b656e7300000000000000000000000000000000\n        /* \"#utility.yul\":24543:24544   */\n      0x00\n        /* \"#utility.yul\":24535:24541   */\n      dup3\n        /* \"#utility.yul\":24531:24545   */\n      add\n        /* \"#utility.yul\":24524:24566   */\n      mstore\n        /* \"#utility.yul\":24407:24573   */\n      pop\n      jump\t// out\n        /* \"#utility.yul\":24579:24945   */\n    tag_391:\n        /* \"#utility.yul\":24721:24724   */\n      0x00\n        /* \"#utility.yul\":24742:24809   */\n      tag_616\n        /* \"#utility.yul\":24806:24808   */\n      0x10\n        /* \"#utility.yul\":24801:24804   */\n      dup4\n        /* \"#utility.yul\":24742:24809   */\n      tag_354\n      jump\t// in\n    tag_616:\n        /* \"#utility.yul\":24735:24809   */\n      swap2\n      pop\n        /* \"#utility.yul\":24818:24911   */\n      tag_617\n        /* \"#utility.yul\":24907:24910   */\n      dup3\n        /* \"#utility.yul\":24818:24911   */\n      tag_390\n      jump\t// in\n    tag_617:\n        /* \"#utility.yul\":24936:24938   */\n      0x20\n        /* \"#utility.yul\":24931:24934   */\n      dup3\n        /* \"#utility.yul\":24927:24939   */\n      add\n        /* \"#utility.yul\":24920:24939   */\n      swap1\n      pop\n        /* \"#utility.yul\":24579:24945   */\n      swap2\n      swap1\n      pop\n      jump\t// out\n        /* \"#utility.yul\":24951:25370   */\n    tag_261:\n        /* \"#utility.yul\":25117:25121   */\n      0x00\n        /* \"#utility.yul\":25155:25157   */\n      0x20\n        /* \"#utility.yul\":25144:25153   */\n      dup3\n        /* \"#utility.yul\":25140:25158   */\n      add\n        /* \"#utility.yul\":25132:25158   */\n      swap1\n      pop\n        /* \"#utility.yul\":25204:25213   */\n      dup2\n        /* \"#utility.yul\":25198:25202   */\n      dup2\n        /* \"#utility.yul\":25194:25214   */\n      sub\n        /* \"#utility.yul\":25190:25191   */\n      0x00\n        /* \"#utility.yul\":25179:25188   */\n      dup4\n        /* \"#utility.yul\":25175:25192   */\n      add\n        /* \"#utility.yul\":25168:25215   */\n      mstore\n        /* \"#utility.yul\":25232:25363   */\n      tag_619\n        /* \"#utility.yul\":25358:25362   */\n      dup2\n        /* \"#utility.yul\":25232:25363   */\n      tag_391\n      jump\t// in\n    tag_619:\n        /* \"#utility.yul\":25224:25363   */\n      swap1\n      pop\n        /* \"#utility.yul\":24951:25370   */\n      swap2\n      swap1\n      pop\n      jump\t// out\n        /* \"#utility.yul\":25376:25554   */\n    tag_392:\n        /* \"#utility.yul\":25516:25546   */\n      0x53746172742074696d65206d75737420626520696e2066757475726500000000\n        /* \"#utility.yul\":25512:25513   */\n      0x00\n        /* \"#utility.yul\":25504:25510   */\n      dup3\n        /* \"#utility.yul\":25500:25514   */\n      add\n        /* \"#utility.yul\":25493:25547   */\n      mstore\n        /* \"#utility.yul\":25376:25554   */\n      pop\n      jump\t// out\n        /* \"#utility.yul\":25560:25926   */\n    tag_393:\n        /* \"#utility.yul\":25702:25705   */\n      0x00\n        /* \"#utility.yul\":25723:25790   */\n      tag_622\n        /* \"#utility.yul\":25787:25789   */\n      0x1c\n        /* \"#utility.yul\":25782:25785   */\n      dup4\n        /* \"#utility.yul\":25723:25790   */\n      tag_354\n      jump\t// in\n    tag_622:\n        /* \"#utility.yul\":25716:25790   */\n      swap2\n      pop\n        /* \"#utility.yul\":25799:25892   */\n      tag_623\n        /* \"#utility.yul\":25888:25891   */\n      dup3\n        /* \"#utility.yul\":25799:25892   */\n      tag_392\n      jump\t// in\n    tag_623:\n        /* \"#utility.yul\":25917:25919   */\n      0x20\n        /* \"#utility.yul\":25912:25915   */\n      dup3\n        /* \"#utility.yul\":25908:25920   */\n      add\n        /* \"#utility.yul\":25901:25920   */\n      swap1\n      pop\n        /* \"#utility.yul\":25560:25926   */\n      swap2\n      swap1\n      pop\n      jump\t// out\n        /* \"#utility.yul\":25932:26351   */\n    tag_287:\n        /* \"#utility.yul\":26098:26102   */\n      0x00\n        /* \"#utility.yul\":26136:26138   */\n      0x20\n        /* \"#utility.yul\":26125:26134   */\n      dup3\n        /* \"#utility.yul\":26121:26139   */\n      add\n        /* \"#utility.yul\":26113:26139   */\n      swap1\n      pop\n        /* \"#utility.yul\":26185:26194   */\n      dup2\n        /* \"#utility.yul\":26179:26183   */\n      dup2\n        /* \"#utility.yul\":26175:26195   */\n      sub\n        /* \"#utility.yul\":26171:26172   */\n      0x00\n        /* \"#utility.yul\":26160:26169   */\n      dup4\n        /* \"#utility.yul\":26156:26173   */\n      add\n        /* \"#utility.yul\":26149:26196   */\n      mstore\n        /* \"#utility.yul\":26213:26344   */\n      tag_625\n        /* \"#utility.yul\":26339:26343   */\n      dup2\n        /* \"#utility.yul\":26213:26344   */\n      tag_393\n      jump\t// in\n    tag_625:\n        /* \"#utility.yul\":26205:26344   */\n      swap1\n      pop\n        /* \"#utility.yul\":25932:26351   */\n      swap2\n      swap1\n      pop\n      jump\t// out\n        /* \"#utility.yul\":26357:26577   */\n    tag_394:\n        /* \"#utility.yul\":26497:26531   */\n      0x456e642074696d65206d7573742062652061667465722073746172742074696d\n        /* \"#utility.yul\":26493:26494   */\n      0x00\n        /* \"#utility.yul\":26485:26491   */\n      dup3\n        /* \"#utility.yul\":26481:26495   */\n      add\n        /* \"#utility.yul\":26474:26532   */\n      mstore\n        /* \"#utility.yul\":26566:26569   */\n      0x6500000000000000000000000000000000000000000000000000000000000000\n        /* \"#utility.yul\":26561:26563   */\n      0x20\n        /* \"#utility.yul\":26553:26559   */\n      dup3\n        /* \"#utility.yul\":26549:26564   */\n      add\n        /* \"#utility.yul\":26542:26570   */\n      mstore\n        /* \"#utility.yul\":26357:26577   */\n      pop\n      jump\t// out\n        /* \"#utility.yul\":26583:26949   */\n    tag_395:\n        /* \"#utility.yul\":26725:26728   */\n      0x00\n        /* \"#utility.yul\":26746:26813   */\n      tag_628\n        /* \"#utility.yul\":26810:26812   */\n      0x21\n        /* \"#utility.yul\":26805:26808   */\n      dup4\n        /* \"#utility.yul\":26746:26813   */\n      tag_354\n      jump\t// in\n    tag_628:\n        /* \"#utility.yul\":26739:26813   */\n      swap2\n      pop\n        /* \"#utility.yul\":26822:26915   */\n      tag_629\n        /* \"#utility.yul\":26911:26914   */\n      dup3\n        /* \"#utility.yul\":26822:26915   */\n      tag_394\n      jump\t// in\n    tag_629:\n        /* \"#utility.yul\":26940:26942   */\n      0x40\n        /* \"#utility.yul\":26935:26938   */\n      dup3\n        /* \"#utility.yul\":26931:26943   */\n      add\n        /* \"#utility.yul\":26924:26943   */\n      swap1\n      pop\n        /* \"#utility.yul\":26583:26949   */\n      swap2\n      swap1\n      pop\n      jump\t// out\n        /* \"#utility.yul\":26955:27374   */\n    tag_290:\n        /* \"#utility.yul\":27121:27125   */\n      0x00\n        /* \"#utility.yul\":27159:27161   */\n      0x20\n        /* \"#utility.yul\":27148:27157   */\n      dup3\n        /* \"#utility.yul\":27144:27162   */\n      add\n        /* \"#utility.yul\":27136:27162   */\n      swap1\n      pop\n        /* \"#utility.yul\":27208:27217   */\n      dup2\n        /* \"#utility.yul\":27202:27206   */\n      dup2\n        /* \"#utility.yul\":27198:27218   */\n      sub\n        /* \"#utility.yul\":27194:27195   */\n      0x00\n        /* \"#utility.yul\":27183:27192   */\n      dup4\n        /* \"#utility.yul\":27179:27196   */\n      add\n        /* \"#utility.yul\":27172:27219   */\n      mstore\n        /* \"#utility.yul\":27236:27367   */\n      tag_631\n        /* \"#utility.yul\":27362:27366   */\n      dup2\n        /* \"#utility.yul\":27236:27367   */\n      tag_395\n      jump\t// in\n    tag_631:\n        /* \"#utility.yul\":27228:27367   */\n      swap1\n      pop\n        /* \"#utility.yul\":26955:27374   */\n      swap2\n      swap1\n      pop\n      jump\t// out\n        /* \"#utility.yul\":27380:27561   */\n    tag_396:\n        /* \"#utility.yul\":27520:27553   */\n      0x5265656e7472616e637947756172643a207265656e7472616e742063616c6c00\n        /* \"#utility.yul\":27516:27517   */\n      0x00\n        /* \"#utility.yul\":27508:27514   */\n      dup3\n        /* \"#utility.yul\":27504:27518   */\n      add\n        /* \"#utility.yul\":27497:27554   */\n      mstore\n        /* \"#utility.yul\":27380:27561   */\n      pop\n      jump\t// out\n        /* \"#utility.yul\":27567:27933   */\n    tag_397:\n        /* \"#utility.yul\":27709:27712   */\n      0x00\n        /* \"#utility.yul\":27730:27797   */\n      tag_634\n        /* \"#utility.yul\":27794:27796   */\n      0x1f\n        /* \"#utility.yul\":27789:27792   */\n      dup4\n        /* \"#utility.yul\":27730:27797   */\n      tag_354\n      jump\t// in\n    tag_634:\n        /* \"#utility.yul\":27723:27797   */\n      swap2\n      pop\n        /* \"#utility.yul\":27806:27899   */\n      tag_635\n        /* \"#utility.yul\":27895:27898   */\n      dup3\n        /* \"#utility.yul\":27806:27899   */\n      tag_396\n      jump\t// in\n    tag_635:\n        /* \"#utility.yul\":27924:27926   */\n      0x20\n        /* \"#utility.yul\":27919:27922   */\n      dup3\n        /* \"#utility.yul\":27915:27927   */\n      add\n        /* \"#utility.yul\":27908:27927   */\n      swap1\n      pop\n        /* \"#utility.yul\":27567:27933   */\n      swap2\n      swap1\n      pop\n      jump\t// out\n        /* \"#utility.yul\":27939:28358   */\n    tag_300:\n        /* \"#utility.yul\":28105:28109   */\n      0x00\n        /* \"#utility.yul\":28143:28145   */\n      0x20\n        /* \"#utility.yul\":28132:28141   */\n      dup3\n        /* \"#utility.yul\":28128:28146   */\n      add\n        /* \"#utility.yul\":28120:28146   */\n      swap1\n      pop\n        /* \"#utility.yul\":28192:28201   */\n      dup2\n        /* \"#utility.yul\":28186:28190   */\n      dup2\n        /* \"#utility.yul\":28182:28202   */\n      sub\n        /* \"#utility.yul\":28178:28179   */\n      0x00\n        /* \"#utility.yul\":28167:28176   */\n      dup4\n        /* \"#utility.yul\":28163:28180   */\n      add\n        /* \"#utility.yul\":28156:28203   */\n      mstore\n        /* \"#utility.yul\":28220:28351   */\n      tag_637\n        /* \"#utility.yul\":28346:28350   */\n      dup2\n        /* \"#utility.yul\":28220:28351   */\n      tag_397\n      jump\t// in\n    tag_637:\n        /* \"#utility.yul\":28212:28351   */\n      swap1\n      pop\n        /* \"#utility.yul\":27939:28358   */\n      swap2\n      swap1\n      pop\n      jump\t// out\n        /* \"#utility.yul\":28364:28530   */\n    tag_398:\n        /* \"#utility.yul\":28504:28522   */\n      0x5061757361626c653a2070617573656400000000000000000000000000000000\n        /* \"#utility.yul\":28500:28501   */\n      0x00\n        /* \"#utility.yul\":28492:28498   */\n      dup3\n        /* \"#utility.yul\":28488:28502   */\n      add\n        /* \"#utility.yul\":28481:28523   */\n      mstore\n        /* \"#utility.yul\":28364:28530   */\n      pop\n      jump\t// out\n        /* \"#utility.yul\":28536:28902   */\n    tag_399:\n        /* \"#utility.yul\":28678:28681   */\n      0x00\n        /* \"#utility.yul\":28699:28766   */\n      tag_640\n        /* \"#utility.yul\":28763:28765   */\n      0x10\n        /* \"#utility.yul\":28758:28761   */\n      dup4\n        /* \"#utility.yul\":28699:28766   */\n      tag_354\n      jump\t// in\n    tag_640:\n        /* \"#utility.yul\":28692:28766   */\n      swap2\n      pop\n        /* \"#utility.yul\":28775:28868   */\n      tag_641\n        /* \"#utility.yul\":28864:28867   */\n      dup3\n        /* \"#utility.yul\":28775:28868   */\n      tag_398\n      jump\t// in\n    tag_641:\n        /* \"#utility.yul\":28893:28895   */\n      0x20\n        /* \"#utility.yul\":28888:28891   */\n      dup3\n        /* \"#utility.yul\":28884:28896   */\n      add\n        /* \"#utility.yul\":28877:28896   */\n      swap1\n      pop\n        /* \"#utility.yul\":28536:28902   */\n      swap2\n      swap1\n      pop\n      jump\t// out\n        /* \"#utility.yul\":28908:29327   */\n    tag_327:\n        /* \"#utility.yul\":29074:29078   */\n      0x00\n        /* \"#utility.yul\":29112:29114   */\n      0x20\n        /* \"#utility.yul\":29101:29110   */\n      dup3\n        /* \"#utility.yul\":29097:29115   */\n      add\n        /* \"#utility.yul\":29089:29115   */\n      swap1\n      pop\n        /* \"#utility.yul\":29161:29170   */\n      dup2\n        /* \"#utility.yul\":29155:29159   */\n      dup2\n        /* \"#utility.yul\":29151:29171   */\n      sub\n        /* \"#utility.yul\":29147:29148   */\n      0x00\n        /* \"#utility.yul\":29136:29145   */\n      dup4\n        /* \"#utility.yul\":29132:29149   */\n      add\n        /* \"#utility.yul\":29125:29172   */\n      mstore\n        /* \"#utility.yul\":29189:29320   */\n      tag_643\n        /* \"#utility.yul\":29315:29319   */\n      dup2\n        /* \"#utility.yul\":29189:29320   */\n      tag_399\n      jump\t// in\n    tag_643:\n        /* \"#utility.yul\":29181:29320   */\n      swap1\n      pop\n        /* \"#utility.yul\":28908:29327   */\n      swap2\n      swap1\n      pop\n      jump\t// out\n        /* \"#utility.yul\":29333:29503   */\n    tag_400:\n        /* \"#utility.yul\":29473:29495   */\n      0x5061757361626c653a206e6f7420706175736564000000000000000000000000\n        /* \"#utility.yul\":29469:29470   */\n      0x00\n        /* \"#utility.yul\":29461:29467   */\n      dup3\n        /* \"#utility.yul\":29457:29471   */\n      add\n        /* \"#utility.yul\":29450:29496   */\n      mstore\n        /* \"#utility.yul\":29333:29503   */\n      pop\n      jump\t// out\n        /* \"#utility.yul\":29509:29875   */\n    tag_401:\n        /* \"#utility.yul\":29651:29654   */\n      0x00\n        /* \"#utility.yul\":29672:29739   */\n      tag_646\n        /* \"#utility.yul\":29736:29738   */\n      0x14\n        /* \"#utility.yul\":29731:29734   */\n      dup4\n        /* \"#utility.yul\":29672:29739   */\n      tag_354\n      jump\t// in\n    tag_646:\n        /* \"#utility.yul\":29665:29739   */\n      swap2\n      pop\n        /* \"#utility.yul\":29748:29841   */\n      tag_647\n        /* \"#utility.yul\":29837:29840   */\n      dup3\n        /* \"#utility.yul\":29748:29841   */\n      tag_400\n      jump\t// in\n    tag_647:\n        /* \"#utility.yul\":29866:29868   */\n      0x20\n        /* \"#utility.yul\":29861:29864   */\n      dup3\n        /* \"#utility.yul\":29857:29869   */\n      add\n        /* \"#utility.yul\":29850:29869   */\n      swap1\n      pop\n        /* \"#utility.yul\":29509:29875   */\n      swap2\n      swap1\n      pop\n      jump\t// out\n        /* \"#utility.yul\":29881:30300   */\n    tag_332:\n        /* \"#utility.yul\":30047:30051   */\n      0x00\n        /* \"#utility.yul\":30085:30087   */\n      0x20\n        /* \"#utility.yul\":30074:30083   */\n      dup3\n        /* \"#utility.yul\":30070:30088   */\n      add\n        /* \"#utility.yul\":30062:30088   */\n      swap1\n      pop\n        /* \"#utility.yul\":30134:30143   */\n      dup2\n        /* \"#utility.yul\":30128:30132   */\n      dup2\n        /* \"#utility.yul\":30124:30144   */\n      sub\n        /* \"#utility.yul\":30120:30121   */\n      0x00\n        /* \"#utility.yul\":30109:30118   */\n      dup4\n        /* \"#utility.yul\":30105:30122   */\n      add\n        /* \"#utility.yul\":30098:30145   */\n      mstore\n        /* \"#utility.yul\":30162:30293   */\n      tag_649\n        /* \"#utility.yul\":30288:30292   */\n      dup2\n        /* \"#utility.yul\":30162:30293   */\n      tag_401\n      jump\t// in\n    tag_649:\n        /* \"#utility.yul\":30154:30293   */\n      swap1\n      pop\n        /* \"#utility.yul\":29881:30300   */\n      swap2\n      swap1\n      pop\n      jump\t// out\n\n    auxdata: 0xa26469706673582212205669b942e57eb30ce2044af042667edb16b9c3b864e8940e46ebf877b7edb9c264736f6c63430008180033\n}\n",
				"bytecode": {
					"linkReferences": {},
					"object": "608060405234801562000010575f80fd5b5060405162002ba838038062002ba8833981810160405281019062000036919062000426565b335f73ffffffffffffffffffffffffffffffffffffffff168173ffffffffffffffffffffffffffffffffffffffff1603620000aa575f6040517f1e4fbdf7000000000000000000000000000000000000000000000000000000008152600401620000a19190620004bb565b60405180910390fd5b620000bb81620002c860201b60201c565b505f8060146101000a81548160ff021916908315150217905550600180819055505f73ffffffffffffffffffffffffffffffffffffffff168573ffffffffffffffffffffffffffffffffffffffff16036200014d576040517f08c379a0000000000000000000000000000000000000000000000000000000008152600401620001449062000534565b60405180910390fd5b42841162000192576040517f08c379a00000000000000000000000000000000000000000000000000000000081526004016200018990620005a2565b60405180910390fd5b838311620001d7576040517f08c379a0000000000000000000000000000000000000000000000000000000008152600401620001ce9062000636565b60405180910390fd5b5f82116200021c576040517f08c379a00000000000000000000000000000000000000000000000000000000081526004016200021390620006a4565b60405180910390fd5b5f811162000261576040517f08c379a0000000000000000000000000000000000000000000000000000000008152600401620002589062000738565b60405180910390fd5b8460025f6101000a81548173ffffffffffffffffffffffffffffffffffffffff021916908373ffffffffffffffffffffffffffffffffffffffff16021790555083600381905550826004819055508160058190555080600781905550505050505062000758565b5f805f9054906101000a900473ffffffffffffffffffffffffffffffffffffffff169050815f806101000a81548173ffffffffffffffffffffffffffffffffffffffff021916908373ffffffffffffffffffffffffffffffffffffffff1602179055508173ffffffffffffffffffffffffffffffffffffffff168173ffffffffffffffffffffffffffffffffffffffff167f8be0079c531659141344cd1fd0a4f28419497f9722a3daafe3b4186f6b6457e060405160405180910390a35050565b5f80fd5b5f73ffffffffffffffffffffffffffffffffffffffff82169050919050565b5f620003b8826200038d565b9050919050565b620003ca81620003ac565b8114620003d5575f80fd5b50565b5f81519050620003e881620003bf565b92915050565b5f819050919050565b6200040281620003ee565b81146200040d575f80fd5b50565b5f815190506200042081620003f7565b92915050565b5f805f805f60a0868803121562000442576200044162000389565b5b5f6200045188828901620003d8565b9550506020620004648882890162000410565b9450506040620004778882890162000410565b93505060606200048a8882890162000410565b92505060806200049d8882890162000410565b9150509295509295909350565b620004b581620003ac565b82525050565b5f602082019050620004d05f830184620004aa565b92915050565b5f82825260208201905092915050565b7f496e76616c696420746f6b656e206164647265737300000000000000000000005f82015250565b5f6200051c601583620004d6565b91506200052982620004e6565b602082019050919050565b5f6020820190508181035f8301526200054d816200050e565b9050919050565b7f53746172742074696d65206d75737420626520696e20667574757265000000005f82015250565b5f6200058a601c83620004d6565b9150620005978262000554565b602082019050919050565b5f6020820190508181035f830152620005bb816200057c565b9050919050565b7f456e642074696d65206d7573742062652061667465722073746172742074696d5f8201527f6500000000000000000000000000000000000000000000000000000000000000602082015250565b5f6200061e602183620004d6565b91506200062b82620005c2565b604082019050919050565b5f6020820190508181035f8301526200064f8162000610565b9050919050565b7f4861726420636170206d7573742062652067726561746572207468616e2030005f82015250565b5f6200068c601f83620004d6565b9150620006998262000656565b602082019050919050565b5f6020820190508181035f830152620006bd816200067e565b9050919050565b7f546f6b656e207072696365206d7573742062652067726561746572207468616e5f8201527f2030000000000000000000000000000000000000000000000000000000000000602082015250565b5f62000720602283620004d6565b91506200072d82620006c4565b604082019050919050565b5f6020820190508181035f830152620007518162000712565b9050919050565b61244280620007665f395ff3fe608060405260043610610142575f3560e01c806378e97925116100b5578063d0febe4c1161006e578063d0febe4c14610411578063d7299ef71461041b578063ed622dd314610443578063f2fde38b1461046b578063fb86a40414610493578063fc0c546a146104bd57610151565b806378e97925146103175780637ff9b5961461034157806384d242261461036b5780638da5cb5b146103a7578063c5c4744c146103d1578063c8bdbfb6146103fb57610151565b80635c975abb116101075780635c975abb1461021a5780636386c1c714610244578063676c0d7714610281578063703df793146102a9578063715018a6146102d1578063767fa723146102e757610151565b806208f3851461015b57806324600fc3146101885780633197cbb61461019e57806342e94c90146101c857806348c54b9d1461020457610151565b366101515761014f6104e7565b005b6101596104e7565b005b348015610166575f80fd5b5061016f61081a565b60405161017f9493929190611623565b60405180910390f35b348015610193575f80fd5b5061019c61088a565b005b3480156101a9575f80fd5b506101b2610a2f565b6040516101bf9190611666565b60405180910390f35b3480156101d3575f80fd5b506101ee60048036038101906101e991906116dd565b610a35565b6040516101fb9190611666565b60405180910390f35b34801561020f575f80fd5b50610218610a4a565b005b348015610225575f80fd5b5061022e610ccc565b60405161023b9190611722565b60405180910390f35b34801561024f575f80fd5b5061026a600480360381019061026591906116dd565b610ce1565b60405161027892919061173b565b60405180910390f35b34801561028c575f80fd5b506102a760048036038101906102a2919061178c565b610d68565b005b3480156102b4575f80fd5b506102cf60048036038101906102ca919061178c565b610dbc565b005b3480156102dc575f80fd5b506102e5610e12565b005b3480156102f2575f80fd5b506102fb610e25565b60405161030e97969594939291906117b7565b60405180910390f35b348015610322575f80fd5b5061032b610e93565b6040516103389190611666565b60405180910390f35b34801561034c575f80fd5b50610355610e99565b6040516103629190611666565b60405180910390f35b348015610376575f80fd5b50610391600480360381019061038c91906116dd565b610e9f565b60405161039e9190611666565b60405180910390f35b3480156103b2575f80fd5b506103bb610eb4565b6040516103c89190611833565b60405180910390f35b3480156103dc575f80fd5b506103e5610edb565b6040516103f29190611666565b60405180910390f35b348015610406575f80fd5b5061040f610ee1565b005b6104196104e7565b005b348015610426575f80fd5b50610441600480360381019061043c9190611876565b611145565b005b34801561044e575f80fd5b50610469600480360381019061046491906118a1565b6111c1565b005b348015610476575f80fd5b50610491600480360381019061048c91906116dd565b61125f565b005b34801561049e575f80fd5b506104a76112e3565b6040516104b49190611666565b60405180910390f35b3480156104c8575f80fd5b506104d16112e9565b6040516104de919061193a565b60405180910390f35b60035442101561052c576040517f08c379a0000000000000000000000000000000000000000000000000000000008152600401610523906119ad565b60405180910390fd5b600454421115610571576040517f08c379a000000000000000000000000000000000000000000000000000000000815260040161056890611a15565b60405180910390fd5b610579610ccc565b156105b9576040517f08c379a00000000000000000000000000000000000000000000000000000000081526004016105b090611a7d565b60405180910390fd5b600554600654106105ff576040517f08c379a00000000000000000000000000000000000000000000000000000000081526004016105f690611ae5565b60405180910390fd5b61060761130e565b5f3411610649576040517f08c379a000000000000000000000000000000000000000000000000000000000815260040161064090611b4d565b60405180910390fd5b6005543460065461065a9190611b98565b111561069b576040517f08c379a000000000000000000000000000000000000000000000000000000000815260040161069290611c15565b60405180910390fd5b5f600754670de0b6b3a7640000346106b39190611c33565b6106bd9190611ca1565b90505f8111610701576040517f08c379a00000000000000000000000000000000000000000000000000000000081526004016106f890611d1b565b60405180910390fd5b3460085f3373ffffffffffffffffffffffffffffffffffffffff1673ffffffffffffffffffffffffffffffffffffffff1681526020019081526020015f205f82825461074d9190611b98565b925050819055508060095f3373ffffffffffffffffffffffffffffffffffffffff1673ffffffffffffffffffffffffffffffffffffffff1681526020019081526020015f205f8282546107a09190611b98565b925050819055503460065f8282546107b89190611b98565b925050819055503373ffffffffffffffffffffffffffffffffffffffff167f8fafebcaf9d154343dad25669bfa277f4fbacd7ac6b0c4fed522580e040a0f33348360405161080792919061173b565b60405180910390a25061081861135d565b565b5f805f805f60065460055411610830575f610841565b6006546005546108409190611d39565b5b90505f8060055411610853575f610870565b60055460646006546108659190611c33565b61086f9190611ca1565b5b905060065460055483839550955095509550505090919293565b610892611366565b60045442116108d6576040517f08c379a00000000000000000000000000000000000000000000000000000000081526004016108cd90611db6565b60405180910390fd5b5f6006541161091a576040517f08c379a000000000000000000000000000000000000000000000000000000000815260040161091190611e1e565b60405180910390fd5b5f60065490505f6006819055505f610930610eb4565b73ffffffffffffffffffffffffffffffffffffffff168260405161095390611e69565b5f6040518083038185875af1925050503d805f811461098d576040519150601f19603f3d011682016040523d82523d5f602084013e610992565b606091505b50509050806109d6576040517f08c379a00000000000000000000000000000000000000000000000000000000081526004016109cd90611ec7565b60405180910390fd5b6109de610eb4565b73ffffffffffffffffffffffffffffffffffffffff167feaff4b37086828766ad3268786972c0cd24259d4c87a80f9d3963a3c3d999b0d83604051610a239190611666565b60405180910390a25050565b60045481565b6008602052805f5260405f205f915090505481565b610a5261130e565b6004544211610a96576040517f08c379a0000000000000000000000000000000000000000000000000000000008152600401610a8d90611db6565b60405180910390fd5b5f60095f3373ffffffffffffffffffffffffffffffffffffffff1673ffffffffffffffffffffffffffffffffffffffff1681526020019081526020015f205411610b15576040517f08c379a0000000000000000000000000000000000000000000000000000000008152600401610b0c90611f2f565b60405180910390fd5b5f60095f3373ffffffffffffffffffffffffffffffffffffffff1673ffffffffffffffffffffffffffffffffffffffff1681526020019081526020015f205490505f60095f3373ffffffffffffffffffffffffffffffffffffffff1673ffffffffffffffffffffffffffffffffffffffff1681526020019081526020015f208190555060025f9054906101000a900473ffffffffffffffffffffffffffffffffffffffff1673ffffffffffffffffffffffffffffffffffffffff1663a9059cbb33836040518363ffffffff1660e01b8152600401610bf4929190611f4d565b6020604051808303815f875af1158015610c10573d5f803e3d5ffd5b505050506040513d601f19601f82011682018060405250810190610c349190611f88565b610c73576040517f08c379a0000000000000000000000000000000000000000000000000000000008152600401610c6a90611ffd565b60405180910390fd5b3373ffffffffffffffffffffffffffffffffffffffff167f896e034966eaaf1adc54acc0f257056febbd300c9e47182cf761982cf1f5e43082604051610cb99190611666565b60405180910390a250610cca61135d565b565b5f8060149054906101000a900460ff16905090565b5f8060085f8473ffffffffffffffffffffffffffffffffffffffff1673ffffffffffffffffffffffffffffffffffffffff1681526020019081526020015f205460095f8573ffffffffffffffffffffffffffffffffffffffff1673ffffffffffffffffffffffffffffffffffffffff1681526020019081526020015f205491509150915091565b610d70611366565b5f8111610db2576040517f08c379a0000000000000000000000000000000000000000000000000000000008152600401610da99061208b565b60405180910390fd5b8060078190555050565b610dc4611366565b6006548111610e08576040517f08c379a0000000000000000000000000000000000000000000000000000000008152600401610dff90612119565b60405180910390fd5b8060058190555050565b610e1a611366565b610e235f6113ed565b565b5f805f805f805f806003544210158015610e4157506004544211155b8015610e525750610e50610ccc565b155b8015610e615750600554600654105b9050600354600454600554600654600754610e7a610ccc565b8697509750975097509750975097505090919293949596565b60035481565b60075481565b6009602052805f5260405f205f915090505481565b5f805f9054906101000a900473ffffffffffffffffffffffffffffffffffffffff16905090565b60065481565b610ee9611366565b6004544211610f2d576040517f08c379a0000000000000000000000000000000000000000000000000000000008152600401610f2490611db6565b60405180910390fd5b5f60025f9054906101000a900473ffffffffffffffffffffffffffffffffffffffff1673ffffffffffffffffffffffffffffffffffffffff166370a08231306040518263ffffffff1660e01b8152600401610f889190611833565b602060405180830381865afa158015610fa3573d5f803e3d5ffd5b505050506040513d601f19601f82011682018060405250810190610fc7919061214b565b90505f811161100b576040517f08c379a0000000000000000000000000000000000000000000000000000000008152600401611002906121c0565b60405180910390fd5b60025f9054906101000a900473ffffffffffffffffffffffffffffffffffffffff1673ffffffffffffffffffffffffffffffffffffffff1663a9059cbb611050610eb4565b836040518363ffffffff1660e01b815260040161106e929190611f4d565b6020604051808303815f875af115801561108a573d5f803e3d5ffd5b505050506040513d601f19601f820116820180604052508101906110ae9190611f88565b6110ed576040517f08c379a00000000000000000000000000000000000000000000000000000000081526004016110e490611ffd565b60405180910390fd5b6110f5610eb4565b73ffffffffffffffffffffffffffffffffffffffff167f328a7cca57e89d3b52f56190ef4e06d91c987e3ef2640db3be95d65f818e2d128260405161113a9190611666565b60405180910390a250565b61114d611366565b80156111605761115b6114ae565b611169565b611168611510565b5b611171610eb4565b73ffffffffffffffffffffffffffffffffffffffff167fac5c0908ed5f21c95ac4028bbe6d55d00fea102284f1c7ff590d33d19ed753f6826040516111b69190611722565b60405180910390a250565b6111c9611366565b42821161120b576040517f08c379a000000000000000000000000000000000000000000000000000000000815260040161120290612228565b60405180910390fd5b81811161124d576040517f08c379a0000000000000000000000000000000000000000000000000000000008152600401611244906122b6565b60405180910390fd5b81600381905550806004819055505050565b611267611366565b5f73ffffffffffffffffffffffffffffffffffffffff168173ffffffffffffffffffffffffffffffffffffffff16036112d7575f6040517f1e4fbdf70000000000000000000000000000000000000000000000000000000081526004016112ce9190611833565b60405180910390fd5b6112e0816113ed565b50565b60055481565b60025f9054906101000a900473ffffffffffffffffffffffffffffffffffffffff1681565b600260015403611353576040517f08c379a000000000000000000000000000000000000000000000000000000000815260040161134a9061231e565b60405180910390fd5b6002600181905550565b60018081905550565b61136e611571565b73ffffffffffffffffffffffffffffffffffffffff1661138c610eb4565b73ffffffffffffffffffffffffffffffffffffffff16146113eb576113af611571565b6040517f118cdaa70000000000000000000000000000000000000000000000000000000081526004016113e29190611833565b60405180910390fd5b565b5f805f9054906101000a900473ffffffffffffffffffffffffffffffffffffffff169050815f806101000a81548173ffffffffffffffffffffffffffffffffffffffff021916908373ffffffffffffffffffffffffffffffffffffffff1602179055508173ffffffffffffffffffffffffffffffffffffffff168173ffffffffffffffffffffffffffffffffffffffff167f8be0079c531659141344cd1fd0a4f28419497f9722a3daafe3b4186f6b6457e060405160405180910390a35050565b6114b6611578565b60015f60146101000a81548160ff0219169083151502179055507f62e78cea01bee320cd4e420270b5ea74000d11b0c9f74754ebdbfc544b05a2586114f9611571565b6040516115069190611833565b60405180910390a1565b6115186115c2565b5f8060146101000a81548160ff0219169083151502179055507f5db9ee0a495bf2e6ff9c91a7834c1ba4fdd244a5e8aa4e537bd38aeae4b073aa61155a611571565b6040516115679190611833565b60405180910390a1565b5f33905090565b611580610ccc565b156115c0576040517f08c379a00000000000000000000000000000000000000000000000000000000081526004016115b790612386565b60405180910390fd5b565b6115ca610ccc565b611609576040517f08c379a0000000000000000000000000000000000000000000000000000000008152600401611600906123ee565b60405180910390fd5b565b5f819050919050565b61161d8161160b565b82525050565b5f6080820190506116365f830187611614565b6116436020830186611614565b6116506040830185611614565b61165d6060830184611614565b95945050505050565b5f6020820190506116795f830184611614565b92915050565b5f80fd5b5f73ffffffffffffffffffffffffffffffffffffffff82169050919050565b5f6116ac82611683565b9050919050565b6116bc816116a2565b81146116c6575f80fd5b50565b5f813590506116d7816116b3565b92915050565b5f602082840312156116f2576116f161167f565b5b5f6116ff848285016116c9565b91505092915050565b5f8115159050919050565b61171c81611708565b82525050565b5f6020820190506117355f830184611713565b92915050565b5f60408201905061174e5f830185611614565b61175b6020830184611614565b9392505050565b61176b8161160b565b8114611775575f80fd5b50565b5f8135905061178681611762565b92915050565b5f602082840312156117a1576117a061167f565b5b5f6117ae84828501611778565b91505092915050565b5f60e0820190506117ca5f83018a611614565b6117d76020830189611614565b6117e46040830188611614565b6117f16060830187611614565b6117fe6080830186611614565b61180b60a0830185611713565b61181860c0830184611713565b98975050505050505050565b61182d816116a2565b82525050565b5f6020820190506118465f830184611824565b92915050565b61185581611708565b811461185f575f80fd5b50565b5f813590506118708161184c565b92915050565b5f6020828403121561188b5761188a61167f565b5b5f61189884828501611862565b91505092915050565b5f80604083850312156118b7576118b661167f565b5b5f6118c485828601611778565b92505060206118d585828601611778565b9150509250929050565b5f819050919050565b5f6119026118fd6118f884611683565b6118df565b611683565b9050919050565b5f611913826118e8565b9050919050565b5f61192482611909565b9050919050565b6119348161191a565b82525050565b5f60208201905061194d5f83018461192b565b92915050565b5f82825260208201905092915050565b7f50726573616c65206e6f742073746172746564000000000000000000000000005f82015250565b5f611997601383611953565b91506119a282611963565b602082019050919050565b5f6020820190508181035f8301526119c48161198b565b9050919050565b7f50726573616c6520656e646564000000000000000000000000000000000000005f82015250565b5f6119ff600d83611953565b9150611a0a826119cb565b602082019050919050565b5f6020820190508181035f830152611a2c816119f3565b9050919050565b7f50726573616c65207061757365640000000000000000000000000000000000005f82015250565b5f611a67600e83611953565b9150611a7282611a33565b602082019050919050565b5f6020820190508181035f830152611a9481611a5b565b9050919050565b7f48617264206361702072656163686564000000000000000000000000000000005f82015250565b5f611acf601083611953565b9150611ada82611a9b565b602082019050919050565b5f6020820190508181035f830152611afc81611ac3565b9050919050565b7f416d6f756e74206d7573742062652067726561746572207468616e20300000005f82015250565b5f611b37601d83611953565b9150611b4282611b03565b602082019050919050565b5f6020820190508181035f830152611b6481611b2b565b9050919050565b7f4e487b71000000000000000000000000000000000000000000000000000000005f52601160045260245ffd5b5f611ba28261160b565b9150611bad8361160b565b9250828201905080821115611bc557611bc4611b6b565b5b92915050565b7f45786365656473206861726420636170000000000000000000000000000000005f82015250565b5f611bff601083611953565b9150611c0a82611bcb565b602082019050919050565b5f6020820190508181035f830152611c2c81611bf3565b9050919050565b5f611c3d8261160b565b9150611c488361160b565b9250828202611c568161160b565b91508282048414831517611c6d57611c6c611b6b565b5b5092915050565b7f4e487b71000000000000000000000000000000000000000000000000000000005f52601260045260245ffd5b5f611cab8261160b565b9150611cb68361160b565b925082611cc657611cc5611c74565b5b828204905092915050565b7f4e6f20746f6b656e7320746f20726563656976650000000000000000000000005f82015250565b5f611d05601483611953565b9150611d1082611cd1565b602082019050919050565b5f6020820190508181035f830152611d3281611cf9565b9050919050565b5f611d438261160b565b9150611d4e8361160b565b9250828203905081811115611d6657611d65611b6b565b5b92915050565b7f50726573616c65206e6f7420656e6465640000000000000000000000000000005f82015250565b5f611da0601183611953565b9150611dab82611d6c565b602082019050919050565b5f6020820190508181035f830152611dcd81611d94565b9050919050565b7f4e6f2066756e647320746f2077697468647261770000000000000000000000005f82015250565b5f611e08601483611953565b9150611e1382611dd4565b602082019050919050565b5f6020820190508181035f830152611e3581611dfc565b9050919050565b5f81905092915050565b50565b5f611e545f83611e3c565b9150611e5f82611e46565b5f82019050919050565b5f611e7382611e49565b9150819050919050565b7f5472616e73666572206661696c656400000000000000000000000000000000005f82015250565b5f611eb1600f83611953565b9150611ebc82611e7d565b602082019050919050565b5f6020820190508181035f830152611ede81611ea5565b9050919050565b7f4e6f20746f6b656e7320746f20636c61696d00000000000000000000000000005f82015250565b5f611f19601283611953565b9150611f2482611ee5565b602082019050919050565b5f6020820190508181035f830152611f4681611f0d565b9050919050565b5f604082019050611f605f830185611824565b611f6d6020830184611614565b9392505050565b5f81519050611f828161184c565b92915050565b5f60208284031215611f9d57611f9c61167f565b5b5f611faa84828501611f74565b91505092915050565b7f546f6b656e207472616e73666572206661696c656400000000000000000000005f82015250565b5f611fe7601583611953565b9150611ff282611fb3565b602082019050919050565b5f6020820190508181035f83015261201481611fdb565b9050919050565b7f546f6b656e207072696365206d7573742062652067726561746572207468616e5f8201527f2030000000000000000000000000000000000000000000000000000000000000602082015250565b5f612075602283611953565b91506120808261201b565b604082019050919050565b5f6020820190508181035f8301526120a281612069565b9050919050565b7f4861726420636170206d7573742062652067726561746572207468616e20746f5f8201527f74616c2072616973656400000000000000000000000000000000000000000000602082015250565b5f612103602a83611953565b915061210e826120a9565b604082019050919050565b5f6020820190508181035f830152612130816120f7565b9050919050565b5f8151905061214581611762565b92915050565b5f602082840312156121605761215f61167f565b5b5f61216d84828501612137565b91505092915050565b7f4e6f20756e736f6c6420746f6b656e73000000000000000000000000000000005f82015250565b5f6121aa601083611953565b91506121b582612176565b602082019050919050565b5f6020820190508181035f8301526121d78161219e565b9050919050565b7f53746172742074696d65206d75737420626520696e20667574757265000000005f82015250565b5f612212601c83611953565b915061221d826121de565b602082019050919050565b5f6020820190508181035f83015261223f81612206565b9050919050565b7f456e642074696d65206d7573742062652061667465722073746172742074696d5f8201527f6500000000000000000000000000000000000000000000000000000000000000602082015250565b5f6122a0602183611953565b91506122ab82612246565b604082019050919050565b5f6020820190508181035f8301526122cd81612294565b9050919050565b7f5265656e7472616e637947756172643a207265656e7472616e742063616c6c005f82015250565b5f612308601f83611953565b9150612313826122d4565b602082019050919050565b5f6020820190508181035f830152612335816122fc565b9050919050565b7f5061757361626c653a20706175736564000000000000000000000000000000005f82015250565b5f612370601083611953565b915061237b8261233c565b602082019050919050565b5f6020820190508181035f83015261239d81612364565b9050919050565b7f5061757361626c653a206e6f74207061757365640000000000000000000000005f82015250565b5f6123d8601483611953565b91506123e3826123a4565b602082019050919050565b5f6020820190508181035f830152612405816123cc565b905091905056fea26469706673582212205669b942e57eb30ce2044af042667edb16b9c3b864e8940e46ebf877b7edb9c264736f6c63430008180033",
					"opcodes": "PUSH1 0x80 PUSH1 0x40 MSTORE CALLVALUE DUP1 ISZERO PUSH3 0x10 JUMPI PUSH0 DUP1 REVERT JUMPDEST POP PUSH1 0x40 MLOAD PUSH3 0x2BA8 CODESIZE SUB DUP1 PUSH3 0x2BA8 DUP4 CODECOPY DUP2 DUP2 ADD PUSH1 0x40 MSTORE DUP2 ADD SWAP1 PUSH3 0x36 SWAP2 SWAP1 PUSH3 0x426 JUMP JUMPDEST CALLER PUSH0 PUSH20 0xFFFFFFFFFFFFFFFFFFFFFFFFFFFFFFFFFFFFFFFF AND DUP2 PUSH20 0xFFFFFFFFFFFFFFFFFFFFFFFFFFFFFFFFFFFFFFFF AND SUB PUSH3 0xAA JUMPI PUSH0 PUSH1 0x40 MLOAD PUSH32 0x1E4FBDF700000000000000000000000000000000000000000000000000000000 DUP2 MSTORE PUSH1 0x4 ADD PUSH3 0xA1 SWAP2 SWAP1 PUSH3 0x4BB JUMP JUMPDEST PUSH1 0x40 MLOAD DUP1 SWAP2 SUB SWAP1 REVERT JUMPDEST PUSH3 0xBB DUP2 PUSH3 0x2C8 PUSH1 0x20 SHL PUSH1 0x20 SHR JUMP JUMPDEST POP PUSH0 DUP1 PUSH1 0x14 PUSH2 0x100 EXP DUP2 SLOAD DUP2 PUSH1 0xFF MUL NOT AND SWAP1 DUP4 ISZERO ISZERO MUL OR SWAP1 SSTORE POP PUSH1 0x1 DUP1 DUP2 SWAP1 SSTORE POP PUSH0 PUSH20 0xFFFFFFFFFFFFFFFFFFFFFFFFFFFFFFFFFFFFFFFF AND DUP6 PUSH20 0xFFFFFFFFFFFFFFFFFFFFFFFFFFFFFFFFFFFFFFFF AND SUB PUSH3 0x14D JUMPI PUSH1 0x40 MLOAD PUSH32 0x8C379A000000000000000000000000000000000000000000000000000000000 DUP2 MSTORE PUSH1 0x4 ADD PUSH3 0x144 SWAP1 PUSH3 0x534 JUMP JUMPDEST PUSH1 0x40 MLOAD DUP1 SWAP2 SUB SWAP1 REVERT JUMPDEST TIMESTAMP DUP5 GT PUSH3 0x192 JUMPI PUSH1 0x40 MLOAD PUSH32 0x8C379A000000000000000000000000000000000000000000000000000000000 DUP2 MSTORE PUSH1 0x4 ADD PUSH3 0x189 SWAP1 PUSH3 0x5A2 JUMP JUMPDEST PUSH1 0x40 MLOAD DUP1 SWAP2 SUB SWAP1 REVERT JUMPDEST DUP4 DUP4 GT PUSH3 0x1D7 JUMPI PUSH1 0x40 MLOAD PUSH32 0x8C379A000000000000000000000000000000000000000000000000000000000 DUP2 MSTORE PUSH1 0x4 ADD PUSH3 0x1CE SWAP1 PUSH3 0x636 JUMP JUMPDEST PUSH1 0x40 MLOAD DUP1 SWAP2 SUB SWAP1 REVERT JUMPDEST PUSH0 DUP3 GT PUSH3 0x21C JUMPI PUSH1 0x40 MLOAD PUSH32 0x8C379A000000000000000000000000000000000000000000000000000000000 DUP2 MSTORE PUSH1 0x4 ADD PUSH3 0x213 SWAP1 PUSH3 0x6A4 JUMP JUMPDEST PUSH1 0x40 MLOAD DUP1 SWAP2 SUB SWAP1 REVERT JUMPDEST PUSH0 DUP2 GT PUSH3 0x261 JUMPI PUSH1 0x40 MLOAD PUSH32 0x8C379A000000000000000000000000000000000000000000000000000000000 DUP2 MSTORE PUSH1 0x4 ADD PUSH3 0x258 SWAP1 PUSH3 0x738 JUMP JUMPDEST PUSH1 0x40 MLOAD DUP1 SWAP2 SUB SWAP1 REVERT JUMPDEST DUP5 PUSH1 0x2 PUSH0 PUSH2 0x100 EXP DUP2 SLOAD DUP2 PUSH20 0xFFFFFFFFFFFFFFFFFFFFFFFFFFFFFFFFFFFFFFFF MUL NOT AND SWAP1 DUP4 PUSH20 0xFFFFFFFFFFFFFFFFFFFFFFFFFFFFFFFFFFFFFFFF AND MUL OR SWAP1 SSTORE POP DUP4 PUSH1 0x3 DUP2 SWAP1 SSTORE POP DUP3 PUSH1 0x4 DUP2 SWAP1 SSTORE POP DUP2 PUSH1 0x5 DUP2 SWAP1 SSTORE POP DUP1 PUSH1 0x7 DUP2 SWAP1 SSTORE POP POP POP POP POP POP PUSH3 0x758 JUMP JUMPDEST PUSH0 DUP1 PUSH0 SWAP1 SLOAD SWAP1 PUSH2 0x100 EXP SWAP1 DIV PUSH20 0xFFFFFFFFFFFFFFFFFFFFFFFFFFFFFFFFFFFFFFFF AND SWAP1 POP DUP2 PUSH0 DUP1 PUSH2 0x100 EXP DUP2 SLOAD DUP2 PUSH20 0xFFFFFFFFFFFFFFFFFFFFFFFFFFFFFFFFFFFFFFFF MUL NOT AND SWAP1 DUP4 PUSH20 0xFFFFFFFFFFFFFFFFFFFFFFFFFFFFFFFFFFFFFFFF AND MUL OR SWAP1 SSTORE POP DUP2 PUSH20 0xFFFFFFFFFFFFFFFFFFFFFFFFFFFFFFFFFFFFFFFF AND DUP2 PUSH20 0xFFFFFFFFFFFFFFFFFFFFFFFFFFFFFFFFFFFFFFFF AND PUSH32 0x8BE0079C531659141344CD1FD0A4F28419497F9722A3DAAFE3B4186F6B6457E0 PUSH1 0x40 MLOAD PUSH1 0x40 MLOAD DUP1 SWAP2 SUB SWAP1 LOG3 POP POP JUMP JUMPDEST PUSH0 DUP1 REVERT JUMPDEST PUSH0 PUSH20 0xFFFFFFFFFFFFFFFFFFFFFFFFFFFFFFFFFFFFFFFF DUP3 AND SWAP1 POP SWAP2 SWAP1 POP JUMP JUMPDEST PUSH0 PUSH3 0x3B8 DUP3 PUSH3 0x38D JUMP JUMPDEST SWAP1 POP SWAP2 SWAP1 POP JUMP JUMPDEST PUSH3 0x3CA DUP2 PUSH3 0x3AC JUMP JUMPDEST DUP2 EQ PUSH3 0x3D5 JUMPI PUSH0 DUP1 REVERT JUMPDEST POP JUMP JUMPDEST PUSH0 DUP2 MLOAD SWAP1 POP PUSH3 0x3E8 DUP2 PUSH3 0x3BF JUMP JUMPDEST SWAP3 SWAP2 POP POP JUMP JUMPDEST PUSH0 DUP2 SWAP1 POP SWAP2 SWAP1 POP JUMP JUMPDEST PUSH3 0x402 DUP2 PUSH3 0x3EE JUMP JUMPDEST DUP2 EQ PUSH3 0x40D JUMPI PUSH0 DUP1 REVERT JUMPDEST POP JUMP JUMPDEST PUSH0 DUP2 MLOAD SWAP1 POP PUSH3 0x420 DUP2 PUSH3 0x3F7 JUMP JUMPDEST SWAP3 SWAP2 POP POP JUMP JUMPDEST PUSH0 DUP1 PUSH0 DUP1 PUSH0 PUSH1 0xA0 DUP7 DUP9 SUB SLT ISZERO PUSH3 0x442 JUMPI PUSH3 0x441 PUSH3 0x389 JUMP JUMPDEST JUMPDEST PUSH0 PUSH3 0x451 DUP9 DUP3 DUP10 ADD PUSH3 0x3D8 JUMP JUMPDEST SWAP6 POP POP PUSH1 0x20 PUSH3 0x464 DUP9 DUP3 DUP10 ADD PUSH3 0x410 JUMP JUMPDEST SWAP5 POP POP PUSH1 0x40 PUSH3 0x477 DUP9 DUP3 DUP10 ADD PUSH3 0x410 JUMP JUMPDEST SWAP4 POP POP PUSH1 0x60 PUSH3 0x48A DUP9 DUP3 DUP10 ADD PUSH3 0x410 JUMP JUMPDEST SWAP3 POP POP PUSH1 0x80 PUSH3 0x49D DUP9 DUP3 DUP10 ADD PUSH3 0x410 JUMP JUMPDEST SWAP2 POP POP SWAP3 SWAP6 POP SWAP3 SWAP6 SWAP1 SWAP4 POP JUMP JUMPDEST PUSH3 0x4B5 DUP2 PUSH3 0x3AC JUMP JUMPDEST DUP3 MSTORE POP POP JUMP JUMPDEST PUSH0 PUSH1 0x20 DUP3 ADD SWAP1 POP PUSH3 0x4D0 PUSH0 DUP4 ADD DUP5 PUSH3 0x4AA JUMP JUMPDEST SWAP3 SWAP2 POP POP JUMP JUMPDEST PUSH0 DUP3 DUP3 MSTORE PUSH1 0x20 DUP3 ADD SWAP1 POP SWAP3 SWAP2 POP POP JUMP JUMPDEST PUSH32 0x496E76616C696420746F6B656E20616464726573730000000000000000000000 PUSH0 DUP3 ADD MSTORE POP JUMP JUMPDEST PUSH0 PUSH3 0x51C PUSH1 0x15 DUP4 PUSH3 0x4D6 JUMP JUMPDEST SWAP2 POP PUSH3 0x529 DUP3 PUSH3 0x4E6 JUMP JUMPDEST PUSH1 0x20 DUP3 ADD SWAP1 POP SWAP2 SWAP1 POP JUMP JUMPDEST PUSH0 PUSH1 0x20 DUP3 ADD SWAP1 POP DUP2 DUP2 SUB PUSH0 DUP4 ADD MSTORE PUSH3 0x54D DUP2 PUSH3 0x50E JUMP JUMPDEST SWAP1 POP SWAP2 SWAP1 POP JUMP JUMPDEST PUSH32 0x53746172742074696D65206D75737420626520696E2066757475726500000000 PUSH0 DUP3 ADD MSTORE POP JUMP JUMPDEST PUSH0 PUSH3 0x58A PUSH1 0x1C DUP4 PUSH3 0x4D6 JUMP JUMPDEST SWAP2 POP PUSH3 0x597 DUP3 PUSH3 0x554 JUMP JUMPDEST PUSH1 0x20 DUP3 ADD SWAP1 POP SWAP2 SWAP1 POP JUMP JUMPDEST PUSH0 PUSH1 0x20 DUP3 ADD SWAP1 POP DUP2 DUP2 SUB PUSH0 DUP4 ADD MSTORE PUSH3 0x5BB DUP2 PUSH3 0x57C JUMP JUMPDEST SWAP1 POP SWAP2 SWAP1 POP JUMP JUMPDEST PUSH32 0x456E642074696D65206D7573742062652061667465722073746172742074696D PUSH0 DUP3 ADD MSTORE PUSH32 0x6500000000000000000000000000000000000000000000000000000000000000 PUSH1 0x20 DUP3 ADD MSTORE POP JUMP JUMPDEST PUSH0 PUSH3 0x61E PUSH1 0x21 DUP4 PUSH3 0x4D6 JUMP JUMPDEST SWAP2 POP PUSH3 0x62B DUP3 PUSH3 0x5C2 JUMP JUMPDEST PUSH1 0x40 DUP3 ADD SWAP1 POP SWAP2 SWAP1 POP JUMP JUMPDEST PUSH0 PUSH1 0x20 DUP3 ADD SWAP1 POP DUP2 DUP2 SUB PUSH0 DUP4 ADD MSTORE PUSH3 0x64F DUP2 PUSH3 0x610 JUMP JUMPDEST SWAP1 POP SWAP2 SWAP1 POP JUMP JUMPDEST PUSH32 0x4861726420636170206D7573742062652067726561746572207468616E203000 PUSH0 DUP3 ADD MSTORE POP JUMP JUMPDEST PUSH0 PUSH3 0x68C PUSH1 0x1F DUP4 PUSH3 0x4D6 JUMP JUMPDEST SWAP2 POP PUSH3 0x699 DUP3 PUSH3 0x656 JUMP JUMPDEST PUSH1 0x20 DUP3 ADD SWAP1 POP SWAP2 SWAP1 POP JUMP JUMPDEST PUSH0 PUSH1 0x20 DUP3 ADD SWAP1 POP DUP2 DUP2 SUB PUSH0 DUP4 ADD MSTORE PUSH3 0x6BD DUP2 PUSH3 0x67E JUMP JUMPDEST SWAP1 POP SWAP2 SWAP1 POP JUMP JUMPDEST PUSH32 0x546F6B656E207072696365206D7573742062652067726561746572207468616E PUSH0 DUP3 ADD MSTORE PUSH32 0x2030000000000000000000000000000000000000000000000000000000000000 PUSH1 0x20 DUP3 ADD MSTORE POP JUMP JUMPDEST PUSH0 PUSH3 0x720 PUSH1 0x22 DUP4 PUSH3 0x4D6 JUMP JUMPDEST SWAP2 POP PUSH3 0x72D DUP3 PUSH3 0x6C4 JUMP JUMPDEST PUSH1 0x40 DUP3 ADD SWAP1 POP SWAP2 SWAP1 POP JUMP JUMPDEST PUSH0 PUSH1 0x20 DUP3 ADD SWAP1 POP DUP2 DUP2 SUB PUSH0 DUP4 ADD MSTORE PUSH3 0x751 DUP2 PUSH3 0x712 JUMP JUMPDEST SWAP1 POP SWAP2 SWAP1 POP JUMP JUMPDEST PUSH2 0x2442 DUP1 PUSH3 0x766 PUSH0 CODECOPY PUSH0 RETURN INVALID PUSH1 0x80 PUSH1 0x40 MSTORE PUSH1 0x4 CALLDATASIZE LT PUSH2 0x142 JUMPI PUSH0 CALLDATALOAD PUSH1 0xE0 SHR DUP1 PUSH4 0x78E97925 GT PUSH2 0xB5 JUMPI DUP1 PUSH4 0xD0FEBE4C GT PUSH2 0x6E JUMPI DUP1 PUSH4 0xD0FEBE4C EQ PUSH2 0x411 JUMPI DUP1 PUSH4 0xD7299EF7 EQ PUSH2 0x41B JUMPI DUP1 PUSH4 0xED622DD3 EQ PUSH2 0x443 JUMPI DUP1 PUSH4 0xF2FDE38B EQ PUSH2 0x46B JUMPI DUP1 PUSH4 0xFB86A404 EQ PUSH2 0x493 JUMPI DUP1 PUSH4 0xFC0C546A EQ PUSH2 0x4BD JUMPI PUSH2 0x151 JUMP JUMPDEST DUP1 PUSH4 0x78E97925 EQ PUSH2 0x317 JUMPI DUP1 PUSH4 0x7FF9B596 EQ PUSH2 0x341 JUMPI DUP1 PUSH4 0x84D24226 EQ PUSH2 0x36B JUMPI DUP1 PUSH4 0x8DA5CB5B EQ PUSH2 0x3A7 JUMPI DUP1 PUSH4 0xC5C4744C EQ PUSH2 0x3D1 JUMPI DUP1 PUSH4 0xC8BDBFB6 EQ PUSH2 0x3FB JUMPI PUSH2 0x151 JUMP JUMPDEST DUP1 PUSH4 0x5C975ABB GT PUSH2 0x107 JUMPI DUP1 PUSH4 0x5C975ABB EQ PUSH2 0x21A JUMPI DUP1 PUSH4 0x6386C1C7 EQ PUSH2 0x244 JUMPI DUP1 PUSH4 0x676C0D77 EQ PUSH2 0x281 JUMPI DUP1 PUSH4 0x703DF793 EQ PUSH2 0x2A9 JUMPI DUP1 PUSH4 0x715018A6 EQ PUSH2 0x2D1 JUMPI DUP1 PUSH4 0x767FA723 EQ PUSH2 0x2E7 JUMPI PUSH2 0x151 JUMP JUMPDEST DUP1 PUSH3 0x8F385 EQ PUSH2 0x15B JUMPI DUP1 PUSH4 0x24600FC3 EQ PUSH2 0x188 JUMPI DUP1 PUSH4 0x3197CBB6 EQ PUSH2 0x19E JUMPI DUP1 PUSH4 0x42E94C90 EQ PUSH2 0x1C8 JUMPI DUP1 PUSH4 0x48C54B9D EQ PUSH2 0x204 JUMPI PUSH2 0x151 JUMP JUMPDEST CALLDATASIZE PUSH2 0x151 JUMPI PUSH2 0x14F PUSH2 0x4E7 JUMP JUMPDEST STOP JUMPDEST PUSH2 0x159 PUSH2 0x4E7 JUMP JUMPDEST STOP JUMPDEST CALLVALUE DUP1 ISZERO PUSH2 0x166 JUMPI PUSH0 DUP1 REVERT JUMPDEST POP PUSH2 0x16F PUSH2 0x81A JUMP JUMPDEST PUSH1 0x40 MLOAD PUSH2 0x17F SWAP5 SWAP4 SWAP3 SWAP2 SWAP1 PUSH2 0x1623 JUMP JUMPDEST PUSH1 0x40 MLOAD DUP1 SWAP2 SUB SWAP1 RETURN JUMPDEST CALLVALUE DUP1 ISZERO PUSH2 0x193 JUMPI PUSH0 DUP1 REVERT JUMPDEST POP PUSH2 0x19C PUSH2 0x88A JUMP JUMPDEST STOP JUMPDEST CALLVALUE DUP1 ISZERO PUSH2 0x1A9 JUMPI PUSH0 DUP1 REVERT JUMPDEST POP PUSH2 0x1B2 PUSH2 0xA2F JUMP JUMPDEST PUSH1 0x40 MLOAD PUSH2 0x1BF SWAP2 SWAP1 PUSH2 0x1666 JUMP JUMPDEST PUSH1 0x40 MLOAD DUP1 SWAP2 SUB SWAP1 RETURN JUMPDEST CALLVALUE DUP1 ISZERO PUSH2 0x1D3 JUMPI PUSH0 DUP1 REVERT JUMPDEST POP PUSH2 0x1EE PUSH1 0x4 DUP1 CALLDATASIZE SUB DUP2 ADD SWAP1 PUSH2 0x1E9 SWAP2 SWAP1 PUSH2 0x16DD JUMP JUMPDEST PUSH2 0xA35 JUMP JUMPDEST PUSH1 0x40 MLOAD PUSH2 0x1FB SWAP2 SWAP1 PUSH2 0x1666 JUMP JUMPDEST PUSH1 0x40 MLOAD DUP1 SWAP2 SUB SWAP1 RETURN JUMPDEST CALLVALUE DUP1 ISZERO PUSH2 0x20F JUMPI PUSH0 DUP1 REVERT JUMPDEST POP PUSH2 0x218 PUSH2 0xA4A JUMP JUMPDEST STOP JUMPDEST CALLVALUE DUP1 ISZERO PUSH2 0x225 JUMPI PUSH0 DUP1 REVERT JUMPDEST POP PUSH2 0x22E PUSH2 0xCCC JUMP JUMPDEST PUSH1 0x40 MLOAD PUSH2 0x23B SWAP2 SWAP1 PUSH2 0x1722 JUMP JUMPDEST PUSH1 0x40 MLOAD DUP1 SWAP2 SUB SWAP1 RETURN JUMPDEST CALLVALUE DUP1 ISZERO PUSH2 0x24F JUMPI PUSH0 DUP1 REVERT JUMPDEST POP PUSH2 0x26A PUSH1 0x4 DUP1 CALLDATASIZE SUB DUP2 ADD SWAP1 PUSH2 0x265 SWAP2 SWAP1 PUSH2 0x16DD JUMP JUMPDEST PUSH2 0xCE1 JUMP JUMPDEST PUSH1 0x40 MLOAD PUSH2 0x278 SWAP3 SWAP2 SWAP1 PUSH2 0x173B JUMP JUMPDEST PUSH1 0x40 MLOAD DUP1 SWAP2 SUB SWAP1 RETURN JUMPDEST CALLVALUE DUP1 ISZERO PUSH2 0x28C JUMPI PUSH0 DUP1 REVERT JUMPDEST POP PUSH2 0x2A7 PUSH1 0x4 DUP1 CALLDATASIZE SUB DUP2 ADD SWAP1 PUSH2 0x2A2 SWAP2 SWAP1 PUSH2 0x178C JUMP JUMPDEST PUSH2 0xD68 JUMP JUMPDEST STOP JUMPDEST CALLVALUE DUP1 ISZERO PUSH2 0x2B4 JUMPI PUSH0 DUP1 REVERT JUMPDEST POP PUSH2 0x2CF PUSH1 0x4 DUP1 CALLDATASIZE SUB DUP2 ADD SWAP1 PUSH2 0x2CA SWAP2 SWAP1 PUSH2 0x178C JUMP JUMPDEST PUSH2 0xDBC JUMP JUMPDEST STOP JUMPDEST CALLVALUE DUP1 ISZERO PUSH2 0x2DC JUMPI PUSH0 DUP1 REVERT JUMPDEST POP PUSH2 0x2E5 PUSH2 0xE12 JUMP JUMPDEST STOP JUMPDEST CALLVALUE DUP1 ISZERO PUSH2 0x2F2 JUMPI PUSH0 DUP1 REVERT JUMPDEST POP PUSH2 0x2FB PUSH2 0xE25 JUMP JUMPDEST PUSH1 0x40 MLOAD PUSH2 0x30E SWAP8 SWAP7 SWAP6 SWAP5 SWAP4 SWAP3 SWAP2 SWAP1 PUSH2 0x17B7 JUMP JUMPDEST PUSH1 0x40 MLOAD DUP1 SWAP2 SUB SWAP1 RETURN JUMPDEST CALLVALUE DUP1 ISZERO PUSH2 0x322 JUMPI PUSH0 DUP1 REVERT JUMPDEST POP PUSH2 0x32B PUSH2 0xE93 JUMP JUMPDEST PUSH1 0x40 MLOAD PUSH2 0x338 SWAP2 SWAP1 PUSH2 0x1666 JUMP JUMPDEST PUSH1 0x40 MLOAD DUP1 SWAP2 SUB SWAP1 RETURN JUMPDEST CALLVALUE DUP1 ISZERO PUSH2 0x34C JUMPI PUSH0 DUP1 REVERT JUMPDEST POP PUSH2 0x355 PUSH2 0xE99 JUMP JUMPDEST PUSH1 0x40 MLOAD PUSH2 0x362 SWAP2 SWAP1 PUSH2 0x1666 JUMP JUMPDEST PUSH1 0x40 MLOAD DUP1 SWAP2 SUB SWAP1 RETURN JUMPDEST CALLVALUE DUP1 ISZERO PUSH2 0x376 JUMPI PUSH0 DUP1 REVERT JUMPDEST POP PUSH2 0x391 PUSH1 0x4 DUP1 CALLDATASIZE SUB DUP2 ADD SWAP1 PUSH2 0x38C SWAP2 SWAP1 PUSH2 0x16DD JUMP JUMPDEST PUSH2 0xE9F JUMP JUMPDEST PUSH1 0x40 MLOAD PUSH2 0x39E SWAP2 SWAP1 PUSH2 0x1666 JUMP JUMPDEST PUSH1 0x40 MLOAD DUP1 SWAP2 SUB SWAP1 RETURN JUMPDEST CALLVALUE DUP1 ISZERO PUSH2 0x3B2 JUMPI PUSH0 DUP1 REVERT JUMPDEST POP PUSH2 0x3BB PUSH2 0xEB4 JUMP JUMPDEST PUSH1 0x40 MLOAD PUSH2 0x3C8 SWAP2 SWAP1 PUSH2 0x1833 JUMP JUMPDEST PUSH1 0x40 MLOAD DUP1 SWAP2 SUB SWAP1 RETURN JUMPDEST CALLVALUE DUP1 ISZERO PUSH2 0x3DC JUMPI PUSH0 DUP1 REVERT JUMPDEST POP PUSH2 0x3E5 PUSH2 0xEDB JUMP JUMPDEST PUSH1 0x40 MLOAD PUSH2 0x3F2 SWAP2 SWAP1 PUSH2 0x1666 JUMP JUMPDEST PUSH1 0x40 MLOAD DUP1 SWAP2 SUB SWAP1 RETURN JUMPDEST CALLVALUE DUP1 ISZERO PUSH2 0x406 JUMPI PUSH0 DUP1 REVERT JUMPDEST POP PUSH2 0x40F PUSH2 0xEE1 JUMP JUMPDEST STOP JUMPDEST PUSH2 0x419 PUSH2 0x4E7 JUMP JUMPDEST STOP JUMPDEST CALLVALUE DUP1 ISZERO PUSH2 0x426 JUMPI PUSH0 DUP1 REVERT JUMPDEST POP PUSH2 0x441 PUSH1 0x4 DUP1 CALLDATASIZE SUB DUP2 ADD SWAP1 PUSH2 0x43C SWAP2 SWAP1 PUSH2 0x1876 JUMP JUMPDEST PUSH2 0x1145 JUMP JUMPDEST STOP JUMPDEST CALLVALUE DUP1 ISZERO PUSH2 0x44E JUMPI PUSH0 DUP1 REVERT JUMPDEST POP PUSH2 0x469 PUSH1 0x4 DUP1 CALLDATASIZE SUB DUP2 ADD SWAP1 PUSH2 0x464 SWAP2 SWAP1 PUSH2 0x18A1 JUMP JUMPDEST PUSH2 0x11C1 JUMP JUMPDEST STOP JUMPDEST CALLVALUE DUP1 ISZERO PUSH2 0x476 JUMPI PUSH0 DUP1 REVERT JUMPDEST POP PUSH2 0x491 PUSH1 0x4 DUP1 CALLDATASIZE SUB DUP2 ADD SWAP1 PUSH2 0x48C SWAP2 SWAP1 PUSH2 0x16DD JUMP JUMPDEST PUSH2 0x125F JUMP JUMPDEST STOP JUMPDEST CALLVALUE DUP1 ISZERO PUSH2 0x49E JUMPI PUSH0 DUP1 REVERT JUMPDEST POP PUSH2 0x4A7 PUSH2 0x12E3 JUMP JUMPDEST PUSH1 0x40 MLOAD PUSH2 0x4B4 SWAP2 SWAP1 PUSH2 0x1666 JUMP JUMPDEST PUSH1 0x40 MLOAD DUP1 SWAP2 SUB SWAP1 RETURN JUMPDEST CALLVALUE DUP1 ISZERO PUSH2 0x4C8 JUMPI PUSH0 DUP1 REVERT JUMPDEST POP PUSH2 0x4D1 PUSH2 0x12E9 JUMP JUMPDEST PUSH1 0x40 MLOAD PUSH2 0x4DE SWAP2 SWAP1 PUSH2 0x193A JUMP JUMPDEST PUSH1 0x40 MLOAD DUP1 SWAP2 SUB SWAP1 RETURN JUMPDEST PUSH1 0x3 SLOAD TIMESTAMP LT ISZERO PUSH2 0x52C JUMPI PUSH1 0x40 MLOAD PUSH32 0x8C379A000000000000000000000000000000000000000000000000000000000 DUP2 MSTORE PUSH1 0x4 ADD PUSH2 0x523 SWAP1 PUSH2 0x19AD JUMP JUMPDEST PUSH1 0x40 MLOAD DUP1 SWAP2 SUB SWAP1 REVERT JUMPDEST PUSH1 0x4 SLOAD TIMESTAMP GT ISZERO PUSH2 0x571 JUMPI PUSH1 0x40 MLOAD PUSH32 0x8C379A000000000000000000000000000000000000000000000000000000000 DUP2 MSTORE PUSH1 0x4 ADD PUSH2 0x568 SWAP1 PUSH2 0x1A15 JUMP JUMPDEST PUSH1 0x40 MLOAD DUP1 SWAP2 SUB SWAP1 REVERT JUMPDEST PUSH2 0x579 PUSH2 0xCCC JUMP JUMPDEST ISZERO PUSH2 0x5B9 JUMPI PUSH1 0x40 MLOAD PUSH32 0x8C379A000000000000000000000000000000000000000000000000000000000 DUP2 MSTORE PUSH1 0x4 ADD PUSH2 0x5B0 SWAP1 PUSH2 0x1A7D JUMP JUMPDEST PUSH1 0x40 MLOAD DUP1 SWAP2 SUB SWAP1 REVERT JUMPDEST PUSH1 0x5 SLOAD PUSH1 0x6 SLOAD LT PUSH2 0x5FF JUMPI PUSH1 0x40 MLOAD PUSH32 0x8C379A000000000000000000000000000000000000000000000000000000000 DUP2 MSTORE PUSH1 0x4 ADD PUSH2 0x5F6 SWAP1 PUSH2 0x1AE5 JUMP JUMPDEST PUSH1 0x40 MLOAD DUP1 SWAP2 SUB SWAP1 REVERT JUMPDEST PUSH2 0x607 PUSH2 0x130E JUMP JUMPDEST PUSH0 CALLVALUE GT PUSH2 0x649 JUMPI PUSH1 0x40 MLOAD PUSH32 0x8C379A000000000000000000000000000000000000000000000000000000000 DUP2 MSTORE PUSH1 0x4 ADD PUSH2 0x640 SWAP1 PUSH2 0x1B4D JUMP JUMPDEST PUSH1 0x40 MLOAD DUP1 SWAP2 SUB SWAP1 REVERT JUMPDEST PUSH1 0x5 SLOAD CALLVALUE PUSH1 0x6 SLOAD PUSH2 0x65A SWAP2 SWAP1 PUSH2 0x1B98 JUMP JUMPDEST GT ISZERO PUSH2 0x69B JUMPI PUSH1 0x40 MLOAD PUSH32 0x8C379A000000000000000000000000000000000000000000000000000000000 DUP2 MSTORE PUSH1 0x4 ADD PUSH2 0x692 SWAP1 PUSH2 0x1C15 JUMP JUMPDEST PUSH1 0x40 MLOAD DUP1 SWAP2 SUB SWAP1 REVERT JUMPDEST PUSH0 PUSH1 0x7 SLOAD PUSH8 0xDE0B6B3A7640000 CALLVALUE PUSH2 0x6B3 SWAP2 SWAP1 PUSH2 0x1C33 JUMP JUMPDEST PUSH2 0x6BD SWAP2 SWAP1 PUSH2 0x1CA1 JUMP JUMPDEST SWAP1 POP PUSH0 DUP2 GT PUSH2 0x701 JUMPI PUSH1 0x40 MLOAD PUSH32 0x8C379A000000000000000000000000000000000000000000000000000000000 DUP2 MSTORE PUSH1 0x4 ADD PUSH2 0x6F8 SWAP1 PUSH2 0x1D1B JUMP JUMPDEST PUSH1 0x40 MLOAD DUP1 SWAP2 SUB SWAP1 REVERT JUMPDEST CALLVALUE PUSH1 0x8 PUSH0 CALLER PUSH20 0xFFFFFFFFFFFFFFFFFFFFFFFFFFFFFFFFFFFFFFFF AND PUSH20 0xFFFFFFFFFFFFFFFFFFFFFFFFFFFFFFFFFFFFFFFF AND DUP2 MSTORE PUSH1 0x20 ADD SWAP1 DUP2 MSTORE PUSH1 0x20 ADD PUSH0 KECCAK256 PUSH0 DUP3 DUP3 SLOAD PUSH2 0x74D SWAP2 SWAP1 PUSH2 0x1B98 JUMP JUMPDEST SWAP3 POP POP DUP2 SWAP1 SSTORE POP DUP1 PUSH1 0x9 PUSH0 CALLER PUSH20 0xFFFFFFFFFFFFFFFFFFFFFFFFFFFFFFFFFFFFFFFF AND PUSH20 0xFFFFFFFFFFFFFFFFFFFFFFFFFFFFFFFFFFFFFFFF AND DUP2 MSTORE PUSH1 0x20 ADD SWAP1 DUP2 MSTORE PUSH1 0x20 ADD PUSH0 KECCAK256 PUSH0 DUP3 DUP3 SLOAD PUSH2 0x7A0 SWAP2 SWAP1 PUSH2 0x1B98 JUMP JUMPDEST SWAP3 POP POP DUP2 SWAP1 SSTORE POP CALLVALUE PUSH1 0x6 PUSH0 DUP3 DUP3 SLOAD PUSH2 0x7B8 SWAP2 SWAP1 PUSH2 0x1B98 JUMP JUMPDEST SWAP3 POP POP DUP2 SWAP1 SSTORE POP CALLER PUSH20 0xFFFFFFFFFFFFFFFFFFFFFFFFFFFFFFFFFFFFFFFF AND PUSH32 0x8FAFEBCAF9D154343DAD25669BFA277F4FBACD7AC6B0C4FED522580E040A0F33 CALLVALUE DUP4 PUSH1 0x40 MLOAD PUSH2 0x807 SWAP3 SWAP2 SWAP1 PUSH2 0x173B JUMP JUMPDEST PUSH1 0x40 MLOAD DUP1 SWAP2 SUB SWAP1 LOG2 POP PUSH2 0x818 PUSH2 0x135D JUMP JUMPDEST JUMP JUMPDEST PUSH0 DUP1 PUSH0 DUP1 PUSH0 PUSH1 0x6 SLOAD PUSH1 0x5 SLOAD GT PUSH2 0x830 JUMPI PUSH0 PUSH2 0x841 JUMP JUMPDEST PUSH1 0x6 SLOAD PUSH1 0x5 SLOAD PUSH2 0x840 SWAP2 SWAP1 PUSH2 0x1D39 JUMP JUMPDEST JUMPDEST SWAP1 POP PUSH0 DUP1 PUSH1 0x5 SLOAD GT PUSH2 0x853 JUMPI PUSH0 PUSH2 0x870 JUMP JUMPDEST PUSH1 0x5 SLOAD PUSH1 0x64 PUSH1 0x6 SLOAD PUSH2 0x865 SWAP2 SWAP1 PUSH2 0x1C33 JUMP JUMPDEST PUSH2 0x86F SWAP2 SWAP1 PUSH2 0x1CA1 JUMP JUMPDEST JUMPDEST SWAP1 POP PUSH1 0x6 SLOAD PUSH1 0x5 SLOAD DUP4 DUP4 SWAP6 POP SWAP6 POP SWAP6 POP SWAP6 POP POP POP SWAP1 SWAP2 SWAP3 SWAP4 JUMP JUMPDEST PUSH2 0x892 PUSH2 0x1366 JUMP JUMPDEST PUSH1 0x4 SLOAD TIMESTAMP GT PUSH2 0x8D6 JUMPI PUSH1 0x40 MLOAD PUSH32 0x8C379A000000000000000000000000000000000000000000000000000000000 DUP2 MSTORE PUSH1 0x4 ADD PUSH2 0x8CD SWAP1 PUSH2 0x1DB6 JUMP JUMPDEST PUSH1 0x40 MLOAD DUP1 SWAP2 SUB SWAP1 REVERT JUMPDEST PUSH0 PUSH1 0x6 SLOAD GT PUSH2 0x91A JUMPI PUSH1 0x40 MLOAD PUSH32 0x8C379A000000000000000000000000000000000000000000000000000000000 DUP2 MSTORE PUSH1 0x4 ADD PUSH2 0x911 SWAP1 PUSH2 0x1E1E JUMP JUMPDEST PUSH1 0x40 MLOAD DUP1 SWAP2 SUB SWAP1 REVERT JUMPDEST PUSH0 PUSH1 0x6 SLOAD SWAP1 POP PUSH0 PUSH1 0x6 DUP2 SWAP1 SSTORE POP PUSH0 PUSH2 0x930 PUSH2 0xEB4 JUMP JUMPDEST PUSH20 0xFFFFFFFFFFFFFFFFFFFFFFFFFFFFFFFFFFFFFFFF AND DUP3 PUSH1 0x40 MLOAD PUSH2 0x953 SWAP1 PUSH2 0x1E69 JUMP JUMPDEST PUSH0 PUSH1 0x40 MLOAD DUP1 DUP4 SUB DUP2 DUP6 DUP8 GAS CALL SWAP3 POP POP POP RETURNDATASIZE DUP1 PUSH0 DUP2 EQ PUSH2 0x98D JUMPI PUSH1 0x40 MLOAD SWAP2 POP PUSH1 0x1F NOT PUSH1 0x3F RETURNDATASIZE ADD AND DUP3 ADD PUSH1 0x40 MSTORE RETURNDATASIZE DUP3 MSTORE RETURNDATASIZE PUSH0 PUSH1 0x20 DUP5 ADD RETURNDATACOPY PUSH2 0x992 JUMP JUMPDEST PUSH1 0x60 SWAP2 POP JUMPDEST POP POP SWAP1 POP DUP1 PUSH2 0x9D6 JUMPI PUSH1 0x40 MLOAD PUSH32 0x8C379A000000000000000000000000000000000000000000000000000000000 DUP2 MSTORE PUSH1 0x4 ADD PUSH2 0x9CD SWAP1 PUSH2 0x1EC7 JUMP JUMPDEST PUSH1 0x40 MLOAD DUP1 SWAP2 SUB SWAP1 REVERT JUMPDEST PUSH2 0x9DE PUSH2 0xEB4 JUMP JUMPDEST PUSH20 0xFFFFFFFFFFFFFFFFFFFFFFFFFFFFFFFFFFFFFFFF AND PUSH32 0xEAFF4B37086828766AD3268786972C0CD24259D4C87A80F9D3963A3C3D999B0D DUP4 PUSH1 0x40 MLOAD PUSH2 0xA23 SWAP2 SWAP1 PUSH2 0x1666 JUMP JUMPDEST PUSH1 0x40 MLOAD DUP1 SWAP2 SUB SWAP1 LOG2 POP POP JUMP JUMPDEST PUSH1 0x4 SLOAD DUP2 JUMP JUMPDEST PUSH1 0x8 PUSH1 0x20 MSTORE DUP1 PUSH0 MSTORE PUSH1 0x40 PUSH0 KECCAK256 PUSH0 SWAP2 POP SWAP1 POP SLOAD DUP2 JUMP JUMPDEST PUSH2 0xA52 PUSH2 0x130E JUMP JUMPDEST PUSH1 0x4 SLOAD TIMESTAMP GT PUSH2 0xA96 JUMPI PUSH1 0x40 MLOAD PUSH32 0x8C379A000000000000000000000000000000000000000000000000000000000 DUP2 MSTORE PUSH1 0x4 ADD PUSH2 0xA8D SWAP1 PUSH2 0x1DB6 JUMP JUMPDEST PUSH1 0x40 MLOAD DUP1 SWAP2 SUB SWAP1 REVERT JUMPDEST PUSH0 PUSH1 0x9 PUSH0 CALLER PUSH20 0xFFFFFFFFFFFFFFFFFFFFFFFFFFFFFFFFFFFFFFFF AND PUSH20 0xFFFFFFFFFFFFFFFFFFFFFFFFFFFFFFFFFFFFFFFF AND DUP2 MSTORE PUSH1 0x20 ADD SWAP1 DUP2 MSTORE PUSH1 0x20 ADD PUSH0 KECCAK256 SLOAD GT PUSH2 0xB15 JUMPI PUSH1 0x40 MLOAD PUSH32 0x8C379A000000000000000000000000000000000000000000000000000000000 DUP2 MSTORE PUSH1 0x4 ADD PUSH2 0xB0C SWAP1 PUSH2 0x1F2F JUMP JUMPDEST PUSH1 0x40 MLOAD DUP1 SWAP2 SUB SWAP1 REVERT JUMPDEST PUSH0 PUSH1 0x9 PUSH0 CALLER PUSH20 0xFFFFFFFFFFFFFFFFFFFFFFFFFFFFFFFFFFFFFFFF AND PUSH20 0xFFFFFFFFFFFFFFFFFFFFFFFFFFFFFFFFFFFFFFFF AND DUP2 MSTORE PUSH1 0x20 ADD SWAP1 DUP2 MSTORE PUSH1 0x20 ADD PUSH0 KECCAK256 SLOAD SWAP1 POP PUSH0 PUSH1 0x9 PUSH0 CALLER PUSH20 0xFFFFFFFFFFFFFFFFFFFFFFFFFFFFFFFFFFFFFFFF AND PUSH20 0xFFFFFFFFFFFFFFFFFFFFFFFFFFFFFFFFFFFFFFFF AND DUP2 MSTORE PUSH1 0x20 ADD SWAP1 DUP2 MSTORE PUSH1 0x20 ADD PUSH0 KECCAK256 DUP2 SWAP1 SSTORE POP PUSH1 0x2 PUSH0 SWAP1 SLOAD SWAP1 PUSH2 0x100 EXP SWAP1 DIV PUSH20 0xFFFFFFFFFFFFFFFFFFFFFFFFFFFFFFFFFFFFFFFF AND PUSH20 0xFFFFFFFFFFFFFFFFFFFFFFFFFFFFFFFFFFFFFFFF AND PUSH4 0xA9059CBB CALLER DUP4 PUSH1 0x40 MLOAD DUP4 PUSH4 0xFFFFFFFF AND PUSH1 0xE0 SHL DUP2 MSTORE PUSH1 0x4 ADD PUSH2 0xBF4 SWAP3 SWAP2 SWAP1 PUSH2 0x1F4D JUMP JUMPDEST PUSH1 0x20 PUSH1 0x40 MLOAD DUP1 DUP4 SUB DUP2 PUSH0 DUP8 GAS CALL ISZERO DUP1 ISZERO PUSH2 0xC10 JUMPI RETURNDATASIZE PUSH0 DUP1 RETURNDATACOPY RETURNDATASIZE PUSH0 REVERT JUMPDEST POP POP POP POP PUSH1 0x40 MLOAD RETURNDATASIZE PUSH1 0x1F NOT PUSH1 0x1F DUP3 ADD AND DUP3 ADD DUP1 PUSH1 0x40 MSTORE POP DUP2 ADD SWAP1 PUSH2 0xC34 SWAP2 SWAP1 PUSH2 0x1F88 JUMP JUMPDEST PUSH2 0xC73 JUMPI PUSH1 0x40 MLOAD PUSH32 0x8C379A000000000000000000000000000000000000000000000000000000000 DUP2 MSTORE PUSH1 0x4 ADD PUSH2 0xC6A SWAP1 PUSH2 0x1FFD JUMP JUMPDEST PUSH1 0x40 MLOAD DUP1 SWAP2 SUB SWAP1 REVERT JUMPDEST CALLER PUSH20 0xFFFFFFFFFFFFFFFFFFFFFFFFFFFFFFFFFFFFFFFF AND PUSH32 0x896E034966EAAF1ADC54ACC0F257056FEBBD300C9E47182CF761982CF1F5E430 DUP3 PUSH1 0x40 MLOAD PUSH2 0xCB9 SWAP2 SWAP1 PUSH2 0x1666 JUMP JUMPDEST PUSH1 0x40 MLOAD DUP1 SWAP2 SUB SWAP1 LOG2 POP PUSH2 0xCCA PUSH2 0x135D JUMP JUMPDEST JUMP JUMPDEST PUSH0 DUP1 PUSH1 0x14 SWAP1 SLOAD SWAP1 PUSH2 0x100 EXP SWAP1 DIV PUSH1 0xFF AND SWAP1 POP SWAP1 JUMP JUMPDEST PUSH0 DUP1 PUSH1 0x8 PUSH0 DUP5 PUSH20 0xFFFFFFFFFFFFFFFFFFFFFFFFFFFFFFFFFFFFFFFF AND PUSH20 0xFFFFFFFFFFFFFFFFFFFFFFFFFFFFFFFFFFFFFFFF AND DUP2 MSTORE PUSH1 0x20 ADD SWAP1 DUP2 MSTORE PUSH1 0x20 ADD PUSH0 KECCAK256 SLOAD PUSH1 0x9 PUSH0 DUP6 PUSH20 0xFFFFFFFFFFFFFFFFFFFFFFFFFFFFFFFFFFFFFFFF AND PUSH20 0xFFFFFFFFFFFFFFFFFFFFFFFFFFFFFFFFFFFFFFFF AND DUP2 MSTORE PUSH1 0x20 ADD SWAP1 DUP2 MSTORE PUSH1 0x20 ADD PUSH0 KECCAK256 SLOAD SWAP2 POP SWAP2 POP SWAP2 POP SWAP2 JUMP JUMPDEST PUSH2 0xD70 PUSH2 0x1366 JUMP JUMPDEST PUSH0 DUP2 GT PUSH2 0xDB2 JUMPI PUSH1 0x40 MLOAD PUSH32 0x8C379A000000000000000000000000000000000000000000000000000000000 DUP2 MSTORE PUSH1 0x4 ADD PUSH2 0xDA9 SWAP1 PUSH2 0x208B JUMP JUMPDEST PUSH1 0x40 MLOAD DUP1 SWAP2 SUB SWAP1 REVERT JUMPDEST DUP1 PUSH1 0x7 DUP2 SWAP1 SSTORE POP POP JUMP JUMPDEST PUSH2 0xDC4 PUSH2 0x1366 JUMP JUMPDEST PUSH1 0x6 SLOAD DUP2 GT PUSH2 0xE08 JUMPI PUSH1 0x40 MLOAD PUSH32 0x8C379A000000000000000000000000000000000000000000000000000000000 DUP2 MSTORE PUSH1 0x4 ADD PUSH2 0xDFF SWAP1 PUSH2 0x2119 JUMP JUMPDEST PUSH1 0x40 MLOAD DUP1 SWAP2 SUB SWAP1 REVERT JUMPDEST DUP1 PUSH1 0x5 DUP2 SWAP1 SSTORE POP POP JUMP JUMPDEST PUSH2 0xE1A PUSH2 0x1366 JUMP JUMPDEST PUSH2 0xE23 PUSH0 PUSH2 0x13ED JUMP JUMPDEST JUMP JUMPDEST PUSH0 DUP1 PUSH0 DUP1 PUSH0 DUP1 PUSH0 DUP1 PUSH1 0x3 SLOAD TIMESTAMP LT ISZERO DUP1 ISZERO PUSH2 0xE41 JUMPI POP PUSH1 0x4 SLOAD TIMESTAMP GT ISZERO JUMPDEST DUP1 ISZERO PUSH2 0xE52 JUMPI POP PUSH2 0xE50 PUSH2 0xCCC JUMP JUMPDEST ISZERO JUMPDEST DUP1 ISZERO PUSH2 0xE61 JUMPI POP PUSH1 0x5 SLOAD PUSH1 0x6 SLOAD LT JUMPDEST SWAP1 POP PUSH1 0x3 SLOAD PUSH1 0x4 SLOAD PUSH1 0x5 SLOAD PUSH1 0x6 SLOAD PUSH1 0x7 SLOAD PUSH2 0xE7A PUSH2 0xCCC JUMP JUMPDEST DUP7 SWAP8 POP SWAP8 POP SWAP8 POP SWAP8 POP SWAP8 POP SWAP8 POP SWAP8 POP POP SWAP1 SWAP2 SWAP3 SWAP4 SWAP5 SWAP6 SWAP7 JUMP JUMPDEST PUSH1 0x3 SLOAD DUP2 JUMP JUMPDEST PUSH1 0x7 SLOAD DUP2 JUMP JUMPDEST PUSH1 0x9 PUSH1 0x20 MSTORE DUP1 PUSH0 MSTORE PUSH1 0x40 PUSH0 KECCAK256 PUSH0 SWAP2 POP SWAP1 POP SLOAD DUP2 JUMP JUMPDEST PUSH0 DUP1 PUSH0 SWAP1 SLOAD SWAP1 PUSH2 0x100 EXP SWAP1 DIV PUSH20 0xFFFFFFFFFFFFFFFFFFFFFFFFFFFFFFFFFFFFFFFF AND SWAP1 POP SWAP1 JUMP JUMPDEST PUSH1 0x6 SLOAD DUP2 JUMP JUMPDEST PUSH2 0xEE9 PUSH2 0x1366 JUMP JUMPDEST PUSH1 0x4 SLOAD TIMESTAMP GT PUSH2 0xF2D JUMPI PUSH1 0x40 MLOAD PUSH32 0x8C379A000000000000000000000000000000000000000000000000000000000 DUP2 MSTORE PUSH1 0x4 ADD PUSH2 0xF24 SWAP1 PUSH2 0x1DB6 JUMP JUMPDEST PUSH1 0x40 MLOAD DUP1 SWAP2 SUB SWAP1 REVERT JUMPDEST PUSH0 PUSH1 0x2 PUSH0 SWAP1 SLOAD SWAP1 PUSH2 0x100 EXP SWAP1 DIV PUSH20 0xFFFFFFFFFFFFFFFFFFFFFFFFFFFFFFFFFFFFFFFF AND PUSH20 0xFFFFFFFFFFFFFFFFFFFFFFFFFFFFFFFFFFFFFFFF AND PUSH4 0x70A08231 ADDRESS PUSH1 0x40 MLOAD DUP3 PUSH4 0xFFFFFFFF AND PUSH1 0xE0 SHL DUP2 MSTORE PUSH1 0x4 ADD PUSH2 0xF88 SWAP2 SWAP1 PUSH2 0x1833 JUMP JUMPDEST PUSH1 0x20 PUSH1 0x40 MLOAD DUP1 DUP4 SUB DUP2 DUP7 GAS STATICCALL ISZERO DUP1 ISZERO PUSH2 0xFA3 JUMPI RETURNDATASIZE PUSH0 DUP1 RETURNDATACOPY RETURNDATASIZE PUSH0 REVERT JUMPDEST POP POP POP POP PUSH1 0x40 MLOAD RETURNDATASIZE PUSH1 0x1F NOT PUSH1 0x1F DUP3 ADD AND DUP3 ADD DUP1 PUSH1 0x40 MSTORE POP DUP2 ADD SWAP1 PUSH2 0xFC7 SWAP2 SWAP1 PUSH2 0x214B JUMP JUMPDEST SWAP1 POP PUSH0 DUP2 GT PUSH2 0x100B JUMPI PUSH1 0x40 MLOAD PUSH32 0x8C379A000000000000000000000000000000000000000000000000000000000 DUP2 MSTORE PUSH1 0x4 ADD PUSH2 0x1002 SWAP1 PUSH2 0x21C0 JUMP JUMPDEST PUSH1 0x40 MLOAD DUP1 SWAP2 SUB SWAP1 REVERT JUMPDEST PUSH1 0x2 PUSH0 SWAP1 SLOAD SWAP1 PUSH2 0x100 EXP SWAP1 DIV PUSH20 0xFFFFFFFFFFFFFFFFFFFFFFFFFFFFFFFFFFFFFFFF AND PUSH20 0xFFFFFFFFFFFFFFFFFFFFFFFFFFFFFFFFFFFFFFFF AND PUSH4 0xA9059CBB PUSH2 0x1050 PUSH2 0xEB4 JUMP JUMPDEST DUP4 PUSH1 0x40 MLOAD DUP4 PUSH4 0xFFFFFFFF AND PUSH1 0xE0 SHL DUP2 MSTORE PUSH1 0x4 ADD PUSH2 0x106E SWAP3 SWAP2 SWAP1 PUSH2 0x1F4D JUMP JUMPDEST PUSH1 0x20 PUSH1 0x40 MLOAD DUP1 DUP4 SUB DUP2 PUSH0 DUP8 GAS CALL ISZERO DUP1 ISZERO PUSH2 0x108A JUMPI RETURNDATASIZE PUSH0 DUP1 RETURNDATACOPY RETURNDATASIZE PUSH0 REVERT JUMPDEST POP POP POP POP PUSH1 0x40 MLOAD RETURNDATASIZE PUSH1 0x1F NOT PUSH1 0x1F DUP3 ADD AND DUP3 ADD DUP1 PUSH1 0x40 MSTORE POP DUP2 ADD SWAP1 PUSH2 0x10AE SWAP2 SWAP1 PUSH2 0x1F88 JUMP JUMPDEST PUSH2 0x10ED JUMPI PUSH1 0x40 MLOAD PUSH32 0x8C379A000000000000000000000000000000000000000000000000000000000 DUP2 MSTORE PUSH1 0x4 ADD PUSH2 0x10E4 SWAP1 PUSH2 0x1FFD JUMP JUMPDEST PUSH1 0x40 MLOAD DUP1 SWAP2 SUB SWAP1 REVERT JUMPDEST PUSH2 0x10F5 PUSH2 0xEB4 JUMP JUMPDEST PUSH20 0xFFFFFFFFFFFFFFFFFFFFFFFFFFFFFFFFFFFFFFFF AND PUSH32 0x328A7CCA57E89D3B52F56190EF4E06D91C987E3EF2640DB3BE95D65F818E2D12 DUP3 PUSH1 0x40 MLOAD PUSH2 0x113A SWAP2 SWAP1 PUSH2 0x1666 JUMP JUMPDEST PUSH1 0x40 MLOAD DUP1 SWAP2 SUB SWAP1 LOG2 POP JUMP JUMPDEST PUSH2 0x114D PUSH2 0x1366 JUMP JUMPDEST DUP1 ISZERO PUSH2 0x1160 JUMPI PUSH2 0x115B PUSH2 0x14AE JUMP JUMPDEST PUSH2 0x1169 JUMP JUMPDEST PUSH2 0x1168 PUSH2 0x1510 JUMP JUMPDEST JUMPDEST PUSH2 0x1171 PUSH2 0xEB4 JUMP JUMPDEST PUSH20 0xFFFFFFFFFFFFFFFFFFFFFFFFFFFFFFFFFFFFFFFF AND PUSH32 0xAC5C0908ED5F21C95AC4028BBE6D55D00FEA102284F1C7FF590D33D19ED753F6 DUP3 PUSH1 0x40 MLOAD PUSH2 0x11B6 SWAP2 SWAP1 PUSH2 0x1722 JUMP JUMPDEST PUSH1 0x40 MLOAD DUP1 SWAP2 SUB SWAP1 LOG2 POP JUMP JUMPDEST PUSH2 0x11C9 PUSH2 0x1366 JUMP JUMPDEST TIMESTAMP DUP3 GT PUSH2 0x120B JUMPI PUSH1 0x40 MLOAD PUSH32 0x8C379A000000000000000000000000000000000000000000000000000000000 DUP2 MSTORE PUSH1 0x4 ADD PUSH2 0x1202 SWAP1 PUSH2 0x2228 JUMP JUMPDEST PUSH1 0x40 MLOAD DUP1 SWAP2 SUB SWAP1 REVERT JUMPDEST DUP2 DUP2 GT PUSH2 0x124D JUMPI PUSH1 0x40 MLOAD PUSH32 0x8C379A000000000000000000000000000000000000000000000000000000000 DUP2 MSTORE PUSH1 0x4 ADD PUSH2 0x1244 SWAP1 PUSH2 0x22B6 JUMP JUMPDEST PUSH1 0x40 MLOAD DUP1 SWAP2 SUB SWAP1 REVERT JUMPDEST DUP2 PUSH1 0x3 DUP2 SWAP1 SSTORE POP DUP1 PUSH1 0x4 DUP2 SWAP1 SSTORE POP POP POP JUMP JUMPDEST PUSH2 0x1267 PUSH2 0x1366 JUMP JUMPDEST PUSH0 PUSH20 0xFFFFFFFFFFFFFFFFFFFFFFFFFFFFFFFFFFFFFFFF AND DUP2 PUSH20 0xFFFFFFFFFFFFFFFFFFFFFFFFFFFFFFFFFFFFFFFF AND SUB PUSH2 0x12D7 JUMPI PUSH0 PUSH1 0x40 MLOAD PUSH32 0x1E4FBDF700000000000000000000000000000000000000000000000000000000 DUP2 MSTORE PUSH1 0x4 ADD PUSH2 0x12CE SWAP2 SWAP1 PUSH2 0x1833 JUMP JUMPDEST PUSH1 0x40 MLOAD DUP1 SWAP2 SUB SWAP1 REVERT JUMPDEST PUSH2 0x12E0 DUP2 PUSH2 0x13ED JUMP JUMPDEST POP JUMP JUMPDEST PUSH1 0x5 SLOAD DUP2 JUMP JUMPDEST PUSH1 0x2 PUSH0 SWAP1 SLOAD SWAP1 PUSH2 0x100 EXP SWAP1 DIV PUSH20 0xFFFFFFFFFFFFFFFFFFFFFFFFFFFFFFFFFFFFFFFF AND DUP2 JUMP JUMPDEST PUSH1 0x2 PUSH1 0x1 SLOAD SUB PUSH2 0x1353 JUMPI PUSH1 0x40 MLOAD PUSH32 0x8C379A000000000000000000000000000000000000000000000000000000000 DUP2 MSTORE PUSH1 0x4 ADD PUSH2 0x134A SWAP1 PUSH2 0x231E JUMP JUMPDEST PUSH1 0x40 MLOAD DUP1 SWAP2 SUB SWAP1 REVERT JUMPDEST PUSH1 0x2 PUSH1 0x1 DUP2 SWAP1 SSTORE POP JUMP JUMPDEST PUSH1 0x1 DUP1 DUP2 SWAP1 SSTORE POP JUMP JUMPDEST PUSH2 0x136E PUSH2 0x1571 JUMP JUMPDEST PUSH20 0xFFFFFFFFFFFFFFFFFFFFFFFFFFFFFFFFFFFFFFFF AND PUSH2 0x138C PUSH2 0xEB4 JUMP JUMPDEST PUSH20 0xFFFFFFFFFFFFFFFFFFFFFFFFFFFFFFFFFFFFFFFF AND EQ PUSH2 0x13EB JUMPI PUSH2 0x13AF PUSH2 0x1571 JUMP JUMPDEST PUSH1 0x40 MLOAD PUSH32 0x118CDAA700000000000000000000000000000000000000000000000000000000 DUP2 MSTORE PUSH1 0x4 ADD PUSH2 0x13E2 SWAP2 SWAP1 PUSH2 0x1833 JUMP JUMPDEST PUSH1 0x40 MLOAD DUP1 SWAP2 SUB SWAP1 REVERT JUMPDEST JUMP JUMPDEST PUSH0 DUP1 PUSH0 SWAP1 SLOAD SWAP1 PUSH2 0x100 EXP SWAP1 DIV PUSH20 0xFFFFFFFFFFFFFFFFFFFFFFFFFFFFFFFFFFFFFFFF AND SWAP1 POP DUP2 PUSH0 DUP1 PUSH2 0x100 EXP DUP2 SLOAD DUP2 PUSH20 0xFFFFFFFFFFFFFFFFFFFFFFFFFFFFFFFFFFFFFFFF MUL NOT AND SWAP1 DUP4 PUSH20 0xFFFFFFFFFFFFFFFFFFFFFFFFFFFFFFFFFFFFFFFF AND MUL OR SWAP1 SSTORE POP DUP2 PUSH20 0xFFFFFFFFFFFFFFFFFFFFFFFFFFFFFFFFFFFFFFFF AND DUP2 PUSH20 0xFFFFFFFFFFFFFFFFFFFFFFFFFFFFFFFFFFFFFFFF AND PUSH32 0x8BE0079C531659141344CD1FD0A4F28419497F9722A3DAAFE3B4186F6B6457E0 PUSH1 0x40 MLOAD PUSH1 0x40 MLOAD DUP1 SWAP2 SUB SWAP1 LOG3 POP POP JUMP JUMPDEST PUSH2 0x14B6 PUSH2 0x1578 JUMP JUMPDEST PUSH1 0x1 PUSH0 PUSH1 0x14 PUSH2 0x100 EXP DUP2 SLOAD DUP2 PUSH1 0xFF MUL NOT AND SWAP1 DUP4 ISZERO ISZERO MUL OR SWAP1 SSTORE POP PUSH32 0x62E78CEA01BEE320CD4E420270B5EA74000D11B0C9F74754EBDBFC544B05A258 PUSH2 0x14F9 PUSH2 0x1571 JUMP JUMPDEST PUSH1 0x40 MLOAD PUSH2 0x1506 SWAP2 SWAP1 PUSH2 0x1833 JUMP JUMPDEST PUSH1 0x40 MLOAD DUP1 SWAP2 SUB SWAP1 LOG1 JUMP JUMPDEST PUSH2 0x1518 PUSH2 0x15C2 JUMP JUMPDEST PUSH0 DUP1 PUSH1 0x14 PUSH2 0x100 EXP DUP2 SLOAD DUP2 PUSH1 0xFF MUL NOT AND SWAP1 DUP4 ISZERO ISZERO MUL OR SWAP1 SSTORE POP PUSH32 0x5DB9EE0A495BF2E6FF9C91A7834C1BA4FDD244A5E8AA4E537BD38AEAE4B073AA PUSH2 0x155A PUSH2 0x1571 JUMP JUMPDEST PUSH1 0x40 MLOAD PUSH2 0x1567 SWAP2 SWAP1 PUSH2 0x1833 JUMP JUMPDEST PUSH1 0x40 MLOAD DUP1 SWAP2 SUB SWAP1 LOG1 JUMP JUMPDEST PUSH0 CALLER SWAP1 POP SWAP1 JUMP JUMPDEST PUSH2 0x1580 PUSH2 0xCCC JUMP JUMPDEST ISZERO PUSH2 0x15C0 JUMPI PUSH1 0x40 MLOAD PUSH32 0x8C379A000000000000000000000000000000000000000000000000000000000 DUP2 MSTORE PUSH1 0x4 ADD PUSH2 0x15B7 SWAP1 PUSH2 0x2386 JUMP JUMPDEST PUSH1 0x40 MLOAD DUP1 SWAP2 SUB SWAP1 REVERT JUMPDEST JUMP JUMPDEST PUSH2 0x15CA PUSH2 0xCCC JUMP JUMPDEST PUSH2 0x1609 JUMPI PUSH1 0x40 MLOAD PUSH32 0x8C379A000000000000000000000000000000000000000000000000000000000 DUP2 MSTORE PUSH1 0x4 ADD PUSH2 0x1600 SWAP1 PUSH2 0x23EE JUMP JUMPDEST PUSH1 0x40 MLOAD DUP1 SWAP2 SUB SWAP1 REVERT JUMPDEST JUMP JUMPDEST PUSH0 DUP2 SWAP1 POP SWAP2 SWAP1 POP JUMP JUMPDEST PUSH2 0x161D DUP2 PUSH2 0x160B JUMP JUMPDEST DUP3 MSTORE POP POP JUMP JUMPDEST PUSH0 PUSH1 0x80 DUP3 ADD SWAP1 POP PUSH2 0x1636 PUSH0 DUP4 ADD DUP8 PUSH2 0x1614 JUMP JUMPDEST PUSH2 0x1643 PUSH1 0x20 DUP4 ADD DUP7 PUSH2 0x1614 JUMP JUMPDEST PUSH2 0x1650 PUSH1 0x40 DUP4 ADD DUP6 PUSH2 0x1614 JUMP JUMPDEST PUSH2 0x165D PUSH1 0x60 DUP4 ADD DUP5 PUSH2 0x1614 JUMP JUMPDEST SWAP6 SWAP5 POP POP POP POP POP JUMP JUMPDEST PUSH0 PUSH1 0x20 DUP3 ADD SWAP1 POP PUSH2 0x1679 PUSH0 DUP4 ADD DUP5 PUSH2 0x1614 JUMP JUMPDEST SWAP3 SWAP2 POP POP JUMP JUMPDEST PUSH0 DUP1 REVERT JUMPDEST PUSH0 PUSH20 0xFFFFFFFFFFFFFFFFFFFFFFFFFFFFFFFFFFFFFFFF DUP3 AND SWAP1 POP SWAP2 SWAP1 POP JUMP JUMPDEST PUSH0 PUSH2 0x16AC DUP3 PUSH2 0x1683 JUMP JUMPDEST SWAP1 POP SWAP2 SWAP1 POP JUMP JUMPDEST PUSH2 0x16BC DUP2 PUSH2 0x16A2 JUMP JUMPDEST DUP2 EQ PUSH2 0x16C6 JUMPI PUSH0 DUP1 REVERT JUMPDEST POP JUMP JUMPDEST PUSH0 DUP2 CALLDATALOAD SWAP1 POP PUSH2 0x16D7 DUP2 PUSH2 0x16B3 JUMP JUMPDEST SWAP3 SWAP2 POP POP JUMP JUMPDEST PUSH0 PUSH1 0x20 DUP3 DUP5 SUB SLT ISZERO PUSH2 0x16F2 JUMPI PUSH2 0x16F1 PUSH2 0x167F JUMP JUMPDEST JUMPDEST PUSH0 PUSH2 0x16FF DUP5 DUP3 DUP6 ADD PUSH2 0x16C9 JUMP JUMPDEST SWAP2 POP POP SWAP3 SWAP2 POP POP JUMP JUMPDEST PUSH0 DUP2 ISZERO ISZERO SWAP1 POP SWAP2 SWAP1 POP JUMP JUMPDEST PUSH2 0x171C DUP2 PUSH2 0x1708 JUMP JUMPDEST DUP3 MSTORE POP POP JUMP JUMPDEST PUSH0 PUSH1 0x20 DUP3 ADD SWAP1 POP PUSH2 0x1735 PUSH0 DUP4 ADD DUP5 PUSH2 0x1713 JUMP JUMPDEST SWAP3 SWAP2 POP POP JUMP JUMPDEST PUSH0 PUSH1 0x40 DUP3 ADD SWAP1 POP PUSH2 0x174E PUSH0 DUP4 ADD DUP6 PUSH2 0x1614 JUMP JUMPDEST PUSH2 0x175B PUSH1 0x20 DUP4 ADD DUP5 PUSH2 0x1614 JUMP JUMPDEST SWAP4 SWAP3 POP POP POP JUMP JUMPDEST PUSH2 0x176B DUP2 PUSH2 0x160B JUMP JUMPDEST DUP2 EQ PUSH2 0x1775 JUMPI PUSH0 DUP1 REVERT JUMPDEST POP JUMP JUMPDEST PUSH0 DUP2 CALLDATALOAD SWAP1 POP PUSH2 0x1786 DUP2 PUSH2 0x1762 JUMP JUMPDEST SWAP3 SWAP2 POP POP JUMP JUMPDEST PUSH0 PUSH1 0x20 DUP3 DUP5 SUB SLT ISZERO PUSH2 0x17A1 JUMPI PUSH2 0x17A0 PUSH2 0x167F JUMP JUMPDEST JUMPDEST PUSH0 PUSH2 0x17AE DUP5 DUP3 DUP6 ADD PUSH2 0x1778 JUMP JUMPDEST SWAP2 POP POP SWAP3 SWAP2 POP POP JUMP JUMPDEST PUSH0 PUSH1 0xE0 DUP3 ADD SWAP1 POP PUSH2 0x17CA PUSH0 DUP4 ADD DUP11 PUSH2 0x1614 JUMP JUMPDEST PUSH2 0x17D7 PUSH1 0x20 DUP4 ADD DUP10 PUSH2 0x1614 JUMP JUMPDEST PUSH2 0x17E4 PUSH1 0x40 DUP4 ADD DUP9 PUSH2 0x1614 JUMP JUMPDEST PUSH2 0x17F1 PUSH1 0x60 DUP4 ADD DUP8 PUSH2 0x1614 JUMP JUMPDEST PUSH2 0x17FE PUSH1 0x80 DUP4 ADD DUP7 PUSH2 0x1614 JUMP JUMPDEST PUSH2 0x180B PUSH1 0xA0 DUP4 ADD DUP6 PUSH2 0x1713 JUMP JUMPDEST PUSH2 0x1818 PUSH1 0xC0 DUP4 ADD DUP5 PUSH2 0x1713 JUMP JUMPDEST SWAP9 SWAP8 POP POP POP POP POP POP POP POP JUMP JUMPDEST PUSH2 0x182D DUP2 PUSH2 0x16A2 JUMP JUMPDEST DUP3 MSTORE POP POP JUMP JUMPDEST PUSH0 PUSH1 0x20 DUP3 ADD SWAP1 POP PUSH2 0x1846 PUSH0 DUP4 ADD DUP5 PUSH2 0x1824 JUMP JUMPDEST SWAP3 SWAP2 POP POP JUMP JUMPDEST PUSH2 0x1855 DUP2 PUSH2 0x1708 JUMP JUMPDEST DUP2 EQ PUSH2 0x185F JUMPI PUSH0 DUP1 REVERT JUMPDEST POP JUMP JUMPDEST PUSH0 DUP2 CALLDATALOAD SWAP1 POP PUSH2 0x1870 DUP2 PUSH2 0x184C JUMP JUMPDEST SWAP3 SWAP2 POP POP JUMP JUMPDEST PUSH0 PUSH1 0x20 DUP3 DUP5 SUB SLT ISZERO PUSH2 0x188B JUMPI PUSH2 0x188A PUSH2 0x167F JUMP JUMPDEST JUMPDEST PUSH0 PUSH2 0x1898 DUP5 DUP3 DUP6 ADD PUSH2 0x1862 JUMP JUMPDEST SWAP2 POP POP SWAP3 SWAP2 POP POP JUMP JUMPDEST PUSH0 DUP1 PUSH1 0x40 DUP4 DUP6 SUB SLT ISZERO PUSH2 0x18B7 JUMPI PUSH2 0x18B6 PUSH2 0x167F JUMP JUMPDEST JUMPDEST PUSH0 PUSH2 0x18C4 DUP6 DUP3 DUP7 ADD PUSH2 0x1778 JUMP JUMPDEST SWAP3 POP POP PUSH1 0x20 PUSH2 0x18D5 DUP6 DUP3 DUP7 ADD PUSH2 0x1778 JUMP JUMPDEST SWAP2 POP POP SWAP3 POP SWAP3 SWAP1 POP JUMP JUMPDEST PUSH0 DUP2 SWAP1 POP SWAP2 SWAP1 POP JUMP JUMPDEST PUSH0 PUSH2 0x1902 PUSH2 0x18FD PUSH2 0x18F8 DUP5 PUSH2 0x1683 JUMP JUMPDEST PUSH2 0x18DF JUMP JUMPDEST PUSH2 0x1683 JUMP JUMPDEST SWAP1 POP SWAP2 SWAP1 POP JUMP JUMPDEST PUSH0 PUSH2 0x1913 DUP3 PUSH2 0x18E8 JUMP JUMPDEST SWAP1 POP SWAP2 SWAP1 POP JUMP JUMPDEST PUSH0 PUSH2 0x1924 DUP3 PUSH2 0x1909 JUMP JUMPDEST SWAP1 POP SWAP2 SWAP1 POP JUMP JUMPDEST PUSH2 0x1934 DUP2 PUSH2 0x191A JUMP JUMPDEST DUP3 MSTORE POP POP JUMP JUMPDEST PUSH0 PUSH1 0x20 DUP3 ADD SWAP1 POP PUSH2 0x194D PUSH0 DUP4 ADD DUP5 PUSH2 0x192B JUMP JUMPDEST SWAP3 SWAP2 POP POP JUMP JUMPDEST PUSH0 DUP3 DUP3 MSTORE PUSH1 0x20 DUP3 ADD SWAP1 POP SWAP3 SWAP2 POP POP JUMP JUMPDEST PUSH32 0x50726573616C65206E6F74207374617274656400000000000000000000000000 PUSH0 DUP3 ADD MSTORE POP JUMP JUMPDEST PUSH0 PUSH2 0x1997 PUSH1 0x13 DUP4 PUSH2 0x1953 JUMP JUMPDEST SWAP2 POP PUSH2 0x19A2 DUP3 PUSH2 0x1963 JUMP JUMPDEST PUSH1 0x20 DUP3 ADD SWAP1 POP SWAP2 SWAP1 POP JUMP JUMPDEST PUSH0 PUSH1 0x20 DUP3 ADD SWAP1 POP DUP2 DUP2 SUB PUSH0 DUP4 ADD MSTORE PUSH2 0x19C4 DUP2 PUSH2 0x198B JUMP JUMPDEST SWAP1 POP SWAP2 SWAP1 POP JUMP JUMPDEST PUSH32 0x50726573616C6520656E64656400000000000000000000000000000000000000 PUSH0 DUP3 ADD MSTORE POP JUMP JUMPDEST PUSH0 PUSH2 0x19FF PUSH1 0xD DUP4 PUSH2 0x1953 JUMP JUMPDEST SWAP2 POP PUSH2 0x1A0A DUP3 PUSH2 0x19CB JUMP JUMPDEST PUSH1 0x20 DUP3 ADD SWAP1 POP SWAP2 SWAP1 POP JUMP JUMPDEST PUSH0 PUSH1 0x20 DUP3 ADD SWAP1 POP DUP2 DUP2 SUB PUSH0 DUP4 ADD MSTORE PUSH2 0x1A2C DUP2 PUSH2 0x19F3 JUMP JUMPDEST SWAP1 POP SWAP2 SWAP1 POP JUMP JUMPDEST PUSH32 0x50726573616C6520706175736564000000000000000000000000000000000000 PUSH0 DUP3 ADD MSTORE POP JUMP JUMPDEST PUSH0 PUSH2 0x1A67 PUSH1 0xE DUP4 PUSH2 0x1953 JUMP JUMPDEST SWAP2 POP PUSH2 0x1A72 DUP3 PUSH2 0x1A33 JUMP JUMPDEST PUSH1 0x20 DUP3 ADD SWAP1 POP SWAP2 SWAP1 POP JUMP JUMPDEST PUSH0 PUSH1 0x20 DUP3 ADD SWAP1 POP DUP2 DUP2 SUB PUSH0 DUP4 ADD MSTORE PUSH2 0x1A94 DUP2 PUSH2 0x1A5B JUMP JUMPDEST SWAP1 POP SWAP2 SWAP1 POP JUMP JUMPDEST PUSH32 0x4861726420636170207265616368656400000000000000000000000000000000 PUSH0 DUP3 ADD MSTORE POP JUMP JUMPDEST PUSH0 PUSH2 0x1ACF PUSH1 0x10 DUP4 PUSH2 0x1953 JUMP JUMPDEST SWAP2 POP PUSH2 0x1ADA DUP3 PUSH2 0x1A9B JUMP JUMPDEST PUSH1 0x20 DUP3 ADD SWAP1 POP SWAP2 SWAP1 POP JUMP JUMPDEST PUSH0 PUSH1 0x20 DUP3 ADD SWAP1 POP DUP2 DUP2 SUB PUSH0 DUP4 ADD MSTORE PUSH2 0x1AFC DUP2 PUSH2 0x1AC3 JUMP JUMPDEST SWAP1 POP SWAP2 SWAP1 POP JUMP JUMPDEST PUSH32 0x416D6F756E74206D7573742062652067726561746572207468616E2030000000 PUSH0 DUP3 ADD MSTORE POP JUMP JUMPDEST PUSH0 PUSH2 0x1B37 PUSH1 0x1D DUP4 PUSH2 0x1953 JUMP JUMPDEST SWAP2 POP PUSH2 0x1B42 DUP3 PUSH2 0x1B03 JUMP JUMPDEST PUSH1 0x20 DUP3 ADD SWAP1 POP SWAP2 SWAP1 POP JUMP JUMPDEST PUSH0 PUSH1 0x20 DUP3 ADD SWAP1 POP DUP2 DUP2 SUB PUSH0 DUP4 ADD MSTORE PUSH2 0x1B64 DUP2 PUSH2 0x1B2B JUMP JUMPDEST SWAP1 POP SWAP2 SWAP1 POP JUMP JUMPDEST PUSH32 0x4E487B7100000000000000000000000000000000000000000000000000000000 PUSH0 MSTORE PUSH1 0x11 PUSH1 0x4 MSTORE PUSH1 0x24 PUSH0 REVERT JUMPDEST PUSH0 PUSH2 0x1BA2 DUP3 PUSH2 0x160B JUMP JUMPDEST SWAP2 POP PUSH2 0x1BAD DUP4 PUSH2 0x160B JUMP JUMPDEST SWAP3 POP DUP3 DUP3 ADD SWAP1 POP DUP1 DUP3 GT ISZERO PUSH2 0x1BC5 JUMPI PUSH2 0x1BC4 PUSH2 0x1B6B JUMP JUMPDEST JUMPDEST SWAP3 SWAP2 POP POP JUMP JUMPDEST PUSH32 0x4578636565647320686172642063617000000000000000000000000000000000 PUSH0 DUP3 ADD MSTORE POP JUMP JUMPDEST PUSH0 PUSH2 0x1BFF PUSH1 0x10 DUP4 PUSH2 0x1953 JUMP JUMPDEST SWAP2 POP PUSH2 0x1C0A DUP3 PUSH2 0x1BCB JUMP JUMPDEST PUSH1 0x20 DUP3 ADD SWAP1 POP SWAP2 SWAP1 POP JUMP JUMPDEST PUSH0 PUSH1 0x20 DUP3 ADD SWAP1 POP DUP2 DUP2 SUB PUSH0 DUP4 ADD MSTORE PUSH2 0x1C2C DUP2 PUSH2 0x1BF3 JUMP JUMPDEST SWAP1 POP SWAP2 SWAP1 POP JUMP JUMPDEST PUSH0 PUSH2 0x1C3D DUP3 PUSH2 0x160B JUMP JUMPDEST SWAP2 POP PUSH2 0x1C48 DUP4 PUSH2 0x160B JUMP JUMPDEST SWAP3 POP DUP3 DUP3 MUL PUSH2 0x1C56 DUP2 PUSH2 0x160B JUMP JUMPDEST SWAP2 POP DUP3 DUP3 DIV DUP5 EQ DUP4 ISZERO OR PUSH2 0x1C6D JUMPI PUSH2 0x1C6C PUSH2 0x1B6B JUMP JUMPDEST JUMPDEST POP SWAP3 SWAP2 POP POP JUMP JUMPDEST PUSH32 0x4E487B7100000000000000000000000000000000000000000000000000000000 PUSH0 MSTORE PUSH1 0x12 PUSH1 0x4 MSTORE PUSH1 0x24 PUSH0 REVERT JUMPDEST PUSH0 PUSH2 0x1CAB DUP3 PUSH2 0x160B JUMP JUMPDEST SWAP2 POP PUSH2 0x1CB6 DUP4 PUSH2 0x160B JUMP JUMPDEST SWAP3 POP DUP3 PUSH2 0x1CC6 JUMPI PUSH2 0x1CC5 PUSH2 0x1C74 JUMP JUMPDEST JUMPDEST DUP3 DUP3 DIV SWAP1 POP SWAP3 SWAP2 POP POP JUMP JUMPDEST PUSH32 0x4E6F20746F6B656E7320746F2072656365697665000000000000000000000000 PUSH0 DUP3 ADD MSTORE POP JUMP JUMPDEST PUSH0 PUSH2 0x1D05 PUSH1 0x14 DUP4 PUSH2 0x1953 JUMP JUMPDEST SWAP2 POP PUSH2 0x1D10 DUP3 PUSH2 0x1CD1 JUMP JUMPDEST PUSH1 0x20 DUP3 ADD SWAP1 POP SWAP2 SWAP1 POP JUMP JUMPDEST PUSH0 PUSH1 0x20 DUP3 ADD SWAP1 POP DUP2 DUP2 SUB PUSH0 DUP4 ADD MSTORE PUSH2 0x1D32 DUP2 PUSH2 0x1CF9 JUMP JUMPDEST SWAP1 POP SWAP2 SWAP1 POP JUMP JUMPDEST PUSH0 PUSH2 0x1D43 DUP3 PUSH2 0x160B JUMP JUMPDEST SWAP2 POP PUSH2 0x1D4E DUP4 PUSH2 0x160B JUMP JUMPDEST SWAP3 POP DUP3 DUP3 SUB SWAP1 POP DUP2 DUP2 GT ISZERO PUSH2 0x1D66 JUMPI PUSH2 0x1D65 PUSH2 0x1B6B JUMP JUMPDEST JUMPDEST SWAP3 SWAP2 POP POP JUMP JUMPDEST PUSH32 0x50726573616C65206E6F7420656E646564000000000000000000000000000000 PUSH0 DUP3 ADD MSTORE POP JUMP JUMPDEST PUSH0 PUSH2 0x1DA0 PUSH1 0x11 DUP4 PUSH2 0x1953 JUMP JUMPDEST SWAP2 POP PUSH2 0x1DAB DUP3 PUSH2 0x1D6C JUMP JUMPDEST PUSH1 0x20 DUP3 ADD SWAP1 POP SWAP2 SWAP1 POP JUMP JUMPDEST PUSH0 PUSH1 0x20 DUP3 ADD SWAP1 POP DUP2 DUP2 SUB PUSH0 DUP4 ADD MSTORE PUSH2 0x1DCD DUP2 PUSH2 0x1D94 JUMP JUMPDEST SWAP1 POP SWAP2 SWAP1 POP JUMP JUMPDEST PUSH32 0x4E6F2066756E647320746F207769746864726177000000000000000000000000 PUSH0 DUP3 ADD MSTORE POP JUMP JUMPDEST PUSH0 PUSH2 0x1E08 PUSH1 0x14 DUP4 PUSH2 0x1953 JUMP JUMPDEST SWAP2 POP PUSH2 0x1E13 DUP3 PUSH2 0x1DD4 JUMP JUMPDEST PUSH1 0x20 DUP3 ADD SWAP1 POP SWAP2 SWAP1 POP JUMP JUMPDEST PUSH0 PUSH1 0x20 DUP3 ADD SWAP1 POP DUP2 DUP2 SUB PUSH0 DUP4 ADD MSTORE PUSH2 0x1E35 DUP2 PUSH2 0x1DFC JUMP JUMPDEST SWAP1 POP SWAP2 SWAP1 POP JUMP JUMPDEST PUSH0 DUP2 SWAP1 POP SWAP3 SWAP2 POP POP JUMP JUMPDEST POP JUMP JUMPDEST PUSH0 PUSH2 0x1E54 PUSH0 DUP4 PUSH2 0x1E3C JUMP JUMPDEST SWAP2 POP PUSH2 0x1E5F DUP3 PUSH2 0x1E46 JUMP JUMPDEST PUSH0 DUP3 ADD SWAP1 POP SWAP2 SWAP1 POP JUMP JUMPDEST PUSH0 PUSH2 0x1E73 DUP3 PUSH2 0x1E49 JUMP JUMPDEST SWAP2 POP DUP2 SWAP1 POP SWAP2 SWAP1 POP JUMP JUMPDEST PUSH32 0x5472616E73666572206661696C65640000000000000000000000000000000000 PUSH0 DUP3 ADD MSTORE POP JUMP JUMPDEST PUSH0 PUSH2 0x1EB1 PUSH1 0xF DUP4 PUSH2 0x1953 JUMP JUMPDEST SWAP2 POP PUSH2 0x1EBC DUP3 PUSH2 0x1E7D JUMP JUMPDEST PUSH1 0x20 DUP3 ADD SWAP1 POP SWAP2 SWAP1 POP JUMP JUMPDEST PUSH0 PUSH1 0x20 DUP3 ADD SWAP1 POP DUP2 DUP2 SUB PUSH0 DUP4 ADD MSTORE PUSH2 0x1EDE DUP2 PUSH2 0x1EA5 JUMP JUMPDEST SWAP1 POP SWAP2 SWAP1 POP JUMP JUMPDEST PUSH32 0x4E6F20746F6B656E7320746F20636C61696D0000000000000000000000000000 PUSH0 DUP3 ADD MSTORE POP JUMP JUMPDEST PUSH0 PUSH2 0x1F19 PUSH1 0x12 DUP4 PUSH2 0x1953 JUMP JUMPDEST SWAP2 POP PUSH2 0x1F24 DUP3 PUSH2 0x1EE5 JUMP JUMPDEST PUSH1 0x20 DUP3 ADD SWAP1 POP SWAP2 SWAP1 POP JUMP JUMPDEST PUSH0 PUSH1 0x20 DUP3 ADD SWAP1 POP DUP2 DUP2 SUB PUSH0 DUP4 ADD MSTORE PUSH2 0x1F46 DUP2 PUSH2 0x1F0D JUMP JUMPDEST SWAP1 POP SWAP2 SWAP1 POP JUMP JUMPDEST PUSH0 PUSH1 0x40 DUP3 ADD SWAP1 POP PUSH2 0x1F60 PUSH0 DUP4 ADD DUP6 PUSH2 0x1824 JUMP JUMPDEST PUSH2 0x1F6D PUSH1 0x20 DUP4 ADD DUP5 PUSH2 0x1614 JUMP JUMPDEST SWAP4 SWAP3 POP POP POP JUMP JUMPDEST PUSH0 DUP2 MLOAD SWAP1 POP PUSH2 0x1F82 DUP2 PUSH2 0x184C JUMP JUMPDEST SWAP3 SWAP2 POP POP JUMP JUMPDEST PUSH0 PUSH1 0x20 DUP3 DUP5 SUB SLT ISZERO PUSH2 0x1F9D JUMPI PUSH2 0x1F9C PUSH2 0x167F JUMP JUMPDEST JUMPDEST PUSH0 PUSH2 0x1FAA DUP5 DUP3 DUP6 ADD PUSH2 0x1F74 JUMP JUMPDEST SWAP2 POP POP SWAP3 SWAP2 POP POP JUMP JUMPDEST PUSH32 0x546F6B656E207472616E73666572206661696C65640000000000000000000000 PUSH0 DUP3 ADD MSTORE POP JUMP JUMPDEST PUSH0 PUSH2 0x1FE7 PUSH1 0x15 DUP4 PUSH2 0x1953 JUMP JUMPDEST SWAP2 POP PUSH2 0x1FF2 DUP3 PUSH2 0x1FB3 JUMP JUMPDEST PUSH1 0x20 DUP3 ADD SWAP1 POP SWAP2 SWAP1 POP JUMP JUMPDEST PUSH0 PUSH1 0x20 DUP3 ADD SWAP1 POP DUP2 DUP2 SUB PUSH0 DUP4 ADD MSTORE PUSH2 0x2014 DUP2 PUSH2 0x1FDB JUMP JUMPDEST SWAP1 POP SWAP2 SWAP1 POP JUMP JUMPDEST PUSH32 0x546F6B656E207072696365206D7573742062652067726561746572207468616E PUSH0 DUP3 ADD MSTORE PUSH32 0x2030000000000000000000000000000000000000000000000000000000000000 PUSH1 0x20 DUP3 ADD MSTORE POP JUMP JUMPDEST PUSH0 PUSH2 0x2075 PUSH1 0x22 DUP4 PUSH2 0x1953 JUMP JUMPDEST SWAP2 POP PUSH2 0x2080 DUP3 PUSH2 0x201B JUMP JUMPDEST PUSH1 0x40 DUP3 ADD SWAP1 POP SWAP2 SWAP1 POP JUMP JUMPDEST PUSH0 PUSH1 0x20 DUP3 ADD SWAP1 POP DUP2 DUP2 SUB PUSH0 DUP4 ADD MSTORE PUSH2 0x20A2 DUP2 PUSH2 0x2069 JUMP JUMPDEST SWAP1 POP SWAP2 SWAP1 POP JUMP JUMPDEST PUSH32 0x4861726420636170206D7573742062652067726561746572207468616E20746F PUSH0 DUP3 ADD MSTORE PUSH32 0x74616C2072616973656400000000000000000000000000000000000000000000 PUSH1 0x20 DUP3 ADD MSTORE POP JUMP JUMPDEST PUSH0 PUSH2 0x2103 PUSH1 0x2A DUP4 PUSH2 0x1953 JUMP JUMPDEST SWAP2 POP PUSH2 0x210E DUP3 PUSH2 0x20A9 JUMP JUMPDEST PUSH1 0x40 DUP3 ADD SWAP1 POP SWAP2 SWAP1 POP JUMP JUMPDEST PUSH0 PUSH1 0x20 DUP3 ADD SWAP1 POP DUP2 DUP2 SUB PUSH0 DUP4 ADD MSTORE PUSH2 0x2130 DUP2 PUSH2 0x20F7 JUMP JUMPDEST SWAP1 POP SWAP2 SWAP1 POP JUMP JUMPDEST PUSH0 DUP2 MLOAD SWAP1 POP PUSH2 0x2145 DUP2 PUSH2 0x1762 JUMP JUMPDEST SWAP3 SWAP2 POP POP JUMP JUMPDEST PUSH0 PUSH1 0x20 DUP3 DUP5 SUB SLT ISZERO PUSH2 0x2160 JUMPI PUSH2 0x215F PUSH2 0x167F JUMP JUMPDEST JUMPDEST PUSH0 PUSH2 0x216D DUP5 DUP3 DUP6 ADD PUSH2 0x2137 JUMP JUMPDEST SWAP2 POP POP SWAP3 SWAP2 POP POP JUMP JUMPDEST PUSH32 0x4E6F20756E736F6C6420746F6B656E7300000000000000000000000000000000 PUSH0 DUP3 ADD MSTORE POP JUMP JUMPDEST PUSH0 PUSH2 0x21AA PUSH1 0x10 DUP4 PUSH2 0x1953 JUMP JUMPDEST SWAP2 POP PUSH2 0x21B5 DUP3 PUSH2 0x2176 JUMP JUMPDEST PUSH1 0x20 DUP3 ADD SWAP1 POP SWAP2 SWAP1 POP JUMP JUMPDEST PUSH0 PUSH1 0x20 DUP3 ADD SWAP1 POP DUP2 DUP2 SUB PUSH0 DUP4 ADD MSTORE PUSH2 0x21D7 DUP2 PUSH2 0x219E JUMP JUMPDEST SWAP1 POP SWAP2 SWAP1 POP JUMP JUMPDEST PUSH32 0x53746172742074696D65206D75737420626520696E2066757475726500000000 PUSH0 DUP3 ADD MSTORE POP JUMP JUMPDEST PUSH0 PUSH2 0x2212 PUSH1 0x1C DUP4 PUSH2 0x1953 JUMP JUMPDEST SWAP2 POP PUSH2 0x221D DUP3 PUSH2 0x21DE JUMP JUMPDEST PUSH1 0x20 DUP3 ADD SWAP1 POP SWAP2 SWAP1 POP JUMP JUMPDEST PUSH0 PUSH1 0x20 DUP3 ADD SWAP1 POP DUP2 DUP2 SUB PUSH0 DUP4 ADD MSTORE PUSH2 0x223F DUP2 PUSH2 0x2206 JUMP JUMPDEST SWAP1 POP SWAP2 SWAP1 POP JUMP JUMPDEST PUSH32 0x456E642074696D65206D7573742062652061667465722073746172742074696D PUSH0 DUP3 ADD MSTORE PUSH32 0x6500000000000000000000000000000000000000000000000000000000000000 PUSH1 0x20 DUP3 ADD MSTORE POP JUMP JUMPDEST PUSH0 PUSH2 0x22A0 PUSH1 0x21 DUP4 PUSH2 0x1953 JUMP JUMPDEST SWAP2 POP PUSH2 0x22AB DUP3 PUSH2 0x2246 JUMP JUMPDEST PUSH1 0x40 DUP3 ADD SWAP1 POP SWAP2 SWAP1 POP JUMP JUMPDEST PUSH0 PUSH1 0x20 DUP3 ADD SWAP1 POP DUP2 DUP2 SUB PUSH0 DUP4 ADD MSTORE PUSH2 0x22CD DUP2 PUSH2 0x2294 JUMP JUMPDEST SWAP1 POP SWAP2 SWAP1 POP JUMP JUMPDEST PUSH32 0x5265656E7472616E637947756172643A207265656E7472616E742063616C6C00 PUSH0 DUP3 ADD MSTORE POP JUMP JUMPDEST PUSH0 PUSH2 0x2308 PUSH1 0x1F DUP4 PUSH2 0x1953 JUMP JUMPDEST SWAP2 POP PUSH2 0x2313 DUP3 PUSH2 0x22D4 JUMP JUMPDEST PUSH1 0x20 DUP3 ADD SWAP1 POP SWAP2 SWAP1 POP JUMP JUMPDEST PUSH0 PUSH1 0x20 DUP3 ADD SWAP1 POP DUP2 DUP2 SUB PUSH0 DUP4 ADD MSTORE PUSH2 0x2335 DUP2 PUSH2 0x22FC JUMP JUMPDEST SWAP1 POP SWAP2 SWAP1 POP JUMP JUMPDEST PUSH32 0x5061757361626C653A2070617573656400000000000000000000000000000000 PUSH0 DUP3 ADD MSTORE POP JUMP JUMPDEST PUSH0 PUSH2 0x2370 PUSH1 0x10 DUP4 PUSH2 0x1953 JUMP JUMPDEST SWAP2 POP PUSH2 0x237B DUP3 PUSH2 0x233C JUMP JUMPDEST PUSH1 0x20 DUP3 ADD SWAP1 POP SWAP2 SWAP1 POP JUMP JUMPDEST PUSH0 PUSH1 0x20 DUP3 ADD SWAP1 POP DUP2 DUP2 SUB PUSH0 DUP4 ADD MSTORE PUSH2 0x239D DUP2 PUSH2 0x2364 JUMP JUMPDEST SWAP1 POP SWAP2 SWAP1 POP JUMP JUMPDEST PUSH32 0x5061757361626C653A206E6F7420706175736564000000000000000000000000 PUSH0 DUP3 ADD MSTORE POP JUMP JUMPDEST PUSH0 PUSH2 0x23D8 PUSH1 0x14 DUP4 PUSH2 0x1953 JUMP JUMPDEST SWAP2 POP PUSH2 0x23E3 DUP3 PUSH2 0x23A4 JUMP JUMPDEST PUSH1 0x20 DUP3 ADD SWAP1 POP SWAP2 SWAP1 POP JUMP JUMPDEST PUSH0 PUSH1 0x20 DUP3 ADD SWAP1 POP DUP2 DUP2 SUB PUSH0 DUP4 ADD MSTORE PUSH2 0x2405 DUP2 PUSH2 0x23CC JUMP JUMPDEST SWAP1 POP SWAP2 SWAP1 POP JUMP INVALID LOG2 PUSH5 0x6970667358 0x22 SLT KECCAK256 JUMP PUSH10 0xB942E57EB30CE2044AF0 TIMESTAMP PUSH7 0x7EDB16B9C3B864 0xE8 SWAP5 0xE CHAINID 0xEB 0xF8 PUSH24 0xB7EDB9C264736F6C63430008180033000000000000000000 "
				},
				"gasEstimates": {
					"creation": {
						"codeDepositCost": "1856400",
						"executionCost": "infinite",
						"totalCost": "infinite"
					},
					"external": {
						"": "infinite",
						"buyTokens()": "infinite",
						"claimTokens()": "infinite",
						"claimableTokens(address)": "2869",
						"contributions(address)": "2892",
						"endTime()": "2493",
						"getPresaleInfo()": "infinite",
						"getPresaleProgress()": "infinite",
						"getUserInfo(address)": "infinite",
						"hardCap()": "2535",
						"owner()": "2604",
						"pausePresale(bool)": "infinite",
						"paused()": "2547",
						"renounceOwnership()": "infinite",
						"startTime()": "2448",
						"token()": "infinite",
						"tokenPrice()": "2470",
						"totalRaised()": "2536",
						"transferOwnership(address)": "infinite",
						"updateHardCap(uint256)": "infinite",
						"updatePresaleTimes(uint256,uint256)": "infinite",
						"updateTokenPrice(uint256)": "infinite",
						"withdrawFunds()": "infinite",
						"withdrawUnsoldTokens()": "infinite"
					}
				},
				"methodIdentifiers": {
					"buyTokens()": "d0febe4c",
					"claimTokens()": "48c54b9d",
					"claimableTokens(address)": "84d24226",
					"contributions(address)": "42e94c90",
					"endTime()": "3197cbb6",
					"getPresaleInfo()": "767fa723",
					"getPresaleProgress()": "0008f385",
					"getUserInfo(address)": "6386c1c7",
					"hardCap()": "fb86a404",
					"owner()": "8da5cb5b",
					"pausePresale(bool)": "d7299ef7",
					"paused()": "5c975abb",
					"renounceOwnership()": "715018a6",
					"startTime()": "78e97925",
					"token()": "fc0c546a",
					"tokenPrice()": "7ff9b596",
					"totalRaised()": "c5c4744c",
					"transferOwnership(address)": "f2fde38b",
					"updateHardCap(uint256)": "703df793",
					"updatePresaleTimes(uint256,uint256)": "ed622dd3",
					"updateTokenPrice(uint256)": "676c0d77",
					"withdrawFunds()": "24600fc3",
					"withdrawUnsoldTokens()": "c8bdbfb6"
				}
			},
			"storageLayout": {
				"storage": [
					{
						"astId": 8,
						"contract": "AlienPresale.sol:AlienPresale",
						"label": "_owner",
						"offset": 0,
						"slot": "0",
						"type": "t_address"
					},
					{
						"astId": 165,
						"contract": "AlienPresale.sol:AlienPresale",
						"label": "_paused",
						"offset": 20,
						"slot": "0",
						"type": "t_bool"
					},
					{
						"astId": 266,
						"contract": "AlienPresale.sol:AlienPresale",
						"label": "_status",
						"offset": 0,
						"slot": "1",
						"type": "t_uint256"
					},
					{
						"astId": 443,
						"contract": "AlienPresale.sol:AlienPresale",
						"label": "token",
						"offset": 0,
						"slot": "2",
						"type": "t_contract(IERC20)398"
					},
					{
						"astId": 445,
						"contract": "AlienPresale.sol:AlienPresale",
						"label": "startTime",
						"offset": 0,
						"slot": "3",
						"type": "t_uint256"
					},
					{
						"astId": 447,
						"contract": "AlienPresale.sol:AlienPresale",
						"label": "endTime",
						"offset": 0,
						"slot": "4",
						"type": "t_uint256"
					},
					{
						"astId": 449,
						"contract": "AlienPresale.sol:AlienPresale",
						"label": "hardCap",
						"offset": 0,
						"slot": "5",
						"type": "t_uint256"
					},
					{
						"astId": 451,
						"contract": "AlienPresale.sol:AlienPresale",
						"label": "totalRaised",
						"offset": 0,
						"slot": "6",
						"type": "t_uint256"
					},
					{
						"astId": 453,
						"contract": "AlienPresale.sol:AlienPresale",
						"label": "tokenPrice",
						"offset": 0,
						"slot": "7",
						"type": "t_uint256"
					},
					{
						"astId": 457,
						"contract": "AlienPresale.sol:AlienPresale",
						"label": "contributions",
						"offset": 0,
						"slot": "8",
						"type": "t_mapping(t_address,t_uint256)"
					},
					{
						"astId": 461,
						"contract": "AlienPresale.sol:AlienPresale",
						"label": "claimableTokens",
						"offset": 0,
						"slot": "9",
						"type": "t_mapping(t_address,t_uint256)"
					}
				],
				"types": {
					"t_address": {
						"encoding": "inplace",
						"label": "address",
						"numberOfBytes": "20"
					},
					"t_bool": {
						"encoding": "inplace",
						"label": "bool",
						"numberOfBytes": "1"
					},
					"t_contract(IERC20)398": {
						"encoding": "inplace",
						"label": "contract IERC20",
						"numberOfBytes": "20"
					},
					"t_mapping(t_address,t_uint256)": {
						"encoding": "mapping",
						"key": "t_address",
						"label": "mapping(address => uint256)",
						"numberOfBytes": "32",
						"value": "t_uint256"
					},
					"t_uint256": {
						"encoding": "inplace",
						"label": "uint256",
						"numberOfBytes": "32"
					}
				}
			},
			"userdoc": {
				"kind": "user",
				"methods": {},
				"version": 1
			}
		}
	}
}