{
	"data": {
		"bytecode": {
			"linkReferences": {},
			"object": "608060405234801562000010575f80fd5b5060405162002ba838038062002ba8833981810160405281019062000036919062000426565b335f73ffffffffffffffffffffffffffffffffffffffff168173ffffffffffffffffffffffffffffffffffffffff1603620000aa575f6040517f1e4fbdf7000000000000000000000000000000000000000000000000000000008152600401620000a19190620004bb565b60405180910390fd5b620000bb81620002c860201b60201c565b505f8060146101000a81548160ff021916908315150217905550600180819055505f73ffffffffffffffffffffffffffffffffffffffff168573ffffffffffffffffffffffffffffffffffffffff16036200014d576040517f08c379a0000000000000000000000000000000000000000000000000000000008152600401620001449062000534565b60405180910390fd5b42841162000192576040517f08c379a00000000000000000000000000000000000000000000000000000000081526004016200018990620005a2565b60405180910390fd5b838311620001d7576040517f08c379a0000000000000000000000000000000000000000000000000000000008152600401620001ce9062000636565b60405180910390fd5b5f82116200021c576040517f08c379a00000000000000000000000000000000000000000000000000000000081526004016200021390620006a4565b60405180910390fd5b5f811162000261576040517f08c379a0000000000000000000000000000000000000000000000000000000008152600401620002589062000738565b60405180910390fd5b8460025f6101000a81548173ffffffffffffffffffffffffffffffffffffffff021916908373ffffffffffffffffffffffffffffffffffffffff16021790555083600381905550826004819055508160058190555080600781905550505050505062000758565b5f805f9054906101000a900473ffffffffffffffffffffffffffffffffffffffff169050815f806101000a81548173ffffffffffffffffffffffffffffffffffffffff021916908373ffffffffffffffffffffffffffffffffffffffff1602179055508173ffffffffffffffffffffffffffffffffffffffff168173ffffffffffffffffffffffffffffffffffffffff167f8be0079c531659141344cd1fd0a4f28419497f9722a3daafe3b4186f6b6457e060405160405180910390a35050565b5f80fd5b5f73ffffffffffffffffffffffffffffffffffffffff82169050919050565b5f620003b8826200038d565b9050919050565b620003ca81620003ac565b8114620003d5575f80fd5b50565b5f81519050620003e881620003bf565b92915050565b5f819050919050565b6200040281620003ee565b81146200040d575f80fd5b50565b5f815190506200042081620003f7565b92915050565b5f805f805f60a0868803121562000442576200044162000389565b5b5f6200045188828901620003d8565b9550506020620004648882890162000410565b9450506040620004778882890162000410565b93505060606200048a8882890162000410565b92505060806200049d8882890162000410565b9150509295509295909350565b620004b581620003ac565b82525050565b5f602082019050620004d05f830184620004aa565b92915050565b5f82825260208201905092915050565b7f496e76616c696420746f6b656e206164647265737300000000000000000000005f82015250565b5f6200051c601583620004d6565b91506200052982620004e6565b602082019050919050565b5f6020820190508181035f8301526200054d816200050e565b9050919050565b7f53746172742074696d65206d75737420626520696e20667574757265000000005f82015250565b5f6200058a601c83620004d6565b9150620005978262000554565b602082019050919050565b5f6020820190508181035f830152620005bb816200057c565b9050919050565b7f456e642074696d65206d7573742062652061667465722073746172742074696d5f8201527f6500000000000000000000000000000000000000000000000000000000000000602082015250565b5f6200061e602183620004d6565b91506200062b82620005c2565b604082019050919050565b5f6020820190508181035f8301526200064f8162000610565b9050919050565b7f4861726420636170206d7573742062652067726561746572207468616e2030005f82015250565b5f6200068c601f83620004d6565b9150620006998262000656565b602082019050919050565b5f6020820190508181035f830152620006bd816200067e565b9050919050565b7f546f6b656e207072696365206d7573742062652067726561746572207468616e5f8201527f2030000000000000000000000000000000000000000000000000000000000000602082015250565b5f62000720602283620004d6565b91506200072d82620006c4565b604082019050919050565b5f6020820190508181035f830152620007518162000712565b9050919050565b61244280620007665f395ff3fe608060405260043610610142575f3560e01c806378e97925116100b5578063d0febe4c1161006e578063d0febe4c14610411578063d7299ef71461041b578063ed622dd314610443578063f2fde38b1461046b578063fb86a40414610493578063fc0c546a146104bd57610151565b806378e97925146103175780637ff9b5961461034157806384d242261461036b5780638da5cb5b146103a7578063c5c4744c146103d1578063c8bdbfb6146103fb57610151565b80635c975abb116101075780635c975abb1461021a5780636386c1c714610244578063676c0d7714610281578063703df793146102a9578063715018a6146102d1578063767fa723146102e757610151565b806208f3851461015b57806324600fc3146101885780633197cbb61461019e57806342e94c90146101c857806348c54b9d1461020457610151565b366101515761014f6104e7565b005b6101596104e7565b005b348015610166575f80fd5b5061016f61081a565b60405161017f9493929190611623565b60405180910390f35b348015610193575f80fd5b5061019c61088a565b005b3480156101a9575f80fd5b506101b2610a2f565b6040516101bf9190611666565b60405180910390f35b3480156101d3575f80fd5b506101ee60048036038101906101e991906116dd565b610a35565b6040516101fb9190611666565b60405180910390f35b34801561020f575f80fd5b50610218610a4a565b005b348015610225575f80fd5b5061022e610ccc565b60405161023b9190611722565b60405180910390f35b34801561024f575f80fd5b5061026a600480360381019061026591906116dd565b610ce1565b60405161027892919061173b565b60405180910390f35b34801561028c575f80fd5b506102a760048036038101906102a2919061178c565b610d68565b005b3480156102b4575f80fd5b506102cf60048036038101906102ca919061178c565b610dbc565b005b3480156102dc575f80fd5b506102e5610e12565b005b3480156102f2575f80fd5b506102fb610e25565b60405161030e97969594939291906117b7565b60405180910390f35b348015610322575f80fd5b5061032b610e93565b6040516103389190611666565b60405180910390f35b34801561034c575f80fd5b50610355610e99565b6040516103629190611666565b60405180910390f35b348015610376575f80fd5b50610391600480360381019061038c91906116dd565b610e9f565b60405161039e9190611666565b60405180910390f35b3480156103b2575f80fd5b506103bb610eb4565b6040516103c89190611833565b60405180910390f35b3480156103dc575f80fd5b506103e5610edb565b6040516103f29190611666565b60405180910390f35b348015610406575f80fd5b5061040f610ee1565b005b6104196104e7565b005b348015610426575f80fd5b50610441600480360381019061043c9190611876565b611145565b005b34801561044e575f80fd5b50610469600480360381019061046491906118a1565b6111c1565b005b348015610476575f80fd5b50610491600480360381019061048c91906116dd565b61125f565b005b34801561049e575f80fd5b506104a76112e3565b6040516104b49190611666565b60405180910390f35b3480156104c8575f80fd5b506104d16112e9565b6040516104de919061193a565b60405180910390f35b60035442101561052c576040517f08c379a0000000000000000000000000000000000000000000000000000000008152600401610523906119ad565b60405180910390fd5b600454421115610571576040517f08c379a000000000000000000000000000000000000000000000000000000000815260040161056890611a15565b60405180910390fd5b610579610ccc565b156105b9576040517f08c379a00000000000000000000000000000000000000000000000000000000081526004016105b090611a7d565b60405180910390fd5b600554600654106105ff576040517f08c379a00000000000000000000000000000000000000000000000000000000081526004016105f690611ae5565b60405180910390fd5b61060761130e565b5f3411610649576040517f08c379a000000000000000000000000000000000000000000000000000000000815260040161064090611b4d565b60405180910390fd5b6005543460065461065a9190611b98565b111561069b576040517f08c379a000000000000000000000000000000000000000000000000000000000815260040161069290611c15565b60405180910390fd5b5f600754670de0b6b3a7640000346106b39190611c33565b6106bd9190611ca1565b90505f8111610701576040517f08c379a00000000000000000000000000000000000000000000000000000000081526004016106f890611d1b565b60405180910390fd5b3460085f3373ffffffffffffffffffffffffffffffffffffffff1673ffffffffffffffffffffffffffffffffffffffff1681526020019081526020015f205f82825461074d9190611b98565b925050819055508060095f3373ffffffffffffffffffffffffffffffffffffffff1673ffffffffffffffffffffffffffffffffffffffff1681526020019081526020015f205f8282546107a09190611b98565b925050819055503460065f8282546107b89190611b98565b925050819055503373ffffffffffffffffffffffffffffffffffffffff167f8fafebcaf9d154343dad25669bfa277f4fbacd7ac6b0c4fed522580e040a0f33348360405161080792919061173b565b60405180910390a25061081861135d565b565b5f805f805f60065460055411610830575f610841565b6006546005546108409190611d39565b5b90505f8060055411610853575f610870565b60055460646006546108659190611c33565b61086f9190611ca1565b5b905060065460055483839550955095509550505090919293565b610892611366565b60045442116108d6576040517f08c379a00000000000000000000000000000000000000000000000000000000081526004016108cd90611db6565b60405180910390fd5b5f6006541161091a576040517f08c379a000000000000000000000000000000000000000000000000000000000815260040161091190611e1e565b60405180910390fd5b5f60065490505f6006819055505f610930610eb4565b73ffffffffffffffffffffffffffffffffffffffff168260405161095390611e69565b5f6040518083038185875af1925050503d805f811461098d576040519150601f19603f3d011682016040523d82523d5f602084013e610992565b606091505b50509050806109d6576040517f08c379a00000000000000000000000000000000000000000000000000000000081526004016109cd90611ec7565b60405180910390fd5b6109de610eb4565b73ffffffffffffffffffffffffffffffffffffffff167feaff4b37086828766ad3268786972c0cd24259d4c87a80f9d3963a3c3d999b0d83604051610a239190611666565b60405180910390a25050565b60045481565b6008602052805f5260405f205f915090505481565b610a5261130e565b6004544211610a96576040517f08c379a0000000000000000000000000000000000000000000000000000000008152600401610a8d90611db6565b60405180910390fd5b5f60095f3373ffffffffffffffffffffffffffffffffffffffff1673ffffffffffffffffffffffffffffffffffffffff1681526020019081526020015f205411610b15576040517f08c379a0000000000000000000000000000000000000000000000000000000008152600401610b0c90611f2f565b60405180910390fd5b5f60095f3373ffffffffffffffffffffffffffffffffffffffff1673ffffffffffffffffffffffffffffffffffffffff1681526020019081526020015f205490505f60095f3373ffffffffffffffffffffffffffffffffffffffff1673ffffffffffffffffffffffffffffffffffffffff1681526020019081526020015f208190555060025f9054906101000a900473ffffffffffffffffffffffffffffffffffffffff1673ffffffffffffffffffffffffffffffffffffffff1663a9059cbb33836040518363ffffffff1660e01b8152600401610bf4929190611f4d565b6020604051808303815f875af1158015610c10573d5f803e3d5ffd5b505050506040513d601f19601f82011682018060405250810190610c349190611f88565b610c73576040517f08c379a0000000000000000000000000000000000000000000000000000000008152600401610c6a90611ffd565b60405180910390fd5b3373ffffffffffffffffffffffffffffffffffffffff167f896e034966eaaf1adc54acc0f257056febbd300c9e47182cf761982cf1f5e43082604051610cb99190611666565b60405180910390a250610cca61135d565b565b5f8060149054906101000a900460ff16905090565b5f8060085f8473ffffffffffffffffffffffffffffffffffffffff1673ffffffffffffffffffffffffffffffffffffffff1681526020019081526020015f205460095f8573ffffffffffffffffffffffffffffffffffffffff1673ffffffffffffffffffffffffffffffffffffffff1681526020019081526020015f205491509150915091565b610d70611366565b5f8111610db2576040517f08c379a0000000000000000000000000000000000000000000000000000000008152600401610da99061208b565b60405180910390fd5b8060078190555050565b610dc4611366565b6006548111610e08576040517f08c379a0000000000000000000000000000000000000000000000000000000008152600401610dff90612119565b60405180910390fd5b8060058190555050565b610e1a611366565b610e235f6113ed565b565b5f805f805f805f806003544210158015610e4157506004544211155b8015610e525750610e50610ccc565b155b8015610e615750600554600654105b9050600354600454600554600654600754610e7a610ccc565b8697509750975097509750975097505090919293949596565b60035481565b60075481565b6009602052805f5260405f205f915090505481565b5f805f9054906101000a900473ffffffffffffffffffffffffffffffffffffffff16905090565b60065481565b610ee9611366565b6004544211610f2d576040517f08c379a0000000000000000000000000000000000000000000000000000000008152600401610f2490611db6565b60405180910390fd5b5f60025f9054906101000a900473ffffffffffffffffffffffffffffffffffffffff1673ffffffffffffffffffffffffffffffffffffffff166370a08231306040518263ffffffff1660e01b8152600401610f889190611833565b602060405180830381865afa158015610fa3573d5f803e3d5ffd5b505050506040513d601f19601f82011682018060405250810190610fc7919061214b565b90505f811161100b576040517f08c379a0000000000000000000000000000000000000000000000000000000008152600401611002906121c0565b60405180910390fd5b60025f9054906101000a900473ffffffffffffffffffffffffffffffffffffffff1673ffffffffffffffffffffffffffffffffffffffff1663a9059cbb611050610eb4565b836040518363ffffffff1660e01b815260040161106e929190611f4d565b6020604051808303815f875af115801561108a573d5f803e3d5ffd5b505050506040513d601f19601f820116820180604052508101906110ae9190611f88565b6110ed576040517f08c379a00000000000000000000000000000000000000000000000000000000081526004016110e490611ffd565b60405180910390fd5b6110f5610eb4565b73ffffffffffffffffffffffffffffffffffffffff167f328a7cca57e89d3b52f56190ef4e06d91c987e3ef2640db3be95d65f818e2d128260405161113a9190611666565b60405180910390a250565b61114d611366565b80156111605761115b6114ae565b611169565b611168611510565b5b611171610eb4565b73ffffffffffffffffffffffffffffffffffffffff167fac5c0908ed5f21c95ac4028bbe6d55d00fea102284f1c7ff590d33d19ed753f6826040516111b69190611722565b60405180910390a250565b6111c9611366565b42821161120b576040517f08c379a000000000000000000000000000000000000000000000000000000000815260040161120290612228565b60405180910390fd5b81811161124d576040517f08c379a0000000000000000000000000000000000000000000000000000000008152600401611244906122b6565b60405180910390fd5b81600381905550806004819055505050565b611267611366565b5f73ffffffffffffffffffffffffffffffffffffffff168173ffffffffffffffffffffffffffffffffffffffff16036112d7575f6040517f1e4fbdf70000000000000000000000000000000000000000000000000000000081526004016112ce9190611833565b60405180910390fd5b6112e0816113ed565b50565b60055481565b60025f9054906101000a900473ffffffffffffffffffffffffffffffffffffffff1681565b600260015403611353576040517f08c379a000000000000000000000000000000000000000000000000000000000815260040161134a9061231e565b60405180910390fd5b6002600181905550565b60018081905550565b61136e611571565b73ffffffffffffffffffffffffffffffffffffffff1661138c610eb4565b73ffffffffffffffffffffffffffffffffffffffff16146113eb576113af611571565b6040517f118cdaa70000000000000000000000000000000000000000000000000000000081526004016113e29190611833565b60405180910390fd5b565b5f805f9054906101000a900473ffffffffffffffffffffffffffffffffffffffff169050815f806101000a81548173ffffffffffffffffffffffffffffffffffffffff021916908373ffffffffffffffffffffffffffffffffffffffff1602179055508173ffffffffffffffffffffffffffffffffffffffff168173ffffffffffffffffffffffffffffffffffffffff167f8be0079c531659141344cd1fd0a4f28419497f9722a3daafe3b4186f6b6457e060405160405180910390a35050565b6114b6611578565b60015f60146101000a81548160ff0219169083151502179055507f62e78cea01bee320cd4e420270b5ea74000d11b0c9f74754ebdbfc544b05a2586114f9611571565b6040516115069190611833565b60405180910390a1565b6115186115c2565b5f8060146101000a81548160ff0219169083151502179055507f5db9ee0a495bf2e6ff9c91a7834c1ba4fdd244a5e8aa4e537bd38aeae4b073aa61155a611571565b6040516115679190611833565b60405180910390a1565b5f33905090565b611580610ccc565b156115c0576040517f08c379a00000000000000000000000000000000000000000000000000000000081526004016115b790612386565b60405180910390fd5b565b6115ca610ccc565b611609576040517f08c379a0000000000000000000000000000000000000000000000000000000008152600401611600906123ee565b60405180910390fd5b565b5f819050919050565b61161d8161160b565b82525050565b5f6080820190506116365f830187611614565b6116436020830186611614565b6116506040830185611614565b61165d6060830184611614565b95945050505050565b5f6020820190506116795f830184611614565b92915050565b5f80fd5b5f73ffffffffffffffffffffffffffffffffffffffff82169050919050565b5f6116ac82611683565b9050919050565b6116bc816116a2565b81146116c6575f80fd5b50565b5f813590506116d7816116b3565b92915050565b5f602082840312156116f2576116f161167f565b5b5f6116ff848285016116c9565b91505092915050565b5f8115159050919050565b61171c81611708565b82525050565b5f6020820190506117355f830184611713565b92915050565b5f60408201905061174e5f830185611614565b61175b6020830184611614565b9392505050565b61176b8161160b565b8114611775575f80fd5b50565b5f8135905061178681611762565b92915050565b5f602082840312156117a1576117a061167f565b5b5f6117ae84828501611778565b91505092915050565b5f60e0820190506117ca5f83018a611614565b6117d76020830189611614565b6117e46040830188611614565b6117f16060830187611614565b6117fe6080830186611614565b61180b60a0830185611713565b61181860c0830184611713565b98975050505050505050565b61182d816116a2565b82525050565b5f6020820190506118465f830184611824565b92915050565b61185581611708565b811461185f575f80fd5b50565b5f813590506118708161184c565b92915050565b5f6020828403121561188b5761188a61167f565b5b5f61189884828501611862565b91505092915050565b5f80604083850312156118b7576118b661167f565b5b5f6118c485828601611778565b92505060206118d585828601611778565b9150509250929050565b5f819050919050565b5f6119026118fd6118f884611683565b6118df565b611683565b9050919050565b5f611913826118e8565b9050919050565b5f61192482611909565b9050919050565b6119348161191a565b82525050565b5f60208201905061194d5f83018461192b565b92915050565b5f82825260208201905092915050565b7f50726573616c65206e6f742073746172746564000000000000000000000000005f82015250565b5f611997601383611953565b91506119a282611963565b602082019050919050565b5f6020820190508181035f8301526119c48161198b565b9050919050565b7f50726573616c6520656e646564000000000000000000000000000000000000005f82015250565b5f6119ff600d83611953565b9150611a0a826119cb565b602082019050919050565b5f6020820190508181035f830152611a2c816119f3565b9050919050565b7f50726573616c65207061757365640000000000000000000000000000000000005f82015250565b5f611a67600e83611953565b9150611a7282611a33565b602082019050919050565b5f6020820190508181035f830152611a9481611a5b565b9050919050565b7f48617264206361702072656163686564000000000000000000000000000000005f82015250565b5f611acf601083611953565b9150611ada82611a9b565b602082019050919050565b5f6020820190508181035f830152611afc81611ac3565b9050919050565b7f416d6f756e74206d7573742062652067726561746572207468616e20300000005f82015250565b5f611b37601d83611953565b9150611b4282611b03565b602082019050919050565b5f6020820190508181035f830152611b6481611b2b565b9050919050565b7f4e487b71000000000000000000000000000000000000000000000000000000005f52601160045260245ffd5b5f611ba28261160b565b9150611bad8361160b565b9250828201905080821115611bc557611bc4611b6b565b5b92915050565b7f45786365656473206861726420636170000000000000000000000000000000005f82015250565b5f611bff601083611953565b9150611c0a82611bcb565b602082019050919050565b5f6020820190508181035f830152611c2c81611bf3565b9050919050565b5f611c3d8261160b565b9150611c488361160b565b9250828202611c568161160b565b91508282048414831517611c6d57611c6c611b6b565b5b5092915050565b7f4e487b71000000000000000000000000000000000000000000000000000000005f52601260045260245ffd5b5f611cab8261160b565b9150611cb68361160b565b925082611cc657611cc5611c74565b5b828204905092915050565b7f4e6f20746f6b656e7320746f20726563656976650000000000000000000000005f82015250565b5f611d05601483611953565b9150611d1082611cd1565b602082019050919050565b5f6020820190508181035f830152611d3281611cf9565b9050919050565b5f611d438261160b565b9150611d4e8361160b565b9250828203905081811115611d6657611d65611b6b565b5b92915050565b7f50726573616c65206e6f7420656e6465640000000000000000000000000000005f82015250565b5f611da0601183611953565b9150611dab82611d6c565b602082019050919050565b5f6020820190508181035f830152611dcd81611d94565b9050919050565b7f4e6f2066756e647320746f2077697468647261770000000000000000000000005f82015250565b5f611e08601483611953565b9150611e1382611dd4565b602082019050919050565b5f6020820190508181035f830152611e3581611dfc565b9050919050565b5f81905092915050565b50565b5f611e545f83611e3c565b9150611e5f82611e46565b5f82019050919050565b5f611e7382611e49565b9150819050919050565b7f5472616e73666572206661696c656400000000000000000000000000000000005f82015250565b5f611eb1600f83611953565b9150611ebc82611e7d565b602082019050919050565b5f6020820190508181035f830152611ede81611ea5565b9050919050565b7f4e6f20746f6b656e7320746f20636c61696d00000000000000000000000000005f82015250565b5f611f19601283611953565b9150611f2482611ee5565b602082019050919050565b5f6020820190508181035f830152611f4681611f0d565b9050919050565b5f604082019050611f605f830185611824565b611f6d6020830184611614565b9392505050565b5f81519050611f828161184c565b92915050565b5f60208284031215611f9d57611f9c61167f565b5b5f611faa84828501611f74565b91505092915050565b7f546f6b656e207472616e73666572206661696c656400000000000000000000005f82015250565b5f611fe7601583611953565b9150611ff282611fb3565b602082019050919050565b5f6020820190508181035f83015261201481611fdb565b9050919050565b7f546f6b656e207072696365206d7573742062652067726561746572207468616e5f8201527f2030000000000000000000000000000000000000000000000000000000000000602082015250565b5f612075602283611953565b91506120808261201b565b604082019050919050565b5f6020820190508181035f8301526120a281612069565b9050919050565b7f4861726420636170206d7573742062652067726561746572207468616e20746f5f8201527f74616c2072616973656400000000000000000000000000000000000000000000602082015250565b5f612103602a83611953565b915061210e826120a9565b604082019050919050565b5f6020820190508181035f830152612130816120f7565b9050919050565b5f8151905061214581611762565b92915050565b5f602082840312156121605761215f61167f565b5b5f61216d84828501612137565b91505092915050565b7f4e6f20756e736f6c6420746f6b656e73000000000000000000000000000000005f82015250565b5f6121aa601083611953565b91506121b582612176565b602082019050919050565b5f6020820190508181035f8301526121d78161219e565b9050919050565b7f53746172742074696d65206d75737420626520696e20667574757265000000005f82015250565b5f612212601c83611953565b915061221d826121de565b602082019050919050565b5f6020820190508181035f83015261223f81612206565b9050919050565b7f456e642074696d65206d7573742062652061667465722073746172742074696d5f8201527f6500000000000000000000000000000000000000000000000000000000000000602082015250565b5f6122a0602183611953565b91506122ab82612246565b604082019050919050565b5f6020820190508181035f8301526122cd81612294565b9050919050565b7f5265656e7472616e637947756172643a207265656e7472616e742063616c6c005f82015250565b5f612308601f83611953565b9150612313826122d4565b602082019050919050565b5f6020820190508181035f830152612335816122fc565b9050919050565b7f5061757361626c653a20706175736564000000000000000000000000000000005f82015250565b5f612370601083611953565b915061237b8261233c565b602082019050919050565b5f6020820190508181035f83015261239d81612364565b9050919050565b7f5061757361626c653a206e6f74207061757365640000000000000000000000005f82015250565b5f6123d8601483611953565b91506123e3826123a4565b602082019050919050565b5f6020820190508181035f830152612405816123cc565b905091905056fea26469706673582212205669b942e57eb30ce2044af042667edb16b9c3b864e8940e46ebf877b7edb9c264736f6c63430008180033",
			"opcodes": "PUSH1 0x80 PUSH1 0x40 MSTORE CALLVALUE DUP1 ISZERO PUSH3 0x10 JUMPI PUSH0 DUP1 REVERT JUMPDEST POP PUSH1 0x40 MLOAD PUSH3 0x2BA8 CODESIZE SUB DUP1 PUSH3 0x2BA8 DUP4 CODECOPY DUP2 DUP2 ADD PUSH1 0x40 MSTORE DUP2 ADD SWAP1 PUSH3 0x36 SWAP2 SWAP1 PUSH3 0x426 JUMP JUMPDEST CALLER PUSH0 PUSH20 0xFFFFFFFFFFFFFFFFFFFFFFFFFFFFFFFFFFFFFFFF AND DUP2 PUSH20 0xFFFFFFFFFFFFFFFFFFFFFFFFFFFFFFFFFFFFFFFF AND SUB PUSH3 0xAA JUMPI PUSH0 PUSH1 0x40 MLOAD PUSH32 0x1E4FBDF700000000000000000000000000000000000000000000000000000000 DUP2 MSTORE PUSH1 0x4 ADD PUSH3 0xA1 SWAP2 SWAP1 PUSH3 0x4BB JUMP JUMPDEST PUSH1 0x40 MLOAD DUP1 SWAP2 SUB SWAP1 REVERT JUMPDEST PUSH3 0xBB DUP2 PUSH3 0x2C8 PUSH1 0x20 SHL PUSH1 0x20 SHR JUMP JUMPDEST POP PUSH0 DUP1 PUSH1 0x14 PUSH2 0x100 EXP DUP2 SLOAD DUP2 PUSH1 0xFF MUL NOT AND SWAP1 DUP4 ISZERO ISZERO MUL OR SWAP1 SSTORE POP PUSH1 0x1 DUP1 DUP2 SWAP1 SSTORE POP PUSH0 PUSH20 0xFFFFFFFFFFFFFFFFFFFFFFFFFFFFFFFFFFFFFFFF AND DUP6 PUSH20 0xFFFFFFFFFFFFFFFFFFFFFFFFFFFFFFFFFFFFFFFF AND SUB PUSH3 0x14D JUMPI PUSH1 0x40 MLOAD PUSH32 0x8C379A000000000000000000000000000000000000000000000000000000000 DUP2 MSTORE PUSH1 0x4 ADD PUSH3 0x144 SWAP1 PUSH3 0x534 JUMP JUMPDEST PUSH1 0x40 MLOAD DUP1 SWAP2 SUB SWAP1 REVERT JUMPDEST TIMESTAMP DUP5 GT PUSH3 0x192 JUMPI PUSH1 0x40 MLOAD PUSH32 0x8C379A000000000000000000000000000000000000000000000000000000000 DUP2 MSTORE PUSH1 0x4 ADD PUSH3 0x189 SWAP1 PUSH3 0x5A2 JUMP JUMPDEST PUSH1 0x40 MLOAD DUP1 SWAP2 SUB SWAP1 REVERT JUMPDEST DUP4 DUP4 GT PUSH3 0x1D7 JUMPI PUSH1 0x40 MLOAD PUSH32 0x8C379A000000000000000000000000000000000000000000000000000000000 DUP2 MSTORE PUSH1 0x4 ADD PUSH3 0x1CE SWAP1 PUSH3 0x636 JUMP JUMPDEST PUSH1 0x40 MLOAD DUP1 SWAP2 SUB SWAP1 REVERT JUMPDEST PUSH0 DUP3 GT PUSH3 0x21C JUMPI PUSH1 0x40 MLOAD PUSH32 0x8C379A000000000000000000000000000000000000000000000000000000000 DUP2 MSTORE PUSH1 0x4 ADD PUSH3 0x213 SWAP1 PUSH3 0x6A4 JUMP JUMPDEST PUSH1 0x40 MLOAD DUP1 SWAP2 SUB SWAP1 REVERT JUMPDEST PUSH0 DUP2 GT PUSH3 0x261 JUMPI PUSH1 0x40 MLOAD PUSH32 0x8C379A000000000000000000000000000000000000000000000000000000000 DUP2 MSTORE PUSH1 0x4 ADD PUSH3 0x258 SWAP1 PUSH3 0x738 JUMP JUMPDEST PUSH1 0x40 MLOAD DUP1 SWAP2 SUB SWAP1 REVERT JUMPDEST DUP5 PUSH1 0x2 PUSH0 PUSH2 0x100 EXP DUP2 SLOAD DUP2 PUSH20 0xFFFFFFFFFFFFFFFFFFFFFFFFFFFFFFFFFFFFFFFF MUL NOT AND SWAP1 DUP4 PUSH20 0xFFFFFFFFFFFFFFFFFFFFFFFFFFFFFFFFFFFFFFFF AND MUL OR SWAP1 SSTORE POP DUP4 PUSH1 0x3 DUP2 SWAP1 SSTORE POP DUP3 PUSH1 0x4 DUP2 SWAP1 SSTORE POP DUP2 PUSH1 0x5 DUP2 SWAP1 SSTORE POP DUP1 PUSH1 0x7 DUP2 SWAP1 SSTORE POP POP POP POP POP POP PUSH3 0x758 JUMP JUMPDEST PUSH0 DUP1 PUSH0 SWAP1 SLOAD SWAP1 PUSH2 0x100 EXP SWAP1 DIV PUSH20 0xFFFFFFFFFFFFFFFFFFFFFFFFFFFFFFFFFFFFFFFF AND SWAP1 POP DUP2 PUSH0 DUP1 PUSH2 0x100 EXP DUP2 SLOAD DUP2 PUSH20 0xFFFFFFFFFFFFFFFFFFFFFFFFFFFFFFFFFFFFFFFF MUL NOT AND SWAP1 DUP4 PUSH20 0xFFFFFFFFFFFFFFFFFFFFFFFFFFFFFFFFFFFFFFFF AND MUL OR SWAP1 SSTORE POP DUP2 PUSH20 0xFFFFFFFFFFFFFFFFFFFFFFFFFFFFFFFFFFFFFFFF AND DUP2 PUSH20 0xFFFFFFFFFFFFFFFFFFFFFFFFFFFFFFFFFFFFFFFF AND PUSH32 0x8BE0079C531659141344CD1FD0A4F28419497F9722A3DAAFE3B4186F6B6457E0 PUSH1 0x40 MLOAD PUSH1 0x40 MLOAD DUP1 SWAP2 SUB SWAP1 LOG3 POP POP JUMP JUMPDEST PUSH0 DUP1 REVERT JUMPDEST PUSH0 PUSH20 0xFFFFFFFFFFFFFFFFFFFFFFFFFFFFFFFFFFFFFFFF DUP3 AND SWAP1 POP SWAP2 SWAP1 POP JUMP JUMPDEST PUSH0 PUSH3 0x3B8 DUP3 PUSH3 0x38D JUMP JUMPDEST SWAP1 POP SWAP2 SWAP1 POP JUMP JUMPDEST PUSH3 0x3CA DUP2 PUSH3 0x3AC JUMP JUMPDEST DUP2 EQ PUSH3 0x3D5 JUMPI PUSH0 DUP1 REVERT JUMPDEST POP JUMP JUMPDEST PUSH0 DUP2 MLOAD SWAP1 POP PUSH3 0x3E8 DUP2 PUSH3 0x3BF JUMP JUMPDEST SWAP3 SWAP2 POP POP JUMP JUMPDEST PUSH0 DUP2 SWAP1 POP SWAP2 SWAP1 POP JUMP JUMPDEST PUSH3 0x402 DUP2 PUSH3 0x3EE JUMP JUMPDEST DUP2 EQ PUSH3 0x40D JUMPI PUSH0 DUP1 REVERT JUMPDEST POP JUMP JUMPDEST PUSH0 DUP2 MLOAD SWAP1 POP PUSH3 0x420 DUP2 PUSH3 0x3F7 JUMP JUMPDEST SWAP3 SWAP2 POP POP JUMP JUMPDEST PUSH0 DUP1 PUSH0 DUP1 PUSH0 PUSH1 0xA0 DUP7 DUP9 SUB SLT ISZERO PUSH3 0x442 JUMPI PUSH3 0x441 PUSH3 0x389 JUMP JUMPDEST JUMPDEST PUSH0 PUSH3 0x451 DUP9 DUP3 DUP10 ADD PUSH3 0x3D8 JUMP JUMPDEST SWAP6 POP POP PUSH1 0x20 PUSH3 0x464 DUP9 DUP3 DUP10 ADD PUSH3 0x410 JUMP JUMPDEST SWAP5 POP POP PUSH1 0x40 PUSH3 0x477 DUP9 DUP3 DUP10 ADD PUSH3 0x410 JUMP JUMPDEST SWAP4 POP POP PUSH1 0x60 PUSH3 0x48A DUP9 DUP3 DUP10 ADD PUSH3 0x410 JUMP JUMPDEST SWAP3 POP POP PUSH1 0x80 PUSH3 0x49D DUP9 DUP3 DUP10 ADD PUSH3 0x410 JUMP JUMPDEST SWAP2 POP POP SWAP3 SWAP6 POP SWAP3 SWAP6 SWAP1 SWAP4 POP JUMP JUMPDEST PUSH3 0x4B5 DUP2 PUSH3 0x3AC JUMP JUMPDEST DUP3 MSTORE POP POP JUMP JUMPDEST PUSH0 PUSH1 0x20 DUP3 ADD SWAP1 POP PUSH3 0x4D0 PUSH0 DUP4 ADD DUP5 PUSH3 0x4AA JUMP JUMPDEST SWAP3 SWAP2 POP POP JUMP JUMPDEST PUSH0 DUP3 DUP3 MSTORE PUSH1 0x20 DUP3 ADD SWAP1 POP SWAP3 SWAP2 POP POP JUMP JUMPDEST PUSH32 0x496E76616C696420746F6B656E20616464726573730000000000000000000000 PUSH0 DUP3 ADD MSTORE POP JUMP JUMPDEST PUSH0 PUSH3 0x51C PUSH1 0x15 DUP4 PUSH3 0x4D6 JUMP JUMPDEST SWAP2 POP PUSH3 0x529 DUP3 PUSH3 0x4E6 JUMP JUMPDEST PUSH1 0x20 DUP3 ADD SWAP1 POP SWAP2 SWAP1 POP JUMP JUMPDEST PUSH0 PUSH1 0x20 DUP3 ADD SWAP1 POP DUP2 DUP2 SUB PUSH0 DUP4 ADD MSTORE PUSH3 0x54D DUP2 PUSH3 0x50E JUMP JUMPDEST SWAP1 POP SWAP2 SWAP1 POP JUMP JUMPDEST PUSH32 0x53746172742074696D65206D75737420626520696E2066757475726500000000 PUSH0 DUP3 ADD MSTORE POP JUMP JUMPDEST PUSH0 PUSH3 0x58A PUSH1 0x1C DUP4 PUSH3 0x4D6 JUMP JUMPDEST SWAP2 POP PUSH3 0x597 DUP3 PUSH3 0x554 JUMP JUMPDEST PUSH1 0x20 DUP3 ADD SWAP1 POP SWAP2 SWAP1 POP JUMP JUMPDEST PUSH0 PUSH1 0x20 DUP3 ADD SWAP1 POP DUP2 DUP2 SUB PUSH0 DUP4 ADD MSTORE PUSH3 0x5BB DUP2 PUSH3 0x57C JUMP JUMPDEST SWAP1 POP SWAP2 SWAP1 POP JUMP JUMPDEST PUSH32 0x456E642074696D65206D7573742062652061667465722073746172742074696D PUSH0 DUP3 ADD MSTORE PUSH32 0x6500000000000000000000000000000000000000000000000000000000000000 PUSH1 0x20 DUP3 ADD MSTORE POP JUMP JUMPDEST PUSH0 PUSH3 0x61E PUSH1 0x21 DUP4 PUSH3 0x4D6 JUMP JUMPDEST SWAP2 POP PUSH3 0x62B DUP3 PUSH3 0x5C2 JUMP JUMPDEST PUSH1 0x40 DUP3 ADD SWAP1 POP SWAP2 SWAP1 POP JUMP JUMPDEST PUSH0 PUSH1 0x20 DUP3 ADD SWAP1 POP DUP2 DUP2 SUB PUSH0 DUP4 ADD MSTORE PUSH3 0x64F DUP2 PUSH3 0x610 JUMP JUMPDEST SWAP1 POP SWAP2 SWAP1 POP JUMP JUMPDEST PUSH32 0x4861726420636170206D7573742062652067726561746572207468616E203000 PUSH0 DUP3 ADD MSTORE POP JUMP JUMPDEST PUSH0 PUSH3 0x68C PUSH1 0x1F DUP4 PUSH3 0x4D6 JUMP JUMPDEST SWAP2 POP PUSH3 0x699 DUP3 PUSH3 0x656 JUMP JUMPDEST PUSH1 0x20 DUP3 ADD SWAP1 POP SWAP2 SWAP1 POP JUMP JUMPDEST PUSH0 PUSH1 0x20 DUP3 ADD SWAP1 POP DUP2 DUP2 SUB PUSH0 DUP4 ADD MSTORE PUSH3 0x6BD DUP2 PUSH3 0x67E JUMP JUMPDEST SWAP1 POP SWAP2 SWAP1 POP JUMP JUMPDEST PUSH32 0x546F6B656E207072696365206D7573742062652067726561746572207468616E PUSH0 DUP3 ADD MSTORE PUSH32 0x2030000000000000000000000000000000000000000000000000000000000000 PUSH1 0x20 DUP3 ADD MSTORE POP JUMP JUMPDEST PUSH0 PUSH3 0x720 PUSH1 0x22 DUP4 PUSH3 0x4D6 JUMP JUMPDEST SWAP2 POP PUSH3 0x72D DUP3 PUSH3 0x6C4 JUMP JUMPDEST PUSH1 0x40 DUP3 ADD SWAP1 POP SWAP2 SWAP1 POP JUMP JUMPDEST PUSH0 PUSH1 0x20 DUP3 ADD SWAP1 POP DUP2 DUP2 SUB PUSH0 DUP4 ADD MSTORE PUSH3 0x751 DUP2 PUSH3 0x712 JUMP JUMPDEST SWAP1 POP SWAP2 SWAP1 POP JUMP JUMPDEST PUSH2 0x2442 DUP1 PUSH3 0x766 PUSH0 CODECOPY PUSH0 RETURN INVALID PUSH1 0x80 PUSH1 0x40 MSTORE PUSH1 0x4 CALLDATASIZE LT PUSH2 0x142 JUMPI PUSH0 CALLDATALOAD PUSH1 0xE0 SHR DUP1 PUSH4 0x78E97925 GT PUSH2 0xB5 JUMPI DUP1 PUSH4 0xD0FEBE4C GT PUSH2 0x6E JUMPI DUP1 PUSH4 0xD0FEBE4C EQ PUSH2 0x411 JUMPI DUP1 PUSH4 0xD7299EF7 EQ PUSH2 0x41B JUMPI DUP1 PUSH4 0xED622DD3 EQ PUSH2 0x443 JUMPI DUP1 PUSH4 0xF2FDE38B EQ PUSH2 0x46B JUMPI DUP1 PUSH4 0xFB86A404 EQ PUSH2 0x493 JUMPI DUP1 PUSH4 0xFC0C546A EQ PUSH2 0x4BD JUMPI PUSH2 0x151 JUMP JUMPDEST DUP1 PUSH4 0x78E97925 EQ PUSH2 0x317 JUMPI DUP1 PUSH4 0x7FF9B596 EQ PUSH2 0x341 JUMPI DUP1 PUSH4 0x84D24226 EQ PUSH2 0x36B JUMPI DUP1 PUSH4 0x8DA5CB5B EQ PUSH2 0x3A7 JUMPI DUP1 PUSH4 0xC5C4744C EQ PUSH2 0x3D1 JUMPI DUP1 PUSH4 0xC8BDBFB6 EQ PUSH2 0x3FB JUMPI PUSH2 0x151 JUMP JUMPDEST DUP1 PUSH4 0x5C975ABB GT PUSH2 0x107 JUMPI DUP1 PUSH4 0x5C975ABB EQ PUSH2 0x21A JUMPI DUP1 PUSH4 0x6386C1C7 EQ PUSH2 0x244 JUMPI DUP1 PUSH4 0x676C0D77 EQ PUSH2 0x281 JUMPI DUP1 PUSH4 0x703DF793 EQ PUSH2 0x2A9 JUMPI DUP1 PUSH4 0x715018A6 EQ PUSH2 0x2D1 JUMPI DUP1 PUSH4 0x767FA723 EQ PUSH2 0x2E7 JUMPI PUSH2 0x151 JUMP JUMPDEST DUP1 PUSH3 0x8F385 EQ PUSH2 0x15B JUMPI DUP1 PUSH4 0x24600FC3 EQ PUSH2 0x188 JUMPI DUP1 PUSH4 0x3197CBB6 EQ PUSH2 0x19E JUMPI DUP1 PUSH4 0x42E94C90 EQ PUSH2 0x1C8 JUMPI DUP1 PUSH4 0x48C54B9D EQ PUSH2 0x204 JUMPI PUSH2 0x151 JUMP JUMPDEST CALLDATASIZE PUSH2 0x151 JUMPI PUSH2 0x14F PUSH2 0x4E7 JUMP JUMPDEST STOP JUMPDEST PUSH2 0x159 PUSH2 0x4E7 JUMP JUMPDEST STOP JUMPDEST CALLVALUE DUP1 ISZERO PUSH2 0x166 JUMPI PUSH0 DUP1 REVERT JUMPDEST POP PUSH2 0x16F PUSH2 0x81A JUMP JUMPDEST PUSH1 0x40 MLOAD PUSH2 0x17F SWAP5 SWAP4 SWAP3 SWAP2 SWAP1 PUSH2 0x1623 JUMP JUMPDEST PUSH1 0x40 MLOAD DUP1 SWAP2 SUB SWAP1 RETURN JUMPDEST CALLVALUE DUP1 ISZERO PUSH2 0x193 JUMPI PUSH0 DUP1 REVERT JUMPDEST POP PUSH2 0x19C PUSH2 0x88A JUMP JUMPDEST STOP JUMPDEST CALLVALUE DUP1 ISZERO PUSH2 0x1A9 JUMPI PUSH0 DUP1 REVERT JUMPDEST POP PUSH2 0x1B2 PUSH2 0xA2F JUMP JUMPDEST PUSH1 0x40 MLOAD PUSH2 0x1BF SWAP2 SWAP1 PUSH2 0x1666 JUMP JUMPDEST PUSH1 0x40 MLOAD DUP1 SWAP2 SUB SWAP1 RETURN JUMPDEST CALLVALUE DUP1 ISZERO PUSH2 0x1D3 JUMPI PUSH0 DUP1 REVERT JUMPDEST POP PUSH2 0x1EE PUSH1 0x4 DUP1 CALLDATASIZE SUB DUP2 ADD SWAP1 PUSH2 0x1E9 SWAP2 SWAP1 PUSH2 0x16DD JUMP JUMPDEST PUSH2 0xA35 JUMP JUMPDEST PUSH1 0x40 MLOAD PUSH2 0x1FB SWAP2 SWAP1 PUSH2 0x1666 JUMP JUMPDEST PUSH1 0x40 MLOAD DUP1 SWAP2 SUB SWAP1 RETURN JUMPDEST CALLVALUE DUP1 ISZERO PUSH2 0x20F JUMPI PUSH0 DUP1 REVERT JUMPDEST POP PUSH2 0x218 PUSH2 0xA4A JUMP JUMPDEST STOP JUMPDEST CALLVALUE DUP1 ISZERO PUSH2 0x225 JUMPI PUSH0 DUP1 REVERT JUMPDEST POP PUSH2 0x22E PUSH2 0xCCC JUMP JUMPDEST PUSH1 0x40 MLOAD PUSH2 0x23B SWAP2 SWAP1 PUSH2 0x1722 JUMP JUMPDEST PUSH1 0x40 MLOAD DUP1 SWAP2 SUB SWAP1 RETURN JUMPDEST CALLVALUE DUP1 ISZERO PUSH2 0x24F JUMPI PUSH0 DUP1 REVERT JUMPDEST POP PUSH2 0x26A PUSH1 0x4 DUP1 CALLDATASIZE SUB DUP2 ADD SWAP1 PUSH2 0x265 SWAP2 SWAP1 PUSH2 0x16DD JUMP JUMPDEST PUSH2 0xCE1 JUMP JUMPDEST PUSH1 0x40 MLOAD PUSH2 0x278 SWAP3 SWAP2 SWAP1 PUSH2 0x173B JUMP JUMPDEST PUSH1 0x40 MLOAD DUP1 SWAP2 SUB SWAP1 RETURN JUMPDEST CALLVALUE DUP1 ISZERO PUSH2 0x28C JUMPI PUSH0 DUP1 REVERT JUMPDEST POP PUSH2 0x2A7 PUSH1 0x4 DUP1 CALLDATASIZE SUB DUP2 ADD SWAP1 PUSH2 0x2A2 SWAP2 SWAP1 PUSH2 0x178C JUMP JUMPDEST PUSH2 0xD68 JUMP JUMPDEST STOP JUMPDEST CALLVALUE DUP1 ISZERO PUSH2 0x2B4 JUMPI PUSH0 DUP1 REVERT JUMPDEST POP PUSH2 0x2CF PUSH1 0x4 DUP1 CALLDATASIZE SUB DUP2 ADD SWAP1 PUSH2 0x2CA SWAP2 SWAP1 PUSH2 0x178C JUMP JUMPDEST PUSH2 0xDBC JUMP JUMPDEST STOP JUMPDEST CALLVALUE DUP1 ISZERO PUSH2 0x2DC JUMPI PUSH0 DUP1 REVERT JUMPDEST POP PUSH2 0x2E5 PUSH2 0xE12 JUMP JUMPDEST STOP JUMPDEST CALLVALUE DUP1 ISZERO PUSH2 0x2F2 JUMPI PUSH0 DUP1 REVERT JUMPDEST POP PUSH2 0x2FB PUSH2 0xE25 JUMP JUMPDEST PUSH1 0x40 MLOAD PUSH2 0x30E SWAP8 SWAP7 SWAP6 SWAP5 SWAP4 SWAP3 SWAP2 SWAP1 PUSH2 0x17B7 JUMP JUMPDEST PUSH1 0x40 MLOAD DUP1 SWAP2 SUB SWAP1 RETURN JUMPDEST CALLVALUE DUP1 ISZERO PUSH2 0x322 JUMPI PUSH0 DUP1 REVERT JUMPDEST POP PUSH2 0x32B PUSH2 0xE93 JUMP JUMPDEST PUSH1 0x40 MLOAD PUSH2 0x338 SWAP2 SWAP1 PUSH2 0x1666 JUMP JUMPDEST PUSH1 0x40 MLOAD DUP1 SWAP2 SUB SWAP1 RETURN JUMPDEST CALLVALUE DUP1 ISZERO PUSH2 0x34C JUMPI PUSH0 DUP1 REVERT JUMPDEST POP PUSH2 0x355 PUSH2 0xE99 JUMP JUMPDEST PUSH1 0x40 MLOAD PUSH2 0x362 SWAP2 SWAP1 PUSH2 0x1666 JUMP JUMPDEST PUSH1 0x40 MLOAD DUP1 SWAP2 SUB SWAP1 RETURN JUMPDEST CALLVALUE DUP1 ISZERO PUSH2 0x376 JUMPI PUSH0 DUP1 REVERT JUMPDEST POP PUSH2 0x391 PUSH1 0x4 DUP1 CALLDATASIZE SUB DUP2 ADD SWAP1 PUSH2 0x38C SWAP2 SWAP1 PUSH2 0x16DD JUMP JUMPDEST PUSH2 0xE9F JUMP JUMPDEST PUSH1 0x40 MLOAD PUSH2 0x39E SWAP2 SWAP1 PUSH2 0x1666 JUMP JUMPDEST PUSH1 0x40 MLOAD DUP1 SWAP2 SUB SWAP1 RETURN JUMPDEST CALLVALUE DUP1 ISZERO PUSH2 0x3B2 JUMPI PUSH0 DUP1 REVERT JUMPDEST POP PUSH2 0x3BB PUSH2 0xEB4 JUMP JUMPDEST PUSH1 0x40 MLOAD PUSH2 0x3C8 SWAP2 SWAP1 PUSH2 0x1833 JUMP JUMPDEST PUSH1 0x40 MLOAD DUP1 SWAP2 SUB SWAP1 RETURN JUMPDEST CALLVALUE DUP1 ISZERO PUSH2 0x3DC JUMPI PUSH0 DUP1 REVERT JUMPDEST POP PUSH2 0x3E5 PUSH2 0xEDB JUMP JUMPDEST PUSH1 0x40 MLOAD PUSH2 0x3F2 SWAP2 SWAP1 PUSH2 0x1666 JUMP JUMPDEST PUSH1 0x40 MLOAD DUP1 SWAP2 SUB SWAP1 RETURN JUMPDEST CALLVALUE DUP1 ISZERO PUSH2 0x406 JUMPI PUSH0 DUP1 REVERT JUMPDEST POP PUSH2 0x40F PUSH2 0xEE1 JUMP JUMPDEST STOP JUMPDEST PUSH2 0x419 PUSH2 0x4E7 JUMP JUMPDEST STOP JUMPDEST CALLVALUE DUP1 ISZERO PUSH2 0x426 JUMPI PUSH0 DUP1 REVERT JUMPDEST POP PUSH2 0x441 PUSH1 0x4 DUP1 CALLDATASIZE SUB DUP2 ADD SWAP1 PUSH2 0x43C SWAP2 SWAP1 PUSH2 0x1876 JUMP JUMPDEST PUSH2 0x1145 JUMP JUMPDEST STOP JUMPDEST CALLVALUE DUP1 ISZERO PUSH2 0x44E JUMPI PUSH0 DUP1 REVERT JUMPDEST POP PUSH2 0x469 PUSH1 0x4 DUP1 CALLDATASIZE SUB DUP2 ADD SWAP1 PUSH2 0x464 SWAP2 SWAP1 PUSH2 0x18A1 JUMP JUMPDEST PUSH2 0x11C1 JUMP JUMPDEST STOP JUMPDEST CALLVALUE DUP1 ISZERO PUSH2 0x476 JUMPI PUSH0 DUP1 REVERT JUMPDEST POP PUSH2 0x491 PUSH1 0x4 DUP1 CALLDATASIZE SUB DUP2 ADD SWAP1 PUSH2 0x48C SWAP2 SWAP1 PUSH2 0x16DD JUMP JUMPDEST PUSH2 0x125F JUMP JUMPDEST STOP JUMPDEST CALLVALUE DUP1 ISZERO PUSH2 0x49E JUMPI PUSH0 DUP1 REVERT JUMPDEST POP PUSH2 0x4A7 PUSH2 0x12E3 JUMP JUMPDEST PUSH1 0x40 MLOAD PUSH2 0x4B4 SWAP2 SWAP1 PUSH2 0x1666 JUMP JUMPDEST PUSH1 0x40 MLOAD DUP1 SWAP2 SUB SWAP1 RETURN JUMPDEST CALLVALUE DUP1 ISZERO PUSH2 0x4C8 JUMPI PUSH0 DUP1 REVERT JUMPDEST POP PUSH2 0x4D1 PUSH2 0x12E9 JUMP JUMPDEST PUSH1 0x40 MLOAD PUSH2 0x4DE SWAP2 SWAP1 PUSH2 0x193A JUMP JUMPDEST PUSH1 0x40 MLOAD DUP1 SWAP2 SUB SWAP1 RETURN JUMPDEST PUSH1 0x3 SLOAD TIMESTAMP LT ISZERO PUSH2 0x52C JUMPI PUSH1 0x40 MLOAD PUSH32 0x8C379A000000000000000000000000000000000000000000000000000000000 DUP2 MSTORE PUSH1 0x4 ADD PUSH2 0x523 SWAP1 PUSH2 0x19AD JUMP JUMPDEST PUSH1 0x40 MLOAD DUP1 SWAP2 SUB SWAP1 REVERT JUMPDEST PUSH1 0x4 SLOAD TIMESTAMP GT ISZERO PUSH2 0x571 JUMPI PUSH1 0x40 MLOAD PUSH32 0x8C379A000000000000000000000000000000000000000000000000000000000 DUP2 MSTORE PUSH1 0x4 ADD PUSH2 0x568 SWAP1 PUSH2 0x1A15 JUMP JUMPDEST PUSH1 0x40 MLOAD DUP1 SWAP2 SUB SWAP1 REVERT JUMPDEST PUSH2 0x579 PUSH2 0xCCC JUMP JUMPDEST ISZERO PUSH2 0x5B9 JUMPI PUSH1 0x40 MLOAD PUSH32 0x8C379A000000000000000000000000000000000000000000000000000000000 DUP2 MSTORE PUSH1 0x4 ADD PUSH2 0x5B0 SWAP1 PUSH2 0x1A7D JUMP JUMPDEST PUSH1 0x40 MLOAD DUP1 SWAP2 SUB SWAP1 REVERT JUMPDEST PUSH1 0x5 SLOAD PUSH1 0x6 SLOAD LT PUSH2 0x5FF JUMPI PUSH1 0x40 MLOAD PUSH32 0x8C379A000000000000000000000000000000000000000000000000000000000 DUP2 MSTORE PUSH1 0x4 ADD PUSH2 0x5F6 SWAP1 PUSH2 0x1AE5 JUMP JUMPDEST PUSH1 0x40 MLOAD DUP1 SWAP2 SUB SWAP1 REVERT JUMPDEST PUSH2 0x607 PUSH2 0x130E JUMP JUMPDEST PUSH0 CALLVALUE GT PUSH2 0x649 JUMPI PUSH1 0x40 MLOAD PUSH32 0x8C379A000000000000000000000000000000000000000000000000000000000 DUP2 MSTORE PUSH1 0x4 ADD PUSH2 0x640 SWAP1 PUSH2 0x1B4D JUMP JUMPDEST PUSH1 0x40 MLOAD DUP1 SWAP2 SUB SWAP1 REVERT JUMPDEST PUSH1 0x5 SLOAD CALLVALUE PUSH1 0x6 SLOAD PUSH2 0x65A SWAP2 SWAP1 PUSH2 0x1B98 JUMP JUMPDEST GT ISZERO PUSH2 0x69B JUMPI PUSH1 0x40 MLOAD PUSH32 0x8C379A000000000000000000000000000000000000000000000000000000000 DUP2 MSTORE PUSH1 0x4 ADD PUSH2 0x692 SWAP1 PUSH2 0x1C15 JUMP JUMPDEST PUSH1 0x40 MLOAD DUP1 SWAP2 SUB SWAP1 REVERT JUMPDEST PUSH0 PUSH1 0x7 SLOAD PUSH8 0xDE0B6B3A7640000 CALLVALUE PUSH2 0x6B3 SWAP2 SWAP1 PUSH2 0x1C33 JUMP JUMPDEST PUSH2 0x6BD SWAP2 SWAP1 PUSH2 0x1CA1 JUMP JUMPDEST SWAP1 POP PUSH0 DUP2 GT PUSH2 0x701 JUMPI PUSH1 0x40 MLOAD PUSH32 0x8C379A000000000000000000000000000000000000000000000000000000000 DUP2 MSTORE PUSH1 0x4 ADD PUSH2 0x6F8 SWAP1 PUSH2 0x1D1B JUMP JUMPDEST PUSH1 0x40 MLOAD DUP1 SWAP2 SUB SWAP1 REVERT JUMPDEST CALLVALUE PUSH1 0x8 PUSH0 CALLER PUSH20 0xFFFFFFFFFFFFFFFFFFFFFFFFFFFFFFFFFFFFFFFF AND PUSH20 0xFFFFFFFFFFFFFFFFFFFFFFFFFFFFFFFFFFFFFFFF AND DUP2 MSTORE PUSH1 0x20 ADD SWAP1 DUP2 MSTORE PUSH1 0x20 ADD PUSH0 KECCAK256 PUSH0 DUP3 DUP3 SLOAD PUSH2 0x74D SWAP2 SWAP1 PUSH2 0x1B98 JUMP JUMPDEST SWAP3 POP POP DUP2 SWAP1 SSTORE POP DUP1 PUSH1 0x9 PUSH0 CALLER PUSH20 0xFFFFFFFFFFFFFFFFFFFFFFFFFFFFFFFFFFFFFFFF AND PUSH20 0xFFFFFFFFFFFFFFFFFFFFFFFFFFFFFFFFFFFFFFFF AND DUP2 MSTORE PUSH1 0x20 ADD SWAP1 DUP2 MSTORE PUSH1 0x20 ADD PUSH0 KECCAK256 PUSH0 DUP3 DUP3 SLOAD PUSH2 0x7A0 SWAP2 SWAP1 PUSH2 0x1B98 JUMP JUMPDEST SWAP3 POP POP DUP2 SWAP1 SSTORE POP CALLVALUE PUSH1 0x6 PUSH0 DUP3 DUP3 SLOAD PUSH2 0x7B8 SWAP2 SWAP1 PUSH2 0x1B98 JUMP JUMPDEST SWAP3 POP POP DUP2 SWAP1 SSTORE POP CALLER PUSH20 0xFFFFFFFFFFFFFFFFFFFFFFFFFFFFFFFFFFFFFFFF AND PUSH32 0x8FAFEBCAF9D154343DAD25669BFA277F4FBACD7AC6B0C4FED522580E040A0F33 CALLVALUE DUP4 PUSH1 0x40 MLOAD PUSH2 0x807 SWAP3 SWAP2 SWAP1 PUSH2 0x173B JUMP JUMPDEST PUSH1 0x40 MLOAD DUP1 SWAP2 SUB SWAP1 LOG2 POP PUSH2 0x818 PUSH2 0x135D JUMP JUMPDEST JUMP JUMPDEST PUSH0 DUP1 PUSH0 DUP1 PUSH0 PUSH1 0x6 SLOAD PUSH1 0x5 SLOAD GT PUSH2 0x830 JUMPI PUSH0 PUSH2 0x841 JUMP JUMPDEST PUSH1 0x6 SLOAD PUSH1 0x5 SLOAD PUSH2 0x840 SWAP2 SWAP1 PUSH2 0x1D39 JUMP JUMPDEST JUMPDEST SWAP1 POP PUSH0 DUP1 PUSH1 0x5 SLOAD GT PUSH2 0x853 JUMPI PUSH0 PUSH2 0x870 JUMP JUMPDEST PUSH1 0x5 SLOAD PUSH1 0x64 PUSH1 0x6 SLOAD PUSH2 0x865 SWAP2 SWAP1 PUSH2 0x1C33 JUMP JUMPDEST PUSH2 0x86F SWAP2 SWAP1 PUSH2 0x1CA1 JUMP JUMPDEST JUMPDEST SWAP1 POP PUSH1 0x6 SLOAD PUSH1 0x5 SLOAD DUP4 DUP4 SWAP6 POP SWAP6 POP SWAP6 POP SWAP6 POP POP POP SWAP1 SWAP2 SWAP3 SWAP4 JUMP JUMPDEST PUSH2 0x892 PUSH2 0x1366 JUMP JUMPDEST PUSH1 0x4 SLOAD TIMESTAMP GT PUSH2 0x8D6 JUMPI PUSH1 0x40 MLOAD PUSH32 0x8C379A000000000000000000000000000000000000000000000000000000000 DUP2 MSTORE PUSH1 0x4 ADD PUSH2 0x8CD SWAP1 PUSH2 0x1DB6 JUMP JUMPDEST PUSH1 0x40 MLOAD DUP1 SWAP2 SUB SWAP1 REVERT JUMPDEST PUSH0 PUSH1 0x6 SLOAD GT PUSH2 0x91A JUMPI PUSH1 0x40 MLOAD PUSH32 0x8C379A000000000000000000000000000000000000000000000000000000000 DUP2 MSTORE PUSH1 0x4 ADD PUSH2 0x911 SWAP1 PUSH2 0x1E1E JUMP JUMPDEST PUSH1 0x40 MLOAD DUP1 SWAP2 SUB SWAP1 REVERT JUMPDEST PUSH0 PUSH1 0x6 SLOAD SWAP1 POP PUSH0 PUSH1 0x6 DUP2 SWAP1 SSTORE POP PUSH0 PUSH2 0x930 PUSH2 0xEB4 JUMP JUMPDEST PUSH20 0xFFFFFFFFFFFFFFFFFFFFFFFFFFFFFFFFFFFFFFFF AND DUP3 PUSH1 0x40 MLOAD PUSH2 0x953 SWAP1 PUSH2 0x1E69 JUMP JUMPDEST PUSH0 PUSH1 0x40 MLOAD DUP1 DUP4 SUB DUP2 DUP6 DUP8 GAS CALL SWAP3 POP POP POP RETURNDATASIZE DUP1 PUSH0 DUP2 EQ PUSH2 0x98D JUMPI PUSH1 0x40 MLOAD SWAP2 POP PUSH1 0x1F NOT PUSH1 0x3F RETURNDATASIZE ADD AND DUP3 ADD PUSH1 0x40 MSTORE RETURNDATASIZE DUP3 MSTORE RETURNDATASIZE PUSH0 PUSH1 0x20 DUP5 ADD RETURNDATACOPY PUSH2 0x992 JUMP JUMPDEST PUSH1 0x60 SWAP2 POP JUMPDEST POP POP SWAP1 POP DUP1 PUSH2 0x9D6 JUMPI PUSH1 0x40 MLOAD PUSH32 0x8C379A000000000000000000000000000000000000000000000000000000000 DUP2 MSTORE PUSH1 0x4 ADD PUSH2 0x9CD SWAP1 PUSH2 0x1EC7 JUMP JUMPDEST PUSH1 0x40 MLOAD DUP1 SWAP2 SUB SWAP1 REVERT JUMPDEST PUSH2 0x9DE PUSH2 0xEB4 JUMP JUMPDEST PUSH20 0xFFFFFFFFFFFFFFFFFFFFFFFFFFFFFFFFFFFFFFFF AND PUSH32 0xEAFF4B37086828766AD3268786972C0CD24259D4C87A80F9D3963A3C3D999B0D DUP4 PUSH1 0x40 MLOAD PUSH2 0xA23 SWAP2 SWAP1 PUSH2 0x1666 JUMP JUMPDEST PUSH1 0x40 MLOAD DUP1 SWAP2 SUB SWAP1 LOG2 POP POP JUMP JUMPDEST PUSH1 0x4 SLOAD DUP2 JUMP JUMPDEST PUSH1 0x8 PUSH1 0x20 MSTORE DUP1 PUSH0 MSTORE PUSH1 0x40 PUSH0 KECCAK256 PUSH0 SWAP2 POP SWAP1 POP SLOAD DUP2 JUMP JUMPDEST PUSH2 0xA52 PUSH2 0x130E JUMP JUMPDEST PUSH1 0x4 SLOAD TIMESTAMP GT PUSH2 0xA96 JUMPI PUSH1 0x40 MLOAD PUSH32 0x8C379A000000000000000000000000000000000000000000000000000000000 DUP2 MSTORE PUSH1 0x4 ADD PUSH2 0xA8D SWAP1 PUSH2 0x1DB6 JUMP JUMPDEST PUSH1 0x40 MLOAD DUP1 SWAP2 SUB SWAP1 REVERT JUMPDEST PUSH0 PUSH1 0x9 PUSH0 CALLER PUSH20 0xFFFFFFFFFFFFFFFFFFFFFFFFFFFFFFFFFFFFFFFF AND PUSH20 0xFFFFFFFFFFFFFFFFFFFFFFFFFFFFFFFFFFFFFFFF AND DUP2 MSTORE PUSH1 0x20 ADD SWAP1 DUP2 MSTORE PUSH1 0x20 ADD PUSH0 KECCAK256 SLOAD GT PUSH2 0xB15 JUMPI PUSH1 0x40 MLOAD PUSH32 0x8C379A000000000000000000000000000000000000000000000000000000000 DUP2 MSTORE PUSH1 0x4 ADD PUSH2 0xB0C SWAP1 PUSH2 0x1F2F JUMP JUMPDEST PUSH1 0x40 MLOAD DUP1 SWAP2 SUB SWAP1 REVERT JUMPDEST PUSH0 PUSH1 0x9 PUSH0 CALLER PUSH20 0xFFFFFFFFFFFFFFFFFFFFFFFFFFFFFFFFFFFFFFFF AND PUSH20 0xFFFFFFFFFFFFFFFFFFFFFFFFFFFFFFFFFFFFFFFF AND DUP2 MSTORE PUSH1 0x20 ADD SWAP1 DUP2 MSTORE PUSH1 0x20 ADD PUSH0 KECCAK256 SLOAD SWAP1 POP PUSH0 PUSH1 0x9 PUSH0 CALLER PUSH20 0xFFFFFFFFFFFFFFFFFFFFFFFFFFFFFFFFFFFFFFFF AND PUSH20 0xFFFFFFFFFFFFFFFFFFFFFFFFFFFFFFFFFFFFFFFF AND DUP2 MSTORE PUSH1 0x20 ADD SWAP1 DUP2 MSTORE PUSH1 0x20 ADD PUSH0 KECCAK256 DUP2 SWAP1 SSTORE POP PUSH1 0x2 PUSH0 SWAP1 SLOAD SWAP1 PUSH2 0x100 EXP SWAP1 DIV PUSH20 0xFFFFFFFFFFFFFFFFFFFFFFFFFFFFFFFFFFFFFFFF AND PUSH20 0xFFFFFFFFFFFFFFFFFFFFFFFFFFFFFFFFFFFFFFFF AND PUSH4 0xA9059CBB CALLER DUP4 PUSH1 0x40 MLOAD DUP4 PUSH4 0xFFFFFFFF AND PUSH1 0xE0 SHL DUP2 MSTORE PUSH1 0x4 ADD PUSH2 0xBF4 SWAP3 SWAP2 SWAP1 PUSH2 0x1F4D JUMP JUMPDEST PUSH1 0x20 PUSH1 0x40 MLOAD DUP1 DUP4 SUB DUP2 PUSH0 DUP8 GAS CALL ISZERO DUP1 ISZERO PUSH2 0xC10 JUMPI RETURNDATASIZE PUSH0 DUP1 RETURNDATACOPY RETURNDATASIZE PUSH0 REVERT JUMPDEST POP POP POP POP PUSH1 0x40 MLOAD RETURNDATASIZE PUSH1 0x1F NOT PUSH1 0x1F DUP3 ADD AND DUP3 ADD DUP1 PUSH1 0x40 MSTORE POP DUP2 ADD SWAP1 PUSH2 0xC34 SWAP2 SWAP1 PUSH2 0x1F88 JUMP JUMPDEST PUSH2 0xC73 JUMPI PUSH1 0x40 MLOAD PUSH32 0x8C379A000000000000000000000000000000000000000000000000000000000 DUP2 MSTORE PUSH1 0x4 ADD PUSH2 0xC6A SWAP1 PUSH2 0x1FFD JUMP JUMPDEST PUSH1 0x40 MLOAD DUP1 SWAP2 SUB SWAP1 REVERT JUMPDEST CALLER PUSH20 0xFFFFFFFFFFFFFFFFFFFFFFFFFFFFFFFFFFFFFFFF AND PUSH32 0x896E034966EAAF1ADC54ACC0F257056FEBBD300C9E47182CF761982CF1F5E430 DUP3 PUSH1 0x40 MLOAD PUSH2 0xCB9 SWAP2 SWAP1 PUSH2 0x1666 JUMP JUMPDEST PUSH1 0x40 MLOAD DUP1 SWAP2 SUB SWAP1 LOG2 POP PUSH2 0xCCA PUSH2 0x135D JUMP JUMPDEST JUMP JUMPDEST PUSH0 DUP1 PUSH1 0x14 SWAP1 SLOAD SWAP1 PUSH2 0x100 EXP SWAP1 DIV PUSH1 0xFF AND SWAP1 POP SWAP1 JUMP JUMPDEST PUSH0 DUP1 PUSH1 0x8 PUSH0 DUP5 PUSH20 0xFFFFFFFFFFFFFFFFFFFFFFFFFFFFFFFFFFFFFFFF AND PUSH20 0xFFFFFFFFFFFFFFFFFFFFFFFFFFFFFFFFFFFFFFFF AND DUP2 MSTORE PUSH1 0x20 ADD SWAP1 DUP2 MSTORE PUSH1 0x20 ADD PUSH0 KECCAK256 SLOAD PUSH1 0x9 PUSH0 DUP6 PUSH20 0xFFFFFFFFFFFFFFFFFFFFFFFFFFFFFFFFFFFFFFFF AND PUSH20 0xFFFFFFFFFFFFFFFFFFFFFFFFFFFFFFFFFFFFFFFF AND DUP2 MSTORE PUSH1 0x20 ADD SWAP1 DUP2 MSTORE PUSH1 0x20 ADD PUSH0 KECCAK256 SLOAD SWAP2 POP SWAP2 POP SWAP2 POP SWAP2 JUMP JUMPDEST PUSH2 0xD70 PUSH2 0x1366 JUMP JUMPDEST PUSH0 DUP2 GT PUSH2 0xDB2 JUMPI PUSH1 0x40 MLOAD PUSH32 0x8C379A000000000000000000000000000000000000000000000000000000000 DUP2 MSTORE PUSH1 0x4 ADD PUSH2 0xDA9 SWAP1 PUSH2 0x208B JUMP JUMPDEST PUSH1 0x40 MLOAD DUP1 SWAP2 SUB SWAP1 REVERT JUMPDEST DUP1 PUSH1 0x7 DUP2 SWAP1 SSTORE POP POP JUMP JUMPDEST PUSH2 0xDC4 PUSH2 0x1366 JUMP JUMPDEST PUSH1 0x6 SLOAD DUP2 GT PUSH2 0xE08 JUMPI PUSH1 0x40 MLOAD PUSH32 0x8C379A000000000000000000000000000000000000000000000000000000000 DUP2 MSTORE PUSH1 0x4 ADD PUSH2 0xDFF SWAP1 PUSH2 0x2119 JUMP JUMPDEST PUSH1 0x40 MLOAD DUP1 SWAP2 SUB SWAP1 REVERT JUMPDEST DUP1 PUSH1 0x5 DUP2 SWAP1 SSTORE POP POP JUMP JUMPDEST PUSH2 0xE1A PUSH2 0x1366 JUMP JUMPDEST PUSH2 0xE23 PUSH0 PUSH2 0x13ED JUMP JUMPDEST JUMP JUMPDEST PUSH0 DUP1 PUSH0 DUP1 PUSH0 DUP1 PUSH0 DUP1 PUSH1 0x3 SLOAD TIMESTAMP LT ISZERO DUP1 ISZERO PUSH2 0xE41 JUMPI POP PUSH1 0x4 SLOAD TIMESTAMP GT ISZERO JUMPDEST DUP1 ISZERO PUSH2 0xE52 JUMPI POP PUSH2 0xE50 PUSH2 0xCCC JUMP JUMPDEST ISZERO JUMPDEST DUP1 ISZERO PUSH2 0xE61 JUMPI POP PUSH1 0x5 SLOAD PUSH1 0x6 SLOAD LT JUMPDEST SWAP1 POP PUSH1 0x3 SLOAD PUSH1 0x4 SLOAD PUSH1 0x5 SLOAD PUSH1 0x6 SLOAD PUSH1 0x7 SLOAD PUSH2 0xE7A PUSH2 0xCCC JUMP JUMPDEST DUP7 SWAP8 POP SWAP8 POP SWAP8 POP SWAP8 POP SWAP8 POP SWAP8 POP SWAP8 POP POP SWAP1 SWAP2 SWAP3 SWAP4 SWAP5 SWAP6 SWAP7 JUMP JUMPDEST PUSH1 0x3 SLOAD DUP2 JUMP JUMPDEST PUSH1 0x7 SLOAD DUP2 JUMP JUMPDEST PUSH1 0x9 PUSH1 0x20 MSTORE DUP1 PUSH0 MSTORE PUSH1 0x40 PUSH0 KECCAK256 PUSH0 SWAP2 POP SWAP1 POP SLOAD DUP2 JUMP JUMPDEST PUSH0 DUP1 PUSH0 SWAP1 SLOAD SWAP1 PUSH2 0x100 EXP SWAP1 DIV PUSH20 0xFFFFFFFFFFFFFFFFFFFFFFFFFFFFFFFFFFFFFFFF AND SWAP1 POP SWAP1 JUMP JUMPDEST PUSH1 0x6 SLOAD DUP2 JUMP JUMPDEST PUSH2 0xEE9 PUSH2 0x1366 JUMP JUMPDEST PUSH1 0x4 SLOAD TIMESTAMP GT PUSH2 0xF2D JUMPI PUSH1 0x40 MLOAD PUSH32 0x8C379A000000000000000000000000000000000000000000000000000000000 DUP2 MSTORE PUSH1 0x4 ADD PUSH2 0xF24 SWAP1 PUSH2 0x1DB6 JUMP JUMPDEST PUSH1 0x40 MLOAD DUP1 SWAP2 SUB SWAP1 REVERT JUMPDEST PUSH0 PUSH1 0x2 PUSH0 SWAP1 SLOAD SWAP1 PUSH2 0x100 EXP SWAP1 DIV PUSH20 0xFFFFFFFFFFFFFFFFFFFFFFFFFFFFFFFFFFFFFFFF AND PUSH20 0xFFFFFFFFFFFFFFFFFFFFFFFFFFFFFFFFFFFFFFFF AND PUSH4 0x70A08231 ADDRESS PUSH1 0x40 MLOAD DUP3 PUSH4 0xFFFFFFFF AND PUSH1 0xE0 SHL DUP2 MSTORE PUSH1 0x4 ADD PUSH2 0xF88 SWAP2 SWAP1 PUSH2 0x1833 JUMP JUMPDEST PUSH1 0x20 PUSH1 0x40 MLOAD DUP1 DUP4 SUB DUP2 DUP7 GAS STATICCALL ISZERO DUP1 ISZERO PUSH2 0xFA3 JUMPI RETURNDATASIZE PUSH0 DUP1 RETURNDATACOPY RETURNDATASIZE PUSH0 REVERT JUMPDEST POP POP POP POP PUSH1 0x40 MLOAD RETURNDATASIZE PUSH1 0x1F NOT PUSH1 0x1F DUP3 ADD AND DUP3 ADD DUP1 PUSH1 0x40 MSTORE POP DUP2 ADD SWAP1 PUSH2 0xFC7 SWAP2 SWAP1 PUSH2 0x214B JUMP JUMPDEST SWAP1 POP PUSH0 DUP2 GT PUSH2 0x100B JUMPI PUSH1 0x40 MLOAD PUSH32 0x8C379A000000000000000000000000000000000000000000000000000000000 DUP2 MSTORE PUSH1 0x4 ADD PUSH2 0x1002 SWAP1 PUSH2 0x21C0 JUMP JUMPDEST PUSH1 0x40 MLOAD DUP1 SWAP2 SUB SWAP1 REVERT JUMPDEST PUSH1 0x2 PUSH0 SWAP1 SLOAD SWAP1 PUSH2 0x100 EXP SWAP1 DIV PUSH20 0xFFFFFFFFFFFFFFFFFFFFFFFFFFFFFFFFFFFFFFFF AND PUSH20 0xFFFFFFFFFFFFFFFFFFFFFFFFFFFFFFFFFFFFFFFF AND PUSH4 0xA9059CBB PUSH2 0x1050 PUSH2 0xEB4 JUMP JUMPDEST DUP4 PUSH1 0x40 MLOAD DUP4 PUSH4 0xFFFFFFFF AND PUSH1 0xE0 SHL DUP2 MSTORE PUSH1 0x4 ADD PUSH2 0x106E SWAP3 SWAP2 SWAP1 PUSH2 0x1F4D JUMP JUMPDEST PUSH1 0x20 PUSH1 0x40 MLOAD DUP1 DUP4 SUB DUP2 PUSH0 DUP8 GAS CALL ISZERO DUP1 ISZERO PUSH2 0x108A JUMPI RETURNDATASIZE PUSH0 DUP1 RETURNDATACOPY RETURNDATASIZE PUSH0 REVERT JUMPDEST POP POP POP POP PUSH1 0x40 MLOAD RETURNDATASIZE PUSH1 0x1F NOT PUSH1 0x1F DUP3 ADD AND DUP3 ADD DUP1 PUSH1 0x40 MSTORE POP DUP2 ADD SWAP1 PUSH2 0x10AE SWAP2 SWAP1 PUSH2 0x1F88 JUMP JUMPDEST PUSH2 0x10ED JUMPI PUSH1 0x40 MLOAD PUSH32 0x8C379A000000000000000000000000000000000000000000000000000000000 DUP2 MSTORE PUSH1 0x4 ADD PUSH2 0x10E4 SWAP1 PUSH2 0x1FFD JUMP JUMPDEST PUSH1 0x40 MLOAD DUP1 SWAP2 SUB SWAP1 REVERT JUMPDEST PUSH2 0x10F5 PUSH2 0xEB4 JUMP JUMPDEST PUSH20 0xFFFFFFFFFFFFFFFFFFFFFFFFFFFFFFFFFFFFFFFF AND PUSH32 0x328A7CCA57E89D3B52F56190EF4E06D91C987E3EF2640DB3BE95D65F818E2D12 DUP3 PUSH1 0x40 MLOAD PUSH2 0x113A SWAP2 SWAP1 PUSH2 0x1666 JUMP JUMPDEST PUSH1 0x40 MLOAD DUP1 SWAP2 SUB SWAP1 LOG2 POP JUMP JUMPDEST PUSH2 0x114D PUSH2 0x1366 JUMP JUMPDEST DUP1 ISZERO PUSH2 0x1160 JUMPI PUSH2 0x115B PUSH2 0x14AE JUMP JUMPDEST PUSH2 0x1169 JUMP JUMPDEST PUSH2 0x1168 PUSH2 0x1510 JUMP JUMPDEST JUMPDEST PUSH2 0x1171 PUSH2 0xEB4 JUMP JUMPDEST PUSH20 0xFFFFFFFFFFFFFFFFFFFFFFFFFFFFFFFFFFFFFFFF AND PUSH32 0xAC5C0908ED5F21C95AC4028BBE6D55D00FEA102284F1C7FF590D33D19ED753F6 DUP3 PUSH1 0x40 MLOAD PUSH2 0x11B6 SWAP2 SWAP1 PUSH2 0x1722 JUMP JUMPDEST PUSH1 0x40 MLOAD DUP1 SWAP2 SUB SWAP1 LOG2 POP JUMP JUMPDEST PUSH2 0x11C9 PUSH2 0x1366 JUMP JUMPDEST TIMESTAMP DUP3 GT PUSH2 0x120B JUMPI PUSH1 0x40 MLOAD PUSH32 0x8C379A000000000000000000000000000000000000000000000000000000000 DUP2 MSTORE PUSH1 0x4 ADD PUSH2 0x1202 SWAP1 PUSH2 0x2228 JUMP JUMPDEST PUSH1 0x40 MLOAD DUP1 SWAP2 SUB SWAP1 REVERT JUMPDEST DUP2 DUP2 GT PUSH2 0x124D JUMPI PUSH1 0x40 MLOAD PUSH32 0x8C379A000000000000000000000000000000000000000000000000000000000 DUP2 MSTORE PUSH1 0x4 ADD PUSH2 0x1244 SWAP1 PUSH2 0x22B6 JUMP JUMPDEST PUSH1 0x40 MLOAD DUP1 SWAP2 SUB SWAP1 REVERT JUMPDEST DUP2 PUSH1 0x3 DUP2 SWAP1 SSTORE POP DUP1 PUSH1 0x4 DUP2 SWAP1 SSTORE POP POP POP JUMP JUMPDEST PUSH2 0x1267 PUSH2 0x1366 JUMP JUMPDEST PUSH0 PUSH20 0xFFFFFFFFFFFFFFFFFFFFFFFFFFFFFFFFFFFFFFFF AND DUP2 PUSH20 0xFFFFFFFFFFFFFFFFFFFFFFFFFFFFFFFFFFFFFFFF AND SUB PUSH2 0x12D7 JUMPI PUSH0 PUSH1 0x40 MLOAD PUSH32 0x1E4FBDF700000000000000000000000000000000000000000000000000000000 DUP2 MSTORE PUSH1 0x4 ADD PUSH2 0x12CE SWAP2 SWAP1 PUSH2 0x1833 JUMP JUMPDEST PUSH1 0x40 MLOAD DUP1 SWAP2 SUB SWAP1 REVERT JUMPDEST PUSH2 0x12E0 DUP2 PUSH2 0x13ED JUMP JUMPDEST POP JUMP JUMPDEST PUSH1 0x5 SLOAD DUP2 JUMP JUMPDEST PUSH1 0x2 PUSH0 SWAP1 SLOAD SWAP1 PUSH2 0x100 EXP SWAP1 DIV PUSH20 0xFFFFFFFFFFFFFFFFFFFFFFFFFFFFFFFFFFFFFFFF AND DUP2 JUMP JUMPDEST PUSH1 0x2 PUSH1 0x1 SLOAD SUB PUSH2 0x1353 JUMPI PUSH1 0x40 MLOAD PUSH32 0x8C379A000000000000000000000000000000000000000000000000000000000 DUP2 MSTORE PUSH1 0x4 ADD PUSH2 0x134A SWAP1 PUSH2 0x231E JUMP JUMPDEST PUSH1 0x40 MLOAD DUP1 SWAP2 SUB SWAP1 REVERT JUMPDEST PUSH1 0x2 PUSH1 0x1 DUP2 SWAP1 SSTORE POP JUMP JUMPDEST PUSH1 0x1 DUP1 DUP2 SWAP1 SSTORE POP JUMP JUMPDEST PUSH2 0x136E PUSH2 0x1571 JUMP JUMPDEST PUSH20 0xFFFFFFFFFFFFFFFFFFFFFFFFFFFFFFFFFFFFFFFF AND PUSH2 0x138C PUSH2 0xEB4 JUMP JUMPDEST PUSH20 0xFFFFFFFFFFFFFFFFFFFFFFFFFFFFFFFFFFFFFFFF AND EQ PUSH2 0x13EB JUMPI PUSH2 0x13AF PUSH2 0x1571 JUMP JUMPDEST PUSH1 0x40 MLOAD PUSH32 0x118CDAA700000000000000000000000000000000000000000000000000000000 DUP2 MSTORE PUSH1 0x4 ADD PUSH2 0x13E2 SWAP2 SWAP1 PUSH2 0x1833 JUMP JUMPDEST PUSH1 0x40 MLOAD DUP1 SWAP2 SUB SWAP1 REVERT JUMPDEST JUMP JUMPDEST PUSH0 DUP1 PUSH0 SWAP1 SLOAD SWAP1 PUSH2 0x100 EXP SWAP1 DIV PUSH20 0xFFFFFFFFFFFFFFFFFFFFFFFFFFFFFFFFFFFFFFFF AND SWAP1 POP DUP2 PUSH0 DUP1 PUSH2 0x100 EXP DUP2 SLOAD DUP2 PUSH20 0xFFFFFFFFFFFFFFFFFFFFFFFFFFFFFFFFFFFFFFFF MUL NOT AND SWAP1 DUP4 PUSH20 0xFFFFFFFFFFFFFFFFFFFFFFFFFFFFFFFFFFFFFFFF AND MUL OR SWAP1 SSTORE POP DUP2 PUSH20 0xFFFFFFFFFFFFFFFFFFFFFFFFFFFFFFFFFFFFFFFF AND DUP2 PUSH20 0xFFFFFFFFFFFFFFFFFFFFFFFFFFFFFFFFFFFFFFFF AND PUSH32 0x8BE0079C531659141344CD1FD0A4F28419497F9722A3DAAFE3B4186F6B6457E0 PUSH1 0x40 MLOAD PUSH1 0x40 MLOAD DUP1 SWAP2 SUB SWAP1 LOG3 POP POP JUMP JUMPDEST PUSH2 0x14B6 PUSH2 0x1578 JUMP JUMPDEST PUSH1 0x1 PUSH0 PUSH1 0x14 PUSH2 0x100 EXP DUP2 SLOAD DUP2 PUSH1 0xFF MUL NOT AND SWAP1 DUP4 ISZERO ISZERO MUL OR SWAP1 SSTORE POP PUSH32 0x62E78CEA01BEE320CD4E420270B5EA74000D11B0C9F74754EBDBFC544B05A258 PUSH2 0x14F9 PUSH2 0x1571 JUMP JUMPDEST PUSH1 0x40 MLOAD PUSH2 0x1506 SWAP2 SWAP1 PUSH2 0x1833 JUMP JUMPDEST PUSH1 0x40 MLOAD DUP1 SWAP2 SUB SWAP1 LOG1 JUMP JUMPDEST PUSH2 0x1518 PUSH2 0x15C2 JUMP JUMPDEST PUSH0 DUP1 PUSH1 0x14 PUSH2 0x100 EXP DUP2 SLOAD DUP2 PUSH1 0xFF MUL NOT AND SWAP1 DUP4 ISZERO ISZERO MUL OR SWAP1 SSTORE POP PUSH32 0x5DB9EE0A495BF2E6FF9C91A7834C1BA4FDD244A5E8AA4E537BD38AEAE4B073AA PUSH2 0x155A PUSH2 0x1571 JUMP JUMPDEST PUSH1 0x40 MLOAD PUSH2 0x1567 SWAP2 SWAP1 PUSH2 0x1833 JUMP JUMPDEST PUSH1 0x40 MLOAD DUP1 SWAP2 SUB SWAP1 LOG1 JUMP JUMPDEST PUSH0 CALLER SWAP1 POP SWAP1 JUMP JUMPDEST PUSH2 0x1580 PUSH2 0xCCC JUMP JUMPDEST ISZERO PUSH2 0x15C0 JUMPI PUSH1 0x40 MLOAD PUSH32 0x8C379A000000000000000000000000000000000000000000000000000000000 DUP2 MSTORE PUSH1 0x4 ADD PUSH2 0x15B7 SWAP1 PUSH2 0x2386 JUMP JUMPDEST PUSH1 0x40 MLOAD DUP1 SWAP2 SUB SWAP1 REVERT JUMPDEST JUMP JUMPDEST PUSH2 0x15CA PUSH2 0xCCC JUMP JUMPDEST PUSH2 0x1609 JUMPI PUSH1 0x40 MLOAD PUSH32 0x8C379A000000000000000000000000000000000000000000000000000000000 DUP2 MSTORE PUSH1 0x4 ADD PUSH2 0x1600 SWAP1 PUSH2 0x23EE JUMP JUMPDEST PUSH1 0x40 MLOAD DUP1 SWAP2 SUB SWAP1 REVERT JUMPDEST JUMP JUMPDEST PUSH0 DUP2 SWAP1 POP SWAP2 SWAP1 POP JUMP JUMPDEST PUSH2 0x161D DUP2 PUSH2 0x160B JUMP JUMPDEST DUP3 MSTORE POP POP JUMP JUMPDEST PUSH0 PUSH1 0x80 DUP3 ADD SWAP1 POP PUSH2 0x1636 PUSH0 DUP4 ADD DUP8 PUSH2 0x1614 JUMP JUMPDEST PUSH2 0x1643 PUSH1 0x20 DUP4 ADD DUP7 PUSH2 0x1614 JUMP JUMPDEST PUSH2 0x1650 PUSH1 0x40 DUP4 ADD DUP6 PUSH2 0x1614 JUMP JUMPDEST PUSH2 0x165D PUSH1 0x60 DUP4 ADD DUP5 PUSH2 0x1614 JUMP JUMPDEST SWAP6 SWAP5 POP POP POP POP POP JUMP JUMPDEST PUSH0 PUSH1 0x20 DUP3 ADD SWAP1 POP PUSH2 0x1679 PUSH0 DUP4 ADD DUP5 PUSH2 0x1614 JUMP JUMPDEST SWAP3 SWAP2 POP POP JUMP JUMPDEST PUSH0 DUP1 REVERT JUMPDEST PUSH0 PUSH20 0xFFFFFFFFFFFFFFFFFFFFFFFFFFFFFFFFFFFFFFFF DUP3 AND SWAP1 POP SWAP2 SWAP1 POP JUMP JUMPDEST PUSH0 PUSH2 0x16AC DUP3 PUSH2 0x1683 JUMP JUMPDEST SWAP1 POP SWAP2 SWAP1 POP JUMP JUMPDEST PUSH2 0x16BC DUP2 PUSH2 0x16A2 JUMP JUMPDEST DUP2 EQ PUSH2 0x16C6 JUMPI PUSH0 DUP1 REVERT JUMPDEST POP JUMP JUMPDEST PUSH0 DUP2 CALLDATALOAD SWAP1 POP PUSH2 0x16D7 DUP2 PUSH2 0x16B3 JUMP JUMPDEST SWAP3 SWAP2 POP POP JUMP JUMPDEST PUSH0 PUSH1 0x20 DUP3 DUP5 SUB SLT ISZERO PUSH2 0x16F2 JUMPI PUSH2 0x16F1 PUSH2 0x167F JUMP JUMPDEST JUMPDEST PUSH0 PUSH2 0x16FF DUP5 DUP3 DUP6 ADD PUSH2 0x16C9 JUMP JUMPDEST SWAP2 POP POP SWAP3 SWAP2 POP POP JUMP JUMPDEST PUSH0 DUP2 ISZERO ISZERO SWAP1 POP SWAP2 SWAP1 POP JUMP JUMPDEST PUSH2 0x171C DUP2 PUSH2 0x1708 JUMP JUMPDEST DUP3 MSTORE POP POP JUMP JUMPDEST PUSH0 PUSH1 0x20 DUP3 ADD SWAP1 POP PUSH2 0x1735 PUSH0 DUP4 ADD DUP5 PUSH2 0x1713 JUMP JUMPDEST SWAP3 SWAP2 POP POP JUMP JUMPDEST PUSH0 PUSH1 0x40 DUP3 ADD SWAP1 POP PUSH2 0x174E PUSH0 DUP4 ADD DUP6 PUSH2 0x1614 JUMP JUMPDEST PUSH2 0x175B PUSH1 0x20 DUP4 ADD DUP5 PUSH2 0x1614 JUMP JUMPDEST SWAP4 SWAP3 POP POP POP JUMP JUMPDEST PUSH2 0x176B DUP2 PUSH2 0x160B JUMP JUMPDEST DUP2 EQ PUSH2 0x1775 JUMPI PUSH0 DUP1 REVERT JUMPDEST POP JUMP JUMPDEST PUSH0 DUP2 CALLDATALOAD SWAP1 POP PUSH2 0x1786 DUP2 PUSH2 0x1762 JUMP JUMPDEST SWAP3 SWAP2 POP POP JUMP JUMPDEST PUSH0 PUSH1 0x20 DUP3 DUP5 SUB SLT ISZERO PUSH2 0x17A1 JUMPI PUSH2 0x17A0 PUSH2 0x167F JUMP JUMPDEST JUMPDEST PUSH0 PUSH2 0x17AE DUP5 DUP3 DUP6 ADD PUSH2 0x1778 JUMP JUMPDEST SWAP2 POP POP SWAP3 SWAP2 POP POP JUMP JUMPDEST PUSH0 PUSH1 0xE0 DUP3 ADD SWAP1 POP PUSH2 0x17CA PUSH0 DUP4 ADD DUP11 PUSH2 0x1614 JUMP JUMPDEST PUSH2 0x17D7 PUSH1 0x20 DUP4 ADD DUP10 PUSH2 0x1614 JUMP JUMPDEST PUSH2 0x17E4 PUSH1 0x40 DUP4 ADD DUP9 PUSH2 0x1614 JUMP JUMPDEST PUSH2 0x17F1 PUSH1 0x60 DUP4 ADD DUP8 PUSH2 0x1614 JUMP JUMPDEST PUSH2 0x17FE PUSH1 0x80 DUP4 ADD DUP7 PUSH2 0x1614 JUMP JUMPDEST PUSH2 0x180B PUSH1 0xA0 DUP4 ADD DUP6 PUSH2 0x1713 JUMP JUMPDEST PUSH2 0x1818 PUSH1 0xC0 DUP4 ADD DUP5 PUSH2 0x1713 JUMP JUMPDEST SWAP9 SWAP8 POP POP POP POP POP POP POP POP JUMP JUMPDEST PUSH2 0x182D DUP2 PUSH2 0x16A2 JUMP JUMPDEST DUP3 MSTORE POP POP JUMP JUMPDEST PUSH0 PUSH1 0x20 DUP3 ADD SWAP1 POP PUSH2 0x1846 PUSH0 DUP4 ADD DUP5 PUSH2 0x1824 JUMP JUMPDEST SWAP3 SWAP2 POP POP JUMP JUMPDEST PUSH2 0x1855 DUP2 PUSH2 0x1708 JUMP JUMPDEST DUP2 EQ PUSH2 0x185F JUMPI PUSH0 DUP1 REVERT JUMPDEST POP JUMP JUMPDEST PUSH0 DUP2 CALLDATALOAD SWAP1 POP PUSH2 0x1870 DUP2 PUSH2 0x184C JUMP JUMPDEST SWAP3 SWAP2 POP POP JUMP JUMPDEST PUSH0 PUSH1 0x20 DUP3 DUP5 SUB SLT ISZERO PUSH2 0x188B JUMPI PUSH2 0x188A PUSH2 0x167F JUMP JUMPDEST JUMPDEST PUSH0 PUSH2 0x1898 DUP5 DUP3 DUP6 ADD PUSH2 0x1862 JUMP JUMPDEST SWAP2 POP POP SWAP3 SWAP2 POP POP JUMP JUMPDEST PUSH0 DUP1 PUSH1 0x40 DUP4 DUP6 SUB SLT ISZERO PUSH2 0x18B7 JUMPI PUSH2 0x18B6 PUSH2 0x167F JUMP JUMPDEST JUMPDEST PUSH0 PUSH2 0x18C4 DUP6 DUP3 DUP7 ADD PUSH2 0x1778 JUMP JUMPDEST SWAP3 POP POP PUSH1 0x20 PUSH2 0x18D5 DUP6 DUP3 DUP7 ADD PUSH2 0x1778 JUMP JUMPDEST SWAP2 POP POP SWAP3 POP SWAP3 SWAP1 POP JUMP JUMPDEST PUSH0 DUP2 SWAP1 POP SWAP2 SWAP1 POP JUMP JUMPDEST PUSH0 PUSH2 0x1902 PUSH2 0x18FD PUSH2 0x18F8 DUP5 PUSH2 0x1683 JUMP JUMPDEST PUSH2 0x18DF JUMP JUMPDEST PUSH2 0x1683 JUMP JUMPDEST SWAP1 POP SWAP2 SWAP1 POP JUMP JUMPDEST PUSH0 PUSH2 0x1913 DUP3 PUSH2 0x18E8 JUMP JUMPDEST SWAP1 POP SWAP2 SWAP1 POP JUMP JUMPDEST PUSH0 PUSH2 0x1924 DUP3 PUSH2 0x1909 JUMP JUMPDEST SWAP1 POP SWAP2 SWAP1 POP JUMP JUMPDEST PUSH2 0x1934 DUP2 PUSH2 0x191A JUMP JUMPDEST DUP3 MSTORE POP POP JUMP JUMPDEST PUSH0 PUSH1 0x20 DUP3 ADD SWAP1 POP PUSH2 0x194D PUSH0 DUP4 ADD DUP5 PUSH2 0x192B JUMP JUMPDEST SWAP3 SWAP2 POP POP JUMP JUMPDEST PUSH0 DUP3 DUP3 MSTORE PUSH1 0x20 DUP3 ADD SWAP1 POP SWAP3 SWAP2 POP POP JUMP JUMPDEST PUSH32 0x50726573616C65206E6F74207374617274656400000000000000000000000000 PUSH0 DUP3 ADD MSTORE POP JUMP JUMPDEST PUSH0 PUSH2 0x1997 PUSH1 0x13 DUP4 PUSH2 0x1953 JUMP JUMPDEST SWAP2 POP PUSH2 0x19A2 DUP3 PUSH2 0x1963 JUMP JUMPDEST PUSH1 0x20 DUP3 ADD SWAP1 POP SWAP2 SWAP1 POP JUMP JUMPDEST PUSH0 PUSH1 0x20 DUP3 ADD SWAP1 POP DUP2 DUP2 SUB PUSH0 DUP4 ADD MSTORE PUSH2 0x19C4 DUP2 PUSH2 0x198B JUMP JUMPDEST SWAP1 POP SWAP2 SWAP1 POP JUMP JUMPDEST PUSH32 0x50726573616C6520656E64656400000000000000000000000000000000000000 PUSH0 DUP3 ADD MSTORE POP JUMP JUMPDEST PUSH0 PUSH2 0x19FF PUSH1 0xD DUP4 PUSH2 0x1953 JUMP JUMPDEST SWAP2 POP PUSH2 0x1A0A DUP3 PUSH2 0x19CB JUMP JUMPDEST PUSH1 0x20 DUP3 ADD SWAP1 POP SWAP2 SWAP1 POP JUMP JUMPDEST PUSH0 PUSH1 0x20 DUP3 ADD SWAP1 POP DUP2 DUP2 SUB PUSH0 DUP4 ADD MSTORE PUSH2 0x1A2C DUP2 PUSH2 0x19F3 JUMP JUMPDEST SWAP1 POP SWAP2 SWAP1 POP JUMP JUMPDEST PUSH32 0x50726573616C6520706175736564000000000000000000000000000000000000 PUSH0 DUP3 ADD MSTORE POP JUMP JUMPDEST PUSH0 PUSH2 0x1A67 PUSH1 0xE DUP4 PUSH2 0x1953 JUMP JUMPDEST SWAP2 POP PUSH2 0x1A72 DUP3 PUSH2 0x1A33 JUMP JUMPDEST PUSH1 0x20 DUP3 ADD SWAP1 POP SWAP2 SWAP1 POP JUMP JUMPDEST PUSH0 PUSH1 0x20 DUP3 ADD SWAP1 POP DUP2 DUP2 SUB PUSH0 DUP4 ADD MSTORE PUSH2 0x1A94 DUP2 PUSH2 0x1A5B JUMP JUMPDEST SWAP1 POP SWAP2 SWAP1 POP JUMP JUMPDEST PUSH32 0x4861726420636170207265616368656400000000000000000000000000000000 PUSH0 DUP3 ADD MSTORE POP JUMP JUMPDEST PUSH0 PUSH2 0x1ACF PUSH1 0x10 DUP4 PUSH2 0x1953 JUMP JUMPDEST SWAP2 POP PUSH2 0x1ADA DUP3 PUSH2 0x1A9B JUMP JUMPDEST PUSH1 0x20 DUP3 ADD SWAP1 POP SWAP2 SWAP1 POP JUMP JUMPDEST PUSH0 PUSH1 0x20 DUP3 ADD SWAP1 POP DUP2 DUP2 SUB PUSH0 DUP4 ADD MSTORE PUSH2 0x1AFC DUP2 PUSH2 0x1AC3 JUMP JUMPDEST SWAP1 POP SWAP2 SWAP1 POP JUMP JUMPDEST PUSH32 0x416D6F756E74206D7573742062652067726561746572207468616E2030000000 PUSH0 DUP3 ADD MSTORE POP JUMP JUMPDEST PUSH0 PUSH2 0x1B37 PUSH1 0x1D DUP4 PUSH2 0x1953 JUMP JUMPDEST SWAP2 POP PUSH2 0x1B42 DUP3 PUSH2 0x1B03 JUMP JUMPDEST PUSH1 0x20 DUP3 ADD SWAP1 POP SWAP2 SWAP1 POP JUMP JUMPDEST PUSH0 PUSH1 0x20 DUP3 ADD SWAP1 POP DUP2 DUP2 SUB PUSH0 DUP4 ADD MSTORE PUSH2 0x1B64 DUP2 PUSH2 0x1B2B JUMP JUMPDEST SWAP1 POP SWAP2 SWAP1 POP JUMP JUMPDEST PUSH32 0x4E487B7100000000000000000000000000000000000000000000000000000000 PUSH0 MSTORE PUSH1 0x11 PUSH1 0x4 MSTORE PUSH1 0x24 PUSH0 REVERT JUMPDEST PUSH0 PUSH2 0x1BA2 DUP3 PUSH2 0x160B JUMP JUMPDEST SWAP2 POP PUSH2 0x1BAD DUP4 PUSH2 0x160B JUMP JUMPDEST SWAP3 POP DUP3 DUP3 ADD SWAP1 POP DUP1 DUP3 GT ISZERO PUSH2 0x1BC5 JUMPI PUSH2 0x1BC4 PUSH2 0x1B6B JUMP JUMPDEST JUMPDEST SWAP3 SWAP2 POP POP JUMP JUMPDEST PUSH32 0x4578636565647320686172642063617000000000000000000000000000000000 PUSH0 DUP3 ADD MSTORE POP JUMP JUMPDEST PUSH0 PUSH2 0x1BFF PUSH1 0x10 DUP4 PUSH2 0x1953 JUMP JUMPDEST SWAP2 POP PUSH2 0x1C0A DUP3 PUSH2 0x1BCB JUMP JUMPDEST PUSH1 0x20 DUP3 ADD SWAP1 POP SWAP2 SWAP1 POP JUMP JUMPDEST PUSH0 PUSH1 0x20 DUP3 ADD SWAP1 POP DUP2 DUP2 SUB PUSH0 DUP4 ADD MSTORE PUSH2 0x1C2C DUP2 PUSH2 0x1BF3 JUMP JUMPDEST SWAP1 POP SWAP2 SWAP1 POP JUMP JUMPDEST PUSH0 PUSH2 0x1C3D DUP3 PUSH2 0x160B JUMP JUMPDEST SWAP2 POP PUSH2 0x1C48 DUP4 PUSH2 0x160B JUMP JUMPDEST SWAP3 POP DUP3 DUP3 MUL PUSH2 0x1C56 DUP2 PUSH2 0x160B JUMP JUMPDEST SWAP2 POP DUP3 DUP3 DIV DUP5 EQ DUP4 ISZERO OR PUSH2 0x1C6D JUMPI PUSH2 0x1C6C PUSH2 0x1B6B JUMP JUMPDEST JUMPDEST POP SWAP3 SWAP2 POP POP JUMP JUMPDEST PUSH32 0x4E487B7100000000000000000000000000000000000000000000000000000000 PUSH0 MSTORE PUSH1 0x12 PUSH1 0x4 MSTORE PUSH1 0x24 PUSH0 REVERT JUMPDEST PUSH0 PUSH2 0x1CAB DUP3 PUSH2 0x160B JUMP JUMPDEST SWAP2 POP PUSH2 0x1CB6 DUP4 PUSH2 0x160B JUMP JUMPDEST SWAP3 POP DUP3 PUSH2 0x1CC6 JUMPI PUSH2 0x1CC5 PUSH2 0x1C74 JUMP JUMPDEST JUMPDEST DUP3 DUP3 DIV SWAP1 POP SWAP3 SWAP2 POP POP JUMP JUMPDEST PUSH32 0x4E6F20746F6B656E7320746F2072656365697665000000000000000000000000 PUSH0 DUP3 ADD MSTORE POP JUMP JUMPDEST PUSH0 PUSH2 0x1D05 PUSH1 0x14 DUP4 PUSH2 0x1953 JUMP JUMPDEST SWAP2 POP PUSH2 0x1D10 DUP3 PUSH2 0x1CD1 JUMP JUMPDEST PUSH1 0x20 DUP3 ADD SWAP1 POP SWAP2 SWAP1 POP JUMP JUMPDEST PUSH0 PUSH1 0x20 DUP3 ADD SWAP1 POP DUP2 DUP2 SUB PUSH0 DUP4 ADD MSTORE PUSH2 0x1D32 DUP2 PUSH2 0x1CF9 JUMP JUMPDEST SWAP1 POP SWAP2 SWAP1 POP JUMP JUMPDEST PUSH0 PUSH2 0x1D43 DUP3 PUSH2 0x160B JUMP JUMPDEST SWAP2 POP PUSH2 0x1D4E DUP4 PUSH2 0x160B JUMP JUMPDEST SWAP3 POP DUP3 DUP3 SUB SWAP1 POP DUP2 DUP2 GT ISZERO PUSH2 0x1D66 JUMPI PUSH2 0x1D65 PUSH2 0x1B6B JUMP JUMPDEST JUMPDEST SWAP3 SWAP2 POP POP JUMP JUMPDEST PUSH32 0x50726573616C65206E6F7420656E646564000000000000000000000000000000 PUSH0 DUP3 ADD MSTORE POP JUMP JUMPDEST PUSH0 PUSH2 0x1DA0 PUSH1 0x11 DUP4 PUSH2 0x1953 JUMP JUMPDEST SWAP2 POP PUSH2 0x1DAB DUP3 PUSH2 0x1D6C JUMP JUMPDEST PUSH1 0x20 DUP3 ADD SWAP1 POP SWAP2 SWAP1 POP JUMP JUMPDEST PUSH0 PUSH1 0x20 DUP3 ADD SWAP1 POP DUP2 DUP2 SUB PUSH0 DUP4 ADD MSTORE PUSH2 0x1DCD DUP2 PUSH2 0x1D94 JUMP JUMPDEST SWAP1 POP SWAP2 SWAP1 POP JUMP JUMPDEST PUSH32 0x4E6F2066756E647320746F207769746864726177000000000000000000000000 PUSH0 DUP3 ADD MSTORE POP JUMP JUMPDEST PUSH0 PUSH2 0x1E08 PUSH1 0x14 DUP4 PUSH2 0x1953 JUMP JUMPDEST SWAP2 POP PUSH2 0x1E13 DUP3 PUSH2 0x1DD4 JUMP JUMPDEST PUSH1 0x20 DUP3 ADD SWAP1 POP SWAP2 SWAP1 POP JUMP JUMPDEST PUSH0 PUSH1 0x20 DUP3 ADD SWAP1 POP DUP2 DUP2 SUB PUSH0 DUP4 ADD MSTORE PUSH2 0x1E35 DUP2 PUSH2 0x1DFC JUMP JUMPDEST SWAP1 POP SWAP2 SWAP1 POP JUMP JUMPDEST PUSH0 DUP2 SWAP1 POP SWAP3 SWAP2 POP POP JUMP JUMPDEST POP JUMP JUMPDEST PUSH0 PUSH2 0x1E54 PUSH0 DUP4 PUSH2 0x1E3C JUMP JUMPDEST SWAP2 POP PUSH2 0x1E5F DUP3 PUSH2 0x1E46 JUMP JUMPDEST PUSH0 DUP3 ADD SWAP1 POP SWAP2 SWAP1 POP JUMP JUMPDEST PUSH0 PUSH2 0x1E73 DUP3 PUSH2 0x1E49 JUMP JUMPDEST SWAP2 POP DUP2 SWAP1 POP SWAP2 SWAP1 POP JUMP JUMPDEST PUSH32 0x5472616E73666572206661696C65640000000000000000000000000000000000 PUSH0 DUP3 ADD MSTORE POP JUMP JUMPDEST PUSH0 PUSH2 0x1EB1 PUSH1 0xF DUP4 PUSH2 0x1953 JUMP JUMPDEST SWAP2 POP PUSH2 0x1EBC DUP3 PUSH2 0x1E7D JUMP JUMPDEST PUSH1 0x20 DUP3 ADD SWAP1 POP SWAP2 SWAP1 POP JUMP JUMPDEST PUSH0 PUSH1 0x20 DUP3 ADD SWAP1 POP DUP2 DUP2 SUB PUSH0 DUP4 ADD MSTORE PUSH2 0x1EDE DUP2 PUSH2 0x1EA5 JUMP JUMPDEST SWAP1 POP SWAP2 SWAP1 POP JUMP JUMPDEST PUSH32 0x4E6F20746F6B656E7320746F20636C61696D0000000000000000000000000000 PUSH0 DUP3 ADD MSTORE POP JUMP JUMPDEST PUSH0 PUSH2 0x1F19 PUSH1 0x12 DUP4 PUSH2 0x1953 JUMP JUMPDEST SWAP2 POP PUSH2 0x1F24 DUP3 PUSH2 0x1EE5 JUMP JUMPDEST PUSH1 0x20 DUP3 ADD SWAP1 POP SWAP2 SWAP1 POP JUMP JUMPDEST PUSH0 PUSH1 0x20 DUP3 ADD SWAP1 POP DUP2 DUP2 SUB PUSH0 DUP4 ADD MSTORE PUSH2 0x1F46 DUP2 PUSH2 0x1F0D JUMP JUMPDEST SWAP1 POP SWAP2 SWAP1 POP JUMP JUMPDEST PUSH0 PUSH1 0x40 DUP3 ADD SWAP1 POP PUSH2 0x1F60 PUSH0 DUP4 ADD DUP6 PUSH2 0x1824 JUMP JUMPDEST PUSH2 0x1F6D PUSH1 0x20 DUP4 ADD DUP5 PUSH2 0x1614 JUMP JUMPDEST SWAP4 SWAP3 POP POP POP JUMP JUMPDEST PUSH0 DUP2 MLOAD SWAP1 POP PUSH2 0x1F82 DUP2 PUSH2 0x184C JUMP JUMPDEST SWAP3 SWAP2 POP POP JUMP JUMPDEST PUSH0 PUSH1 0x20 DUP3 DUP5 SUB SLT ISZERO PUSH2 0x1F9D JUMPI PUSH2 0x1F9C PUSH2 0x167F JUMP JUMPDEST JUMPDEST PUSH0 PUSH2 0x1FAA DUP5 DUP3 DUP6 ADD PUSH2 0x1F74 JUMP JUMPDEST SWAP2 POP POP SWAP3 SWAP2 POP POP JUMP JUMPDEST PUSH32 0x546F6B656E207472616E73666572206661696C65640000000000000000000000 PUSH0 DUP3 ADD MSTORE POP JUMP JUMPDEST PUSH0 PUSH2 0x1FE7 PUSH1 0x15 DUP4 PUSH2 0x1953 JUMP JUMPDEST SWAP2 POP PUSH2 0x1FF2 DUP3 PUSH2 0x1FB3 JUMP JUMPDEST PUSH1 0x20 DUP3 ADD SWAP1 POP SWAP2 SWAP1 POP JUMP JUMPDEST PUSH0 PUSH1 0x20 DUP3 ADD SWAP1 POP DUP2 DUP2 SUB PUSH0 DUP4 ADD MSTORE PUSH2 0x2014 DUP2 PUSH2 0x1FDB JUMP JUMPDEST SWAP1 POP SWAP2 SWAP1 POP JUMP JUMPDEST PUSH32 0x546F6B656E207072696365206D7573742062652067726561746572207468616E PUSH0 DUP3 ADD MSTORE PUSH32 0x2030000000000000000000000000000000000000000000000000000000000000 PUSH1 0x20 DUP3 ADD MSTORE POP JUMP JUMPDEST PUSH0 PUSH2 0x2075 PUSH1 0x22 DUP4 PUSH2 0x1953 JUMP JUMPDEST SWAP2 POP PUSH2 0x2080 DUP3 PUSH2 0x201B JUMP JUMPDEST PUSH1 0x40 DUP3 ADD SWAP1 POP SWAP2 SWAP1 POP JUMP JUMPDEST PUSH0 PUSH1 0x20 DUP3 ADD SWAP1 POP DUP2 DUP2 SUB PUSH0 DUP4 ADD MSTORE PUSH2 0x20A2 DUP2 PUSH2 0x2069 JUMP JUMPDEST SWAP1 POP SWAP2 SWAP1 POP JUMP JUMPDEST PUSH32 0x4861726420636170206D7573742062652067726561746572207468616E20746F PUSH0 DUP3 ADD MSTORE PUSH32 0x74616C2072616973656400000000000000000000000000000000000000000000 PUSH1 0x20 DUP3 ADD MSTORE POP JUMP JUMPDEST PUSH0 PUSH2 0x2103 PUSH1 0x2A DUP4 PUSH2 0x1953 JUMP JUMPDEST SWAP2 POP PUSH2 0x210E DUP3 PUSH2 0x20A9 JUMP JUMPDEST PUSH1 0x40 DUP3 ADD SWAP1 POP SWAP2 SWAP1 POP JUMP JUMPDEST PUSH0 PUSH1 0x20 DUP3 ADD SWAP1 POP DUP2 DUP2 SUB PUSH0 DUP4 ADD MSTORE PUSH2 0x2130 DUP2 PUSH2 0x20F7 JUMP JUMPDEST SWAP1 POP SWAP2 SWAP1 POP JUMP JUMPDEST PUSH0 DUP2 MLOAD SWAP1 POP PUSH2 0x2145 DUP2 PUSH2 0x1762 JUMP JUMPDEST SWAP3 SWAP2 POP POP JUMP JUMPDEST PUSH0 PUSH1 0x20 DUP3 DUP5 SUB SLT ISZERO PUSH2 0x2160 JUMPI PUSH2 0x215F PUSH2 0x167F JUMP JUMPDEST JUMPDEST PUSH0 PUSH2 0x216D DUP5 DUP3 DUP6 ADD PUSH2 0x2137 JUMP JUMPDEST SWAP2 POP POP SWAP3 SWAP2 POP POP JUMP JUMPDEST PUSH32 0x4E6F20756E736F6C6420746F6B656E7300000000000000000000000000000000 PUSH0 DUP3 ADD MSTORE POP JUMP JUMPDEST PUSH0 PUSH2 0x21AA PUSH1 0x10 DUP4 PUSH2 0x1953 JUMP JUMPDEST SWAP2 POP PUSH2 0x21B5 DUP3 PUSH2 0x2176 JUMP JUMPDEST PUSH1 0x20 DUP3 ADD SWAP1 POP SWAP2 SWAP1 POP JUMP JUMPDEST PUSH0 PUSH1 0x20 DUP3 ADD SWAP1 POP DUP2 DUP2 SUB PUSH0 DUP4 ADD MSTORE PUSH2 0x21D7 DUP2 PUSH2 0x219E JUMP JUMPDEST SWAP1 POP SWAP2 SWAP1 POP JUMP JUMPDEST PUSH32 0x53746172742074696D65206D75737420626520696E2066757475726500000000 PUSH0 DUP3 ADD MSTORE POP JUMP JUMPDEST PUSH0 PUSH2 0x2212 PUSH1 0x1C DUP4 PUSH2 0x1953 JUMP JUMPDEST SWAP2 POP PUSH2 0x221D DUP3 PUSH2 0x21DE JUMP JUMPDEST PUSH1 0x20 DUP3 ADD SWAP1 POP SWAP2 SWAP1 POP JUMP JUMPDEST PUSH0 PUSH1 0x20 DUP3 ADD SWAP1 POP DUP2 DUP2 SUB PUSH0 DUP4 ADD MSTORE PUSH2 0x223F DUP2 PUSH2 0x2206 JUMP JUMPDEST SWAP1 POP SWAP2 SWAP1 POP JUMP JUMPDEST PUSH32 0x456E642074696D65206D7573742062652061667465722073746172742074696D PUSH0 DUP3 ADD MSTORE PUSH32 0x6500000000000000000000000000000000000000000000000000000000000000 PUSH1 0x20 DUP3 ADD MSTORE POP JUMP JUMPDEST PUSH0 PUSH2 0x22A0 PUSH1 0x21 DUP4 PUSH2 0x1953 JUMP JUMPDEST SWAP2 POP PUSH2 0x22AB DUP3 PUSH2 0x2246 JUMP JUMPDEST PUSH1 0x40 DUP3 ADD SWAP1 POP SWAP2 SWAP1 POP JUMP JUMPDEST PUSH0 PUSH1 0x20 DUP3 ADD SWAP1 POP DUP2 DUP2 SUB PUSH0 DUP4 ADD MSTORE PUSH2 0x22CD DUP2 PUSH2 0x2294 JUMP JUMPDEST SWAP1 POP SWAP2 SWAP1 POP JUMP JUMPDEST PUSH32 0x5265656E7472616E637947756172643A207265656E7472616E742063616C6C00 PUSH0 DUP3 ADD MSTORE POP JUMP JUMPDEST PUSH0 PUSH2 0x2308 PUSH1 0x1F DUP4 PUSH2 0x1953 JUMP JUMPDEST SWAP2 POP PUSH2 0x2313 DUP3 PUSH2 0x22D4 JUMP JUMPDEST PUSH1 0x20 DUP3 ADD SWAP1 POP SWAP2 SWAP1 POP JUMP JUMPDEST PUSH0 PUSH1 0x20 DUP3 ADD SWAP1 POP DUP2 DUP2 SUB PUSH0 DUP4 ADD MSTORE PUSH2 0x2335 DUP2 PUSH2 0x22FC JUMP JUMPDEST SWAP1 POP SWAP2 SWAP1 POP JUMP JUMPDEST PUSH32 0x5061757361626C653A2070617573656400000000000000000000000000000000 PUSH0 DUP3 ADD MSTORE POP JUMP JUMPDEST PUSH0 PUSH2 0x2370 PUSH1 0x10 DUP4 PUSH2 0x1953 JUMP JUMPDEST SWAP2 POP PUSH2 0x237B DUP3 PUSH2 0x233C JUMP JUMPDEST PUSH1 0x20 DUP3 ADD SWAP1 POP SWAP2 SWAP1 POP JUMP JUMPDEST PUSH0 PUSH1 0x20 DUP3 ADD SWAP1 POP DUP2 DUP2 SUB PUSH0 DUP4 ADD MSTORE PUSH2 0x239D DUP2 PUSH2 0x2364 JUMP JUMPDEST SWAP1 POP SWAP2 SWAP1 POP JUMP JUMPDEST PUSH32 0x5061757361626C653A206E6F7420706175736564000000000000000000000000 PUSH0 DUP3 ADD MSTORE POP JUMP JUMPDEST PUSH0 PUSH2 0x23D8 PUSH1 0x14 DUP4 PUSH2 0x1953 JUMP JUMPDEST SWAP2 POP PUSH2 0x23E3 DUP3 PUSH2 0x23A4 JUMP JUMPDEST PUSH1 0x20 DUP3 ADD SWAP1 POP SWAP2 SWAP1 POP JUMP JUMPDEST PUSH0 PUSH1 0x20 DUP3 ADD SWAP1 POP DUP2 DUP2 SUB PUSH0 DUP4 ADD MSTORE PUSH2 0x2405 DUP2 PUSH2 0x23CC JUMP JUMPDEST SWAP1 POP SWAP2 SWAP1 POP JUMP INVALID LOG2 PUSH5 0x6970667358 0x22 SLT KECCAK256 JUMP PUSH10 0xB942E57EB30CE2044AF0 TIMESTAMP PUSH7 0x7EDB16B9C3B864 0xE8 SWAP5 0xE CHAINID 0xEB 0xF8 PUSH24 0xB7EDB9C264736F6C63430008180033000000000000000000 "
		},
		"gasEstimates": {
			"creation": {
				"codeDepositCost": "1856400",
				"executionCost": "infinite",
				"totalCost": "infinite"
			},
			"external": {
				"": "infinite",
				"buyTokens()": "infinite",
				"claimTokens()": "infinite",
				"claimableTokens(address)": "2869",
				"contributions(address)": "2892",
				"endTime()": "2493",
				"getPresaleInfo()": "infinite",
				"getPresaleProgress()": "infinite",
				"getUserInfo(address)": "infinite",
				"hardCap()": "2535",
				"owner()": "2604",
				"pausePresale(bool)": "infinite",
				"paused()": "2547",
				"renounceOwnership()": "infinite",
				"startTime()": "2448",
				"token()": "infinite",
				"tokenPrice()": "2470",
				"totalRaised()": "2536",
				"transferOwnership(address)": "infinite",
				"updateHardCap(uint256)": "infinite",
				"updatePresaleTimes(uint256,uint256)": "infinite",
				"updateTokenPrice(uint256)": "infinite",
				"withdrawFunds()": "infinite",
				"withdrawUnsoldTokens()": "infinite"
			}
		},
		"methodIdentifiers": {
			"buyTokens()": "d0febe4c",
			"claimTokens()": "48c54b9d",
			"claimableTokens(address)": "84d24226",
			"contributions(address)": "42e94c90",
			"endTime()": "3197cbb6",
			"getPresaleInfo()": "767fa723",
			"getPresaleProgress()": "0008f385",
			"getUserInfo(address)": "6386c1c7",
			"hardCap()": "fb86a404",
			"owner()": "8da5cb5b",
			"pausePresale(bool)": "d7299ef7",
			"paused()": "5c975abb",
			"renounceOwnership()": "715018a6",
			"startTime()": "78e97925",
			"token()": "fc0c546a",
			"tokenPrice()": "7ff9b596",
			"totalRaised()": "c5c4744c",
			"transferOwnership(address)": "f2fde38b",
			"updateHardCap(uint256)": "703df793",
			"updatePresaleTimes(uint256,uint256)": "ed622dd3",
			"updateTokenPrice(uint256)": "676c0d77",
			"withdrawFunds()": "24600fc3",
			"withdrawUnsoldTokens()": "c8bdbfb6"
		}
	},
	"abi": [
		{
			"inputs": [
				{
					"internalType": "address",
					"name": "_token",
					"type": "address"
				},
				{
					"internalType": "uint256",
					"name": "_startTime",
					"type": "uint256"
				},
				{
					"internalType": "uint256",
					"name": "_endTime",
					"type": "uint256"
				},
				{
					"internalType": "uint256",
					"name": "_hardCap",
					"type": "uint256"
				},
				{
					"internalType": "uint256",
					"name": "_tokenPrice",
					"type": "uint256"
				}
			],
			"stateMutability": "nonpayable",
			"type": "constructor"
		},
		{
			"inputs": [
				{
					"internalType": "address",
					"name": "owner",
					"type": "address"
				}
			],
			"name": "OwnableInvalidOwner",
			"type": "error"
		},
		{
			"inputs": [
				{
					"internalType": "address",
					"name": "account",
					"type": "address"
				}
			],
			"name": "OwnableUnauthorizedAccount",
			"type": "error"
		},
		{
			"anonymous": false,
			"inputs": [
				{
					"indexed": true,
					"internalType": "address",
					"name": "owner",
					"type": "address"
				},
				{
					"indexed": false,
					"internalType": "uint256",
					"name": "amount",
					"type": "uint256"
				}
			],
			"name": "FundsWithdrawn",
			"type": "event"
		},
		{
			"anonymous": false,
			"inputs": [
				{
					"indexed": true,
					"internalType": "address",
					"name": "previousOwner",
					"type": "address"
				},
				{
					"indexed": true,
					"internalType": "address",
					"name": "newOwner",
					"type": "address"
				}
			],
			"name": "OwnershipTransferred",
			"type": "event"
		},
		{
			"anonymous": false,
			"inputs": [
				{
					"indexed": false,
					"internalType": "address",
					"name": "account",
					"type": "address"
				}
			],
			"name": "Paused",
			"type": "event"
		},
		{
			"anonymous": false,
			"inputs": [
				{
					"indexed": true,
					"internalType": "address",
					"name": "owner",
					"type": "address"
				},
				{
					"indexed": false,
					"internalType": "bool",
					"name": "status",
					"type": "bool"
				}
			],
			"name": "PresalePaused",
			"type": "event"
		},
		{
			"anonymous": false,
			"inputs": [
				{
					"indexed": true,
					"internalType": "address",
					"name": "buyer",
					"type": "address"
				},
				{
					"indexed": false,
					"internalType": "uint256",
					"name": "tokens",
					"type": "uint256"
				}
			],
			"name": "TokensClaimed",
			"type": "event"
		},
		{
			"anonymous": false,
			"inputs": [
				{
					"indexed": true,
					"internalType": "address",
					"name": "buyer",
					"type": "address"
				},
				{
					"indexed": false,
					"internalType": "uint256",
					"name": "amount",
					"type": "uint256"
				},
				{
					"indexed": false,
					"internalType": "uint256",
					"name": "tokens",
					"type": "uint256"
				}
			],
			"name": "TokensPurchased",
			"type": "event"
		},
		{
			"anonymous": false,
			"inputs": [
				{
					"indexed": false,
					"internalType": "address",
					"name": "account",
					"type": "address"
				}
			],
			"name": "Unpaused",
			"type": "event"
		},
		{
			"anonymous": false,
			"inputs": [
				{
					"indexed": true,
					"internalType": "address",
					"name": "owner",
					"type": "address"
				},
				{
					"indexed": false,
					"internalType": "uint256",
					"name": "tokens",
					"type": "uint256"
				}
			],
			"name": "UnsoldTokensWithdrawn",
			"type": "event"
		},
		{
			"stateMutability": "payable",
			"type": "fallback"
		},
		{
			"inputs": [],
			"name": "buyTokens",
			"outputs": [],
			"stateMutability": "payable",
			"type": "function"
		},
		{
			"inputs": [],
			"name": "claimTokens",
			"outputs": [],
			"stateMutability": "nonpayable",
			"type": "function"
		},
		{
			"inputs": [
				{
					"internalType": "address",
					"name": "",
					"type": "address"
				}
			],
			"name": "claimableTokens",
			"outputs": [
				{
					"internalType": "uint256",
					"name": "",
					"type": "uint256"
				}
			],
			"stateMutability": "view",
			"type": "function"
		},
		{
			"inputs": [
				{
					"internalType": "address",
					"name": "",
					"type": "address"
				}
			],
			"name": "contributions",
			"outputs": [
				{
					"internalType": "uint256",
					"name": "",
					"type": "uint256"
				}
			],
			"stateMutability": "view",
			"type": "function"
		},
		{
			"inputs": [],
			"name": "endTime",
			"outputs": [
				{
					"internalType": "uint256",
					"name": "",
					"type": "uint256"
				}
			],
			"stateMutability": "view",
			"type": "function"
		},
		{
			"inputs": [],
			"name": "getPresaleInfo",
			"outputs": [
				{
					"internalType": "uint256",
					"name": "_startTime",
					"type": "uint256"
				},
				{
					"internalType": "uint256",
					"name": "_endTime",
					"type": "uint256"
				},
				{
					"internalType": "uint256",
					"name": "_hardCap",
					"type": "uint256"
				},
				{
					"internalType": "uint256",
					"name": "_totalRaised",
					"type": "uint256"
				},
				{
					"internalType": "uint256",
					"name": "_tokenPrice",
					"type": "uint256"
				},
				{
					"internalType": "bool",
					"name": "_paused",
					"type": "bool"
				},
				{
					"internalType": "bool",
					"name": "_isActive",
					"type": "bool"
				}
			],
			"stateMutability": "view",
			"type": "function"
		},
		{
			"inputs": [],
			"name": "getPresaleProgress",
			"outputs": [
				{
					"internalType": "uint256",
					"name": "_totalRaised",
					"type": "uint256"
				},
				{
					"internalType": "uint256",
					"name": "_hardCap",
					"type": "uint256"
				},
				{
					"internalType": "uint256",
					"name": "_remaining",
					"type": "uint256"
				},
				{
					"internalType": "uint256",
					"name": "_progressPercent",
					"type": "uint256"
				}
			],
			"stateMutability": "view",
			"type": "function"
		},
		{
			"inputs": [
				{
					"internalType": "address",
					"name": "_user",
					"type": "address"
				}
			],
			"name": "getUserInfo",
			"outputs": [
				{
					"internalType": "uint256",
					"name": "_contribution",
					"type": "uint256"
				},
				{
					"internalType": "uint256",
					"name": "_claimableTokens",
					"type": "uint256"
				}
			],
			"stateMutability": "view",
			"type": "function"
		},
		{
			"inputs": [],
			"name": "hardCap",
			"outputs": [
				{
					"internalType": "uint256",
					"name": "",
					"type": "uint256"
				}
			],
			"stateMutability": "view",
			"type": "function"
		},
		{
			"inputs": [],
			"name": "owner",
			"outputs": [
				{
					"internalType": "address",
					"name": "",
					"type": "address"
				}
			],
			"stateMutability": "view",
			"type": "function"
		},
		{
			"inputs": [
				{
					"internalType": "bool",
					"name": "_status",
					"type": "bool"
				}
			],
			"name": "pausePresale",
			"outputs": [],
			"stateMutability": "nonpayable",
			"type": "function"
		},
		{
			"inputs": [],
			"name": "paused",
			"outputs": [
				{
					"internalType": "bool",
					"name": "",
					"type": "bool"
				}
			],
			"stateMutability": "view",
			"type": "function"
		},
		{
			"inputs": [],
			"name": "renounceOwnership",
			"outputs": [],
			"stateMutability": "nonpayable",
			"type": "function"
		},
		{
			"inputs": [],
			"name": "startTime",
			"outputs": [
				{
					"internalType": "uint256",
					"name": "",
					"type": "uint256"
				}
			],
			"stateMutability": "view",
			"type": "function"
		},
		{
			"inputs": [],
			"name": "token",
			"outputs": [
				{
					"internalType": "contract IERC20",
					"name": "",
					"type": "address"
				}
			],
			"stateMutability": "view",
			"type": "function"
		},
		{
			"inputs": [],
			"name": "tokenPrice",
			"outputs": [
				{
					"internalType": "uint256",
					"name": "",
					"type": "uint256"
				}
			],
			"stateMutability": "view",
			"type": "function"
		},
		{
			"inputs": [],
			"name": "totalRaised",
			"outputs": [
				{
					"internalType": "uint256",
					"name": "",
					"type": "uint256"
				}
			],
			"stateMutability": "view",
			"type": "function"
		},
		{
			"inputs": [
				{
					"internalType": "address",
					"name": "newOwner",
					"type": "address"
				}
			],
			"name": "transferOwnership",
			"outputs": [],
			"stateMutability": "nonpayable",
			"type": "function"
		},
		{
			"inputs": [
				{
					"internalType": "uint256",
					"name": "_hardCap",
					"type": "uint256"
				}
			],
			"name": "updateHardCap",
			"outputs": [],
			"stateMutability": "nonpayable",
			"type": "function"
		},
		{
			"inputs": [
				{
					"internalType": "uint256",
					"name": "_startTime",
					"type": "uint256"
				},
				{
					"internalType": "uint256",
					"name": "_endTime",
					"type": "uint256"
				}
			],
			"name": "updatePresaleTimes",
			"outputs": [],
			"stateMutability": "nonpayable",
			"type": "function"
		},
		{
			"inputs": [
				{
					"internalType": "uint256",
					"name": "_tokenPrice",
					"type": "uint256"
				}
			],
			"name": "updateTokenPrice",
			"outputs": [],
			"stateMutability": "nonpayable",
			"type": "function"
		},
		{
			"inputs": [],
			"name": "withdrawFunds",
			"outputs": [],
			"stateMutability": "nonpayable",
			"type": "function"
		},
		{
			"inputs": [],
			"name": "withdrawUnsoldTokens",
			"outputs": [],
			"stateMutability": "nonpayable",
			"type": "function"
		},
		{
			"stateMutability": "payable",
			"type": "receive"
		}
	]
}